:100000000C94DF030C949B1A0C94C81A0C940704EC
:100010000C9407040C9407040C9407040C94070434
:100020000C9407040C9407040C9407040C94070424
:100030000C9407040C9407040C9407040C94070414
:100040000C94F51A0C9407040C94471E0C94791E1A
:100050000C9407040C9407040C9407040C940704F4
:100060000C943E190C9407047D09800983098609C4
:1000700089098C098F099209950998099B099E099C
:10008000A109A409A709770AA10AC50AEB0A200B4E
:100090006C0BF610F610F610F610F610F610F610BF
:1000A000F610F610F610F610F610F610F610B30B68
:1000B000D60BFF0B430C8B0CF610F610F610F61057
:1000C000F610920CB50C2D0D6C0DF610F610F61006
:1000D000F610F610F610B60DD90D120EF610F61039
:1000E000F610F610F610F610F610F610F610F610E0
:1000F000F610F610F610F610F610F610F610F610D0
:10010000F610F610F610F610F610F610F610F610BF
:10011000F6103D0E640E870EC00EEF0E130F350F56
:10012000E20FFA0FF61007102A107710DB100918EB
:100130000B181118141817181C181F1824182B182E
:10014000301836183A184018461849184F18736571
:100150006C6563742062756E646C652E2E2E2000B3
:10016000476F696E6720746F20736C65657000203F
:1001700043414E4459205354524F42450020434F6F
:100180004D4554205354524F42450020524942425B
:100190004F4E00204D4F525048205354524F42452D
:1001A0000020434841534500204C45474F0020451F
:1001B0004447450020424C494E4B2D4500204441C8
:1001C000534820444F50530020545241434552005D
:1001D000205345495A555245205354524F424500E9
:1001E0002050554C534500205354524F424945002E
:1001F00020444F50530020485950455220535452E8
:100200004F424500205354524F4245006D6F646584
:10021000200020732D003A20692D0020736C6F742C
:1002200020006D6F646520003A200020736C6F74AD
:10023000200062756E646C65200020736C6F7473AF
:100240002D0062756E646C65200073617665643A9A
:10025000200073617665643A20007365743A20006B
:1002600077696C6C20736176652E2E2E2000737773
:100270006974636865643A200077696C6C20736503
:10028000742E2E2E200065646974696E673A200012
:100290006D6173746572207265736574002062709D
:1002A0006D2074726967676572206973200020741D
:1002B0006F74616C2000207468697320636C6963DB
:1002C0006B2000636C69636B202300736574746931
:1002D0006E672062706D00656469740077696C6C8C
:1002E00020746F67676C652062706D207377697426
:1002F0006368696E672E2E2E200073656C656374CB
:100300003A2062756E646C65200077696C6C2065BC
:100310006469742062756E646C652E2E2E200073E5
:10032000776974636865643A2062756E646C6520F1
:100330000077696C6C2073656C6563742062756E00
:10034000646C652E2E2E200073656C656374696E77
:10035000673A20006D61737465722072657365740D
:100360002E2E2E200073656C656374696E670073B2
:100370006176696E673A20007377697463686564B3
:100380003A200077696C6C20736176652E2E200010
:1003900065646974696E673A200020736C6F7473CA
:1003A00000736176696E673A2000636F6E666972EA
:1003B0006D65643A200072656A6563740077696CE4
:1003C0006C20736176652E2E2E200020736C6F7466
:1003D0007300736176696E673A2000636F6E6669B9
:1003E000726D65643A200077696C6C2072656A658D
:1003F00063742E2E2E2000636F6E6669726D3A2034
:100400000073656C65637465643A200073656C65A0
:1004100063743A20007072657620636F6C6F723A75
:1004200020006E65787420636F6C6F723A200073E1
:10043000656C6563743A2000656469743A200063F2
:100440006F6E666967207072696D65206D6F646597
:100450003A2000736C6565702E2E2E2000636F6E3F
:1004600066696720636F6C6F72733A206D6F6465A5
:100470002000636F6E666967207072696D652E2E4D
:100480002E2000636F6E6A757265206F666600636A
:100490006F6E6A757265206F6E00636F6E66696756
:1004A00020636F6C6F72732E2E2E2000736C656547
:1004B00070696E6700746F67676C6520636F6E6A42
:1004C0007572652E2E2E2000636F6E6A7572653A06
:1004D000206C69676874206F6E00636F6E6A757256
:1004E000653A206C69676874206F666600736C6596
:1004F00065702E2E2E2000706C6179696E673A202F
:1005000000706C6179696E672062706D3A200062DC
:10051000706D206E657874206D6F64653A200048B8
:1005200065782076302E312E20454550524F4D2093
:1005300056657273696F6E3A200056657273696F03
:100540006E206D617463682E2052656164696E6708
:100550002073617665642073657474696E67732EA9
:100560000056657273696F6E206D69736D61746397
:10057000682E2057726974696E67206465666175BC
:100580006C747320746F20454550524F4D2E000AF5
:1005900057656C636F6D6520746F20486578210026
:1005A0000000010101010101010101010202020239
:1005B0000202020303030303030404040404050505
:1005C00005050606060607070707080808080909BB
:1005D000090A0A0A0A0B0B0B0C0C0C0D0D0E0E0E61
:1005E0000F0F0F10101111111212131314141415F0
:1005F0001516161717181819191A1A1B1B1C1C1D6B
:100600001E1E1F1F202021212223232425252626CC
:10061000272828292A2A2B2C2C2D2E2E2F30313119
:10062000323333343536363738393A3A3B3C3D3E4F
:100630003E3F40414243434445464748494A4B4B6D
:100640004C4D4E4F505152535455565758595A5B72
:100650005C5D5E5F6061626364656667686A6B6C5F
:100660006D6E6F7071727475767778797B7C7D7E34
:100670007F81828384868788898B8C8D8E909192EE
:1006800094959698999A9C9D9EA0A1A3A4A5A7A88D
:10069000AAABACAEAFB1B2B4B5B7B8B9BBBCBEC013
:1006A000000000202020300000282800003000003A
:1006B0002828000030280028FF0000FC4000F880B7
:1006C00000F4C000F0F000C0F40080F80040FC002E
:1006D00000FF0000FC4000F88000F4C000F0F000D3
:1006E000C0F40080F80040FC0000FF4000FC8000E7
:1006F000F8C000F4F000F0F400C0F80080FC004006
:10070000F02020D84040C06060A08080E0E020C899
:10071000C840B0B06098988020F02040D84060C0B9
:100720006080A08020E0E040C8C860B0B0809898A9
:100730002020F04040D86060C08080A0E020E0C869
:1007400040C8B060B0988098A0A0A0327260329388
:1007500087803260603280806032608032000000CA
:100760000800020100000304070000000000000070
:10077000000102040810204080010204081020013A
:100780000204081020040404040404040402020205
:1007900002020203030303030300000000230026F8
:1007A00000290000000000250028002B00000000A8
:1007B00000240027002A0000B4111119A91E1124D9
:1007C0001FBECFEFD8E0DEBFCDBF11E0A0E0B1E0AB
:1007D000EEE5F7E402C005900D92A03CB107D9F711
:1007E00024E0A0ECB1E001C01D92AD3EB207E1F7FC
:1007F00017E0CEEBD7E004C02297FE010E9414233D
:10080000C83BD107C9F70E94ED1E0C94AD230C9490
:10081000000083B78E7F83BF80E00C948B1AEF9229
:10082000FF920F931F93CF93DF931F92CDB7DEB745
:100830007C01FC0100811181C80169830E948F2322
:100840006981681719F0C8010E949723C7010F90AA
:10085000DF91CF911F910F91FF90EF900895CF936B
:10086000DF93CDB7DEB769970FB6F894DEBF0FBE42
:10087000CDBFDC0159961C92599789E1FE01319652
:1008800001900D928A95E1F769960FB6F894DEBF54
:100890000FBECDBFDF91CF910895CF93DF93EC01D1
:1008A0000E947118198EDF91CF910895AF92BF9277
:1008B000CF92DF92EF92FF920F931F93CF93DF932C
:1008C00000D0CDB7DEB789E0C82E81E0D82E00E099
:1008D00010E094ECE92E93E0F92EF60161916F019E
:1008E000FA82E982CE0101960E940F045801F0E1DC
:1008F000AF0EB11CF801E35FFE4F6081C8018C5759
:100900009C4F9A838983CE0101960E940F040F5F4A
:100910001F4F0A151B0571F78FEFE81AF80A00340C
:100920001105D9F60F900F90DF91CF911F910F9184
:10093000FF90EF90DF90CF90BF90AF900895CF924F
:10094000DF92EF92FF920F931F93CF93DF9329E0F3
:10095000E22E21E0F22EC0E0D0E004EC13E0C8016A
:100960000E948F23F70181937F016E01F0E1CF0E8A
:10097000D11CCE018C579C4F0E948F23FE01E35F58
:10098000FE4F80832196CC15DD0599F70F5F1F4F31
:10099000083C83E0180719F7DF91CF911F910F9161
:1009A000FF90EF90DF90CF9008950F931F93CF9318
:1009B000DF93CDE6D1E00DE411E069917991F80182
:1009C000819191918F010E948D17F1E0CD38DF0761
:1009D000A1F7DF91CF911F910F9108950F931F936E
:1009E000CF93DF93CDE6D1E00DE411E069917991E9
:1009F000F801819191918F010E942917F1E0CD3882
:100A0000DF07A1F7DF91CF911F910F9108955F92BA
:100A10006F927F928F929F92AF92BF92CF92DF920E
:100A2000EF92FF920F931F93CF93DF93CDB7DEB773
:100A300069970FB6F894DEBF0FBECDBF1F921F920D
:100A40001F921F923FE1932E9F921DE11F934BE156
:100A5000B42EBF9259E1752E7F9267E1F62EFF9278
:100A600075E1D72EDF92E3E18E2EF1E1AF2EAFE0FC
:100A7000CA2EBDE0EB2E0BE029E04CE060E0CE0199
:100A800001960E94FB1689E1FE013196A1E6B3E0D2
:100A900001900D928A95E1F71F921F921F921F926B
:100AA0001F921F93BF927F921F92DF92C12C29E069
:100AB0004CE061E0CE0101960E94FB1689E1FE0147
:100AC0003196A7E4B3E001900D928A95E1F71F9269
:100AD0001F921F921F929F921F93BF927F92FF922D
:100AE000DF928FE0C82E29E04CE062E0CE01019653
:100AF0000E94FB1689E1FE013196ADE2B3E0019060
:100B00000D928A95E1F71F921F921F921F921F92DA
:100B10001F921F921F921F939AE1692E6F9227E1F5
:100B2000822E34E1A32E41E1C42E5EE0E52E28E0C2
:100B300048E063E0CE0101960E94FB1689E1FE01C8
:100B40003196A3E1B3E001900D928A95E1F70FB6DB
:100B5000F894DEBF0FBECDBF1F921F921F921F924F
:100B60009F921F93BF927F92FF92DF9263E1862E46
:100B700071E1A72EEFE0CE2EFDE0EF2E29E04CE054
:100B800064E0CE0101960E94FB1689E1FE013196D8
:100B9000A9EFB2E001900D928A95E1F71F921F92A2
:100BA0001F921F929F92FF928FE08F931F93DF926D
:100BB000ADE05A2E5F92BBE18B2E03E1A02E8BE0BD
:100BC000C82E99E1E92E01E129E04CE065E0CE0173
:100BD00001960E94FB1689E1FE013196AFEDB2E06D
:100BE00001900D928A95E1F71F921F921F921F921A
:100BF0001F921F921F921F936F92FF9224E1822EE9
:100C000031E1A32E4EE4C42E5BE0E52E08E02DEB8F
:100C100049E066E0CE0101960E94FB1689E1FE01E3
:100C20003196A5ECB2E001900D928A95E1F71F9202
:100C30001F921F921F921F921F921F921F936F92DB
:100C4000FF926EE0C62E28E349E067E0CE010196F0
:100C50000E94FB1689E1FE013196ABEAB2E00190F9
:100C60000D928A95E1F70FB6F894DEBF0FBECDBFA7
:100C70001F921F921F921F921F921F921F921F92EC
:100C80001F9282E08F9373E0872EE4E0AE2EF5E0B2
:100C9000CF2EA6E0EA2E07E028E347E068E0CE0189
:100CA00001960E94FB1689E1FE013196A1E9B2E0AE
:100CB00001900D928A95E1F71F921F921F921F9249
:100CC0001F921F921F9288ED8F9389ED8F938AED6B
:100CD0008F93BBED8B2E0CE9A02E8DE9C82E9EE5DF
:100CE000E92E0FE528E049E069E0CE0101960E9477
:100CF000FB1689E1FE013196A7E7B2E001900D9263
:100D00008A95E1F71F921F921F921F921F921F92C6
:100D10001F921F921F921F922DE1822E39E1A32E66
:100D200045E1C42E51E1E52E0DE029E046E06AE000
:100D3000CE0101960E94FB1689E1FE013196ADE5D8
:100D4000B2E001900D928A95E1F71F921F921F92D7
:100D50001F92FF925F92BF9281E18F939F92DF92E9
:100D60006BE0862E7FE0C72EEDE1EE2E03E129E059
:100D70004CE06BE0CE0101960E94FB1689E1FE017A
:100D80003196A3E4B2E001900D928A95E1F70FB697
:100D9000F894DEBF0FBECDBF1F921F921F921F920D
:100DA0009F921F93BF927F92FF92DF92F3E18F2E6B
:100DB000A1E1AA2EBDE0EB2E0BE029E04CE06CE0B7
:100DC000CE0101960E94FB1689E1FE013196A9E24F
:100DD000B2E001900D928A95E1F71F921F9283E392
:100DE0008F9382E38F9381E38F9380E38F931F929E
:100DF0008BE28F938AE28F9389E28F9308E2802EB1
:100E0000A12C83E2C82E92E2E92E01E220E24FE01B
:100E10006DE0CE0101960E94FB1689E1FE0131963C
:100E2000AFE0B2E001900D928A95E1F71F921F9218
:100E30001F921F929F921F93BF927F92FF92DF9209
:100E400023E1822E31E1A32E4FE0C42E5DE0E52E9A
:100E50000BE029E04CE06EE0CE0101960E94FB160B
:100E600089E1FE013196A5EFB1E001900D928A95DE
:100E7000E1F71F921F921F921F929F921F93BF92A2
:100E80007F92FF92DF9229E04CE06FE0CE01019665
:100E90000E94FB1689E1FE013196ABEDB1E00190B5
:100EA0000D928A95E1F70FB6F894DEBF0FBECDBF65
:100EB0000E94D50469960FB6F894DEBF0FBECDBF71
:100EC000DF91CF911F910F91FF90EF90DF90CF9026
:100ED000BF90AF909F908F907F906F905F9008959C
:100EE000FF920F931F93CF93DF93F82ED62FC42F2B
:100EF0000E943F1B0091D3011091D4012091D50194
:100F00003091D601601B710B820B930B61157D47ED
:100F10008105910568F30E943F1B6093D301709394
:100F2000D4018093D5019093D601EF2DF0E0E056E7
:100F3000FA4FE4916E2F70E089E00E94E21BED2FE2
:100F4000F0E0E056FA4FE4916E2F70E086E00E94E8
:100F5000E21BEC2FF0E0E056FA4FE4916E2F70E0C8
:100F600085E0DF91CF911F910F91FF900C94E21BD0
:100F7000EF92FF920F931F93CF93DF93182F062FBB
:100F8000F42EE22ED0E0DE1589F0C0E0C23320F46A
:100F90004F2D602F812F03C040E060E080E00E9471
:100FA0007007CF5FC43691F7DF5FEDCFDF91CF9150
:100FB0001F910F91FF90EF9008951092D701E0914B
:100FC000D80180E1E89FF0011124E35FFE4FE0814A
:100FD000F0E0EE0FFF1FE35BFE4F80819181909365
:100FE000DA018093D9011092C9011092CA011092BE
:100FF000CB011092CC010C944D040F931F93CF930F
:10100000DF9300D0CDB7DEB7809164008460809319
:10101000640026E040E051EE60E070E080E594E09E
:101020000E94E51D80E00E94C51BBC01882777FD5A
:101030008095982F0E946A2061E089E00E946A1CD6
:1010400061E086E00E946A1C61E085E00E946A1C03
:1010500060E082E00E946A1C61E081E10E946A1CFB
:1010600061E081E10E94A31C6FE875E080E594E0F7
:101070000E946A1F80E092E00E948F238431A1F0D9
:1010800061E675E080E594E00E946A1F0E94070512
:101090000E94560480E092E09A83898364E1CE0145
:1010A00001960E940F040AC06AE375E080E594E0AF
:1010B0000E946A1F0E94EE040E949F046FE175E087
:1010C00080E594E00E943A1F4AE050E064E180E548
:1010D00094E00E9453200DE411E0F8018191919178
:1010E0008F010E944D04F1E00D361F07B1F7F8940F
:1010F00010927A0085B5887F816085BD80918100DE
:10110000887F816080938100789460EA7FE080E04E
:1011100090E00E94621B0E943F1B6093D30170937A
:10112000D4018093D5019093D6010E94DD0781E020
:10113000809308010F900F90DF91CF911F910F9135
:101140000895E091D801F0E08091D70190E00196F8
:10115000DF01A75FBE4F6C9170E00E94BD228093BB
:10116000D70174E0EE0FFF1F7A95E1F7E80FF91F42
:10117000E35FFE4FE081F0E0EE0FFF1FE35BFE4F09
:10118000808191819093DA018093D9011092C901F5
:101190001092CA011092CB011092CC010C944D0414
:1011A00062E472E080E594E00E943A1F6091D80109
:1011B00070E06F5F7F4F4AE050E080E594E00E946E
:1011C0001F206AE372E080E594E00E943A1FE091FC
:1011D000D801F0E0E75FFE4F4AE050E0608180E533
:1011E00094E00C944C2062E272E080E594E00E946E
:1011F0003A1F8091D701E091D80190E1E99FF00179
:101200001124E80FF11DE35FFE4F608170E06F5F16
:101210007F4F4AE050E080E594E00E941F206BE1A0
:1012200072E080E594E00E943A1FE091D901F091CC
:10123000DA01618D70E06F5F7F4F4AE050E080E53A
:1012400094E00E941F2066E172E080E594E00E9435
:101250003A1FE091D901F091DA01818DE80FF11D7B
:1012600062816F7370E040E150E080E594E00E949D
:101270001F2062E172E080E594E00E943A1FE09155
:10128000D901F091DA01818DE80FF11D628170E0E2
:10129000B6E075956795BA95E1F74AE050E080E5CC
:1012A00094E00C941F206CE072E080E594E00E94D2
:1012B0003A1F8091D701E091D80190E1E99FF001B8
:1012C0001124E80FF11DE35FFE4F608170E06F5F56
:1012D0007F4F4AE050E080E594E00E941F20E091BB
:1012E000D901F091DA01808190E08F30910590F57D
:1012F000FC01EC5CFF4F0C94122364E072E02CC004
:1013000066EF71E029C060EF71E026C067EE71E022
:1013100023C060EE71E020C060ED71E01DC068EC9C
:1013200071E01AC06DEB71E017C064EB71E014C09E
:101330006EEA71E011C068EA71E00EC061EA71E026
:101340000BC063E971E008C06BE871E005C06DE7B0
:1013500071E002C06FE671E080E594E00C943A1F02
:1013600062E372E080E594E00E943A1F6091D80148
:1013700070E06F5F7F4F4AE050E080E594E00E94AC
:101380001F206BE272E080E594E00E943A1F6091BA
:10139000D70170E06F5F7F4F4AE050E080E594E056
:1013A0000E941F2068E272E080E594E00E943A1FEC
:1013B0000C9453090F931F93CF93DF9360E671E072
:1013C00080E594E00E946A1F40E060E080E00E94B7
:1013D000700760E081E10E94A31C60EA7FE080E08A
:1013E00090E00E94621B83B7817F846083BF83B7D4
:1013F000816083BFF89442E050E069E074E080E0EF
:101400000E946B1A81E08CBB80E685BF80E485BFBB
:10141000789488950E943F1B6093D3017093D40108
:101420008093D5019093D601C0E0D0E082E00E9485
:10143000D91C892B91F50E943F1B0091D30110917B
:10144000D4012091D5013091D601601B710B820B24
:10145000930B61307D478105910558F00E943F1B39
:101460006093D3017093D4018093D5019093D601FA
:101470002196C13D87E0D807C8F26EE471E080E5AF
:1014800094E00E943A1F25E040E860E080E00E947E
:10149000B80786E48093D20105C0C13DD74068F704
:1014A0001092D20161E081E10E94A31C0E94DD073D
:1014B00081E0809308011092CE011092CF0160EA82
:1014C0007FE080E090E0DF91CF911F910F910C942D
:1014D000621BCF93C82F4091D20150E04435510593
:1014E00008F084C6FA01ED5BFF4F0C941223809143
:1014F00008018823A9F08091CD01882319F061E0CB
:1015000075E002C067EF74E080E594E00E943A1F46
:101510000E94B00980E594E00E94661F10920801C5
:10152000CC2309F46CC68091D0019091D10185360D
:10153000910508F464C61092D1011092D00181E0A7
:10154000EAC58091D0019091D101893E934018F075
:101550006DEE74E0CAC0C11152C68091CF018823DC
:1015600071F08091CE0191E089278093CE0188238C
:1015700019F06AED74E05BC068EC74E058C00E943A
:10158000A10881E08093080156C08091D00190911C
:10159000D101813D9740A0F065EB74E080E594E0D7
:1015A0000E943A1F25E040E860E080E00E94B80712
:1015B00084EF91E09093D1018093D00183E0ABC59B
:1015C000C1111DC66CEA74E080E594E00E946A1FB8
:1015D0000E94DA0914C68091D0019091D101813D19
:1015E0009740A0F06AE974E080E594E00E943A1F19
:1015F00025E040E060E880E80E94B80784EF91E0D1
:101600009093D1018093D00184E085C5C111F7C5C5
:101610008091CF0191E089278093CF011092CE0174
:10162000882319F06FE874E002C063E874E080E595
:1016300094E00E946A1F1092D1011092D001DDC582
:101640008091D0019091D101813D9740A0F062E757
:1016500074E080E594E00E943A1F25E040E060E8F5
:1016600080E00E94B80784EF91E09093D1018093CD
:10167000D00185E050C5C111C2C58091D9019091BA
:10168000DA010E944D046DE574E080E594E00E946B
:101690003A1F8091D701E091D80120E1E29FF0014B
:1016A0001124E80FF11DE35FFE4F608170E06F5F72
:1016B0007F4F4AE050E080E594E00E942720E091CF
:1016C000D901F091DA01118E1092D1011092D0015E
:1016D00081E080930801BFC18091D0019091D10138
:1016E000813D9740A0F063E574E080E594E00E94BE
:1016F0003A1F25E040E860E880E80E94B80784EFE0
:1017000091E09093D1018093D00182E004C5C11192
:1017100076C58091D9019091DA010E944D046FE362
:1017200074E080E594E00E943A1F8091D701E09137
:10173000D80190E1E99FF0011124E80FF11DE35F6A
:10174000FE4F608170E06F5F7F4F4AE050E080E5C0
:1017500094E00E9427201092D1011092D00181E0E4
:10176000809308015DC280910801882371F068E3CD
:1017700074E080E594E00E943A1F0E94F30880E53F
:1017800094E00E94661F10920801CC2309F437C52B
:101790008091D0019091D1018536910508F42FC533
:1017A0001092D1011092D00185E1B5C48091D00191
:1017B0009091D101893E9340D0F06FE274E080E5D2
:1017C00094E00E943A1F0E94F30880E594E00E9492
:1017D000661F25E040E460E480E40E94B80784EFDF
:1017E00091E09093D1018093D00187E194C4C1111D
:1017F00006C51092D1011092D00186E18CC480916F
:10180000D0019091D1018D3B9240E8F0E091D90157
:10181000F091DA01818DE80FF11D828190E0805C0A
:101820009F4F6FE370E00E94BD22828362E274E00A
:1018300080E594E00E943A1F0E94F30880E594E05E
:101840000E94661F6AC0CC2309F4D9C4E091D90173
:10185000F091DA01818DE80FF11D828190E0CE9642
:101860006FE370E00E94BD22828365E174E080E551
:1018700094E00E943A1F0E94F30880E594E00E94E1
:10188000661F88E148C48091D0019091D101893EC2
:10189000934018F1E091D901F091DA01818DE80FC0
:1018A000F11D8281805C82836CE074E080E594E0CD
:1018B0000E943A1F0E94F30880E594E00E94661F90
:1018C00025E040E460E480E40E94B80784EF91E002
:1018D0009093D1018093D00192C4C11190C4E09142
:1018E000D901F091DA01818D8F5F818361E074E02D
:1018F00080E594E00E943A1F0E94F30880E594E09E
:101900000E94661F1092D1011092D00181E0809355
:1019100008018EE100C4811172C41092D1011092AD
:10192000D00199C080910801882371F067EF73E0BE
:1019300080E594E00E943A1F0E94F30880E594E05D
:101940000E94661F10920801CC2309F458C48091AC
:10195000D0019091D1018536910508F450C41092C0
:10196000D1011092D0018FE1D6C38091D001909126
:10197000D101813D9740A0F067EE73E080E594E0EF
:101980000E943A1F25E040E060E080E80E94B8072E
:1019900084EF91E09093D1018093D00180E2BBC3AA
:1019A000C1112DC4E091D901F091DA01818D8F5FD1
:1019B000818F1092D1011092D0016BED73E080E520
:1019C00094E00E943A1F0E94F30880E594E00E9490
:1019D000661F8091D9019091DA01FC01218D20319F
:1019E000D1F52091D701E091D80130E1E39FF001DA
:1019F0001124E20FF11DE35FFE4FE081F0E0EE0FF6
:101A0000FF1FE359FE4F608171810E948D17809105
:101A1000D9019091DA010E944D0462ED73E080E5F6
:101A200094E00E943A1FE091D901F091DA014AE076
:101A300050E0618180E594E00E944C206BEC73E003
:101A400080E594E00E946A1F25E040E860E880E8B5
:101A50000E94B807D2C384E15EC38091D001909107
:101A6000D101813D974070F06DEB73E080E594E02B
:101A70000E943A1F25E040E860E880E80E94B8072D
:101A800081E249C3C111BBC31092D1011092D001B0
:101A900066EB73E080E594E00E946A1FE091D90153
:101AA000F091DA01818D811105C081E080930801F8
:101AB00084E109C08150818F81818150818381E0DF
:101AC000809308018EE18093D2010E94F30880E5A3
:101AD00094E00E94661F93C3811191C36AEA73E088
:101AE00080E594E00E943A1F0E94F30880E594E0AC
:101AF0000E94661F8091D9019091DA01FC01218D2D
:101B00002F5F21832091D701E091D80130E1E39F3D
:101B1000F0011124E20FF11DE35FFE4FE081F0E0E0
:101B2000EE0FFF1FE359FE4F608171810E948D17F8
:101B30008091D9019091DA010E944D0461EA73E02D
:101B400080E594E00E943A1FE091D901F091DA011A
:101B50004AE050E0618180E594E00E944C206AE90F
:101B600073E080E594E00E946A1F40C38091080101
:101B7000882371F060E973E080E594E00E943A1FE9
:101B80000E94530980E594E00E94661F10920801AC
:101B9000CC2309F434C38091D0019091D1018536D2
:101BA000910508F42CC31092D1011092D00189E262
:101BB000B2C22091D0013091D101203D374070F068
:101BC00063E873E080E594E00E943A1F25E040E876
:101BD00060E880E80E94B8078AE29DC2C1110FC385
:101BE000E091D901F091DA01808190E001968F7047
:101BF0009927808368E773E080E594E00E943A1FAC
:101C00000E94530980E594E00E94661F8091D901EB
:101C10009091DA010E944D041092D1011092D001EE
:101C200088E279C28111EBC28091D701E091D8019D
:101C300090E1E99FF0011124E80FF11DE35FFE4FF1
:101C4000E081F0E0EE0FFF1FE359FE4F60817181EC
:101C50008091D9019091DA010E948D178091D9016C
:101C60009091DA010E944D046FE673E080E594E004
:101C70000E943A1F0E945309B5C2811109C065E64E
:101C800073E080E594E00E946A1F1092CD0172C05B
:101C90008091D0019091D1018938934108F4AFC26D
:101CA00064E573E080E594E00E943A1F25E040E09F
:101CB00060E080E80E94B80784EF91E09093D10142
:101CC0008093D0018EE427C280910801882371F0AF
:101CD00068E473E080E594E00E943A1F0E94D00817
:101CE00080E594E00E94661F10920801CC2309F45D
:101CF00086C28091D0019091D1018536910508F47A
:101D00007EC21092D1011092D00188E404C22091C9
:101D1000D0013091D101203D3740A0F061E373E064
:101D200080E594E00E943A1F25E040E860E080E012
:101D30000E94B80784EF91E09093D1018093D00185
:101D400089E4E9C181115BC28091D80190E00196DC
:101D5000837099278093D8016FE173E080E594E068
:101D60000E943A1F0E94D00880E594E00E94661FFE
:101D70000E94DD071092D1011092D00187E4CBC1FF
:101D80002091D0013091D101203D3740A0F06AE090
:101D900073E080E594E00E943A1F25E040E060E8AF
:101DA00080E80E94B80784EF91E09093D10180937E
:101DB000D0018AE4B0C1C11122C26AEF72E080E5AD
:101DC00094E00E943A1F6091D80170E06F5F7F4FEE
:101DD0004AE050E080E594E00E94272007C220916D
:101DE000D0013091D101203D374070F06CED72E0B0
:101DF00080E594E00E943A1F25E040E060E880E042
:101E00000E94B8078BE487C18111F9C10E94DD07E8
:101E100067ED72E080E594E00E946A1F1092D101A4
:101E20001092D001C3C18111EAC11092C001109279
:101E3000C1011092C2011092C3011092C801109208
:101E4000D1011092D00181E0809308011092C40169
:101E50001092C5011092C6011092C7016BEC72E09E
:101E600080E594E00E946A1FC3C02091D0013091A8
:101E7000D101882309F4A1C02536310508F49DC09D
:101E80001092D1011092D00163EC72E080E594E0F1
:101E90000E943A1F4AE050E06091C80180E594E05A
:101EA0000E944C208091C801882309F444C080918D
:101EB000C0019091C101A091C201B091C3014091B4
:101EC000C4015091C5016091C6017091C701840F92
:101ED000951FA61FB71F8093C0019093C101A093C7
:101EE000C201B093C30166EB72E080E594E00E940A
:101EF0003A1F4091C4015091C5016091C601709193
:101F0000C7012AE030E080E594E00E943F206EEABD
:101F100072E080E594E00E943A1F4091C001509128
:101F2000C1016091C2017091C3012AE030E080E5F7
:101F300094E00E943F208091C801843058F1809144
:101F4000C0019091C101A091C201B091C30122E0F2
:101F5000880F991FAA1FBB1F2A95D1F780930401F0
:101F600090930501A0930601B09307016DE972E01B
:101F700080E594E00E943A1F4091040150910501D0
:101F800060910601709107012AE030E080E594E05D
:101F90000E943F2080E594E00E94661F8091C80166
:101FA0008F5F8093C8011092C4011092C5011092F6
:101FB000C6011092C7018DE4AEC021323E4408F440
:101FC0001EC114C181111BC11092D1011092D00108
:101FD0008091C801853060F01092C9011092CA0149
:101FE0001092CB011092CC0181E08093CD0103C10E
:101FF0008CE491C0811103C10E9407050E94DD0796
:1020000060E972E080E594E00E946A1FF3C080916D
:102010000801882371F066E872E080E594E00E9490
:102020003A1F0E94B00980E594E00E94661F10925A
:102030000801CC2309F4E3C08091D0019091D10133
:102040008536910508F4DBC01092D1011092D001C1
:1020500081E561C02091D0013091D101203D374010
:10206000A0F069E772E080E594E00E943A1F25E065
:1020700040E860E080E80E94B80784EF91E0909328
:10208000D1018093D00182E546C08111B8C0E091B2
:10209000D8018091D70120E1E29FF0011124E80FDF
:1020A000F11DE35FFE4F808190E001968F709927CC
:1020B0008083FC01EE0FFF1FE35BFE4F8081918167
:1020C0009093DA018093D9010E944D046EE672E08C
:1020D00080E594E00E943A1F0E94B00980E594E0F8
:1020E0000E94661F1092D1011092D00162C020910F
:1020F000D0013091D101203D374080F060E672E0A0
:1021000080E594E00E943A1F25E040E860E880E81E
:102110000E94B80783E58093D20171C0C1116FC0DE
:102120008091D7018F5F8093D7011092D1011092D7
:10213000D0016AE572E080E594E00E943A1F0E94B7
:10214000B00980E594E00E94661F8091D701E0917C
:10215000D8018031A9F4F0E0E75FFE4F80830E9450
:1021600056040E94DD0762E572E080E594E00E947B
:102170003A1F0E94D00880E594E00E94661F3DC08F
:1021800090E1E99FF0011124E80FF11DE35FFE4F9C
:10219000E081F0E0EE0FFF1FE35BFE4F8081918155
:1021A0009093DA018093D9010E944D0481E08093DD
:1021B000080180E5B0CF811122C0E091D801F0E0A4
:1021C000E75FFE4F8091D7018F5F80830E945604A6
:1021D0000E94DD076AE472E080E594E00E943A1F05
:1021E0000E94D00880E594E00E94661F1092D10101
:1021F0001092D00181E0809308011092D201809169
:10220000C4019091C501A091C601B091C70101968A
:10221000A11DB11D8093C4019093C501A093C60177
:10222000B093C7018091D0019091D1010196909314
:10223000D1018093D001CF910895CF93DF9300D047
:102240001F92CDB7DEB782E00E94D91C21E0892B16
:1022500009F020E0822F0E94690A8091D201811149
:1022600010C09E012F5F3F4FAE014E5F5F4FBE011A
:102270006D5F7F4F8091D9019091DA010E94F01734
:102280001FC0982F977F963421F41B821A821982DF
:1022900017C08A30D0F38E3120F7E091D901F09148
:1022A000DA01818DE80FF11D9E012F5F3F4FAE01D6
:1022B0004E5F5F4FBE016D5F7F4F82810E94FF11B5
:1022C0008091CF01882339F08091CE01882319F0C5
:1022D0001B821A8219828091D2018A3038F580914E
:1022E000CD01882319F14091C9015091CA01609133
:1022F000CB017091CC018091040190910501A091D6
:102300000601B091070184179507A607B70770F477
:102310000E94A1086FE075E080E594E00E943A1FFA
:102320000E94B00980E594E00E94661F49816A819D
:102330008B810E9470078091C9019091CA01A09180
:10234000CB01B091CC010196A11DB11D8093C901B3
:102350009093CA01A093CB01B093CC010F900F9042
:102360000F90DF91CF91089581E693E00E942F04B2
:1023700087E493E00E942F048DE293E00E942F04F3
:1023800083E193E00E942F0489EF92E00E942F04E2
:102390008FED92E00E942F0485EC92E00E942F04C2
:1023A0008BEA92E00E942F0481E992E00E942F04C0
:1023B00087E792E00E942F048DE592E00E942F04AF
:1023C00083E492E00E942F0489E292E00E942F04AD
:1023D0008FE092E00E942F0485EF91E00E942F048D
:1023E0008BED91E00E942F040E943F1B6093D3016C
:1023F0007093D4018093D5019093D6010895CF9323
:10240000DF93A82FB0E096E0B595A7959A95E1F7F0
:102410008F7390E0FC01EE0FFF1FE80FF91FE056ED
:10242000F94FE491F0E00A2E02C0F595E7950A9481
:10243000E2F7EB01E883FC01EE0FFF1FE80FF91F45
:10244000EF55F94FE491F0E00A2E02C0F595E795BB
:102450000A94E2F7EA01E883FC01EE0FFF1FE80FA0
:10246000F91FEE55F94FE491F0E002C0F595E795BC
:10247000AA95E2F7D901EC93DF91CF9108952F92BD
:102480003F924F925F926F927F928F929F92AF9204
:10249000BF92CF92DF92EF92FF920F931F93CF9351
:1024A000DF9300D01F92CDB7DEB71B01F22ED02EE6
:1024B000A9829B828A82042F10E0BC0180E090E018
:1024C0000E94AC212B013C01B10180E090E00E9410
:1024D000AC219B01AC01C301B2010E9418212B0168
:1024E0003C01B801882777FD8095982F0E94AE2186
:1024F0004B015C016E2D70E0601B710B882777FD2E
:102500008095982F0E94AE21A30192010E943A2249
:102510009B01AC01C501B4010E94B4200E9480213E
:10252000EA81FB8160830F2D10E0B801882777FDD9
:102530008095982F0E94AE214B015C016C2D70E0BC
:10254000601B710B882777FD8095982F0E94AE2124
:10255000A30192010E943A229B01AC01C501B40182
:102560000E94B4200E948021E88DF98D60830D2D9A
:1025700010E0B801882777FD8095982F0E94AE2142
:102580006B017C01F9816F2F70E0601B710B882754
:1025900077FD8095982F0E94AE21A30192010E94A1
:1025A0003A229B01AC01C701B6010E94B4200E94EF
:1025B0008021EA8DFB8D60830F900F900F90DF914B
:1025C000CF911F910F91FF90EF90DF90CF90BF9030
:1025D000AF909F908F907F906F905F904F903F90C3
:1025E0002F9008950F931F93CF93DF931F92CDB732
:1025F000DEB78C0169830E948F236981681741F0DF
:10260000C8010F90DF91CF911F910F910C949723E8
:102610000F90DF91CF911F910F9108950C948F230C
:10262000FC01262F30E0C901840F911D4289538996
:102630004817590750F0138A128A848990E001964E
:10264000618170E00E94BD22848B82899389821708
:10265000930760F48489E80FF11D21E833E042E834
:1026600053E063E873E082810C94FF1110928303BE
:10267000109282031092810308956F927F928F923D
:102680009F92AF92CF92EF920F931F93CF93DF93CE
:10269000EC01662E062F10E0C801840F911D2A89D7
:1026A0003B892817390758F01B8A1A8A8C8990E0D1
:1026B00001962981622F70E00E94BD228C8B8A894D
:1026C0009B896694712C8615970530F58C89FE01DF
:1026D000E80FF11D2EE733E04FE753E060E873E0C9
:1026E00082810E94FF1181E893E09F938F9382E89B
:1026F00093E09F938F9333E8832E33E0932EA09043
:102700007E03C0907F03E090800300E020E040E083
:10271000B3018A899B892CC08017910780F58C8929
:10272000FE01E80FF11D2EE733E04FE753E060E8CC
:1027300073E082810E94FF11B801661977098A89C6
:102740009B8921E833E03F932F9322E833E03F93C6
:102750002F9323E8822E23E0922EA12CC12CE12C72
:1027600000917E0320917F03409180038619970991
:102770000E943F120F900F900F900F9006C0109282
:1027800083031092820310928103DF91CF911F91F6
:102790000F91EF90CF90AF909F908F907F906F9020
:1027A0000895FC01262F30E0C901840F911D428954
:1027B00053894817590760F0138A128A848990E078
:1027C0000196618170E0615071090E94BD22848B85
:1027D000828993898217930788F4848990E001960F
:1027E000618170E00E94BD228E0F9F1F21E833E0BF
:1027F00042E853E063E873E0FC0106C021E833E0FF
:1028000042E853E063E873E082810C94FF110F9378
:10281000CF93DF93FC01818190E00197908F878BAC
:1028200070E0869FD001879FB00D969FB00D112458
:1028300030E0C901840F911DAC01049FC001059FC8
:10284000900D11248A0F9B1F820F931FC289D38979
:10285000C817D90710F0138A128A828993898A17B8
:102860009B0770F40E94A922DB01AE0FBF1F21E875
:1028700033E042E853E063E873E013968C9111C0B3
:102880008A1B9B0B968B858BBA010E94BD228217F7
:10289000930764F021E833E042E853E063E873E033
:1028A0008281DF91CF910F910C94FF1110928303DD
:1028B0001092820310928103DF91CF910F910895BE
:1028C000FC012181269F90011124C901840F911DD3
:1028D000428953894817590710F0138A128A82894E
:1028E00093898217930780F470E00E94A922DB018C
:1028F000AE0FBF1F21E833E042E853E063E873E026
:1029000012968C910C94FF11109283031092820303
:102910001092810308950F931F93CF93DF93FC01CF
:10292000C181D0E02197D68BC58B70E0C69F800116
:10293000C79F100DD69F100D1124D801AA0FBB1FE1
:10294000A40FB11DCD01820F911D22893389281753
:10295000390710F0138A128A8289938980179107A8
:1029600070F40E94A922C61BD70BCE0FDF1F21E8EF
:1029700033E042E853E063E873E08A811AC09D01C6
:10298000201B310B8217930768F08A179B07B8F456
:10299000821B930B0E94A9226F5F7F4F708F678B02
:1029A000E60FF71F21E833E042E853E063E873E005
:1029B0008281DF91CF911F910F910C94FF111092A2
:1029C00083031092820310928103DF91CF911F91B4
:1029D0000F91089523E030E040E050E060E070E0C7
:1029E000CB010E949620611571058105910539F092
:1029F000613071058105910521F080E2089584E040
:102A0000089580E108950F931F93CF93DF931F9252
:102A1000CDB7DEB78C01FC0185899689892B41F4FD
:102A200069830E94EA1490E0F801968B858B698196
:102A3000F80185899689860F911D22893389281787
:102A4000390780F0138A128A848990E001966181A7
:102A500070E00E94BD22848B0E94EA1490E0F8018D
:102A6000968B858BF8012289338985899689281769
:102A7000390788F48489E80FF11D21E833E042E842
:102A800053E063E873E082810F90DF91CF911F9153
:102A90000F910C94FF1110928303109282031092F5
:102AA00081030F90DF91CF911F910F910895CF93E4
:102AB000DF93FC01362FC62FD0E0CE01840F911D8D
:102AC000A289B389A817B907C8F0138A128A458961
:102AD00056894F5F5F4F568B458BA22FB0E0119701
:102AE0004A175B075CF0168A158A848990E0019684
:102AF0004181642F70E00E94BD22848B42895389FA
:102B00004C175D07A0F5832F622F0E949D22682F2E
:102B100070E0CA010E94A922708F678B858996890F
:102B2000009751F48489E80FF11D21E833E042E871
:102B300053E063E873E013C068177907ACF4848945
:102B400090E00196618170E00E94BD228E0F9F1F70
:102B500021E833E042E853E063E873E0FC0182815E
:102B6000DF91CF910C94FF1168177907D9F6109275
:102B700083031092820310928103DF91CF91089515
:102B80008F929F92AF92CF92EF92FF920F931F93EB
:102B9000CF93DF93EC01F22EE62FF0E08F01040FCC
:102BA000111D8A899B8980179107A8F01B8A1A8AB0
:102BB0008D899E8901969E8B8D8B30E082179307BD
:102BC00054F01E8A1D8A8C8990E00196698170E01C
:102BD0000E94BD228C8B8A899B898E179F0708F0E3
:102BE00051C08C89FE01E80FF11D2EE733E04FE75D
:102BF00053E060E873E082810E94FF118C8990E0CD
:102C00000196698170E00E94BD228C0F9D1F2BE709
:102C100033E04CE753E06DE773E0FC0182810E94F2
:102C2000FF11F09EB001F19E700D11248D899E89D7
:102C3000089FF001099FF00D189FF00D11248A895B
:102C40009B8921E833E03F932F9322E833E03F93C1
:102C50002F93A3E88A2EA3E09A2EA0907B03C09026
:102C60007C03E0907D0300917E0320917F034091DF
:102C700080038E0F9F1F0E943F120F900F900F90A6
:102C80000F9006C01092830310928203109281036A
:102C9000DF91CF911F910F91FF90EF90CF90AF9068
:102CA0009F908F900895FC0170E0CB01840F911DDF
:102CB000428953894817590728F1138A128A85894E
:102CC00096894789508D30E0452B19F03195219533
:102CD0003109280F391F368B258B121613065CF02D
:102CE000108E178A848990E00196618170E00E94BD
:102CF000BD22848B07C02617370724F081E090E0BF
:102D0000908F878B858996892289338982179307CB
:102D100098F02489820F911D618170E00E94BD228C
:102D20008E0F9F1F21E833E042E853E063E873E031
:102D3000FC0182810C94FF11109283031092820394
:102D40001092810308950F931F93CF93DF93FC019B
:102D5000C62FD0E0CE01840F911D428953894817B8
:102D6000590700F1138A128A858996890196968BF4
:102D7000858B30E082179307ACF0168A158A878915
:102D8000908D0196908F878B10E08017910754F0FB
:102D9000108E178A848990E00196618170E00E940C
:102DA000BD22848B828993898C179D07C8F424895E
:102DB00085899689820F911D618170E00E94BD22F4
:102DC0008E0F9F1F21E833E042E853E063E873E091
:102DD000FC018281DF91CF911F910F910C94FF1123
:102DE000109283031092820310928103DF91CF919E
:102DF0001F910F9108958F92AF92CF92EF920F9300
:102E0000CF93DF93CDB7DEB7FC016083418322838C
:102E10000383E482C582A68287828A8580878B8528
:102E200081878C8582878D8583878E8584878F8532
:102E3000858788898687898987878A89808B8B8916
:102E4000818BDF91CF910F91EF90CF90AF908F90CA
:102E500008950F931F93CF93DF93EC018B01CB0168
:102E60000E940E138883C80101960E940E13898365
:102E7000C80102960E940E138A83C80103960E941D
:102E80000E138B83C80104960E940E138C83C80115
:102E900005960E940E138D83C80106960E940E139C
:102EA0008E83C80107960E940E138F83C80108966F
:102EB0000E940E138887C80109960E940E13898705
:102EC000C8010A960E940E138A87C8010B960E94B9
:102ED0000E138B87C8010C960E940E138C87C801B5
:102EE0000D960E940E138D87C8010E960E940E1338
:102EF0008E87C8010F960E940E138F87C8014096D7
:102F00000E940E13888BC80141960E940E13898B74
:102F1000DF91CF911F910F9108950F931F93CF933E
:102F2000DF93EC018B016881C8010E94F212698174
:102F3000C80101960E94F2126A81C80102960E949D
:102F4000F2126B81C80103960E94F2126C81C801D3
:102F500004960E94F2126D81C80105960E94F21239
:102F60006E81C80106960E94F2126F81C801079611
:102F70000E94F2126885C80108960E94F2126985C3
:102F8000C80109960E94F2126A85C8010A960E9439
:102F9000F2126B85C8010B960E94F2126C85C80173
:102FA0000C960E94F2126D85C8010D960E94F212D5
:102FB0006E85C8010E960E94F2126F85C8010F96A9
:102FC0000E94F2126889C80140960E94F212698933
:102FD000C8014196DF91CF911F910F910C94F2128D
:102FE000AF92BF92CF92DF92EF92FF920F931F9317
:102FF000CF93DF93EC017B016A015901088110E056
:103000000031110508F051C0F801E956FF4F0C944A
:10301000122340E112C042E262E2CE010E9410138C
:1030200044C044E163E0F9CF4EE266E0F6CF42E30C
:1030300068EC0E943D1339C04EEB6AE0EECF4EE2E1
:1030400066E00E94D11331C007E024E143E066E16D
:103050000E9407142AC044E66AE00E94601425C05A
:1030600028E240E164E00E948B141FC060E10E94EE
:1030700003151BC025E044E164E60E94571515C006
:1030800024E042E262E20E94C0150FC040E066E127
:10309000C4CF22E040E16EE10E94531606C008E072
:1030A00023E040E16AE00E94A3168A899B89019689
:1030B0009B8B8A8B80918303F701808380918203AD
:1030C000F601808380918103F5018083DF91CF91A8
:1030D0001F910F91FF90EF90DF90CF90BF90AF9036
:1030E0000895FC01108E178A168A158A148A138A8D
:1030F000128A08958091B30390E02091B403821B5B
:10310000910908952091B4038091B303281750F4D6
:10311000E22FF0E0EB54FC4F808190E02F5F209392
:10312000B40308958FEF9FEF0895E091B403809169
:10313000B303E81730F4F0E0EB54FC4F808190E0EB
:1031400008958FEF9FEF08950895CF92DF92EF9249
:10315000FF920F931F93CF93DF937C01CB018A01E2
:1031600020919003222389F0EB016B01C40ED51E40
:10317000CC15DD0569F06991D701ED91FC910190C5
:10318000F081E02DC7010995F3CF642F0E94151936
:10319000C801DF91CF911F910F91FF90EF90DF90C9
:1031A000CF900895CF93DF931F92CDB7DEB7698399
:1031B000209190032223D1F020919103203240F0FE
:1031C00021E030E0FC013383228380E090E015C0F1
:1031D00080919203E82FF0E0ED56FC4F99819083A7
:1031E0008F5F809392038093910305C061E0CE01CD
:1031F00001960E94151981E090E00F90DF91CF9128
:103200000895FC011382128248EE53E060E070E002
:10321000448355836683778382E991E09183808339
:10322000089584E893E00C940119613298F4209198
:103230004204243089F46093F703FC0189EF93E0A2
:10324000DC012A2F281B261718F421912D93F9CF82
:1032500080E0089581E0089582E0089585ED8093EF
:10326000BC008091BC0084FDFCCF10924204089504
:1032700085EC8093BC001092420408951F920F9237
:103280000FB60F9211242F933F934F935F936F9339
:103290007F938F939F93AF93BF93EF93FF9380910F
:1032A000B900887F803609F49CC068F5883209F43B
:1032B0005BC090F4803109F454C038F4882309F4D9
:1032C000F5C0883009F44DC0F5C0883109F44CC010
:1032D000803209F45DC0EEC0803409F468C048F45F
:1032E000803309F455C0883309F0E4C08093D503D6
:1032F000A8C0803509F44FC0883509F45DC0883412
:1033000009F0D8C0D5C0883909F4C6C0A8F48837F8
:1033100009F467C038F4883609F463C0803709F4CB
:1033200060C0C8C0883809F4B7C0803909F45FC0EC
:10333000803809F0BFC05BC0803B09F485C038F419
:10334000803A09F466C0883A09F47EC0B3C0803C74
:1033500009F4A6C0883C09F4A3C0883B09F489C0DD
:10336000A9C08091410410C090911A048091190461
:10337000981770F5E0911A0481E08E0F80931A047B
:10338000F0E0E55EFB4F80818093BB0085EC85C05B
:103390008093D5038DC0E0911A0481E08E0F809355
:1033A0001A048091BB00F0E0E55EFB4F80839091B2
:1033B0001A04809119046DC0E0911A0481E08E0F07
:1033C00080931A048091BB00F0E0E55EFB4F8083A0
:1033D0008091400481116CC081E080933F0484EAB5
:1033E00060C083E0809342041092D603CFCF8091D7
:1033F000D603803208F050C0E091D60381E08E0FF2
:103400008093D6038091BB00F0E0E952FC4F8083AB
:10341000BDCF8091D603803230F4E091D603F0E046
:10342000E952FC4F10820E942E196091D60370E081
:10343000E0913B04F0913C0487ED93E009951092F4
:10344000D6030E94381936C084E08093420410925B
:10345000F8031092F703E0913D04F0913E040995C2
:103460008091F703811105C081E08093F7031092EA
:10347000F903E091F80381E08E0F8093F803F0E008
:10348000E750FC4F80818093BB009091F8038091BE
:10349000F703981708F47ACF85E88093BC000AC038
:1034A00085EC8093BC001092420404C01092D503B6
:1034B0000E942E19FF91EF91BF91AF919F918F9133
:1034C0007F916F915F914F913F912F910F900FBE20
:1034D0000F901F9018958230E8F4E82FF0E0EE0F7F
:1034E000FF1FED5BFB4F71836083813041F0809162
:1034F00069008C7F842B80936900E89A08958091FD
:103500006900440F551F440F551F837F842B809300
:103510006900E99A0895823068F4813011F0E898E2
:1035200001C0E998E82FF0E0EE0FFF1FED5BFB4FC5
:103530001182108208951F920F920FB60F921124DC
:103540002F933F934F935F936F937F938F939F93AB
:10355000AF93BF93EF93FF93809143049091440402
:10356000892B29F0E0914304F09144040995FF91DF
:10357000EF91BF91AF919F918F917F916F915F91EB
:103580004F913F912F910F900FBE0F901F90189564
:103590001F920F920FB60F9211242F933F934F93C8
:1035A0005F936F937F938F939F93AF93BF93EF93AB
:1035B000FF938091450490914604892B29F0E09176
:1035C0004504F09146040995FF91EF91BF91AF91A9
:1035D0009F918F917F916F915F914F913F912F912B
:1035E0000F900FBE0F901F9018951F920F920FB65D
:1035F0000F9211242F933F938F939F93AF93BF9379
:103600008091480490914904A0914A04B0914B04E0
:103610003091470423E0230F2D3720F40196A11D9C
:10362000B11D05C026E8230F0296A11DB11D2093F0
:1036300047048093480490934904A0934A04B093AC
:103640004B0480914C0490914D04A0914E04B09194
:103650004F040196A11DB11D80934C0490934D041D
:10366000A0934E04B0934F04BF91AF919F918F915F
:103670003F912F910F900FBE0F901F9018953FB75D
:10368000F89480914C0490914D04A0914E04B09117
:103690004F0426B5A89B05C02F3F19F00196A11D28
:1036A000B11D3FBF6627782F892F9A2F620F711D9A
:1036B000811D911D42E0660F771F881F991F4A9553
:1036C000D1F70895CF92DF92EF92FF92CF93DF93DD
:1036D0006B017C010E943F1BEB01C114D104E1048A
:1036E000F10489F00E94B2200E943F1B6C1B7D0BED
:1036F000683E734090F381E0C81AD108E108F108F0
:10370000C851DC4FEACFDF91CF91FF90EF90DF906F
:10371000CF900895789484B5826084BD84B581602B
:1037200084BD85B5826085BD85B5816085BDEEE6C9
:10373000F0E0808181608083E1E8F0E010828081A8
:1037400082608083808181608083E0E8F0E0808116
:1037500081608083E1EBF0E0808184608083E0EB36
:10376000F0E0808181608083EAE7F0E0808184601E
:10377000808380818260808380818160808380817A
:10378000806880831092C10008958E3008F08E50BA
:10379000877020918D0190E4299F90011124822B44
:1037A00080937C0080917A00806480937A0080917D
:1037B0007A0086FDFCCF809178002091790090E01E
:1037C000922B08951F93CF93DF93182FEB0161E0A5
:1037D0000E946A1C209711F460E004C0CF3FD1051D
:1037E00039F461E0812FDF91CF911F910C94A31CDC
:1037F000E12FF0E0E35AF84FE491E330F9F048F4B8
:10380000E130B9F0E230A1F584B5806284BDC8BD75
:1038100034C0E730E9F0E83019F1E43049F580913F
:103820008000806280938000D0938B00C0938A00D8
:1038300024C084B5806884BDC7BD1FC0809180004E
:10384000806880938000D0938900C093880015C061
:103850008091B00080688093B000C093B3000DC029
:103860008091B00080628093B000C093B40005C026
:10387000C038D1050CF0B5CFAFCFDF91CF911F91FC
:103880000895833081F028F4813099F08230A1F0DE
:1038900008958730A9F08830B9F08430D1F4809150
:1038A00080008F7D03C0809180008F77809380009F
:1038B000089584B58F7702C084B58F7D84BD089547
:1038C0008091B0008F7703C08091B0008F7D80938E
:1038D000B0000895CF93DF9390E0FC01EF58F84FCC
:1038E0002491FC01EB57F84F8491882349F190E033
:1038F000880F991FFC01E355F84FA591B4918D55A0
:10390000984FFC01C591D4919FB7611108C0F894FC
:103910008C91209582238C93888182230AC0623007
:1039200051F4F8948C91322F309583238C938881B5
:10393000822B888304C0F8948C91822B8C939FBF38
:10394000DF91CF9108950F931F93CF93DF931F9231
:10395000CDB7DEB7282F30E0F901E35AF84F849154
:10396000F901EF58F84F1491F901EB57F84F049112
:103970000023C9F0882321F069830E94411C6981DA
:10398000E02FF0E0EE0FFF1FED55F84FA591B49139
:103990009FB7F8948C91611103C01095812301C0E9
:1039A000812B8C939FBF0F90DF91CF911F910F912F
:1039B0000895CF93DF93282F30E0F901E35AF84FB1
:1039C0008491F901EF58F84FD491F901EB57F84F72
:1039D000C491CC2391F081110E94411CEC2FF0E0A6
:1039E000EE0FFF1FE756F84FA591B4912C912D23B0
:1039F00081E090E021F480E002C080E090E0DF917F
:103A0000CF910895FC01818D228D90E0805C9F4FC5
:103A1000821B91098F7399270895FC01918D828DE6
:103A2000981731F0828DE80FF11D858D90E0089593
:103A30008FEF9FEF0895FC01918D828D981761F0B3
:103A4000828DDF01A80FB11D5D968C91928D9F5FD5
:103A50009F73928F90E008958FEF9FEF08958FE905
:103A60009EE1892B49F080E090E0892B29F00E94AB
:103A70009F1E81110C9400000895FC01848DDF01CC
:103A8000A80FB11DA35ABF4F2C91848D90E00196D1
:103A90008F739927848FA689B7892C93A089B189C0
:103AA0008C9180648C93938D848D981306C00288CA
:103AB000F389E02D80818F7D80830895CF93DF93FC
:103AC000EC01888D8823C9F0EA89FB89808185FD16
:103AD00005C0A889B9898C9186FD0FC00FB607FC77
:103AE000F5CF808185FFF2CFA889B9898C9185FFB8
:103AF000EDCFCE010E943D1DE7CFDF91CF9108951C
:103B0000CF92DF92FF920F931F93CF93DF931F9279
:103B1000CDB7DEB76C0181E0D60158968C935897EB
:103B20005B969C915B975C968C915C97981307C011
:103B30005096ED91FC915197808185FD2EC0F60144
:103B4000038D10E00F5F1F4F0F731127F02EF6014A
:103B5000848DF81211C00FB607FCF9CFD60150962C
:103B6000ED91FC915197808185FFF1CFC60169836A
:103B70000E943D1D6981EBCF838DE80FF11DE35A53
:103B8000FF4F6083D6015B960C935B975296ED9145
:103B9000FC915397808180620CC0D6015696ED91BE
:103BA000FC91579760835096ED91FC9151978081DD
:103BB0008064808381E090E00F90DF91CF911F912E
:103BC0000F91FF90DF90CF900895BF92CF92DF9238
:103BD000EF92FF92CF93DF93EC016A017B01B22E4B
:103BE000E889F98982E08083411581EE58076105F3
:103BF0007105A1F060E079E08DE390E0A701960106
:103C00000E94D12221503109410951095695479509
:103C100037952795211580E1380798F0E889F989CB
:103C2000108260E874E88EE190E0A70196010E949E
:103C3000D1222150310941095109569547953795AF
:103C40002795EC85FD853083EE85FF852083188ED2
:103C5000EC89FD89B082EA89FB898081806180835B
:103C6000EA89FB89808188608083EA89FB89808179
:103C700080688083EA89FB8980818F7D8083DF91E2
:103C8000CF91FF90EF90DF90CF90BF9008951F925B
:103C90000F920FB60F9211242F938F939F93EF9350
:103CA000FF93E0916004F09161048081E0916604EB
:103CB000F091670482FD12C09081809169048F5F4A
:103CC0008F7320916A04821751F0E0916904F0E04B
:103CD000E05BFB4F958F8093690401C08081FF9169
:103CE000EF919F918F912F910F900FBE0F901F908A
:103CF00018951F920F920FB60F9211242F933F9396
:103D00004F935F936F937F938F939F93AF93BF93E3
:103D1000EF93FF9380E594E00E943D1DFF91EF91AA
:103D2000BF91AF919F918F917F916F915F914F91D3
:103D30003F912F910F900FBE0F901F90189580E527
:103D400094E00E94021D21E0892B09F420E0822FDB
:103D50000895109253041092520488EE93E0A0E06C
:103D6000B0E08093540490935504A0935604B0930C
:103D7000570482EA91E0909351048093500485ECBB
:103D800090E090935D0480935C0484EC90E09093C9
:103D90005F0480935E0480EC90E0909361048093D4
:103DA000600481EC90E0909363048093620482EC61
:103DB00090E0909365048093640486EC90E0909387
:103DC0006704809366041092690410926A0410924A
:103DD0006B0410926C04089508950E948A1B0E943F
:103DE000EC1E0E94FD07CFE2DDE10E941D1120972D
:103DF000E1F30E942F1DF9CFCF92DF92EF92FF9255
:103E00000F931F93CF93DF936C017A01EB01E60EC2
:103E1000F71E00E010E0CE15DF0561F06991D601D4
:103E2000ED91FC910190F081E02DC6010995080FFC
:103E3000191FF1CFC801DF91CF911F910F91FF9012
:103E4000EF90DF90CF9008956115710581F0DB014F
:103E50000D900020E9F7AD0141505109461B570B69
:103E6000DC01ED91FC910280F381E02D099480E06A
:103E700090E00895EF92FF920F931F93CF93DF93FB
:103E80008C01FB01C0E0D0E064917F018FEFE81A64
:103E9000F80A662361F0D801ED91FC910190F08160
:103EA000E02DC8010995C80FD91FF701EDCFCE014C
:103EB000DF91CF911F910F91FF90EF900895DC015A
:103EC000ED91FC910190F081E02D09946EEA71E092
:103ED0000C94241F0F931F93CF93DF93EC010E9448
:103EE0003A1F8C01CE010E94661F800F911FDF9147
:103EF000CF911F910F9108958F929F92AF92BF9291
:103F0000CF92DF92EF92FF920F931F93CF93DF93A5
:103F1000CDB7DEB7A1970FB6F894DEBF0FBECDBF09
:103F20007C01C42EE52FCB01D22E19A221E02D1544
:103F300010F02AE0D22E8E010F5D1F4F8D2C912C98
:103F4000A12CB12C6C2D7E2FA50194010E94D122B1
:103F50008C2DD29E80191124015011098A3014F43D
:103F6000805D01C0895CF801808321153105410520
:103F7000510521F0C22EE32FCA01E4CFB801C701D9
:103F80000E94241FA1960FB6F894DEBF0FBECDBFCE
:103F9000DF91CF911F910F91FF90EF90DF90CF9025
:103FA000BF90AF909F908F900895CF92DF92EF9245
:103FB000FF920F931F93CF93DF93EC016A017B0174
:103FC0002115310579F4E881F9810190F081E02D26
:103FD000642FDF91CF911F910F91FF90EF90DF90B1
:103FE000CF9009942A303105E9F477FF1AC06DE2C9
:103FF0000E945F1F8C0144275527BA014C195D09A7
:104000006E097F092AE0CE010E947C1F800F911F5C
:10401000DF91CF911F910F91FF90EF90DF90CF90A4
:1040200008952AE0B701A601CE01DF91CF911F913B
:104030000F91FF90EF90DF90CF900C947C1F9A012E
:10404000AB01662757FD6095762F0C94D51F0F9313
:104050001F93CF93DF93EC019A01AB01662757FDC5
:104060006095762F0E94D51F8C01CE010E94661F9D
:10407000800F911FDF91CF911F910F91089521150E
:10408000310541F4DC01ED91FC910190F081E02DCE
:10409000642F09940C947C1F9A01462F50E060E035
:1040A00070E00C943F200F931F93CF93DF93EC01AC
:1040B0009A01462F50E060E070E00E943F208C01A2
:1040C000CE010E94661F800F911FDF91CF911F913B
:1040D0000F910895611571058105910511F00C94FA
:1040E00086230895CF93DF9300D000D0CDB7DEB7FD
:1040F0009B01AC01611571058105910569F069832A
:104100003A834B835C830E94812329813A814B81CE
:104110005C810E94F32203C060E070E0CB010F904D
:104120000F900F900F90DF91CF910895CF92DF9273
:10413000EF92FF926B017C0162177307840795076A
:1041400064F4CA01B9016C197D098E099F090E94A6
:1041500072206C0D7D1D8E1D9F1DFF90EF90DF90D6
:10416000CF90089508955058BB27AA270ED048C174
:1041700039D130F03ED120F031F49F3F11F41EF4DC
:104180002EC10EF4E095E7FB24C1E92F4AD180F35C
:10419000BA17620773078407950718F071F49EF544
:1041A00062C10EF4E0950B2EBA2FA02D0B01B901C0
:1041B00090010C01CA01A0011124FF27591B99F09D
:1041C000593F50F4503E68F11A16F040A22F232FA9
:1041D000342F4427585FF3CF469537952795A795F9
:1041E000F0405395C9F77EF41F16BA0B620B730BA0
:1041F000840BBAF09150A1F0FF0FBB1F661F771F11
:10420000881FC2F70EC0BA0F621F731F841F48F4C5
:10421000879577956795B795F7959E3F08F0B3CF4B
:104220009395880F08F09927EE0F97958795089535
:104230000CD0E6C0DED040F0D5D030F021F45F3FA6
:1042400019F0C7C0511110C1CAC0EBD098F399231F
:10425000C9F35523B1F3951B550BBB27AA2762174A
:104260007307840738F09F5F5F4F220F331F441F8F
:10427000AA1FA9F333D00E2E3AF0E0E830D09150C7
:104280005040E695001CCAF729D0FE2F27D0660FB4
:10429000771F881FBB1F261737074807AB07B0E8F3
:1042A00009F0BB0B802DBF01FF2793585F4F2AF009
:1042B0009E3F510568F08DC0D7C05F3FECF3983E3C
:1042C000DCF3869577956795B795F7959F5FC9F766
:1042D000880F911D9695879597F90895E1E0660FEF
:1042E000771F881FBB1F621773078407BA0720F068
:1042F000621B730B840BBA0BEE1F88F7E0950895D1
:1043000098D088F09F5790F0B92F9927B751A0F017
:10431000D1F0660F771F881F991F1AF0BA95C9F759
:1043200012C0B13081F09FD0B1E008959CC0672FDA
:10433000782F8827B85F39F0B93FCCF38695779509
:104340006795B395D9F73EF49095809570956195F2
:104350007F4F8F4F9F4F0895E89409C097FB3EF41D
:1043600090958095709561957F4F8F4F9F4F9923C2
:10437000A9F0F92F96E9BB279395F6958795779540
:104380006795B795F111F8CFFAF4BB0F11F460FF00
:104390001BC06F5F7F4F8F4F9F4F16C0882311F058
:1043A00096E911C0772321F09EE8872F762F05C06C
:1043B000662371F096E8862F70E060E02AF09A9507
:1043C000660F771F881FDAF7880F9695879597F9FC
:1043D000089597F99F6780E870E060E008959FEF87
:1043E00080EC089500240A9416161706180609068C
:1043F000089500240A94121613061406050608955B
:10440000092E0394000C11F4882352F0BB0F40F4E2
:10441000BF2B11F460FF04C06F5F7F4F8F4F9F4F22
:10442000089557FD9058440F551F59F05F3F71F0A4
:104430004795880F97FB991F61F09F3F79F087950B
:104440000895121613061406551FF2CF4695F1DF94
:1044500008C0161617061806991FF1CF8695710524
:10446000610508940895E894BB2766277727CB0158
:1044700097F908950BD0C4CFB5DF28F0BADF18F054
:10448000952309F0A6CFABCF1124EECFCADFA0F35E
:10449000959FD1F3950F50E0551F629FF001729FD9
:1044A000BB27F00DB11D639FAA27F00DB11DAA1FF8
:1044B000649F6627B00DA11D661F829F2227B00D45
:1044C000A11D621F739FB00DA11D621F839FA00DD0
:1044D000611D221F749F3327A00D611D231F849F20
:1044E000600D211D822F762F6A2F11249F57504077
:1044F0008AF0E1F088234AF0EE0FFF1FBB1F661F12
:10450000771F881F91505040A9F79E3F510570F0CA
:1045100060CFAACF5F3FECF3983EDCF386957795AA
:104520006795B795F795E7959F5FC1F7FE2B880FC5
:10453000911D9695879597F90895991B79E004C088
:10454000991F961708F0961B881F7A95C9F78095D2
:104550000895AA1BBB1B51E107C0AA1FBB1FA617CA
:10456000B70710F0A61BB70B881F991F5A95A9F71C
:1045700080959095BC01CD01089597FB072E16F408
:10458000009407D077FD09D00E94A92207FC05D02E
:104590003EF4909581959F4F0895709561957F4F5A
:1045A0000895A1E21A2EAA1BBB1BFD010DC0AA1F74
:1045B000BB1FEE1FFF1FA217B307E407F50720F08C
:1045C000A21BB30BE40BF50B661F771F881F991F07
:1045D0001A9469F760957095809590959B01AC0150
:1045E000BD01CF010895052E97FB1EF400940E9493
:1045F0000A2357FD07D00E94D12207FC03D04EF4B6
:104600000C940A2350954095309521953F4F4F4F7C
:104610005F4F089590958095709561957F4F8F4F6E
:104620009F4F0895EE0FFF1F0590F491E02D099420
:104630000E942323A59F900DB49F900DA49F800DF1
:10464000911D11240895A29FB001B39FC001A39FA3
:10465000700D811D1124911DB29F700D811D1124BB
:10466000911D08958F929F92AF92BF92CF92DF9249
:10467000EF92FF92CF93DF93EC01688179818A8179
:104680009B81611571058105910521F464E279ED45
:104690008BE597E02DE133EF41E050E00E94F322FB
:1046A00049015A019B01AC01A7EAB1E40E94182319
:1046B0006B017C01ACEEB4EFA50194010E94A8232C
:1046C000C60ED71EE81EF91EF7FE06C081E0C81A06
:1046D000D108E10880E8F80AC882D982EA82FB8220
:1046E000C701B6019F77DF91CF91FF90EF90DF90E8
:1046F000CF90BF90AF909F908F9008950E943223EB
:10470000089580E091E00E943223089560930001B3
:104710007093010180930201909303010895F99928
:10472000FECF92BD81BDF89A992780B50895262FB6
:10473000F999FECF1FBA92BD81BD20BD0FB6F89486
:10474000FA9AF99A0FBE01960895B7FF0C941823B0
:0E4750000E941823821B930B0895F894FFCF4C
:10475E000100000000FA0000011003020200010235
:10476E00030405060708090A0B0C0D0E0F010206BD
:10477E000000000000000000000000000002030026
:10478E00000000000000000000000000000A0B0006
:10479E000000000000000000000000000061034760
:1047AE00032D031303F902DF02C502AB0291027758
:1047BE00025D02430229020F02F501DB0108021C11
:1047CE00023002440258026C0280029402A802BC1B
:1047DE0002D002E402F8020C0320033403010000AD
:1047EE000000D218A5187A1882189518A41800007F
:1047FE000000801DFC1E021D1B1D0D1D5E1D0D0AE1
:10480E00006E616E00696E66006F7666002E0000A7
:00000001FF
