:100000000C9434030C94AD160C94DA160C945C0327
:100010000C945C030C945C030C945C030C945C03E4
:100020000C945C030C945C030C945C030C945C03D4
:100030000C945C030C945C030C945C030C945C03C4
:100040000C9407170C945C030C94591A0C948B1A9B
:100050000C945C030C945C030C945C030C945C03A4
:100060000C9450150C945C03D904E304020520059C
:100070003E05B205D105F1053C066D06EA062507E9
:100080006F07E307F90739084B0C4E0C510C540C61
:10009000570C5A0C5D0C600C630C660C690C6C0CF4
:1000A0006F0C720C750C000000202020300000281E
:1000B0002800003000002828000030280028FF0019
:1000C00000FC4000F88000F4C000F0F000C0F40034
:1000D00080F80040FC0000FF0000FC4000F88000B9
:1000E000F4C000F0F000C0F40080F80040FC000014
:1000F000FF4000FC8000F8C000F4F000F0F400C005
:10010000F80080FC0040F02020D84040C06060A093
:100110008080E0E020C8C840B0B06098988020F0AF
:100120002040D84060C06080A08020E0E040C8C887
:1001300060B0B08098982020F04040D86060C080C7
:1001400080A0E020E0C840C8B060B0988098A0A02F
:10015000A032726032938780326060328080603279
:1001600060803200000073656C6563742062756E98
:10017000646C6500476F696E6720746F20736C65EF
:100180006570002043414E4459205354524F42451C
:100190000020434F4D4554205354524F42450020B8
:1001A000524942424F4E00204D4F52504820535426
:1001B000524F42450020434841534500204C45479B
:1001C0004F0020454447450020424C494E4B2D45A9
:1001D00000204441534820444F5053002054524182
:1001E00043455200205345495A55524520535452D5
:1001F0004F4245002050554C534500205354524F18
:100200004249450020444F50530020485950455220
:10021000205354524F424500205354524F42450000
:100220006D6F6465200020732D003A20692D002039
:10023000736C6F7420006D6F646520003A2000209D
:10024000736C6F74200062756E646C65200020739F
:100250006C6F74732D0062756E646C652000736141
:100260007665643A200073617665643A20007365B0
:10027000743A200077696C6C20736176652E2E2E9F
:10028000200073776974636865643A200077696C4D
:100290006C207365742E2E2E200065646974696E5F
:1002A000673A2000656469740073656C6563743A2D
:1002B0002062756E646C65200077696C6C206564E3
:1002C00069742062756E646C652E2E2E2000737723
:1002D0006974636865643A2062756E646C652000B9
:1002E00077696C6C2073656C6563742062756E64ED
:1002F0006C652E2E2E2000736176696E673A2000A1
:1003000073776974636865643A200077696C6C2060
:10031000736176652E2E200065646974696E673A94
:10032000200020736C6F747300736176696E673A96
:100330002000636F6E6669726D65643A20007265B5
:100340006A6563740077696C6C20736176652E2E24
:100350002E200020736C6F747300736176696E6772
:100360003A2000636F6E6669726D65643A200077AB
:10037000696C6C2072656A6563742E2E2E20006392
:100380006F6E6669726D3A200073656C65637465A3
:10039000643A200073656C6563743A20007072657E
:1003A0007620636F6C6F723A20006E6578742063FC
:1003B0006F6C6F723A200073656C6563743A20004D
:1003C000656469743A2000636F6E666967207072B5
:1003D000696D65206D6F64653A2000636F6E6669B4
:1003E000672070616C65747465206D6F64653A2078
:1003F00000636F6E666967207072696D652E2E2EC0
:100400002000636F6E6A757265206F666600636FA9
:100410006E6A757265206F6E00636F6E6669672025
:1004200070616C657474652E2E2E2000736C65658A
:1004300070696E6700746F67676C6520636F6E6AC2
:100440007572652E2E2E2000636F6E6A7572653A86
:10045000206C69676874206F6E00636F6E6A7572D6
:10046000653A206C69676874206F66660077696C0E
:100470006C20736C6565702E2E2E2000706C617977
:10048000696E673A20004865782076302E312E203C
:10049000454550524F4D2056657273696F6E3A2034
:1004A0000056657273696F6E206D617463682E20EB
:1004B00052656164696E6720736176656420736557
:1004C0007474696E67732E0056657273696F6E205F
:1004D0006D69736D617463682E2057726974696EFB
:1004E000672064656661756C747320746F20454580
:1004F00050524F4D2E000A57656C636F6D65207426
:100500006F2048657821000000010101010101010F
:1005100001010102020202020202030303030303B8
:100520000404040404050505050606060607070776
:1005300007080808080909090A0A0A0A0B0B0B0C24
:100540000C0C0D0D0E0E0E0F0F0F101011111112BD
:100550001213131414141515161617171818191941
:100560001A1A1B1B1C1C1D1E1E1F1F2020212122AE
:1005700023232425252626272828292A2A2B2C2C04
:100580002D2E2E2F30313132333334353636373845
:10059000393A3A3B3C3D3E3E3F404142434344456D
:1005A000464748494A4B4B4C4D4E4F50515253547D
:1005B00055565758595A5B5C5D5E5F606162636473
:1005C000656667686A6B6C6D6E6F70717274757654
:1005D0007778797B7C7D7E7F81828384868788891A
:1005E0008B8C8D8E90919294959698999A9C9D9EC5
:1005F000A0A1A3A4A5A7A8AAABACAEAFB1B2B4B555
:10060000B7B8B9BBBCBEC0000000080002010000C2
:1006100003040700000000000000000102040810AD
:100620002040800102040810200102040810200468
:100630000404040404040402020202020203030389
:10064000030303000000002300260029000000002F
:1006500000250028002B0000000000240027002AAD
:1006600000007C122315BB1A11241FBECFEFD8E067
:10067000DEBFCDBF11E0A0E0B1E0EAE6FFE302C0DB
:1006800005900D92AC39B107D9F724E0ACE9B1E09F
:1006900001C01D92AC3EB207E1F716E0C8E6D6E015
:1006A00004C02297FE010E94061FC236D107C9F777
:1006B0000E94FF1A0C94B31F0C9400000F931F9319
:1006C000CF93DF931F92CDB7DEB78C0169830E9471
:1006D000951F6981681741F0C8010F90DF91CF9194
:1006E0001F910F910C949D1F0F90DF91CF911F913F
:1006F0000F9108950C94951FCF93DF93A82FB0E02E
:1007000096E0B595A7959A95E1F78F7390E0FC0177
:10071000EE0FFF1FE80FF91FEA55FF4FE491F0E0DD
:100720000A2E02C0F595E7950A94E2F7EB01E883FB
:10073000FC01EE0FFF1FE80FF91FE955FF4FE49191
:10074000F0E00A2E02C0F595E7950A94E2F7EA0177
:10075000E883FC01EE0FFF1FE80FF91FE855FF4F7C
:10076000E491F0E002C0F595E795AA95E2F7D9018A
:10077000EC93DF91CF9108952F923F924F925F9229
:100780006F927F928F929F92AF92BF92CF92DF92A1
:10079000EF92FF920F931F93CF93DF9300D01F929E
:1007A000CDB7DEB71B01F22ED02EA9829B828A82A2
:1007B000042F10E0BC0180E090E00E94BE1D2B01E0
:1007C0003C01B10180E090E00E94BE1D9B01AC01A4
:1007D000C301B2010E942A1D2B013C01B8018827E8
:1007E00077FD8095982F0E94C01D4B015C016E2DF6
:1007F00070E0601B710B882777FD8095982F0E9411
:10080000C01DA30192010E944C1E9B01AC01C501B9
:10081000B4010E94C61C0E94921DEA81FB81608384
:100820000F2D10E0B801882777FD8095982F0E9442
:10083000C01D4B015C016C2D70E0601B710B8827A3
:1008400077FD8095982F0E94C01DA30192010E9400
:100850004C1E9B01AC01C501B4010E94C61C0E9444
:10086000921DE88DF98D60830D2D10E0B801882769
:1008700077FD8095982F0E94C01D6B017C01F98146
:100880006F2F70E0601B710B882777FD8095982F84
:100890000E94C01DA30192010E944C1E9B01AC014D
:1008A000C701B6010E94C61C0E94921DEA8DFB8DF5
:1008B00060830F900F900F90DF91CF911F910F9158
:1008C000FF90EF90DF90CF90BF90AF909F908F9070
:1008D0007F906F905F904F903F902F90089523E00E
:1008E00030E040E050E060E070E0CB010E94A81CE6
:1008F000611571058105910539F06130710581053A
:10090000910521F080E2089584E0089580E1089542
:100910008F92AF92CF92EF920F93CF93DF93CDB799
:10092000DEB7FC0175836483438724870587E686E9
:10093000C786A08A818A8A85828B8B85838B8C85EA
:10094000848B8D85858B8E85868B8F85878B88891B
:10095000808F8989818F8A89828F8B89838F8C8907
:10096000848FDF91CF910F91EF90CF90AF908F90C8
:1009700008952F923F924F925F926F927F928F9243
:100980009F92AF92CF92DF92EF92FF920F931F93BD
:10099000CF93DF93EC011B012A0139018B8590E095
:1009A0008031910508F0AFC3FC01EC5CFF4F0C9463
:1009B000041F88819981AA81BB814A97A105B1054D
:1009C00008F4E5C0D8C088819981AA81BB818434AC
:1009D0009105A105B10560F0188219821A821B8267
:1009E0008E8190E001966C8570E00E94AF1E8E8330
:1009F00088819981AA81BB818297A105B10508F000
:100A00007CC357C288819981AA81BB814797A10580
:100A1000B10560F0188219821A821B828E8190E0E3
:100A200001966C8570E00E94AF1E8E83888199814B
:100A3000AA81BB810397A105B10508F05EC339C245
:100A400088819981AA81BB81C497A105B10560F015
:100A5000188219821A821B828E8190E001966C8521
:100A600070E00E94AF1E8E8388819981AA81BB812C
:100A70000697A105B10508F040C31BC28881998182
:100A8000AA81BB818A3F9105A105B10560F018825A
:100A900019821A821B828E8190E001966C8570E02B
:100AA0000E94AF1E8E8388819981AA81BB81843682
:100AB0009105A105B10538F58E81FE01E80FF11D04
:100AC0002FE931E040EA51E061EA71E085850E945A
:100AD0007C0382EA91E09F938F9383EA91E09F9356
:100AE0008F93F4EA8F2EF1E09F2EA0909F01C0908B
:100AF000A001E090A10100E020E040E064E670E0A9
:100B00008881998159C2883C9105A105B10508F0F9
:100B1000F4C28E81FE01E80FF11D2FE931E040EAB9
:100B200051E061EA71E085850E947C0388819981AA
:100B300022EA31E03F932F9323EA31E03F932F9352
:100B4000E4EA8E2EE1E09E2EA12CC12CE12C009136
:100B50009F012091A0014091A10164E670E08456BC
:100B600091092AC288819981AA81BB81883C91051B
:100B7000A105B10560F0188219821A821B828E814C
:100B800090E001966C8570E00E94AF1E8E83888194
:100B90009981AA81BB810A97A105B10508F0ADC270
:100BA00088C188819981AA81BB81C497A105B105BB
:100BB00070F0188219821A821B828E8190E0019651
:100BC0006C8570E0615071090E94AF1E8E83888130
:100BD0009981AA81BB810697A105B10508F0D4C00F
:100BE00076C14C8550E0415051095A87498786E1CA
:100BF000849F8001859F100D1124C8018B549F4F45
:100C0000AA2797FDA095BA2FC880D980EA80FB80DB
:100C1000C816D906EA06FB0620F0188219821A8245
:100C20001B82688179818A819B81222717FD20950B
:100C3000322F601771078207930758F426E130E0DE
:100C400040E050E00E94C31E2F5F3F4F4F4F5F4F69
:100C500040C01AEE14039001159F300D1124260F89
:100C6000371F38872F83C90167E170E00E94AF1EEC
:100C700044970CF442C288C00C85FAE00F9F8001B3
:100C80001124C8018C599F4FAA2797FDA095BA2F10
:100C9000488159816A817B81481759076A077B0718
:100CA00020F0188219821A821B82688179818A81D8
:100CB0009B81222717FD2095322F6017710782072D
:100CC000930708F01AC22AE030E040E050E00E94AA
:100CD000C31EFE01E20FF31FF0C08F819885892BA0
:100CE00029F48C8590E0019798878F834F815885F0
:100CF0008A01095F1F4F73E0000F111F7A95E1F71A
:100D0000C801AA2797FDA095BA2FC880D980EA808C
:100D1000FB80C816D906EA06FB0620F01882198265
:100D20001A821B8288819981AA81BB819A01220F34
:100D3000331F220F331F6901EE24D7FCE094FE2CF1
:100D40008C159D05AE05BF0598F4662757FD609587
:100D5000762F22E0B695A795979587952A95D1F796
:100D6000481B590B6A0B7B0BFE01E40FF51FA5C056
:100D7000A901405F5F4F662757FD6095762F841766
:100D80009507A607B70740F422EA31E043EA51E0AD
:100D900064EA71E08D85AEC108521109222717FD62
:100DA0002095322F80179107A207B30708F0A5C13D
:100DB000841B950BA60BB70B02E0B695A7959795EC
:100DC00087950A95D1F70196A11DB11DFE01E80F87
:100DD000F91F73C08F819885892B29F40E946F04B5
:100DE00090E098878F838F8198854096AA2797FDFA
:100DF000A095BA2F488159816A817B81481759078C
:100E00006A077B0788F0188219821A821B828E81FA
:100E100090E001966C8570E00E94AF1E8E830E9468
:100E20006F0490E098878F838F819885AA2797FD1C
:100E3000A095BA2F488159816A817B81481759074B
:100E40006A077B0708F059C134C088819981AA815B
:100E5000BB8188379105A105B105A8F018821982D8
:100E60001A821B828F819885019698878F830497B9
:100E700054F018861F828E8190E001966C8570E098
:100E80000E94AF1E8E83688179818A819B8164363E
:100E900071058105910508F030C124E130E040E0A2
:100EA00050E00E94C31E3A8729878F81988500975A
:100EB00059F48E81FE01E80FF11D22EA31E043EA88
:100EC00051E064EA71E015C12817390724F48E81D6
:100ED00090E0019601C12817390759F70EC18881A2
:100EE0009981AA81BB8184349105A105B105A8F03F
:100EF000188219821A821B828F81988501969887A1
:100F00008F83049754F018861F828E8190E001969B
:100F10006C8570E00E94AF1E8E8388819981AA81C2
:100F2000BB818297A105B10508F0E7C08E81FE0163
:100F3000E80FF11D2FE931E040EA51E061EA71E08C
:100F400085850E947C038E8190E001966C8570E01F
:100F50000E94AF1E8C0F9D1F2CE931E04DE951E03E
:100F60006EE971E0FC0185850E947C038F81988584
:100F700024E4289FF001299FF00D11248881998194
:100F800022EA31E03F932F9323EA31E03F932F93FE
:100F900014EA812E11E0912EA0909C01C0909D0139
:100FA000E0909E0100919F012091A0014091A1013C
:100FB00060E171E08E0F9F1F0E94BC030F900F90A5
:100FC0000F900F90A0C088819981AA81BB8146971C
:100FD000A105B10508F46DCF188219821A821B820F
:100FE0008E8190E001966C8570E00E94AF1E8E832A
:100FF00060CF88819981AA81BB818E97A105B105B7
:1010000038F1188219821A821B822F8138858985CE
:101010009A85892B19F482E090E002C08EEF9FEF51
:10102000820F931F98878F83181619065CF01A8613
:1010300019868E8190E001966C8570E00E94AF1E4B
:101040008E8306C04E9724F081E090E09A878987CE
:101050008F819885AA2797FDA095BA2F488159813D
:101060006A817B8184179507A607B70708F445C0F6
:1010700020CF88819981AA81BB814A97A105B105BA
:10108000F0F0188219821A821B828F81988501964E
:1010900098878F8303979CF018861F8289859A858D
:1010A00001969A878987089754F01A8619868E8147
:1010B00090E001966C8570E00E94AF1E8E8388815F
:1010C0009981AA81BB810A97A105B105B0F42E814F
:1010D0008F819885820F911D6C8570E00E94AF1EF4
:1010E0008C0F9D1F22EA31E043EA51E064EA71E08F
:1010F000FC0185850E947C0306C01092A401109219
:10110000A3011092A20188819981AA81BB810196D5
:10111000A11DB11D88839983AA83BB838091A401FB
:10112000F10180838091A301F20180838091A2016B
:10113000F3018083DF91CF911F910F91FF90EF908A
:10114000DF90CF90AF909F908F907F906F905F9047
:101150004F903F902F900895FC01108211821282CF
:101160001382168210861782128611860895CF93F5
:10117000DF93EC016B858C819D810E945E038C81E5
:101180009D816C8501960E945E038C819D816D8599
:1011900002960E945E038C819D816E8503960E945B
:1011A0005E038C819D816F8504960E945E038C8115
:1011B0009D81688905960E945E038C819D81698965
:1011C00006960E945E038C819D816A8907960E9423
:1011D0005E038C819D816B8908960E945E038C81E1
:1011E0009D816C8909960E945E038C819D816D8929
:1011F0000A960E945E038C819D816E890B960E94E7
:101200005E038C819D816F890C960E945E038C81A8
:101210009D81688D0D960E945E038C819D81698DF4
:101220000E960E945E038C819D816A8D0F960E94AE
:101230005E038C819D816B8D40960E945E038C8144
:101240009D816C8D4196DF91CF910C945E030F933D
:101250001F93CF93DF93EC010C811D81C8010E9485
:101260007A038B87C80101960E947A038C87C80194
:1012700002960E947A038D87C80103960E947A0322
:101280008E87C80104960E947A038F87C80105964D
:101290000E947A03888BC80106960E947A03898B84
:1012A000C80107960E947A038A8BC80108960E949B
:1012B0007A038B8BC80109960E947A038C8BC80134
:1012C0000A960E947A038D8BC8010B960E947A03BE
:1012D0008E8BC8010C960E947A038F8BC8010D96E5
:1012E0000E947A03888FC8010E960E947A03898F24
:1012F000C8010F960E947A038A8FC80140960E9407
:101300007A038B8FC80141960E947A038C8FDF91FC
:10131000CF911F910F91089583B78E7F83BF80E097
:101320000C949D16EF92FF920F931F93CF93DF9330
:101330001F92CDB7DEB77C01FC0100811181C8018D
:1013400069830E94951F6981681719F0C8010E947E
:101350009D1FC7010F90DF91CF911F910F91FF90BB
:10136000EF900895AF92BF92CF92DF92EF92FF92EB
:101370000F931F93CF93DF9300D0CDB7DEB785E0F7
:10138000C82E81E0D82E00E010E094ECE92E93E026
:10139000F92EF60161916F01FA82E982CE01019680
:1013A0000E9492095801F0E1AF0EB11CF801E75F0D
:1013B000FE4F6081C8018C579C4F9A838983CE0170
:1013C00001960E9492090F5F1F4F0A151B0571F7C6
:1013D0008FEFE81AF80A00341105D9F60F900F9034
:1013E000DF91CF911F910F91FF90EF90DF90CF9001
:1013F000BF90AF900895CF92DF92EF92FF920F933C
:101400001F93CF93DF9325E0E22E21E0F22EC0E080
:10141000D0E004EC13E0C8010E94951FF70181930E
:101420007F016E01F0E1CF0ED11CCE018C579C4F95
:101430000E94951FFE01E75FFE4F80832196CC1529
:10144000DD0599F70F5F1F4F083C83E0180719F778
:10145000DF91CF911F910F91FF90EF90DF90CF9090
:101460000895CF93DF93C9E4D1E0899199910E94C7
:10147000B70881E0C936D807C1F7DF91CF91089549
:10148000CF93DF93C9E4D1E0899199910E94270914
:1014900081E0C936D807C1F7DF91CF910895FF9257
:1014A0000F931F93CF93DF93F82ED62FC42F0E9454
:1014B00051170091AA011091AB012091AC0130911C
:1014C000AD01601B710B820B930B61157D4781058C
:1014D000910568F30E9451176093AA017093AB01C4
:1014E0008093AC019093AD01EF2DF0E0E95FFA4FEE
:1014F000E4916E2F70E089E00E94F417ED2FF0E088
:10150000E95FFA4FE4916E2F70E086E00E94F417D5
:10151000EC2FF0E0E95FFA4FE4916E2F70E085E088
:10152000DF91CF911F910F91FF900C94F417EF92E0
:10153000FF920F931F93CF93DF93182F062FF42E54
:10154000E22ED0E0DE1589F0C0E0C43620F44F2D45
:10155000602F812F03C040E060E080E00E944F0ACE
:10156000CF5FC83C91F7DF5FEDCFDF91CF911F9147
:101570000F91FF90EF9008951092AF01E091B001AC
:1015800080E1E89FF0011124E75FFE4FE081F0E089
:10159000EE0FFF1FE75BFE4F808191819093B201B8
:1015A0008093B1010C94AC080F931F93CF93DF93FA
:1015B00000D0CDB7DEB78091640084608093640072
:1015C00026E040E051EE60E070E08FE494E00E949D
:1015D000F71980E00E94D717BC01882777FD809516
:1015E000982F0E947C1C61E089E00E947C1861E0D9
:1015F00086E00E947C1861E085E00E947C1860E033
:1016000082E00E947C1861E081E10E947C1861E028
:1016100081E10E94B51866EF74E08FE494E00E94C7
:101620007C1B80E092E00E94951F8839A1F068EC55
:1016300074E08FE494E00E947C1B0E94310A0E94B7
:10164000B20980E092E09A83898368E9CE0101962D
:101650000E9492090AC061EA74E08FE494E00E945B
:101660007C1B0E94400A0E94FB0966E874E08FE43C
:1016700094E00E944C1B4AE050E068E98FE494E05B
:101680000E94651C09E411E0F801819191918F019C
:101690000E94AC08F1E009361F07B1F7F8941092E8
:1016A0007A0085B5887F816085BD80918100887FC3
:1016B000816080938100789460EA7FE080E090E030
:1016C0000E9474170E9451176093AA017093AB0196
:1016D0008093AC019093AD010E94BC0A81E080939D
:1016E00004010F900F90DF91CF911F910F910895FA
:1016F000E091B001F0E08091AF0190E00196DF0150
:10170000AB5FBE4F6C9170E00E94AF1E8093AF0143
:1017100044E0EE0FFF1F4A95E1F7E80FF91FE75F7E
:10172000FE4FE081F0E0EE0FFF1FE75BFE4F808190
:1017300091819093B2018093B1010C94AC0866E55D
:1017400072E08FE494E00E944C1B6091B00170E065
:101750006F5F7F4F4AE050E08FE494E00E94311CBD
:101760006EE472E08FE494E00E944C1BE091B001C3
:10177000F0E0EB5FFE4F4AE050E060818FE494E0E0
:101780000C945E1C66E372E08FE494E00E944C1BB4
:101790008091AF01E091B00190E1E99FF001112447
:1017A000E80FF11DE75FFE4F608170E06F5F7F4FD4
:1017B0004AE050E08FE494E00E94311C6FE272E056
:1017C0008FE494E00E944C1B6091AE0170E06F5F6B
:1017D0007F4F4AE050E08FE494E00E94311C6AE2BF
:1017E00072E08FE494E00E944C1BE091B101F09113
:1017F000B2018091AE01E80FF11D65856F7370E055
:1018000040E150E08FE494E00E94311C66E272E017
:101810008FE494E00E944C1BE091B101F091B20181
:101820008091AE01E80FF11D658570E0E6E07595E9
:101830006795EA95E1F74AE050E08FE494E00C9474
:10184000311C60E272E08FE494E00E944C1B8091B6
:10185000AF01E091B00190E1E99FF0011124E80FA0
:10186000F11DE75FFE4F608170E06F5F7F4F4AE0E0
:1018700050E08FE494E00E94311CE091B101F091BE
:10188000B201838590E08F30910590F5FC01EC5B0F
:10189000FF4F0C94041F68E172E02CC06AE072E014
:1018A00029C064E072E026C06BEF71E023C064EFF2
:1018B00071E020C064EE71E01DC06CED71E01AC0F3
:1018C00061ED71E017C068EC71E014C062EC71E08A
:1018D00011C06CEB71E00EC065EB71E00BC067EA04
:1018E00071E008C06FE971E005C061E971E002C014
:1018F00063E871E08FE494E00C944C1B66E472E0C2
:101900008FE494E00E944C1B6091B00170E06F5F27
:101910007F4F4AE050E08FE494E00E94311C6FE377
:1019200072E08FE494E00E944C1B6091AF0170E084
:101930006F5F7F4F4AE050E08FE494E00E94311CDB
:101940006CE372E08FE494E00E944C1B0C94210C39
:101950000F931F93CF93DF9364E771E08FE494E0DC
:101960000E947C1B40E060E080E00E944F0A60E043
:1019700081E10E94B51860EA7FE080E090E00E947B
:10198000741783B7817F846083BF83B7816083BF0F
:10199000F89442E050E06CE879E080E00E947D1627
:1019A00081E08CBB80E685BF80E485BF7894889514
:1019B0000E9451176093AA017093AB018093AC0110
:1019C0009093AD01C0E0D0E082E00E94EB18892B3B
:1019D00091F50E9451170091AA011091AB0120913D
:1019E000AC013091AD01601B710B820B930B613028
:1019F0007D478105910558F00E9451176093AA0117
:101A00007093AB018093AC019093AD012196C93BDB
:101A10008BE0D807C8F266E671E08FE494E00E949C
:101A20007C1B25E040E860E080E00E94970A8AE4A1
:101A30008093A90105C0C93BDB4068F71092A9015A
:101A400061E081E10E94B5180E94BC0A81E08093A8
:101A500004011092A5011092A60160EA7FE080E0E7
:101A600090E0DF91CF911F910F910C947417CF9359
:101A7000C82F8091A901803209F4AEC280F584316B
:101A800009F46AC1A0F4823009F4A2C038F48823B2
:101A900009F451C0813009F469C0D2C4843009F41A
:101AA000EEC008F4BBC0853009F42EC1C9C487312B
:101AB00009F4D0C158F42091A7013091A8018531D3
:101AC00009F465C1863109F484C1BAC48E3109F4C0
:101AD0000AC208F023C2883109F402C2B1C48834B2
:101AE00009F49BC3A0F4893209F405C338F48132A8
:101AF00009F4AFC2883209F4E3C2A2C4863409F4FF
:101B000049C308F050C38A3209F42AC399C4803506
:101B100009F4B7C338F4893409F4A8C38A3409F442
:101B200036C38EC4823509F410C408F4C5C38335A6
:101B300009F46BC485C480910401882371F010926C
:101B400004016CE774E08FE494E00E944C1B0E9457
:101B50007E0C8FE494E00E94781BCC2309F475C4BA
:101B60001092A8011092A70181E003C48091A701FF
:101B70009091A801813D9740A0F06DE674E08FE45C
:101B800094E00E944C1B25E040E860E880E80E9459
:101B9000970A88EE93E09093A8018093A70182E0D2
:101BA000E8C3C11152C48091A601882371F08091CD
:101BB000A50191E089278093A501882319F06AE5A2
:101BC00074E058C068E474E055C00E94780B38C4D3
:101BD0008091A7019091A801893B9B40A0F065E30B
:101BE00074E08FE494E00E944C1B25E040E860E044
:101BF00080E00E94970A88EE93E09093A80180937A
:101C0000A70183E0B6C3C11120C46CE274E08FE485
:101C100094E00E947C1B0E94A80C17C48091A7012D
:101C20009091A801893B9B40A0F069E174E08FE4AA
:101C300094E00E944C1B25E040E060E880E80E94B0
:101C4000970A88EE93E09093A8018093A70184E01F
:101C500090C3C111FAC38091A60191E089278093B6
:101C6000A6011092A501882319F06EE074E002C06D
:101C700062E074E08FE494E00E947C1BE4C3209156
:101C8000A7013091A801293B3B40A0F061EF73E030
:101C90008FE494E00E944C1B25E040E060E880E087
:101CA0000E94970A88EE93E09093A8018093A70181
:101CB00085E05FC3C111C9C38091B1019091B201A8
:101CC0000E94AC086BED73E08FE494E00E944C1B23
:101CD0008091AF01E091B00190E1E99FF001112402
:101CE000E80FF11DE75FFE4F608170E06F5F7F4F8F
:101CF0004AE050E08FE494E00E94391C1092AE015B
:101D000081E08093040166C1C1119FC38091B1013C
:101D10009091B2010E94AC0867EC73E08FE494E00C
:101D20000E944C1B8091AF01E091B00120E1E29F45
:101D3000F0011124E80FF11DE75FFE4F608170E0B4
:101D40006F5F7F4F4AE050E08FE494E00E94391CBF
:101D500081E08093040102C280910401882371F024
:101D600060EC73E08FE494E00E944C1B0E94C20B75
:101D70008FE494E00E94781B10920401CC2309F4B4
:101D800064C31092A8011092A70185E1F2C2C111AB
:101D900002C086E1EEC2213D374008F456C367EB2E
:101DA00073E08FE494E00E944C1B0E94C20B8FE40E
:101DB00094E00E94781B25E040E460E480E40E9407
:101DC000970A88EE93E09093A8018093A70187E19A
:101DD000D0C22D3B3240E8F0E091B101F091B20168
:101DE0008091AE01E80FF11D858590E001966FE3CB
:101DF00070E00E94AF1E85876AEA73E08FE494E08A
:101E00000E944C1B0E94C20B8FE494E00E94781B3E
:101E1000E1C0CC2309F419C3E091B101F091B20102
:101E20008091AE01E80FF11D858590E0CE966FE3BD
:101E300070E00E94AF1E85876DE973E08FE494E047
:101E40000E944C1B0E94C20B8FE494E00E94781BFE
:101E500088E18FC22091A7013091A801213D374030
:101E600020F1E091B101F091B2018091AE01E80F53
:101E7000F11D8585805C858764E973E08FE494E0DB
:101E80000E944C1B0E94C20B8FE494E00E94781BBE
:101E900025E040E460E480E40E94970A88EE93E045
:101EA0009093A8018093A701D0C2C111CEC2E09146
:101EB000B101F091B2018091AE018F5F848769E832
:101EC00073E08FE494E00E944C1B0E94C20B8FE4ED
:101ED00094E00E94781B81E0809304018EE149C266
:101EE000C111B3C277C080910401882371F06FE7FC
:101EF00073E08FE494E00E944C1B0E94C20B8FE4BD
:101F000094E00E94781B10920401CC2309F49DC236
:101F10001092A8011092A7018FE12BC22091A70176
:101F20003091A801293B3B40A0F06FE673E08FE4BD
:101F300094E00E944C1B25E040E060E080E80E94B5
:101F4000970A88EE93E09093A8018093A70180E21E
:101F500010C2C1117AC28091AE018F5F8093AE0131
:101F600063E673E08FE494E00E944C1B0E94C20B76
:101F70008FE494E00E94781B8091AE01803151F58E
:101F80008091B1019091B2010E94B7088091B10196
:101F90009091B2010E94AC086AE573E08FE494E08E
:101FA0000E944C1BE091B101F091B2014AE050E077
:101FB00064858FE494E00E945E1C63E573E08FE427
:101FC00094E00E947C1B25E040E860E880E80E94E5
:101FD000970A39C284E1CDC12091A7013091A801AF
:101FE000293B3B4070F065E473E08FE494E00E948D
:101FF0004C1B25E040E860E880E80E94970A81E2F7
:10200000B8C1C11122C26EE373E08FE494E00E9474
:102010007C1B8091AE01811105C081E08093040199
:1020200084E10EC081508093AE01E091B101F09146
:10203000B20184858150848781E0809304018EE120
:102040008093A9010E94C20B8FE494E00E94781B48
:10205000FCC1C111FAC162E373E08FE494E00E9415
:102060004C1B0E94C20B8FE494E00E94781B80916D
:10207000B1019091B2012091AE012F5FFC01248744
:102080000E94B7088091B1019091B2010E94AC0802
:1020900069E273E08FE494E00E944C1BE091B1018F
:1020A000F091B2014AE050E064858FE494E00E9430
:1020B0005E1C62E273E08FE494E00E947C1BC0C16E
:1020C00080910401882371F068E173E08FE494E06B
:1020D0000E944C1B0E94210C8FE494E00E94781B0C
:1020E00010920401CC2309F4B0C11092A8011092FF
:1020F000A70189E23EC12091A7013091A801283BA8
:102100003B4070F06BE073E08FE494E00E944C1B66
:1021100025E040E860E880E80E94970A8AE229C149
:10212000C11193C1E091B101F091B201838590E0BA
:1021300001968F709927838760E073E08FE494E0C5
:102140000E944C1B0E94210C8FE494E00E94781B9B
:102150008091B1019091B2010E94AC0888E209C15E
:10216000C11173C18091B1019091B2010E94B70871
:102170008091B1019091B2010E94AC0867EF72E0CA
:102180008FE494E00E944C1B0E94210C55C1C111A8
:102190005CC141C0CC2309F458C11092A80110922F
:1021A000A70187E4E6C02091A7013091A801283B50
:1021B0003B40A0F060EE72E08FE494E00E944C1B84
:1021C00025E040E860E080E00E94970A88EE93E016
:1021D0009093A8018093A70188E4CBC0C11135C1B9
:1021E0008091B00190E00196837099278093B001AF
:1021F0000E94BC0A6EEC72E08FE494E00E944C1BDB
:102200006091B00170E06F5F7F4F4AE050E08FE473
:1022100094E00E94391C86E4ACC02091A701309163
:10222000A801283B3B4070F069EB72E08FE494E03A
:102230000E944C1B25E040E060E880E80E94970A7D
:1022400089E497C0C11101C169EA72E08FE494E0AA
:102250000E944C1B6091B00170E06F5F7F4F4AE0BD
:1022600050E08FE494E00E94391CEAC0C111EDC037
:102270000E94BC0A64EA72E08FE494E00E947C1B36
:10228000BFC080910401882371F06AE972E08FE495
:1022900094E00E944C1B0E947E0C8FE494E00E940C
:1022A000781B10920401CC2309F4CFC01092A8012E
:1022B0001092A70181E55DC02091A7013091A8018E
:1022C000283B3B40A0F06DE872E08FE494E00E9470
:1022D0004C1B25E040E860E080E80E94970A88EE09
:1022E00093E09093A8018093A70182E542C0C111B9
:1022F000ACC0E091B0018091AF0120E1E29FF0011C
:102300001124E80FF11DE75FFE4F808190E00196F8
:102310008F7099278083FC01EE0FFF1FE75BFE4F54
:10232000808191819093B2018093B1010E94AC08A9
:1023300062E872E08FE494E00E944C1B0E947E0CE5
:102340008FE494E00E94781B5EC02091A701309139
:10235000A801283B3B4080F064E772E08FE494E002
:102360000E944C1B25E040E860E880E80E94970A44
:1023700083E58093A90169C0C11167C08091AF0155
:102380008F5F8093AF016EE672E08FE494E00E946D
:102390004C1B0E947E0C8FE494E00E94781B80917D
:1023A000AF01E091B0018031A9F4F0E0EB5FFE4FA6
:1023B00080830E94B2090E94BC0A66E672E08FE444
:1023C00094E00E944C1B0E949F0B8FE494E00E94BB
:1023D000781B39C090E1E99FF0011124E80FF11D4D
:1023E000E75FFE4FE081F0E0EE0FFF1FE75BFE4F7F
:1023F000808191819093B2018093B1010E94AC08D9
:1024000081E08093040180E5B4CFC1111EC0E0914A
:10241000B001F0E0EB5FFE4F8091AF018F5F8083F2
:102420000E94B2090E94BC0A6EE572E08FE494E05B
:102430000E944C1B0E949F0B8FE494E00E94781B2B
:1024400081E0809304011092A9018091A7019091ED
:10245000A80101969093A8018093A701CF910895B8
:10246000CF93DF9300D01F92CDB7DEB782E00E94FA
:10247000EB1821E0892B09F020E0822F0E94370D14
:102480002091A9012A508091B1019091B20124318B
:1024900060F09E012F5F3F4FAE014E5F5F4FBE0168
:1024A0006D5F7F4F0E94B90411C02091AE01FC0105
:1024B000E20FF11D9E012F5F3F4FAE014E5F5F4F58
:1024C000BE016D5F7F4F85850E947C038091A601D0
:1024D000882339F08091A501882319F01B821A8284
:1024E000198249816A818B810E944F0A0F900F9057
:1024F0000F90DF91CF9108955F926F927F928F92AC
:102500009F92AF92BF92CF92DF92EF92FF920F9382
:102510001F93CF93DF931F921F921F921F92CFE1C1
:10252000DC2EDF92CDE1CF93DBE1FD2EFF9219E1AE
:10253000912E9F92D7E1DF9315E11F9303E1B02E17
:10254000BF9281E1882E9FE0A92E2DE0C22E3BE0B4
:10255000E32E09E02CE040E068E072E086E693E0DC
:102560000E9488041F921F921F921F921F92CF9366
:10257000FF929F921F921F93BF92A12C2CE041E0EB
:102580006CE172E089E493E00E9488041F921F923C
:102590001F921F92DF92CF93FF929F92DF931F9320
:1025A000BF924FE0A42E2CE042E060E372E08CE2A8
:1025B00093E00E9488048DB79EB781960FB6F89479
:1025C0009EBF0FBE8DBF1F921F921F921F921F9220
:1025D0001F921F921F92CF935AE1752E7F92DF9325
:1025E00064E1862E71E1A72EEEE0CE2E08E028E011
:1025F00043E064E472E08FE093E00E9488041F925D
:102600001F921F921F92DF92CF93FF929F92DF93B0
:102610001F93BF92F1E18F2EAFE0AA2EBDE0CB2E2B
:1026200009E02CE044E068E572E082EF92E00E946D
:1026300088041F921F921F921F92DF92DF938FE0F8
:102640008F93CF931F938DE0682E6F92FF9293E14B
:10265000892E2BE0A22E39E1C32E41E1E42E2CE09D
:1026600045E06CE672E085ED92E00E9488048DB74B
:102670009EB781960FB6F8949EBF0FBE8DBF1F9276
:102680001F921F921F921F921F921F92CF937F92B1
:10269000DF9354E1552E5F9261E1862E7EE4A72EF2
:1026A000EBE0CE2EF8E0EF2E0DEB29E046E060E8FF
:1026B00072E088EB92E00E9488041F921F921F92A2
:1026C0001F921F921F921F92CF937F92DF935F9270
:1026D000AEE0AA2E08E329E047E064E972E08BE966
:1026E00092E00E9488041F921F921F921F921F92D5
:1026F0001F921F921F921F9282E08F9383E08F930D
:10270000B4E08B2E85E0A82E96E0C92E27E0E22EBD
:1027100027E048E068EA72E08EE792E00E948804D1
:102720008DB79EB781960FB6F8949EBF0FBE8DBF32
:102730001F921F921F921F921F921F921F9288ED4D
:102740008F9389ED8F938AED8F938BED8F933CE977
:10275000832E4DE9A42E5EE5C52E6FE5E62E08E03A
:1027600029E049E06CEB72E081E692E00E94880487
:102770001F921F921F921F921F921F921F921F92D1
:102780001F921F92CF9379E1872EE5E1AE2EF1E102
:10279000CF2EADE0EA2E09E026E04AE060ED72E0DF
:1027A00084E492E00E9488041F921F921F921F925D
:1027B000DF936F92FF9281E18F93DF921F938BE003
:1027C0008F93BFE0AB2E8DE1C82E93E1E92E2CE074
:1027D0004BE064EE72E087E292E00E9488048DB7DD
:1027E0009EB781960FB6F8949EBF0FBE8DBF1F9205
:1027F0001F921F921F92DF92CF93FF929F92DF93BF
:102800001F93BF9221E1822E3DE0C32E4BE0E42EC8
:102810002CE04CE068EF72E08AE092E00E948804CD
:102820001F921F9283E38F9382E38F9381E38F93B1
:1028300080E38F931F928BE28F938AE28F9389E2DA
:102840008F9388E28F93812C53E2A52E62E2C62EED
:1028500071E2E72E00E22FE04DE06CE073E08DEED8
:1028600091E00E9488041F921F921F921F92DF9294
:10287000CF93FF929F92DF931F93BF92E1E18E2E41
:10288000FFE0AF2EADE0CA2EBBE0EB2E09E02CE05E
:102890004EE060E273E080ED91E00E9488048DB725
:1028A0009EB781960FB6F8949EBF0FBE8DBF1F9244
:1028B0001F921F921F92DF92CF93FF929F92DF93FE
:1028C0001F93BF922CE04FE064E373E083EB91E051
:1028D0000E9488040E9451176093AA017093AB0173
:1028E0008093AC019093AD018DB79EB70B960FB658
:1028F000F8949EBF0FBE8DBFDF91CF911F910F91B6
:10290000FF90EF90DF90CF90BF90AF909F908F900F
:102910007F906F905F9008958091B20390E0209136
:10292000B303821B910908952091B3038091B203F0
:10293000281750F4E22FF0E0EC54FC4F808190E037
:102940002F5F2093B30308958FEF9FEF0895E091D9
:10295000B3038091B203E81730F4F0E0EC54FC4F7D
:10296000808190E008958FEF9FEF08950895CF92B2
:10297000DF92EF92FF920F931F93CF93DF937C012F
:10298000CB018A0120918F03222389F0EB016B0197
:10299000C40ED51ECC15DD0569F06991D701ED9106
:1029A000FC910190F081E02DC7010995F3CF642FD0
:1029B0000E942715C801DF91CF911F910F91FF90C1
:1029C000EF90DF90CF900895CF93DF931F92CDB714
:1029D000DEB7698320918F032223D1F020919003E9
:1029E000203240F021E030E0FC013383228380E09C
:1029F00090E015C080919103E82FF0E0EE56FC4F77
:102A0000998190838F5F809391038093900305C099
:102A100061E0CE0101960E94271581E090E00F90C1
:102A2000DF91CF910895FC011382128248EE53E0AA
:102A300060E070E044835583668377838EE691E09F
:102A400091838083089583E893E00C941315613299
:102A500098F420914104243089F46093F603FC013A
:102A600088EF93E0DC012A2F281B261718F4219108
:102A70002D93F9CF80E0089581E0089582E00895D4
:102A800085ED8093BC008091BC0084FDFCCF10924A
:102A90004104089585EC8093BC0010924104089590
:102AA0001F920F920FB60F9211242F933F934F93C3
:102AB0005F936F937F938F939F93AF93BF93EF93A6
:102AC000FF938091B900887F803609F49CC068F537
:102AD000883209F45BC090F4803109F454C038F4B2
:102AE000882309F4F5C0883009F44DC0F5C0883159
:102AF00009F44CC0803209F45DC0EEC0803409F4A2
:102B000068C048F4803309F455C0883309F0E4C044
:102B10008093D403A8C0803509F44FC0883509F4E8
:102B20005DC0883409F0D8C0D5C0883909F4C6C062
:102B3000A8F4883709F467C038F4883609F463C00C
:102B4000803709F460C0C8C0883809F4B7C080393C
:102B500009F45FC0803809F0BFC05BC0803B09F456
:102B600085C038F4803A09F466C0883A09F47EC01A
:102B7000B3C0803C09F4A6C0883C09F4A3C0883BDC
:102B800009F489C0A9C08091400410C09091190433
:102B900080911804981770F5E091190481E08E0F68
:102BA00080931904F0E0E65EFB4F80818093BB00C8
:102BB00085EC85C08093D4038DC0E091190481E039
:102BC0008E0F809319048091BB00F0E0E65EFB4F0E
:102BD000808390911904809118046DC0E0911904CC
:102BE00081E08E0F809319048091BB00F0E0E65ED7
:102BF000FB4F808380913F0481116CC081E0809302
:102C00003E0484EA60C083E0809341041092D503BF
:102C1000CFCF8091D503803208F050C0E091D5032A
:102C200081E08E0F8093D5038091BB00F0E0EA52E3
:102C3000FC4F8083BDCF8091D503803230F4E0918A
:102C4000D503F0E0EA52FC4F10820E9440156091DB
:102C5000D50370E0E0913A04F0913B0486ED93E0F7
:102C600009951092D5030E944A1536C084E08093DE
:102C700041041092F7031092F603E0913C04F091A6
:102C80003D0409958091F603811105C081E0809390
:102C9000F6031092F803E091F70381E08E0F809322
:102CA000F703F0E0E850FC4F80818093BB009091E7
:102CB000F7038091F603981708F47ACF85E880939C
:102CC000BC000AC085EC8093BC001092410404C093
:102CD0001092D4030E944015FF91EF91BF91AF91E4
:102CE0009F918F917F916F915F914F913F912F9124
:102CF0000F900FBE0F901F9018958230E8F4E82FC8
:102D0000F0E0EE0FFF1FEE5BFB4F718360838130BD
:102D100041F0809169008C7F842B80936900E89A50
:102D2000089580916900440F551F440F551F837FFC
:102D3000842B80936900E99A0895823068F4813089
:102D400011F0E89801C0E998E82FF0E0EE0FFF1FBE
:102D5000EE5BFB4F1182108208951F920F920FB607
:102D60000F9211242F933F934F935F936F937F9311
:102D70008F939F93AF93BF93EF93FF938091420400
:102D800090914304892B29F0E0914204F09143048F
:102D90000995FF91EF91BF91AF919F918F917F9195
:102DA0006F915F914F913F912F910F900FBE0F90B8
:102DB0001F9018951F920F920FB60F9211242F9308
:102DC0003F934F935F936F937F938F939F93AF93B3
:102DD000BF93EF93FF938091440490914504892B16
:102DE00029F0E0914404F09145040995FF91EF9199
:102DF000BF91AF919F918F917F916F915F914F9113
:102E00003F912F910F900FBE0F901F9018951F921A
:102E10000F920FB60F9211242F933F938F939F938E
:102E2000AF93BF938091470490914804A0914904C7
:102E3000B0914A043091460423E0230F2D3720F44B
:102E40000196A11DB11D05C026E8230F0296A11D04
:102E5000B11D209346048093470490934804A093A7
:102E60004904B0934A0480914B0490914C04A09182
:102E70004D04B0914E040196A11DB11D80934B04E9
:102E800090934C04A0934D04B0934E04BF91AF9126
:102E90009F918F913F912F910F900FBE0F901F9098
:102EA00018953FB7F89480914B0490914C04A091F1
:102EB0004D04B0914E0426B5A89B05C02F3F19F0D4
:102EC0000196A11DB11D3FBF6627782F892F9A2F2C
:102ED000620F711D811D911D42E0660F771F881FD3
:102EE000991F4A95D1F70895CF92DF92EF92FF9202
:102EF000CF93DF936B017C010E945117EB01C1144A
:102F0000D104E104F10489F00E94C41C0E9451170D
:102F10006C1B7D0B683E734090F381E0C81AD108AA
:102F2000E108F108C851DC4FEACFDF91CF91FF9063
:102F3000EF90DF90CF900895789484B5826084BD3F
:102F400084B5816084BD85B5826085BD85B58160AD
:102F500085BDEEE6F0E0808181608083E1E8F0E00D
:102F60001082808182608083808181608083E0E83C
:102F7000F0E0808181608083E1EBF0E0808184601B
:102F80008083E0EBF0E0808181608083EAE7F0E01D
:102F90008081846080838081826080838081816081
:102FA00080838081806880831092C10008958E3074
:102FB00008F08E5087702091690190E4299F90015C
:102FC0001124822B80937C0080917A00806480930E
:102FD0007A0080917A0086FDFCCF80917800209164
:102FE000790090E0922B08951F93CF93DF93182FD1
:102FF000EB0161E00E947C18209711F460E004C0AE
:10300000CF3FD10539F461E0812FDF91CF911F913E
:103010000C94B518E12FF0E0E95FF94FE491E3304B
:10302000F9F048F4E130B9F0E230A1F584B58062FE
:1030300084BDC8BD34C0E730E9F0E83019F1E430B0
:1030400049F580918000806280938000D0938B004E
:10305000C0938A0024C084B5806884BDC7BD1FC0EA
:1030600080918000806880938000D0938900C09315
:10307000880015C08091B00080688093B000C09334
:10308000B3000DC08091B00080628093B000C09307
:10309000B40005C0C038D1050CF0B5CFAFCFDF917B
:1030A000CF911F910895833081F028F4813099F0F9
:1030B0008230A1F008958730A9F08830B9F08430CB
:1030C000D1F4809180008F7D03C0809180008F7744
:1030D00080938000089584B58F7702C084B58F7D7A
:1030E00084BD08958091B0008F7703C08091B000B7
:1030F0008F7D8093B0000895CF93DF9390E0FC0123
:10310000E55EF94F2491FC01E15DF94F849188233C
:1031100049F190E0880F991FFC01E95AF94FA591F8
:10312000B491835B994FFC01C591D4919FB7611114
:1031300008C0F8948C91209582238C9388818223F7
:103140000AC0623051F4F8948C91322F3095832369
:103150008C938881822B888304C0F8948C91822B75
:103160008C939FBFDF91CF9108950F931F93CF93BF
:10317000DF931F92CDB7DEB7282F30E0F901E95F6A
:10318000F94F8491F901E55EF94F1491F901E15D80
:10319000F94F04910023C9F0882321F069830E942C
:1031A00053186981E02FF0E0EE0FFF1FE35BF94F4A
:1031B000A591B4919FB7F8948C91611103C01095BB
:1031C000812301C0812B8C939FBF0F90DF91CF9102
:1031D0001F910F910895CF93DF93282F30E0F901CD
:1031E000E95FF94F8491F901E55EF94FD491F90156
:1031F000E15DF94FC491CC2391F081110E945318E5
:10320000EC2FF0E0EE0FFF1FED5BF94FA591B491AD
:103210002C912D2381E090E021F480E002C080E039
:1032200090E0DF91CF910895FC01818D228D90E097
:10323000805C9F4F821B91098F7399270895FC0131
:10324000918D828D981731F0828DE80FF11D858D5B
:1032500090E008958FEF9FEF0895FC01918D828D8E
:10326000981761F0828DDF01A80FB11D5D968C91DA
:10327000928D9F5F9F73928F90E008958FEF9FEFE5
:10328000089581EB9AE1892B49F080E090E0892B49
:1032900029F00E94B11A81110C9400000895FC01DC
:1032A000848DDF01A80FB11DA35ABF4F2C91848DCF
:1032B00090E001968F739927848FA689B7892C9304
:1032C000A089B1898C9180648C93938D848D98139F
:1032D00006C00288F389E02D80818F7D8083089568
:1032E000CF93DF93EC01888D8823C9F0EA89FB89AD
:1032F000808185FD05C0A889B9898C9186FD0FC0A4
:103300000FB607FCF5CF808185FFF2CFA889B98978
:103310008C9185FFEDCFCE010E944F19E7CFDF9151
:10332000CF910895CF92DF92FF920F931F93CF9387
:10333000DF931F92CDB7DEB76C0181E0D6015896BE
:103340008C9358975B969C915B975C968C915C975D
:10335000981307C05096ED91FC915197808185FD9F
:103360002EC0F601038D10E00F5F1F4F0F73112762
:10337000F02EF601848DF81211C00FB607FCF9CFBC
:10338000D6015096ED91FC915197808185FFF1CF48
:10339000C60169830E944F196981EBCF838DE80FC5
:1033A000F11DE35AFF4F6083D6015B960C935B9748
:1033B0005296ED91FC915397808180620CC0D601AA
:1033C0005696ED91FC91579760835096ED91FC9144
:1033D000519780818064808381E090E00F90DF913D
:1033E000CF911F910F91FF90DF90CF900895BF92E2
:1033F000CF92DF92EF92FF92CF93DF93EC016A01BD
:103400007B01B22EE889F98982E08083411581EE43
:10341000580761057105A1F060E079E08DE390E067
:10342000A70196010E94C31E21503109410951098B
:103430005695479537952795211580E1380798F0DF
:10344000E889F989108260E874E88EE190E0A701CC
:1034500096010E94C31E2150310941095109569518
:10346000479537952795EC85FD853083EE85FF855B
:103470002083188EEC89FD89B082EA89FB898081DE
:1034800080618083EA89FB89808188608083EA8902
:10349000FB89808180688083EA89FB8980818F7DB8
:1034A0008083DF91CF91FF90EF90DF90CF90BF901E
:1034B00008951F920F920FB60F9211242F938F939E
:1034C0009F93EF93FF93E0915F04F09160048081FC
:1034D000E0916504F091660482FD12C090818091B4
:1034E00068048F5F8F7320916904821751F0E09117
:1034F0006804F0E0E15BFB4F958F8093680401C0A6
:103500008081FF91EF919F918F912F910F900FBE2E
:103510000F901F9018951F920F920FB60F921124C3
:103520002F933F934F935F936F937F938F939F93CB
:10353000AF93BF93EF93FF938FE494E00E944F19F2
:10354000FF91EF91BF91AF919F918F917F916F917B
:103550005F914F913F912F910F900FBE0F901F9051
:1035600018958FE494E00E94141921E0892B09F446
:1035700020E0822F0895109252041092510488EE98
:1035800093E0A0E0B0E08093530490935404A093A0
:103590005504B09356048EE791E0909350048093C5
:1035A0004F0485EC90E090935C0480935B0484EC82
:1035B00090E090935E0480935D0480EC90E09093A3
:1035C000600480935F0481EC90E0909362048093A8
:1035D000610482EC90E0909364048093630486EC31
:1035E00090E09093660480936504109268041092B2
:1035F000690410926A0410926B04089508950E9461
:103600009C170E94FE1A0E94D40AC1E4D9E10E94CC
:1036100030122097E1F30E944119F9CFCF92DF9247
:10362000EF92FF920F931F93CF93DF936C017A0178
:10363000EB01E60EF71E00E010E0CE15DF0561F0AD
:103640006991D601ED91FC910190F081E02DC601C8
:103650000995080F191FF1CFC801DF91CF911F9174
:103660000F91FF90EF90DF90CF9008956115710555
:1036700081F0DB010D900020E9F7AD0141505109C7
:10368000461B570BDC01ED91FC910280F381E02D8C
:10369000099480E090E00895EF92FF920F931F93BA
:1036A000CF93DF938C01FB01C0E0D0E064917F01F8
:1036B0008FEFE81AF80A662361F0D801ED91FC91CA
:1036C0000190F081E02DC8010995C80FD91FF701BD
:1036D000EDCFCE01DF91CF911F910F91FF90EF9031
:1036E0000895DC01ED91FC910190F081E02D0994A9
:1036F0006AE871E00C94361B0F931F93CF93DF930E
:10370000EC010E944C1B8C01CE010E94781B800FA3
:10371000911FDF91CF911F910F9108958F929F92EA
:10372000AF92BF92CF92DF92EF92FF920F931F93CF
:10373000CF93DF93CDB7DEB7A1970FB6F894DEBF76
:103740000FBECDBF7C01C42EE52FCB01D22E19A216
:1037500021E02D1510F02AE0D22E8E010F5D1F4FB3
:103760008D2C912CA12CB12C6C2D7E2FA5019401B8
:103770000E94C31E8C2DD29E801911240150110964
:103780008A3014F4805D01C0895CF80180832115C2
:1037900031054105510521F0C22EE32FCA01E4CFC6
:1037A000B801C7010E94361BA1960FB6F894DEBF80
:1037B0000FBECDBFDF91CF911F910F91FF90EF9082
:1037C000DF90CF90BF90AF909F908F900895CF9251
:1037D000DF92EF92FF920F931F93CF93DF93EC0151
:1037E0006A017B012115310579F4E881F9810190A5
:1037F000F081E02D642FDF91CF911F910F91FF9009
:10380000EF90DF90CF9009942A303105E9F477FFEB
:103810001AC06DE20E94711B8C0144275527BA0122
:103820004C195D096E097F092AE0CE010E948E1BAA
:10383000800F911FDF91CF911F910F91FF90EF901B
:10384000DF90CF9008952AE0B701A601CE01DF9165
:10385000CF911F910F91FF90EF90DF90CF900C943C
:103860008E1B9A01AB01662757FD6095762F0C944D
:10387000E71B0F931F93CF93DF93EC019A01AB01EA
:10388000662757FD6095762F0E94E71B8C01CE01BD
:103890000E94781B800F911FDF91CF911F910F9194
:1038A00008952115310541F4DC01ED91FC91019061
:1038B000F081E02D642F09940C948E1B9A01462F01
:1038C00050E060E070E00C94511C0F931F93CF9375
:1038D000DF93EC019A01462F50E060E070E00E9417
:1038E000511C8C01CE010E94781B800F911FDF912B
:1038F000CF911F910F910895611571058105910573
:1039000011F00C948C1F0895CF93DF9300D000D05A
:10391000CDB7DEB79B01AC0161157105810591053D
:1039200069F069833A834B835C830E94871F2981F6
:103930003A814B815C810E94E51E03C060E070E02B
:10394000CB010F900F900F900F90DF91CF910895C2
:10395000CF92DF92EF92FF926B017C0162177307A7
:103960008407950764F4CA01B9016C197D098E09B1
:103970009F090E94841C6C0D7D1D8E1D9F1DFF9054
:10398000EF90DF90CF90089508955058BB27AA2755
:103990000ED048C139D130F03ED120F031F49F3FF4
:1039A00011F41EF42EC10EF4E095E7FB24C1E92FBB
:1039B0004AD180F3BA17620773078407950718F096
:1039C00071F49EF562C10EF4E0950B2EBA2FA02D76
:1039D0000B01B90190010C01CA01A0011124FF27BC
:1039E000591B99F0593F50F4503E68F11A16F040B7
:1039F000A22F232F342F4427585FF3CF46953795B6
:103A00002795A795F0405395C9F77EF41F16BA0B7A
:103A1000620B730B840BBAF09150A1F0FF0FBB1F28
:103A2000661F771F881FC2F70EC0BA0F621F731F71
:103A3000841F48F4879577956795B795F7959E3FCE
:103A400008F0B3CF9395880F08F09927EE0F97955C
:103A5000879508950CD0E6C0DED040F0D5D030F088
:103A600021F45F3F19F0C7C0511110C1CAC0EBD09B
:103A700098F39923C9F35523B1F3951B550BBB2735
:103A8000AA2762177307840738F09F5F5F4F220FE2
:103A9000331F441FAA1FA9F333D00E2E3AF0E0E8DB
:103AA00030D091505040E695001CCAF729D0FE2F27
:103AB00027D0660F771F881FBB1F261737074807B9
:103AC000AB07B0E809F0BB0B802DBF01FF2793586F
:103AD0005F4F2AF09E3F510568F08DC0D7C05F3F11
:103AE000ECF3983EDCF3869577956795B795F79557
:103AF0009F5FC9F7880F911D9695879597F908954F
:103B0000E1E0660F771F881FBB1F621773078407EA
:103B1000BA0720F0621B730B840BBA0BEE1F88F7F9
:103B2000E095089598D088F09F5790F0B92F992785
:103B3000B751A0F0D1F0660F771F881F991F1AF0B8
:103B4000BA95C9F712C0B13081F09FD0B1E00895A5
:103B50009CC0672F782F8827B85F39F0B93FCCF326
:103B6000869577956795B395D9F73EF490958095AE
:103B7000709561957F4F8F4F9F4F0895E89409C0CE
:103B800097FB3EF490958095709561957F4F8F4F90
:103B90009F4F9923A9F0F92F96E9BB279395F695A6
:103BA000879577956795B795F111F8CFFAF4BB0F24
:103BB00011F460FF1BC06F5F7F4F8F4F9F4F16C088
:103BC000882311F096E911C0772321F09EE8872F12
:103BD000762F05C0662371F096E8862F70E060E0CE
:103BE0002AF09A95660F771F881FDAF7880F969547
:103BF000879597F9089597F99F6780E870E060E0EE
:103C000008959FEF80EC089500240A941616170675
:103C100018060906089500240A94121613061406BD
:103C200005060895092E0394000C11F4882352F020
:103C3000BB0F40F4BF2B11F460FF04C06F5F7F4FD8
:103C40008F4F9F4F089557FD9058440F551F59F0BF
:103C50005F3F71F04795880F97FB991F61F09F3F79
:103C600079F087950895121613061406551FF2CFA2
:103C70004695F1DF08C0161617061806991FF1CFF2
:103C800086957105610508940895E894BB27662719
:103C90007727CB0197F908950BD0C4CFB5DF28F073
:103CA000BADF18F0952309F0A6CFABCF1124EECFE1
:103CB000CADFA0F3959FD1F3950F50E0551F629F87
:103CC000F001729FBB27F00DB11D639FAA27F00D75
:103CD000B11DAA1F649F6627B00DA11D661F829F9C
:103CE0002227B00DA11D621F739FB00DA11D621F81
:103CF000839FA00D611D221F749F3327A00D611D9E
:103D0000231F849F600D211D822F762F6A2F11247F
:103D10009F5750408AF0E1F088234AF0EE0FFF1FD2
:103D2000BB1F661F771F881F91505040A9F79E3F09
:103D3000510570F060CFAACF5F3FECF3983EDCF303
:103D4000869577956795B795F795E7959F5FC1F746
:103D5000FE2B880F911D9695879597F9089597FBEF
:103D6000072E16F4009407D077FD09D00E94151F86
:103D700007FC05D03EF4909581959F4F089570956E
:103D800061957F4F0895A1E21A2EAA1BBB1BFD016E
:103D90000DC0AA1FBB1FEE1FFF1FA217B307E4072A
:103DA000F50720F0A21BB30BE40BF50B661F771F82
:103DB000881F991F1A9469F7609570958095909562
:103DC0009B01AC01BD01CF010895052E97FB1EF4A8
:103DD00000940E94FC1E57FD07D00E94C31E07FCE2
:103DE00003D04EF40C94FC1E5095409530952195CF
:103DF0003F4F4F4F5F4F0895909580957095619517
:103E00007F4F8F4F9F4F0895EE0FFF1F0590F49146
:103E1000E02D09940E94291FA59F900DB49F900D3D
:103E2000A49F800D911D11240895AA1BBB1B51E175
:103E300007C0AA1FBB1FA617B70710F0A61BB70B1A
:103E4000881F991F5A95A9F780959095BC01CD01BF
:103E50000895A29FB001B39FC001A39F700D811D63
:103E60001124911DB29F700D811D1124911D089583
:103E70008F929F92AF92BF92CF92DF92EF92FF927A
:103E8000CF93DF93EC01688179818A819B816115F1
:103E900071058105910521F464E279ED8BE597E0E8
:103EA0002DE133EF41E050E00E94E51E49015A0147
:103EB0009B01AC01A7EAB1E40E940A1F6B017C01DF
:103EC000ACEEB4EFA50194010E94AE1FC60ED71E42
:103ED000E81EF91EF7FE06C081E0C81AD108E10805
:103EE00080E8F80AC882D982EA82FB82C701B6015B
:103EF0009F77DF91CF91FF90EF90DF90CF90BF90B1
:103F0000AF909F908F9008950E94381F089580E091
:103F100091E00E94381F08956093000170930101A1
:103F200080930201909303010895F999FECF92BD09
:103F300081BDF89A992780B50895262FF999FECF6B
:103F40001FBA92BD81BD20BD0FB6F894FA9AF99AB6
:103F50000FBE01960895B7FF0C940A1F0E940A1F16
:0A3F6000821B930B0895F894FFCF25
:103F6A000100000001100302020001020304050619
:103F7A000708090A0B0C0D0E0F01020600000000CB
:103F8A000000000000000000000203000000000022
:103F9A000000000000000000000A0B000000000002
:103FAA00000000000000000000660349032C030F14
:103FBA0003F202D502B8029B027E02610244022782
:103FCA00020A02ED01D001B3010100000000E4146D
:103FDA00B7148C149414A714B61400000000921994
:103FEA000E1B14192D191F1970190D0A006E616E16
:0C3FFA0000696E66006F7666002E000005
:00000001FF
