:100000000C9418010C94FE070C942B080C944001DE
:100010000C9440010C9440010C9440010C9440015C
:100020000C9440010C9440010C9440010C9440014C
:100030000C9440010C9440010C9440010C9440013C
:100040000C9458080C9440010C94480A0C947A0AB9
:100050000C9440010C9440010C9440010C9440011C
:100060000C94A1060C94400168027B02990299024B
:1000700099029902990299027D0280028302870205
:100080008A028E02930272656C65617365642C202E
:10009000676F20746F206F6666007072657373659A
:1000A000642C2077696C6C20676F20746F206F66FA
:1000B00066002C20676F20746F20626C696E6B0085
:1000C0002C20676F20746F206F66660072656C6508
:1000D00061736564006D732C2077696C6C20676FA9
:1000E00020746F20626C696E6B006D732C207769D1
:1000F0006C6C207475726E206F666600707265732A
:1001000073656420002C20676F20746F206C6F77FC
:10011000002C20676F20746F206F66660072656C1C
:100120006561736564006D732C2077696C6C206762
:100130006F20746F206C6F77006D732C2077696C63
:100140006C207475726E206F6666007072657373D2
:100150006564200072656C65617365642C20676F4F
:1001600020746F20686967680070726573736564D6
:100170002C20676F20746F20686967682068656C41
:100180006400FF0000FC4000F88000F4C000F0F0C4
:1001900000C0F40080F80040FC0000FF0000FC40BC
:1001A00000F88000F4C000F0F000C0F40080F80017
:1001B00040FC0000FF4000FC8000F8C000F4F000AC
:1001C000F0F400C0F80080FC0040FFFFFF000000DA
:1001D0000000000800020100000304070000000006
:1001E0000000000001020408102040800102040801
:1001F0001020010204081020040404040404040470
:1002000002020202020203030303030300000000D0
:1002100023002600290000000000250028002B00F4
:1002200000000000240027002A00C9027406AA0A60
:1002300011241FBECFEFD8E0DEBFCDBF11E0A0E09C
:10024000B1E0E0E5FAE102C005900D92A234B107F9
:10025000D9F722E0A2E4B1E001C01D92A53CB207AB
:10026000E1F712E0C0E3D2E004C02297FE010E9451
:10027000F80CCA32D107C9F70E94EE0A0C94260D79
:100280000C94000083B78E7F83BF80E00C94EE0750
:100290001F93CF93DF931F92CDB7DEB78091640099
:1002A00084608093640061E089E00E94B00961E0AD
:1002B00086E00E94B00961E085E00E94B00960E03C
:1002C00082E00E94B00961E081E10E94B00961E032
:1002D00081E10E94E9091091020188EE93E00E94F9
:1002E000100DA0914201B0914301ED91FC91119745
:1002F0001817B1F00084F185E02D6CEE73E0CD01AC
:1003000009956091020188EE93E069830E94100DC7
:100310006981681761F088EE93E00E94180D07C0AC
:100320000680F781E02D6CEE73E0CD010995809198
:10033000420190914301DC01ED91FC910280F38137
:10034000E02D0995F89410927A0085B5887F816038
:1003500085BD80918100887F816080938100789441
:1003600060EA7FE080E090E00E94C5080E94A20859
:1003700060935501709356018093570190935801F3
:100380000F90DF91CF911F910895FF920F931F93CC
:10039000CF93DF93D82FC62FF42E0E94A20800918E
:1003A0005501109156012091570130915801601B61
:1003B000710B820B930B61157D478105910568F3E5
:1003C0000E94A208609355017093560180935701D3
:1003D000909358016D2F70E089E00E9428096C2FDE
:1003E00070E086E00E9428096F2D70E085E0DF91C3
:1003F000CF911F910F91FF900C942809EF92FF92DB
:100400000F931F93CF93DF93182F062FF42EE22E16
:10041000D0E0DE1589F0C0E0C43620F44F2D602F07
:10042000812F03C040E060E080E00E94C501CF5F03
:10043000C83C91F7DF5FEDCFDF91CF911F910F9116
:10044000FF90EF90089540E060E080E00E94C501D9
:1004500060E081E10E94E90960EA7FE080E090E0ED
:100460000E94C50883B7817F846083BF83B78160A2
:1004700083BFF89442E050E062E471E080E00E94C3
:10048000CE0781E08CBB80E685BF80E485BF789491
:10049000889561E081E10C94E909A0914201B09155
:1004A0004301ED91FC9111970480F581E02D682FB7
:1004B000CD010995992787FD9095A92FB92FFC01AA
:1004C0003297EF30F105A8F5EC5CFF4F0C94F60C79
:1004D00025E040E860E880E80E94FE01809142014A
:1004E00090914301DC01ED91FC910084F185E02DB8
:1004F0006CEE73E009940C94230225E040E805C0FB
:1005000025E040E012C025E040E060E80FC025E0B3
:1005100040E002C025E040E860E803C025E040E894
:1005200060E080E004C025E040E860E080E80C94F2
:10053000FE010895CF93DF9300D01F92CDB7DEB7B1
:1005400082E00E941F0A21E0892B09F020E0822F1F
:100550000E944D028091420190914301DC01ED9196
:10056000FC910190F081E02D9E012F5F3F4FAE0185
:100570004E5F5F4FBE016D5F7F4F099549816A8174
:100580008B810E94C5010F900F900F90DF91CF914A
:1005900008950E94A20860935501709356018093BC
:1005A0005701909358011092460110924701109202
:1005B00048011092490110924A0187E091E090931E
:1005C00045018093440110924B0110924C0110920E
:1005D0004D0110924E0110924F0110925301109252
:1005E00054011092500188E08093510180E1809382
:1005F00052018091000190910101909343018093F9
:1006000042010895FC01178210861186128612821B
:100610001382148215821386108A16820895CF934E
:10062000DF93EC018B85823051F130F4882361F047
:10063000813009F44FC00FC19E81833009F49CC002
:10064000843009F4EAC007C1662371F069E671E0FD
:1006500088E292E00E94640B1F82188619861A862F
:1006600081E08E8382E021C04F81588569857A853B
:10067000413157426105710508F052C143C1611112
:1006800016C064E571E088E292E00E94640B1E826D
:100690004F81588569857A854037574161057105D5
:1006A00018F01F868AE001C081E08B872BC14F8143
:1006B000588569857A85403757416105710509F08C
:1006C00021C141E757E160E070E04F8358876987B7
:1006D0007A8700C19E8191112DC0662309F412C151
:1006E0008E8381E04F81588569857A8540375741EF
:1006F0006105710508F480E0888B6BE471E088E2A5
:1007000092E00E943B0B4F81588569857A857695EA
:100710006795579547952AE030E088E292E00E947D
:10072000CF0B8889882319F069E371E07FC066E206
:1007300071E07CC06111E6C01E821F861F82188690
:1007400019861A861A821B821C821D828889882338
:1007500011F080E001C083E08B876DE171E088E2F9
:1007600092E00E943B0B8889882319F061E171E0D7
:100770005DC065E071E05AC091112DC0662309F497
:10078000C1C081E08E834F81588569857A85403765
:1007900057416105710508F480E0888B6CEF70E0CB
:1007A00088E292E00E943B0B4F81588569857A85EB
:1007B00076956795579547952AE030E088E292E074
:1007C0000E94CF0B8889882319F06AEE70E02EC052
:1007D00065ED70E02BC0611195C01E821F861F82DF
:1007E000188619861A861A821B821C821D828889A5
:1007F000882311F080E001C084E08B876CEC70E00E
:1008000088E292E00E943B0B8889882319F060EC13
:1008100070E00CC062EB70E009C091110CC066235F
:1008200009F470C081E08E836AE970E088E292E0AA
:100830000E94640B67C0611165C01E821F861F8203
:10084000188619861A861A821B821C821D821B86B4
:1008500066E870E0EBCF8E81813091F018F0823045
:10086000D9F14DC0662309F44DC01F821886198640
:100870001A861A821B821C821D8281E08E8342C0EE
:10088000611115C08F85FE01E80FF11D848590E090
:1008900001966AE170E00E94C00C84871F8218866E
:1008A00019861A861A821B821C821D822AC04F81D9
:1008B000588569857A85403D57406105710510F17D
:1008C00048EE53E060E070E04F83588769877A878D
:1008D00082E08E838CE025C0611114C01F821886CF
:1008E00019861A861A821B821C821D821E828F859F
:1008F000823011F41B8615C08F5F8F870FC0611186
:1009000001C01E824F81588569857A854F5F5F4F90
:100910006F4F7F4F4F83588769877A8780E001C088
:1009200083E0DF91CF9108950F931F93CF93DF93CF
:10093000EC018B01CB010E94100D8C87C801019640
:100940000E94100D8D87C80102960E94100D8E879F
:10095000DF91CF911F910F910895EF92FF920F9326
:100960001F93CF93DF931F92CDB7DEB77C01FC01BD
:1009700000811181C80169830E94100D6981681787
:1009800019F0C8010E94180DC7010F90DF91CF9197
:100990001F910F91FF90EF900895EF92FF920F93A8
:1009A0001F93CF93DF9300D0CDB7DEB78C017B01CF
:1009B000FC016485FA82E982CE0101960E94AD04B1
:1009C000F8016585C70101969A838983CE01019656
:1009D0000E94AD04F8016685F2E0EF0EF11CFA8288
:1009E000E982CE0101960E94AD040F900F90DF9135
:1009F000CF911F910F91FF90EF900895CF93DF93C8
:100A0000A82FB0E0E6E0B595A795EA95E1F78F73DA
:100A100090E0FC01EE0FFF1FE80FF91FEE57FE4FAD
:100A2000E491F0E00A2E02C0F595E7950A94E2F70A
:100A3000EB01E883FC01EE0FFF1FE80FF91FED57F4
:100A4000FE4FE491F0E00A2E02C0F595E7950A9476
:100A5000E2F7EA01E883FC01EE0FFF1FE80FF91F40
:100A6000EC57FE4FE491F0E002C0F595E795AA95AA
:100A7000E2F7D901EC93DF91CF910895CF92DF9205
:100A8000EF92FF920F931F93CF93DF93EC016B01D3
:100A90007A0189018B85833020F4813008F467C0A6
:100AA00007C08430C9F1D8F08A3009F452C05FC061
:100AB0008A819B81AC81BD81883C9105A105B105EE
:100AC00008F447C08F8590E0019663E070E00E94D3
:100AD000C00C8F871A821B821C821D823AC08A81B9
:100AE0009B81AC81BD814497A105B10560F08F85E4
:100AF00090E0019663E070E00E94C00C8F871A823C
:100B00001B821C821D828A819B81AC81BD810297E0
:100B1000A105B10560F51DC08A819B81AC81BD81B5
:100B200088359240A105B10560F08F8590E001966F
:100B300063E070E00E94C00C8F871A821B821C82C7
:100B40001D828A819B81AC81BD814497A105B1053D
:100B500070F48F85FE01E80FF11D29E531E04AE5CB
:100B600051E06BE571E084850E94FE0406C010929E
:100B70005B0110925A01109259018A819B81AC81CC
:100B8000BD810196A11DB11D8A839B83AC83BD836A
:100B900080915B01F601808380915A01F701808387
:100BA00080915901F8018083DF91CF911F910F91BE
:100BB000FF90EF90DF90CF90089580918B0190E0AF
:100BC00020918C01821B9109089520918C018091C4
:100BD0008B01281750F4E22FF0E0E357FE4F80819D
:100BE00090E02F5F20938C0108958FEF9FEF089581
:100BF000E0918C0180918B01E81730F4F0E0E3572D
:100C0000FE4F808190E008958FEF9FEF0895089543
:100C1000CF92DF92EF92FF920F931F93CF93DF93C8
:100C20007C01CB018A0120916801222389F0EB012C
:100C30006B01C40ED51ECC15DD0569F06991D70195
:100C4000ED91FC910190F081E02DC7010995F3CF62
:100C5000642F0E947806C801DF91CF911F910F91F8
:100C6000FF90EF90DF90CF900895CF93DF931F9286
:100C7000CDB7DEB76983209168012223D1F020919E
:100C80006901203240F021E030E0FC01338322830F
:100C900080E090E015C080916A01E82FF0E0E5590E
:100CA000FE4F998190838F5F80936A0180936901E1
:100CB00005C061E0CE0101960E94780681E090E0D7
:100CC0000F90DF91CF910895FC011382128248EEBC
:100CD00053E060E070E0448355836683778385E169
:100CE00091E09183808308958CE591E00C946406F3
:100CF000613298F420911A02243089F46093CF0174
:100D0000FC0181ED91E0DC012A2F281B261718F445
:100D100021912D93F9CF80E0089581E0089582E03C
:100D2000089585ED8093BC008091BC0084FDFCCFCC
:100D300010921A02089585EC8093BC0010921A025A
:100D400008951F920F920FB60F9211242F933F9385
:100D50004F935F936F937F938F939F93AF93BF93C3
:100D6000EF93FF938091B900887F803609F49CC08F
:100D700068F5883209F45BC090F4803109F454C0FE
:100D800038F4882309F4F5C0883009F44DC0F5C063
:100D9000883109F44CC0803209F45DC0EEC0803463
:100DA00009F468C048F4803309F455C0883309F069
:100DB000E4C08093AD01A8C0803509F44FC08835E8
:100DC00009F45DC0883409F0D8C0D5C0883909F469
:100DD000C6C0A8F4883709F467C038F4883609F427
:100DE00063C0803709F460C0C8C0883809F4B7C050
:100DF000803909F45FC0803809F0BFC05BC0803B18
:100E000009F485C038F4803A09F466C0883A09F4D8
:100E10007EC0B3C0803C09F4A6C0883C09F4A3C0DE
:100E2000883B09F489C0A9C08091190210C0909133
:100E3000F2018091F101981770F5E091F20181E0E3
:100E40008E0F8093F201F0E0ED50FE4F8081809391
:100E5000BB0085EC85C08093AD018DC0E091F201AF
:100E600081E08E0F8093F2018091BB00F0E0ED50A5
:100E7000FE4F80839091F2018091F1016DC0E0916D
:100E8000F20181E08E0F8093F2018091BB00F0E0CF
:100E9000ED50FE4F80838091180281116CC081E07B
:100EA0008093170284EA60C083E080931A02109254
:100EB000AE01CFCF8091AE01803208F050C0E091FA
:100EC000AE0181E08E0F8093AE018091BB00F0E017
:100ED000E155FE4F8083BDCF8091AE01803230F46A
:100EE000E091AE01F0E0E155FE4F10820E949106C4
:100EF0006091AE0170E0E0911302F09114028FEA6C
:100F000091E009951092AE010E949B0636C084E0E4
:100F100080931A021092D0011092CF01E091150235
:100F2000F091160209958091CF01811105C081E0F1
:100F30008093CF011092D101E091D00181E08E0F1A
:100F40008093D001F0E0EF52FE4F80818093BB0090
:100F50009091D0018091CF01981708F47ACF85E85D
:100F60008093BC000AC085EC8093BC0010921A02EA
:100F700004C01092AD010E949106FF91EF91BF91C4
:100F8000AF919F918F917F916F915F914F913F9121
:100F90002F910F900FBE0F901F9018958230E8F49C
:100FA000E82FF0E0EE0FFF1FE55EFD4F71836083D9
:100FB000813041F0809169008C7F842B809369009F
:100FC000E89A089580916900440F551F440F551FFA
:100FD000837F842B80936900E99A0895823068F4B6
:100FE000813011F0E89801C0E998E82FF0E0EE0FA9
:100FF000FF1FE55EFD4F1182108208951F920F9230
:101000000FB60F9211242F933F934F935F936F93DB
:101010007F938F939F93AF93BF93EF93FF938091B1
:101020001B0290911C02892B29F0E0911B02F09188
:101030001C020995FF91EF91BF91AF919F918F9104
:101040007F916F915F914F913F912F910F900FBEC4
:101050000F901F9018951F920F920FB60F921124A8
:101060002F933F934F935F936F937F938F939F93B0
:10107000AF93BF93EF93FF9380911D0290911E0257
:10108000892B29F0E0911D02F0911E020995FF9134
:10109000EF91BF91AF919F918F917F916F915F91F0
:1010A0004F913F912F910F900FBE0F901F90189569
:1010B0001F920F920FB60F9211242F933F938F938D
:1010C0009F93AF93BF938091200290912102A091B2
:1010D0002202B091230230911F0223E0230F2D370B
:1010E00020F40196A11DB11D05C026E8230F02962C
:1010F000A11DB11D20931F02809320029093210215
:10110000A0932202B09323028091240290912502A1
:10111000A0912602B09127020196A11DB11D8093D6
:10112000240290932502A0932602B0932702BF9138
:10113000AF919F918F913F912F910F900FBE0F9084
:101140001F9018953FB7F894809124029091250242
:10115000A0912602B091270226B5A89B05C02F3F7B
:1011600019F00196A11DB11D3FBF6627782F892F69
:101170009A2F620F711D811D911D42E0660F771F2E
:10118000881F991F4A95D1F70895CF92DF92EF9269
:10119000FF92CF93DF936B017C010E94A208EB01C9
:1011A000C114D104E104F10489F00E94DC0B0E9417
:1011B000A2086C1B7D0B683E734090F381E0C81A57
:1011C000D108E108F108C851DC4FEACFDF91CF9197
:1011D000FF90EF90DF90CF900895789484B582606F
:1011E00084BD84B5816084BD85B5826085BD85B5CB
:1011F000816085BDEEE6F0E0808181608083E1E87A
:10120000F0E01082808182608083808181608083B1
:10121000E0E8F0E0808181608083E1EBF0E08081B4
:1012200084608083E0EBF0E0808181608083EAE786
:10123000F0E080818460808380818260808380810F
:10124000816080838081806880831092C1000895CE
:101250001F93CF93DF93182FEB0161E00E94B00939
:10126000209711F460E004C0CF3FD10539F461E06C
:10127000812FDF91CF911F910C94E909E12FF0E0CC
:10128000E053FE4FE491E330F9F048F4E130B9F077
:10129000E230A1F584B5806284BDC8BD34C0E730BA
:1012A000E9F0E83019F1E43049F58091800080627E
:1012B00080938000D0938B00C0938A0024C084B5B3
:1012C000806884BDC7BD1FC0809180008068809306
:1012D0008000D0938900C093880015C08091B00031
:1012E00080688093B000C093B3000DC08091B000BF
:1012F00080628093B000C093B40005C0C038D105AF
:101300000CF0B5CFAFCFDF91CF911F91089583300F
:1013100081F028F4813099F08230A1F0089587306F
:10132000A9F08830B9F08430D1F4809180008F7DAD
:1013300003C0809180008F7780938000089584B5EA
:101340008F7702C084B58F7D84BD08958091B000F1
:101350008F7703C08091B0008F7D8093B000089597
:10136000CF93DF9390E0FC01EC51FE4F2491FC0100
:10137000E850FE4F8491882349F190E0880F991F2F
:10138000FC01E05EFD4FA591B4918A5E9D4FFC018A
:10139000C591D4919FB7611108C0F8948C912095A4
:1013A00082238C93888182230AC0623051F4F8949E
:1013B0008C91322F309583238C938881822B888364
:1013C00004C0F8948C91822B8C939FBFDF91CF91B6
:1013D00008950F931F93CF93DF931F92CDB7DEB77E
:1013E000282F30E0F901E053FE4F8491F901EC51D0
:1013F000FE4F1491F901E850FE4F04910023C9F00B
:10140000882321F069830E9487096981E02FF0E039
:10141000EE0FFF1FEA5EFD4FA591B4919FB7F894C0
:101420008C91611103C01095812301C0812B8C9395
:101430009FBF0F90DF91CF911F910F910895CF9390
:10144000DF93282F30E0F901E053FE4F8491F9013A
:10145000EC51FE4FD491F901E850FE4FC491CC23DA
:1014600091F081110E948709EC2FF0E0EE0FFF1F31
:10147000E45FFD4FA591B4912C912D2381E090E084
:1014800021F480E002C080E090E0DF91CF910895E8
:101490001F920F920FB60F9211242F938F939F9349
:1014A000EF93FF93E0913802F09139028081E0914F
:1014B0003E02F0913F0282FD12C090818091410274
:1014C0008F5F8F7320914202821751F0E0914102A9
:1014D000F0E0E85DFD4F958F8093410201C080816F
:1014E000FF91EF919F918F912F910F900FBE0F90D1
:1014F0001F9018951F920F920FB60F9211242F93E1
:101500003F934F935F936F937F938F939F93AF938B
:10151000BF93EF93FF9388E292E00E94180CFF9133
:10152000EF91BF91AF919F918F917F916F915F915B
:101530004F913F912F910F900FBE0F901F901895D4
:1015400088E292E00E94DD0B21E0892B09F420E083
:10155000822F089510922B0210922A0288EE93E0B7
:10156000A0E0B0E080932C0290932D02A0932E0275
:10157000B0932F0286E391E0909329028093280292
:1015800085EC90E0909335028093340284EC90E0F7
:10159000909337028093360280EC90E0909339026A
:1015A0008093380281EC90E090933B0280933A0262
:1015B00082EC90E090933D0280933C0286EC90E0B8
:1015C00090933F0280933E02109241021092420299
:1015D0001092430210924402089508950E94ED086B
:1015E0000E94ED0A0E944801CAE0DCE00E949A02D3
:1015F0002097E1F30E940A0CF9CFCF92DF92EF928D
:10160000FF920F931F93CF93DF936C017A01EB014D
:10161000E60EF71E00E010E0CE15DF0561F06991DF
:10162000D601ED91FC910190F081E02DC601099564
:10163000080F191FF1CFC801DF91CF911F910F91B2
:10164000FF90EF90DF90CF9008956115710581F0C4
:10165000DB010D900020E9F7AD0141505109461B17
:10166000570BDC01ED91FC910280F381E02D099490
:1016700080E090E00895EF92FF920F931F93CF9335
:10168000DF938C01FB01C0E0D0E064917F018FEF1C
:10169000E81AF80A662361F0D801ED91FC910190F7
:1016A000F081E02DC8010995C80FD91FF701EDCFD2
:1016B000CE01DF91CF911F910F91FF90EF90089590
:1016C00061E271E00C94250B0F931F93CF93DF938E
:1016D000EC010E943B0B8C01CE010E94600B800F3D
:1016E000911FDF91CF911F910F9108958F929F923B
:1016F000AF92BF92CF92DF92EF92FF920F931F9320
:10170000CF93DF93CDB7DEB7A1970FB6F894DEBFC6
:101710000FBECDBF7C01C42EE52FCB01D22E19A266
:1017200021E02D1510F02AE0D22E8E010F5D1F4F03
:101730008D2C912CA12CB12C6C2D7E2FA501940108
:101740000E94D40C8C2DD29E8019112401501109B5
:101750008A3014F4805D01C0895CF8018083211512
:1017600031054105510521F0C22EE32FCA01E4CF16
:10177000B801C7010E94250BA1960FB6F894DEBFF1
:101780000FBECDBFDF91CF911F910F91FF90EF90D2
:10179000DF90CF90BF90AF909F908F9008952115CC
:1017A000310541F4DC01ED91FC910190F081E02DD7
:1017B000642F09940C94760B0895FC01818D228D81
:1017C00090E0805C9F4F821B91098F739927089549
:1017D000FC01918D828D981731F0828DE80FF11DFB
:1017E000858D90E008958FEF9FEF0895FC01918D16
:1017F000828D981761F0828DDF01A80FB11D5D9673
:101800008C91928D9F5F9F73928F90E008958FEFE0
:101810009FEF089580EA9AE0892B49F080E090E0FC
:10182000892B29F00E94A00A81110C9400000895D0
:10183000FC01848DDF01A80FB11DA35ABF4F2C916D
:10184000848D90E001968F739927848FA689B7893C
:101850002C93A089B1898C9180648C93938D848D15
:10186000981306C00288F389E02D80818F7D8083E4
:101870000895CF93DF93EC01888D8823C9F0EA891E
:10188000FB89808185FD05C0A889B9898C9186FD79
:101890000FC00FB607FCF5CF808185FFF2CFA88976
:1018A000B9898C9185FFEDCFCE010E94180CE7CF4E
:1018B000DF91CF910895CF92DF92FF920F931F9304
:1018C000CF93DF931F92CDB7DEB76C0181E0D601D5
:1018D00058968C9358975B969C915B975C968C91ED
:1018E0005C97981307C05096ED91FC9151978081B9
:1018F00085FD2EC0F601038D10E00F5F1F4F0F73A3
:101900001127F02EF601848DF81211C00FB607FCD6
:10191000F9CFD6015096ED91FC915197808185FFCA
:10192000F1CFC60169830E94180C6981EBCF838DCA
:10193000E80FF11DE35AFF4F6083D6015B960C93CD
:101940005B975296ED91FC915397808180620CC019
:10195000D6015696ED91FC91579760835096ED9184
:10196000FC91519780818064808381E090E00F90AA
:10197000DF91CF911F910F91FF90DF90CF9008954D
:1019800097FB072E16F4009407D077FD09D00E942C
:10199000FC0C07FC05D03EF4909581959F4F08956F
:1019A000709561957F4F0895A1E21A2EAA1BBB1B6B
:1019B000FD010DC0AA1FBB1FEE1FFF1FA217B3071B
:1019C000E407F50720F0A21BB30BE40BF50B661F31
:1019D000771F881F991F1A9469F7609570958095F5
:1019E00090959B01AC01BD01CF010895EE0FFF1F43
:1019F0000590F491E02D0994AA1BBB1B51E107C08F
:101A0000AA1FBB1FA617B70710F0A61BB70B881F8E
:101A1000991F5A95A9F780959095BC01CD0108951D
:101A2000F999FECF92BD81BDF89A992780B50895A6
:101A3000262FF999FECF1FBA92BD81BD20BD0FB6EA
:101A4000F894FA9AF99A0FBE01960895F894FFCF88
:101A500044010A000000003E0502030F039404CD78
:101A6000040000000035060806DD05E505F8050759
:101A7000060D0A006E616E00696E66006F76660084
:101A80002E00000000005B0CFD0ADD0BF60BE80BDE
:021A9000390C0F
:00000001FF
