:100000000C9424010C948B080C94B8080C944C01AB
:100010000C944C010C944C010C945F030C944C0117
:100020000C944C010C944C010C944C010C944C011C
:100030000C944C010C944C010C944C010C944C010C
:100040000C94E5080C944C010C941A0C0C944C0C78
:100050000C944C010C944C010C944C010C944C01EC
:100060000C942E070C944C0182029502B302B30249
:10007000B302B302B302B30297029A029D02A10235
:10008000A402A802AD0272656C65617365642C20E0
:10009000676F20746F206F6666007072657373659A
:1000A000642C2077696C6C20676F20746F206F66FA
:1000B00066002C20676F20746F20626C696E6B0085
:1000C0002C20676F20746F206F66660072656C6508
:1000D00061736564006D732C2077696C6C20676FA9
:1000E00020746F20626C696E6B006D732C207769D1
:1000F0006C6C207475726E206F666600707265732A
:1001000073656420002C20676F20746F206C6F77FC
:10011000002C20676F20746F206F66660072656C1C
:100120006561736564006D732C2077696C6C206762
:100130006F20746F206C6F77006D732C2077696C63
:100140006C207475726E206F6666007072657373D2
:100150006564200072656C65617365642C20676F4F
:1001600020746F20686967680064656C617920722B
:100170006561636865642C20736C656570696E6782
:1001800000707265737365642C20676F20746F2034
:10019000686967682068656C6400FF0000FC4000C7
:1001A000F88000F4C000F0F000C0F40080F80040D7
:1001B000FC0000FF0000FC4000F88000F4C000F0EC
:1001C000F000C0F40080F80040FC0000FF4000FC9C
:1001D0008000F8C000F4F000F0F400C0F80080FCEB
:1001E0000040FFFFFF0000000000000800020100C7
:1001F00000030407000000000000000001020408E2
:100200001020408001020408102001020408102080
:1002100004040404040404040202020202020303AC
:100220000303030300000000230026002900000050
:100230000000250028002B000000000024002700FB
:100240002A00E30201077C0C11241FBECFEFD8E087
:10025000DEBFCDBF11E0A0E0B1E0EEE2FCE102C004
:1002600005900D92A234B107D9F722E0A2E4B1E0E3
:1002700001C01D92A63CB207E1F712E0C8E4D2E04B
:1002800004C02297FE010E94E70DC234D107C9F7CE
:100290000E94C00C0C94150E0C940000089526E0EA
:1002A00040E051EE60E070E089E292E00E94B80B1D
:1002B00061E089E00E943D0A61E086E00E943D0A1B
:1002C00061E085E00E943D0A60E082E00E943D0A14
:1002D00061E081E10E943D0A42E050E06EE471E09D
:1002E00080E00E945B088EEF93E00E94FF0D882360
:1002F00079F060E08EEF93E00E94070E20E030E09E
:1003000040E050E06AE070E089E591E00E941C0363
:1003100080E00E947B088FEF93E00E94FF0DA09188
:100320004201B0914301ED91FC911197833699F010
:100330000084F185E02D6CEE73E0CD0109958FEF1F
:1003400093E00E94FF0D833669F063E68FEF93E040
:100350000E94070E07C00680F781E02D6CEE73E067
:10036000CD01099561E081E10E94760A8091420108
:1003700090914301DC01ED91FC910280F381E02D2D
:100380000995F89410927A0085B5887F816085BDC3
:1003900080918100887F816080938100789468E2F9
:1003A00070E080E090E00E9452090E942F09609363
:1003B0005501709356018093570190935801089509
:1003C000FF920F931F93CF93DF93D82FC62FF42E56
:1003D0000E942F090091550110915601209157015B
:1003E00030915801601B710B820B930B61157D4797
:1003F0008105910568F30E942F0960935501709360
:10040000560180935701909358016D2F70E089E059
:100410000E94B5096C2F70E086E00E94B5096F2D2F
:1004200070E085E0DF91CF911F910F91FF900C94C8
:10043000B509EF92FF920F931F93CF93DF93182F7D
:10044000062FF42EE22ED0E0DE1589F0C0E0C4368F
:1004500020F44F2D602F812F03C040E060E080E04A
:100460000E94E001CF5FC83C91F7DF5FEDCFDF91E5
:10047000CF911F910F91FF90EF90089540E060E0C1
:1004800080E00E94E00160E081E10E94760A60EA7B
:100490007FE080E090E00E94520961E08EEF93E0FF
:1004A0000E94070E60EA7FE080E090E00E9452091F
:1004B00028E088E190E00FB6F894A895809360005A
:1004C0000FBE2093600061E081E10C94760AA09158
:1004D0004201B0914301ED91FC9111970480F581A7
:1004E000E02D682FCD010995992787FD9095A92FBB
:1004F000B92FFC013297EF30F105A8F5EC5CFF4F06
:100500000C94E50D25E040E860E880E80E941902BF
:100510008091420190914301DC01ED91FC910084B6
:10052000F185E02D6CEE73E009940C943E0225E019
:1005300040E805C025E040E012C025E040E060E86A
:100540000FC025E040E002C025E040E860E803C0BD
:1005500025E040E860E080E004C025E040E860E09D
:1005600080E80C9419020895CF93DF9300D01F9276
:10057000CDB7DEB782E00E94AC0A21E0892B09F0FA
:1005800020E0822F0E9467028091420190914301F6
:10059000DC01ED91FC910190F081E02D9E012F5F37
:1005A0003F4FAE014E5F5F4FBE016D5F7F4F0995BC
:1005B00049816A818B810E94E0010F900F900F901A
:1005C000DF91CF9108950E942F0960935501709398
:1005D0005601809357019093580110924601109252
:1005E0004701109248011092490110924A0186E099
:1005F00091E0909345018093440110924B01109239
:100600004C0110924D0110924E0110924F01109228
:100610005301109254011092500188E080935101CF
:1006200080E18093520180910001909101019093AB
:1006300043018093420108954115510529F48091A9
:100640007A008F7780937A006A307105B1F063FF8A
:1006500002C088E201C088E06770682B88E190E002
:100660000FB6F894A895809360000FBE6093600069
:100670008091600080648093600083B7817F846094
:1006800083BF232B51F4F89483B7816083BF85B770
:10069000806685BF8F7D85BF04C0F89483B7816075
:1006A00083BF7894889583B78E7F83BF7894452BDA
:1006B00029F480917A00806880937A0008951F92CF
:1006C0000F920FB60F9211248F9388E10FB6F89412
:1006D00080936000109260000FBE8F910F900FBE4C
:1006E0000F901F901895FC011782108611861286B4
:1006F00012821382148215821386108A168208953C
:10070000CF92DF92EF92FF920F931F93CF93DF93DD
:10071000EC016B017A01890110925C0110925B017E
:1007200010925A012B852330B9F148F48A819B81BC
:10073000AC81BD812130E9F0223041F077C0243016
:1007400009F447C02A3009F464C070C0883C9105A0
:10075000A105B10508F45DC08F8590E0019663E0C6
:1007600070E00E94AF0D8F871A821B821C821D824F
:1007700050C0883C9105A105B10508F447C08F859C
:1007800090E0019663E070E00E94AF0D8F871A82BF
:100790001B821C821D823AC08A819B81AC81BD81F3
:1007A0004497A105B10560F08F8590E0019663E064
:1007B00070E00E94AF0D8F871A821B821C821D82FF
:1007C0008A819B81AC81BD810297A105B10570F53D
:1007D0001DC08A819B81AC81BD8188359240A10575
:1007E000B10560F08F8590E0019663E070E00E94B3
:1007F000AF0D8F871A821B821C821D828A819B818A
:10080000AC81BD814497A105B10580F48E81811131
:100810000DC08F85FE01E80FF11D2AE531E04BE5A3
:1008200051E06CE571E084850E942A068A819B81F3
:10083000AC81BD810196A11DB11D8A839B83AC83D0
:10084000BD8380915C01F601808380915B01F7019B
:10085000808380915A01F8018083DF91CF911F91AD
:100860000F91FF90EF90DF90CF900895CF93DF939B
:10087000EC018B85823089F130F4882361F081307E
:1008800009F456C016C19E81833009F4A3C0843098
:1008900009F4F1C00EC1662371F061E871E089E2EC
:1008A00092E00E94360D1F82188619861A8681E012
:1008B0008E8382E028C04F81588569857A85493EBC
:1008C00053406105710508F44BC169E671E089E2A6
:1008D00092E00E94360D83E050C1611116C064E5BC
:1008E00071E089E292E00E94360D1E824F815885A8
:1008F00069857A85403757416105710518F01F8673
:100900008AE001C081E08B872BC14F8158856985C2
:100910007A85403757416105710509F021C141E7EA
:1009200057E160E070E04F83588769877A8700C19C
:100930009E8191112DC0662309F412C18E8381E03E
:100940004F81588569857A85403757416105710522
:1009500008F480E0888B6BE471E089E292E00E9409
:100960000D0D4F81588569857A85769567955795E0
:1009700047952AE030E089E292E00E94A10D888943
:10098000882319F069E371E07FC066E271E07CC002
:100990006111E6C01E821F861F82188619861A867C
:1009A0001A821B821C821D828889882311F080E0B4
:1009B00001C083E08B876DE171E089E292E00E94E3
:1009C0000D0D8889882319F061E171E05DC065E053
:1009D00071E05AC091112DC0662309F4C1C081E0B5
:1009E0008E834F81588569857A85403757416105E7
:1009F000710508F480E0888B6CEF70E089E292E08A
:100A00000E940D0D4F81588569857A857695679589
:100A1000579547952AE030E089E292E00E94A10DC7
:100A20008889882319F06AEE70E02EC065ED70E0C9
:100A30002BC0611195C01E821F861F8218861986E1
:100A40001A861A821B821C821D828889882311F0D3
:100A500080E001C084E08B876CEC70E089E292E07A
:100A60000E940D0D8889882319F060EC70E00CC09D
:100A700062EB70E009C091110CC0662309F470C0EC
:100A800081E08E836AE970E089E292E00E94360D8F
:100A900067C0611165C01E821F861F821886198675
:100AA0001A861A821B821C821D821B8666E870E0F1
:100AB000EBCF8E81813091F018F08230D9F14DC0AA
:100AC000662309F44DC01F82188619861A861A8279
:100AD0001B821C821D8281E08E8342C0611115C081
:100AE0008F85FE01E80FF11D848590E001966AE193
:100AF00070E00E94AF0D84871F82188619861A86BF
:100B00001A821B821C821D822AC04F8158856985EA
:100B10007A85403D57406105710510F148EE53E07C
:100B200060E070E04F83588769877A8782E08E8320
:100B30008CE023C0611114C01F82188619861A86A2
:100B40001A821B821C821D821E828F85823011F4C4
:100B50001B8613C08F5F8F870FC0611101C01E827B
:100B60004F81588569857A854F5F5F4F6F4F7F4F03
:100B70004F83588769877A8780E0DF91CF91089506
:100B80000F931F93CF93DF93EC018B01CB010E9456
:100B9000FF0D8C87C80101960E94FF0D8D87C8014B
:100BA00002960E94FF0D8E87DF91CF911F910F91CA
:100BB0000895EF92FF920F931F93CF93DF931F92AD
:100BC000CDB7DEB77C01FC0100811181C8016983CA
:100BD0000E94FF0D6981681719F0C8010E94070E75
:100BE000C7010F90DF91CF911F910F91FF90EF9070
:100BF0000895EF92FF920F931F93CF93DF9300D04E
:100C0000CDB7DEB78C017B01FC016485FA82E982F5
:100C1000CE0101960E94D905F8016585C7010196AC
:100C20009A838983CE0101960E94D905F8016685D1
:100C3000F2E0EF0EF11CFA82E982CE0101960E94E9
:100C4000D9050F900F90DF91CF911F910F91FF90D9
:100C5000EF900895CF93DF93A82FB0E096E0B5957D
:100C6000A7959A95E1F78F7390E0FC01EE0FFF1FB7
:100C7000E80FF91FE656FE4FE491F0E00A2E02C09D
:100C8000F595E7950A94E2F7EB01E883FC01EE0F96
:100C9000FF1FE80FF91FE556FE4FE491F0E00A2E22
:100CA00002C0F595E7950A94E2F7EA01E883FC01B2
:100CB000EE0FFF1FE80FF91FE456FE4FE491F0E03E
:100CC00002C0F595E795AA95E2F7D901EC93DF917B
:100CD000CF91089580918C0190E020918D01821B2D
:100CE0009109089520918D0180918C01281750F46D
:100CF000E22FF0E0E257FE4F808190E02F5F2093DB
:100D00008D0108958FEF9FEF0895E0918D018091FF
:100D10008C01E81730F4F0E0E257FE4F808190E05C
:100D200008958FEF9FEF08950895CF92DF92EF928D
:100D3000FF920F931F93CF93DF937C01CB018A0126
:100D400020916901222389F0EB016B01C40ED51EAD
:100D5000CC15DD0569F06991D701ED91FC91019009
:100D6000F081E02DC7010995F3CF642F0E9405079C
:100D7000C801DF91CF911F910F91FF90EF90DF900D
:100D8000CF900895CF93DF931F92CDB7DEB76983DD
:100D9000209169012223D1F020916A01203240F094
:100DA00021E030E0FC013383228380E090E015C035
:100DB00080916B01E82FF0E0E459FE4F9981908318
:100DC0008F5F80936B0180936A0105C061E0CE0163
:100DD00001960E94050781E090E00F90DF91CF918E
:100DE0000895FC011382128248EE53E060E070E047
:100DF000448355836683778384E191E09183808384
:100E000008958DE591E00C94F106613298F42091FB
:100E10001B02243089F46093D001FC0182ED91E043
:100E2000DC012A2F281B261718F421912D93F9CFC6
:100E300080E0089581E0089582E0089585ED809333
:100E4000BC008091BC0084FDFCCF10921B02089571
:100E500085EC8093BC0010921B0208951F920F92A4
:100E60000FB60F9211242F933F934F935F936F937D
:100E70007F938F939F93AF93BF93EF93FF93809153
:100E8000B900887F803609F49CC068F5883209F47F
:100E90005BC090F4803109F454C038F4882309F41D
:100EA000F5C0883009F44DC0F5C0883109F44CC054
:100EB000803209F45DC0EEC0803409F468C048F4A3
:100EC000803309F455C0883309F0E4C08093AE0143
:100ED000A8C0803509F44FC0883509F45DC0883456
:100EE00009F0D8C0D5C0883909F4C6C0A8F488373D
:100EF00009F467C038F4883609F463C0803709F410
:100F000060C0C8C0883809F4B7C0803909F45FC030
:100F1000803809F0BFC05BC0803B09F485C038F45D
:100F2000803A09F466C0883A09F47EC0B3C0803CB8
:100F300009F4A6C0883C09F4A3C0883B09F489C021
:100F4000A9C080911A0210C09091F3018091F20122
:100F5000981770F5E091F30181E08E0F8093F30113
:100F6000F0E0EC50FE4F80818093BB0085EC85C0A3
:100F70008093AE018DC0E091F30181E08E0F8093EC
:100F8000F3018091BB00F0E0EC50FE4F8083909124
:100F9000F3018091F2016DC0E091F30181E08E0FC9
:100FA0008093F3018091BB00F0E0EC50FE4F808312
:100FB0008091190281116CC081E08093180284EA4B
:100FC00060C083E080931B021092AF01CFCF80916D
:100FD000AF01803208F050C0E091AF0181E08E0F88
:100FE0008093AF018091BB00F0E0E055FE4F80831D
:100FF000BDCF8091AF01803230F4E091AF01F0E0DD
:10100000E055FE4F10820E941E076091AF0170E014
:10101000E0911402F091150280EB91E00995109295
:10102000AF010E94280736C084E080931B02109213
:10103000D1011092D001E0911602F09117020995AA
:101040008091D001811105C081E08093D001109280
:10105000D201E091D10181E08E0F8093D101F0E0C7
:10106000EE52FE4F80818093BB009091D101809120
:10107000D001981708F47ACF85E88093BC000AC0A5
:1010800085EC8093BC0010921B0204C01092AE014C
:101090000E941E07FF91EF91BF91AF919F918F9199
:1010A0007F916F915F914F913F912F910F900FBE64
:1010B0000F901F9018958230E8F4E82FF0E0EE0FC3
:1010C000FF1FE45EFD4F71836083813041F08091AA
:1010D00069008C7F842B80936900E89A0895809141
:1010E0006900440F551F440F551F837F842B809345
:1010F0006900E99A0895823068F4813011F0E89827
:1011000001C0E998E82FF0E0EE0FFF1FE45EFD4F0D
:101110001182108208951F920F920FB60F92112420
:101120002F933F934F935F936F937F938F939F93EF
:10113000AF93BF93EF93FF9380911C0290911D0298
:10114000892B29F0E0911C02F0911D020995FF9175
:10115000EF91BF91AF919F918F917F916F915F912F
:101160004F913F912F910F900FBE0F901F901895A8
:101170001F920F920FB60F9211242F933F934F930C
:101180005F936F937F938F939F93AF93BF93EF93EF
:10119000FF9380911E0290911F02892B29F0E0910C
:1011A0001E02F0911F020995FF91EF91BF91AF913F
:1011B0009F918F917F916F915F914F913F912F916F
:1011C0000F900FBE0F901F9018951F920F920FB6A1
:1011D0000F9211242F933F938F939F93AF93BF93BD
:1011E0008091210290912202A0912302B0912402C9
:1011F0003091200223E0230F2D3720F40196A11D0A
:10120000B11D05C026E8230F0296A11DB11D209334
:1012100020028093210290932202A0932302B09394
:1012200024028091250290912602A0912702B0917C
:1012300028020196A11DB11D8093250290932602DC
:10124000A0932702B0932802BF91AF919F918F91F5
:101250003F912F910F900FBE0F901F9018953FB7A1
:10126000F8948091250290912602A0912702B091D6
:10127000280226B5A89B05C02F3F19F00196A11D95
:10128000B11D3FBF6627782F892F9A2F620F711DDE
:10129000811D911D42E0660F771F881F991F4A9597
:1012A000D1F70895CF92DF92EF92FF92CF93DF9321
:1012B0006B017C010E942F09EB01C114D104E104F0
:1012C000F10489F00E94AE0D0E942F096C1B7D0B6A
:1012D000683E734090F381E0C81AD108E108F10834
:1012E000C851DC4FEACFDF91CF91FF90EF90DF90B4
:1012F000CF900895789484B5826084BD84B5816070
:1013000084BD85B5826085BD85B5816085BDEEE60D
:10131000F0E0808181608083E1E8F0E010828081EC
:1013200082608083808181608083E0E8F0E080815A
:1013300081608083E1EBF0E0808184608083E0EB7A
:10134000F0E0808181608083EAE7F0E08081846062
:1013500080838081826080838081816080838081BE
:10136000806880831092C10008951F93CF93DF930C
:10137000182FEB0161E00E943D0A209711F460E014
:1013800004C0CF3FD10539F461E0812FDF91CF91C7
:101390001F910C94760AE12FF0E0E851FE4FE491A2
:1013A000E330F9F048F4E130B9F0E230A1F584B56A
:1013B000806284BDC8BD34C0E730E9F0E83019F17F
:1013C000E43049F580918000806280938000D09362
:1013D0008B00C0938A0024C084B5806884BDC7BDDB
:1013E0001FC080918000806880938000D093890026
:1013F000C093880015C08091B00080688093B000D1
:10140000C093B3000DC08091B00080628093B000A3
:10141000C093B40005C0C038D1050CF0B5CFAFCF34
:10142000DF91CF911F910895833081F028F48130AE
:1014300099F08230A1F008958730A9F08830B9F092
:101440008430D1F4809180008F7D03C08091800032
:101450008F7780938000089584B58F7702C084B51C
:101460008F7D84BD08958091B0008F7703C08091F7
:10147000B0008F7D8093B0000895CF93DF9390E00C
:10148000FC01E450FE4F2491FC01E05FFD4F84918C
:10149000882349F190E0880F991FFC01E85CFD4F1B
:1014A000A591B491825D9D4FFC01C591D4919FB7E8
:1014B000611108C0F8948C91209582238C938881C7
:1014C00082230AC0623051F4F8948C91322F309507
:1014D00083238C938881822B888304C0F8948C9119
:1014E000822B8C939FBFDF91CF9108950F931F9311
:1014F000CF93DF931F92CDB7DEB7282F30E0F901ED
:10150000E851FE4F8491F901E450FE4F1491F90126
:10151000E05FFD4F04910023C9F0882321F0698327
:101520000E94140A6981E02FF0E0EE0FFF1FE25DD8
:10153000FD4FA591B4919FB7F8948C91611103C0B0
:101540001095812301C0812B8C939FBF0F90DF9159
:10155000CF911F910F910895CF93DF93282F30E003
:10156000F901E851FE4F8491F901E450FE4FD49106
:10157000F901E05FFD4FC491CC2391F081110E94ED
:10158000140AEC2FF0E0EE0FFF1FEC5DFD4FA5916C
:10159000B4912C912D2381E090E021F480E002C0F1
:1015A00080E090E0DF91CF910895FC01818D228D44
:1015B00090E0805C9F4F821B91098F73992708955B
:1015C000FC01918D828D981731F0828DE80FF11D0D
:1015D000858D90E008958FEF9FEF0895FC01918D28
:1015E000828D981761F0828DDF01A80FB11D5D9685
:1015F0008C91928D9F5F9F73928F90E008958FEFF3
:101600009FEF089582E79CE0892B49F080E090E00D
:10161000892B29F00E94720C81110C94000008950E
:10162000FC01848DDF01A80FB11DA35ABF4F2C917F
:10163000848D90E001968F739927848FA689B7894E
:101640002C93A089B1898C9180648C93938D848D27
:10165000981306C00288F389E02D80818F7D8083F6
:101660000895CF93DF93EC01888D8823C9F0EA8930
:10167000FB89808185FD05C0A889B9898C9186FD8B
:101680000FC00FB607FCF5CF808185FFF2CFA88988
:10169000B9898C9185FFEDCFCE010E94100BE7CF69
:1016A000DF91CF910895CF92DF92FF920F931F9316
:1016B000CF93DF931F92CDB7DEB76C0181E0D601E7
:1016C00058968C9358975B969C915B975C968C91FF
:1016D0005C97981307C05096ED91FC9151978081CB
:1016E00085FD2EC0F601038D10E00F5F1F4F0F73B5
:1016F0001127F02EF601848DF81211C00FB607FCE9
:10170000F9CFD6015096ED91FC915197808185FFDC
:10171000F1CFC60169830E94100B6981EBCF838DE5
:10172000E80FF11DE35AFF4F6083D6015B960C93DF
:101730005B975296ED91FC915397808180620CC02B
:10174000D6015696ED91FC91579760835096ED9196
:10175000FC91519780818064808381E090E00F90BC
:10176000DF91CF911F910F91FF90DF90CF9008955F
:10177000BF92CF92DF92EF92FF92CF93DF93EC0173
:101780006A017B01B22EE889F98982E080834115E4
:1017900081EE580761057105A1F060E079E08DE305
:1017A00090E0A70196010E94C30D21503109410923
:1017B00051095695479537952795211580E13807AA
:1017C00098F0E889F989108260E874E88EE190E089
:1017D000A70196010E94C30D215031094109510909
:1017E0005695479537952795EC85FD853083EE8591
:1017F000FF852083188EEC89FD89B082EA89FB89F8
:10180000808180618083EA89FB8980818860808310
:10181000EA89FB89808180688083EA89FB898081ED
:101820008F7D8083DF91CF91FF90EF90DF90CF90FD
:10183000BF9008951F920F920FB60F9211242F930D
:101840008F939F93EF93FF93E0913902F0913A02C7
:101850008081E0913F02F091400282FD12C09081B0
:10186000809142028F5F8F7320914302821751F063
:10187000E0914202F0E0E75DFD4F958F80934202D8
:1018800001C08081FF91EF919F918F912F910F90D7
:101890000FBE0F901F9018951F920F920FB60F92C8
:1018A00011242F933F934F935F936F937F938F9365
:1018B0009F93AF93BF93EF93FF9389E292E00E94CF
:1018C000100BFF91EF91BF91AF919F918F917F91FD
:1018D0006F915F914F913F912F910F900FBE0F909D
:1018E0001F90189589E292E00E94D50A21E0892B89
:1018F00009F420E0822F089510922C0210922B02FE
:1019000088EE93E0A0E0B0E080932D0290932E0249
:10191000A0932F02B093300284E291E090932A02C8
:101920008093290285EC90E09093360280933502F3
:1019300084EC90E0909338028093370280EC90E042
:1019400090933A028093390281EC90E090933C02AC
:1019500080933B0282EC90E090933E0280933D02A4
:1019600086EC90E09093400280933F0210924202F6
:101970001092430210924402109245020895089575
:101980000E947A090E94BF0C0E944F01C2E0DBE076
:101990000E94B4022097E1F30E94020BF9CFCF928C
:1019A000DF92EF92FF920F931F93CF93DF936C011F
:1019B0007A01EB01E60EF71E00E010E0CE15DF0520
:1019C00061F06991D601ED91FC910190F081E02DDB
:1019D000C6010995080F191FF1CFC801DF91CF91FA
:1019E0001F910F91FF90EF90DF90CF9008956115B8
:1019F000710581F0DB010D900020E9F7AD01415048
:101A00005109461B570BDC01ED91FC910280F381DB
:101A1000E02D099480E090E00895EF92FF920F93FB
:101A20001F93CF93DF938C01FB01C0E0D0E0649162
:101A30007F018FEFE81AF80A662361F0D801ED9173
:101A4000FC910190F081E02DC8010995C80FD91FC4
:101A5000F701EDCFCE01DF91CF911F910F91FF9054
:101A6000EF90089560E371E00C94F70C0F931F93CF
:101A7000CF93DF93EC010E940D0D8C01CE010E94EB
:101A8000320D800F911FDF91CF911F910F9108951B
:101A90008F929F92AF92BF92CF92DF92EF92FF927E
:101AA0000F931F93CF93DF93CDB7DEB7A1970FB6F8
:101AB000F894DEBF0FBECDBF7C01C42EE52FCB0155
:101AC000D22E19A221E02D1510F02AE0D22E8E017F
:101AD0000F5D1F4F8D2C912CA12CB12C6C2D7E2FC6
:101AE000A50194010E94C30D8C2DD29E8019112452
:101AF000015011098A3014F4805D01C0895CF8013D
:101B00008083211531054105510521F0C22EE32FB7
:101B1000CA01E4CFB801C7010E94F70CA1960FB625
:101B2000F894DEBF0FBECDBFDF91CF911F910F9113
:101B3000FF90EF90DF90CF90BF90AF909F908F90ED
:101B400008952115310541F4DC01ED91FC910190DE
:101B5000F081E02D642F09940C94480D089597FBB3
:101B6000072E16F4009407D077FD09D00E94EB0DE4
:101B700007FC05D03EF4909581959F4F0895709590
:101B800061957F4F0895A1E21A2EAA1BBB1BFD0190
:101B90000DC0AA1FBB1FEE1FFF1FA217B307E4074C
:101BA000F50720F0A21BB30BE40BF50B661F771FA4
:101BB000881F991F1A9469F7609570958095909584
:101BC0009B01AC01BD01CF010895EE0FFF1F0590F1
:101BD000F491E02D0994AA1BBB1B51E107C0AA1F79
:101BE000BB1FA617B70710F0A61BB70B881F991FBE
:101BF0005A95A9F780959095BC01CD010895F99962
:101C0000FECF92BD81BDF89A992780B50895262F01
:101C1000F999FECF1FBA92BD81BD20BD0FB6F894D1
:0E1C2000FA9AF99A0FBE01960895F894FFCF34
:101C2E00440100000000800373033604C005F9056B
:101C3E0000000000C20695066A0672068506940626
:101C4E0000000000530BCF0CD50AEE0AE00A310B50
:101C5E000D0A006E616E00696E66006F7666002E6C
:021C6E00000074
:00000001FF
