:100000000C9484000C94040A0C94310A0C94AC00F7
:100010000C94AC000C94AC000C94F1000C94AC006B
:100020000C94AC000C94AC000C94AC000C94AC00A0
:100030000C94AC000C94AC000C94AC000C94AC0090
:100040000C945E0A0C94AC000C94930D0C94C50DAA
:100050000C94AC000C94AC000C94AC000C94AC0070
:100060000C94A7080C94AC002205250528056B0507
:100070006E059305B105C605DC05084AD73B3BCEA6
:10008000016E84BCBFFDC12F3D6C74319ABD568397
:100090003DDA3D00C77F11BED9E4BB4C3E916BAA4F
:1000A000AABE000000803F0000000008000201001E
:1000B0000003040700000000000000000102040823
:1000C00010204080010204081020010204081020C2
:1000D00004040404040404040202020202020303EE
:1000E0000303030300000000230026002900000092
:1000F0000000250028002B0000000000240027003D
:100100002A00F303C507F50D11241FBECFEFD8E079
:10011000DEBFCDBF12E0A0E0B1E0EEE6F3E202C048
:1001200005900D92AC3BB107D9F724E0ACEBB2E0FF
:1001300001C01D92A637B207E1F711E0C8E0D1E097
:1001400004C02297FE010E948711C230D107C9F76F
:100150000E94390E0C94B5110C9400004115510504
:1001600029F480917A008F7780937A006A30710544
:10017000B1F063FF02C088E201C088E06770682BBD
:1001800088E190E00FB6F894A895809360000FBEC8
:10019000609360008091600080648093600083B70A
:1001A000817F846083BF232B51F4F89483B78160EF
:1001B00083BF85B7806685BF8F7D85BF04C0F894F7
:1001C00083B7816083BF7894889583B78E7F83BF20
:1001D0007894452B29F480917A00806880937A0086
:1001E00008951F920F920FB60F9211248F9388E1FA
:1001F0000FB6F89480936000109260000FBE8F914C
:100200000F900FBE0F901F9018950895DC01ED918F
:10021000FC910190F081E02D0994EF92FF920F93F1
:100220001F93CF93DF931F92CDB7DEB77C01FC0104
:1002300000811181C80169830E949F11698168173B
:1002400019F0C8010E94A711C7010F90DF91CF914B
:100250001F910F91FF90EF900895FF920F931F93BE
:10026000CF93DF93D82FC62FF42E0E94A80A0091B7
:1002700008031091090320910A0330910B03601BBE
:10028000710B820B930B61157D478105910568F316
:100290000E94A80A609308037093090380930A03DD
:1002A00090930B036D2F70E089E00E942E0B6C2F52
:1002B00070E086E00E942E0B6F2D70E085E0DF91EC
:1002C000CF911F910F91FF900C942E0BFF920F93E3
:1002D0001F93CF93DF93809107038111E4C0209196
:1002E000BE0230E0409100018091BD0290E0840F99
:1002F000911D281739070CF44DC01092BE02E091F1
:10030000C0026E2F70E026E1E29FF0011124EF5F42
:10031000FE4FA0814091C10250E0228130E02A1BB3
:100320003109249FC001259F900D349F900D112409
:1003300097FD0F96F4E095958795FA95E1F78A0F6A
:100340008093000186E1869FF001879FF00D1124C4
:10035000EF5FFE4F6181238130E0261B3109249F2E
:10036000C001259F900D349F900D112497FD0F968D
:10037000E4E095958795EA95E1F7860F8093BD02B5
:100380008091BF0290E0019663E070E00E944F11FF
:100390008093BF029091BE0280910001981708F0EF
:1003A0007BC08091C002E091BF02F0E0AF01440F3A
:1003B000551FDA01AE0FBF1F082F10E026E1829F04
:1003C000A00DB11D1124AF5FBE4F14968C911497F0
:1003D000C091C102D0E01D966C9170E0681B71095C
:1003E0006C9F90016D9F300D7C9F300D112437FF65
:1003F00002C0215F3F4F64E0359527956A95E1F78C
:10040000820FDA01AE0FBF1F66E1609F9001619F0E
:10041000300D1124A20FB31FAF5FBE4F1596FC9095
:1004200015971E96AC91B0E0AF19B109AC9F900141
:10043000AD9F300DBC9F300D112437FF02C0215FEE
:100440003F4FB90134E0759567953A95E1F76F0D27
:10045000E40FF51F26E1209FA001219F500D1124DC
:10046000E40FF51FEF5FFE4F7681E785F0E0E71BB5
:10047000F109EC9F9001ED9F300DFC9F300D112490
:1004800037FF02C0215F3F4FA90124E055954795F2
:100490002A95E1F7470F03C040E060E080E09F5FEE
:1004A0009093BE0203C040E060E080E0DF91CF9116
:1004B0001F910F91FF900C942D01CF93DF93C0E01B
:1004C000D0E060E0CE010E94A7112196C11584E022
:1004D000D807B9F7DF91CF91089540E060E080E060
:1004E0000E942D0161E08FEF93E00E94A71160E070
:1004F00081E10E94EF0B60E079E180E090E00E94F2
:10050000CB0A28E088E190E00FB6F894A895809394
:1005100060000FBE2093600060E07AEF80E090E022
:100520000C94CB0A90910703913089F028F0923017
:1005300079F1933091F135C0882399F180910403CA
:10054000909105038436910560F181E01EC0811110
:1005500014C08091C00290E0019667E070E00E94B4
:100560004F118093C0021092BF021092BE0284E12C
:10057000809300011092BD0212C0809104039091FB
:100580000503883E934068F082E08093060309C02B
:10059000811107C00E946D0204C0811102C0109237
:1005A00006038091060390910703981739F0809312
:1005B0000703109205031092040308958091040329
:1005C0009091050301969093050380930403089589
:1005D0000F931F93CF93DF93809103036091FE02EB
:1005E0007091FF020091FC021091FD02C091FA028D
:1005F000D091FB02811137C0882777FD8095982F15
:100600000E94A60F20E030E048EA51E40E943C0F2F
:100610006093F6027093F7028093F8029093F902C8
:10062000B801882777FD8095982F0E94A60F20E0BB
:1006300030E048EA51E40E943C0F6093F20270936C
:10064000F3028093F4029093F502BE01882777FDB0
:100650008095982F0E94A60F20E030E048EA51E4F0
:100660000E943C0F36C0882777FD8095982F0E9406
:10067000A60F20E030E040E85AE30E948610609325
:10068000F6027093F7028093F8029093F902B80192
:10069000882777FD8095982F0E94A60F20E030E0F4
:1006A00040E85AE30E9486106093F2027093F302CE
:1006B0008093F4029093F502BE01882777FD809520
:1006C000982F0E94A60F20E030E040E85AE30E94F5
:1006D00086106093EE027093EF028093F002909385
:1006E000F102DF91CF911F910F9108953F924F92A8
:1006F0005F926F927F928F929F92AF92BF92CF92B2
:10070000DF92EF92FF920F931F93CF93DF9340906E
:10071000EA025090EB026090EC027090ED02C09003
:100720000303A2EC8A2EA2E09A2EB2EDEB2EB2E0E9
:10073000FB2E80E8C89E60011124F601E556FE4FAD
:100740006F01E40100E010E0312C5601A00EB11E53
:10075000F5012081318142815381C301B2010E94A0
:100760007B1018166CF0F501E05CFF4F20813181A1
:1007700042815381C301B2010E94380F87FF0DC02F
:10078000F70110822881822F90E0883C91051CF4AB
:1007900081E0820F01C088EC8883F70180818F5F40
:1007A00081937F018D3008F018828991873010F095
:1007B0003C2E38180C5F1F4F0034110531F6309273
:1007C000C102DF91CF911F910F91FF90EF90DF90C9
:1007D000CF90BF90AF909F908F907F906F905F90E1
:1007E0004F903F9008950E94A80A60930803709369
:1007F000090380930A0390930B030895CF93DF932B
:10080000D82FC62F80910303811103C06CE470E0E0
:1008100002C06DE170E08CE093E00E94AD076D2FA7
:100820008CE093E00E944A076C2F8CE093E00E94DA
:100830004A078CE093E0DF91CF910C94C20780913E
:10084000030360E081110AC087E00E94FE0360E0BC
:1008500088E00E94FE0361E087E009C08AE20E940E
:10086000FE0360E08EE00E94FE0369E18AE20C94E0
:10087000FE03CF9380910303811161C06CE470E0AB
:100880008CE093E00E94AD0760E070E08CE093E0C4
:100890000E9406018CE093E00E94C20743E050E012
:1008A0006CE470E08CE093E00E94A0078CE093E0A1
:1008B0000E94F206892B09F4A6C08CE093E00E9406
:1008C000FA06880F991F880F991F282F87FF02C0EB
:1008D00023E0280F25952595822F992787FD909550
:1008E0009093FF028093FE028CE093E00E94FA0650
:1008F000880F991F880F991F282F87FF02C023E0B8
:10090000280F25952595822F992787FD90959093FF
:10091000FD028093FC028CE093E00E94FA06880FAF
:10092000991F880F991F282F87FF02C023E0280FE7
:1009300025952595822F992787FD909560C06DE1BB
:1009400070E08CE093E00E94AD0761E070E08CE025
:1009500093E00E9406018CE093E00E94C20746E00B
:1009600050E06DE170E08CE093E00E94A0078CE025
:1009700093E00E94F206892B09F445C08CE093E0D5
:100980000E94FA06C82F8CE093E00E94FA0624E049
:10099000959587952A95E1F740E050E05C2F842BF0
:1009A000952B9093FF028093FE028CE093E00E94CF
:1009B000FA06C82F8CE093E00E94FA0634E0959581
:1009C00087953A95E1F740E050E05C2F842B952B1A
:1009D0009093FD028093FC028CE093E00E94FA0663
:1009E000C82F8CE093E00E94FA0644E09595879525
:1009F0004A95E1F740E050E05C2F842B952B9093D3
:100A0000FB028093FA02CF9108954F925F926F920A
:100A10007F928F929F92AF92BF92CF92DF92EF928E
:100A2000FF9280910003609102030E944311892F7D
:100A300090E08930910508F0DBC0FC01EC5CFF4FD1
:100A40000C9485110E943904D3C00E94E802D0C0E2
:100A50006091F6027091F7028091F8029091F9028C
:100A60008090F2029090F302A090F402B090F50210
:100A7000C090EE02D090EF02E090F002F090F10210
:100A80009B01AC010E9486102B013C01A501940141
:100A9000C501B4010E9486109B01AC01C301B201E3
:100AA0000E94720E4B015C01A7019601C701B601BD
:100AB0000E9486109B01AC01C501B4010E94720E18
:100AC0000E94ED106093EA027093EB028093EC02B7
:100AD0009093ED028DC00E9476038AC06091F2026D
:100AE0007091F3028091F4029091F502C090EE02B1
:100AF000D090EF02E090F002F090F1029B01AC0187
:100B00000E9486104B015C01A7019601C701B60146
:100B10000E9486109B01AC01C501B4010E94720EB7
:100B20000E94ED1015C02091E6023091E70240913D
:100B3000E8025091E9028091F6029091F702A091AB
:100B4000F802B091F902BC01CD0190580E94E50E67
:100B50006093E6027093E7028093E8029093E902C3
:100B600047C020E030E044E353E46091E602709136
:100B7000E7028091E8029091E9020E9486102BED35
:100B80003FE049E450E40E943C0FE2CF2091EE02A6
:100B90003091EF024091F0025091F1028091F20207
:100BA0009091F302A091F402B091F502BC01CD0145
:100BB00090580E94E50E14C020E030E044E353E476
:100BC0006091E2027091E3028091E4029091E5026B
:100BD0000E9486102BED3FE049E450E40E943C0F58
:100BE0006093E2027093E3028093E4029093E50243
:100BF000809100038F5F8093000390910103891718
:100C000010F010920003FF90EF90DF90CF90BF9014
:100C1000AF909F908F907F906F905F904F900895CE
:100C200082E00E94250C21E0892B09F020E0822F30
:100C30000E9492020E9405050C9466016DE170E02D
:100C40008CE093E00E94AD076DE070E08CE093E0F3
:100C50000E94060160E08CE093E00E94AF0741E053
:100C600050E06DE170E08CE093E00E94A0078CE022
:100C700093E00E94F206892B39F08CE093E00E9409
:100C8000FA068A3441F001C080E091E08A3509F02B
:100C900090E0892F01C081E0809303030895CF93F2
:100CA000DF9300D0CDB7DEB70E945D028EEF93E0F8
:100CB0009A83898364E6CE0101960E940D010E9409
:100CC0001E060E941E06609103038DEF93E09A8337
:100CD0008983CE0101960E940D010F900F90DF9144
:100CE000CF9108958CE093E00E94890726E040E0D0
:100CF00051EE60E070E089ED93E00E94310D61E01B
:100D000089E00E94B60B61E086E00E94B60B61E0CC
:100D100085E00E94B60B60E082E00E94B60B61E0C5
:100D200081E10E94B60B109206031092070342E085
:100D300050E065E071E080E00E94D4098FEF93E01D
:100D40000E949F118823A1F060E08FEF93E00E9442
:100D5000A71120E030E040E050E06AE070E08CEB6A
:100D600092E00E94AE0083E0809306038093070325
:100D700080E00E94F40961E081E10E94EF0B8EEFB8
:100D800093E00E949F11843611F00E944F060E944A
:100D90001E060E941F0480910303811102C091E18D
:100DA00001C094E190930203811102C082E301C06B
:100DB00084E180930103F89485B5887F816085BDC7
:100DC00080918100887F8160809381008091810083
:100DD000886080938100789460E470E080E090E027
:100DE0000C94CB0A80913C0390E020913D03821B40
:100DF0009109089520913D0380913C03281750F4F8
:100E0000E22FF0E0E25CFC4F808190E02F5F2093C6
:100E10003D0308958FEF9FEF0895E0913D0380918A
:100E20003C03E81730F4F0E0E25CFC4F808190E096
:100E300008958FEF9FEF08950895CF92DF92EF927C
:100E4000FF920F931F93CF93DF937C01CB018A0115
:100E500020911803222389F0EB016B01C40ED51EEB
:100E6000CC15DD0569F06991D701ED91FC910190F8
:100E7000F081E02DC7010995F3CF642F0E947E0811
:100E8000C801DF91CF911F910F91FF90EF90DF90FC
:100E9000CF900895CF93DF931F92CDB7DEB76983CC
:100EA000209118032223D1F020911903203240F021
:100EB00021E030E0FC013383228380E090E015C024
:100EC00080911A03E82FF0E0E55EFC4F9981908352
:100ED0008F5F80931A038093190305C061E0CE01F0
:100EE00001960E947E0881E090E00F90DF91CF9103
:100EF0000895FC011382128248EE53E060E070E036
:100F000044835583668377838FE992E0918380835E
:100F1000089510923D0310923C0310921A03109210
:100F200019030C94C907862F413208F040E26EE3A2
:100F300073E00E94E70710923D0380933C030895FD
:100F400021E00C94930781E08093180360933B03A6
:100F500010921A031092190308950C94A3070F938B
:100F6000062F21E0409119036BE173E080913B0370
:100F70000E942B0810921A03109219031092180362
:100F80000F91089561E00C94AF078CE093E00C940E
:100F900079071092CB0381E08093C9031092C803B4
:100FA00061E082E10E94EF0B61E083E10E94EF0BC0
:100FB000E9EBF0E080818E7F808380818D7F80836C
:100FC0008CE08093B80085E48093BC0008954132A2
:100FD00008F03FC09091CB039111FCCF91E090932A
:100FE000CB032093C9032FEF20935E031092A3033A
:100FF000240F2093A2039093CA039091CA03880FF1
:10100000892B8093CA038091C803813041F41092E8
:10101000C8038091CA038093BB0085EC01C085EEB4
:101020008093BC008091CB038130E1F38091A303D6
:10103000841710F44091A30324EA33E0FB01D901A3
:101040008A2F821B841718F48D918193F9CF842FF6
:10105000089580E008950F93413208F046C09091C2
:10106000CB039111FCCF92E09093CB030093C90383
:101070009FEF90935E031092A3034093A203FB01A2
:1010800064EA73E0DB019A2F961B941718F4919190
:101090009D93F9CF1092CA039091CA03880F892BB0
:1010A0008093CA038091C803813041F41092C80331
:1010B0008091CA038093BB0085EC01C085EE8093CC
:1010C000BC00222321F08091CB038230E1F3809198
:1010D0005E038F3F61F080915E03803251F080911A
:1010E0005E03803341F483E007C081E005C080E007
:1010F00003C082E001C084E00F910895613298F44A
:101100002091CB03243089F460938003FC0182E8B2
:1011100093E0DC012A2F281B261718F421912D9328
:10112000F9CF80E0089581E0089582E0089585ED8B
:101130008093BC008091BC0084FDFCCF1092CB0357
:10114000089585EC8093BC001092CB0308951F9204
:101150000F920FB60F9211242F933F934F935F93EB
:101160006F937F938F939F93AF93BF93EF93FF936F
:101170008091B900887F803609F49CC068F5883278
:1011800009F45BC090F4803109F454C038F488232A
:1011900009F4F5C0883009F44DC0F5C0883109F470
:1011A0004CC0803209F45DC0EEC0803409F468C0E0
:1011B00048F4803309F455C0883309F0E4C08093C3
:1011C0005E03A8C0803509F44FC0883509F45DC0BE
:1011D000883409F0D8C0D5C0883909F4C6C0A8F44D
:1011E000883709F467C038F4883609F463C080375B
:1011F00009F460C0C8C0883809F4B7C0803909F460
:101200005FC0803809F0BFC05BC0803B09F485C077
:1012100038F4803A09F466C0883A09F47EC0B3C055
:10122000803C09F4A6C0883C09F4A3C0883B09F4BB
:1012300089C0A9C08091CA0310C09091A303809176
:10124000A203981770F5E091A30381E08E0F8093BD
:10125000A303F0E0EC55FC4F80818093BB0085EC4C
:1012600085C080935E038DC0E091A30381E08E0F63
:101270008093A3038091BB00F0E0EC55FC4F80838A
:101280009091A3038091A2036DC0E091A30381E03C
:101290008E0F8093A3038091BB00F0E0EC55FC4FD0
:1012A00080838091C90381116CC081E08093C80361
:1012B00084EA60C083E08093CB0310925F03CFCFBA
:1012C00080915F03803208F050C0E0915F0381E0BD
:1012D0008E0F80935F038091BB00F0E0E05AFC4FDB
:1012E0008083BDCF80915F03803230F4E0915F0353
:1012F000F0E0E05AFC4F10820E94970860915F0373
:1013000070E0E091C403F091C50380E693E0099595
:1013100010925F030E94A10836C084E08093CB0343
:101320001092810310928003E091C603F091C703ED
:10133000099580918003811105C081E0809380032D
:1013400010928203E091810381E08E0F80938103EC
:10135000F0E0EE57FC4F80818093BB0090918103B9
:1013600080918003981708F47ACF85E88093BC00B9
:101370000AC085EC8093BC001092CB0304C010928D
:101380005E030E949708FF91EF91BF91AF919F91EB
:101390008F917F916F915F914F913F912F910F901E
:1013A0000FBE0F901F9018958230E8F4E82FF0E000
:1013B000EE0FFF1FE453FC4F71836083813041F0D7
:1013C000809169008C7F842B80936900E89A08954E
:1013D00080916900440F551F440F551F837F842B54
:1013E00080936900E99A0895823068F4813011F0A1
:1013F000E89801C0E998E82FF0E0EE0FFF1FE453F2
:10140000FC4F1182108208951F920F920FB60F9217
:1014100011242F933F934F935F936F937F938F93F9
:101420009F93AF93BF93EF93FF938091CC039091E1
:10143000CD03892B29F0E091CC03F091CD030995E0
:10144000FF91EF91BF91AF919F918F917F916F919C
:101450005F914F913F912F910F900FBE0F901F9072
:1014600018951F920F920FB60F9211242F933F934E
:101470004F935F936F937F938F939F93AF93BF939C
:10148000EF93FF938091CE039091CF03892B29F0A6
:10149000E091CE03F091CF030995FF91EF91BF91B9
:1014A000AF919F918F917F916F915F914F913F91FC
:1014B0002F910F900FBE0F901F9018951F920F92B3
:1014C0000FB60F9211242F933F938F939F93AF9357
:1014D000BF938091D1039091D203A091D303B09197
:1014E000D4033091D00323E0230F2D3720F401964D
:1014F000A11DB11D05C026E8230F0296A11DB11D37
:101500002093D0038093D1039093D203A093D3036D
:10151000B093D4038091D5039091D603A091D703C3
:10152000B091D8030196A11DB11D8093D50390936E
:10153000D603A093D703B093D803BF91AF919F91E7
:101540008F913F912F910F900FBE0F901F90189584
:101550003FB7F8948091D5039091D603A091D7031B
:10156000B091D80326B5A89B05C02F3F19F001966E
:10157000A11DB11D3FBF6627782F892F9A2F620FBB
:10158000711D811D911D42E0660F771F881F991FF5
:101590004A95D1F70895CF92DF92EF92FF92CF93C1
:1015A000DF936B017C010E94A80AEB01C114D104F6
:1015B000E104F10489F00E94700E0E94A80A6C1BDD
:1015C0007D0B683E734090F381E0C81AD108E108B2
:1015D000F108C851DC4FEACFDF91CF91FF90EF9037
:1015E000DF90CF900895789484B5826084BD84B5EF
:1015F000816084BD85B5826085BD85B5816085BD0E
:10160000EEE6F0E0808181608083E1E8F0E0108226
:10161000808182608083808181608083E0E8F0E067
:10162000808181608083E1EBF0E080818460808351
:10163000E0EBF0E0808181608083EAE7F0E0808188
:1016400084608083808182608083808181608083E8
:101650008081806880831092C10008951F93CF938A
:10166000DF93182FEB0161E00E94B60B209711F475
:1016700060E004C0CF3FD10539F461E0812FDF91F4
:10168000CF911F910C94EF0BE12FF0E0E855FF4F45
:10169000E491E330F9F048F4E130B9F0E230A1F53B
:1016A00084B5806284BDC8BD34C0E730E9F0E8305D
:1016B00019F1E43049F580918000806280938000C8
:1016C000D0938B00C0938A0024C084B5806884BD09
:1016D000C7BD1FC080918000806880938000D09338
:1016E0008900C093880015C08091B0008068809305
:1016F000B000C093B3000DC08091B00080628093B1
:10170000B000C093B40005C0C038D1050CF0B5CF0F
:10171000AFCFDF91CF911F910895833081F028F4EE
:10172000813099F08230A1F008958730A9F0883097
:10173000B9F08430D1F4809180008F7D03C0809116
:1017400080008F7780938000089584B58F7702C0E2
:1017500084B58F7D84BD08958091B0008F7703C0DC
:101760008091B0008F7D8093B0000895CF93DF9378
:1017700090E0FC01E454FF4F2491FC01E053FF4F43
:101780008491882349F190E0880F991FFC01E8506B
:10179000FF4FA591B49182519F4FFC01C591D49107
:1017A0009FB7611108C0F8948C91209582238C9387
:1017B000888182230AC0623051F4F8948C91322FD0
:1017C000309583238C938881822B888304C0F8947E
:1017D0008C91822B8C939FBFDF91CF9108950F93B3
:1017E0001F93CF93DF931F92CDB7DEB7282F30E042
:1017F000F901E855FF4F8491F901E454FF4F14912A
:10180000F901E053FF4F04910023C9F0882321F030
:1018100069830E948D0B6981E02FF0E0EE0FFF1FBE
:10182000E251FF4FA591B4919FB7F8948C9161114B
:1018300003C01095812301C0812B8C939FBF0F9013
:10184000DF91CF911F910F910895CF93DF93282FB0
:1018500030E0F901E855FF4F8491F901E454FF4F5E
:10186000D491F901E053FF4FC491CC2391F0811141
:101870000E948D0BEC2FF0E0EE0FFF1FEC51FF4F9D
:10188000A591B4912C912D2381E090E021F480E08A
:1018900002C080E090E0DF91CF910895FC01818D3E
:1018A000228D90E0805C9F4F821B91098F73992756
:1018B0000895FC01918D828D981731F0828DE80F8B
:1018C000F11D858D90E008958FEF9FEF0895FC0145
:1018D000918D828D981761F0828DDF01A80FB11D67
:1018E0005D968C91928D9F5F9F73928F90E008958B
:1018F0008FEF9FEF08958BEE9DE0892B49F080E0FC
:1019000090E0892B29F00E94EB0D81110C940000CE
:101910000895FC01848DDF01A80FB11DA35ABF4FAC
:101920002C91848D90E001968F739927848FA689DE
:10193000B7892C93A089B1898C9180648C93938D05
:10194000848D981306C00288F389E02D80818F7DF5
:1019500080830895CF93DF93EC01888D8823C9F0AD
:10196000EA89FB89808185FD05C0A889B9898C91A8
:1019700086FD0FC00FB607FCF5CF808185FFF2CF43
:10198000A889B9898C9185FFEDCFCE010E94890C81
:10199000E7CFDF91CF910895CF92DF92FF920F931F
:1019A0001F93CF93DF931F92CDB7DEB76C0181E019
:1019B000D60158968C9358975B969C915B975C9652
:1019C0008C915C97981307C05096ED91FC915197BC
:1019D000808185FD2EC0F601038D10E00F5F1F4F43
:1019E0000F731127F02EF601848DF81211C00FB677
:1019F00007FCF9CFD6015096ED91FC91519780816B
:101A000085FFF1CFC60169830E94890C6981EBCF04
:101A1000838DE80FF11DE35AFF4F6083D6015B967B
:101A20000C935B975296ED91FC9153978081806265
:101A30000CC0D6015696ED91FC9157976083509655
:101A4000ED91FC91519780818064808381E090E0EA
:101A50000F90DF91CF911F910F91FF90DF90CF906A
:101A60000895BF92CF92DF92EF92FF92CF93DF93D0
:101A7000EC016A017B01B22EE889F98982E080835A
:101A8000411581EE580761057105A1F060E079E02C
:101A90008DE390E0A70196010E9463112150310966
:101AA000410951095695479537952795211580E1AC
:101AB000380798F0E889F989108260E874E88EE1C7
:101AC00090E0A70196010E9463112150310941095C
:101AD00051095695479537952795EC85FD853083B7
:101AE000EE85FF852083188EEC89FD89B082EA8916
:101AF000FB89808180618083EA89FB89808188609D
:101B00008083EA89FB89808180688083EA89FB89F8
:101B100080818F7D8083DF91CF91FF90EF90DF9068
:101B2000CF90BF9008951F920F920FB60F9211247D
:101B30002F938F939F93EF93FF93E091E903F0919D
:101B4000EA038081E091EF03F091F00382FD12C07F
:101B500090818091F2038F5F8F732091F30382173E
:101B600051F0E091F203F0E0E752FC4F958F809343
:101B7000F20301C08081FF91EF919F918F912F918E
:101B80000F900FBE0F901F9018951F920F920FB6D7
:101B90000F9211242F933F934F935F936F937F93F3
:101BA0008F939F93AF93BF93EF93FF9389ED93E050
:101BB0000E94890CFF91EF91BF91AF919F918F91FE
:101BC0007F916F915F914F913F912F910F900FBE39
:101BD0000F901F90189589ED93E00E944E0C21E024
:101BE000892B09F420E0822F08951092DC031092D3
:101BF000DB0388EE93E0A0E0B0E08093DD039093F8
:101C0000DE03A093DF03B093E0038FEA92E09093AA
:101C1000DA038093D90385EC90E09093E6038093F8
:101C2000E50384EC90E09093E8038093E70380EC75
:101C300090E09093EA038093E90381EC90E0909325
:101C4000EC038093EB0382EC90E09093EE0380939F
:101C5000ED0386EC90E09093F0038093EF031092F5
:101C6000F2031092F3031092F4031092F503089517
:101C700008950E94F30A0E94380E0E947206CBE774
:101C8000DCE00E9410062097E1F30E947B0CF9CF64
:101C9000CF92DF92EF92FF920F931F93CF93DF9338
:101CA0006C017A01EB01E60EF71E00E010E0CE15A4
:101CB000DF0561F06991D601ED91FC910190F08111
:101CC000E02DC6010995080F191FF1CFC801DF915A
:101CD000CF911F910F91FF90EF90DF90CF900895DB
:101CE00008955058BB27AA270ED0CBC1BCD130F0E5
:101CF000C1D120F031F49F3F11F41EF48CC10EF4D9
:101D0000E095E7FB82C1E92FCDD180F3BA176207D6
:101D100073078407950718F071F49EF5E5C10EF47A
:101D2000E0950B2EBA2FA02D0B01B90190010C01EB
:101D3000CA01A0011124FF27591B99F0593F50F403
:101D4000503E68F11A16F040A22F232F342F44275B
:101D5000585FF3CF469537952795A795F040539553
:101D6000C9F77EF41F16BA0B620B730B840BBAF023
:101D70009150A1F0FF0FBB1F661F771F881FC2F78E
:101D80000EC0BA0F621F731F841F48F487957795A2
:101D90006795B795F7959E3F08F0B3CF9395880F59
:101DA00008F09927EE0F9795879508955CD158F024
:101DB00080E891E009F49EEF5DD128F040E851E021
:101DC00059F45EEF09C027C18FC1E92FE0786AD1CD
:101DD00068F3092E052AC1F3261737074807590764
:101DE00038F00E2E07F8E02569F0E025E0640AC01F
:101DF000EF6307F8009407FADB01B9019D01DC01EC
:101E0000CA01AD01EF9347D03CD10AD05F91552371
:101E100031F02BED3FE049E450FD49EC63CF0895EC
:101E2000DF93DD27B92FBF7740E85FE3161617066B
:101E300048075B0710F4D92F62D19F938F937F934C
:101E40006F9309D2EAE7F0E0E9D01BD12F913F91DF
:101E50004F915F9167D1DD2349F09058A2EA2AEDB6
:101E60003FE049EC5FE3D0785D274DDFDF9109C1AA
:101E7000A8D008F481E008950CD003C1FBD040F055
:101E8000F2D030F021F45F3F19F0BFC051112DC1E5
:101E9000C2C008D198F39923C9F35523B1F3951B18
:101EA000550BBB27AA2762177307840738F09F5F7B
:101EB0005F4F220F331F441FAA1FA9F333D00E2EEA
:101EC0003AF0E0E830D091505040E695001CCAF757
:101ED00029D0FE2F27D0660F771F881FBB1F26171C
:101EE00037074807AB07B0E809F0BB0B802DBF01EF
:101EF000FF2793585F4F2AF09E3F510568F085C039
:101F0000F4C05F3FECF3983EDCF3869577956795D8
:101F1000B795F7959F5FC9F7880F911D969587959F
:101F200097F90895E1E0660F771F881FBB1F6217BE
:101F300073078407BA0720F0621B730B840BBA0B7C
:101F4000EE1F88F7E0950895E89409C097FB3EF4EA
:101F500090958095709561957F4F8F4F9F4F9923F6
:101F6000A9F0F92F96E9BB279395F6958795779574
:101F70006795B795F111F8CFFAF4BB0F11F460FF34
:101F80001BC06F5F7F4F8F4F9F4F16C0882311F08C
:101F900096E911C0772321F09EE8872F762F05C0A0
:101FA000662371F096E8862F70E060E02AF09A953B
:101FB000660F771F881FDAF7880F9695879597F930
:101FC0000895990F0008550FAA0BE0E8FEEF1616CA
:101FD0001706E807F907C0F012161306E407F5071D
:101FE00098F0621B730B840B950B39F40A2661F091
:101FF000232B242B252B21F408950A2609F4A14034
:10200000A6958FEF811D811D089597F99F6780E840
:1020100070E060E008959FEF80EC0895DF93CF9328
:102020001F930F93FF92EF92DF927B018C016894D4
:1020300005C0DA2EEF0176D0FE01E894A591259136
:10204000359145915591AEF3EF015DDEFE019701AB
:10205000A801DA9479F7DF90EF90FF900F911F912C
:10206000CF91DF91089500240A94161617061806DA
:102070000906089500240A9412161306140605068C
:102080000895092E0394000C11F4882352F0BB0F1D
:1020900040F4BF2B11F460FF04C06F5F7F4F8F4F80
:1020A0009F4F089557FD9058440F551F59F05F3FBB
:1020B00071F04795880F97FB991F61F09F3F79F06A
:1020C00087950895121613061406551FF2CF4695EC
:1020D000F1DF08C0161617061806991FF1CF86956E
:1020E0007105610508940895E894BB276627772752
:1020F000CB0197F9089565DF08F48FEF08959B01F0
:10210000AC0160E070E080E89FE3B6CE0BD0B9CFC1
:10211000AADF28F0AFDF18F0952309F076CF7BCF48
:102120001124E3CFBFDFA0F3959FD1F3950F50E0CB
:10213000551F629FF001729FBB27F00DB11D639F79
:10214000AA27F00DB11DAA1F649F6627B00DA11D1F
:10215000661F829F2227B00DA11D621F739FB00DC5
:10216000A11D621F839FA00D611D221F749F332735
:10217000A00D611D231F849F600D211D822F762FCE
:102180006A2F11249F5750408AF0E1F088234AF0CB
:10219000EE0FFF1FBB1F661F771F881F9150504017
:1021A000A9F79E3F510570F030CF9FCF5F3FECF312
:1021B000983EDCF3869577956795B795F795E79503
:1021C0009F5FC1F7FE2B880F911D9695879597F914
:1021D000089511F40EF41FCF41C06CDFD0F39923A2
:1021E000D9F3CEF39F57550B87FF46D00024A0E6C6
:1021F00040EA900180585695979528F4805C660FC8
:10220000771F881F20F026173707480730F4621B16
:10221000730B840B202931294A2BA6951794079418
:10222000202531254A2758F7660F771F881F20F091
:1022300026173707480730F4620B730B840B200D09
:10224000311D411DA09581F7B901842F9158880F48
:102250009695879508959B01AC0158CF9F3F31F02B
:10226000915020F4879577956795B795880F911DC4
:102270009695879597F9089591505040660F771F6E
:10228000881FD2F70895991B79E004C0991F96170B
:1022900008F0961B881F7A95C9F78095089597FBDB
:1022A000072E16F4009407D077FD09D00E948B11F9
:1022B00007FC05D03EF4909581959F4F0895709549
:1022C00061957F4F0895A1E21A2EAA1BBB1BFD0149
:1022D0000DC0AA1FBB1FEE1FFF1FA217B307E40705
:1022E000F50720F0A21BB30BE40BF50B661F771F5D
:1022F000881F991F1A9469F760957095809590953D
:102300009B01AC01BD01CF010895EE0FFF1F0590A9
:10231000F491E02D0994AA1BBB1B51E107C0AA1F31
:10232000BB1FA617B70710F0A61BB70B881F991F76
:102330005A95A9F780959095BC01CD010895F9991A
:10234000FECF92BD81BDF89A992780B50895262FBA
:10235000F999FECF1FBA92BD81BD20BD0FB6F8948A
:0E236000FA9AF99A0FBE01960895F894FFCFED
:10236E00140ABE0109FF3030FF2040FF10503030FC
:10237E00FF4020FF5010FF05C305140000FFC000F2
:10238E00C000C0C0FF0000C0C000C000C0015F326E
:10239E003200FFFF00FF000000FF00FFFF80FF0084
:1023AE008000FF0A0F052D00FFFF00FF000000FF59
:1023BE0000FFFF80FF008000FF19000118FF0000E2
:1023CE0000FF000000FF00FF000000FFFF00000103
:1023DE00181900FF000000FF000000FF00FF0000C2
:1023EE0000FFFF0000323232320000020001020113
:1023FE0000020000FF0080FF8000FFCDCC8C3F9AD2
:10240E0099993F6666A63F3333B33F0000C03FCD78
:10241E00CCCC3F9A99D93F6666E63F3333F33F0003
:10242E0000004066660640CDCC0C40333313409A14
:10243E0099194000002040333323406666663FCD35
:10244E00CC4C3F3333333F6666263F9A99193FCDC6
:10245E00CC0C3F0000003F6666E63ECDCCCC3E3352
:10246E0033B33E9A99993E0000803ECDCC4C3E9AB5
:10247E0099193ECDCCCC3D0000003FCDCC8C3FCD4C
:10248E00CCAC3F0000C03F3333D33F6666E63F9A85
:10249E0099F93F66660640000010409A991940333C
:1024AE00332340CDCC2C4066663640000040409A27
:1024BE0099494033335340CDCC5C406666663FCD80
:1024CE00CC4C3F3333333F6666263F9A99193FCD46
:1024DE00CC0C3F0000003F6666E63ECDCCCC3E33D2
:1024EE0033B33E9A99993E0000803ECDCC4C3E9A35
:1024FE0099193ECDCCCC3D0000003F000000004AB3
:10250E00071D07F206FA060D071C0700000000CC97
:0C251E000C480E4E0C670C590CAA0C0067
:00000001FF
