:100000000C9460020C94D0230C94FD230C94880271
:100010000C9488020C9488020C94CD020C948802F3
:100020000C9488020C9488020C9488020C94880228
:100030000C9488020C9488020C9488020C94880218
:100040000C942A240C9488020C945F270C9491271A
:100050000C9488020C9488020C9488020C948802F8
:100060000C9473220C9488020A0A130A200A250AA7
:100070002D0A320A3C0A440A4E0A560A5A0A640AEF
:10008000680A730A800A8D0A960A9B0AA70AB20AAE
:10009000BE0ACC0AD80AE70AF60A050B110B240B94
:1000A0002F0B3B0B460B530B610B6A0B740B830B33
:1000B0009B0B9E0BA90BAC0BB70BBA0BC60BD40B4F
:1000C000D90BDE0BE70BF10BFD0B0B0C0E0C130C1D
:1000D000170C1B0C1F0C230C270C320C4A0C400C69
:1000E000580C660C5D1278128A1289138C13C9138E
:1000F000F013F313081426143B1451146E14084A19
:10010000D73B3BCE016E84BCBFFDC12F3D6C74312B
:100110009ABD56833DDA3D00C77F11BED9E4BB4C82
:100120003E916BAAAABE000000803F00000000388C
:1001300040481800001010000018000010100000C7
:1001400018100010FF0000E02000C04000A0600078
:1001500080800060A00040C00020E00000FF0000A0
:10016000E02000C04000A0600080800060A000404F
:10017000C00020E00000FF2000E04000C06000A0C0
:10018000800080A00060C00040E00020404040A00F
:10019000101010A0101010A08008305030308030A7
:1001A00008505008308008305030088030085050D7
:1001B0000830803030503008805008500001020371
:1001C0000405060708090A0B0C0D0E0F04050607A7
:1001D00000000000000000000000000008090A0BF9
:1001E0000000000000000000000000000C0D0E0FD9
:1001F00000000000000000000000000010040404E3
:1002000001020D0E06062426282A2C2E00000000CE
:100210000000000000002426282A2C2E00000000E8
:100220000000000000000101093B070301878685EB
:100230008483820000000000000000004850580045
:100240000000000000000000000000000100061592
:100250000202CE1A000000000000000000000000B2
:100260000000CE1A000000000000000000000000A6
:100270000000010013140707012426282A2C2E0051
:100280000000000000000000012426282A2C2E0077
:100290000000000000000000000027020F01080A13
:1002A0000C0810181A1C180810121410180000005E
:1002B000000000000000000000000000000000003E
:1002C0000F02090101C8C801D0D001D8D800000030
:1002D000000000000000000000000000000000001E
:1002E0000000000000001E02040118141612000095
:1002F00000000000000000000000000000000000FE
:100300000000000000000000000000001D020301CA
:100310001E1A150000000000000000000000000090
:1003200000000000000000000000000000000000CD
:10033000000037020301212223000000000000001A
:1003400000000000000000000000000000000000AD
:100350000000000000000000300203011F1C190013
:10036000000000000000000000000000000000008D
:100370000000000000000000000000000000180263
:100380000D01C1080A0C0E10121416181A1C1E00BA
:10039000000000000000000000000000000000005D
:1003A000000000001A020701012426282A2C2E0032
:1003B000000000000000000000000000000000003D
:1003C000000000000000000000000F0206011FD422
:1003D000D414DFDF00000000000000000000000077
:1003E000000000000000000000000000000000000D
:1003F0000F02060126ECEC2CE6E6000000000000EF
:1004000000000000000000000000000000000000EC
:100410000000000000002302030121242500000049
:1004200000000000000000000000000000000000CC
:100430000000000000000000000000001B02060198
:1004400028002B002E00000000000000000000002B
:10045000000000000000000000000000000000009C
:100460000000000800020100000304070000000073
:10047000000000000102040810204080010204086E
:1004800010200102040810200404040404040404DD
:10049000020202020202030303030303000000003E
:1004A00023002600290000000000250028002B0062
:1004B00000000000240027002A00F5109121C12728
:1004C00011241FBECFEFD8E0DEBFCDBF11E0A0E00A
:1004D000B1E0E0EAF7E502C005900D92A435B1075E
:1004E000D9F726E0A4E5B1E001C01D92A037B2071C
:1004F000E1F714E0C0ECD4E004C02297FE010E94B2
:10050000932BCA3BD107C9F70E9405280C94CE2B28
:100510000C9400004115510529F480917A008F77E1
:1005200080937A006A307105B1F063FF02C088E2FF
:1005300001C088E06770682B88E190E00FB6F894FE
:10054000A895809360000FBE60936000809160006A
:1005500080648093600083B7817F846083BF232B96
:1005600051F4F89483B7816083BF85B7806685BFF7
:100570008F7D85BF04C0F89483B7816083BF789472
:10058000889583B78E7F83BF7894452B29F480911B
:100590007A00806880937A0008951F920F920FB6B8
:1005A0000F9211248F9388E10FB6F8948093600026
:1005B000109260000FBE8F910F900FBE0F901F9092
:1005C000189580E090E0FC01E45DFE4FE491DC01D1
:1005D000AB5ABE4FEC93FC01E35DFE4FE4911196E4
:1005E000EC931197FC01E25DFE4FE4911296EC93BF
:1005F00003968039910539F70895EF92FF920F9392
:100600001F93CF93DF93C7E5D1E08C0185559140CF
:100610007C01FE0132976081C8010E94C02BFE015F
:1006200031976081C80101960E94C02B6881C70183
:100630008C0F9D1F0E94C02B0D5F1F4F239691E0D2
:10064000C73ED90731F7DF91CF911F910F91FF90EE
:10065000EF900895EF92FF920F931F93CF93DF9344
:10066000C7E5D1E08C01855591407C01C8010E940D
:10067000B82BFE0132978083C80101960E94B82BE7
:10068000FE0131978083C7018C0F9D1F0E94B82BFC
:1006900088830D5F1F4F239691E0C73ED90731F73E
:1006A000DF91CF911F910F91FF90EF900895CF931D
:1006B000DF93A82FB0E096E0B595A7959A95E1F75E
:1006C0008F7390E0FC01EE0FFF1FE80FF91FEB5A4C
:1006D000FE4F8081EB0188838181EA0188838281DA
:1006E000F9018083EB01888190E00A2E02C0959584
:1006F00087950A94E2F78883FA01808190E00A2EB8
:1007000002C0959587950A94E2F78083E901888174
:1007100090E002C095958795AA95E2F78883DF91CE
:10072000CF9108952F923F924F925F926F927F9256
:100730008F929F92AF92BF92CF92DF92EF92FF92F1
:100740000F931F93CF93DF931F92CDB7DEB71B019B
:10075000D42EF22E1C2DA982BC0180E090E00E94D4
:100760009C292B013C01B10180E090E00E949C2972
:100770009B01AC01C301B2010E9408292B013C017D
:100780002D2C312CB101882777FD8095982F0E9460
:100790009E295B016C016E2D70E062197309882738
:1007A00077FD8095982F0E949E29A30192010E94B7
:1007B0007E2A9B01AC01C601B5010E943E280E9421
:1007C0007029F4016083EF2CF12CB701882777FDA5
:1007D0008095982F0E949E294B015C01612F70E04B
:1007E0006E197F09882777FD8095982F0E949E2992
:1007F000A30192010E947E2A9B01AC01C501B401B4
:100800000E943E280E947029EE89FF89608310E0D3
:10081000B801882777FD8095982F0E949E296B014B
:100820007C01F9816F2F70E0601B710B882777FDC9
:100830008095982F0E949E29A30192010E947E2AF2
:100840009B01AC01C701B6010E943E280E9470299D
:10085000E88DF98D60830F90DF91CF911F910F91FB
:10086000FF90EF90DF90CF90BF90AF909F908F90D0
:100870007F906F905F904F903F902F9008952F92B0
:100880003F924F925F926F927F928F929F92AF9220
:10089000BF92CF92DF92EF92FF920F931F93CF936D
:1008A000DF93CDB7DEB7D82E1B01F901BD888E8945
:1008B0006F88811002C088248394B11001C0BD2CC0
:1008C0007B2C882319F08B1508F4782E4E2C512C94
:1008D0007201EC0CF11CBE9C9001BF9C300D1124E8
:1008E00082E0B81205C0A1E07A1202C02E0D3F1DB1
:1008F000C9018A0D911DDA016D917C9111976817DC
:100900007907E8F01D921C92D8018D919C91119766
:10091000019611969C938E93912C881599057CF0E5
:100920001D921C928081870D80838D1540F0B71039
:1009300002C0108204C06D2D0E943B2B9083662064
:1009400009F448C0DA018D919C918217930748F40D
:10095000B7010E94472B8415950518F42081260FB6
:1009600001C02FEF822F992787FD90956D2D70E0A4
:100970008617970734F0B71431F00E945B2B21E003
:10098000280F27FF07C01092EB011092EC01109284
:10099000ED0120C0F101E20FF11D27FDFA952BEECC
:1009A00031E04CEE51E06DEE71E08081DF91CF914E
:1009B0001F910F91FF90EF90DF90CF90BF90AF907D
:1009C0009F908F907F906F905F904F903F902F906F
:1009D0000C945703DF91CF911F910F91FF90EF90EF
:1009E000DF90CF90BF90AF909F908F907F906F904F
:1009F0005F904F903F902F9008952F923F924F928B
:100A00005F926F927F928F929F92AF92BF92CF929E
:100A1000DF92EF92FF920F931F93CF93DF93CDB7A7
:100A2000DEB7782E2B018A015D894E896F88388C5C
:100A3000298C411102C04FEF480F611001C0642E94
:100A4000912CB12CD12CF12C311015C0B4016A0DB0
:100A50007B1D569FC001579F900D1124880D991D35
:100A6000B6016E0D7F1D469FF001479FF00D1124CA
:100A7000EC19FD091AC0511104C0C4018A0D9B1D57
:100A80000AC0B4016A0D7B1D569FC001579F900D8F
:100A9000112488199909B6016E0D7F1D469FF0013A
:100AA000479FF00D1124EC0DFD1D8E0F9F1FD801E7
:100AB0006D917C91119768177907B0F01D921C9287
:100AC000D9018C91860D8C9390E0672D70E0615078
:100AD00071098617970744F0461519F00E945B2BA1
:100AE00001C080E0D9018C93222009F468C0D801AC
:100AF0008D919C918E179F07A8F4B7016C0D7D1DF9
:100B00000E94472B311006C08E159F05F8F4F9019D
:100B1000208105C08C159D05C8F0D9012C912F5F4F
:100B2000260F15C08E1B9F0BB4016A0D7B1D0E9402
:100B3000472B21E0311004C08815990528F003C027
:100B40008A159B0508F420E0219501C02FEF822F24
:100B5000992787FD9095672D70E08617970734F0E9
:100B6000461531F00E945B2B21E0280F27FF07C0BC
:100B70001092EB011092EC011092ED0120C0F201F5
:100B8000E20FF11D27FDFA952BEE31E04CEE51E01E
:100B90006DEE71E08081DF91CF911F910F91FF90F9
:100BA000EF90DF90CF90BF90AF909F908F907F900D
:100BB0006F905F904F903F902F900C945703DF9170
:100BC000CF911F910F91FF90EF90DF90CF90BF904A
:100BD000AF909F908F907F906F905F904F903F90DD
:100BE0002F9008956F927F928F929F92AF92BF92B3
:100BF000CF92DF92EF92FF920F931F93CF93DF93E9
:100C0000CDB7DEB7182F3B01DA01F90109899A88BF
:100C1000011101C0082FF12CB7016C0D711D802F3F
:100C200090E00197689FA001699F500D789F500D3B
:100C30001124B12C9A01220F331F2A0D3B1DC9012B
:100C4000880D911DCD90DC901197C816D90648F0FB
:100C500011961C921E928081800F8083811708F06C
:100C60001082992009F451C08D919C9184179507A9
:100C700050F40E94472B8E159F05D0F440814150BF
:100C8000461B400F16C04A0D5B1D8417950710F4D4
:100C900040810FC08217930758F4841B950B0E9464
:100CA000472B8E159F0520F440814F5F460F01C0F2
:100CB0004FEF842F992787FD9095212F30E08217E1
:100CC000930714F447FF07C01092EB011092EC0158
:100CD0001092ED011AC0F301E80FF91F2BEE31E07D
:100CE0004CEE51E06DEE71E08081DF91CF911F916C
:100CF0000F91FF90EF90DF90CF90BF90AF909F90BB
:100D00008F907F906F900C945703DF91CF911F913C
:100D10000F91FF90EF90DF90CF90BF90AF909F909A
:100D20008F907F906F9008952F923F924F925F9295
:100D30006F927F928F929F92AF92BF92CF92DF92EB
:100D4000EF92FF920F931F93CF93DF93CDB7DEB750
:100D5000982F2B013A01F801BE2C9A2C682D3D8862
:100D60002E887F89888D898C4E2D50E0EC2CF12CBB
:100D7000A081B181711145C08A0161110CC0682F39
:100D800070E06A1B7B0BE69E5001E79EB00CF69E5E
:100D9000B00C11240AC0613051F41196EA9E500142
:100DA000EB9EB00CFA9EB00C1124D82E20C0A82EB9
:100DB000B12CB50161507109D62EDD0CAA15BB0509
:100DC0004CF41196EA9E5001EB9EB00CFA9EB00CCA
:100DD00011240DC061E070E06A1B7B0B6D0D711D6D
:100DE000E69E5001E79EB00CF69EB00C1124211037
:100DF00003C04A0D5B1D4AC0C89E400D511D112401
:100E000045C061110CC0682F70E06A1B7B0B469FC8
:100E10008001479F100D569F100D11240AC06130AC
:100E200051F411964A9F80014B9F100D5A9F100D4F
:100E30001124D82E20C0682F70E08B0101501109B9
:100E4000D02EDD0CA617B7074CF411964A9F8001EF
:100E50004B9F100D5A9F100D11240DC061E070E0E2
:100E60006A1B7B0B6D0D711D469F8001479F100D06
:100E7000569F100D1124211004C0A8014E0D5F1DB6
:100E800005C0A701B89E400D511D112481E08315B6
:100E900068F4D9018C91A82FB0E0692F70E06150FF
:100EA0007109A617B70711F4490D511DD3016D91B2
:100EB0007C9111976417750708F44CC01D921C9221
:100EC000311018C0408151814F5F5F4F5183408383
:100ED0006D2D70E064177507ECF5D9014C9150E069
:100EE0004F5F5F4F692F70E0CA010E945B2BD901F1
:100EF0008C932EC0B1E03B121AC0408151814F5FEC
:100F00005F4F51834083D9014C9150E04F5F5F4F59
:100F1000692F70E0CA010E945B2BD9018C938D2D43
:100F200090E04081518184179507A4F411C0D90144
:100F30008C918F5F8C93891768F01C9280819181CE
:100F40000196918380834D2D50E04817590714F482
:100F500011821082882061F1F301808191818017D4
:100F6000910700F5D9018C91F201E80FF11D2BEEEC
:100F700031E04CEE51E06DEE71E08081DF91CF9178
:100F80001F910F91FF90EF90DF90CF90BF90AF90A7
:100F90009F908F907F906F905F904F903F902F9099
:100FA0000C9457031092EB011092EC011092ED019A
:100FB000DF91CF911F910F91FF90EF90DF90CF9035
:100FC000BF90AF909F908F907F906F905F904F9069
:100FD0003F902F9008952F923F924F925F926F9281
:100FE0007F928F929F92AF92BF92CF92DF92EF92B9
:100FF000FF920F931F93CF93DF93CDB7DEB7982E59
:101000001B012A0189015D898E894F89F12CD12C20
:1010100097012C0D3D1D829F3001839F700C112480
:10102000B12C682D70E0D2018D919C9111975111D6
:1010300021C0A60CB71C6A0D7B1D8617970758F0B8
:101040001D921C92F801808190E00196692D70E05C
:101050000E945B2B8083442309F49DC1D2018D91B2
:101060009C918615970508F44EC08A159B0508F0DB
:1010700068C1CCC0513021F5F301EA0DFB1D6E0FA4
:101080007F1F8617970768F0D2011D921C92D80126
:101090008C9190E00196692D70E00E945B2BD80145
:1010A0008C93442309F477C1D2014D905C904A148B
:1010B0005B0408F4ABC04E165F0608F45EC041C185
:1010C000523009F082C0F301EE0FFF1FEA0DFB1D45
:1010D0006E0F7F1F8617970768F0D2011D921C9232
:1010E000D8018C9190E00196692D70E00E945B2BF5
:1010F000D8018C93442309F44EC1D2018D919C9167
:101100008615970578F5B9010E94472B8E159F0526
:1011100008F017C1F8018081F101E80FF11D28EEF8
:1011200031E049EE51E06AEE71E080810E945703A0
:101130008BEE91E09F938F938CEE91E09F938F9332
:101140003DEE832E31E0932EA090E801C090E9019E
:10115000E090EA0100E020E040E0B301D2018D918F
:101160009C91E8C0A60CB71C8A159B0508F44EC0DC
:101170008E179F0708F0E5C02C014A185B08C201D2
:10118000B9010E94472B8C159D0508F4DAC0D801DF
:101190008C91F101E80FF11D28EE31E049EE51E0AC
:1011A0006AEE71E080810E9457038BEE91E09F937D
:1011B0008F938CEE91E09F938F932DEE822E21E002
:1011C000922EA12CC12CE12CADC0533009F050C09F
:1011D000F301EA0DFB1D6E0F7F1F8617970768F05E
:1011E000D2011D921C92D8018C9190E00196692D3C
:1011F00070E00E945B2BD8018C93442309F4CBC090
:10120000D2014D905C904A145B0418F4F80180817F
:10121000A4C04E165F0608F094C04A185B08C201CD
:10122000B9010E94472B8C159D0508F48AC0D8018E
:101230008C91F101E80FF11D28EE31E049EE51E00B
:101240006AEE71E080810E945703F801808190E08E
:101250000196692D70E00E945B2B820D931D25EE97
:1012600031E046EE51E067EE71E0DC018C9146C062
:10127000A60CB71C6A0D7B1D8617970768F0F20154
:1012800011821082D8018C9190E00196692D70E056
:101290000E945B2BF8018083442309F47CC0D201B7
:1012A0004D905C904614570408F052C0C201B90139
:1012B0000E94472B8E159F0508F043C0F8018081DE
:1012C00090E00196692D70E00E945B2B820D931DCA
:1012D00028EE31E049EE51E06AEE71E0DC018C91DC
:1012E0000E945703F8018081F101E80FF11D25EEFE
:1012F00031E046EE51E067EE71E080810E945703D5
:101300008BEE91E09F938F938CEE91E09F938F9360
:101310009DEE892E91E0992EA090E501C090E60106
:10132000E090E7010091E8012091E9014091EA0194
:10133000B301C2010E9492030F900F900F900F9083
:101340002AC01092EB011092EC011092ED0123C023
:101350004A145B04B0F7D8018C91F101E80FF11D3C
:101360002BEE31E04CEE51E06DEE71E08081DF91CB
:10137000CF911F910F91FF90EF90DF90CF90BF9092
:10138000AF909F908F907F906F905F904F903F9025
:101390002F900C945703DF91CF911F910F91FF90E5
:1013A000EF90DF90CF90BF90AF909F908F907F9005
:1013B0006F905F904F903F902F9008952F923F92A3
:1013C0004F925F926F927F928F929F92AF92BF9255
:1013D000CF92DF92EF92FF920F931F93CF93DF9301
:1013E00000D0CDB7DEB7982F862FBA01390198010A
:1013F0008701260115019A8289824F89C92ED12C35
:101400009EE3C916D10408F074C2F601EC5CFF4FEC
:101410000C94912B4F931F921F92812CA12CC12CC5
:10142000ECE0EE2E09C04F931F921F92812CA12C4D
:1014300049E1C42E59E1E52EA3010E943F0456C2A2
:101440004F931F921F92812C4AC04F931F921F925D
:10145000812CA12C9CE0C92E1EC04F931F921F927D
:10146000812C55C04F931F921F92812CA12CAFE06D
:10147000CA2EBAE0EB2EE0CF4F931F921F92812C21
:10148000A12CF6E1CF2E60C04F931F921F92812CAA
:10149000A12CE1E3CE2EEE24E394CECF4F931F9206
:1014A0001F92812CA12C51E6C52E4EC04F931F9246
:1014B0001F9237C04F931F921F92812C46E4A42E97
:1014C000C12C95E0E92EB8CF4F931F921F9237C0E1
:1014D0004F9391E09F9392E09F93B0E28B2EA12CCB
:1014E000A8E0CA2EEECF4F9391E09F9393E09F9395
:1014F00050E1852EA12CEAE1CE2EFAE1EF2E9CCF11
:101500004F9391E09F9393E09F9340E4842EA12C0E
:10151000BBE0CB2E92E0E92E8FCF4F9393E09F93C9
:101520009F93812CA6E4AA2EC12C0EC04F9393E06A
:101530009F939F93C2CF4F9393E09F939F93812C50
:10154000E6E4AE2EF5E0CF2E53E0E52E75CF4F93B7
:101550001F9291E09F939F939F93812C46E1A42E2D
:10156000C12C6CC04F931F921F921F9295E09F93C6
:10157000BBE08B2E92E0A92EC12C0BC04F9391E0C3
:101580009F931F921F929F93812CF9E1AF2EABE0A6
:10159000CA2EE2E0EE2E54C04F9391E09F939F93AA
:1015A0009F9395E09F934BE0842E52E0A52E44C07C
:1015B0004F9391E09F9393E09F939F9395E09F9328
:1015C000ABE08A2EB2E0AB2E96E1C92EE2CF4F936C
:1015D0001F9291E09F9343E04F939F935FE0852E8E
:1015E000EFE0AE2EC12CF5E0EF2E2AC04F9391E034
:1015F0009F939F9393E09F931F92812CB6E1AB2E14
:1016000096E0C92E44E0E42E1BC04F9391E09F93D7
:101610009F9393E09F931F92F2E38F2EA9E1AA2E4E
:101620000BC04F9391E09F939F9392E09F931F92E3
:1016300056E1852EECE0AE2E46E1C42E93E0E92E75
:10164000A3010E94FD0471C04F9390E19F9391E02C
:101650009F939F9392E09F938824839409C04F9314
:1016600090E19F9391E09F939F9392E09F93812CB1
:10167000A12CC12C45C04F9390E29F9391E09F9382
:101680009F9392E09F93B2E08B2EF2CF4F9390E422
:101690009F931F921F9291E09F9388248394A12C83
:1016A000CC24C3943DC04F9398E09F9391E09F93C7
:1016B0001F9292E09F9388248394A8E2AA2EC12CC3
:1016C0002FC04F9390E29F9391E09F939F931F921F
:1016D000812C13C04F9390E29F9391E09F939F932F
:1016E0001F928824839409C04F9390E29F9391E0C6
:1016F0009F939F931F92F2E08F2EA12CEFE0CE2EAE
:10170000EE24E3940FC04F9398E09F9391E09F9352
:101710001F9292E09F9342E0842EA12C5AE0C52EA6
:1017200092E0E92EA3010E9494060F900F900F9073
:101730000F900F90DEC04F931F9203C04F9395E020
:101740009F93F9E18F2EA8E0AA2EC12CB4E0EB2ED6
:1017500025C04F931F9203C04F9395E09F9352E390
:10176000852EE4E0AE2EC12CEE24E39417C04F93F7
:101770001F9203C04F9395E09F93A2E38A2EB8E097
:10178000AB2E93E0C92E42E0E42E08C04F931F9287
:10179000812CE2E0AE2EC12CFAE0EF2EA3010E94D4
:1017A000F2050F900F90A5C04F9391E09F931F9269
:1017B00009C04F9397E09F931F920EC04F9391E003
:1017C0009F939F93812CA12C52E3C52E13C04F935E
:1017D00097E09F9391E09F9396E2892E4CE0A42E90
:1017E00015C04F9391E09F9392E09F93BBE48B2EA3
:1017F000A12CC12CABE4EA2E76C04F9394E09F93CA
:1018000092E09F93EBE48E2EF9E1AF2E4DE0C42ED3
:101810005CE0E52E68C04F9398E002C04F9391E0E2
:101820009F9393E018C04F9393E09F931FC04F93F3
:1018300093E09F9329C04F9393E09F932FC04F93C2
:1018400093E09F9339C04F9393E09F9343C04F938E
:1018500091E09F9394E09F93812CA12CC12C9AEF4F
:10186000E92E41C04F9393E09F9394E09F93EBE068
:101870008E2EF2E0AF2EABE0CA2EB2E0EB2E33C0DC
:101880004F9393E09F9394E09F9346E1842E53E01F
:10189000A52E25C04F9393E09F9394E09F93F8E08B
:1018A0008F2EA5E0AA2EB8E0CB2E95E0E92E1BC026
:1018B0004F9393E09F9394E09F9399E1892E49E1A0
:1018C000A42E59E1C52EE9E1EE2E0DC04F9393E011
:1018D0009F9394E09F93A6E18A2EB9E1AB2EE6E1B7
:1018E000CE2EF3E0EF2EA3010E94EB070F900F9096
:1018F0000F90F30180819181019691838083809183
:10190000ED01F20180838091EC01F10180838091EF
:10191000EB01E981FA8180830F900F90DF91CF91E5
:101920001F910F91FF90EF90DF90CF90BF90AF90FD
:101930009F908F907F906F905F904F903F902F90EF
:10194000089508950F931F93CF93DF931F92CDB700
:10195000DEB78C0169830E94B82B6981681741F05A
:10196000C8010F90DF91CF911F910F910C94C02B64
:101970000F90DF91CF911F910F910895DC01ED91B0
:10198000FC910190F081E02D0994DC01ED91FC9136
:101990000190F081E02D09948091A30426E2829FBA
:1019A000C001112480519E4F9093EF018093EE016E
:1019B00010925C0410925B0410925A04109251042D
:1019C000109250041092540410925704109256042E
:1019D000109253041092520410925504109259041C
:1019E0001092580408958F929F92AF92BF92CF9217
:1019F000DF92EF92FF920F931F93E091EE01F0912F
:101A0000EF01AF014A5F5F4F81E090915C0491115B
:101A100080E08F936FEF862E64E0962E70E0A72E05
:101A200075E0B72EA1E0CA2EA5E0DA2EB0E5EB2EC8
:101A3000B4E0FB2E04E514E026E534E06481828105
:101A40000E94DE09E091EE01F091EF01AF014A5EE4
:101A50005F4F81E090915C04913009F080E08F93BA
:101A60008FEF882E84E0982E90E0A92E95E0B92E75
:101A700021E0C22E25E0D22E32E5E32E34E0F32E13
:101A800005E514E028E534E0658183810E94DE09E4
:101A90000F900F901F910F91FF90EF90DF90CF90DC
:101AA000BF90AF909F908F900895FF920F931F93D8
:101AB000CF93DF93D82FC62FF42E0E947424009169
:101AC0000205109103052091040530910505601B66
:101AD000710B820B930B61157A4F8105910568F3A9
:101AE0000E9474246093020570930305809304059B
:101AF000909305056D2F70E089E00E94FA246C2F09
:101B000070E086E00E94FA246F2D70E085E00E946C
:101B1000FA24A895DF91CF911F910F91FF9008951E
:101B2000AF92BF92CF92DF92EF92FF920F931F93EB
:101B3000CF93DF93182F062FF42EE22EC0E0CE15A0
:101B400089F0D0E0D93120F44F2D602F812F03C0D0
:101B500040E060E080E00E94550DDF5FD23391F7F6
:101B6000CF5FEDCF82E3C89FF00111249F2F990F23
:101B7000990B9F01492F592F692F792F892FA090F9
:101B8000EF04B090F004C090F104D090F204E09023
:101B9000F304F090F4040091F5041091F6040E940F
:101BA000972B2093EF043093F0044093F10450936B
:101BB000F2046093F3047093F4048093F50490931B
:101BC000F604DF91CF911F910F91FF90EF90DF907E
:101BD000CF90BF90AF900895E091A204811103C00F
:101BE0001092A1040EC08091A10490E00196AE2F46
:101BF000B0E0A356BB4F6C9170E00E945B2B8093CA
:101C0000A1048091A10490E1E99FF0011124E80F63
:101C1000F11DE35AFB4F80818093A3040C94CC0CFC
:101C2000CF93DF93C0E0D0E060E0CE010E94A20C31
:101C30002196C11584E0D807B9F7DF91CF910895B7
:101C400080E090E020E030E0BC0160507E4FAC01CD
:101C500040515E4FFB01E20FF31FE491DA01A20F46
:101C6000B31FEC932F5F3F4F2632310599F78696CD
:101C7000803622E0920731F708951F93CF93DF93C8
:101C80004CEF51E0ADE9B4E080E090E0FA0124913E
:101C90002D9320E030E0EC01C454DE4FBC01635AC8
:101CA0007B4FFE01E20FF31F1491FB01E20FF31FC4
:101CB00010832F5F3F4F2031310599F74F5F5F4F02
:101CC00040968034910511F7DF91CF911F910895CF
:101CD000EF92FF920F931F93CF93DF9398E2899F28
:101CE0007001112496E2899F8001112400511E4F3A
:101CF000C0E0D0E0F801EC0FFD1F6081CE018E0D39
:101D00009F1D0E94A20C2196C632D10599F7DF9142
:101D1000CF911F910F91FF90EF900895CF93C0E066
:101D20008C2F0E94680ECF5FC031D1F7CF910895FC
:101D3000AF92BF92CF92DF92EF92FF920F931F93D9
:101D4000CF93DF93CDE9CC2EC4E0DC2EDDE5ED2E84
:101D5000D4E0FD2EC0E8D2E0F60161916F01CE0122
:101D60000E94A20C5E01F0E7AF1AF2E0BF0A8E01FA
:101D700000581240F701E00FF11F6081C8018F5732
:101D80009D4F0E94A20C0F5F1F4F0A151B0591F774
:101D9000649684E0E81AF108C03DE2E0DE07E1F66F
:101DA000DF91CF911F910F91FF90EF90DF90CF9037
:101DB000BF90AF900895EF92FF920F931F93CF9330
:101DC000DF9398E2899F7001112496E2899F800138
:101DD000112400511E4FC0E0D0E0CE018E0D9F1D9A
:101DE0000E94B82BF801EC0FFD1F80832196C632AC
:101DF000D10599F7DF91CF911F910F91FF90EF904F
:101E00000895CF93C0E08C2F0E94DB0ECF5FC031CE
:101E1000D1F7CF910895AF92BF92CF92DF92EF9218
:101E2000FF920F931F93CF93DF931DE9C12E14E010
:101E3000D12E0DE5E02E04E0F02EC0E0D0E0CE0182
:101E400080589D4F0E94B82BF60181936F018E013F
:101E50005E01F0E1AF0EB11CC8018F579D4F0E948B
:101E6000B82BF701E00FF11F80830F5F1F4F0A159A
:101E70001B0591F7649684E0E81AF108C035D10596
:101E8000F1F6DF91CF911F910F91FF90EF90DF90CE
:101E9000CF90BF90AF9008950E94100E0E94200E28
:101EA0000E948E0E0E943D0E0E94980E0E94E1023A
:101EB00084EE92E00C94FD02663248F496E2899F2B
:101EC000F0011124E60FF11DE051FE4F4083909187
:101ED000A304891302C00C94CC0C0895262F64E14E
:101EE0000E943B2BE82FF0E0911103C0E356FB4F1B
:101EF0000AC084E0EE0FFF1F8A95E1F7E35AFB4F1B
:101F0000E90FF11D319720830895962F803110F449
:101F10000C945C0F803121F4642F892F0C946E0F88
:101F20008131A1F42BEA629F212D11242695822F65
:101F3000880F820F981B30E0F901EE0FFF1FE20FB0
:101F4000F31FE90FF11DEB5AFE4F408308958031D6
:101F500010F40C94DB0E803111F40C940B0F8131D2
:101F600031F0833641F40E94010F0E940B0F84EE82
:101F700092E00C942A030895803118F40E94680EB0
:101F800011C0803119F40E94980E0CC0813131F0DB
:101F9000833641F40E948E0E0E94980E84EE92E0E9
:101FA0000E94FD0224E040E860E880E80E94900D75
:101FB00024E040E060E080E80E94900D24E040E8EA
:101FC00060E880E80C94900D811105C08091A30415
:101FD00090E00F9606C0813049F48091A30490E010
:101FE00001968F7099278093A30404C0823021F456
:101FF0006093A3040C94CC0C8A3009F034C06111B6
:102000000AC088E10FB6F8948093600010926000D7
:102010000FBE82ED17C0613051F488E10FB6F8941D
:1020200080936000109260000FBE84ED0BC06230A0
:1020300061F488E10FB6F89480936000109260001C
:102040000FBE83ED8093F804089528E088E190E0C6
:102050000FB6F894A895809360000FBE209360009F
:102060001092F8040895843121F46093FC044093A5
:10207000FB040895CF92DF92EF92FF928091EE04DD
:10208000811107C0C12CD12C78EAE72E71E4F72E1C
:1020900006C0C12CD12C60E8E62E64E4F62E6091D7
:1020A000E7047091E804882777FD8095982F0E94B7
:1020B0009E29A70196010E9408296093DF0470936E
:1020C000E0048093E1049093E2046091E504709150
:1020D000E604882777FD8095982F0E949E29A70106
:1020E00096010E9408296093DB047093DC048093BE
:1020F000DD049093DE046091E3047091E40488278A
:1021000077FD8095982F0E949E29A70196010E9435
:1021100008296093D7047093D8048093D9049093CE
:10212000DA04FF90EF90DF90CF9008956F927F9246
:102130008F929F92AF92BF92CF92DF92EF92FF92D7
:102140000F931F93CF93DF93C090C704D090C80420
:10215000E090C904F090CA047090A5046090A404B3
:10216000E3E0AE2EE1E0BE2EC6EAD4E002EB14E0DE
:1021700099249394812CF5012191319141915191B0
:102180005F01C701B6010E94732A18166CF4F801AA
:1021900010822881822F90E0843691051CF081E026
:1021A000820F01C084E68883F80180818F5F81936C
:1021B0008F01871508F018828991681608F4892C18
:1021C0009394FDE09F12D7CF8092BE04DF91CF9110
:1021D0001F910F91FF90EF90DF90CF90BF90AF9045
:1021E0009F908F907F906F9008950E9474246093C9
:1021F00002057093030580930405909305050895E7
:10220000CF93DF93D82FC62F682F83ED95E00E94E0
:1022100098266C2F83ED95E00E949826C63278F4BC
:1022200086E2D89FF0011124EC0FF11DE051FE4F22
:10223000608183ED95E0DF91CF910C94982660E06A
:1022400070E083ED95E0DF91CF910C94BE0CCF93BD
:10225000DF93D82FC0E06C2F8D2F0E940011CF5F2D
:10226000C632C9F7DF91CF9108951F93CF93DF93C3
:10227000D82F64E10E943B2B182FC92F60E170E03A
:1022800083ED95E00E94BE0C6D2F83ED95E00E94DA
:102290009826E12FF0E0C11103C0E356FB4F0AC0BE
:1022A000A4E0EE0FFF1FAA95E1F7E35AFB4FEC0FF6
:1022B000F11D3197608183ED95E0DF91CF911F9102
:1022C0000C949826CF93DF93D0E0C0E08C2F8D0F35
:1022D0000E943511CF5FC131C9F7DC5ED035A9F757
:1022E000DF91CF910895CF93C82F61E170E083ED26
:1022F00095E00E94BE0C6C2F83ED95E00E9498261D
:102300008C2F63E00E943B2B292F8BEAC89F812DE5
:102310001124869590E0FC01EE0FFF1FE80FF91FD6
:10232000E20FF11DEB5AFE4F608183ED95E0CF91F6
:102330000C949826803110F40C940011803119F41B
:10234000862F0C943511813119F4862F0C9473115A
:102350000895CF93C0E08C2F0E947311CF5FC039D6
:10236000D1F7CF910895CF93DF93C82F68EC70E039
:1023700083ED95E00E94BE0C6C2F83ED95E00E94EA
:1023800098266091A30483ED95E00E949826C031C1
:1023900020F48C2F0E94271116C0C03119F40E941E
:1023A000621111C0C13119F40E94A9110CC0C336C9
:1023B00051F40E94A911D0E08D2F0E942711DF5FF8
:1023C000D031D1F7ECCF69EC70E083ED95E00E945D
:1023D000BE0C6C2F83ED95E00E9498266091A304BB
:1023E00083ED95E0DF91CF910C9498260F931F9386
:1023F000CF93DF931F92CDB7DEB783ED95E00E94B8
:102400001A260497D4F183ED95E00E943326082F15
:1024100083ED95E00E943326182F83ED95E00E940E
:102420003326682F83ED95E069830E943326482F79
:102430006981043421F4812F0E94B311DECF0C3462
:1024400021F4812F0E94A70FD8CF033521F4812FCB
:102450000E94BC0FD2CF023521F4812F0E949A1125
:10246000CCCF073521F4812F0E94850FC6CF0835C8
:1024700021F6812F0E94E40FC0CF0F90DF91CF9102
:102480001F910F910895BF92CF92DF92EF92FF922A
:102490000F931F93CF93DF938091E9046091EB0436
:1024A0000E943B2B892F90E08D30910508F022C3CC
:1024B000FC01EE58FF4F0C94912B6091EC0470914D
:1024C000ED0486E095E00E9479218091EE0481116F
:1024D00003C060E070E002C061E070E086E095E07B
:1024E0000E94C50C60E086E095E00E947B2102C35B
:1024F0008091EE046091EC047091ED04811103C0B1
:1025000043E050E002C046E050E086E095E00E94E3
:102510006C21F0C28091EE0481114FC086E095E0FD
:102520000E94BE20892B41F086E095E00E94C620E3
:102530009093E8048093E7048091E7049091E80485
:102540008032910514F0805491099093E8048093AF
:10255000E70486E095E00E94BE20892B41F086E0EA
:1025600095E00E94C6209093E6048093E504809154
:10257000E5049091E6048032910514F080549109AD
:102580009093E6048093E50486E095E00E94BE20E7
:10259000892B41F086E095E00E94C6209093E404E8
:1025A0008093E3048091E3049091E40480329105E8
:1025B0000CF4AAC080549109A7C086E095E00E945F
:1025C000BE20892B69F086E095E00E94C62034E0A9
:1025D000880F991F3A95E1F79093E6048093E504FC
:1025E00086E095E00E94BE20892B99F086E095E078
:1025F0000E94C62024E0959587952A95E1F72091C1
:10260000E5043091E604282B392B3093E60420931F
:10261000E5048091E5049091E604811528E0920795
:102620000CF090519093E6048093E50486E095E0E9
:102630000E94BE20892B69F086E095E00E94C620AA
:1026400004E0880F991F0A95E1F79093E8048093BE
:10265000E70486E095E00E94BE20892B99F086E091
:1026600095E00E94C62014E0959587951A95E1F7AC
:102670002091E7043091E804282B392B3093E804AB
:102680002093E7048091E7049091E8048115A8E085
:102690009A070CF090519093E8048093E70486E049
:1026A00095E00E94BE20892B69F086E095E00E94AB
:1026B000C620D4E0880F991FDA95E1F79093E404DF
:1026C0008093E30486E095E00E94BE20892B99F078
:1026D00086E095E00E94C620C4E095958795CA954E
:1026E000E1F72091E3043091E404282B392B309357
:1026F000E4042093E3048091E3049091E4048115C1
:10270000B8E09B070CF090519093E4048093E304AD
:10271000F1C10E943A10EEC16091DF047091E004B3
:102720008091E1049091E2049B01AC010E947E2A19
:102730006093D3047093D4048093D5049093D6040B
:102740006091DB047091DC048091DD049091DE04E3
:102750009B01AC010E947E2A6093CF047093D00449
:102760008093D1049093D2046091D7047091D804DF
:102770008091D9049091DA049B01AC010E947E2AD9
:102780006093CB047093CC048093CD049093CE04DB
:10279000B1C12091CF043091D0044091D104509127
:1027A000D2046091D3047091D4048091D5049091A7
:1027B000D6040E943E282091CB043091CC04409155
:1027C000CD045091CE040E943E280E94E52A6093D9
:1027D000C7047093C8048093C9049093CA048AC143
:1027E0000E94961087C12091CB043091CC04409177
:1027F000CD045091CE046091CF047091D0048091AB
:10280000D1049091D2040E943E280E94E52A15C06E
:102810002091C3043091C4044091C5045091C60472
:102820008091DF049091E004A091E104B091E20472
:10283000BC01CD0190580E94B1286093C3047093ED
:10284000C4048093C5049093C60454C120E030E0D2
:1028500044E353E46091C3047091C4048091C504BF
:102860009091C6040E947E2A2BED3FE049E450E49B
:102870000E940829E2CF2091D7043091D8044091DA
:10288000D9045091DA048091DB049091DC04A0918A
:10289000DD04B091DE04BC01CD0190580E94B12846
:1028A00014C020E030E044E353E46091BF04709131
:1028B000C0048091C1049091C2040E947E2A2BED35
:1028C0003FE049E450E40E9408296093BF047093FC
:1028D000C0048093C1049093C2040CC10091EE0126
:1028E0001091EF01F8018081882309F403C1B090B1
:1028F0005C04813009F03FC09181911113C0B11087
:1029000006C09091BE049C3010F080935C048091CE
:102910005C04813009F0EEC08091BE04893008F07B
:10292000E9C026C0913099F4B11006C08091BE0470
:10293000883010F090935C0480915C04813009F041
:10294000D9C08091BE04863008F0D4C011C0B11047
:1029500006C09091BE04923010F080935C04809188
:102960005C04813009F0C6C08091BE048111C2C0F0
:1029700010925C04BFC0C0915A04D0915B04B110A6
:1029800046C09091BE04933008F09EC0823069F436
:1029900020E030E046E952EC6091C3047091C40439
:1029A0008091C5049091C6047EC08330B9F4C09074
:1029B000BF04D090C004E090C104F090C20420E0B5
:1029C00030E040EA52ECC701B6010E94042987FFBB
:1029D0006EC020E030E048EC52EC16C0C090D70446
:1029E000D090D804E090D904F090DA0426E636E6D8
:1029F00046E65FEBC701B6010E94042987FF57C076
:102A00002DEC3CEC4CE85FEBC701B60116C0F1E0E1
:102A1000BF125AC09091BE04933008F055C0823066
:102A200089F420E030E046E952E46091C3047091FB
:102A3000C4048091C5049091C6040E94732A18169C
:102A4000DCF135C08330B9F4C090BF04D090C0042D
:102A5000E090C104F090C20420E030E040EA52E48B
:102A6000C701B6010E94732A18160CF520E030E069
:102A700048EC52E416C0C090D704D090D804E0903F
:102A8000D904F090DA0426E636E646E65FE3C701AD
:102A9000B6010E94732A181654F42DEC3CEC4CE855
:102AA0005FE3C701B6010E94042987FD05C088279E
:102AB00099278C1B9D0B02C081E090E0C80FD91FA5
:102AC000D0935B04C0935A04D8011196EC91F0E0C6
:102AD000E050FF4F808190E020915A0430915B04D8
:102AE000821793073CF481E0B11080E080935C048E
:102AF000F80111828091E9048F5F8093E90490913D
:102B0000EA04891710F01092E904DF91CF911F9128
:102B10000F91FF90EF90DF90CF90BF9008956DE1FF
:102B200070E086E095E00E9479216DE070E086E03B
:102B300095E00E94C50C60E086E095E00E947B2154
:102B400041E050E06DE170E086E095E00E946C218C
:102B500086E095E00E94BE20892BB9F086E095E0E2
:102B60000E94C6208F7E8A3481F481E08093EE0437
:102B70008DE190E09093ED048093EC0484E18093E8
:102B8000EB048093EA048AE00FC01092EE048CE418
:102B900090E09093ED048093EC0480E18093EB044B
:102BA0008DE78093EA0488E08093A5048093A404D1
:102BB0000895CF93DF93D82FC62F6091EC047091C6
:102BC000ED0486E095E00E9479216D2F86E095E086
:102BD0000E9416216C2F86E095E00E94162186E067
:102BE00095E0DF91CF910C948E218091EE0460E00E
:102BF00081110AC087E00E94D91561E088E00E9437
:102C0000D91561E087E00DC08AE20E94D91560E025
:102C10008EE00E94D91568E18BE20E94D91561E22D
:102C20008AE20C94D91586E095E00E945521109215
:102C3000F8041092F90460E082E00E94822542E0EC
:102C400050E061EA7CE080E00E94A0238FEF93E0F7
:102C50000E94B82B8823A1F060E08FEF93E00E94E0
:102C6000A20C21E030E040E050E06AE070E084E552
:102C700091E00E948A0284E68093F8048093F9042C
:102C800080E00E94C0238CEF93E00E94B82B8A3230
:102C900041F00E944C0F6AE28CEF93E00E94A20C7C
:102CA00008C00E94010F0E940B0F84EE92E00E9468
:102CB0002A0326E040E051EE60E070E083ED95E00D
:102CC0000E94FD268DEF93E00E94B82B8093A20412
:102CD00061E089E00E94822561E086E00E94822511
:102CE00061E085E00E94822561E081E10E94822509
:102CF00061E081E10E94BB250E948F150E94F515BD
:102D0000F89410927A0085B5887F816085BD8091A6
:102D10008100887F8160809381008091810088603C
:102D200080938100789468E270E080E090E00E94F7
:102D3000972480E00E94EC0D64E670E083ED95E05E
:102D40000E94BE0C6091A30483ED95E00E9498263A
:102D500060E070E083ED95E00E94BE0C0E94742458
:102D60006093020570930305809304059093050515
:102D700028E088E190E00FB6F894A8958093600071
:102D80000FBE2093600008958091EE0460E08111F1
:102D900002C087E001C08AE20C94D91540E060E0EF
:102DA00080E00E94550D0E94C41661E08FEF93E011
:102DB0000E94A20C60E081E10E94BB2560E07AEFF6
:102DC00080E090E00C9497248091F904811103C075
:102DD0000E94F30CDEC08A3031F58091F704811136
:102DE00006C080EC809301051092000519C0813067
:102DF00031F4109201051092000580ECC1C08230C0
:102E000031F480E88093010510920005B9C010925A
:102E10000105833011F480E838C080EC8093000510
:102E20001092FF04B6C09CEE980F9A30C8F4E0915F
:102E3000EE01F091EF018091FA0490915C0420E1A1
:102E4000929FE00DF11D1124E80FF11D2FEF34E0EA
:102E500040E055E061E075E086810E94570399C02B
:102E60008E3109F4B5CF883209F4B2CF9EEC980FB9
:102E70009A3008F047C0E091EE01F091EF018081B7
:102E8000811106C080E6809301058093000578C01B
:102E9000813031F480E3809301051092000515C064
:102EA000823041F4109201051092000580E3809376
:102EB000FF040DC0833021F488E28093010503C034
:102EC0001092010580E3809300051092FF04818138
:102ED00090910105082E01C0990F0A94EAF790938A
:102EE000010590910005082E01C0990F0A94EAF798
:102EF000909300059091FF0401C0990F8A95EAF71D
:102F0000892F3EC08C3309F463CF863409F460CF37
:102F10008E3641F480E8809301051092FF041092F0
:102F2000000537C09EE2980F923008F451CF843DDF
:102F300051F58091FC0490E02091FB04FC01EE0F20
:102F4000FF1FE80FF91FEB5AFE4F808190E0022E21
:102F500002C0959587950A94E2F7809301058181D7
:102F600090E0022E02C0959587950A94E2F780932F
:102F70000005828190E002C0959587952A95E2F739
:102F80008093FF0406C01092FF0410920005109277
:102F900001058091FE04882331F18091FD0488238E
:102FA00011F12091EF043091F0044091F10450911F
:102FB000F2046091F3047091F4048091F50490910F
:102FC000F60420343E474105510561057105810530
:102FD000910519F010F00E94CE161092FF04109285
:102FE0000005109201050895CF93C82F9091F90420
:102FF000923309F493C408F04FC09D3009F4C5C260
:1030000010F5943009F45BC168F4913009F4CEC036
:1030100008F4AFC0923009F42FC1933009F491C184
:103020000C945E209A3009F414C228F4953009F407
:10303000C8C10C945E209B3009F428C29C3009F46E
:1030400053C20C945E209F3109F482C388F49531F9
:1030500009F4D7C228F4943109F4B6C20C945E2066
:10306000963109F409C39E3109F455C30C945E20CE
:10307000983209F4FAC340F4903209F498C39132BB
:1030800009F4D3C30C945E20993209F40BC49A322C
:1030900009F43EC40C945E20943609F49DC628F5CC
:1030A0009E3309F42BC568F4943309F484C408F4FE
:1030B00052C49C3309F4D6C49D3309F4F0C40C9473
:1030C0005E20973409F4E3C540F49F3309F45FC5EB
:1030D000963409F49AC50C945E20983409F40DC610
:1030E000993409F459C60C945E209F3609F46CC7D4
:1030F00060F4963609F40DC708F4CDC6973609F486
:10310000D9C09E3609F443C7D9C7993C09F4AEC764
:1031100058F5983709F4CDC7983C09F0CFC721E09E
:1031200040E860E880E80E94900D21E040E060E027
:1031300080E80E94900D21E040E860E880E80E946D
:10314000900D21E040E060E880E00E94900D21E0D9
:1031500040E860E880E80E94900D8091A3040E94FE
:10316000680E1092F804ACC7925D933008F4A8C7BB
:10317000A5C7882309F4A4C72091EF043091F00477
:103180004091F1045091F2046091F3047091F404C1
:103190008091F5049091F604A3E60E94AC2B09F00F
:1031A00008F48EC781E08093F8048AC7E091FE049A
:1031B0002091EF043091F0044091F1045091F20419
:1031C0006091F3047091F4048091F5049091F604F9
:1031D000EE23E1F1283B3B404105510561057105B6
:1031E0008105910531F425E040E860E080E00E942F
:1031F000900DC11109C08091FD0491E08927809351
:10320000FD041092F8045CC72091EF043091F004A3
:103210004091F1045091F2046091F3047091F40430
:103220008091F5049091F604273B3B404105510500
:10323000610571058105910509F008F441C71092F7
:10324000FD041092FE041092F8043AC7233F314067
:1032500041055105610571058105910529F020F0B1
:1032600082E08093F8042CC7C1112AC781E00E9434
:10327000EC0D1092F80424C72091EF043091F00473
:103280004091F1045091F2046091F3047091F404C0
:103290008091F5049091F604273E33404105510595
:1032A000610571058105910529F020F084E0809386
:1032B000F80406C7C11104C70E94CE1601C72091A9
:1032C000EF043091F0044091F1045091F2046091C8
:1032D000F3047091F4048091F5049091F604A0E059
:1032E0000E94AC2B31F425E040E860E080E00E94D1
:1032F000900D2091EF043091F0044091F104509131
:10330000F2046091F3047091F4048091F5049091BB
:10331000F604273E334041055105610571058105DD
:10332000910529F020F083E08093F804C9C6C1110B
:10333000C7C681E08093FE041092FD041092F80449
:10334000BFC62091EF043091F0044091F1045091F8
:10335000F2046091F3047091F4048091F50490916B
:10336000F604A0E00E94AC2B31F425E040E060E8D8
:1033700080E80E94900D2091EF043091F00440917C
:10338000F1045091F2046091F3047091F40480917F
:10339000F5049091F604273E33404105510561053F
:1033A00071058105910529F020F085E08093F804EE
:1033B00087C6C11185C61092F7048AE08093F8048D
:1033C0007FC62091EF043091F0044091F1045091B8
:1033D000F2046091F3047091F4048091F5049091EB
:1033E000F604A0E00E94AC2B31F425E040E060E060
:1033F00080E80E94900D2091EF043091F0044091FC
:10340000F1045091F2046091F3047091F4048091FE
:10341000F5049091F604283E3340410551056105BD
:1034200071058105910559F050F025E040E860E80C
:1034300080E80E94900D82E08093F80441C6C1119B
:103440003FC661E08EEF93E00E94A20C0E94CE1670
:1034500037C6882309F434C62091EF043091F00474
:103460004091F1045091F2046091F3047091F404DE
:103470008091F5049091F604A4E60E94AC2B09F02B
:1034800008F41EC68BE08093F8041AC62091EF045E
:103490003091F0044091F1045091F2046091F304F2
:1034A0007091F4048091F5049091F604273E334026
:1034B00041055105610571058105910529F020F04F
:1034C0008CE08093F804FCC5C111FAC58091F70423
:1034D00090E0019665E070E00E945B2B8093F7041A
:1034E0008AE08093F804ECC52091EF043091F00459
:1034F0004091F1045091F2046091F3047091F4044E
:103500008091F5049091F604A0E00E94AC2B31F478
:1035100025E040E060E880E80E94900D2091EF04F3
:103520003091F0044091F1045091F2046091F30461
:103530007091F4048091F5049091F604273E334095
:1035400041055105610571058105910529F020F0BE
:103550008DE08093F804B4C5C111B2C58091F70421
:10356000823030F480935C0484E18093F804A8C531
:10357000843038F4817080935C0488E28093F8048E
:103580009FC582E38093F8049BC52091EF0430919E
:10359000F0044091F1045091F2046091F3047091B1
:1035A000F4048091F5049091F604A0E00E94AC2B05
:1035B00031F425E040E860E880E80E94900DC111F8
:1035C0007FC51092F8047CC5882309F479C5209141
:1035D000EF043091F0044091F1045091F2046091B5
:1035E000F3047091F4048091F5049091F604A4E63C
:1035F0000E94AC2B09F008F463C585E18093F804C0
:103600005FC52091EF043091F0044091F104509196
:10361000F2046091F3047091F4048091F5049091A8
:10362000F604283E334041055105610571058105C9
:10363000910529F020F086E18093F80441C5C1117D
:103640003FC5E091EE01F091EF0190915C04809113
:10365000FA0420E1929FE00DF11D1124E80FF11D05
:10366000868190E0019660E370E00E945B2B868388
:1036700084E18093F80424C52091EF043091F00494
:103680004091F1045091F2046091F3047091F404BC
:103690008091F5049091F604283E33404105510590
:1036A000610571058105910521F118F1E091EE01A7
:1036B000F091EF0190915C048091FA0420E1929FD7
:1036C000E00DF11D1124E80FF11D8681805C8683D9
:1036D0001092EF041092F0041092F1041092F20490
:1036E0001092F3041092F4041092F5041092F60470
:1036F000E7C4C111E5C4E091EE01F091EF018091C2
:103700005C04E80FF11D8091FA048F5F84838EE1E1
:103710008093F804D5C4882309F4D2C42091EF041F
:103720003091F0044091F1045091F2046091F3045F
:103730007091F4048091F5049091F604A4E60E943F
:10374000AC2B09F008F4BCC48FE18093F804B8C432
:103750002091EF043091F0044091F1045091F20473
:103760006091F3047091F4048091F5049091F60453
:10377000283E3340410551056105710581059105DC
:1037800029F020F080E28093F8049AC4C11198C413
:103790008091FA048F5F8093FA04803120F088ECE6
:1037A0008093F8048DC484E18093F80489C4209147
:1037B000EF043091F0044091F1045091F2046091D3
:1037C000F3047091F4048091F5049091F604A0E064
:1037D0000E94AC2B31F425E040E060E080E80E94DC
:1037E000900D2091EF043091F0044091F10450913C
:1037F000F2046091F3047091F4048091F5049091C7
:10380000F604283E334041055105610571058105E7
:10381000910529F020F081E28093F80451C4C11190
:103820004FC484E18093F8044BC42091EF0430919D
:10383000F0044091F1045091F2046091F30470910E
:10384000F4048091F5049091F604A0E00E94AC2B62
:1038500031F425E040E860E880E80E94900DC11155
:103860002FC488EC8093F8042BC4882309F428C45F
:103870002091EF043091F0044091F1045091F20452
:103880006091F3047091F4048091F5049091F60432
:10389000A4E60E94AC2B09F008F412C489E28093DC
:1038A000F8040EC42091EF043091F0044091F1042B
:1038B0005091F2046091F3047091F4048091F50446
:1038C0009091F604283E334041055105610571058C
:1038D0008105910529F020F08AE28093F804F0C375
:1038E000C111EEC3E091EE01F091EF0180915C0413
:1038F000E80FF11D828190E001966EE370E00E9476
:103900005B2B82830E94CC0C88E28093F804D8C39E
:103910008111D6C388EC8093F804D2C3882309F4BC
:10392000CFC32091EF043091F0044091F104509105
:10393000F2046091F3047091F4048091F504909185
:10394000F604A4E60E94AC2B09F008F4B9C383E3A3
:103950008093F804B5C32091EF043091F0044091B6
:10396000F1045091F2046091F3047091F404809199
:10397000F5049091F604283E334041055105610558
:1039800071058105910529F020F084E38093F80406
:1039900097C3C11195C3E091EE01F091EF018081D1
:1039A00090E0019665E070E00E945B2B808382E3EB
:1039B0008093F80485C32091EF043091F004409186
:1039C000F1045091F2046091F3047091F404809139
:1039D000F5049091F604A0E00E94AC2B31F425E0B0
:1039E00040E860E880E80E94900D2091EF0430915B
:1039F000F0044091F1045091F2046091F30470914D
:103A0000F4048091F5049091F604283E334041057A
:103A100051056105710581059105F1F0E8F0E0912E
:103A2000EE01F091EF01818190E0019663E070E09A
:103A30000E945B2B81831092EF041092F00410928D
:103A4000F1041092F2041092F3041092F404109214
:103A5000F5041092F60434C3C11132C388EC80938C
:103A6000F8042EC3882309F42BC32091EF0430916E
:103A7000F0044091F1045091F2046091F3047091CC
:103A8000F4048091F5049091F604A4E60E94AC2B16
:103A900009F008F415C38DE38093F80411C3209155
:103AA000EF043091F0044091F1045091F2046091E0
:103AB000F3047091F4048091F5049091F604283E8B
:103AC000334041055105610571058105910529F0D6
:103AD00020F08EE38093F804F3C2C111F1C280910B
:103AE000A20490E00196837099278093A20480E05D
:103AF0000E94EC0D8CE38093F804E2C22091EF0465
:103B00003091F0044091F1045091F2046091F3047B
:103B10007091F4048091F5049091F604A0E00E9465
:103B2000AC2B31F425E040E860E080E00E94900D8D
:103B30002091EF043091F0044091F1045091F2048F
:103B40006091F3047091F4048091F5049091F6046F
:103B5000283E3340410551056105710581059105F8
:103B600029F020F08FE38093F804AAC2C111A8C203
:103B700025E040E860E880E80E94900D6091A20492
:103B80008DEF93E00E94A20C1092F80499C220914C
:103B9000EF043091F0044091F1045091F2046091EF
:103BA000F3047091F4048091F5049091F604A0E080
:103BB0000E94AC2B31F425E040E060E880E80E94F0
:103BC000900D2091EF043091F0044091F104509158
:103BD000F2046091F3047091F4048091F5049091E3
:103BE000F604283E33404105510561057105810504
:103BF000910529F020F08EE38093F80461C2C11191
:103C00005FC286E48093F8045BC22091EF04309198
:103C1000F0044091F1045091F2046091F30470912A
:103C2000F4048091F5049091F604A0E00E94AC2B7E
:103C300089F48091A104E091A20420E1E29FF001C7
:103C40001124E80FF11DE35AFB4F80818093A304F8
:103C50000E94CC0CCC2309F433C22091EF043091A4
:103C6000F0044091F1045091F2046091F3047091DA
:103C7000F4048091F5049091F604A4E60E94AC2B24
:103C800009F008F41DC287E48093F80419C220915A
:103C9000EF043091F0044091F1045091F2046091EE
:103CA000F3047091F4048091F5049091F604283E99
:103CB000334041055105610571058105910529F0E4
:103CC00020F088E48093F804FBC1C111F9C1E091B0
:103CD000A2048091A10420E1E29FF0011124E80FE9
:103CE000F11DE35AFB4F808190E001968F70992778
:103CF000808386E48093F804E3C12091EF0430913F
:103D0000F0044091F1045091F2046091F304709139
:103D1000F4048091F5049091F604A0E00E94AC2B8D
:103D200031F425E040E860E080E80E94900D2091A9
:103D3000EF043091F0044091F1045091F20460914D
:103D4000F3047091F4048091F5049091F604283EF8
:103D5000334041055105610571058105910529F043
:103D600020F089E48093F804ABC1C111A9C180910E
:103D7000A1048F5F8093A104E091A204F0E0E356D8
:103D8000FB4F8083803120F089EC8093F80498C148
:103D900086E48093F80494C12091EF043091F004FC
:103DA0004091F1045091F2046091F3047091F40495
:103DB0008091F5049091F604A0E00E94AC2B31F4C0
:103DC00025E040E860E880E80E94900DC11178C1CC
:103DD00089EC8093F80474C18EEF93E00E94B82BB5
:103DE0002091EF043091F0044091F1045091F204DD
:103DF0006091F3047091F404E091F5049091F6045D
:103E00008823A9F18E2F283B3B40410551056105D0
:103E100071058105910531F425E040E060E880E01E
:103E20000E94900DC1114CC12091EF043091F0041B
:103E30004091F1045091F2046091F3047091F40404
:103E40008091F5049091F604283B3B4041055105D3
:103E5000610571058105910509F008F42DCA60E03E
:103E60008EEF93E00E94A20C1092F80429C18E2FCD
:103E7000273E3340410551056105710581059105D6
:103E800029F020F085E68093F8041AC1C11118C109
:103E90001092F80415C12091EF043091F004409184
:103EA000F1045091F2046091F3047091F404809154
:103EB000F5049091F604A0E00E94AC2B31F425E0CB
:103EC00040E860E080E00E94900D2091EF04309186
:103ED000F0044091F1045091F2046091F304709168
:103EE000F4048091F5049091F604283B3B40410591
:103EF0005105610571058105910529F020F086E6DF
:103F00008093F804DDC0C111DBC08CE38093F8041A
:103F1000D7C02091EF043091F0044091F10450910A
:103F2000F2046091F3047091F4048091F50490918F
:103F3000F604A0E00E94AC2B31F425E040E060E004
:103F400080E80E94900D2091EF043091F0044091A0
:103F5000F1045091F2046091F3047091F4048091A3
:103F6000F5049091F604283B3B404105510561055D
:103F700071058105910529F020F087E68093F8040A
:103F80009FC0C1119DC08EE68093F80499C088231C
:103F900009F496C02091EF043091F0044091F104AF
:103FA0005091F2046091F3047091F4048091F5044F
:103FB0009091F604A4E60E94AC2B09F008F480C0AE
:103FC0008FE68093F8047CC02091EF043091F004D8
:103FD0004091F1045091F2046091F3047091F40463
:103FE0008091F5049091F604273B3B404105510533
:103FF000610571058105910509F008F45BC921E0AF
:1040000040E060E080E80E94900D21E040E860E040
:1040100080E00E94900D21E040E060E080E80E9496
:10402000900D21E040E860E080E00E94900D21E0EA
:1040300040E060E080E80E94900D88E10FB6F894BF
:1040400080936000109260000FBE0E944C0F28E029
:1040500088E190E00FB6F894A895809360000FBEB9
:104060002093600088E78093F8042AC021E040E8AC
:1040700060E880E80E94900D21E040E060E080E888
:104080000E94900D21E040E860E880E80E94900DD9
:1040900021E040E860E080E00E94900D21E040E8EF
:1040A00060E880E80E94900D0E94980E1092F8043B
:1040B00007C0811105C01092F80402C01092F804E4
:1040C0008091F8049091F904981799F08093F9047D
:1040D0001092EF041092F0041092F1041092F20486
:1040E0001092F3041092F4041092F5041092F60466
:1040F00023C02091EF043091F0044091F1045091DD
:10410000F2046091F3047091F4048091F5049091AD
:10411000F604A1E00E94A02B2093EF043093F0045A
:104120004093F1045093F2046093F3047093F40409
:104130008093F5049093F604CF91089582E00E9455
:10414000F12521E0892B09F020E0822F0E94F4174D
:104150000E94F6118091F9049FEF980F913D10F4A1
:104160008C3311F40E9443120E94E4164091FF0424
:1041700060910005809101050C94550D80913605E4
:1041800090E020913705821B910908952091370511
:1041900080913605281750F4E22FF0E0E85CFA4FE2
:1041A000808190E02F5F2093370508958FEF9FEF78
:1041B0000895E091370580913605E81730F4F0E076
:1041C000E85CFA4F808190E008958FEF9FEF0895AB
:1041D0000895CF92DF92EF92FF920F931F93CF93A8
:1041E000DF937C01CB018A0120911205222389F003
:1041F000EB016B01C40ED51ECC15DD0569F069918C
:10420000D701ED91FC910190F081E02DC701099556
:10421000F3CF642F0E944A22C801DF91CF911F91F2
:104220000F91FF90EF90DF90CF900895CF93DF93A1
:104230001F92CDB7DEB76983209112052223D1F0FA
:1042400020911305203240F021E030E0FC0133835F
:10425000228380E090E015C080911405E82FF0E003
:10426000EB5EFA4F998190838F5F80931405809362
:10427000130505C061E0CE0101960E944A2281E04B
:1042800090E00F90DF91CF910895FC01138212828C
:1042900048EE53E060E070E04483558366837783A3
:1042A00087E391E0918380830895109237051092FF
:1042B000360510921405109213050C949521862F43
:1042C000413208F040E268E375E00E94B3211092A9
:1042D000370580933605089521E00C945F2181E035
:1042E0008093120560933505109214051092130502
:1042F00008950C946F210F93062F21E04091130530
:1043000065E175E0809135050E94F7211092140552
:1043100010921305109212050F91089561E00C940C
:104320007B2186E095E00C9445211092C50581E043
:104330008093C3051092C20561E082E10E94BB2513
:1043400061E083E10E94BB25E9EBF0E080818E7F94
:10435000808380818D7F80838CE08093B80085E4AA
:104360008093BC000895413208F03FC09091C5058C
:104370009111FCCF91E09093C5052093C3052FEFD9
:104380002093580510929D05240F20939C0590932F
:10439000C4059091C405880F892B8093C405809132
:1043A000C205813041F41092C2058091C40580930A
:1043B000BB0085EC01C085EE8093BC008091C505F3
:1043C0008130E1F380919D05841710F440919D05A3
:1043D0002EE935E0FB01D9018A2F821B841718F4DE
:1043E0008D918193F9CF842F089580E008950F93E4
:1043F000413208F046C09091C5059111FCCF92E082
:104400009093C5050093C3059FEF909358051092B4
:104410009D0540939C05FB016EE975E0DB019A2F39
:10442000961B941718F491919D93F9CF1092C4059F
:104430009091C405880F892B8093C4058091C20593
:10444000813041F41092C2058091C4058093BB0075
:1044500085EC01C085EE8093BC00222321F0809181
:10446000C5058230E1F3809158058F3F61F080915E
:104470005805803251F080915805803341F483E033
:1044800007C081E005C080E003C082E001C084E095
:104490000F910895613298F42091C505243089F474
:1044A00060937A05FC018CE795E0DC012A2F281B3C
:1044B000261718F421912D93F9CF80E0089581E01B
:1044C000089582E0089585ED8093BC008091BC0042
:1044D00084FDFCCF1092C505089585EC8093BC0047
:1044E0001092C50508951F920F920FB60F921124D6
:1044F0002F933F934F935F936F937F938F939F93EC
:10450000AF93BF93EF93FF938091B900887F80367C
:1045100009F49CC068F5883209F45BC090F48031DE
:1045200009F454C038F4882309F4F5C0883009F43C
:104530004DC0F5C0883109F44CC0803209F45DC02B
:10454000EEC0803409F468C048F4803309F455C0E3
:10455000883309F0E4C080935805A8C0803509F479
:104560004FC0883509F45DC0883409F0D8C0D5C083
:10457000883909F4C6C0A8F4883709F467C038F44C
:10458000883609F463C0803709F460C0C8C0883831
:1045900009F4B7C0803909F45FC0803809F0BFC0A2
:1045A0005BC0803B09F485C038F4803A09F466C0EA
:1045B000883A09F47EC0B3C0803C09F4A6C0883CA8
:1045C00009F4A3C0883B09F489C0A9C08091C4053F
:1045D00010C090919D0580919C05981770F5E09111
:1045E0009D0581E08E0F80939D05F0E0E256FA4F25
:1045F00080818093BB0085EC85C0809358058DC079
:10460000E0919D0581E08E0F80939D058091BB0018
:10461000F0E0E256FA4F808390919D0580919C05D1
:104620006DC0E0919D0581E08E0F80939D05809186
:10463000BB00F0E0E256FA4F80838091C305811100
:104640006CC081E08093C20584EA60C083E08093FF
:10465000C50510925905CFCF80915905803208F0D9
:1046600050C0E091590581E08E0F809359058091EB
:10467000BB00F0E0E65AFA4F8083BDCF8091590528
:10468000803230F4E0915905F0E0E65AFA4F10829A
:104690000E9463226091590570E0E091BE05F0919F
:1046A000BF058AE595E00995109259050E946D2293
:1046B00036C084E08093C50510927B0510927A0580
:1046C000E091C005F091C105099580917A058111AD
:1046D00005C081E080937A0510927C05E0917B050E
:1046E00081E08E0F80937B05F0E0E458FA4F8081E3
:1046F0008093BB0090917B0580917A05981708F410
:104700007ACF85E88093BC000AC085EC8093BC001A
:104710001092C50504C0109258050E946322FF91B3
:10472000EF91BF91AF919F918F917F916F915F9129
:104730004F913F912F910F900FBE0F901F901895A2
:104740008230E8F4E82FF0E0EE0FFF1FEA53FA4F53
:1047500071836083813041F0809169008C7F842B6C
:1047600080936900E89A089580916900440F551F6D
:10477000440F551F837F842B80936900E99A089525
:10478000823068F4813011F0E89801C0E998E82F90
:10479000F0E0EE0FFF1FEA53FA4F118210820895E6
:1047A0001F920F920FB60F9211242F933F934F93A6
:1047B0005F936F937F938F939F93AF93BF93EF9389
:1047C000FF938091C6059091C705892B29F0E09150
:1047D000C605F091C7050995FF91EF91BF91AF9183
:1047E0009F918F917F916F915F914F913F912F9109
:1047F0000F900FBE0F901F9018951F920F920FB63B
:104800000F9211242F933F934F935F936F937F9356
:104810008F939F93AF93BF93EF93FF938091C805BE
:104820009091C905892B29F0E091C805F091C9053F
:104830000995FF91EF91BF91AF919F918F917F91DA
:104840006F915F914F913F912F910F900FBE0F90FD
:104850001F9018951F920F920FB60F9211242F934D
:104860003F938F939F93AF93BF938091CB0590918C
:10487000CC05A091CD05B091CE053091CA0523E0BD
:10488000230F2D3720F40196A11DB11D05C026E888
:10489000230F0296A11DB11D2093CA058093CB055D
:1048A0009093CC05A093CD05B093CE058091CF0514
:1048B0009091D005A091D105B091D2050196A11D8E
:1048C000B11D8093CF059093D005A093D105B093EF
:1048D000D205BF91AF919F918F913F912F910F90F2
:1048E0000FBE0F901F9018953FB7F8948091CF0599
:1048F0009091D005A091D105B091D20526B5A89B85
:1049000005C02F3F19F00196A11DB11D3FBF6627BD
:10491000782F892F9A2F620F711D811D911D42E002
:10492000660F771F881F991F4A95D1F70895CF9278
:10493000DF92EF92FF92CF93DF936B017C010E9495
:104940007424EB01C114D104E104F10489F00E9444
:104950003C280E9474246C1B7D0B683E734090F3CE
:1049600081E0C81AD108E108F108C851DC4FEACF4C
:10497000DF91CF91FF90EF90DF90CF9008957894E2
:1049800084B5826084BD84B5816084BD85B5826054
:1049900085BD85B5816085BDEEE6F0E080818160F2
:1049A0008083E1E8F0E010828081826080838081F2
:1049B00081608083E0E8F0E0808181608083E1EBCA
:1049C000F0E0808184608083E0EBF0E080818160B2
:1049D0008083EAE7F0E08081846080838081826068
:1049E0008083808181608083808180688083109251
:1049F000C10008951F93CF93DF93182FEB0161E05F
:104A00000E948225209711F460E004C0CF3FD105B9
:104A100039F461E0812FDF91CF911F910C94BB2578
:104A2000E12FF0E0E05AFB4FE491E330F9F048F475
:104A3000E130B9F0E230A1F584B5806284BDC8BD33
:104A400034C0E730E9F0E83019F1E43049F58091FD
:104A50008000806280938000D0938B00C0938A0096
:104A600024C084B5806884BDC7BD1FC0809180000C
:104A7000806880938000D0938900C093880015C01F
:104A80008091B00080688093B000C093B3000DC0E7
:104A90008091B00080628093B000C093B40005C0E4
:104AA000C038D1050CF0B5CFAFCFDF91CF911F91BA
:104AB0000895833081F028F4813099F08230A1F09C
:104AC00008958730A9F08830B9F08430D1F480910E
:104AD00080008F7D03C0809180008F77809380005D
:104AE000089584B58F7702C084B58F7D84BD089505
:104AF0008091B0008F7703C08091B0008F7D80934C
:104B0000B0000895CF93DF9390E0FC01EC58FB4F89
:104B10002491FC01E857FB4F8491882349F190E0F0
:104B2000880F991FFC01E055FB4FA591B4918A5560
:104B30009B4FFC01C591D4919FB7611108C0F894B7
:104B40008C91209582238C93888182230AC06230C5
:104B500051F4F8948C91322F309583238C93888173
:104B6000822B888304C0F8948C91822B8C939FBFF6
:104B7000DF91CF9108950F931F93CF93DF931F92EF
:104B8000CDB7DEB7282F30E0F901E05AFB4F849112
:104B9000F901EC58FB4F1491F901E857FB4F0491D0
:104BA0000023C9F0882321F069830E945925698177
:104BB000E02FF0E0EE0FFF1FEA55FB4FA591B491F7
:104BC0009FB7F8948C91611103C01095812301C0A7
:104BD000812B8C939FBF0F90DF91CF911F910F91ED
:104BE0000895CF93DF93282F30E0F901E05AFB4F6F
:104BF0008491F901EC58FB4FD491F901E857FB4F30
:104C0000C491CC2391F081110E945925EC2FF0E042
:104C1000EE0FFF1FE456FB4FA591B4912C912D236D
:104C200081E090E021F480E002C080E090E0DF913C
:104C3000CF910895FC01818D228D90E0805C9F4F83
:104C4000821B91098F7399270895FC01918D828DA4
:104C5000981731F0828DE80FF11D858D90E0089551
:104C60008FEF9FEF0895FC01918D828D981761F071
:104C7000828DDF01A80FB11D5D968C91928D9F5F93
:104C80009F73928F90E008958FEF9FEF089587EBC9
:104C900097E2892B49F080E090E0892B29F00E946F
:104CA000B72781110C9400000895FC01848DDF0169
:104CB000A80FB11DA35ABF4F2C91848D90E001968F
:104CC0008F739927848FA689B7892C93A089B1897E
:104CD0008C9180648C93938D848D981306C0028888
:104CE000F389E02D80818F7D80830895CF93DF93BA
:104CF000EC01888D8823C9F0EA89FB89808185FDD4
:104D000005C0A889B9898C9186FD0FC00FB607FC34
:104D1000F5CF808185FFF2CFA889B9898C9185FF75
:104D2000EDCFCE010E945526E7CFDF91CF910895B8
:104D3000CF92DF92FF920F931F93CF93DF931F9237
:104D4000CDB7DEB76C0181E0D60158968C935897A9
:104D50005B969C915B975C968C915C97981307C0CF
:104D60005096ED91FC915197808185FD2EC0F60102
:104D7000038D10E00F5F1F4F0F731127F02EF60108
:104D8000848DF81211C00FB607FCF9CFD6015096EA
:104D9000ED91FC915197808185FFF1CFC601698328
:104DA0000E9455266981EBCF838DE80FF11DE35AF0
:104DB000FF4F6083D6015B960C935B975296ED9103
:104DC000FC915397808180620CC0D6015696ED917C
:104DD000FC91579760835096ED91FC91519780819B
:104DE0008064808381E090E00F90DF91CF911F91EC
:104DF0000F91FF90DF90CF900895BF92CF92DF92F6
:104E0000EF92FF92CF93DF93EC016A017B01B22E08
:104E1000E889F98982E08083411581EE58076105B0
:104E20007105A1F060E079E08DE390E0A7019601C3
:104E30000E946F2B21503109410951095695479520
:104E400037952795211580E1380798F0E889F98989
:104E5000108260E874E88EE190E0A70196010E945C
:104E60006F2B2150310941095109569547953795C6
:104E70002795EC85FD853083EE85FF852083188E90
:104E8000EC89FD89B082EA89FB8980818061808319
:104E9000EA89FB89808188608083EA89FB89808137
:104EA00080688083EA89FB8980818F7D8083DF91A0
:104EB000CF91FF90EF90DF90CF90BF9008951F9219
:104EC0000F920FB60F9211242F938F939F93EF930E
:104ED000FF93E091E305F091E4058081E091E9051D
:104EE000F091EA0582FD12C090818091EC058F5F00
:104EF0008F732091ED05821751F0E091EC05F0E001
:104F0000ED52FA4F958F8093EC0501C08081FF919F
:104F1000EF919F918F912F910F900FBE0F901F9047
:104F200018951F920F920FB60F9211242F933F9353
:104F30004F935F936F937F938F939F93AF93BF93A1
:104F4000EF93FF9383ED95E00E945526FF91EF913B
:104F5000BF91AF919F918F917F916F915F914F9191
:104F60003F912F910F900FBE0F901F90189583EDDA
:104F700095E00E941A2621E0892B09F420E0822F77
:104F800008951092D6051092D50588EE93E0A0E022
:104F9000B0E08093D7059093D805A093D905B0933E
:104FA000DA0587E491E09093D4058093D30585ECEE
:104FB00090E09093E0058093DF0584EC90E090937F
:104FC000E2058093E10580EC90E09093E405809306
:104FD000E30581EC90E09093E6058093E50582EC93
:104FE00090E09093E8058093E70586EC90E090933D
:104FF000EA058093E9051092EC051092ED051092F8
:10500000EE051092EF05089508950E94BF240E94B6
:1050100004280E941316C7E4D6E20E949E2020971F
:10502000E1F30E944726F9CFCF92DF92EF92FF92F1
:105030000F931F93CF93DF936C017A01EB01E60E80
:10504000F71E00E010E0CE15DF0561F06991D60192
:10505000ED91FC910190F081E02DC6010995080FBA
:10506000191FF1CFC801DF91CF911F910F91FF90D0
:10507000EF90DF90CF90089508955058BB27AA274E
:105080000ED0F7C1E8D130F0EDD120F031F49F3FE0
:1050900011F41EF4B8C10EF4E095E7FBAEC1E92FA0
:1050A000F9D180F3BA17620773078407950718F0E0
:1050B00071F49EF511C20EF4E0950B2EBA2FA02DBF
:1050C0000B01B90190010C01CA01A0011124FF27B5
:1050D000591B99F0593F50F4503E68F11A16F040B0
:1050E000A22F232F342F4427585FF3CF46953795AF
:1050F0002795A795F0405395C9F77EF41F16BA0B74
:10510000620B730B840BBAF09150A1F0FF0FBB1F21
:10511000661F771F881FC2F70EC0BA0F621F731F6A
:10512000841F48F4879577956795B795F7959E3FC7
:1051300008F0B3CF9395880F08F09927EE0F979555
:105140008795089588D158F080E891E009F49EEFA2
:1051500089D128F040E851E059F45EEF09C053C10D
:10516000BBC1E92FE07896D168F3092E052AC1F377
:10517000261737074807590738F00E2E07F8E0259D
:1051800069F0E025E0640AC0EF6307F8009407FACD
:10519000DB01B9019D01DC01CA01AD01EF9347D0EC
:1051A00068D10AD05F91552331F02BED3FE049E4FF
:1051B00050FD49EC63CF0895DF93DD27B92FBF770A
:1051C00040E85FE31616170648075B0710F4D92F6F
:1051D0008ED19F938F937F936F9335D2EEEFF0E054
:1051E00015D147D12F913F914F915F9193D1DD23FD
:1051F00049F09058A2EA2AED3FE049EC5FE3D0780D
:105200005D274DDFDF9135C1D4D008F481E00895EA
:105210000CD02FC127D140F01ED130F021F45F3FD8
:1052200019F0EBC0511159C1EEC034D198F3992354
:10523000C9F35523B1F3951B550BBB27AA2762175A
:105240007307840738F09F5F5F4F220F331F441F9F
:10525000AA1FA9F333D00E2E3AF0E0E830D09150D7
:105260005040E695001CCAF729D0FE2F27D0660FC4
:10527000771F881FBB1F261737074807AB07B0E803
:1052800009F0BB0B802DBF01FF2793585F4F2AF019
:105290009E3F510568F0B1C020C15F3FECF3983EDE
:1052A000DCF3869577956795B795F7959F5FC9F776
:1052B000880F911D9695879597F90895E1E0660FFF
:1052C000771F881FBB1F621773078407BA0720F078
:1052D000621B730B840BBA0BEE1F88F7E0950895E1
:1052E000E1D088F09F5790F0B92F9927B751A0F0DF
:1052F000D1F0660F771F881F991F1AF0BA95C9F76A
:1053000012C0B13081F0E8D0B1E00895E5C0672F58
:10531000782F8827B85F39F0B93FCCF38695779519
:105320006795B395D9F73EF4909580957095619502
:105330007F4F8F4F9F4F0895E89409C097FB3EF42D
:1053400090958095709561957F4F8F4F9F4F9923D2
:10535000A9F0F92F96E9BB279395F6958795779550
:105360006795B795F111F8CFFAF4BB0F11F460FF10
:105370001BC06F5F7F4F8F4F9F4F16C0882311F068
:1053800096E911C0772321F09EE8872F762F05C07C
:10539000662371F096E8862F70E060E02AF09A9517
:1053A000660F771F881FDAF7880F9695879597F90C
:1053B0000895990F0008550FAA0BE0E8FEEF1616A6
:1053C0001706E807F907C0F012161306E407F507F9
:1053D00098F0621B730B840B950B39F40A2661F06D
:1053E000232B242B252B21F408950A2609F4A14010
:1053F000A6958FEF811D811D089597F99F6780E81D
:1054000070E060E008959FEF80EC0895DF93CF9304
:105410001F930F93FF92EF92DF927B018C016894B0
:1054200005C0DA2EEF0176D0FE01E894A591259112
:10543000359145915591AEF3EF0131DEFE019701B3
:10544000A801DA9479F7DF90EF90FF900F911F9108
:10545000CF91DF91089500240A94161617061806B6
:105460000906089500240A94121613061406050668
:105470000895092E0394000C11F4882352F0BB0FF9
:1054800040F4BF2B11F460FF04C06F5F7F4F8F4F5C
:105490009F4F089557FD9058440F551F59F05F3F97
:1054A00071F04795880F97FB991F61F09F3F79F046
:1054B00087950895121613061406551FF2CF4695C8
:1054C000F1DF08C0161617061806991FF1CF86954A
:1054D0007105610508940895E894BB27662777272E
:1054E000CB0197F9089565DF08F48FEF08959B01CC
:1054F000AC0160E070E080E89FE38ACE0BD0B9CFCA
:10550000AADF28F0AFDF18F0952309F076CF7BCF24
:105510001124E3CFBFDFA0F3959FD1F3950F50E0A7
:10552000551F629FF001729FBB27F00DB11D639F55
:10553000AA27F00DB11DAA1F649F6627B00DA11DFB
:10554000661F829F2227B00DA11D621F739FB00DA1
:10555000A11D621F839FA00D611D221F749F332711
:10556000A00D611D231F849F600D211D822F762FAA
:105570006A2F11249F5750408AF0E1F088234AF0A7
:10558000EE0FFF1FBB1F661F771F881F91505040F3
:10559000A9F79E3F510570F030CF9FCF5F3FECF3EE
:1055A000983EDCF3869577956795B795F795E795DF
:1055B0009F5FC1F7FE2B880F911D9695879597F9F0
:1055C000089511F40EF41FCF41C06CDFD0F399237E
:1055D000D9F3CEF39F57550B87FF46D00024A0E6A2
:1055E00040EA900180585695979528F4805C660FA4
:1055F000771F881F20F026173707480730F4621BF3
:10560000730B840B202931294A2BA69517940794F4
:10561000202531254A2758F7660F771F881F20F06D
:1056200026173707480730F4620B730B840B200DE5
:10563000311D411DA09581F7B901842F9158880F24
:105640009695879508959B01AC0158CF9F3F31F007
:10565000915020F4879577956795B795880F911DA0
:105660009695879597F9089591505040660F771F4A
:10567000881FD2F70895991B79E004C0991F9617E7
:1056800008F0961B881F7A95C9F780950895AA1B84
:10569000BB1B51E107C0AA1FBB1FA617B70710F01D
:1056A000A61BB70B881F991F5A95A9F7809590954F
:1056B000BC01CD01089597FB072E16F4009407D086
:1056C00077FD09D00E94472B07FC05D03EF490954A
:1056D00081959F4F0895709561957F4F0895A1E240
:1056E0001A2EAA1BBB1BFD010DC0AA1FBB1FEE1F5C
:1056F000FF1FA217B307E407F50720F0A21BB30BA7
:10570000E40BF50B661F771F881F991F1A9469F722
:1057100060957095809590959B01AC01BD01CF017E
:105720000895EE0FFF1F0590F491E02D09942A0DC6
:105730003B1D4C1D5D1D6E1D7F1D801F911F08951B
:105740000024A7FD00942A0F301D401D501D601D30
:10575000701D801D901D08950024A7FD00942A1738
:1057600030054005500560057005800590050895D9
:10577000F999FECF92BD81BDF89A992780B5089519
:10578000262FF999FECF1FBA92BD81BD20BD0FB65D
:10579000F894FA9AF99A0FBE01960895F894FFCFFB
:1057A0000C0603CDCC8C3FF2D29D3FDBF9AE3F001F
:1057B00000C03F2506D13F0E2DE23F3333F33FAC0F
:1057C0001C024021B00A403333134046B61B40BA96
:1057D000492440000000001621E920BE20C620D93F
:1057E00020E82000000000982614281A26332625D9
:0457F00026762600F3
:00000001FF
