:100000000C94D0040C9489250C94B6250C94F80417
:100010000C94F8040C94F8040C94F8040C94F80470
:100020000C94F8040C94F8040C94F8040C94F80460
:100030000C94F8040C94F8040C94F8040C94F80450
:100040000C94E3250C94F8040C9435290C9467293E
:100050000C94F8040C94F8040C94F8040C94F80430
:100060000C942C240C94F804D40AD60ADC0ADF0A77
:10007000E20AE70AEA0AEF0AF60AFB0A010B050B95
:100080000B0B110B140B1A0B8E159115941597155C
:100090009A159D15A015A315A615A915AC15AF1594
:1000A000B215B515B8158F17BE1702182D18691897
:1000B00090209020902090209020AD18C818FD1816
:1000C00064199020902090209020902090207C19FE
:1000D000A119CE19271A7F1A9020902090209020E5
:1000E0009020891AAE1A321B791B90209020902004
:1000F000902090209020DB1B001C431C902090201F
:10010000902090209020902090207B1C8E1CC81C5A
:100110009020902090209020902090209020001DF2
:10012000131D4D1D90209020902090209020902015
:100130009020851DB51DDA1D171E511E7D1EA21EA5
:100140005A1F781F90208A1FAF1F03206B20084A78
:10015000D73B3BCE016E84BCBFFDC12F3D6C7431DB
:100160009ABD56833DDA3D00C77F11BED9E4BB4C32
:100170003E916BAAAABE000000803F000000002054
:10018000202030000028280000300000282800002F
:1001900030280028FF0000FC4000F88000F4C00078
:1001A000F0F000C0F40080F80040FC0000FF000008
:1001B000FC4000F88000F4C000F0F000C0F40080C3
:1001C000F80040FC0000FF4000FC8000F8C000F494
:1001D000F000F0F400C0F80080FC0040F02020D8CF
:1001E0004040C06060A08080E0E020C8C840B0B05F
:1001F0006098988020F02040D84060C06080A08047
:1002000020E0E040C8C860B0B08098982020F0405E
:1002100040D86060C08080A0E020E0C840C8B060E6
:10022000B0988098A0A0A03272603293878032602C
:1002300060328080603260803273656C65637420E8
:1002400062756E646C652E2E2E2000476F696E6796
:1002500020746F20736C6565700043414E445920D3
:100260005354524F424500434F4D4554205354522E
:100270004F424500524942424F4E004D4F52504866
:10028000205354524F4245004348415345004C458A
:10029000474F004544474500424C494E4B2D4500D1
:1002A0004441534820444F50530054524143455217
:1002B000005345495A555245205354524F42450028
:1002C00050554C5345005354524F42494500444FFA
:1002D0005053004859504552205354524F42450004
:1002E0005354524F424500207072696D6520423A66
:1002F0002000207072696D6520413A20006D6F64A6
:10030000652000616363656C2073656E7369746951
:10031000766974793A204849474800616363656C9F
:100320002073656E73697469766974793A204D45F6
:100330004449554D00616363656C2073656E736954
:100340007469766974793A204C4F57006D6F646513
:100350002000616363656C206D6F64653A204F46D1
:100360004600616363656C206D6F64653A20464C9E
:1003700049505A00616363656C206D6F64653A2073
:1003800054494C545900616363656C206D6F64651A
:100390003A2054494C545800616363656C206D6F7A
:1003A00064653A205350454544006D6F64652000F4
:1003B00020732D003A20692D0020736C6F7420008B
:1003C0002070616C657474652042002070616C65FA
:1003D0007474652041006D6F646520003A206D6F74
:1003E0006465200020736C6F74200062756E646C0D
:1003F00065200020736C6F74732D0062756E646CE1
:1004000065200020636F6E666967757265206163A1
:10041000632073656E73697469766974790020630B
:100420006F6E66696775726520616363206D6F64C6
:10043000650020636F6E666967757265207072690A
:100440006D6520420020636F6E6669677572652076
:100450007072696D6520410020636F6E6669677513
:1004600072652070616C6574746520420020636F52
:100470006E6669677572652070616C65747465205D
:1004800041006D6F6465200073617665643A2000F9
:1004900073617665643A20007365743A2000776969
:1004A0006C6C20736176652E2E2E20007377697434
:1004B000636865643A200077696C6C207365742EFC
:1004C0002E2E200065646974696E673A20006D61A4
:1004D00073746572207265736574002062706D209C
:1004E00074726967676572206973200020746F7485
:1004F000616C2000207468697320636C69636B20F1
:1005000000636C69636B20230073657474696E67A4
:100510002062706D00656469740077696C6C20748A
:100520006F67676C652062706D20737769746368AC
:10053000696E672E2E2E200073656C6563743A20F9
:1005400062756E646C65200077696C6C2065646907
:10055000742062756E646C652E2E2E200073776990
:1005600074636865643A2062756E646C6520007718
:10057000696C6C2073656C6563742062756E646C65
:10058000652E2E2E200073656C656374696E673A64
:1005900020006D61737465722072657365742E2E10
:1005A0002E200073656C656374696E6700736176F5
:1005B00065643A200077696C6C20736176652E2E35
:1005C000200073776974636865643A20007361760C
:1005D00065643A200077696C6C20736176652E2E15
:1005E0002E0073776974636865643A2000736176DE
:1005F000696E673A200073776974636865643A20AE
:100600000077696C6C20736176652E2E200065641E
:100610006974696E673A200020736C6F747300739D
:100620006176696E673A2000636F6E6669726D6508
:10063000643A200072656A6563740077696C6C20A7
:10064000736176652E2E2E200020736C6F747300FC
:10065000736176696E673A2000636F6E6669726DCA
:1006600065643A200077696C6C2072656A65637412
:100670002E2E2E2000636F6E6669726D3A20007315
:10068000656C65637465643A200073656C656374BA
:100690003A20007072657620636F6C6F723A2000AA
:1006A0006E65787420636F6C6F723A200073656CAE
:1006B0006563743A2000656469743A20006578695E
:1006C0007420636F6E666967206D656E750077696B
:1006D0006C6C20657869742E2E2E2000636F6E6618
:1006E00069677572696E673A200077696C6C20657E
:1006F0006E74657220636F6E6669672E2E2E200001
:10070000636F6E6669673A206D6F64652000736C75
:100710006565702E2E2E2000636F6E6A75726520DF
:100720006F666600636F6E6A757265206F6E006338
:100730006F6E6669672E2E2E2000736C656570697A
:100740006E6700746F67676C6520636F6E6A7572A1
:10075000652E2E2E2000636F6E6A7572653A206CCE
:1007600069676874206F6E00636F6E6A7572653AB0
:10077000206C69676874206F666600736C656570CD
:100780002E2E2E2000706C6179696E673A20007001
:100790006C6179696E672062706D3A200062706DDD
:1007A000206E657874206D6F64653A200066726F04
:1007B0006D20454550524F4D2E0056657273696F3E
:1007C0006E206D617463682E2052656164696E6786
:1007D0002073617665642073657474696E67732035
:1007E0007600746F20454550524F4D2E0057726968
:1007F00074696E6720666163746F727920736574C3
:1008000074696E677320760056657273696F6E2027
:100810006D69736D617463682E20436C6561726EDF
:10082000696E6720454550524F4D2E000A57656C42
:10083000636F6D6520746F205072696D6572210061
:100840000000010101010101010101010202020296
:100850000202020303030303030404040404050562
:100860000505060606060707070708080808090918
:10087000090A0A0A0A0B0B0B0C0C0C0D0D0E0E0EBE
:100880000F0F0F101011111112121313141414154D
:100890001516161717181819191A1A1B1B1C1C1DC8
:1008A0001E1E1F1F2020212122232324252526262A
:1008B000272828292A2A2B2C2C2D2E2E2F30313177
:1008C000323333343536363738393A3A3B3C3D3EAD
:1008D0003E3F40414243434445464748494A4B4BCB
:1008E0004C4D4E4F505152535455565758595A5BD0
:1008F0005C5D5E5F6061626364656667686A6B6CBD
:100900006D6E6F7071727475767778797B7C7D7E91
:100910007F81828384868788898B8C8D8E9091924B
:1009200094959698999A9C9D9EA0A1A3A4A5A7A8EA
:10093000AAABACAEAFB1B2B4B5B7B8B9BBBCBEC070
:10094000000000080002010000030407000000008E
:100950000000000001020408102040800102040889
:1009600010200102040810200404040404040404F8
:100970000202020202020303030303030000000059
:1009800023002600290000000000250028002B007D
:1009900000000000240027002A00C1154A239729DF
:1009A00011241FBECFEFD8E0DEBFCDBF11E0A0E025
:1009B000B1E0E4E3FFE502C005900D92A03AB10773
:1009C000D9F725E0A0EAB1E001C01D92AC37B2072B
:1009D000E1F719E0C0EAD9E004C02297FE010E94C5
:1009E000FF2ECA39D107C9F70E94DB290C94982F32
:1009F0000C940000CF93DF93A82FB0E096E0B5955C
:100A0000A7959A95E1F78F7390E0FC01EE0FFF1F19
:100A1000E80FF91FE458FE4FE491F0E00A2E02C0FF
:100A2000F595E7950A94E2F7EB01E883FC01EE0FF8
:100A3000FF1FE80FF91FE358FE4FE491F0E00A2E84
:100A400002C0F595E7950A94E2F7EA01E883FC0114
:100A5000EE0FFF1FE80FF91FE258FE4FE491F0E0A0
:100A600002C0F595E795AA95E2F7D901EC93DF91DD
:100A7000CF9108952F923F924F925F926F927F9203
:100A80008F929F92AF92BF92CF92DF92EF92FF929E
:100A90000F931F93CF93DF9300D01F92CDB7DEB794
:100AA0001B01F22ED02EA9829B828A82042F10E095
:100AB000BC0180E090E00E94E92C2B013C01B101D7
:100AC00080E090E00E94E92C9B01AC01C301B201DF
:100AD0000E94552C2B013C01B801882777FD809599
:100AE000982F0E94EB2C4B015C016E2D70E0601B77
:100AF000710B882777FD8095982F0E94EB2CA3011E
:100B000092010E94CB2D9B01AC01C501B4010E9452
:100B10008B2B0E94BD2CEA81FB8160830F2D10E09E
:100B2000B801882777FD8095982F0E94EB2C4B0108
:100B30005C016C2D70E0601B710B882777FD809540
:100B4000982F0E94EB2CA30192010E94CB2D9B01B8
:100B5000AC01C501B4010E948B2B0E94BD2CE88D15
:100B6000F98D60830D2D10E0B801882777FD809501
:100B7000982F0E94EB2C6B017C01F9816F2F70E0A4
:100B8000601B710B882777FD8095982F0E94EB2CB6
:100B9000A30192010E94CB2D9B01AC01C701B601BC
:100BA0000E948B2B0E94BD2CEA8DFB8D60830F90E1
:100BB0000F900F90DF91CF911F910F91FF90EF90C9
:100BC000DF90CF90BF90AF909F908F907F906F906D
:100BD0005F904F903F902F9008950F931F93CF9366
:100BE000DF931F92CDB7DEB78C0169830E947A2F05
:100BF0006981681741F0C8010F90DF91CF911F9173
:100C00000F910C94822F0F90DF91CF911F910F9134
:100C100008950C947A2FFC01262F30E0C901840F2F
:100C2000911D468557854817590750F01786168637
:100C3000808990E00196618170E00E94A82E808BEF
:100C4000868597858217930760F48089E80FF11DE8
:100C500026EA31E047EA51E068EA71E082810C94CB
:100C6000FA041092A8011092A7011092A60108950B
:100C70006F927F928F929F92AF92CF92EF920F934B
:100C80001F93CF93DF93EC01662E062F10E0C8016F
:100C9000840F911D2E853F852817390758F01F8630
:100CA0001E86888990E001962981622F70E00E945B
:100CB000A82E888B8E859F856694712C8615970546
:100CC00030F58889FE01E80FF11D23EA31E044EA9E
:100CD00051E065EA71E082810E94FA0486EA91E0BF
:100CE0009F938F9387EA91E09F938F9338EA832EA7
:100CF00031E0932EA090A301C090A401E090A50143
:100D000000E020E040E0B3018E859F852CC0801775
:100D1000910780F58889FE01E80FF11D23EA31E093
:100D200044EA51E065EA71E082810E94FA04B80168
:100D3000661977098E859F8526EA31E03F932F93C8
:100D400027EA31E03F932F9328EA822E21E0922E6A
:100D5000A12CC12CE12C0091A3012091A401409170
:100D6000A501861997090E943A050F900F900F90E0
:100D70000F9006C01092A8011092A7011092A60130
:100D8000DF91CF911F910F91EF90CF90AF909F90F7
:100D90008F907F906F900895FC01262F30E0C9015D
:100DA000840F911D468557854817590760F01786AF
:100DB0001686808990E00196618170E0615071092A
:100DC0000E94A82E808B868597858217930788F4CA
:100DD000808990E00196618170E00E94A82E8E0FBC
:100DE0009F1F26EA31E047EA51E068EA71E0FC0122
:100DF00006C026EA31E047EA51E068EA71E0828104
:100E00000C94FA040F93CF93DF93FC01818190E05F
:100E10000197948B838B70E0869FD001879FB00DE4
:100E2000969FB00D112430E0C901840F911DAC01D3
:100E3000049FC001059F900D11248A0F9B1F820FF4
:100E4000931FC685D785C817D90710F01786168651
:100E5000868597858A179B0770F40E94942EDB0184
:100E6000AE0FBF1F26EA31E047EA51E068EA71E0C1
:100E700013968C9111C08A1B9B0B928B818BBA01AC
:100E80000E94A82E8217930764F026EA31E047EA11
:100E900051E068EA71E08281DF91CF910F910C946B
:100EA000FA041092A8011092A7011092A601DF91F6
:100EB000CF910F910895FC012181269F900111246B
:100EC000C901840F911D468557854817590710F0B1
:100ED00017861686868597858217930780F470E0BB
:100EE0000E94942EDB01AE0FBF1F26EA31E047EAD5
:100EF00051E068EA71E012968C910C94FA04109219
:100F0000A8011092A7011092A60108950F931F93B4
:100F1000CF93DF93FC01C181D0E02197D28BC18BAD
:100F200070E0C69F8001C79F100DD69F100D112441
:100F3000D801AA0FBB1FA40FB11DCD01820F911DB7
:100F4000268537852817390710F017861686868577
:100F500097858017910770F40E94942EC61BD70BBB
:100F6000CE0FDF1F26EA31E047EA51E068EA71E080
:100F70008A811AC09D01201B310B8217930768F0EC
:100F80008A179B07B8F4821B930B0E94942E6F5F05
:100F90007F4F748B638BE60FF71F26EA31E047EA39
:100FA00051E068EA71E08281DF91CF911F910F914A
:100FB0000C94FA041092A8011092A7011092A601B5
:100FC000DF91CF911F910F91089523E030E040E031
:100FD00050E060E070E0CB010E946D2B611571055F
:100FE0008105910539F0613071058105910521F088
:100FF00080E2089584E0089580E108950F931F939F
:10100000CF93DF931F92CDB7DEB78C01FC018189AE
:101010009289892B41F469830E94E50790E0F801E9
:10102000928B818B6981F80181899289860F911D4C
:10103000268537852817390780F017861686808918
:1010400090E00196618170E00E94A82E808B0E9442
:10105000E50790E0F801928B818BF80126853785B2
:10106000818992892817390788F48089E80FF11D52
:1010700026EA31E047EA51E068EA71E082810F90A8
:10108000DF91CF911F910F910C94FA041092A80157
:101090001092A7011092A6010F90DF91CF911F919E
:1010A0000F910895CF93DF93FC01362FC62FD0E028
:1010B000CE01840F911DA685B785A817B907C8F082
:1010C00017861686418952894F5F5F4F528B418B3D
:1010D000A22FB0E011974A175B075CF0128A118AC1
:1010E000808990E001964181642F70E00E94A82ED3
:1010F000808B468557854C175D07A0F5832F622F9F
:101100000E94882E682F70E0CA010E94942E748B72
:10111000638B81899289009751F48089E80FF11DD2
:1011200026EA31E047EA51E068EA71E013C0681747
:101130007907ACF4808990E00196618170E00E94AB
:10114000A82E8E0F9F1F26EA31E047EA51E068EA99
:1011500071E0FC018281DF91CF910C94FA04681751
:101160007907D9F61092A8011092A7011092A60152
:10117000DF91CF9108958F929F92AF92CF92EF928D
:10118000FF920F931F93CF93DF93EC01F22EE62F84
:10119000F0E08F01040F111D8E859F858017910748
:1011A000A8F01F861E8689899A8901969A8B898B59
:1011B00030E08217930754F01A8A198A888990E0E0
:1011C0000196698170E00E94A82E888B8E859F858C
:1011D0008E179F0708F051C08889FE01E80FF11DA6
:1011E00023EA31E044EA51E065EA71E082810E943D
:1011F000FA04888990E00196698170E00E94A82E27
:101200008C0F9D1F20EA31E041EA51E062EA71E073
:10121000FC0182810E94FA04F09EB001F19E700DE3
:10122000112489899A89089FF001099FF00D189F60
:10123000F00D11248E859F8526EA31E03F932F9390
:1012400027EA31E03F932F93A8EA8A2EA1E09A2E55
:10125000A090A001C090A101E090A2010091A30183
:101260002091A4014091A5018E0F9F1F0E943A0575
:101270000F900F900F900F9006C01092A80110923F
:10128000A7011092A601DF91CF911F910F91FF90BE
:10129000EF90CF90AF909F908F900895CF93DF9372
:1012A000FC01C62FD0E0CE01840F911D46855785E5
:1012B0004817590728F1178616868189928943892C
:1012C000548930E0452B19F0319521953109280FCB
:1012D000391F328B218B808990E00196618170E00B
:1012E0000E94A82E808B121613061CF0148A138AF3
:1012F00007C02C173D0724F081E090E0948B838B8E
:1013000026853785818992898217930770F08089B5
:10131000E80FF11D26EA31E047EA51E068EA71E0A2
:101320008281DF91CF910C94FA041092A80110925F
:10133000A7011092A601DF91CF9108950F931F93FB
:10134000CF93DF93FC01C62FD0E0CE01840F911D17
:10135000468557854817590700F1178616868189F3
:1013600092890196928B818B30E082179307ACF0C3
:10137000128A118A838994890196948B838B10E059
:101380008017910754F0148A138A808990E001969F
:10139000618170E00E94A82E808B868597858C17CE
:1013A0009D07C8F4208981899289820F911D6181EE
:1013B00070E00E94A82E8E0F9F1F26EA31E047EAB8
:1013C00051E068EA71E0FC018281DF91CF911F91C9
:1013D0000F910C94FA041092A8011092A701109298
:1013E000A601DF91CF911F910F9108958F92AF9237
:1013F000CF92EF920F93CF93DF93CDB7DEB7FC017F
:101400006083418322830383E482C582A68287822C
:101410008A8580878B8581878C8582878D85838768
:101420008E8584878F858587DF91CF910F91EF908F
:10143000CF90AF908F9008950F931F93CF93DF932A
:10144000EC018B01CB010E9409068883C80101963B
:101450000E9409068983C80102960E9409068A83B0
:10146000C80103960E9409068B83C80104960E9456
:1014700009068C83C80105960E9409068D83C80160
:1014800006960E9409068E83C80107960E940906E7
:101490008F83C80108960E9409068887C8010996AB
:1014A0000E9409068987C8010A960E9409068A8750
:1014B000C8010B960E9409068B87C8010C960E94F2
:1014C00009068C87C8010D960E9409068D87DF9159
:1014D000CF911F910F9108950F931F93CF93DF9397
:1014E000EC018B016881C8010E94ED056981C8018A
:1014F00001960E94ED056A81C80102960E94ED05E1
:101500006B81C80103960E94ED056C81C8010496A9
:101510000E94ED056D81C80105960E94ED056E8162
:10152000C80106960E94ED056F81C80107960E94CA
:10153000ED056885C80108960E94ED056985C8011A
:1015400009960E94ED056A85C8010A960E94ED057C
:101550006B85C8010B960E94ED056C85C8010C9641
:101560000E94ED056D85C8010D96DF91CF911F9109
:101570000F910C94ED05AF92BF92CF92DF92EF9254
:10158000FF920F931F93CF93DF93EC017B016A01CE
:101590005901088110E00031110508F051C0F8012F
:1015A000EC5CFF4F0C94FD2E40E112C042E262E27F
:1015B000CE010E940B0644C044E163E0F9CF48E24B
:1015C00066E0F6CF42E368EC0E94380639C04EEB85
:1015D0006AE0EECF48E266E00E94CC0631C001E04E
:1015E00024E143E063E00E9402072AC044E66AE087
:1015F0000E945B0725C028E240E164E00E94860764
:101600001FC060E10E94FE071BC025E044E164E6C4
:101610000E94520815C024E042E262E20E94BB0828
:101620000FC040E066E1C4CF22E040E16EE10E94DD
:101630004E0906C008E023E040E16AE00E949E09EE
:101640008E859F8501969F878E878091A801F701DF
:1016500080838091A701F60180838091A601F50126
:101660008083DF91CF911F910F91FF90EF90DF90DA
:10167000CF90BF90AF900895FC01148A138A128A0C
:10168000118A108A17861686089583B78E7F83BFC6
:1016900080E00C947925EF92FF920F931F93CF93E4
:1016A000DF931F92CDB7DEB77C01FC010081118171
:1016B000C80169830E947A2F6981681719F0C801EF
:1016C0000E94822FC7010F90DF91CF911F910F9140
:1016D000FF90EF900895CF93DF93CDB7DEB7659776
:1016E0000FB6F894DEBF0FBECDBFFC0112A613A645
:1016F00014A615A617A616A625E1FE013196DC0153
:1017000001900D922A95E1F725E1FE013196DC0169
:10171000559601900D922A95E1F765960FB6F894CB
:10172000DEBF0FBECDBFDF91CF910895AF92BF92C4
:10173000CF92DF92EF92FF920F931F93CF93DF939D
:101740006C01EB018A017901FC0182A596012B5EF7
:101750003F4F59019701811108C0C5010E94BB0A82
:101760009701A801BE01C60107C0C6010E94BB0ABD
:101770009701A801BE01C501DF91CF911F910F9183
:10178000FF90EF90DF90CF90BF90AF900C94BB0A8A
:10179000CF93DF93EC010E943C0BCE0145960E9453
:1017A0003C0B1DA6DF91CF910895EF92FF920F930E
:1017B0001F93CF93DF9300D0CDB7DEB78C017B01B1
:1017C000FC0163A5FA82E982CE0101960E944B0BCF
:1017D000F80164A5C70101969A838983CE01019619
:1017E0000E944B0BB7016E5F7F4FC8010E946C0ACD
:1017F000B701605F7F4FC80145960E946C0A0F9049
:101800000F90DF91CF911F910F91FF90EF9008956E
:101810003F924F925F926F927F928F929F92AF9280
:10182000BF92CF92DF92EF92FF920F931F93CF93CD
:10183000DF9300D000D000D0CDB7DEB79E838D837C
:101840004A015B0128013901DC019E968D919C9132
:101850009F9797FF04C09F961C921E929E97ED81C2
:10186000FE8183A5823009F4B4C018F4813041F0C0
:10187000ECC1833009F422C1843009F495C1E5C17B
:10188000AD81BE819C968C91882359F0813081F086
:101890008230C1F485E0382E86E696E6A6EABFE3FC
:1018A0000DC02AE0322E80E090E0A0E2B0E406C055
:1018B00099E1392E8AE999E9A9EDBFE389839A83F1
:1018C000AB83BC8320E030E0A901C501B4010E94D4
:1018D000C02D181624F0B7FAB094B7F8B09420E0F1
:1018E00030E0A901C301B2010E94C02DA301920101
:1018F00018160CF05058C501B4010E948B2B4B01F7
:101900005C0120E030E0A901C701B6010E94C02DB2
:10191000A701960118160CF05058C501B4010E9499
:101920008B2B20E030E040E85FE30E948A2BAD8102
:10193000BE819A962C91211127C029813A814B8131
:101940005C810E94C02D181644F4ED81FE8186A5AD
:1019500097A5019697A786A706C0AD81BE819F96E1
:101960001C921E929E97832D90E0ED81FE8126A50C
:1019700037A5821793070CF068C181E082A789E13F
:1019800090E097A786A761C12AE939E949E95FE3B1
:101990000E94C02D18164CF489E190E0AD81BE8103
:1019A0009F969C938E939E9707C0ED81FE8186A59E
:1019B00097A5019797A786A7AD81BE819E968D9129
:1019C0009C919F97181619060CF43FC19A961C9289
:1019D0003CC1A3019201C301B2010E94CB2D2B0196
:1019E0003C01A7019601C701B6010E94CB2D9B01C6
:1019F000AC01C301B2010E948B2B0E94322E9B01CD
:101A0000AC01C501B4010E94FE2B20E030E044E3AC
:101A100053E40E94CB2D2BED3FE049E450E40E94BB
:101A2000552CED81FE81D2A4E6A4F7A4D11016C0F6
:101A300020E030E046E952EC0E94512C87FF03C0C1
:101A400081E090E002C08FEF9FEFE80EF91EAD81BC
:101A5000BE819F96FC92EE929E9713C020E030E0EC
:101A600046E952E40E94C02D18161CF481E090E073
:101A700002C08FEF9FEFE80EF91EED81FE81F7A601
:101A8000E6A68FE090E0AD81BE819C960C909C977D
:101A900002C0880F991F0A94E2F79E962D913C91FF
:101AA0009F97821793070CF0D0C09F961C921E92AE
:101AB0009E9781E0DD2009F4C5C0C3C0A501940153
:101AC000C501B4010E94CB2D4B015C01A701960119
:101AD000C701B6010E94CB2D9B01AC01C501B40129
:101AE0000E948B2B0E94322E9B01AC01C301B201DC
:101AF0000E94FE2B20E030E044E353E40E94CB2D13
:101B00002BED3FE049E450E40E94552CAD81BE81AD
:101B10009A96DC909A979E96ED90FC909F97D110A4
:101B200014C020E030E046E952EC0E94512C87FFBF
:101B300003C081E090E002C08FEF9FEFE80EF91E36
:101B4000ED81FE81F7A6E6A615C020E030E046E96B
:101B500052E40E94C02D18161CF481E090E002C0EF
:101B60008FEF9FEFE80EF91EAD81BE819F96FC922C
:101B7000EE929E978FE090E0ED81FE8104A402C07A
:101B8000880F991F0A94E2F726A537A582179307B5
:101B90000CF05BC017A616A681E0D11080E0AD81E5
:101BA000BE819A968C9351C0ED81FE8192A4A6A429
:101BB000B7A4911018C023E333E343E75FEBC701F9
:101BC000B6010E94512C87FF03C081E090E002C063
:101BD0008FEF9FEFA80EB91EAD81BE819F96BC927C
:101BE000AE929E9715C023E333E343E75FE3C7015B
:101BF000B6010E94C02D18161CF481E090E002C0CE
:101C00008FEF9FEFA80EB91EED81FE81B7A6A6A6A5
:101C10008FE090E0AD81BE819C960C909C9702C0B5
:101C2000880F991F0A94E2F79E962D913C919F97F9
:101C30008217930754F49F961C921E929E9781E000
:101C4000911080E0ED81FE8182A726960FB6F89470
:101C5000DEBF0FBECDBFDF91CF911F910F91FF90DF
:101C6000EF90DF90CF90BF90AF909F908F907F903C
:101C70006F905F904F903F900895AF92BF92CF9238
:101C8000DF92EF92FF920F931F93CF93DF9300D0D9
:101C9000CDB7DEB739E0C32E31E0D32E00E010E03F
:101CA00044ECE42E43E0F42EF60161916F01FA82D8
:101CB000E982CE0101960E944B0B5801FCE0AF0E69
:101CC000B11CF801E35FFE4F6081C8018C579C4F47
:101CD0009A838983CE0101960E944B0B0F5F1F4FA1
:101CE0000A151B0571F78FEFE81AF80A0033110582
:101CF000D9F60F900F90DF91CF911F910F91FF9028
:101D0000EF90DF90CF90BF90AF900895CF92DF9289
:101D1000EF92FF920F931F93CF93DF9359E0E52E3D
:101D200051E0F52EC0E0D0E004EC13E0C8010E94C1
:101D30007A2FF70181937F016E01FCE0CF0ED11C59
:101D4000CE018C579C4F0E947A2FFE01E35FFE4F1D
:101D500080832196CC15DD0599F70F5F1F4F083C56
:101D600083E0180719F7DF91CF911F910F91FF9032
:101D7000EF90DF90CF9008950F931F93CF93DF9351
:101D8000C5E5D1E00DE311E069917991F801819108
:101D900091918F010E94D50BF1E0CD36DF07A1F7BD
:101DA000DF91CF911F910F910895CF92DF92EF9223
:101DB000FF920F931F93CF93DF9365E5E62E61E0CB
:101DC000F62E7DE3C72E71E0D72EF7010191119118
:101DD0007F01F601C191D1916F01C8010E947A2F54
:101DE0008BA7C80101960E947A2F8CA7B8016E5F5D
:101DF0007F4FCE010E941C0AB801605F7F4FCE0169
:101E000045960E941C0AFDE6EF16F1E0FF06E9F692
:101E1000DF91CF911F910F91FF90EF90DF90CF90C6
:101E20000895CF93DF93C0E0D0E060E0CE010E9440
:101E3000822F2196C11584E0D807B9F7DF91CF91A1
:101E400008952F923F924F925F926F927F928F925E
:101E50009F92AF92BF92CF92DF92EF92FF920F9339
:101E60001F93CF93DF93CDB7DEB766970FB6F89485
:101E7000DEBF0FBECDBFFF24F394F0920D0410928D
:101E80000E041F921F921F921F921F921F92812C6D
:101E9000A12CC12CE12C00E028E341E062E0CE015E
:101EA00001960E94F60985E1FE013196A2EEB3E0AB
:101EB00001900D928A95E1F71F921F921F92EDE516
:101EC000BE2EBF92FAE57F2E7F92A7E59A2E9F92B3
:101ED000B4E58B2E11E5A12E0EE4C02E8BE4E82E86
:101EE00008E428E349E067E0CE0101960E94F60984
:101EF00085E1FE013196A7EFB3E001900D928A953E
:101F0000E1F7F092DD03F092DE031F921F921F9221
:101F10001F921F9287E48F9396E4892E25E4A22EC8
:101F200034E4C32E43E4E42E02E423E747E068E010
:101F3000CE0101960E94F60985E1FE013196A2EBE1
:101F4000B3E001900D928A95E1F71F921F921F92C4
:101F50001F928EE18F938BE18F9358E1852E65E17F
:101F6000A62E72E1C72EEFE0EE2E0CE029E048E04D
:101F700063E0CE0101960E94F60985E1FE013196EB
:101F8000A2EBB3E001900D928A95E1F7F092AD03D8
:101F900012E01093AE03FFE53F2E3F92BF92ABE5F8
:101FA0006A2E6F92B9E55B2E5F929F9205E5402EF7
:101FB0004F9283E5882E91E5A92E2FE4C22E3DE4B1
:101FC000E32E0BE429E44CE064E0CE0101960E948C
:101FD000F60985E1FE013196A2E8B3E001900D9289
:101FE0008A95E1F71F921F921F921F921F921F92D4
:101FF000812CA12CC12CE12C00E020E041E060E02C
:10200000CE0101960E94F60985E1FE013196A2E813
:10201000B3E001900D928A95E1F710937D03109241
:102020007E030FB6F894DEBF0FBECDBF1F921F9286
:102030001F92BF927F929F9244E5842E51E5A52E78
:102040006EE4C62E7BE4E72E08E422EC49E066E06D
:10205000CE0101960E94F60985E1FE013196A2E5C6
:10206000B3E001900D928A95E1F71F921F921F92A3
:10207000BF927F929F9226EC49E066E0CE010196E6
:102080000E94F60985E1FE013196A2E5B3E00190D8
:102090000D928A95E1F710934D03F0924E033EE5C1
:1020A0003F938CE58F937F92E8E5DE2EDF9286E505
:1020B0008F93F4E52F2E2F92A2E58A2EB0E5AB2E5A
:1020C0000CE4E02E0AE428E44CE06FE0CE01019637
:1020D0003E8B0E94F60985E1FE013196A2E2B3E053
:1020E00001900D928A95E1F71F923E893F937F926E
:1020F0001F92DF922F92812C82E5A82EE12C0CE416
:1021000028E44CE06FE0CE0101960E94F60985E1DB
:10211000FE013196A2E2B3E001900D928A95E1F7BB
:1021200010931D0310931E031F921F921F9288EDA0
:102130008F9389ED8F938AED8F939BED892E2CE9F8
:10214000A22E3DE9C32E4EE5E42E0FE528E049E03E
:1021500069E0CE0101960E94F60985E1FE01319603
:10216000A2EFB2E001900D928A95E1F71F921F92C3
:102170001F9288EC8F938FED8F938EED8F935DED93
:10218000852E6BE9C62E7AE5E72E09E528E149E0C0
:1021900069E0CE0101960E94F60985E1FE013196C3
:1021A000A2EFB2E001900D928A95E1F7E3E07E2E76
:1021B0007092ED021092EE020FB6F894DEBF0FBEE1
:1021C000CDBF3F929F928FE48F93BF924F928DE449
:1021D0008F93FBE58F2EA3E5AA2EBBE4CB2E09E55A
:1021E000E02E01E529E44CE06BE0CE0101960E946F
:1021F000F60985E1FE013196A2ECB2E001900D9264
:102200008A95E1F789E48F9381E58F935F928BE460
:102210008F9383E58F936F928DE4882E95E5A92E99
:102220002DE5C22E3FE4E32E07E52FE54CE06BE001
:10223000CE0101960E94F60985E1FE013196A2ECDD
:10224000B2E001900D928A95E1F77092BD02F09292
:10225000BE021F9283E78F9381E78F93DF921F92D5
:102260008BE68F9349E6842E50E5A52EC12C63E6BC
:10227000E62E01E628E44CE06DE0CE0101960E94D6
:10228000F60985E1FE013196A2E9B2E001900D92D6
:102290008A95E1F71F92DF92DF92DF921F9280E52D
:1022A0008F9370E5872EE8E4EE2E08E428E44CE0F6
:1022B0006DE0CE0101960E94F60985E1FE0131969E
:1022C000A2E9B2E001900D928A95E1F770928D0239
:1022D00010938E021F921F921F921F921F921F92A5
:1022E000FCE58F2EA8E5AA2EB4E5CB2E00E5E02E66
:1022F0000CE428E446E06EE0CE0101960E94F60967
:1023000085E1FE013196A2E6B2E001900D928A9538
:10231000E1F71F921F921F921F921F921F928EE54C
:10232000882E9AE5A92E26E5C22E32E5E32E0EE48C
:102330002AE446E06EE0CE0101960E94F60985E1AE
:10234000FE013196A2E6B2E001900D928A95E1F786
:1023500044E0D42ED0925D0210925E020FB6F89443
:10236000DEBF0FBECDBF1F921F921F921F921F9202
:102370001F92812CC12C58E5E52E00E026E546E0B1
:1023800064E0CE0101960E94F60985E1FE013196D6
:10239000A2E3B2E001900D928A95E1F71F921F929D
:1023A0001F921F921F921F926AE4A62E78E4E72ED6
:1023B0002EE546E064E0CE0101960E94F60985E133
:1023C000FE013196A2E3B2E001900D928A95E1F709
:1023D000D0922D02F0922E021F921F921F921F92F6
:1023E0001F921F92A12CEDE4CE2EFCE4EF2E0AE406
:1023F00028E444E06AE0CE0101960E94F60985E1F6
:10240000FE013196A2E0B2E001900D928A95E1F7CB
:102410001F921F921F921F921F921F92ADE5CA2E0C
:10242000BCE5EB2E0AE528E544E06AE0CE01019622
:102430000E94F60985E1FE013196A2E0B2E001902A
:102440000D928A95E1F7D092FD011093FE011F9243
:102450001F921F921F921F921F92C12C10E5E12E16
:102460000CE428E443E06CE0CE0101960E94F609FA
:1024700085E1FE013196A2EDB1E001900D928A95C1
:10248000E1F71F921F921F921F921F921F9208E561
:10249000E02E04E520E543E06CE0CE0101960E94C9
:1024A000F60985E1FE013196A2EDB1E001900D92B1
:1024B0008A95E1F70FB6F894DEBF0FBECDBF0E943C
:1024C000BC0E66960FB6F894DEBF0FBECDBFDF918F
:1024D000CF911F910F91FF90EF90DF90CF90BF9021
:1024E000AF909F908F907F906F905F904F903F90B4
:1024F0002F900895FF920F931F93CF93DF93F82EA1
:10250000D62FC42F0E942D260091CA011091CB0115
:102510002091CC013091CD01601B710B820B930B8C
:1025200061157D478105910568F30E942D26609312
:10253000CA017093CB018093CC019093CD01EF2D14
:10254000F0E0E05CF74FE4916E2F70E089E00E94CC
:10255000D026ED2FF0E0E05CF74FE4916E2F70E0B5
:1025600086E00E94D026EC2FF0E0E05CF74FE4918B
:102570006E2F70E085E0DF91CF911F910F91FF905A
:102580000C94D026EF92FF920F931F93CF93DF937B
:10259000182F062FF42EE22ED0E0DE1589F0C0E0D1
:1025A000C23320F44F2D602F812F03C040E060E044
:1025B00080E00E947A12CF5FC43691F7DF5FEDCFE3
:1025C000DF91CF911F910F91FF90EF90089510929E
:1025D000CE01E091CF018CE0E89FF0011124E35F90
:1025E000FE4FE081F0E0EE0FFF1FE35CFE4F8081C5
:1025F00091819093D1018093D0011092B2011092F9
:10260000B3011092B4011092B5010E94C80BE09181
:10261000D001F091D10112A61092BD011092BE011D
:102620001092BF011092C0011092C1011092C2011C
:102630001092C3011092C4011092C5011092C601FC
:102640001092C7011092C80108952091CF0130E087
:102650008091CE0190E00196F901E75FFE4F608125
:1026600070E00E94A82E8093CE014CE0429FF001C2
:10267000439FF00D1124E80FF91FE35FFE4FE08147
:10268000F0E0EE0FFF1FE35CFE4F8081918190939D
:10269000D1018093D0011092B2011092B301109237
:1026A000B4011092B5010E94C80BE091D001F091E5
:1026B000D10112A61092BD011092BE011092BF016D
:1026C0001092C0011092C1011092C2011092C30178
:1026D0001092C4011092C5011092C6011092C70158
:1026E0001092C80108956F927F928F929F92AF923D
:1026F000BF92CF92DF92EF92FF920F931F93CF93EF
:10270000DF933A01D62FC72F6801790180347CF519
:1027100080320CF08054682F772767FD7095872FE3
:10272000972F0E94EB2C20E030E040EA51E40E9419
:10273000552CA70196010E94CB2D4B015C01A701EE
:10274000960160E070E080E89FE30E948A2B9B0185
:10275000AC01B3018D2F9C2F0E94CB2D9B01AC01AE
:10276000C501B4010E948B2B3B01D82FC92FB301A7
:102770008D2F9C2FDF91CF911F910F91FF90EF90A4
:10278000DF90CF90BF90AF909F908F907F906F9091
:10279000089562E874E08FED94E00E94282A809109
:1027A000CE01E091CF019CE0E99FF0011124E80FF8
:1027B000F11DE35FFE4F608170E06F5F7F4F4AE085
:1027C00050E08FED94E00E940D2B8091BB01823090
:1027D00091F038F4882361F0813099F468E574E071
:1027E00012C0833059F0843061F46EE174E00BC0A4
:1027F0006DE674E008C065E474E005C062E374E06F
:1028000002C063E074E08FED94E00C94582A6BEF03
:1028100073E08FED94E00E94282A6091CF0170E070
:102820006F5F7F4F4AE050E08FED94E00E940D2BE8
:1028300063EF73E08FED94E00E94282AE091CF01CE
:10284000F0E0E75FFE4F4AE050E060818FED94E0FA
:102850000C943A2B6BEE73E08FED94E00E94282AE3
:102860006091CF0170E06F5F7F4F4AE050E08FEDE5
:1028700094E00E940D2B64EE73E08FED94E00E94D3
:10288000282A6091CE0170E06F5F7F4F4AE050E0F0
:102890008FED94E00E940D2B6CED73E08FED94E0D2
:1028A0000E94282A8091CE01E091CF019CE0E99F0F
:1028B000F0011124E80FF11DE35FFE4F608170E02D
:1028C0006F5F7F4F4AE050E08FED94E00C940D2B4A
:1028D00066ED73E08FED94E00E94282A8091CE018E
:1028E000E091CF019CE0E99FF0011124E80FF11D78
:1028F000E35FFE4F608170E06F5F7F4F4AE050E022
:102900008FED94E00E940D2BE091D001F091D10168
:1029100082A5811103C06BEC73E002C060EC73E030
:102920008FED94E00C94282ACF930E94681469EBF1
:1029300073E08FED94E00E94282AE091D001F0919D
:10294000D10165A570E06F5F7F4F4AE050E08FEDE9
:1029500094E00E940D2B64EB73E08FED94E00E94F5
:10296000282AE091D001F091D10185A592A5C5E179
:10297000C99FE00DF11D1124E80FF11D62816F73F5
:1029800070E040E150E08FED94E00E940D2B60EB91
:1029900073E08FED94E00E94282AE091D001F0913D
:1029A000D10185A592A5C99FE00DF11D1124E80F65
:1029B000F11D628170E026E0759567952A95E1F733
:1029C0004AE050E08FED94E0CF910C940D2B6AEA31
:1029D00073E08FED94E00E94282A8091CE01E0916F
:1029E000CF019CE0E99FF0011124E80FF11DE35FA6
:1029F000FE4F4AE050E060818FED94E00E943A2B58
:102A0000E091D001F091D10183A5823069F028F4E2
:102A1000813081F468E973E00FC0833041F0843085
:102A200049F462E673E008C066E873E005C064E755
:102A300073E002C062E573E08FED94E00C94282A05
:102A40006CE473E08FED94E00E94282A8091CE011F
:102A5000E091CF019CE0E99FF0011124E80FF11D06
:102A6000E35FFE4F4AE050E060818FED94E00E940A
:102A70003A2BE091D001F091D10184A5882329F06F
:102A8000813031F46BE173E005C065E373E002C0AF
:102A900063E073E08FED94E00C94282A6DEF72E010
:102AA0008FED94E00E94282A8091CE01E091CF0121
:102AB0009CE0E99FF0011124E80FF11DE35FFE4F58
:102AC000608170E06F5F7F4F4AE050E08FED94E0EF
:102AD0000E940D2BE091D001F091D10182A58111CE
:102AE00003C062EF72E002C067EE72E08FED94E027
:102AF0000E94282AE091D001F091D10182A595E1B0
:102B0000899FE00DF11D1124808190E08F309105A7
:102B100090F5FC01EC5BFF4F0C94FD2E60EE72E033
:102B20002CC063ED72E029C06EEC72E026C066EC4A
:102B300072E023C060EC72E020C061EB72E01DC067
:102B40006AEA72E01AC060EA72E017C068E972E0EF
:102B500014C063E972E011C06EE872E00EC068E86C
:102B600072E00BC06BE772E008C064E772E005C07A
:102B700067E672E002C06AE572E08FED94E00C94C3
:102B8000282A82EE93E00E946B0B82EB93E00E9476
:102B90006B0B82E893E00E946B0B82E593E00E944E
:102BA0006B0B82E293E00E946B0B82EF92E00E943B
:102BB0006B0B82EC92E00E946B0B82E992E00E9428
:102BC0006B0B82E692E00E946B0B82E392E00E9424
:102BD0006B0B82E092E00E946B0B82ED91E00E9411
:102BE0006B0B0E942D266093CA017093CB018093DA
:102BF000CC019093CD010895CF93DF93D82FC62FAA
:102C00006CE470E082E194E00E9432236D2F82E157
:102C100094E00E94CF226C2F82E194E00E94CF22A8
:102C200082E194E0DF91CF910C94472382E194E01C
:102C30000E940E2360E087E00E94FC1560E186E0C0
:102C40000E94FC1560E088E00E94FC1561E087E0CE
:102C50000C94FC150F931F93CF93DF9300D0CDB747
:102C6000DEB78091640084608093640026E040E0D9
:102C700051EE60E070E08FED94E00E94D32880E098
:102C80000E94B326BC01882777FD8095982F0E946B
:102C9000412B61E089E00E94582761E086E00E94B4
:102CA000582761E085E00E94582760E082E00E949A
:102CB000582761E081E10E94582761E081E10E948C
:102CC00091276CE278E08FED94E00E94582A8FEF14
:102CD00093E00E947A2F8F3149F168E078E08FED20
:102CE00094E00E94582A0E94110F6DEE77E08FED5C
:102CF00094E00E94282A4AE050E06FE18FED94E0D2
:102D00000E943A2B62EE77E08FED94E00E94582A01
:102D10000E94210F0E943D0E8FEF93E09A838983DA
:102D20006FE1CE0101960E944B0B17C06AEB77E072
:102D30008FED94E00E94282A4AE050E06FE18FED89
:102D400094E00E943A2B6DEA77E08FED94E00E94C8
:102D5000582A0E94D50E0E94860E0DE311E0F8015C
:102D6000819191918F010E94C80BF1E005351F07F9
:102D7000B1F70E941616F89410927A0085B5887FF4
:102D8000816085BD80918100887F81608093810012
:102D9000789460EA7FE080E090E00E9450260E94F4
:102DA0002D266093CA017093CB018093CC01909340
:102DB000CD010E94E71281E0809308010F900F90EF
:102DC000DF91CF911F910F91089582E194E00E94CD
:102DD0000E2360E187E00C94FC150F931F93CF93B3
:102DE000DF936BE472E08FED94E00E94582A40E09C
:102DF00060E080E00E947A120E94E51660E081E1C6
:102E00000E94912760EA7FE080E090E00E945026D7
:102E100083B7817F846083BF83B7816083BFF89469
:102E200042E050E065E47BE080E00E94592581E0CB
:102E30008CBB80E685BF80E485BF789488950E942E
:102E40002D266093CA017093CB018093CC0190939F
:102E5000CD01C0E0D0E082E00E94C727892B91F528
:102E60000E942D260091CA011091CB012091CC0126
:102E70003091CD01601B710B820B930B61307D474C
:102E80008105910558F00E942D266093CA01709328
:102E9000CB018093CC019093CD012196C13D87E079
:102EA000D807C8F269E372E08FED94E00E94282A07
:102EB00025E040E860E080E00E94C21286E4809352
:102EC000BC0105C0C13DD74068F71092BC0161E06C
:102ED00081E10E9491270E9416160E94E71281E06C
:102EE000809308011092B7011092B80160EA7FE068
:102EF00080E090E0DF91CF911F910F910C945026CC
:102F0000CF93C82F4091BC0150E04435510510F0DB
:102F10000C949020FA01ED5AFF4F0C94FD2E8091F5
:102F200008018823A9F08091B601882319F06FE881
:102F300077E002C065E877E08FED94E00E94282AF0
:102F40000E942A148FED94E00E94542A10920801E6
:102F5000CC2311F40C9499208091B9019091BA017D
:102F60008536910510F40C9499201092BA011092B4
:102F7000B90181E08093BC010C9499208091B90142
:102F80009091BA01893E9340B8F06BE777E08FEDFE
:102F900094E00E94282A25E040E860E880E80E944A
:102FA000C21284EF91E09093BA018093B90182E05C
:102FB0008093BC010C949920C1110C9499208091AC
:102FC000B801882391F08091B70191E0892780931F
:102FD000B701882319F068E677E002C066E577E07C
:102FE0008FED94E00E94582A05C00E94251381E0CD
:102FF000809308011092BA011092B9011092BC019D
:103000000C9499208091B9019091BA01813D97402B
:10301000B8F063E477E08FED94E00E94282A25E081
:1030200040E860E080E00E94C21284EF91E090935B
:10303000BA018093B90183E08093BC010C9499207C
:10304000C1110C9499206AE377E08FED94E00E941F
:10305000582A0E94ED160C9499208091B901909104
:10306000BA01813D9740B8F06FE277E08FED94E0D0
:103070000E94282A25E040E060E880E80E94C21211
:1030800084EF91E09093BA018093B90184E080933A
:10309000BC010C949920C1110C9499208091B80125
:1030A00091E089278093B8011092B701882319F025
:1030B00064E277E002C068E177E08FED94E00E947F
:1030C000582A1092BA011092B9011092BC010C94C6
:1030D00099208091B9019091BA01813D9740B8F053
:1030E0006EE077E08FED94E00E94282A25E040E82A
:1030F00060E880E80E94C21284EF91E09093BA01E8
:103100008093B90182E08093BC010C949920C11195
:103110000C9499208091D0019091D1010E94C80B0C
:1031200060E077E08FED94E00E94282A0E942A1444
:103130008FED94E00E94542AE091D001F091D101EA
:1031400015A61092BA011092B90181E0809308018E
:103150008AE08093BC010C94992080910801882317
:1031600021F00E94C91310920801CC2309F4E1C791
:103170008091B9019091BA018536910508F4D9C7BB
:103180001092BA011092B9018BE08093BC01D1C7B3
:10319000811115C08091BB0190E0019666E070E05E
:1031A0000E94A82E8093BB011092BA011092B9011F
:1031B00081E0809308018AE08093BC01BAC78091C6
:1031C000B9019091BA01893E934008F4B2C76AEE02
:1031D00076E08FED94E00E94282A25E040E060E848
:1031E00080E80E94C21284EF91E09093BA0180932C
:1031F000B9018CE08093BC019CC781114DC0109235
:10320000BA011092B9016CED76E08FED94E00E9466
:10321000282A8091BB018230E1F050F4882381F0AC
:10322000813039F5E091D001F091D10182A70DC034
:103230008330A9F08430E9F40E94E71482E31CC0D3
:10324000E091D001F091D10112A60E94941484E182
:1032500013C0E091D001F091D10112A606C0E09117
:10326000D001F091D10181E082A70E944E1588E241
:1032700003C00E9420158CE38093BC018091D00193
:103280009091D1010E94C80B81E0809308018FEDDD
:1032900094E00E94542A4DC78091B9019091BA01DF
:1032A000813D974008F445C76EEC76E08FED94E0E1
:1032B0000E94282A25E040E860E880E80E94C212C7
:1032C0008DE08093BC0135C7811133C78091D00157
:1032D0009091D1010E94C80B6DEB76E08FED94E0E8
:1032E0000E94582A1092BA011092B90181E080938D
:1032F00008011092BC011DC780910801882371F05C
:1033000066EB76E08FED94E00E94282A0E949414E8
:103310008FED94E00E94542A10920801CC2309F406
:1033200008C78091B9019091BA018536910508F4DA
:1033300000C71092BA011092B90185E18093BC01D7
:10334000F8C68091B9019091BA01893E9340E0F0AE
:103350006DEA76E08FED94E00E94282A0E94941492
:103360008FED94E00E94542A25E040E460E480E47C
:103370000E94C21284EF91E09093BA018093B90148
:1033800087E18093BC01D5C6C111D3C61092BA01A2
:103390001092B90186E18093BC01CBC68091B9013E
:1033A0009091BA018D3B924050F1E091D001F091A3
:1033B000D10192A585A5A5E19A9FE00DF11D1124EB
:1033C000E80FF11D828190E0805C9F4F6FE370E019
:1033D0000E94A82E828360EA76E08FED94E00E943E
:1033E000282A0E9494148FED94E00E94542A10928F
:1033F000BA011092B90184E18093BC019AC6CC2332
:1034000009F497C6E091D001F091D10192A585A56C
:10341000B5E19B9FE00DF11D1124E80FF11D8281A4
:1034200090E0CE966FE370E00E94A82E828363E95D
:1034300076E08FED94E00E94282A0E9494148FED8C
:1034400094E00E94542A88E18093BC0172C6809166
:10345000B9019091BA01893E934048F1E091D001C1
:10346000F091D10192A585A525E1929FE00DF11D76
:103470001124E80FF11D8281805C82836AE876E086
:103480008FED94E00E94282A0E9494148FED94E01E
:103490000E94542A25E040E460E480E40E94C212C5
:1034A00084EF91E09093BA018093B90142C6C111B3
:1034B00040C6E091D001F091D10182A5DF0135E154
:1034C000839FA00DB11D112485A58F5F11968C934C
:1034D0006FE776E08FED94E00E94282A0E94941412
:1034E0008FED94E00E94542A1092BA011092B90113
:1034F00081E0809308018EE18093BC011AC681119E
:1035000018C61092BA011092B90184E18093BC01EF
:1035100010C680910801882371F065E776E08FED91
:1035200094E00E94282A0E9494148FED94E00E9457
:10353000542A10920801CC2309F4FBC58091B901EB
:103540009091BA018536910508F4F3C51092BA013D
:103550001092B9018FE18093BC01EBC58091B90154
:103560009091BA01813D9740B0F065E676E08FED2D
:1035700094E00E94282A25E040E060E080E80E9474
:10358000C21284EF91E09093BA018093B90180E276
:103590008093BC01CEC5C111CCC5E091D001F091A2
:1035A000D10185A58F5F85A71092BA011092B9014C
:1035B00069E576E08FED94E00E94282A0E94941439
:1035C0008FED94E00E94542A8091D0019091D10116
:1035D000FC0125A52C3009F041C03091CE01E091CD
:1035E000CF012E9FF0011124E30FF11DE35FFE4F89
:1035F000E081F0E0EE0FFF1FEB5AFE4F608171811A
:103600000E94D50B8091D0019091D1010E94C80BEE
:1036100060E576E08FED94E00E94282AE091D001E9
:10362000F091D10182A525E1829FE00DF11D1124C9
:103630004AE050E061818FED94E00E943A2B69E40A
:1036400076E08FED94E00E94582A25E040E860E89B
:1036500080E80E94C2121092BC016BC584E1809385
:10366000BC0167C58091B9019091BA01813D974035
:1036700080F06BE376E08FED94E00E94282A25E04D
:1036800040E860E880E80E94C21281E28093BC01B9
:1036900050C5C1114EC51092BA011092B90164E330
:1036A00076E08FED94E00E94582AE091D001F091ED
:1036B000D10185A5811105C081E08093080184E1D5
:1036C0000FC0815085A782A595E1899FE00DF11D6E
:1036D000112481818150818381E0809308018EE1F2
:1036E0008093BC010E9494148FED94E00E94542AB0
:1036F00020C581111EC568E276E08FED94E00E943E
:10370000282A0E9494148FED94E00E94542A8091FC
:10371000D0019091D101DC019A962C919A97C5E144
:10372000FC01C29FE00DF11D11249D962C912F5F8D
:1037300021832091CE01E091CF01BCE0EB9FF0010D
:103740001124E20FF11DE35FFE4FE081F0E0EE0F88
:10375000FF1FEB5AFE4F608171810E94D50B809153
:10376000D0019091D1010E94C80B6FE176E08FEDFE
:1037700094E00E94282AE091D001F091D10182A525
:10378000C89FE00DF11D11244AE050E061818FEDEA
:1037900094E00E943A2B68E176E08FED94E00E947D
:1037A000582A1092BA011092B90181E08093080161
:1037B0001092BC01BEC480910801882371F06EE0B4
:1037C00076E08FED94E00E94282A0E944E158FED3E
:1037D00094E00E94542A10920801CC2309F4A9C451
:1037E0008091B9019091BA018536910508F4A1C480
:1037F0001092BA011092B90189E28093BC0199C478
:103800002091B9013091BA01203D374080F061E04C
:1038100076E08FED94E00E94282A25E040E860E8F9
:1038200080E80E94C2128AE28093BC0182C48111A6
:1038300080C4E091D001F091D10182A525E1829F61
:10384000E00DF11D1124808190E001968F70992781
:10385000808366EF75E08FED94E00E94282A0E9435
:103860004E158FED94E00E94542A8091D0019091E2
:10387000D1010E94C80B1092BA011092B90188E2DE
:103880008093BC0156C4811154C48091CE01E09153
:10389000CF013CE0E39FF0011124E80FF11DE35F4D
:1038A000FE4FE081F0E0EE0FFF1FEB5AFE4F60810C
:1038B00071818091D0019091D1010E94D50B8091AE
:1038C000D0019091D1010E94C80B6DEE75E08FED93
:1038D00094E00E94282A0E944E158FED94E00E94E9
:1038E000542A1092BA011092B90181E08093080124
:1038F0001092BC011EC4882309F41BC48091B90135
:103900009091BA018536910508F413C41092BA015A
:103910001092B90183E38093BC010BC4811120C0D4
:10392000E091D001F091D10183A590E0019665E08E
:1039300070E00E94A82E83A762EE75E08FED94E000
:103940000E94282A0E94E7148FED94E00E94542AD6
:103950001092BA011092B90182E38093BC01E9C3CD
:103960008091B9019091BA01803D974008F4E1C37C
:1039700065ED75E08FED94E00E94282A25E040E88F
:1039800060E880E80E94C21284E38093BC01D1C346
:103990008111CFC38091CE01E091CF01BCE0EB9FBC
:1039A000F0011124E80FF11DE35FFE4FE081F0E02C
:1039B000EE0FFF1FEB5AFE4F608171818091D001A5
:1039C0009091D1010E94D50B8091D0019091D101AD
:1039D0000E94C80B6DEC75E08FED94E00E94282AE0
:1039E0000E94E7148FED94E00E94542A1092BA01CD
:1039F0001092B90181E0809308011092BC0199C333
:103A0000882309F496C38091B9019091BA01853653
:103A1000910508F48EC31092BA011092B9018DE39A
:103A20008093BC0186C3811120C0E091D001F09148
:103A3000D10184A590E0019663E070E00E94A82E79
:103A400084A762EC75E08FED94E00E94282A0E9422
:103A500020158FED94E00E94542A1092BA01109222
:103A6000B9018CE38093BC0164C38091B90190914A
:103A7000BA01803D974008F45CC365EB75E08FEDBB
:103A800094E00E94282A25E040E860E880E80E944F
:103A9000C2128EE38093BC014CC381114AC3809152
:103AA000CE01E091CF012CE0E29FF0011124E80F5C
:103AB000F11DE35FFE4FE081F0E0EE0FFF1FEB5AD8
:103AC000FE4F608171818091D0019091D1010E945F
:103AD000D50B8091D0019091D1010E94C80B6DEA65
:103AE00075E08FED94E00E94282A0E9420158FED4A
:103AF00094E00E94542A1092BA011092B90181E018
:103B0000809308011092BC0114C3811110C063EAB4
:103B100075E08FED94E00E94582A1092B601109241
:103B2000BA011092B90187E48093BC0102C380916D
:103B3000B9019091BA018938934108F4FAC262E957
:103B400075E08FED94E00E94282A25E040E060E0D7
:103B500080E80E94C21284EF91E09093BA018093B2
:103B6000B9018EE48093BC01E4C2809108018823EE
:103B700071F066E875E08FED94E00E94282A0E94BB
:103B800007148FED94E00E94542A10920801CC2370
:103B900009F4CFC28091B9019091BA01853691059F
:103BA00008F4C7C21092BA011092B90188E4809358
:103BB000BC01BFC22091B9013091BA01203D37400C
:103BC000B0F06FE675E08FED94E00E94282A25E0C2
:103BD00040E860E080E00E94C21284EF91E09093A0
:103BE000BA018093B90189E48093BC01A2C2C111DA
:103BF000A0C28091CF0190E00196837099278093B5
:103C0000CF016DE575E08FED94E00E94282A0E94B7
:103C100007148FED94E00E94542A0E94E71210923C
:103C2000BA011092B90187E48093BC0182C220914D
:103C3000B9013091BA01203D3740B0F068E475E039
:103C40008FED94E00E94282A25E040E060E880E8BB
:103C50000E94C21284EF91E09093BA018093B9015F
:103C60008AE48093BC0165C2811163C268E375E098
:103C70008FED94E00E94282A6091CF0170E06F5F81
:103C80007F4F4AE050E08FED94E00E94152B109298
:103C9000BA011092B90181E0809308011092BC0131
:103CA00048C22091B9013091BA01203D374080F0DF
:103CB0006AE175E08FED94E00E94282A25E040E05B
:103CC00060E880E00E94C2128BE48093BC0131C2A4
:103CD00081112FC20E94E71265E175E08FED94E03B
:103CE0000E94582A1092BA011092B90181E0809383
:103CF000080180E58093BC011CC281111AC2109298
:103D0000A9011092AA011092AB011092AC0110927D
:103D1000B1011092BA011092B90181E080930801BB
:103D20001092AD011092AE011092AF011092B0014D
:103D300069E075E08FED94E00E94582A8CE480934E
:103D4000BC01F7C12091B9013091BA01882309F46F
:103D5000A3C02536310508F49FC01092BA01109215
:103D6000B90161E075E08FED94E00E94282A4AE0F5
:103D700050E06091B1018FED94E00E943A2B809168
:103D8000B101882309F444C08091A9019091AA014E
:103D9000A091AB01B091AC014091AD015091AE0149
:103DA0006091AF017091B001840F951FA61FB71FDE
:103DB0008093A9019093AA01A093AB01B093AC01A9
:103DC00064EF74E08FED94E00E94282A4091AD01E9
:103DD0005091AE016091AF017091B0012AE030E0E6
:103DE0008FED94E00E942D2B6CEE74E08FED94E04B
:103DF0000E94282A4091A9015091AA016091AB012B
:103E00007091AC012AE030E08FED94E00E942D2B00
:103E10008091B101843058F18091A9019091AA015B
:103E2000A091AB01B091AC0152E0880F991FAA1F7D
:103E3000BB1F5A95D1F78093040190930501A0937D
:103E40000601B09307016BED74E08FED94E00E94E2
:103E5000282A40910401509105016091060170915A
:103E600007012AE030E08FED94E00E942D2B8FEDCA
:103E700094E00E94542A8091B1018F5F8093B10138
:103E80001092AD011092AE011092AF011092B001EC
:103E90008DE48093BC014DC121323E4408F449C1F8
:103EA0001092BA011092B90181E08093080110923A
:103EB000BC013FC181113DC11092BA011092B901FC
:103EC0008091B101853080F01092B2011092B3015F
:103ED0001092B4011092B50181E08093B6018093F5
:103EE00008011092BC0125C18CE48093BC0121C162
:103EF00081111FC10E94210F0E94E7126EEC74E035
:103F00008FED94E00E94582A81E08093080110927E
:103F1000BC010FC180910801882371F064EC74E04A
:103F20008FED94E00E94282A0E942A148FED94E0DD
:103F30000E94542A10920801CC2309F4FAC08091FF
:103F4000B9019091BA018536910508F4F2C010923A
:103F5000BA011092B90181E58093BC01EAC02091B9
:103F6000B9013091BA01203D3740B0F067EB74E001
:103F70008FED94E00E94282A25E040E860E080E888
:103F80000E94C21284EF91E09093BA018093B9012C
:103F900082E58093BC01CDC08111CBC0E091CF01FF
:103FA0008091CE012CE0E29FF0011124E80FF11D79
:103FB000E35FFE4F808190E001966CE070E00E942C
:103FC000A82E8083FC01EE0FFF1FE35CFE4F808173
:103FD00091819093D1018093D0010E94C80B6CEA2B
:103FE00074E08FED94E00E94282A0E942A148FED3D
:103FF00094E00E94542A1092BA011092B90180E50F
:104000008093BC0196C02091B9013091BA01203D46
:10401000374080F06EE974E08FED94E00E94282A2A
:1040200025E040E860E880E80E94C21283E58093C2
:10403000BC017FC0C1117DC08091CE018F5F809394
:10404000CE011092BA011092B90168E974E08FEDC7
:1040500094E00E94282A0E942A148FED94E00E9486
:10406000542A8091CE01E091CF018C30B9F4F0E078
:10407000E75FFE4F80830E943D0E0E94E71260E9D9
:1040800074E08FED94E00E94282A0E9407148FEDBF
:1040900094E00E94542A1092BC014BC09CE0E99F1E
:1040A000F0011124E80FF11DE35FFE4FE081F0E025
:1040B000EE0FFF1FE35CFE4F808191819093D10151
:1040C0008093D0010E94C80B81E08093080180E5B5
:1040D0008093BC012EC081112CC0E091CF01F0E093
:1040E000E75FFE4F8091CE018F5F80830E943D0E7F
:1040F0000E94E71268E874E08FED94E00E94282A9D
:104100000E9407148FED94E00E94542A1092BA0185
:104110001092B90181E0809308011092BC0109C09E
:104120001092BA011092B90181E0809308011092B7
:10413000BC018091AD019091AE01A091AF01B09111
:10414000B0010196A11DB11D8093AD019093AE0108
:10415000A093AF01B093B0018091B9019091BA01E1
:1041600001969093BA018093B901CF9108950F936E
:104170001F93CF93DF9300D000D0CDB7DEB76CE4B0
:1041800070E082E194E00E943223E0911204F09109
:1041900013040190F081E02D60E082E194E0099544
:1041A00082E194E00E94472343E050E06CE470E039
:1041B00082E194E00E94252382E194E00E9477222C
:1041C000892B09F466C04091C5015091C6016091E8
:1041D000C7017091C80182E194E049835A836B83DF
:1041E0007C830E947F2206E616E626E63FE34981AD
:1041F0005A816B817C810E9473136093C501709317
:10420000C6018093C7019093C8014091C1015091AC
:10421000C2016091C3017091C40182E194E04983BD
:104220005A836B837C830E947F2206E616E626E68D
:104230003FE349815A816B817C810E9473136093B3
:10424000C1017093C2018093C3019093C401409156
:10425000BD015091BE016091BF017091C00182E12A
:1042600094E049835A836B837C830E947F2206E615
:1042700016E626E63FE349815A816B817C810E94E4
:1042800073136093BD017093BE018093BF0190933F
:10429000C0010F900F900F900F90DF91CF911F9161
:1042A0000F910895CF92DF92EF92FF920F931F9399
:1042B000CF93DF9300D01F92CDB7DEB782E00E948C
:1042C000C72721E0892B09F020E0822F0E94801768
:1042D0008091C901843110F01092C9018091C90107
:1042E000811125C00E94B7208091BC018A508C3377
:1042F000F0F0C090BD01D090BE01E090BF01F09001
:10430000C0010091C1011091C2012091C3013091FF
:10431000C4014091C5015091C6016091C7017091DF
:10432000C8018091D0019091D1010E94080C809128
:10433000C9018F5F8093C9018091BC01811110C0B8
:104340009E012F5F3F4FAE014E5F5F4FBE016D5F1D
:104350007F4F8091D0019091D1010E94960B6DC04A
:10436000982F977F963411F41B8265C08A30E0F352
:104370008431A8F48091BB01823009F455C038F42F
:10438000882309F456C0813009F44AC035C083300F
:1043900019F08430A1F130C01B828FEF36C0E0915C
:1043A000D001F091D1018E31B0F485A592A525E11F
:1043B000929FE00DF11D1124E80FF11D9E012F5F6A
:1043C0003F4FAE014E5F5F4FBE016D5F7F4F8281F9
:1043D0000E94FA0432C0823308F4B2CF8C33B8F4AE
:1043E00083A58230E9F018F4813019F10CC08330D4
:1043F00019F0843021F007C08FEF8B8302C01B823D
:104400008FEF8A8319C080E48B838A8310C086343F
:1044100008F096CF84A5882319F0813029F009C0CF
:104420001B821A828FEF03C08FEF8B831A828983DE
:1044300004C08FEF8B831A8219828091B801882380
:1044400039F08091B701882319F01B821A821982F2
:104450008091BC018A3038F58091B601882319F12A
:104460004091B2015091B3016091B4017091B501D6
:104470008091040190910501A0910601B09107017E
:1044800084179507A607B70770F40E9425136DE9F6
:1044900077E08FED94E00E94282A0E942A148FED85
:1044A00094E00E94542A49816A818B810E947A1289
:1044B0008091B2019091B301A091B401B091B50186
:1044C0000196A11DB11D8093B2019093B301A093F9
:1044D000B401B093B5010F900F900F90DF91CF9181
:1044E0001F910F91FF90EF90DF90CF9008958091F2
:1044F000420490E020914304821B91090895209189
:10450000430480914204281750F4E22FF0E0EC5B62
:10451000FB4F808190E02F5F2093430408958FEF3D
:104520009FEF0895E091430480914204E81730F42E
:10453000F0E0EC5BFB4F808190E008958FEF9FEF00
:1045400008950895CF92DF92EF92FF920F931F93F9
:10455000CF93DF937C01CB018A0120911E0422239B
:1045600089F0EB016B01C40ED51ECC15DD0569F099
:104570006991D701ED91FC910190F081E02DC70187
:104580000995F3CF642F0E940324C801DF91CF91D6
:104590001F910F91FF90EF90DF90CF900895CF93F0
:1045A000DF931F92CDB7DEB7698320911E042223CB
:1045B000D1F020911F04203240F021E030E0FC01D6
:1045C0003383228380E090E015C080912004E82F9F
:1045D000F0E0EF5DFB4F998190838F5F8093200423
:1045E00080931F0405C061E0CE0101960E94032460
:1045F00081E090E00F90DF91CF910895FC0113824C
:10460000128248EE53E060E070E044835583668395
:10461000778382E791E09183808308951092430429
:10462000109242041092200410921F040C944E2306
:10463000862F413208F040E264E474E00E946C236B
:104640001092430480934204089521E00C941823AF
:1046500081E080931E046093410410922004109224
:104660001F0408950C9428230F93062F21E04091F6
:104670001F0461E274E0809141040E94B023109213
:10468000200410921F0410921E040F91089561E0FF
:104690000C94342382E194E00C94FE221092D10415
:1046A00081E08093CF041092CE0461E082E10E9409
:1046B000912761E083E10E949127E9EBF0E080819E
:1046C0008E7F808380818D7F808388E48093B80093
:1046D00085E48093BC000895413208F03FC090917A
:1046E000D1049111FCCF91E09093D1042093CF0499
:1046F0002FEF209364041092A904240F2093A804A0
:104700009093D0049091D004880F892B8093D0048B
:104710008091CE04813041F41092CE048091D00477
:104720008093BB0085EC01C085EE8093BC00809136
:10473000D1048130E1F38091A904841710F44091F1
:10474000A9042AEA34E0FB01D9018A2F821B8417CD
:1047500018F48D918193F9CF842F089580E0089506
:104760000F93413208F046C09091D1049111FCCFD3
:1047700092E09093D1040093CF049FEF9093640450
:104780001092A9044093A804FB016AEA74E0DB01DB
:104790009A2F961B941718F491919D93F9CF10922C
:1047A000D0049091D004880F892B8093D0048091FD
:1047B000CE04813041F41092CE048091D0048093D5
:1047C000BB0085EC01C085EE8093BC00222321F064
:1047D0008091D1048230E1F3809164048F3F61F0D5
:1047E00080916404803251F080916404803341F4FC
:1047F00083E007C081E005C080E003C082E001C023
:1048000084E00F910895613298F42091D10424300E
:1048100089F460938604FC0188E894E0DC012A2F87
:10482000281B261718F421912D93F9CF80E00895C5
:1048300081E0089582E0089585ED8093BC00809129
:10484000BC0084FDFCCF1092D104089585EC8093C8
:10485000BC001092D10408951F920F920FB60F92D0
:1048600011242F933F934F935F936F937F938F9375
:104870009F93AF93BF93EF93FF938091B900887F8D
:10488000803609F49CC068F5883209F45BC090F466
:10489000803109F454C038F4882309F4F5C0883015
:1048A00009F44DC0F5C0883109F44CC0803209F4D8
:1048B0005DC0EEC0803409F468C048F4803309F468
:1048C00055C0883309F0E4C080936404A8C08035E3
:1048D00009F44FC0883509F45DC0883409F0D8C0A8
:1048E000D5C0883909F4C6C0A8F4883709F467C070
:1048F00038F4883609F463C0803709F460C0C8C052
:10490000883809F4B7C0803909F45FC0803809F0ED
:10491000BFC05BC0803B09F485C038F4803A09F41D
:1049200066C0883A09F47EC0B3C0803C09F4A6C0D2
:10493000883C09F4A3C0883B09F489C0A9C08091D0
:10494000D00410C09091A9048091A804981770F524
:10495000E091A90481E08E0F8093A904F0E0E65570
:10496000FB4F80818093BB0085EC85C080936404FD
:104970008DC0E091A90481E08E0F8093A9048091FD
:10498000BB00F0E0E655FB4F80839091A904809135
:10499000A8046DC0E091A90481E08E0F8093A90462
:1049A0008091BB00F0E0E655FB4F80838091CF04FF
:1049B00081116CC081E08093CE0484EA60C083E002
:1049C0008093D10410926504CFCF8091650480322A
:1049D00008F050C0E091650481E08E0F809365047B
:1049E0008091BB00F0E0EA59FB4F8083BDCF8091FE
:1049F0006504803230F4E0916504F0E0EA59FB4F41
:104A000010820E941C246091650470E0E091CA0449
:104A1000F091CB0486E694E00995109265040E941B
:104A2000262436C084E08093D1041092870410922B
:104A30008604E091CC04F091CD0409958091860420
:104A4000811105C081E08093860410928804E09172
:104A5000870481E08E0F80938704F0E0E857FB4FD6
:104A600080818093BB009091870480918604981781
:104A700008F47ACF85E88093BC000AC085EC809367
:104A8000BC001092D10404C0109264040E941C2443
:104A9000FF91EF91BF91AF919F918F917F916F9116
:104AA0005F914F913F912F910F900FBE0F901F90EC
:104AB00018958230E8F4E82FF0E0EE0FFF1FEE5279
:104AC000FB4F71836083813041F0809169008C7F5E
:104AD000842B80936900E89A089580916900440FBF
:104AE000551F440F551F837F842B80936900E99ADB
:104AF0000895823068F4813011F0E89801C0E99897
:104B0000E82FF0E0EE0FFF1FEE52FB4F11821082F4
:104B100008951F920F920FB60F9211242F933F9377
:104B20004F935F936F937F938F939F93AF93BF93B5
:104B3000EF93FF938091D2049091D304892B29F0B5
:104B4000E091D204F091D3040995FF91EF91BF91C8
:104B5000AF919F918F917F916F915F914F913F9115
:104B60002F910F900FBE0F901F9018951F920F92CC
:104B70000FB60F9211242F933F934F935F936F9330
:104B80007F938F939F93AF93BF93EF93FF93809106
:104B9000D4049091D504892B29F0E091D404F091AC
:104BA000D5040995FF91EF91BF91AF919F918F919E
:104BB0007F916F915F914F913F912F910F900FBE19
:104BC0000F901F9018951F920F920FB60F921124FD
:104BD0002F933F938F939F93AF93BF938091D7046D
:104BE0009091D804A091D904B091DA043091D60400
:104BF00023E0230F2D3720F40196A11DB11D05C020
:104C000026E8230F0296A11DB11D2093D6048093A0
:104C1000D7049093D804A093D904B093DA04809178
:104C2000DB049091DC04A091DD04B091DE040196D8
:104C3000A11DB11D8093DB049093DC04A093DD04DF
:104C4000B093DE04BF91AF919F918F913F912F91CF
:104C50000F900FBE0F901F9018953FB7F89480915A
:104C6000DB049091DC04A091DD04B091DE0426B554
:104C7000A89B05C02F3F19F00196A11DB11D3FBF94
:104C80006627782F892F9A2F620F711D811D911D24
:104C900042E0660F771F881F991F4A95D1F7089544
:104CA000CF92DF92EF92FF92CF93DF936B017C0163
:104CB0000E942D26EB01C114D104E104F10489F016
:104CC0000E94892B0E942D266C1B7D0B683E734031
:104CD00090F381E0C81AD108E108F108C851DC4F0F
:104CE000EACFDF91CF91FF90EF90DF90CF900895C2
:104CF000789484B5826084BD84B5816084BD85B5B7
:104D0000826085BD85B5816085BDEEE6F0E080817D
:104D100081608083E1E8F0E010828081826080839E
:104D2000808181608083E0E8F0E080818160808321
:104D3000E1EBF0E0808184608083E0EBF0E0808153
:104D400081608083EAE7F0E08081846080838081F5
:104D5000826080838081816080838081806880839D
:104D60001092C10008958E3008F08E508770209107
:104D70006D0190E4299F90011124822B80937C0087
:104D800080917A00806480937A0080917A0086FD19
:104D9000FCCF809178002091790090E0922B0895CB
:104DA0001F93CF93DF93182FEB0161E00E945827E8
:104DB000209711F460E004C0CF3FD10539F461E0E1
:104DC000812FDF91CF911F910C949127E12FF0E07B
:104DD000E05CF64FE491E330F9F048F4E130B9F0EB
:104DE000E230A1F584B5806284BDC8BD34C0E7302F
:104DF000E9F0E83019F1E43049F5809180008062F3
:104E000080938000D0938B00C0938A0024C084B527
:104E1000806884BDC7BD1FC080918000806880937A
:104E20008000D0938900C093880015C08091B000A5
:104E300080688093B000C093B3000DC08091B00033
:104E400080628093B000C093B40005C0C038D10523
:104E50000CF0B5CFAFCFDF91CF911F910895833084
:104E600081F028F4813099F08230A1F008958730E4
:104E7000A9F08830B9F08430D1F4809180008F7D22
:104E800003C0809180008F7780938000089584B55F
:104E90008F7702C084B58F7D84BD08958091B00066
:104EA0008F7703C08091B0008F7D8093B00008950C
:104EB000CF93DF9390E0FC01EC5AF64F2491FC0174
:104EC000E859F64F8491882349F190E0880F991FA3
:104ED000FC01E057F64FA591B4918A57964FFC011B
:104EE000C591D4919FB7611108C0F8948C91209519
:104EF00082238C93888182230AC0623051F4F89413
:104F00008C91322F309583238C938881822B8883D8
:104F100004C0F8948C91822B8C939FBFDF91CF912A
:104F200008950F931F93CF93DF931F92CDB7DEB7F2
:104F3000282F30E0F901E05CF64F8491F901EC5A3A
:104F4000F64F1491F901E859F64F04910023C9F086
:104F5000882321F069830E942F276981E02FF0E0E8
:104F6000EE0FFF1FEA57F64FA591B4919FB7F89443
:104F70008C91611103C01095812301C0812B8C930A
:104F80009FBF0F90DF91CF911F910F910895CF9305
:104F9000DF93282F30E0F901E05CF64F8491F901AE
:104FA000EC5AF64FD491F901E859F64FC491CC234D
:104FB00091F081110E942F27EC2FF0E0EE0FFF1FE0
:104FC000E458F64FA591B4912C912D2381E090E007
:104FD00021F480E002C080E090E0DF91CF9108955D
:104FE000FC01818D228D90E0805C9F4F821B910996
:104FF0008F7399270895FC01918D828D981731F058
:10500000828DE80FF11D858D90E008958FEF9FEF61
:105010000895FC01918D828D981761F0828DDF01DA
:10502000A80FB11D5D968C91928D9F5F9F73928F9B
:1050300090E008958FEF9FEF08958DE899E2892B16
:1050400049F080E090E0892B29F00E948D298111A0
:105050000C9400000895FC01848DDF01A80FB11DA0
:10506000A35ABF4F2C91848D90E001968F7399279E
:10507000848FA689B7892C93A089B1898C9180648B
:105080008C93938D848D981306C00288F389E02D4C
:1050900080818F7D80830895CF93DF93EC01888D8D
:1050A0008823C9F0EA89FB89808185FD05C0A8892C
:1050B000B9898C9186FD0FC00FB607FCF5CF8081B2
:1050C00085FFF2CFA889B9898C9185FFEDCFCE01FC
:1050D0000E942B28E7CFDF91CF910895CF92DF92E6
:1050E000FF920F931F93CF93DF931F92CDB7DEB73D
:1050F0006C0181E0D60158968C9358975B969C91F1
:105100005B975C968C915C97981307C05096ED91D5
:10511000FC915197808185FD2EC0F601038D10E032
:105120000F5F1F4F0F731127F02EF601848DF812B9
:1051300011C00FB607FCF9CFD6015096ED91FC9146
:105140005197808185FFF1CFC60169830E942B288A
:105150006981EBCF838DE80FF11DE35AFF4F608328
:10516000D6015B960C935B975296ED91FC91539709
:10517000808180620CC0D6015696ED91FC915797C4
:1051800060835096ED91FC9151978081806480837B
:1051900081E090E00F90DF91CF911F910F91FF90F0
:1051A000DF90CF900895BF92CF92DF92EF92FF925F
:1051B000CF93DF93EC016A017B01B22EE889F98974
:1051C00082E08083411581EE580761057105A1F0E9
:1051D00060E079E08DE390E0A70196010E94BC2E8B
:1051E0002150310941095109569547953795279521
:1051F000211580E1380798F0E889F989108260E884
:1052000074E88EE190E0A70196010E94BC2E215027
:105210003109410951095695479537952795EC85F0
:10522000FD853083EE85FF852083188EEC89FD890E
:10523000B082EA89FB89808180618083EA89FB8969
:10524000808188608083EA89FB898081806880838F
:10525000EA89FB8980818F7D8083DF91CF91FF90E8
:10526000EF90DF90CF90BF9008951F920F920FB6EE
:105270000F9211242F938F939F93EF93FF93E091BD
:10528000EF04F091F0048081E091F504F091F604D0
:1052900082FD12C090818091F8048F5F8F732091FE
:1052A000F904821751F0E091F804F0E0E152FB4F6D
:1052B000958F8093F80401C08081FF91EF919F91B9
:1052C0008F912F910F900FBE0F901F9018951F92E6
:1052D0000F920FB60F9211242F933F934F935F932A
:1052E0006F937F938F939F93AF93BF93EF93FF93AE
:1052F0008FED94E00E942B28FF91EF91BF91AF9129
:105300009F918F917F916F915F914F913F912F91DD
:105310000F900FBE0F901F9018958FED94E00E9494
:10532000F02721E0892B09F420E0822F08951092C4
:10533000E2041092E10488EE93E0A0E0B0E08093F4
:10534000E3049093E404A093E504B093E60482E8B8
:1053500091E09093E0048093DF0485EC90E09093DB
:10536000EC048093EB0484EC90E09093EE04809343
:10537000ED0480EC90E09093F0048093EF0481ECD6
:1053800090E09093F2048093F10482EC90E090938B
:10539000F4048093F30486EC90E09093F6048093F9
:1053A000F5041092F8041092F9041092FA04109285
:1053B000FB04089508950E9478260E94DA290E942D
:1053C0002A16CDE1D8E20E9452212097E1F30E94F3
:1053D0001D28F9CFCF92DF92EF92FF920F931F9388
:1053E000CF93DF936C017A01EB01E60EF71E00E02C
:1053F00010E0CE15DF0561F06991D601ED91FC91C9
:105400000190F081E02DC6010995080F191FF1CF19
:10541000C801DF91CF911F910F91FF90EF90DF9026
:10542000CF9008956115710581F0DB010D9000208A
:10543000E9F7AD0141505109461B570BDC01ED91D5
:10544000FC910280F381E02D099480E090E00895C2
:10545000EF92FF920F931F93CF93DF938C01FB0189
:10546000C0E0D0E064917F018FEFE81AF80A66236C
:1054700061F0D801ED91FC910190F081E02DC8011F
:105480000995C80FD91FF701EDCFCE01DF91CF915C
:105490001F910F91FF90EF900895DC01ED91FC9129
:1054A0000190F081E02D09946EE871E00C94122ACD
:1054B0000F931F93CF93DF93EC010E94282A8C0156
:1054C000CE010E94542A800F911FDF91CF911F912E
:1054D0000F9108958F929F92AF92BF92CF92DF92D9
:1054E000EF92FF920F931F93CF93DF93CDB7DEB769
:1054F000A1970FB6F894DEBF0FBECDBF7C01C42EBE
:10550000E52FCB01D22E19A221E02D1510F02AE0B3
:10551000D22E8E010F5D1F4F8D2C912CA12CB12C02
:105520006C2D7E2FA50194010E94BC2E8C2DD29E45
:1055300080191124015011098A3014F4805D01C0D2
:10554000895CF8018083211531054105510521F061
:10555000C22EE32FCA01E4CFB801C7010E94122A6C
:10556000A1960FB6F894DEBF0FBECDBFDF91CF91ED
:105570001F910F91FF90EF90DF90CF90BF90AF9071
:105580009F908F900895CF92DF92EF92FF920F93AA
:105590001F93CF93DF93EC016A017B012115310545
:1055A00079F4E881F9810190F081E02D642FDF9199
:1055B000CF911F910F91FF90EF90DF90CF900994C2
:1055C0002A303105E9F477FF1AC06DE20E944D2AB6
:1055D0008C0144275527BA014C195D096E097F09D2
:1055E0002AE0CE010E946A2A800F911FDF91CF919D
:1055F0001F910F91FF90EF90DF90CF9008952AE0D8
:10560000B701A601CE01DF91CF911F910F91FF90BD
:10561000EF90DF90CF900C946A2A9A01AB01662735
:1056200057FD6095762F0C94C32A0F931F93CF9349
:10563000DF93EC019A01AB01662757FD6095762F49
:105640000E94C32A8C01CE010E94542A800F911F10
:10565000DF91CF911F910F9108952115310541F4EC
:10566000DC01ED91FC910190F081E02D642F099413
:105670000C946A2A9A01462F50E060E070E00C9486
:105680002D2B611571058105910511F00C94712F79
:105690000895CF93DF9300D000D0CDB7DEB79B0144
:1056A000AC01611571058105910569F069833A8343
:1056B0004B835C830E946C2F29813A814B815C81F2
:1056C0000E94DE2E03C060E070E0CB010F900F90CF
:1056D0000F900F90DF91CF910895CF92DF92EF92CC
:1056E000FF926B017C01621773078407950764F4CE
:1056F000CA01B9016C197D098E099F090E94492BC5
:105700006C0D7D1D8E1D9F1DFF90EF90DF90CF9043
:10571000089508955058BB27AA270ED0F7C1E8D1A5
:1057200030F0EDD120F031F49F3F11F41EF4B8C1F8
:105730000EF4E095E7FBAEC1E92FF9D180F3BA177B
:10574000620773078407950718F071F49EF511C27C
:105750000EF4E0950B2EBA2FA02D0B01B90190018C
:105760000C01CA01A0011124FF27591B99F0593FD0
:1057700050F4503E68F11A16F040A22F232F342F18
:105780004427585FF3CF469537952795A795F04066
:105790005395C9F77EF41F16BA0B620B730B840B7B
:1057A000BAF09150A1F0FF0FBB1F661F771F881F33
:1057B000C2F70EC0BA0F621F731F841F48F487958B
:1057C00077956795B795F7959E3F08F0B3CF93957A
:1057D000880F08F09927EE0F97958795089588D13F
:1057E00058F080E891E009F49EEF89D128F040E874
:1057F00051E059F45EEF09C053C1BBC1E92FE07815
:1058000096D168F3092E052AC1F3261737074807F2
:10581000590738F00E2E07F8E02569F0E025E0641E
:105820000AC0EF6307F8009407FADB01B9019D0194
:10583000DC01CA01AD01EF9347D068D10AD05F9176
:10584000552331F02BED3FE049E450FD49EC63CFA7
:105850000895DF93DD27B92FBF7740E85FE3161681
:10586000170648075B0710F4D92F8ED19F938F93AB
:105870007F936F9335D2EEE4F1E015D147D12F91AC
:105880003F914F915F9193D1DD2349F09058A2EA67
:105890002AED3FE049EC5FE3D0785D274DDFDF91F3
:1058A00035C1D4D008F481E008950CD02FC127D1A0
:1058B00040F01ED130F021F45F3F19F0EBC05111E0
:1058C00059C1EEC034D198F39923C9F35523B1F3EC
:1058D000951B550BBB27AA2762177307840738F05F
:1058E0009F5F5F4F220F331F441FAA1FA9F333D0BE
:1058F0000E2E3AF0E0E830D091505040E695001C72
:10590000CAF729D0FE2F27D0660F771F881FBB1F2D
:10591000261737074807AB07B0E809F0BB0B802D07
:10592000BF01FF2793585F4F2AF09E3F510568F053
:10593000B1C020C15F3FECF3983EDCF386957795CC
:105940006795B795F7959F5FC9F7880F911D969555
:10595000879597F90895E1E0660F771F881FBB1FB1
:10596000621773078407BA0720F0621B730B840B5E
:10597000BA0BEE1F88F7E0950895E1D088F09F57A5
:1059800090F0B92F9927B751A0F0D1F0660F771F8B
:10599000881F991F1AF0BA95C9F712C0B13081F06B
:1059A000E8D0B1E00895E5C0672F782F8827B85F69
:1059B00039F0B93FCCF3869577956795B395D9F7CC
:1059C0003EF490958095709561957F4F8F4F9F4FD6
:1059D0000895E89409C097FB3EF4909580957095E2
:1059E00061957F4F8F4F9F4F9923A9F0F92F96E92B
:1059F000BB279395F695879577956795B795F111A0
:105A0000F8CFFAF4BB0F11F460FF1BC06F5F7F4F3C
:105A10008F4F9F4F16C0882311F096E911C077234E
:105A200021F09EE8872F762F05C0662371F096E857
:105A3000862F70E060E02AF09A95660F771F881F26
:105A4000DAF7880F9695879597F90895990F0008CA
:105A5000550FAA0BE0E8FEEF16161706E807F90740
:105A6000C0F012161306E407F50798F0621B730BDB
:105A7000840B950B39F40A2661F0232B242B252B5C
:105A800021F408950A2609F4A140A6958FEF811DFF
:105A9000811D089597F99F6780E870E060E00895A0
:105AA0009FEF80EC0895DF93CF931F930F93FF92A6
:105AB000EF92DF927B018C01689405C0DA2EEF0132
:105AC00076D0FE01E894A5912591359145915591A7
:105AD000AEF3EF0131DEFE019701A801DA9479F708
