:100000000C945C020C9488240C94B5240C94840207
:100010000C9484020C9484020C94C9020C94840203
:100020000C9484020C9484020C9484020C94840238
:100030000C9484020C9484020C9484020C94840228
:100040000C94E2240C9484020C9417280C944928F4
:100050000C9484020C9484020C9484020C94840208
:100060000C942B230C948402240A2D0A3A0A3F0A8A
:10007000490A4E0A580A600A6A0A720A7C0A800A09
:10008000840A910A990AA40AA90AB40ABE0AC80AEB
:10009000D50AE30AE80AF50A040B130B210B340B0B
:1000A0003F0B4B0B560B630B710B7A0B840B930BB3
:1000B000AB0BAE0BB90BBC0BC70BCA0BD60BE40BCF
:1000C000E90BEE0BF70B010C0D0C1B0C1E0C230C9B
:1000D000270C2B0C2F0C330C370C420C5A0C500CE9
:1000E000680C760C711F741F791FB01FD51FF31F8A
:1000F00008201E203B20084AD73B3BCE016E84BC23
:10010000BFFDC12F3D6C74319ABD56833DDA3D0071
:10011000C77F11BED9E4BB4C3E916BAAAABE0000BA
:1001200000803F0000000038404818000010100018
:10013000001800001010000018100010FF0000E070
:100140002000C04000A0600080800060A00040C08F
:100150000020E00000FF0000E02000C04000A060A0
:100160000080800060A00040C00020E00000FF2070
:1001700000E04000C06000A0800080A00060C000DF
:1001800040E00020404040A0101010A0101010A02F
:1001900080083050303080300850500830800830AF
:1001A00050300880300850500830803030503008CF
:1001B00080500850000102030405060708090A0BD5
:1001C0000C0D0E0F040506070000000000000000E3
:1001D0000000000008090A0B0000000000000000F9
:1001E000000000000C0D0E0F0000000000000000D9
:1001F000000000001004040401020D062426282A31
:100200002C2E000000000000000000000E06242636
:10021000282A2C2E00000000000000000000010130
:1002200009070187868584838200000000000000A2
:1002300000003B0348505800000000000000000090
:100240000000000001000602CE1A000000000000BD
:1002500000000000000000001502CE1A000000009F
:10026000000000000000000000000100130701244E
:1002700026282A2C2E000000000000000000140791
:10028000012426282A2C2E00000000000000000077
:100290000000270F080A0C0810181A1C1808101262
:1002A000141018000201000000000000000000000F
:1002B00000000000000000000F0901C8C801D0D0F4
:1002C00001D8D8000000000000000201000000007A
:1002D00000000000000000000000000000001E04FC
:1002E00018141612000000000000000000000000BA
:1002F00002010000000000000000000000000000FB
:10030000000000001D031E1A150000000000000080
:1003100000000000000002010000000000000000DA
:10032000000000000000000000003703212223002D
:1003300000000000000000000000000002010000BA
:1003400000000000000000000000000000000000AD
:1003500030031F1C19000000000000000000000016
:10036000000002010000000000000000000000008A
:10037000000000000000180DC1080A0C0E10121435
:1003800016181A1C1E0000000201000000000000E8
:100390000000000000000000000000001A07012417
:1003A00026282A2C2E000000000000000000020178
:1003B000000000000000000000000000000000003D
:1003C00000000F061FD4D414DFDF0000000000007F
:1003D000000000000201000000000000000000001A
:1003E00000000000000000000F0626ECEC2CE6E602
:1003F00000000000000000000000020100000000FA
:1004000000000000000000000000000000002303C6
:100410002124250000000000000000000000000072
:1004200002010000000000000000000000000000C9
:10043000000000001B0628002B002E00000000001A
:1004400000000000000002010000000000000000A9
:100450000000000000000000000000080002010091
:10046000000304070000000000000000010204086F
:10047000102040800102040810200102040810200E
:10048000040404040404040402020202020203033A
:1004900003030303000000002300260029000000DE
:1004A0000000250028002B00000000002400270089
:1004B0002A007E124922792811241FBECFEFD8E0EE
:1004C000DEBFCDBF11E0A0E0B1E0E0E1F9E502C0A0
:1004D00005900D92A434B107D9F726E0A4E4B1E069
:1004E00001C01D92AF34B207E1F714E0C8EBD4E0CD
:1004F00004C02297FE010E944B2CC23BD107C9F7D2
:100500000E94BD280C94862C0C94000041155105C6
:1005100029F480917A008F7780937A006A30710590
:10052000B1F063FF02C088E201C088E06770682B09
:1005300088E190E00FB6F894A895809360000FBE14
:10054000609360008091600080648093600083B756
:10055000817F846083BF232B51F4F89483B781603B
:1005600083BF85B7806685BF8F7D85BF04C0F89443
:1005700083B7816083BF7894889583B78E7F83BF6C
:100580007894452B29F480917A00806880937A00D2
:1005900008951F920F920FB60F9211248F9388E146
:1005A0000FB6F89480936000109260000FBE8F9198
:1005B0000F900FBE0F901F90189580E090E0FC0107
:1005C000EC5DFE4FE491DC01AB5BBE4FEC93FC01B4
:1005D000EB5DFE4FE4911196EC931197FC01EA5DFF
:1005E000FE4FE4911296EC9303968039910539F70A
:1005F0000895EF92FF920F931F93CF93DF93C7E479
:10060000D1E08C01855491407C01FE0132976081DC
:10061000C8010E94782CFE0131976081C8010196C3
:100620000E94782C6881C7018C0F9D1F0E94782C36
:100630000D5F1F4F239691E0C73DD90731F7DF913A
:10064000CF911F910F91FF90EF900895EF92FF923D
:100650000F931F93CF93DF93C7E4D1E08C018554B0
:1006600091407C01C8010E94702CFE01329780836A
:10067000C80101960E94702CFE0131978083C7014A
:100680008C0F9D1F0E94702C88830D5F1F4F239637
:1006900091E0C73DD90731F7DF91CF911F910F91BD
:1006A000FF90EF900895CF93DF93A82FB0E096E0EE
:1006B000B595A7959A95E1F78F7390E0FC01EE0F41
:1006C000FF1FE80FF91FEB5BFE4F8081EB01888372
:1006D0008181EA0188838281F9018083EB0188812D
:1006E00090E00A2E02C0959587950A94E2F78883D8
:1006F000FA01808190E00A2E02C0959587950A94B0
:10070000E2F78083E901888190E002C095958795A2
:10071000AA95E2F78883DF91CF9108952F923F92B7
:100720004F925F926F927F928F929F92AF92BF9201
:10073000CF92DF92EF92FF920F931F93CF93DF93AD
:1007400000D01F92CDB7DEB71B01F22ED02EA982AA
:100750009B828A82042F10E0BC0180E090E00E941E
:10076000542A2B013C01B10180E090E00E94542A00
:100770009B01AC01C301B2010E94C0292B013C01C5
:10078000B801882777FD8095982F0E94562A4B0143
:100790005C016E2D70E0601B710B882777FD8095E2
:1007A000982F0E94562AA30192010E94362B9B018A
:1007B000AC01C501B4010E94F6280E94282AEA81F2
:1007C000FB8160830F2D10E0B801882777FD8095AD
:1007D000982F0E94562A4B015C016C2D70E0601B23
:1007E000710B882777FD8095982F0E94562AA301C8
:1007F00092010E94362B9B01AC01C501B4010E94FD
:10080000F6280E94282AE88DF98D60830D2D10E0CE
:10081000B801882777FD8095982F0E94562A6B0192
:100820007C01F9816F2F70E0601B710B882777FDC9
:100830008095982F0E94562AA30192010E94362B80
:100840009B01AC01C701B6010E94F6280E94282A2C
:10085000EA8DFB8D60830F900F900F90DF91CF9109
:100860001F910F91FF90EF90DF90CF90BF90AF90CE
:100870009F908F907F906F905F904F903F902F90C0
:1008800008956F927F928F929F92AF92BF92CF9274
:10089000DF92EF92FF920F931F93CF93DF93CDB729
:1008A000DEB7B82E8B01DA01F90199888A896B8845
:1008B000811002C088248394911001C09B2C792C54
:1008C000882319F0891508F4782EF12CA7014C0D16
:1008D000511DC92CD12C4C9DC0014D9D900D5C9D8E
:1008E000900D1124889E9001899E300D112482E084
:1008F000981205C081E0781202C0240F351FC9018B
:100900008A0D911D6D917C9111976817790780F080
:1009100011961C921E928081870D80838B1540F06A
:10092000971002C0108204C06B2D0E94F32B90839D
:10093000662009F449C08D919C9182179307B8F401
:10094000BA010E94FF2B8E159F0588F4CB01B601DA
:100950000E94FF2B9081980F892F992787FD9095F2
:100960006B2D70E0971014C0861797073CF010921B
:10097000DB011092DC011092DD0126C0F801E80FC6
:10098000F91F2BED31E04CED51E06DED71E00BC046
:100990000E94132C800F911F2BED31E04CED51E0A4
:1009A0006DED71E0FC018081DF91CF911F910F917E
:1009B000FF90EF90DF90CF90BF90AF909F908F907F
:1009C0007F906F900C945303DF91CF911F910F9103
:1009D000FF90EF90DF90CF90BF90AF909F908F905F
:1009E0007F906F9008952F923F924F925F926F92F7
:1009F0007F928F929F92AF92BF92CF92DF92EF92AF
:100A0000FF920F931F93CF93DF93CDB7DEB7982E4E
:100A10008B013A01582C4D88BE888F89388C298CDF
:100A2000B11003C0BB24BA94B90C8B2C882319F0E5
:100A30008B1508F4882ED12CF12C4B2D50E0852DF0
:100A400090E031101EC0B7016C0D7D1D649FF00158
:100A5000659FF00D749FF00D1124EC0DFD1DAA2D66
:100A6000B0E0411003C0A80FB91F21C0AC014A0F6C
:100A70005B1F449ED001459EB00D1124A81BB90BED
:100A800016C0BC016A0D711D469ED001479EB00D77
:100A90001124A80FB91FC7018C0D9D1D849FF00163
:100AA000859FF00D949FF00D1124EC19FD09AD0107
:100AB0004E0F5F1FD3018D919C911197841795075D
:100AC000B0F01D921C92D9018C91880D8C9390E00E
:100AD000692D70E0615071098617970744F0B810CE
:100AE00002C01C9204C00E94132CD9018C932220B6
:100AF00009F482C0D3018D919C918E179F07B8F4A1
:100B0000B7016C0D7D1D0E94FF2B311006C08C15A6
:100B10009D0540F1F901808105C08E159F0510F5F6
:100B2000D9018C918F5F860F8F3F19F51BC08E1BEB
:100B30009F0B252D30E0B12CB1E03B1611F0411098
:100B400009C0B9016A0D7B1D0E94FF2B8217930714
:100B500048F011C0B9016A0D7B1D0E94FF2B8A1558
:100B60009B0548F01092DB011092DC011092DD0130
:100B700043C0811108C02BED31E04CED51E06DED2B
:100B800071E0F80124C0992787FD9095692D70E0E8
:100B9000861797079CF0B81429F3019761507109E3
:100BA0000E94132C800F911F2BED31E04CED51E092
:100BB0006DED71E0DC0111968C910AC0F801E80F2F
:100BC000F91F2BED31E04CED51E06DED71E08081CE
:100BD000DF91CF911F910F91FF90EF90DF90CF9019
:100BE000BF90AF909F908F907F906F905F904F904D
:100BF0003F902F900C945303DF91CF911F910F9151
:100C0000FF90EF90DF90CF90BF90AF909F908F902C
:100C10007F906F905F904F903F902F9008956F92CC
:100C20007F928F929F92AF92BF92CF92DF92EF927C
:100C3000FF920F931F93CF93DF93CDB7DEB7182F9B
:100C40003B01DA01F90109899A88011101C0082FD5
:100C5000F12CB7016C0D711D802F90E00197689FFA
:100C6000A001699F500D789F500D1124B12C9A015D
:100C7000220F331F2A0D3B1DC901880D911DCD90F8
:100C8000DC901197C816D90648F011961C921E9256
:100C90008081800F8083811708F01082992009F4E9
:100CA0004EC08D919C918417950750F40E94FF2BA4
:100CB0008E159F0518F580818150861B800F14C00A
:100CC0004A0D5B1D8417950710F480810DC08217B3
:100CD0009307A0F4841B950B0E94FF2B8E159F0594
:100CE00068F480818F5F860F8F3F41F0992787FDE1
:100CF0009095212F30E0821793073CF01092DB0192
:100D00001092DC011092DD011AC0F301E80FF91F07
:100D10002BED31E04CED51E06DED71E08081DF9124
:100D2000CF911F910F91FF90EF90DF90CF90BF90E8
:100D3000AF909F908F907F906F900C945303DF91B2
:100D4000CF911F910F91FF90EF90DF90CF90BF90C8
:100D5000AF909F908F907F906F9008952F923F92C9
:100D60004F925F926F927F928F929F92AF92BF92BB
:100D7000CF92DF92EF92FF920F931F93CF93DF9367
:100D8000CDB7DEB7982F2B013A01F801BE2C9A2C73
:100D9000682D3D882E887F89888D898C4E2D50E066
:100DA000EC2CF12CA081B181711145C08A01611137
:100DB0000CC0682F70E06A1B7B0BE69E5001E79E1B
:100DC000B00CF69EB00C11240AC0613051F411969B
:100DD000EA9E5001EB9EB00CFA9EB00C1124D82E66
:100DE00020C0A82EB12CB50161507109D62EDD0CA2
:100DF000AA15BB054CF41196EA9E5001EB9EB00C6F
:100E0000FA9EB00C11240DC061E070E06A1B7B0BF0
:100E10006D0D711DE69E5001E79EB00CF69EB00C64
:100E20001124211003C04A0D5B1D4AC0C89E400D0D
:100E3000511D112445C061110CC0682F70E06A1B60
:100E40007B0B469F8001479F100D569F100D11246C
:100E50000AC0613051F411964A9F80014B9F100DDA
:100E60005A9F100D1124D82E20C0682F70E08B01DE
:100E700001501109D02EDD0CA617B7074CF41196BE
:100E80004A9F80014B9F100D5A9F100D11240DC0D9
:100E900061E070E06A1B7B0B6D0D711D469F800148
:100EA000479F100D569F100D1124211004C0A8015A
:100EB0004E0D5F1D05C0A701B89E400D511D1124A8
:100EC00081E0831568F4D9018C91A82FB0E0692FD7
:100ED00070E061507109A617B70711F4490D511D53
:100EE000D3016D917C9111976417750708F44CC07C
:100EF0001D921C92311018C0408151814F5F5F4F8D
:100F0000518340836D2D70E064177507ECF5D901AE
:100F10004C9150E04F5F5F4F692F70E0CA010E9413
:100F2000132CD9018C932EC0B1E03B121AC0408122
:100F300051814F5F5F4F51834083D9014C9150E005
:100F40004F5F5F4F692F70E0CA010E94132CD901D7
:100F50008C938D2D90E04081518184179507A4F4E6
:100F600011C0D9018C918F5F8C93891768F01C9206
:100F7000808191810196918380834D2D50E04817A7
:100F8000590714F411821082882061F1F3018081E5
:100F900091818017910700F5D9018C91F201E80F3A
:100FA000F11D2BED31E04CED51E06DED71E08081F4
:100FB000DF91CF911F910F91FF90EF90DF90CF9035
:100FC000BF90AF909F908F907F906F905F904F9069
:100FD0003F902F900C9453031092DB011092DC0190
:100FE0001092DD01DF91CF911F910F91FF90EF9053
:100FF000DF90CF90BF90AF909F908F907F906F9039
:101000005F904F903F902F9008952F923F924F9274
:101010005F926F927F928F929F92AF92BF92CF9288
:10102000DF92EF92FF920F931F93CF93DF93CDB791
:10103000DEB7982E1B012A0189015D898E894F89AF
:10104000F12CD12C97012C0D3D1D829F3001839FE7
:10105000700C1124B12C682D70E0D2018D919C91FF
:101060001197511121C0A60CB71C6A0D7B1D861764
:10107000970758F01D921C92F801808190E001962C
:10108000692D70E00E94132C8083442309F49DC1D4
:10109000D2018D919C918615970508F44EC08A1552
:1010A0009B0508F068C1CCC0513021F5F301EA0D71
:1010B000FB1D6E0F7F1F8617970768F0D2011D92E8
:1010C0001C92D8018C9190E00196692D70E00E94ED
:1010D000132CD8018C93442309F477C1D2014D908D
:1010E0005C904A145B0408F4ABC04E165F0608F42B
:1010F0005EC041C1523009F082C0F301EE0FFF1F04
:10110000EA0DFB1D6E0F7F1F8617970768F0D2014F
:101110001D921C92D8018C9190E00196692D70E08F
:101120000E94132CD8018C93442309F44EC1D201A0
:101130008D919C918615970578F5B9010E94FF2B3A
:101140008E159F0508F017C1F8018081F101E80FA5
:10115000F11D28ED31E049ED51E06AED71E080814B
:101160000E9453038BED91E09F938F938CED91E060
:101170009F938F933DED832E31E0932EA090D80165
:10118000C090D901E090DA0100E020E040E0B30136
:10119000D2018D919C91E8C0A60CB71C8A159B05C5
:1011A00008F44EC08E179F0708F0E5C02C014A18BE
:1011B0005B08C201B9010E94FF2B8C159D0508F444
:1011C000DAC0D8018C91F101E80FF11D28ED31E072
:1011D00049ED51E06AED71E080810E9453038BED8F
:1011E00091E09F938F938CED91E09F938F932DEDE2
:1011F000822E21E0922EA12CC12CE12CADC05330C7
:1012000009F050C0F301EA0DFB1D6E0F7F1F86171A
:10121000970768F0D2011D921C92D8018C9190E042
:101220000196692D70E00E94132CD8018C93442301
:1012300009F4CBC0D2014D905C904A145B0418F4C1
:10124000F8018081A4C04E165F0608F094C04A18C9
:101250005B08C201B9010E94FF2B8C159D0508F4A3
:101260008AC0D8018C91F101E80FF11D28ED31E021
:1012700049ED51E06AED71E080810E945303F8016D
:10128000808190E00196692D70E00E94132C820D00
:10129000931D25ED31E046ED51E067ED71E0DC0195
:1012A0008C9146C0A60CB71C6A0D7B1D861797074C
:1012B00068F0F20111821082D8018C9190E00196C1
:1012C000692D70E00E94132CF8018083442309F4F7
:1012D0007CC0D2014D905C904614570408F052C077
:1012E000C201B9010E94FF2B8E159F0508F043C073
:1012F000F801808190E00196692D70E00E94132C26
:10130000820D931D28ED31E049ED51E06AED71E069
:10131000DC018C910E945303F8018081F101E80FF8
:10132000F11D25ED31E046ED51E067ED71E0808182
:101330000E9453038BED91E09F938F938CED91E08E
:101340009F938F939DED892E91E0992EA090D501CA
:10135000C090D601E090D7010091D8012091D90129
:101360004091DA01B301C2010E948E030F900F90E9
:101370000F900F902AC01092DB011092DC011092A6
:10138000DD0123C04A145B04B0F7D8018C91F10150
:10139000E80FF11D2BED31E04CED51E06DED71E00A
:1013A0008081DF91CF911F910F91FF90EF90DF909F
:1013B000CF90BF90AF909F908F907F906F905F90F5
:1013C0004F903F902F900C945303DF91CF911F913A
:1013D0000F91FF90EF90DF90CF90BF90AF909F90D4
:1013E0008F907F906F905F904F903F902F900895D7
:1013F0002F923F924F925F926F927F928F929F9225
:10140000AF92BF92CF92DF92EF92FF920F931F9312
:10141000CF93DF9300D0CDB7DEB7982F862FBA01D8
:10142000390198018701260115019A8289824F8925
:10143000C92ED12C9EE3C916D10408F06AC2F60168
:10144000EC5CFF4F0C94492C4F931F921F92812C00
:10145000A12CC12CA9E1EA2E09C04F931F921F9223
:10146000812CA12CE2E3CE2EF2E3EF2EA3010E9409
:1014700041044CC24F931F921F92812C4CC04F933A
:101480001F921F92812CA12C58E1C52EEE24E394CB
:10149000EDCF4F931F921F92812C52C04F931F92FA
:1014A0001F92812CA12C9EE1C92E44E1E42EDECFB7
:1014B0004F931F921F92812CA12CBDE2CB2E19C0FD
:1014C0004F931F921F92812CA12CA1E6CA2EF3E00C
:1014D000EF2ECCCF4F931F921F92812CA12CEEEBBD
:1014E000CE2E3FC04F931F921F92812C5CE8A52EF9
:1014F000C12C45E0E42EBACF4F931F921F922DC00E
:101500004F931F921F9234C04F9391E09F9392E0AC
:101510009F9390E2892EA12CA0E1CA2EB9E0EB2E78
:10152000A5CF4F9391E09F9393E09F93F0E18F2E8F
:1015300098CF4F9391E09F9393E09F93E0E48E2E9A
:10154000A12C56E1C52EC3CF4F9393E09F939F9359
:10155000CCCF4F9393E09F939F93812C4CE8A42E84
:10156000C12C9AE0E92E82CF4F9393E09F939F93F3
:10157000812CACE8AA2EBAE0CB2EBBCF4F931F92A2
:1015800091E09F939F939F93812CF4E1AF2E0BC02A
:101590004F9391E09F931F921F9295E09F9356E186
:1015A000852EE3E0AE2EC12C59C04F931F921F929F
:1015B0001F9291E09F93812CB2E3AB2E96E1C92E4E
:1015C00043E0E42E4DC04F931F9291E09F9305C0DE
:1015D0004F931F9291E09F9393E09F9395E09F9389
:1015E000F6E18F2EA3E0AA2E37C04F9391E09F9390
:1015F0009F9343E04F939F934EE1842E5EE1A52E8F
:10160000C12CEAE0EE2E2CC04F931F9291E09F93E5
:1016100093E09F931F92812CADE2AA2EBCE0CB2ECB
:1016200098E0E92E1DC04F931F9291E09F9393E0A5
:101630009F931F925CE3852EE8E2AE2EFEE1CF2E53
:101640000DC04F931F9291E09F9392E09F931F9242
:101650009DE2892E4FE0A42EBDE2CB2EA5E0EA2E1E
:10166000A3010E94F30471C04F9390E19F9391E016
:101670009F939F9392E09F938824839409C04F93F4
:1016800090E19F9391E09F939F9392E09F93812C91
:10169000A12CC12C45C04F9390E19F9391E09F9363
:1016A0009F9392E09F93F2E08F2EF2CF4F9390E2C0
:1016B0009F931F921F9291E09F9352E0852EA12C41
:1016C000E2E0CE2E3DC04F9398E09F9391E09F9330
:1016D0001F9292E09F9392E0892E40E5A42EC12CA8
:1016E0002FC04F9390E29F9391E09F939F931F92FF
:1016F000812C13C04F9390E29F9391E09F939F930F
:101700001F928824839409C04F9390E29F9391E0A5
:101710009F939F931F92B2E08B2EA12CAEE1CA2E15
:10172000F3E0EF2E0FC04F9398E09F9391E09F93CB
:101730001F9292E09F9352E0852EA12CE4E1CE2EE1
:1017400045E0E42EA3010E94AE060F900F900F908B
:101750000F900F90DEC04F931F9203C04F9395E000
:101760009F93A8E28A2EB0E1AB2EC12C98E0E92E1F
:1017700025C04F931F9203C04F9395E09F9355E56B
:10178000852EE8E0AE2EC12CF3E0EF2E17C04F936C
:101790001F9203C04F9395E09F93A8E28A2EB0E179
:1017A000AB2E95E0C92E45E0E42E08C04F931F9262
:1017B000812CE3E0AE2EC12CF4E1EF2EA3010E94B8
:1017C0000F060F900F90A5C04F9391E09F931F922B
:1017D00009C04F9397E09F931F920EC04F9391E0E3
:1017E0009F939F93812CA12C54E6C52E13C04F9339
:1017F00097E09F9391E09F939BE4892E49E1A42E6B
:1018000015C04F9391E09F9392E09F93B6E98B2E82
:10181000A12CC12CA6E9EA2E76C04F9394E09F93A9
:1018200092E09F93E6E98E2EF2E3AF2E49E1C42EBB
:1018300059E1E52E68C04F9398E002C04F9391E0C4
:101840009F9393E018C04F9393E09F931FC04F93D3
:1018500093E09F9329C04F9393E09F932FC04F93A2
:1018600093E09F9339C04F9393E09F9343C04F936E
:1018700091E09F9394E09F93812CA12CC12C9AEF2F
:10188000E92E41C04F9393E09F9394E09F93E6E14C
:101890008E2EF3E0AF2EA6E1CA2EB3E0EB2E33C0BE
:1018A0004F9393E09F9394E09F934DE2842E55E0F5
:1018B000A52E25C04F9393E09F9394E09F93F0E172
:1018C0008F2EA9E0AA2EB0E1CB2E99E0E92E1BC005
:1018D0004F9393E09F9394E09F9392E3892E42E38A
:1018E000A42E52E3C52EE2E3EE2E0DC04F9393E0FB
:1018F0009F9394E09F93ADE28A2EB2E3AB2EEDE28C
:10190000CE2EF5E0EF2EA3010E9405080F900F9058
:101910000F90F30180819181019691838083809162
:10192000DD01F20180838091DC01F10180838091EF
:10193000DB01E981FA8180830F900F90DF91CF91D5
:101940001F910F91FF90EF90DF90CF90BF90AF90DD
:101950009F908F907F906F905F904F903F902F90CF
:10196000089508950F931F93CF93DF931F92CDB7E0
:10197000DEB78C0169830E94702C6981681741F081
:10198000C8010F90DF91CF911F910F910C94782C8B
:101990000F90DF91CF911F910F9108950C94702CAF
:1019A000DC01ED91FC910190F081E02D0994DC01C6
:1019B000ED91FC910190F081E02D099480919304C8
:1019C00026E2829FC001112480529E4F9093DF0136
:1019D0008093DE0110924C0410924B0410924A0442
:1019E0001092410410924004109244041092470453
:1019F000109246041092430410924204109245043F
:101A0000109249041092480408958F929F92AF92C9
:101A1000BF92CF92DF92EF92FF920F931F93E091CC
:101A2000DE01F091DF01AF014A5F5F4F81E09091ED
:101A30004C04911180E08F936EED862E64E0962E1B
:101A40007FEDA72E74E0B72EA0EECA2EA4E0DA2E0A
:101A5000B0E4EB2EB4E0FB2E04E414E026E434E022
:101A6000648182810E94F809E091DE01F091DF013A
:101A7000AF014A5E5F4F81E090914C04913009F0D4
:101A800080E08F938EED882E84E0982E9FEDA92E16
:101A900094E0B92E20EEC22E24E0D22E32E4E32EC2
:101AA00034E0F32E05E414E028E434E0658183811A
:101AB0000E94F8090F900F901F910F91FF90EF90E7
:101AC000DF90CF90BF90AF909F908F900895FF923E
:101AD0000F931F93CF93DF93D82FC62FF42E0E941E
:101AE0002C250091E1041091E2042091E30430914F
:101AF000E404601B710B820B930B61157D4781051C
:101B0000910568F30E942C256093E1047093E20430
:101B10008093E3049093E4046D2F70E089E00E94C9
:101B2000B2256C2F70E086E00E94B2256F2D70E028
:101B300085E0DF91CF911F910F91FF900C94B2251A
:101B4000AF92BF92CF92DF92EF92FF920F931F93CB
:101B5000CF93DF93182F062FF42EE22EC0E0CE1580
:101B600089F0D0E0D23320F44F2D602F812F03C0B5
:101B700040E060E080E00E94670DDF5FD43691F7BF
:101B8000CF5FEDCF84E6C89FF00111249F2F990FFE
:101B9000990B9F01492F592F692F792F892FA090D9
:101BA000CE04B090CF04C090D004D090D104E09087
:101BB000D204F090D3040091D4041091D5040E9473
:101BC0004F2C2093CE043093CF044093D0045093F5
:101BD000D1046093D2047093D3048093D40490937F
:101BE000D504DF91CF911F910F91FF90EF90DF907F
:101BF000CF90BF90AF9008956091CC044091C604FF
:101C00005091C7042091C4043091C5048091C2044E
:101C10009091C304611130C04034510534F4403216
:101C200051053CF04054510904C04091C00450910A
:101C3000C1045093C7044093C6042034310534F4E2
:101C4000203231053CF02054310904C02091BE04FB
:101C50003091BF043093C5042093C40480349105AF
:101C600034F480329105FCF0805491091CC08091BD
:101C7000BC049091BD0417C0411568E056070CF0F4
:101C800050515093C7044093C604211548E03407CF
:101C90000CF030513093C5042093C404811568E0E2
:101CA00096070CF090519093C3048093C2048091E6
:101CB000C6049091C7049093C1048093C00480919E
:101CC000C4049091C5049093BF048093BE04809196
:101CD000C2049091C3049093BD048093BC04089502
:101CE0000F931F93CF93DF938091CC046091C60430
:101CF0007091C7040091C4041091C504C091C2043E
:101D0000D091C304811137C0882777FD8095982F23
:101D10000E94562A20E030E048EA51E40E94C0299F
:101D20006093B8047093B9048093BA049093BB0491
:101D3000B801882777FD8095982F0E94562A20E0C9
:101D400030E048EA51E40E94C0296093B4047093E3
:101D5000B5048093B6049093B704BE01882777FD3D
:101D60008095982F0E94562A20E030E048EA51E4FE
:101D70000E94C02936C0882777FD8095982F0E9441
:101D8000562A20E030E040E85AE30E94362B609368
:101D9000B8047093B9048093BA049093BB04B8015B
:101DA000882777FD8095982F0E94562A20E030E002
:101DB00040E85AE30E94362B6093B4047093B50454
:101DC0008093B6049093B704BE01882777FD809571
:101DD000982F0E94562A20E030E040E85AE30E9403
:101DE000362B6093B0047093B1048093B204909347
:101DF000B304DF91CF911F910F910895AF92BF92DD
:101E0000CF92DF92EF92FF920F931F93CF93DF93C6
:101E1000C090AC04D090AD04E090AE04F090AF045C
:101E200003E011E0CCE9AC2EC4E0BC2EC4E9D4E060
:101E3000F801619171918F0180E090E00E94542A35
:101E40009B01AC01C701B6010E942B2B18167CF038
:101E5000F8016685778580E090E00E94542A9B0116
:101E6000AC01C701B6010E94BC2987FF0DC0F50176
:101E700010822881822F90E0883C91051CF481E03B
:101E8000820F01C088EC8883F50180818F5F819388
:101E90005F018D3008F018822196F1E003311F07B1
:101EA00039F6DF91CF911F910F91FF90EF90DF9066
:101EB000CF90BF90AF900895E4E9F4E081E090E026
:101EC0002191273008F0982F8F5F8930C9F79093C0
:101ED000C8040895E0919204811103C01092910406
:101EE0000EC08091910490E00196AE2FB0E0A35710
:101EF000BB4F6C9170E00E94132C809391048091F1
:101F0000910490E1E99FF0011124E80FF11DE35BDA
:101F1000FB4F8081809393040C94DE0CCF93DF936E
:101F2000C0E0D0E060E0CE010E94B20C2196C11565
:101F300084E0D807B9F7DF91CF9108950F931F93ED
:101F4000CF93DF93C0EED1E088EF91E020E030E066
:101F5000FC01449148833196E491D901A052BE4FCF
:101F60001196EC931197FC013296E4911296EC9342
:101F70001297FC013396E4911496EC931497FC01AC
:101F80007496E4911396EC931397FC017596E49183
:101F90001596EC9340E050E0890104501E4FB901C2
:101FA000625F7D4FF801E40FF51FE491DE01A40F9D
:101FB000B51F1696EC931697FB01E40FF51FE491FD
:101FC0005696EC934F5F5F4F4031510559F7869617
:101FD0002A5D3F4FA6962036F2E03F0709F0B8CFC2
:101FE000DF91CF911F910F9108951F93CF93DF93AE
:101FF00044EF51E0ADE8B4E080E090E0FA012491D4
:102000002D9320E030E0EC01CC54DE4FBC01635B4B
:102010007B4FFE01E20FF31F1491FB01E20FF31F50
:1020200010832F5F3F4F2031310599F74F5F5F4F8E
:1020300040968034910511F7DF91CF911F9108955B
:10204000DF92EF92FF920F931F93CF93DF93E82ECF
:1020500088E2E89EE001112496E2E99E80011124C5
:1020600000521E4FF8016081CE010E94B20CF801AF
:102070006181CE0101960E94B20CF8016281CE010D
:1020800002960E94B20CF8016481CE0103960E9470
:10209000B20CF8016381CE0144960E94B20CF801A3
:1020A0006581CE0145960E94B20C8E010A5E1F4FDB
:1020B000F6E2EF9E70011124EC1AFD0AC70180526E
:1020C0009E4F7C01D0E1DD2EE701C00FD11FFE0144
:1020D00070976081C80142970E94B20C6881C80164
:1020E0000E94B20CDA940F5F1F4FD110EDCFDF9139
:1020F000CF911F910F91FF90EF90DF900895CF93B4
:10210000C0E08C2F0E942010CF5FC031D1F7CF915B
:102110000895AF92BF92CF92DF92EF92FF920F930A
:102120001F93CF93DF931DE8C12E14E0D12E0DE451
:10213000E02E04E0F02EC0E8D2E0F60161916F01DC
:10214000CE010E94B20C5E01F0E7AF1AF2E0BF0AC6
:102150008E0100581240F701E00FF11F6081C801A5
:102160008F579D4F0E94B20C0F5F1F4F0A151B0522
:1021700091F7649684E0E81AF108C03DE2E0DE07DA
:10218000E1F6DF91CF911F910F91FF90EF90DF90DB
:10219000CF90BF90AF900895CF92DF92EF92FF92D1
:1021A0000F931F93CF93DF93E82EC82ED12C88E294
:1021B000E89EE0011124CE010E94CE0C96E29C9D87
:1021C00080019D9D100D112400521E4FF801808347
:1021D000CE0101960E94CE0CF8018183CE010296B9
:1021E0000E94CE0CF8018283CE0103960E94CE0C91
:1021F000F8018483CE0144960E94CE0CF8018383BB
:10220000CE0145960E94CE0CF80185838E010A5EB0
:102210001F4FF6E2EF9E70011124EC1AFD0AC70170
:1022200080529E4F7C01D12CC80142970E94CE0C57
:10223000E701C00FD11FFE0170978083C8010E9483
:10224000CE0C8883D3940F5F1F4F90E1D912ECCF4F
:10225000DF91CF911F910F91FF90EF90DF90CF9082
:102260000895CF93C0E08C2F0E94CC10CF5FC03177
:10227000D1F7CF910895AF92BF92CF92DF92EF92B4
:10228000FF920F931F93CF93DF938DE8C82E84E0C6
:10229000D82E9DE4E92E94E0F92EC0E0D0E0CE01E6
:1022A00080589D4F0E94CE0CF60181936F015E0114
:1022B000F0E1AF0EB11C8E01C8018F579D4F0E94F7
:1022C000CE0CF701E00FF11F80830F5F1F4F0A153F
:1022D0001B0591F7649684E0E81AF108C035D10532
:1022E000F1F6DF91CF911F910F91FF90EF90DF906A
:1022F000CF90BF90AF9008950E948E0F0E949E0FC6
:102300000E947F100E94F50F0E9489100E94DD023A
:1023100084EE92E00C94F902CF93C82F611108C0AB
:1023200086E2C89FF0011124E052FE4F408368C04E
:10233000613041F486E2C89FF0011124E052FE4F63
:1023400041835EC0663208F05BC0862F90E0029742
:1023500062E170E00E94132C2C2F30E081110CC040
:1023600086E2829FF001839FF00D1124E052FE4F20
:10237000E60FF71F428344C0813079F586E2829FE1
:10238000F001839FF00D1124E052FE4FE60FF71F7E
:10239000443639F44481842F90E040978CF481E0F6
:1023A0000BC0433661F54481842F90E08230910563
:1023B0002CF042972CF48FEF840F03C081E001C012
:1023C00080E196E2929FF001939FF00D1124E0527C
:1023D000FE4FE60FF71F848313C0FB0154E0EE0F9E
:1023E000FF1F5A95E1F756E2529FB001539F700DBF
:1023F0001124E60FF71FE052FE4FE80FF91F448348
:1024000080919304C81303C0CF910C94DE0CCF913C
:102410000895262F64E10E94F32BE82FF0E091113C
:1024200003C0E357FB4F0AC064E0EE0FFF1F6A953D
:10243000E1F7E35BFB4FE90FF11D3197208308952E
:10244000803110F40C94CC10803111F40C943B11B9
:1024500084EE92E00C942603803118F40E94201040
:1024600009C0803119F40E94891004C084EE92E002
:102470000E94F90224E040E860E880E80E94A00D94
:1024800024E040E060E080E80E94A00D24E040E805
:1024900060E880E80C94A00D811105C08091930440
:1024A00090E00F9606C0813049F48091930490E04B
:1024B00001968F7099278093930404C0823021F491
:1024C000609393040C94DE0C8A3089F4611102C08D
:1024D00082ED07C0613011F484ED03C0623021F455
:1024E00083ED8093D70408951092D7040895843122
:1024F00021F46093DB044093DA0408950E942C25B4
:102500006093E1047093E2048093E3049093E40405
:102510000895CF93DF93D82FC62F682F82EB95E0D5
:102520000E9450276C2F82EB95E00E945027C1112A
:1025300008C086E2D89FF0011124E052FE4F60816E
:1025400009C0C13069F486E2D89FF0011124E0523D
:10255000FE4F618182EB95E0DF91CF910C94502783
:10256000C632D8F58C2F90E0029762E170E00E94AD
:10257000132C2D2F30E081110DC086E2829FD001F7
:10258000839FB00D1124A052BE4FA60FB71F129605
:102590006C91E0CF813069F486E2829FD001839F05
:1025A000B00D1124A052BE4FA60FB71F14966C9108
:1025B000D1CFFB01A4E0EE0FFF1FAA95E1F766E281
:1025C000629FA001639F500D1124E40FF51FE0529C
:1025D000FE4FE80FF91F6481BDCF60E070E082EB31
:1025E00095E0DF91CF910C94D00CCF93DF93D82F4F
:1025F000C0E06C2F8D2F0E948912CF5FC632C9F7C1
:10260000DF91CF9108951F93CF93DF93D82F64E18B
:102610000E94F32B182FC92F60E170E082EB95E048
:102620000E94D00C6D2F82EB95E00E945027E12F85
:10263000F0E0C11103C0E357FB4F0AC0B4E0EE0F56
:10264000FF1FBA95E1F7E35BFB4FEC0FF11D3197EC
:10265000608182EB95E0DF91CF911F910C94502720
:10266000CF93DF93D0E0C0E08C2F8D0F0E94031337
:10267000CF5FC131C9F7DC5ED035A9F7DF91CF91CB
:102680000895CF93C82F61E170E082EB95E00E943E
:10269000D00C6C2F82EB95E00E9450278C2F63E0CA
:1026A0000E94F32B292F8BEAC89F812D1124869538
:1026B00090E0FC01EE0FFF1FE80FF91FE20FF11D84
:1026C000EB5BFE4F608182EB95E0CF910C9450273D
:1026D000803110F40C948912803119F4862F0C94F7
:1026E0000313862F0C944113CF93DF93C82FD62F5B
:1026F000803118F40E948C111EC0803129F4642F9F
:102700008D2F0E94091217C02BEA629F212D1124E0
:102710002695822F880F820F962F981B892F30E0E5
:10272000F901EE0FFF1FE20FF31FE80FF11DEB5B46
:10273000FE4F4083C1E16D2F8C2FDF91CF910C9420
:102740006813CF93C0E08C2F0E944113CF5FC03934
:10275000D1F7CF910895CF93C82F68EC70E082EB4A
:1027600095E00E94D00C6C2F82EB95E00E945027E0
:102770006091930482EB95E00E945027C03120F4D1
:102780008C2F0E94F51208C0C03119F40E9430133A
:1027900003C00E94A113C1E169EC70E082EB95E0F7
:1027A0000E94D00C6C2F82EB95E00E945027609124
:1027B000930482EB95E0CF910C9450270F931F93D5
:1027C000CF93DF931F92CDB7DEB782EB95E00E94E7
:1027D000D22604970CF452C082EB95E00E94EB26BF
:1027E000082F82EB95E00E94EB26182F82EB95E0F4
:1027F0000E94EB26682F82EB95E069830E94EB260E
:10280000482F6981043441F4812F0F90DF91CF91DB
:102810001F910F910C94AB130C3441F4812F0F9046
:10282000DF91CF911F910F910C942012033541F449
:10283000812F0F90DF91CF911F910F910C942C124B
:10284000023541F4812F0F90DF91CF911F910F91AD
:102850000C946813073541F4812F0F90DF91CF91CD
:102860001F910F910C947413083541F4812F0F9030
:10287000DF91CF911F910F910C944C120F90DF912B
:10288000CF911F910F9108951F93CF93DF931F92C4
:10289000CDB7DEB7162F6CE470E085EE94E0498387
:1028A0000E943122612F85EE94E00E94CE21498161
:1028B000642F85EE94E00E94CE2185EE94E00F9087
:1028C000DF91CF911F910C944622CF93DF93EC01BF
:1028D00085EE94E00E940D2240E067E0CE010E9468
:1028E000441440E068E0CE010E94441441E067E0F7
:1028F000CE01DF91CF910C9444148091CC048111CE
:1029000004C08DEC94E00C94651408951092CC04EE
:1029100081E18093CB0482E38093CA040C947D14FC
:1029200026E040E051EE60E070E082EB95E00E942E
:10293000B5271092D7041092D80461E089E00E9474
:102940003A2661E086E00E943A2661E085E00E9436
:102950003A2660E082E00E943A2661E081E10E942E
:102960003A2642E050E061EB7CE080E00E9458248F
:102970008DEF93E00E94CE0C809392048FEF93E052
:102980000E94CE0C8823A1F060E08FEF93E00E94BC
:10299000B20C20E030E040E050E06AE070E084E417
:1029A00091E00E94860284E68093D7048093D80445
:1029B00080E00E9478248CEF93E00E94CE0C8B384C
:1029C00041F00E947C116BE88CEF93E00E94B20C06
:1029D00008C00E9431110E943B1184EE92E00E94D7
:1029E000260361E081E10E9473260E948614F89418
:1029F00010927A0085B5887F816085BD80918100C5
:102A0000887F8160809381008091810088608093BD
:102A10008100789468E270E080E090E00E944F25A9
:102A200080E00E946A0F64E670E082EB95E00E940D
:102A3000D00C6091930482EB95E00E94502760E0F7
:102A400070E082EB95E00E94D00C0E942C256093F0
:102A5000E1047093E2048093E3049093E404089506
:102A6000CF93DF93EC0185EE94E00E940D2240E1CC
:102A700067E0CE01DF91CF910C9444148091CC0497
:102A8000811104C08DEC94E00C943015089540E061
:102A900060E080E00E94670D61E08FEF93E00E94AC
:102AA000B20C0E943E1560E081E10E94732660EA4C
:102AB0007FE080E090E00E944F2528E088E190E0F0
:102AC0000FB6F894A895809360000FBE2093600025
:102AD00060E074EF81E090E00C944F258091D80481
:102AE000811103C00E94050DDEC08A3031F580914E
:102AF000D604811106C080EC8093E0041092DF04BC
:102B000019C0813031F41092E0041092DF0480EC9F
:102B1000C1C0823031F480E88093E0041092DF0479
:102B2000B9C01092E004833011F480E838C080EC22
:102B30008093DF041092DE04B6C09CEE980F9A30AA
:102B4000C8F4E091DE01F091DF018091D904909109
:102B50004C0420E1929FE00DF11D1124E80FF11DBE
:102B60002EED34E04FED54E060EE74E086810E947B
:102B7000530399C08E3109F4B5CF883209F4B2CF2E
:102B80009EEC980F9A3008F047C0E091DE01F0917A
:102B9000DF018081811106C080E68093E00480938C
:102BA000DF0478C0813031F480E38093E004109238
:102BB000DF0415C0823041F41092E0041092DF046B
:102BC00080E38093DE040DC0833021F488E280939B
:102BD000E00403C01092E00480E38093DF041092CD
:102BE000DE0481819091E004082E01C0990F0A94BF
:102BF000EAF79093E0049091DF04082E01C0990F4A
:102C00000A94EAF79093DF049091DE0401C0990FD3
:102C10008A95EAF7892F3EC08C3309F463CF863456
:102C200009F460CF8E3641F480E88093E00410927E
:102C3000DE041092DF0437C09EE2980F923008F451
:102C400051CF843D51F58091DB0490E02091DA046E
:102C5000FC01EE0FFF1FE80FF91FEB5BFE4F8081B9
:102C600090E0022E02C0959587950A94E2F7809332
:102C7000E004818190E0022E02C0959587950A9428
:102C8000E2F78093DF04828190E002C095958795FA
:102C90002A95E2F78093DE0406C01092DE041092BB
:102CA000DF041092E0048091DD04882331F18091EB
:102CB000DC04882311F12091CE043091CF0440919F
:102CC000D0045091D1046091D2047091D3048091CA
:102CD000D4049091D50420343E4741055105610547
:102CE00071058105910519F010F00E9447151092A9
:102CF000DE041092DF041092E0040895CF93C82FF1
:102D00009091D804923309F48CC408F04FC09D30E0
:102D100009F4A4C210F5943009F47EC168F491302E
:102D200009F4CBC008F4ACC0923009F4F8C0933079
:102D300009F432C10C94C31E9A3009F4F3C128F48B
:102D4000953009F4ADC10C94C31E9B3009F407C241
:102D50009C3009F432C20C94C31E9F3109F47BC32A
:102D600088F4953109F4B6C228F4943109F495C277
:102D70000C94C31E963109F4E8C29E3109F44EC387
:102D80000C94C31E983209F4F3C340F4903209F452
:102D900091C3913209F4CCC30C94C31E993209F447
:102DA00004C49A3209F437C40C94C31E943609F44F
:102DB00090C610F59E3309F424C560F4943309F4E9
:102DC0007DC408F44BC49C3309F4CFC49D3309F48B
:102DD000E9C4D9C7973409F4D7C538F49F3309F447
:102DE00053C5963409F48EC5CEC7983409F402C68B
:102DF000993409F44EC6C7C79F3609F462C760F418
:102E0000963609F403C708F4C3C6973609F4BFC061
:102E10009E3609F439C7B7C7993C09F491C758F5EC
:102E2000983709F4B0C6983C09F0ADC721E040E8F6
:102E300060E880E80E94A00D21E040E060E080E8CA
:102E40000E94A00D21E040E860E880E80E94A00D0B
:102E500021E040E060E880E00E94A00D21E040E831
:102E600060E880E80E94A00D809193040E942010E9
:102E70001092D7048AC7925D933008F486C783C73F
:102E8000882309F482C72091CE043091CF04409169
:102E9000D0045091D1046091D2047091D3048091F8
:102EA000D4049091D504A3E60E94642C09F008F4A0
:102EB0006CC781E08093D70468C78091DD048823C4
:102EC00041F0C11162C78091DC0489278093DC0442
:102ED0005CC72091CE043091CF044091D004509132
:102EE000D1046091D2047091D3048091D404909164
:102EF000D504273E33404105510561057105810523
:102F0000910529F020F082E08093D7043EC7C111DB
:102F10003CC781E00E946A0F1092D70436C7209107
:102F2000CE043091CF044091D0045091D1046091EF
:102F3000D2047091D3048091D4049091D504A0E080
:102F40000E94642C31F425E040E860E880E80E94AB
:102F5000A00D2091CE043091CF044091D004509127
:102F6000D1046091D2047091D3048091D4049091E3
:102F7000D5042F3C37404105510561057105810598
:102F8000910529F020F083E08093D704FEC6C1119B
:102F9000FCC60E944715F9C62091CE043091CF049B
:102FA0004091D0045091D1046091D2047091D30427
:102FB0008091D4049091D504A0E00E94642C31F457
:102FC00025E040E060E880E80E94A00D2091CE045A
:102FD0003091CF044091D0045091D1046091D2043B
:102FE0007091D3048091D4049091D5042F3C374044
:102FF00041055105610571058105910529F020F014
:1030000084E08093D704C1C6C111BFC61092D60414
:103010008AE08093D704B9C62091CE043091CF04C2
:103020004091D0045091D1046091D2047091D304A6
:103030008091D4049091D504A0E00E94642C31F4D6
:1030400025E040E860E080E00E94A00D2091CE04E1
:103050003091CF044091D0045091D1046091D204BA
:103060007091D3048091D4049091D5042F3C3740C3
:1030700041055105610571058105910529F020F093
:1030800085E08093D7040CC0C1110AC08091DD0493
:1030900091E089278093DD041092DC041092D7041C
:1030A0002091CE043091CF044091D0045091D104AE
:1030B0006091D2047091D3048091D4049091D5048E
:1030C000A0E00E94642C31F425E040E060E080E85C
:1030D0000E94A00D2091CE043091CF044091D004E5
:1030E0005091D1046091D2047091D3048091D404A2
:1030F0009091D504203D374041055105610571058A
:103100008105910529F020F082E08093D7043DC627
:10311000C1113BC661E08EEF93E00E94B20C0E94A9
:10312000471533C6882309F430C62091CE04309168
:10313000CF044091D0045091D1046091D204709199
:10314000D3048091D4049091D504A4E60E94642C09
:1031500009F008F41AC68BE08093D70416C62091B4
:10316000CE043091CF044091D0045091D1046091AD
:10317000D2047091D3048091D4049091D5042F3C53
:10318000374041055105610571058105910529F01B
:1031900020F08CE08093D704F8C5C111F6C580916A
:1031A000D60490E0019665E070E00E94132C8093B5
:1031B000D6048AE08093D704E8C52091CE043091EC
:1031C000CF044091D0045091D1046091D204709109
:1031D000D3048091D4049091D504A0E00E94642C83
:1031E00031F425E040E060E880E80E94A00D2091E5
:1031F000CE043091CF044091D0045091D10460911D
:10320000D2047091D3048091D4049091D5042F3CC2
:10321000374041055105610571058105910529F08A
:1032200020F08DE08093D704B0C5C111AEC5809168
:10323000D604823030F480934C0484E18093D70428
:10324000A4C5843038F4817080934C0488E2809364
:10325000D7049BC582E38093D70497C52091CE0401
:103260003091CF044091D0045091D1046091D204A8
:103270007091D3048091D4049091D504A0E00E9471
:10328000642C31F425E040E860E880E80E94A00D5D
:10329000C1117BC51092D70478C5882309F475C580
:1032A0002091CE043091CF044091D0045091D104AC
:1032B0006091D2047091D3048091D4049091D5048C
:1032C000A4E60E94642C09F008F45FC585E18093B0
:1032D000D7045BC52091CE043091CF044091D00437
:1032E0005091D1046091D2047091D3048091D404A0
:1032F0009091D504203D3740410551056105710588
:103300008105910529F020F086E18093D7043DC521
:10331000C1113BC5E091DE01F091DF0190914C04B9
:103320008091D90420E1929FE00DF11D1124E80F56
:10333000F11D868190E0019660E370E00E94132CFD
:10334000868384E18093D70420C52091CE043091F8
:10335000CF044091D0045091D1046091D204709177
:10336000D3048091D4049091D504A0E00E94642CF1
:1033700031F425E040E860E880E80E94A00D20914B
:10338000CE043091CF044091D0045091D10460918B
:10339000D2047091D3048091D4049091D504203D3F
:1033A000374041055105610571058105910521F100
:1033B00018F1E091DE01F091DF0190914C048091D1
:1033C000D90420E1929FE00DF11D1124E80FF11DB9
:1033D0008681805C86831092CE041092CF04109276
:1033E000D0041092D1041092D2041092D3041092FF
:1033F000D4041092D504C9C4C111C7C4E091DE0140
:10340000F091DF0180914C04E80FF11D8091D90407
:103410008F5F84838EE18093D704B7C4882309F437
:10342000B4C42091CE043091CF044091D004509187
:10343000D1046091D2047091D3048091D40490910E
:10344000D504A4E60E94642C09F008F49EC48FE120
:103450008093D7049AC42091CE043091CF04409138
:10346000D0045091D1046091D2047091D304809122
:10347000D4049091D504203D3740410551056105A4
:1034800071058105910529F020F080E28093D70431
:103490007CC4C1117AC48091D9048F5F8093D90410
:1034A000803120F088EC8093D7046FC484E180934E
:1034B000D7046BC42091CE043091CF044091D00446
:1034C0005091D1046091D2047091D3048091D404BE
:1034D0009091D504A0E00E94642C31F425E040E0F6
:1034E00060E080E80E94A00D2091CE043091CF04CE
:1034F0004091D0045091D1046091D2047091D304D2
:103500008091D4049091D504203D37404105510568
:10351000610571058105910529F020F081E2809314
:10352000D70433C4C11131C484E18093D7042DC4BE
:103530002091CE043091CF044091D0045091D10419
:103540006091D2047091D3048091D4049091D504F9
:10355000A0E00E94642C31F425E040E860E880E8B7
:103560000E94A00DC11111C488EC8093D7040DC432
:10357000882309F40AC42091CE043091CF044091ED
:10358000D0045091D1046091D2047091D304809101
:10359000D4049091D504A4E60E94642C09F008F4A8
:1035A000F4C389E28093D704F0C32091CE04309114
:1035B000CF044091D0045091D1046091D204709115
:1035C000D3048091D4049091D504203D3740410527
:1035D0005105610571058105910529F020F08AE208
:1035E0008093D704D2C3C111D0C3E091DE01F09122
:1035F000DF0180914C04E80FF11D828190E001967B
:103600006EE370E00E94132C82830E94DE0C88E23D
:103610008093D704BAC38111B8C388EC8093D704D0
:10362000B4C3882309F4B1C32091CE043091CF04F0
:103630004091D0045091D1046091D2047091D30490
:103640008091D4049091D504A4E60E94642C09F0E2
:1036500008F49BC383E38093D70497C32091CE04DF
:103660003091CF044091D0045091D1046091D204A4
:103670007091D3048091D4049091D504203D3740BB
:1036800041055105610571058105910529F020F07D
:1036900084E38093D70479C3C11177C3E091DE013D
:1036A000F091DF01808190E0019665E070E00E947A
:1036B000132C808382E38093D70467C32091CE04C8
:1036C0003091CF044091D0045091D1046091D20444
:1036D0007091D3048091D4049091D504A0E00E940D
:1036E000642C31F425E040E860E880E80E94A00DF9
:1036F0002091CE043091CF044091D0045091D10458
:103700006091D2047091D3048091D4049091D50437
:10371000203D374041055105610571058105910541
:10372000F1F0E8F0E091DE01F091DF01818190E0BD
:10373000019663E070E00E94132C81831092CE0406
:103740001092CF041092D0041092D1041092D2049F
:103750001092D3041092D4041092D50416C3C11150
:1037600014C388EC8093D70410C3882309F40DC3D5
:103770002091CE043091CF044091D0045091D104D7
:103780006091D2047091D3048091D4049091D504B7
:10379000A4E60E94642C09F008F4F7C28DE380933C
:1037A000D704F3C22091CE043091CF044091D004CD
:1037B0005091D1046091D2047091D3048091D404CB
:1037C0009091D504203D37404105510561057105B3
:1037D0008105910529F020F08EE38093D704D5C2AE
:1037E000C111D3C28091920490E001968370992711
:1037F0008093920480E00E946A0F8CE38093D70448
:10380000C4C22091CE043091CF044091D004509195
:10381000D1046091D2047091D3048091D40490912A
:10382000D504A0E00E94642C31F425E040E860E07B
:1038300080E00E94A00D2091CE043091CF044091F1
:10384000D0045091D1046091D2047091D30480913E
:10385000D4049091D504203D3740410551056105C0
:1038600071058105910529F020F08FE38093D7043D
:103870008CC2C1118AC225E040E860E880E80E945D
:10388000A00D1092D70481C22091CE043091CF04B4
:103890004091D0045091D1046091D2047091D3042E
:1038A0008091D4049091D504A0E00E94642C31F45E
:1038B00025E040E060E880E80E94A00D2091CE0461
:1038C0003091CF044091D0045091D1046091D20442
:1038D0007091D3048091D4049091D504203D374059
:1038E00041055105610571058105910529F020F01B
:1038F0008EE38093D70449C2C11147C286E4809306
:10390000D70443C22091CE043091CF044091D0041B
:103910005091D1046091D2047091D3048091D40469
:103920009091D504A0E00E94642C89F480919104C8
:10393000E091920420E1E29FF0011124E80FF11DD3
:10394000E35BFB4F8081809393040E94DE0CCC23C9
:1039500009F41BC22091CE043091CF044091D004D1
:103960005091D1046091D2047091D3048091D40419
:103970009091D504A4E60E94642C09F008F405C2D5
:1039800087E48093D70401C22091CE043091CF0404
:103990004091D0045091D1046091D2047091D3042D
:1039A0008091D4049091D504203D374041055105C4
:1039B000610571058105910529F020F088E4809367
:1039C000D704E3C1C111E1C1E09192048091910457
:1039D00020E1E29FF0011124E80FF11DE35BFB4FB2
:1039E000808190E001968F709927808386E4809390
:1039F000D704CBC12091CE043091CF044091D004A4
:103A00005091D1046091D2047091D3048091D40478
:103A10009091D504A0E00E94642C31F425E040E8A8
:103A200060E080E80E94A00D2091CE043091CF0488
:103A30004091D0045091D1046091D2047091D3048C
:103A40008091D4049091D504203D37404105510523
:103A5000610571058105910529F020F089E48093C5
:103A6000D70493C1C11191C1809191048F5F80935C
:103A70009104E0919204F0E0E357FB4F80838031A2
:103A800020F089EC8093D70480C186E48093D7042A
:103A90007CC12091CE043091CF044091D00450914C
:103AA000D1046091D2047091D3048091D404909198
:103AB000D504A0E00E94642C31F425E040E860E8E1
:103AC00080E80E94A00DC11160C189EC8093D704E9
:103AD0005CC18EEF93E00E94CE0C2091CE04309119
:103AE000CF044091D0045091D1046091D2047091E0
:103AF000D304E091D4049091D5048823A9F18E2FAA
:103B00002037374141055105610571058105910552
:103B100031F425E040E060E880E00E94A00DC11192
:103B200034C12091CE043091CF044091D004509103
:103B3000D1046091D2047091D3048091D404909107
:103B4000D5042037374141055105610571058105CF
:103B5000910509F008F41DCA60E08EEF93E00E9421
:103B6000B20C1092D70411C18E2F2F3C3740410563
:103B70005105610571058105910529F020F085E663
:103B80008093D70402C1C11100C11092D704FDC0B7
:103B90002091CE043091CF044091D0045091D104B3
:103BA0006091D2047091D3048091D4049091D50493
:103BB000A0E00E94642C31F425E040E860E080E061
:103BC0000E94A00D2091CE043091CF044091D004EA
:103BD0005091D1046091D2047091D3048091D404A7
:103BE0009091D50420373741410551056105710594
:103BF0008105910529F020F086E68093D704C5C0A1
:103C0000C111C3C08CE38093D704BFC02091CE0400
:103C10003091CF044091D0045091D1046091D204EE
:103C20007091D3048091D4049091D504A0E00E94B7
:103C3000642C31F425E040E060E080E80E94A00DB3
:103C40002091CE043091CF044091D0045091D10402
:103C50006091D2047091D3048091D4049091D504E2
:103C600020373741410551056105710581059105F1
:103C700029F020F087E68093D70487C0C11185C062
:103C80008EE68093D70481C0882309F47EC02091FA
:103C9000CE043091CF044091D0045091D104609172
:103CA000D2047091D3048091D4049091D504A4E6F9
:103CB0000E94642C09F008F468C08FE68093D70452
:103CC00064C02091CE043091CF044091D004509133
:103CD000D1046091D2047091D3048091D404909166
:103CE000D5042F3637414105510561057105810520
:103CF000910509F008F44BC921E040E060E080E85C
:103D00000E94A00D21E040E860E080E00E94A00D4C
:103D100021E040E060E080E80E94A00D21E040E862
:103D200060E080E00E94A00D21E040E060E080E8DB
:103D30000E94A00D0E947C1188E78093D70425C0C3
:103D400021E040E860E880E80E94A00D21E040E02A
:103D500060E080E80E94A00D21E040E860E880E893
:103D60000E94A00D21E040E860E080E00E94A00DEC
:103D700021E040E860E880E80E94A00D0E948910E0
:103D80001092D70402C01092D7048091D70490916A
:103D9000D804981799F08093D8041092CE0410920A
:103DA000CF041092D0041092D1041092D204109239
:103DB000D3041092D4041092D50423C02091CE04D1
:103DC0003091CF044091D0045091D1046091D2043D
:103DD0007091D3048091D4049091D504A1E00E9405
:103DE000582C2093CE043093CF044093D0045093AA
:103DF000D1046093D2047093D3048093D40490933D
:103E0000D504CF910895EF92FF920F931F93CF9314
:103E1000DF937B018A01E9016CE470E085EE94E0B8
:103E20000E94312260E070E085EE94E00E94D70CA1
:103E300085EE94E00E94462243E050E06CE470E09E
:103E400085EE94E00E94242285EE94E00E94762183
:103E5000892BA1F085EE94E00E947E21F7019183E9
:103E6000808385EE94E00E947E21F8019183808317
:103E700085EE94E00E947E2199838883DF91CF9123
:103E80001F910F91FF90EF9008958091CC048111C4
:103E90000AC022EC34E044EC54E066EC74E08DECB3
:103EA00094E00C94031F08958F929F92AF92BF925B
:103EB000CF92DF92EF92FF920F931F93CF93DF93F6
:103EC0008091C9046091CB040E94F32B892F90E06C
:103ED0008930910508F0D2C1FC01EE58FF4F0C94D7
:103EE000492C0E94451FCAC10E94FC0D0E94700E01
:103EF000C5C14091C6045091C7042091C4043091BB
:103F0000C5048091C2049091C304449FB001459FB1
:103F1000700D700D1124229FA001239F500D500D94
:103F20001124640F751F889F9001899F300D300DFB
:103F30001124620F731F882777FD8095982F0E94A8
:103F4000562A0E949D2B6093AC047093AD0480931D
:103F5000AE049093AF040E94FE0E0E945C0F8EC1CF
:103F60006091B4047091B5048091B6049091B70447
:103F7000C090B004D090B104E090B204F090B304CB
:103F80009B01AC010E94362B4B015C01A7019601FD
:103F9000C701B6010E94362B9B01AC01C501B401DB
:103FA0000E94F6280E949D2B15C02091A8043091F4
:103FB000A9044091AA045091AB048091B804909157
:103FC000B904A091BA04B091BB04BC01CD019058D2
:103FD0000E9469296093A8047093A9048093AA049D
:103FE0009093AB044BC120E030E044E353E4609194
:103FF000A8047091A9048091AA049091AB040E9436
:10400000362B2BED3FE049E450E40E94C029E2CF7B
:104010002091B0043091B1044091B2045091B304A6
:104020008091B4049091B504A091B604B091B70406
:10403000BC01CD0190580E94692914C020E030E0F5
:1040400044E353E46091A4047091A5048091A60414
:104050009091A7040E94362B2BED3FE049E450E4F9
:104060000E94C0296093A4047093A5048093A604C1
:104070009093A70403C10091DE011091DF01D801E4
:104080008C91882309F4FAC0B0904C048130B9F5C2
:1040900011969C91911113C0B11006C09091C80463
:1040A000983010F080934C0480914C04813009F0DA
:1040B000E5C08091C804853008F0E0C01DC0913093
:1040C00049F4B1100FC08091C804853058F0909326
:1040D0004C0408C0B11006C09091C804933010F091
:1040E00080934C0480914C04813009F0C7C08091CA
:1040F000C804823008F0C2C010924C04BFC0C09106
:104100004A04D0914B04B11046C09091C80492303B
:1041100008F09EC0823069F420E030E046E952ECBD
:104120006091A8047091A9048091AA049091AB04B5
:104130007EC08330B9F4C090A404D090A504E09070
:10414000A604F090A70420E030E040EA52ECC7015A
:10415000B6010E94BC2987FF6EC020E030E048EC29
:1041600052EC16C0C090B004D090B104E090B204FC
:10417000F090B30426E636E646E65FEBC701B601EB
:104180000E94BC2987FF57C02DEC3CEC4CE85FEB4C
:10419000C701B60116C0B1E0BB125AC09091C80465
:1041A000923008F055C0823089F420E030E046E9D2
:1041B00052E46091A8047091A9048091AA0490919E
:1041C000AB040E942B2B1816DCF135C08330B9F4F8
:1041D000C090A404D090A504E090A604F090A70499
:1041E00020E030E040EA52E4C701B6010E942B2BE8
:1041F00018160CF520E030E048EC52E416C0C090F0
:10420000B004D090B104E090B204F090B30426E67C
:1042100036E646E65FE3C701B6010E942B2B18166F
:1042200054F42DEC3CEC4CE85FE3C701B6010E946E
:10423000BC2987FD05C0882799278C1B9D0B02C0D0
:1042400081E090E0C80FD91FD0934B04C0934A047B
:10425000D8011196EC91F0E0E050FF4F808190E0A2
:1042600020914A0430914B04821793073CF481E07B
:10427000B11080E080934C04F80111828091C90450
:104280008F5F8093C9049091CA04891710F010922F
:10429000C904DF91CF911F910F91FF90EF90DF90B4
:1042A000CF90BF90AF909F908F90089582E00E9432
:1042B000A92621E0892B09F020E0822F0E947E169A
:1042C0000E94DE138091D8049FEF980F913D10F467
:1042D0008C3311F40E94541F0E946E154091DE042D
:1042E0006091DF048091E0040C94670D80911505C6
:1042F00090E020911605821B9109089520911605E2
:1043000080911505281750F4E22FF0E0E95EFA4F8E
:10431000808190E02F5F2093160508958FEF9FEF27
:104320000895E091160580911505E81730F4F0E046
:10433000E95EFA4F808190E008958FEF9FEF089536
:104340000895CF92DF92EF92FF920F931F93CF9336
:10435000DF937C01CB018A012091F104222389F0B3
:10436000EB016B01C40ED51ECC15DD0569F069911A
:10437000D701ED91FC910190F081E02DC7010995E5
:10438000F3CF642F0E940223C801DF91CF911F91C8
:104390000F91FF90EF90DF90CF900895CF93DF9330
:1043A0001F92CDB7DEB769832091F1042223D1F0AB
:1043B0002091F204203240F021E030E0FC01338310
:1043C000228380E090E015C08091F304E82FF0E0B4
:1043D000EC50FB4F998190838F5F8093F30480931F
:1043E000F20405C061E0CE0101960E94022381E043
:1043F00090E00F90DF91CF910895FC01138212821B
:1044000048EE53E060E070E0448355836683778331
:1044100087E291E0918380830895109216051092AF
:1044200015051092F3041092F2040C944D22862F7D
:10443000413208F040E267E175E00E946B22109281
:10444000160580931505089521E00C94172281E04C
:104450008093F104609314051092F3041092F20417
:1044600008950C9427220F93062F21E04091F20427
:1044700064EF74E0809114050E94AF221092F3045F
:104480001092F2041092F1040F91089561E00C94DF
:10449000332285EE94E00C94FD211092A40581E076
:1044A0008093A2051092A10561E082E10E9473262B
:1044B00061E083E10E947326E9EBF0E080818E7F6A
:1044C000808380818D7F80838CE08093B80085E439
:1044D0008093BC000895413208F03FC09091A4053C
:1044E0009111FCCF91E09093A4052093A2052FEFAA
:1044F0002093370510927C05240F20937B05909321
:10450000A3059091A305880F892B8093A305809123
:10451000A105813041F41092A1058091A3058093FB
:10452000BB0085EC01C085EE8093BC008091A405A2
:104530008130E1F380917C05841710F440917C0573
:104540002DE735E0FB01D9018A2F821B841718F46F
:104550008D918193F9CF842F089580E008950F9372
:10456000413208F046C09091A4059111FCCF92E031
:104570009093A4050093A2059FEF909337051092A6
:104580007C0540937B05FB016DE775E0DB019A2F0D
:10459000961B941718F491919D93F9CF1092A3054F
:1045A0009091A305880F892B8093A3058091A10585
:1045B000813041F41092A1058091A3058093BB0046
:1045C00085EC01C085EE8093BC00222321F0809110
:1045D000A4058230E1F3809137058F3F61F080912F
:1045E0003705803251F080913705803341F483E004
:1045F00007C081E005C080E003C082E001C084E024
:104600000F910895613298F42091A405243089F423
:1046100060935905FC018BE595E0DC012A2F281BEE
:10462000261718F421912D93F9CF80E0089581E0A9
:10463000089582E0089585ED8093BC008091BC00D0
:1046400084FDFCCF1092A405089585EC8093BC00F6
:104650001092A40508951F920F920FB60F92112485
:104660002F933F934F935F936F937F938F939F937A
:10467000AF93BF93EF93FF938091B900887F80360B
:1046800009F49CC068F5883209F45BC090F480316D
:1046900009F454C038F4882309F4F5C0883009F4CB
:1046A0004DC0F5C0883109F44CC0803209F45DC0BA
:1046B000EEC0803409F468C048F4803309F455C072
:1046C000883309F0E4C080933705A8C0803509F429
:1046D0004FC0883509F45DC0883409F0D8C0D5C012
:1046E000883909F4C6C0A8F4883709F467C038F4DB
:1046F000883609F463C0803709F460C0C8C08838C0
:1047000009F4B7C0803909F45FC0803809F0BFC030
:104710005BC0803B09F485C038F4803A09F466C078
:10472000883A09F47EC0B3C0803C09F4A6C0883C36
:1047300009F4A3C0883B09F489C0A9C08091A305EE
:1047400010C090917C0580917B05981770F5E091E1
:104750007C0581E08E0F80937C05F0E0E358FA4FF2
:1047600080818093BB0085EC85C0809337058DC028
:10477000E0917C0581E08E0F80937C058091BB00E9
:10478000F0E0E358FA4F808390917C0580917B059F
:104790006DC0E0917C0581E08E0F80937C05809157
:1047A000BB00F0E0E358FA4F80838091A2058111AD
:1047B0006CC081E08093A10584EA60C083E08093AF
:1047C000A40510923805CFCF80913805803208F0CB
:1047D00050C0E091380581E08E0F809338058091BC
:1047E000BB00F0E0E75CFA4F8083BDCF80913805D5
:1047F000803230F4E0913805F0E0E75CFA4F108247
:104800000E941B236091380570E0E0919D05F091B6
:104810009E0589E395E00995109238050E942523AD
:1048200036C084E08093A40510925A051092590571
:10483000E0919F05F091A00509958091590581119E
:1048400005C081E08093590510925B05E0915A05FF
:1048500081E08E0F80935A05F0E0E55AFA4F80818F
:104860008093BB0090915A0580915905981708F4E0
:104870007ACF85E88093BC000AC085EC8093BC00A9
:104880001092A40504C0109237050E941B23FF91CB
:10489000EF91BF91AF919F918F917F916F915F91B8
:1048A0004F913F912F910F900FBE0F901F90189531
:1048B0008230E8F4E82FF0E0EE0FFF1FEB55FA4FDF
:1048C00071836083813041F0809169008C7F842BFB
:1048D00080936900E89A089580916900440F551FFC
:1048E000440F551F837F842B80936900E99A0895B4
:1048F000823068F4813011F0E89801C0E998E82F1F
:10490000F0E0EE0FFF1FEB55FA4F11821082089571
:104910001F920F920FB60F9211242F933F934F9334
:104920005F936F937F938F939F93AF93BF93EF9317
:10493000FF938091A5059091A605892B29F0E09120
:10494000A505F091A6050995FF91EF91BF91AF9153
:104950009F918F917F916F915F914F913F912F9197
:104960000F900FBE0F901F9018951F920F920FB6C9
:104970000F9211242F933F934F935F936F937F93E5
:104980008F939F93AF93BF93EF93FF938091A7056E
:104990009091A805892B29F0E091A705F091A80531
:1049A0000995FF91EF91BF91AF919F918F917F9169
:1049B0006F915F914F913F912F910F900FBE0F908C
:1049C0001F9018951F920F920FB60F9211242F93DC
:1049D0003F938F939F93AF93BF938091AA0590913C
:1049E000AB05A091AC05B091AD053091A90523E0D0
:1049F000230F2D3720F40196A11DB11D05C026E817
:104A0000230F0296A11DB11D2093A9058093AA052D
:104A10009093AB05A093AC05B093AD058091AE0526
:104A20009091AF05A091B005B091B1050196A11D7F
:104A3000B11D8093AE059093AF05A093B005B093E0
:104A4000B105BF91AF919F918F913F912F910F90A1
:104A50000FBE0F901F9018953FB7F8948091AE0548
:104A60009091AF05A091B005B091B10526B5A89B76
:104A700005C02F3F19F00196A11DB11D3FBF66274C
:104A8000782F892F9A2F620F711D811D911D42E091
:104A9000660F771F881F991F4A95D1F70895CF9207
:104AA000DF92EF92FF92CF93DF936B017C010E9424
:104AB0002C25EB01C114D104E104F10489F00E941A
:104AC000F4280E942C256C1B7D0B683E734090F3EC
:104AD00081E0C81AD108E108F108C851DC4FEACFDB
:104AE000DF91CF91FF90EF90DF90CF900895789471
:104AF00084B5826084BD84B5816084BD85B58260E3
:104B000085BD85B5816085BDEEE6F0E08081816080
:104B10008083E1E8F0E01082808182608083808180
:104B200081608083E0E8F0E0808181608083E1EB58
:104B3000F0E0808184608083E0EBF0E08081816040
:104B40008083EAE7F0E080818460808380818260F6
:104B500080838081816080838081806880831092DF
:104B6000C10008951F93CF93DF93182FEB0161E0ED
:104B70000E943A26209711F460E004C0CF3FD1058F
:104B800039F461E0812FDF91CF911F910C9473264E
:104B9000E12FF0E0E85AFB4FE491E330F9F048F4FC
:104BA000E130B9F0E230A1F584B5806284BDC8BDC2
:104BB00034C0E730E9F0E83019F1E43049F580918C
:104BC0008000806280938000D0938B00C0938A0025
:104BD00024C084B5806884BDC7BD1FC0809180009B
:104BE000806880938000D0938900C093880015C0AE
:104BF0008091B00080688093B000C093B3000DC076
:104C00008091B00080628093B000C093B40005C072
:104C1000C038D1050CF0B5CFAFCFDF91CF911F9148
:104C20000895833081F028F4813099F08230A1F02A
:104C300008958730A9F08830B9F08430D1F480919C
:104C400080008F7D03C0809180008F7780938000EB
:104C5000089584B58F7702C084B58F7D84BD089593
:104C60008091B0008F7703C08091B0008F7D8093DA
:104C7000B0000895CF93DF9390E0FC01E459FB4F1F
:104C80002491FC01E058FB4F8491882349F190E086
:104C9000880F991FFC01E855FB4FA591B4918256EE
:104CA0009B4FFC01C591D4919FB7611108C0F89446
:104CB0008C91209582238C93888182230AC0623054
:104CC00051F4F8948C91322F309583238C93888102
:104CD000822B888304C0F8948C91822B8C939FBF85
:104CE000DF91CF9108950F931F93CF93DF931F927E
:104CF000CDB7DEB7282F30E0F901E85AFB4F849199
:104D0000F901E459FB4F1491F901E058FB4F04916C
:104D10000023C9F0882321F069830E94112669814C
:104D2000E02FF0E0EE0FFF1FE256FB4FA591B4918C
:104D30009FB7F8948C91611103C01095812301C035
:104D4000812B8C939FBF0F90DF91CF911F910F917B
:104D50000895CF93DF93282F30E0F901E85AFB4FF5
:104D60008491F901E459FB4FD491F901E058FB4FCC
:104D7000C491CC2391F081110E941126EC2FF0E018
:104D8000EE0FFF1FEC56FB4FA591B4912C912D23F4
:104D900081E090E021F480E002C080E090E0DF91CB
:104DA000CF910895FC01818D228D90E0805C9F4F12
:104DB000821B91098F7399270895FC01918D828D33
:104DC000981731F0828DE80FF11D858D90E00895E0
:104DD0008FEF9FEF0895FC01918D828D981761F000
:104DE000828DDF01A80FB11D5D968C91928D9F5F22
:104DF0009F73928F90E008958FEF9FEF08958FE655
:104E000098E2892B49F080E090E0892B29F00E94FC
:104E10006F2881110C9400000895FC01848DDF013E
:104E2000A80FB11DA35ABF4F2C91848D90E001961D
:104E30008F739927848FA689B7892C93A089B1890C
:104E40008C9180648C93938D848D981306C0028816
:104E5000F389E02D80818F7D80830895CF93DF9348
:104E6000EC01888D8823C9F0EA89FB89808185FD62
:104E700005C0A889B9898C9186FD0FC00FB607FCC3
:104E8000F5CF808185FFF2CFA889B9898C9185FF04
:104E9000EDCFCE010E940D27E7CFDF91CF9108958E
:104EA000CF92DF92FF920F931F93CF93DF931F92C6
:104EB000CDB7DEB76C0181E0D60158968C93589738
:104EC0005B969C915B975C968C915C97981307C05E
:104ED0005096ED91FC915197808185FD2EC0F60191
:104EE000038D10E00F5F1F4F0F731127F02EF60197
:104EF000848DF81211C00FB607FCF9CFD601509679
:104F0000ED91FC915197808185FFF1CFC6016983B6
:104F10000E940D276981EBCF838DE80FF11DE35AC5
:104F2000FF4F6083D6015B960C935B975296ED9191
:104F3000FC915397808180620CC0D6015696ED910A
:104F4000FC91579760835096ED91FC915197808129
:104F50008064808381E090E00F90DF91CF911F917A
:104F60000F91FF90DF90CF900895BF92CF92DF9284
:104F7000EF92FF92CF93DF93EC016A017B01B22E97
:104F8000E889F98982E08083411581EE580761053F
:104F90007105A1F060E079E08DE390E0A701960152
:104FA0000E94272C215031094109510956954795F6
:104FB00037952795211580E1380798F0E889F98918
:104FC000108260E874E88EE190E0A70196010E94EB
:104FD000272C21503109410951095695479537959C
:104FE0002795EC85FD853083EE85FF852083188E1F
:104FF000EC89FD89B082EA89FB89808180618083A8
:10500000EA89FB89808188608083EA89FB898081C5
:1050100080688083EA89FB8980818F7D8083DF912E
:10502000CF91FF90EF90DF90CF90BF9008951F92A7
:105030000F920FB60F9211242F938F939F93EF939C
:10504000FF93E091C205F091C3058081E091C8050E
:10505000F091C90582FD12C090818091CB058F5FD0
:105060008F732091CC05821751F0E091CB05F0E0D1
:10507000EE54FA4F958F8093CB0501C08081FF914C
:10508000EF919F918F912F910F900FBE0F901F90D6
:1050900018951F920F920FB60F9211242F933F93E2
:1050A0004F935F936F937F938F939F93AF93BF9330
:1050B000EF93FF9382EB95E00E940D27FF91EF9114
:1050C000BF91AF919F918F917F916F915F914F9120
:1050D0003F912F910F900FBE0F901F90189582EB6C
:1050E00095E00E94D22621E0892B09F420E0822F4E
:1050F00008951092B5051092B40588EE93E0A0E0F3
:10510000B0E08093B6059093B705A093B805B0932F
:10511000B90587E391E09093B3058093B20585ECE0
:1051200090E09093BF058093BE0584EC90E090934F
:10513000C1058093C00580EC90E09093C3058093F7
:10514000C20581EC90E09093C5058093C40582EC84
:1051500090E09093C7058093C60586EC90E090930D
:10516000C9058093C8051092CB051092CC0510920A
:10517000CD051092CE05089508950E9477250E94CE
:10518000BC280E949014CFEFD6E20E9456212097AF
:10519000E1F30E94FF26F9CFCF92DF92EF92FF92C8
:1051A0000F931F93CF93DF936C017A01EB01E60E0F
:1051B000F71E00E010E0CE15DF0561F06991D60121
:1051C000ED91FC910190F081E02DC6010995080F49
:1051D000191FF1CFC801DF91CF911F910F91FF905F
:1051E000EF90DF90CF90089508955058BB27AA27DD
:1051F0000ED0F7C1E8D130F0EDD120F031F49F3F6F
:1052000011F41EF4B8C10EF4E095E7FBAEC1E92F2E
:10521000F9D180F3BA17620773078407950718F06E
:1052200071F49EF511C20EF4E0950B2EBA2FA02D4D
:105230000B01B90190010C01CA01A0011124FF2743
:10524000591B99F0593F50F4503E68F11A16F0403E
:10525000A22F232F342F4427585FF3CF469537953D
:105260002795A795F0405395C9F77EF41F16BA0B02
:10527000620B730B840BBAF09150A1F0FF0FBB1FB0
:10528000661F771F881FC2F70EC0BA0F621F731FF9
:10529000841F48F4879577956795B795F7959E3F56
:1052A00008F0B3CF9395880F08F09927EE0F9795E4
:1052B0008795089588D158F080E891E009F49EEF31
:1052C00089D128F040E851E059F45EEF09C053C19C
:1052D000BBC1E92FE07896D168F3092E052AC1F306
:1052E000261737074807590738F00E2E07F8E0252C
:1052F00069F0E025E0640AC0EF6307F8009407FA5C
:10530000DB01B9019D01DC01CA01AD01EF9347D07A
:1053100068D10AD05F91552331F02BED3FE049E48D
:1053200050FD49EC63CF0895DF93DD27B92FBF7798
:1053300040E85FE31616170648075B0710F4D92FFD
:105340008ED19F938F937F936F9335D2E6EFF0E0EA
:1053500015D147D12F913F914F915F9193D1DD238B
:1053600049F09058A2EA2AED3FE049EC5FE3D0789B
:105370005D274DDFDF9135C1D4D008F481E0089579
:105380000CD02FC127D140F01ED130F021F45F3F67
:1053900019F0EBC0511159C1EEC034D198F39923E3
:1053A000C9F35523B1F3951B550BBB27AA276217E9
:1053B0007307840738F09F5F5F4F220F331F441F2E
:1053C000AA1FA9F333D00E2E3AF0E0E830D0915066
:1053D0005040E695001CCAF729D0FE2F27D0660F53
:1053E000771F881FBB1F261737074807AB07B0E892
:1053F00009F0BB0B802DBF01FF2793585F4F2AF0A8
:105400009E3F510568F0B1C020C15F3FECF3983E6C
:10541000DCF3869577956795B795F7959F5FC9F704
:10542000880F911D9695879597F90895E1E0660F8D
:10543000771F881FBB1F621773078407BA0720F006
:10544000621B730B840BBA0BEE1F88F7E09508956F
:10545000E1D088F09F5790F0B92F9927B751A0F06D
:10546000D1F0660F771F881F991F1AF0BA95C9F7F8
:1054700012C0B13081F0E8D0B1E00895E5C0672FE7
:10548000782F8827B85F39F0B93FCCF386957795A8
:105490006795B395D9F73EF4909580957095619591
:1054A0007F4F8F4F9F4F0895E89409C097FB3EF4BC
:1054B00090958095709561957F4F8F4F9F4F992361
:1054C000A9F0F92F96E9BB279395F69587957795DF
:1054D0006795B795F111F8CFFAF4BB0F11F460FF9F
:1054E0001BC06F5F7F4F8F4F9F4F16C0882311F0F7
:1054F00096E911C0772321F09EE8872F762F05C00B
:10550000662371F096E8862F70E060E02AF09A95A5
:10551000660F771F881FDAF7880F9695879597F99A
:105520000895990F0008550FAA0BE0E8FEEF161634
:105530001706E807F907C0F012161306E407F50787
:1055400098F0621B730B840B950B39F40A2661F0FB
:10555000232B242B252B21F408950A2609F4A1409E
:10556000A6958FEF811D811D089597F99F6780E8AB
:1055700070E060E008959FEF80EC0895DF93CF9393
:105580001F930F93FF92EF92DF927B018C0168943F
:1055900005C0DA2EEF0176D0FE01E894A5912591A1
:1055A000359145915591AEF3EF0131DEFE01970142
:1055B000A801DA9479F7DF90EF90FF900F911F9197
:1055C000CF91DF91089500240A9416161706180645
:1055D0000906089500240A941216130614060506F7
:1055E0000895092E0394000C11F4882352F0BB0F88
:1055F00040F4BF2B11F460FF04C06F5F7F4F8F4FEB
:105600009F4F089557FD9058440F551F59F05F3F25
:1056100071F04795880F97FB991F61F09F3F79F0D4
:1056200087950895121613061406551FF2CF469556
:10563000F1DF08C0161617061806991FF1CF8695D8
:105640007105610508940895E894BB2766277727BC
:10565000CB0197F9089565DF08F48FEF08959B015A
:10566000AC0160E070E080E89FE38ACE0BD0B9CF58
:10567000AADF28F0AFDF18F0952309F076CF7BCFB3
:105680001124E3CFBFDFA0F3959FD1F3950F50E036
:10569000551F629FF001729FBB27F00DB11D639FE4
:1056A000AA27F00DB11DAA1F649F6627B00DA11D8A
:1056B000661F829F2227B00DA11D621F739FB00D30
:1056C000A11D621F839FA00D611D221F749F3327A0
:1056D000A00D611D231F849F600D211D822F762F39
:1056E0006A2F11249F5750408AF0E1F088234AF036
:1056F000EE0FFF1FBB1F661F771F881F9150504082
:10570000A9F79E3F510570F030CF9FCF5F3FECF37C
:10571000983EDCF3869577956795B795F795E7956D
:105720009F5FC1F7FE2B880F911D9695879597F97E
:10573000089511F40EF41FCF41C06CDFD0F399230C
:10574000D9F3CEF39F57550B87FF46D00024A0E630
:1057500040EA900180585695979528F4805C660F32
:10576000771F881F20F026173707480730F4621B81
:10577000730B840B202931294A2BA6951794079483
:10578000202531254A2758F7660F771F881F20F0FC
:1057900026173707480730F4620B730B840B200D74
:1057A000311D411DA09581F7B901842F9158880FB3
:1057B0009695879508959B01AC0158CF9F3F31F096
:1057C000915020F4879577956795B795880F911D2F
:1057D0009695879597F9089591505040660F771FD9
:1057E000881FD2F70895991B79E004C0991F961776
:1057F00008F0961B881F7A95C9F780950895AA1B13
:10580000BB1B51E107C0AA1FBB1FA617B70710F0AB
:10581000A61BB70B881F991F5A95A9F780959095DD
:10582000BC01CD01089597FB072E16F4009407D014
:1058300077FD09D00E94FF2B07FC05D03EF4909520
:1058400081959F4F0895709561957F4F0895A1E2CE
:105850001A2EAA1BBB1BFD010DC0AA1FBB1FEE1FEA
:10586000FF1FA217B307E407F50720F0A21BB30B35
:10587000E40BF50B661F771F881F991F1A9469F7B1
:1058800060957095809590959B01AC01BD01CF010D
:105890000895EE0FFF1F0590F491E02D09942A0D55
:1058A0003B1D4C1D5D1D6E1D7F1D801F911F0895AA
:1058B0000024A7FD00942A0F301D401D501D601DBF
:1058C000701D801D901D08950024A7FD00942A17C7
:1058D0003005400550056005700580059005089568
:1058E000F999FECF92BD81BDF89A992780B50895A8
:1058F000262FF999FECF1FBA92BD81BD20BD0FB6EC
:10590000F894FA9AF99A0FBE01960895F894FFCF89
:105910001E120618001C002000240028002C003055
:10592000003300130010000D000A000800060004F8
:1059300000020000000000CE21A12176217E2191ED
:1059400021A021000000005027CC28D226EB26DD24
:04595000262E2700D8
:00000001FF
