:100000000C944C040C94E8260C9415270C9474045E
:100010000C9474040C9474040C9474040C94740480
:100020000C9474040C9474040C9474040C94740470
:100030000C9474040C9474040C9474040C94740460
:100040000C9442270C9474040C94942A0C94C62AA1
:100050000C9474040C9474040C9474040C94740440
:100060000C948B250C947404880A8A0A900A930ACB
:10007000960A9B0A9E0AA30AAA0AAF0AB50AB90AF7
:10008000BF0AC50AC80ACE0A1F1722172517281744
:100090002B172E173117341737173A173D174017FC
:1000A000431746174917F21829195A19D9199419DB
:1000B00010221022102210221D1A351A581A7A1AEC
:1000C000DC1A102210221022102210221022051BEE
:1000D000321B1022741B1022102210221022102218
:1000E0001022D11BFE1B561CA11C10221022102214
:1000F000102210221022F61C231D5C1D102210223B
:1001000010221022102210221022861DB31DE31D82
:1001100010221022102210221022102210220D1E56
:100120003A1E6A1E102210221022102210221022C3
:100130001022941EC61EF31E201F5F1F961FD41F81
:100140009520AD201022D42001214321B32110227B
:1001500010221022102210221022E6210922084A21
:10016000D73B3BCE016E84BCBFFDC12F3D6C7431CB
:100170009ABD56833DDA3D00C77F11BED9E4BB4C22
:100180003E916BAAAABE000000803F00000000382C
:100190003C3C180000101000001800001010000077
:1001A00018100010FF0000C008008C100060200034
:1001B0003C3C00206000108C0008C00000FF0000E4
:1001C000C008008C10006020003C3C002060001043
:1001D0008C0008C00000FF0800C010008C200060E8
:1001E0003C003C6000208C0010C00008476F696E26
:1001F0006720746F20736C6565700020636F6E6696
:100200006967757265206163632073656E736974D5
:1002100069766974790020636F6E666967757265C7
:1002200020616363206D6F64650020636F6E666993
:1002300067757265207061747465726E204200206B
:10024000636F6E666967757265207061747465723C
:100250006E20410020636F6E66696775726520705D
:10026000616C6574746520420020636F6E66696717
:100270007572652070616C657474652041006D6FE6
:100280006465200073617665643A200077696C6C60
:1002900020736176652E2E2E200073617665643A98
:1002A00020007365743A200077696C6C2073657464
:1002B0002E2E2E200073776974636865643A2000DF
:1002C00065646974696E673A20006D617374657264
:1002D0002072657365740077696C6C206D6173744E
:1002E00065722072657365742E2E2E200020627058
:1002F0006D207472696767657220697320002074CD
:100300006F74616C2000207468697320636C69638A
:100310006B2000636C69636B2023007365747469E0
:100320006E672062706D0077696C6C20746F676710
:100330006C652062706D20737769746368696E679D
:100340002E2E2E2000656469740077696C6C206520
:100350006469742062756E646C652E2E2E200073A5
:10036000656C6563743A2062756E646C6520007715
:10037000696C6C2073656C6563742062756E646C67
:10038000652E2E2E200073776974636865643A20A9
:1003900062756E646C65200073656C656374696E6C
:1003A000673A200077696C6C2073656C6563742E06
:1003B0002E2E200073617665643A200077696C6C9C
:1003C00020736176652E2E200073776974636865EB
:1003D000643A2000616363656C2073656E733A2034
:1003E0000073617665643A200077696C6C207361F4
:1003F00076652E2E2E0073776974636865643A20E3
:1004000000616363656C206D6F64653A2000736101
:1004100076696E673A200077696C6C207361766547
:100420002E2E200073776974636865643A20006536
:10043000646974696E673A200020736C6F7473008E
:10044000736176696E673A2000636F6E6669726DDC
:1004500065643A200077696C6C20736176652E2E96
:100460002E200072656A6563740077696C6C207277
:10047000656A6563742E2E2E200020736C6F747372
:1004800000736176696E673A2000636F6E66697209
:100490006D65643A2000636F6E6669726D3A200084
:1004A00073656C65637465643A200073656C65639D
:1004B000743A20006E657874200073656C6563740F
:1004C0003A2000656469743A200065786974206395
:1004D0006F6E666967206D656E750077696C6C205C
:1004E000657869742E2E2E2000636F6E66696775BD
:1004F00072696E673A200077696C6C20656E74656E
:100500007220636F6E6669672E2E2E2000636F6EF9
:100510006A757265206F666600636F6E6A757265D4
:10052000206F6E00746F67676C6520636F6E6A750D
:1005300072652E2E2E2000636F6E6669673A206DFD
:100540006F64652000636F6E6669672E2E2E200033
:10055000736C656570696E6700736C6565702E2ECF
:100560002E2000636F6E6A7572653A206C69676849
:1005700074206F6E00636F6E6A7572653A206C69E5
:10058000676874206F666600706C6179696E673A9F
:100590002000706C6179696E672062706D3A20008E
:1005A00043414E4459205354524F424500434F4D0E
:1005B0004554205354524F424500524942424F4EF7
:1005C000004D4F525048205354524F42450043482B
:1005D000415345004C45474F004544474500424C78
:1005E000494E4B2D45004441534820444F50530041
:1005F000545241434552005345495A5552452053A0
:1006000054524F42450050554C5345005354524F9D
:1006100042494500444F50530048595045522053D9
:1006200054524F4245005354524F4245002070618E
:10063000747465726E20423A200020706174746593
:10064000726E20413A20006D6F6465200061636323
:10065000656C2073656E73697469766974793A2084
:100660004849474800616363656C2073656E736930
:100670007469766974793A204D454449554D006155
:100680006363656C2073656E7369746976697479E8
:100690003A204C4F57006D6F6465200061636365BD
:1006A0006C206D6F64653A204F4646006163636558
:1006B0006C206D6F64653A20464C49505A00616366
:1006C00063656C206D6F64653A2054494C54590041
:1006D000616363656C206D6F64653A2054494C54C6
:1006E0005800616363656C206D6F64653A205350F8
:1006F000454544006D6F6465200020732D003A204D
:10070000692D0020736C6F7420002070616C65741B
:1007100074652042002070616C657474652041002E
:100720006D6F646520003A206D6F64652000207352
:100730006C6F74200062756E646C65200020736CB1
:100740006F74732D0062756E646C65200062706D4D
:10075000206E657874206D6F64653A2000206672A3
:100760006F6D20454550524F4D2E0056657273698E
:100770006F6E206D617463682E2052656164696ECE
:10078000672073617665642073657474696E67733E
:100790002076200056657273696F6E206D69736DE7
:1007A000617463682E20436C6561726E696E6720A8
:1007B000454550524F4D2E000A57656C636F6D656D
:1007C00020746F205072696D6572210020746F2053
:1007D000454550524F4D2E0057726974696E67201F
:1007E000666163746F72792073657474696E677380
:1007F00020762000100910040001020304050607FA
:1008000008090A0B0C0D0E0F030405060708090A58
:100810000B000000000000000F0E0D0C0B0A090871
:1008200007060504030201000C0D0E0F0000000076
:1008300000000000000000000000000800020100AD
:10084000000304070000000000000000010204088B
:10085000102040800102040810200102040810202A
:100860000404040404040404020202020202030356
:1008700003030303000000002300260029000000FA
:100880000000250028002B000000000024002700A5
:100890002A009017A924F62A11241FBECFEFD8E012
:1008A000DEBFCDBF11E0A0E0B1E0E2EFF1E602C0B3
:1008B00005900D92AA37B107D9F726E0AAE7B1E073
:1008C00001C01D92A03EB207E1F718E0C8E9D8E0E8
:1008D00004C02297FE010E945E30C239D107C9F7D9
:1008E0000E943A2B0C94F7300C940000CF93DF93C6
:1008F000EB01A82FB0E096E0B595A7959A95E1F7A2
:100900008F7390E0FC01EE0FFF1FE80FF91FE45713
:10091000FE4FE491E883FC01EE0FFF1FE80FF91F83
:10092000E357FE4F6491FA016083FC01EE0FFF1F55
:10093000E80FF91FE257FE4F8491F9018083888107
:1009400090E00A2E02C0959587950A94E2F7888375
:10095000FA01808190E00A2E02C0959587950A944D
:10096000E2F78083F901808190E002C09595879538
:10097000AA95E2F78083DF91CF9108952F923F925D
:100980004F925F926F927F928F929F92AF92BF929F
:10099000CF92DF92EF92FF920F931F93CF93DF934B
:1009A00000D01F92CDB7DEB71B01F22ED02EA98248
:1009B0009B828A82042F10E0BC0180E090E00E94BC
:1009C000482E2B013C01B10180E090E00E94482EAE
:1009D0009B01AC01C301B2010E94B42D2B013C016B
:1009E000B801882777FD8095982F0E944A2E4B01E9
:1009F0005C016E2D70E0601B710B882777FD809580
:100A0000982F0E944A2EA30192010E942A2F9B0137
:100A1000AC01C501B4010E94EA2C0E941C2EEA819F
:100A2000FB8160830F2D10E0B801882777FD80954A
:100A3000982F0E944A2E4B015C016C2D70E0601BC8
:100A4000710B882777FD8095982F0E944A2EA3016D
:100A500092010E942A2F9B01AC01C501B4010E94A2
:100A6000EA2C0E941C2EE88DF98D60830D2D10E07C
:100A7000B801882777FD8095982F0E944A2E6B0138
:100A80007C01F9816F2F70E0601B710B882777FD67
:100A90008095982F0E944A2EA30192010E942A2F2E
:100AA0009B01AC01C701B6010E94EA2C0E941C2EDA
:100AB000EA8DFB8D60830F900F900F90DF91CF91A7
:100AC0001F910F91FF90EF90DF90CF90BF90AF906C
:100AD0009F908F907F906F905F904F903F902F905E
:100AE00008950F931F93CF93DF931F92CDB7DEB777
:100AF0008C0169830E94D9306981681741F0C8016F
:100B00000F90DF91CF911F910F910C94E1300F90D6
:100B1000DF91CF911F910F9108950C94D930FC0172
:100B2000262F30E0C901840F911D4289538948174F
:100B3000590750F0138A128A848990E001966181E6
:100B400070E00E940730848B828993898217930713
:100B500060F48489E80FF11D20E831E041E851E0BC
:100B600062E871E082810C94760410928201109206
:100B700081011092800108956F927F928F929F92CF
:100B8000AF92CF92EF920F931F93CF93DF93EC012D
:100B9000662E062F10E0C801840F911D2A893B891B
:100BA0002817390758F01B8A1A8A8C8990E0019619
:100BB0002981622F70E00E9407308C8B8A899B8983
:100BC0006694712C8615970530F58C89FE01E80F27
:100BD000F11D2DE731E04EE751E06FE771E08281D2
:100BE0000E94760480E891E09F938F9381E891E0E2
:100BF0009F938F9332E8832E31E0932EA0907D0156
:100C0000C0907E01E0907F0100E020E040E0B30171
:100C10008A899B892CC08017910780F58C89FE01F9
:100C2000E80FF11D2DE731E04EE751E06FE771E08D
:100C300082810E947604B801661977098A899B89A6
:100C400020E831E03F932F9321E831E03F932F9349
:100C500022E8822E21E0922EA12CC12CE12C0091C1
:100C60007D0120917E0140917F01861997090E94A4
:100C7000BE040F900F900F900F9006C0109282014B
:100C80001092810110928001DF91CF911F910F91FD
:100C9000EF90CF90AF909F908F907F906F9008953E
:100CA000FC01262F30E0C901840F911D4289538930
:100CB0004817590760F0138A128A848990E00196D8
:100CC000618170E0615071090E940730848B8289D4
:100CD00093898217930788F4848990E00196618153
:100CE00070E00E9407308E0F9F1F20E831E041E83E
:100CF00051E062E871E0FC0106C020E831E041E823
:100D000051E062E871E082810C9476040F93CF93F6
:100D1000DF93FC01818190E00197908F878B70E0D9
:100D2000869FD001879FB00D969FB00D112430E0B3
:100D3000C901840F911DAC01049FC001059F900D56
:100D400011248A0F9B1F820F931FC289D389C81752
:100D5000D90710F0138A128A828993898A179B0710
:100D600070F40E94F32FDB01AE0FBF1F20E831E0CB
:100D700041E851E062E871E013968C9111C08A1B42
:100D80009B0B968B858BBA010E94073082179307C5
:100D900064F020E831E041E851E062E871E08281EE
:100DA000DF91CF910F910C947604109282011092F2
:100DB000810110928001DF91CF910F910895FC0184
:100DC0002181269F90011124C901840F911D428920
:100DD00053894817590710F0138A128A8289938918
:100DE0008217930780F470E00E94F32FDB01AE0FAF
:100DF000BF1F20E831E041E851E062E871E012965F
:100E00008C910C94760410928201109281011092C0
:100E1000800108950F931F93CF93DF93FC01C1814D
:100E2000D0E02197D68BC58B70E0C69F8001C79F0D
:100E3000100DD69F100D1124D801AA0FBB1FA40FAF
:100E4000B11DCD01820F911D2289338928173907E1
:100E500010F0138A128A828993898017910770F49F
:100E60000E94F32FC61BD70BCE0FDF1F20E831E007
:100E700041E851E062E871E08A811AC09D01201BBF
:100E8000310B8217930768F08A179B07B8F4821B0F
:100E9000930B0E94F32F6F5F7F4F708F678BE60F6E
:100EA000F71F20E831E041E851E062E871E082811B
:100EB000DF91CF911F910F910C94760410928201D3
:100EC0001092810110928001DF91CF911F910F91BB
:100ED000089523E030E040E050E060E070E0CB01B6
:100EE0000E94CC2C611571058105910539F06130A6
:100EF00071058105910521F080E2089584E008954F
:100F000080E108950F931F93CF93DF931F92CDB786
:100F1000DEB78C01FC0185899689892B41F46983B0
:100F20000E94690790E0F801968B858B6981F80132
:100F300085899689860F911D22893389281739075B
:100F400080F0138A128A848990E00196618170E0B2
:100F50000E940730848B0E94690790E0F801968B0D
:100F6000858BF80122893389858996892817390765
:100F700088F48489E80FF11D20E831E041E851E070
:100F800062E871E082810F90DF91CF911F910F9104
:100F90000C947604109282011092810110928001CB
:100FA0000F90DF91CF911F910F910895CF93DF9311
:100FB000FC01362FC62FD0E0CE01840F911DA289EF
:100FC000B389A817B907C8F0138A128A45895689C8
:100FD0004F5F5F4F568B458BA22FB0E011974A179A
:100FE0005B075CF0168A158A848990E0019641813E
:100FF000642F70E00E940730848B428953894C171C
:101000005D07A0F5832F622F0E94E72F682F70E005
:10101000CA010E94F32F708F678B8589968900978C
:1010200051F48489E80FF11D20E831E041E851E0F6
:1010300062E871E013C068177907ACF4848990E026
:101040000196618170E00E9407308E0F9F1F20E89B
:1010500031E041E851E062E871E0FC018281DF911A
:10106000CF910C94760468177907D9F61092820113
:101070001092810110928001DF91CF9108958F929B
:101080009F92AF92CF92EF92FF920F931F93CF93C5
:10109000DF93EC01F22EE62FF0E08F01040F111D1B
:1010A0008A899B8980179107A8F01B8A1A8A8D89E3
:1010B0009E8901969E8B8D8B30E08217930754F0AA
:1010C0001E8A1D8A8C8990E00196698170E00E94D9
:1010D00007308C8B8A899B898E179F0708F051C037
:1010E0008C89FE01E80FF11D2DE731E04EE751E05C
:1010F0006FE771E082810E9476048C8990E001960E
:10110000698170E00E9407308C0F9D1F2AE731E053
:101110004BE751E06CE771E0FC0182810E947604AC
:10112000F09EB001F19E700D11248D899E89089F5B
:10113000F001099FF00D189FF00D11248A899B89F9
:1011400020E831E03F932F9321E831E03F932F9344
:10115000A2E88A2EA1E09A2EA0907A01C0907B018D
:10116000E0907C0100917D0120917E0140917F0102
:101170008E0F9F1F0E94BE040F900F900F900F9034
:1011800006C0109282011092810110928001DF91BD
:10119000CF911F910F91FF90EF90CF90AF909F90C4
:1011A0008F900895CF93DF93FC01C62FD0E0CE013E
:1011B000840F911D428953894817590728F1138AD2
:1011C000128A858996894789508D30E0452B19F020
:1011D000319521953109280F391F368B258B84894C
:1011E00090E00196618170E00E940730848B1216B6
:1011F00013061CF0108E178A07C02C173D0724F029
:1012000081E090E0908F878B228933898589968948
:101210008217930770F08489E80FF11D20E831E010
:1012200041E851E062E871E08281DF91CF910C9456
:101230007604109282011092810110928001DF9158
:10124000CF9108950F931F93CF93DF93FC01C62F87
:10125000D0E0CE01840F911D428953894817590768
:1012600000F1138A128A858996890196968B858B5F
:1012700030E082179307ACF0168A158A8789908D23
:101280000196908F878B10E08017910754F0108E95
:10129000178A848990E00196618170E00E9407308E
:1012A000848B828993898C179D07C8F4248985894A
:1012B0009689820F911D618170E00E9407308E0F28
:1012C0009F1F20E831E041E851E062E871E0FC0155
:1012D0008281DF91CF911F910F910C94760410922F
:1012E00082011092810110928001DF91CF911F91B4
:1012F0000F9108958F92AF92CF92EF920F93CF9369
:10130000DF93CDB7DEB7FC01608341832283038383
:10131000E482C582A68287828A8580878B858187C1
:101320008C8582878D8583878E8584878F85858749
:1013300088898687898987878A89808B8B89818B31
:10134000DF91CF910F91EF90CF90AF908F90089554
:101350000F931F93CF93DF93EC018B01CB010E947E
:101360008D058883C80101960E948D058983C80177
:1013700002960E948D058A83C80103960E948D05FE
:101380008B83C80104960E948D058C83C801059645
:101390000E948D058D83C80106960E948D058E835F
:1013A000C80107960E948D058F83C80108960E9488
:1013B0008D058887C80109960E948D058987C80117
:1013C0000A960E948D058A87C8010B960E948D059A
:1013D0008B87C8010C960E948D058C87C8010D96DD
:1013E0000E948D058D87C8010E960E948D058E87FF
:1013F000C8010F960E948D058F87C80140960E94F4
:101400008D05888BC80141960E948D05898BDF91DF
:10141000CF911F910F9108950F931F93CF93DF9357
:10142000EC018B016881C8010E9471056981C801C6
:1014300001960E9471056A81C80102960E94710599
:101440006B81C80103960E9471056C81C8010496E6
:101450000E9471056D81C80105960E9471056E811B
:10146000C80106960E9471056F81C80107960E9407
:1014700071056885C80108960E9471056985C801D3
:1014800009960E9471056A85C8010A960E94710535
:101490006B85C8010B960E9471056C85C8010C967E
:1014A0000E9471056D85C8010D960E9471056E85BB
:1014B000C8010E960E9471056F85C8010F960E94A3
:1014C00071056889C80140960E9471056989C80143
:1014D0004196DF91CF911F910F910C947105AF92BE
:1014E000BF92CF92DF92EF92FF920F931F93CF9311
:1014F000DF93EC017B016A015901088110E00031A2
:10150000110508F051C0F801EC5CFF4F0C945C3001
:1015100040E112C042E262E2CE010E948F0544C067
:1015200044E163E0F9CF4CE266E0F6CF42E368ECD9
:101530000E94BC0539C04EEB6AE0EECF4CE266E09B
:101540000E94500631C002E024E143E063E00E94C3
:1015500086062AC044E66AE00E94DF0625C028E22B
:1015600040E164E00E940A071FC060E10E94820718
:101570001BC025E044E164E60E94D60715C024E0C4
:1015800042E262E20E943F080FC040E066E1C4CF41
:1015900022E040E16EE10E94D20806C008E023E0AC
:1015A00040E16AE00E9422098A899B8901969B8B0F
:1015B0008A8B80918201F701808380918101F601FD
:1015C000808380918001F5018083DF91CF911F910D
:1015D0000F91FF90EF90DF90CF90BF90AF90089564
:1015E000FC01108E178A168A158A148A138A128AA9
:1015F000089583B78E7F83BF80E00C94D826EF9246
:10160000FF920F931F93CF93DF931F92CDB7DEB757
:101610007C01FC0100811181C80169830E94D930DD
:101620006981681719F0C8010E94E130C7010F9065
:10163000DF91CF911F910F91FF90EF900895CF937D
:10164000DF93CDB7DEB769970FB6F894DEBF0FBE54
:10165000CDBFFC0112AA13AA14AA15AA17AA16AA8A
:1016600029E1FE013196DC0101900D922A95E1F706
:1016700029E1FE013196DC01599601900D922A95DF
:10168000E1F769960FB6F894DEBF0FBECDBFDF91CC
:10169000CF910895AF92BF92CF92DF92EF92FF92D7
:1016A0000F931F93CF93DF936C01EB018A017901B4
:1016B000FC0182A99601275E3F4F590197018111D4
:1016C00008C0C5010E946F0A9701A801BE01C601AA
:1016D00007C0C6010E946F0A9701A801BE01C5019B
:1016E000DF91CF911F910F91FF90EF90DF90CF90FE
:1016F000BF90AF900C946F0ACF93DF93EC010E94E0
:10170000F00ACE0149960E94F00A1DAADF91CF91FE
:101710000895EF92FF920F931F93CF93DF9300D022
:10172000CDB7DEB78C017B01FC0163A9FA82E982A7
:10173000CE0101960E94FF0AF80164A9C701019633
:101740009A838983CE0101960E94FF0AB7016E5FDA
:101750007F4FC8010E940C0AB7016C5E7F4FC80121
:1017600049960E940C0A0F900F90DF91CF911F9124
:101770000F91FF90EF9008953F924F925F926F927A
:101780007F928F929F92AF92BF92CF92DF92EF9211
:10179000FF920F931F93CF93DF93CDB7DEB762977E
:1017A0000FB6F894DEBF0FBECDBF9A8B898B2A018E
:1017B0003B0148015901DC01D6968D919C91D79748
:1017C00097FF04C0D7961C921E92D697E989FA8992
:1017D00083A9823009F41DC118F4813041F070C230
:1017E000833009F48BC1843009F4FEC169C2A98930
:1017F000BA89D4968C91882359F0813081F0823057
:10180000C1F485E0382E8AE999E9A9E9BFE30DC062
:1018100029E1322E80E090E0A0ECBFE306C099E120
:10182000392E83E393E3A3EBBFE389839A83AB83EE
:10183000BC8320E030E0A901C301B2010E941F2F48
:10184000181644F0D301C201B0588D839E83AF8334
:10185000B88704C04D825E826F82788620E030E0D7
:10186000A901C501B4010E941F2F181644F0D5012B
:10187000C401B05889879A87AB87BC8704C0898622
:101880009A86AB86BC8620E030E0A901C701B6018C
:101890000E941F2F18160CF4F9C1D701C601B058C9
:1018A0008D879E87AF87B88B9C01AD0169857A854E
:1018B0008B859C850E941F2F181674F420E030E061
:1018C000A901C501B4010E941F2FA501940118169A
:1018D0000CF4EAC1505804C02D853E854F855889C7
:1018E0006D817E818F8198850E941F2F181654F478
:1018F00020E030E0A901C301B2010E941F2F730153
:1019000062012DC020E030E0A901C501B4010E94B0
:101910001F2F24013501181624F077FA709477F8F8
:10192000709420E030E0A901C701B6010E941F2F8A
:10193000181624F0F7FAF094F7F8F094A70196013E
:10194000C301B2010E941F2F18167CF420E030E082
:10195000A901C501B4010E941F2F75016401181669
:1019600024F0F7FAF094F7F8F094A989BA89D2969E
:101970008C91811127C029813A814B815C81C701FB
:10198000B6010E941F2F181644F4E989FA8986A926
:1019900097A9019697AB86AB06C0A989BA89D79655
:1019A0001C921E92D697832D90E0E989FA8926A988
:1019B00037A9821793070CF083C121E022AB97ABC4
:1019C00086AB7EC12DEC3CEC4CE85FE3C701B60171
:1019D0000E941F2F18164CF4832D90E0A989BA8914
:1019E000D7969C938E93D69707C0E989FA8986A9E2
:1019F00097A9019797AB86ABA989BA89D6968D919D
:101A00009C91D797181619060CF45AC1D2961C92BD
:101A100057C1A5019401C501B4010E942A2F4B01B1
:101A20005C01A7019601C701B6010E942A2F9B0104
:101A3000AC01C501B4010E94EA2C0E94912F9B01C8
:101A4000AC01C301B2010E945D2D20E030E044E30F
:101A500053E40E942A2F2BED3FE049E450E40E941A
:101A6000B42DE989FA89D2A8E6A8F7A8D11016C042
:101A700020E030E04CE852EC0E94B02D87FF03C01C
:101A800081E090E002C08FEF9FEFE80EF91EA98978
:101A9000BA89D796FC92EE92D69713C020E030E038
:101AA0004CE852E40E941F2F18161CF481E090E0CD
:101AB00002C08FEF9FEFE80EF91EE989FA89F7AAB5
:101AC000E6AA8CE390E0A989BA89D4960C90D497C1
:101AD00002C0959587950A94E2F7D6962D913C9190
:101AE000D797821793070CF0EBC0D7961C921E92E3
:101AF000D69781E0DD2009F4C5C0C3C0A3019201DF
:101B0000C301B2010E942A2F2B013C01A7019601BB
:101B1000C701B6010E942A2F9B01AC01C301B2018B
:101B20000E94EA2C0E94912F9B01AC01C501B401D7
:101B30000E945D2D20E030E044E353E40E942A2F10
:101B40002BED3FE049E450E40E94B42DA989BA8905
:101B5000D296DC90D297D696ED90FC90D797D11084
:101B600014C020E030E04CE852EC0E94B02D87FF1A
:101B700003C081E090E002C08FEF9FEFE80EF91EF6
:101B8000E989FA89F7AAE6AA15C020E030E04CE816
:101B900052E40E941F2F18161CF481E090E002C04E
:101BA0008FEF9FEFE80EF91EA989BA89D796FC92AC
:101BB000EE92D6978CE390E0E989FA8904A802C0F6
:101BC000959587950A94E2F726A937A98217930776
:101BD0000CF076C017AA16AA81E0D11080E0A9897E
:101BE000BA89D2968C936CC0E989FA8992A8A6A882
:101BF000B7A8911018C026E636E646E65FEBC701A7
:101C0000B6010E94B02D87FF03C081E090E002C0C2
:101C10008FEF9FEFA80EB91EA989BA89D796BC92FB
:101C2000AE92D69715C026E636E646E65FE3C701D4
:101C3000B6010E941F2F18161CF481E090E002C02C
:101C40008FEF9FEFA80EB91EE989FA89B7AAA6AA55
:101C50008CE390E0A989BA89D4960C90D49702C0FD
:101C6000959587950A94E2F7D6962D913C91D79752
:101C7000821793072CF5D7961C921E92D69781E077
:101C8000911080E0E989FA8982AB1AC0A701960118
:101C900069857A858B859C850E941F2F18160CF408
:101CA0000DCEA70196011CCE6D817E818F81988516
:101CB0000E941F2F18160CF41BCE2401350131CEC3
:101CC00062960FB6F894DEBF0FBECDBFDF91CF9105
:101CD0001F910F91FF90EF90DF90CF90BF90AF904A
:101CE0009F908F907F906F905F904F903F9008955E
:101CF000AF92BF92CF92DF92EF92FF920F931F931A
:101D0000CF93DF9300D0CDB7DEB730EBC32E31E0F9
:101D1000D32E00E010E044ECE42E43E0F42EF60174
:101D200061916F01FA82E982CE0101960E94FF0A59
:101D30005801F0E1AF0EB11CF801EC54FE4F608188
:101D4000C8018C579C4F9A838983CE0101960E94CB
:101D5000FF0A0F5F1F4F0A151B0571F78FEFE81A77
:101D6000F80A00341105D9F60F900F90DF91CF914A
:101D70001F910F91FF90EF90DF90CF90BF90AF90A9
:101D80000895CF92DF92EF92FF920F931F93CF931C
:101D9000DF9350EBE52E51E0F52EC0E0D0E004ECEF
:101DA00013E0C8010E94D930F70181937F016E01D1
:101DB000F0E1CF0ED11CCE018C579C4F0E94D93040
:101DC000FE01EC54FE4F80832196CC15DD0599F77A
:101DD0000F5F1F4F083C83E0180719F7DF91CF9181
:101DE0001F910F91FF90EF90DF90CF900895EF92A9
:101DF000FF920F931F93CF93DF9300D0CDB7DEB741
:101E000008E211E068E0E62E61E0F62EF80161914B
:101E100071918F01F701819191917F010E94890B4E
:101E2000F1E008341F0791F78FEF93E09A838983DD
:101E300069E2CE0101960E94FF0A0F900F90DF9198
:101E4000CF911F910F91FF90EF900895CF92DF9265
:101E5000EF92FF920F931F93CF93DF9378E2E72ED9
:101E600071E0F72EE8E0CE2EE1E0DE2EF7010191E1
:101E700011917F01F601C191D1916F01C8010E94BA
:101E8000D9308BABC80101960E94D9308CABB80118
:101E90006E5F7F4FCE010E94A809B8016C5E7F4F34
:101EA000CE0149960E94A809F8E4EF16F1E0FF067A
:101EB000E9F6DF91CF911F910F91FF90EF90DF90A6
:101EC000CF900895CF93DF93C0E0D0E060E0CE01E3
:101ED0000E94E1302196C11584E0D807B9F7DF915F
:101EE000CF9108955F926F927F928F929F92AF925F
:101EF000BF92CF92DF92EF92FF920F931F93CF93F7
:101F0000DF93CDB7DEB769970FB6F894DEBF0FBE8B
:101F1000CDBF68ED77E083E496E00E94872B4AE02E
:101F200050E069E270E083E496E00E946C2C6CEC77
:101F300077E083E496E00E94B72B0E94620F11E0E5
:101F400010937105109272051F921F921F921F929B
:101F5000FCE19F2E9F921F93A8E1BA2EBF921F9380
:101F6000B4E17B2E7F921F9300E1802EAA24A394DC
:101F70008CE0C82EEE24E39408E021E04CE062E01F
:101F8000CE0101960E947A0989E1FE013196AEE305
:101F9000B5E001900D928A95E1F71F921F921F9272
:101FA00088E88F938AE88F938CE88F938EE88F93DD
:101FB00080E98F9382E98F9384E98F9396E9892E44
:101FC00028E9A22E3AE9C32E4CE9E42E0EE921E0DD
:101FD0004DE067E0CE0101960E947A0989E1FE0199
:101FE0003196A7E5B5E001900D928A95E1F710933F
:101FF000390510933A051F921F921F921F921F924C
:102000001F921F921F921F9282EC8F9353EC852E8A
:1020100064ECA62E75ECC72EE6ECEE2E07EC21E064
:1020200047E068E0CE0101960E947A0989E1FE014D
:102030003196A6E0B5E001900D928A95E1F71F92E6
:102040001F921F921F921F921F921F921F928FE149
:102050008F939F92F9E18F2EA6E1AA2EB3E1CB2EAA
:1020600000E1E02E0DE02AE048E063E0CE010196B9
:102070000E947A0989E1FE013196AFE1B5E0019055
:102080000D928A95E1F71093010582E0F82EF09207
:1020900002050FB6F894DEBF0FBECDBF1F921F9290
:1020A0001F921F921F921F921F921F921F921F92A8
:1020B000812CA12CC12C96E1E92E0EE12EE043E00B
:1020C00061E0CE0101960E947A0989E1FE01319614
:1020D000AEECB4E001900D928A95E1F71F921F9249
:1020E0001F921F921F921F921F921F921F921F9268
:1020F000E12C00E020E041E060E0CE0101960E948A
:102100007A0989E1FE013196A7EEB4E001900D92C3
:102110008A95E1F7F092C9041092CA041F921F92A7
:102120001F921F922AEDD22EDF92DF92DF928BED6B
:102130008F938CE98F938DE98F933EE9832E4FE93E
:10214000A42E58E8C52E69E1E62E06E12EE14CE00A
:1021500069E0CE0101960E947A0989E1FE0131967B
:10216000A6E9B4E001900D928A95E1F71F921F92C3
:102170001F921F92DF92DF92DF9289ED8F9388E9A1
:102180008F9387E98F9376E9872EE5E9AE2EF4E900
:10219000CF2EABE5EA2E0EE526E14CE069E0CE015C
:1021A00001960E947A0989E1FE013196AFEAB4E016
:1021B00001900D928A95E1F7F092910410939204A8
:1021C0000FB6F894DEBF0FBECDBF1F921F921F92B5
:1021D0001F921F921F921F92BDE55B2E5F920AE530
:1021E000602E6F9287E5D82EDF9294E5892E21E547
:1021F000A22E3EE4C32E4BE4E42E08E422EC49E098
:1022000066E0CE0101960E947A0989E1FE013196CD
:10221000AEE5B4E001900D928A95E1F71F921F920E
:102220001F921F921F921F921F925F926F92DF92D6
:1022300026EC49E066E0CE0101960E947A0989E128
:10224000FE013196A7E7B4E001900D928A95E1F77F
:10225000F0925904F0925A041F921F921F921F92FB
:102260001F921F921F921F925AE1652E6F9288E073
:102270008F936EE0862E78E0A72EEDE1CE2EF8E06B
:10228000EF2E0BE028E048E06FE0CE0101960E94BF
:102290007A0989E1FE013196A6E2B4E001900D923F
:1022A0008A95E1F71F921F921F921F921F921F9211
:1022B0001F921F9282E18F93BF92AEE18A2EB8E106
:1022C000AB2E05E1C02E88E1E82E0BE128E148E0C5
:1022D0006FE0CE0101960E947A0989E1FE013196F4
:1022E000AFE3B4E001900D928A95E1F793E0D92E27
:1022F000D0922104109222040FB6F894DEBF0FBED4
:10230000CDBF1F921F921F921F921F921F921F926A
:102310001F921F921F92812C2EE0A22E3BE0C32E13
:1023200048E0E42E0DE12AE145E06BE0CE010196A4
:102330000E947A0989E1FE013196AEEEB3E0019088
:102340000D928A95E1F71F921F921F921F921F9282
:102350001F921F921F921F921F925EE1A52E6BE1AA
:10236000C62E78E1E72E05E122E145E06BE0CE01E3
:1023700001960E947A0989E1FE013196A7E0B4E056
:1023800001900D928A95E1F7D092E9031093EA0348
:102390001F921F921F921F921F921F926F92BF92C5
:1023A0001F921F92E2E18E2EF0E1AF2EC12CE12CA4
:1023B0000AE028E04CE06DE0CE0101960E947A0927
:1023C00089E1FE013196A6EBB3E001900D928A956A
:1023D000E1F71F921F921F921F921F929F921F92CE
:1023E000BF921F927F92812CACE0EA2E00E028E0A1
:1023F0004CE06DE0CE0101960E947A0989E1FE0170
:102400003196AFECB3E001900D928A95E1F7D0924E
:10241000B103F092B2030FB6F894DEBF0FBECDBF8A
:102420001F921F921F921F921F921F921F921F9224
:102430001F921F92BAE0AB2E09E0C02E88E0E82E72
:102440000FE12EE145E06EE0CE0101960E947A098F
:1024500089E1FE013196AEE7B3E001900D928A95D5
:10246000E1F71F921F921F921F921F921F921F92BD
:102470001F921F921F929AE1A92E29E1C22E38E1E4
:10248000E32E07E126E145E06EE0CE0101960E94D1
:102490007A0989E1FE013196A7E9B3E001900D9236
:1024A0008A95E1F744E0D42ED092790310927A0312
:1024B0001F921F921F921F921F921F921F921F9294
:1024C0001F921F925AE5A52EC12C68E5E62E00E06A
:1024D00026E546E064E0CE0101960E947A0989E192
:1024E000FE013196A6E4B3E001900D928A95E1F7E2
:1024F0001F921F921F921F921F921F921F921F9254
:102500001F921F927AE4A72EE8E4EE2E2EE546E015
:1025100064E0CE0101960E947A0989E1FE013196BC
:10252000AFE5B3E001900D928A95E1F7D0924103B7
:10253000109342030FB6F894DEBF0FBECDBF1F92BB
:102540001F921F921F921F921F921F921F921F9203
:102550001F92A12CFDE4CF2EACE4EA2E0AE428E47D
:1025600044E06AE0CE0101960E947A0989E1FE0109
:102570003196AEE0B3E001900D928A95E1F71F929B
:102580001F921F921F921F921F921F921F921F92C3
:102590001F92BDE5CB2E1CE5E12E0AE528E544E0BF
:1025A0006AE0CE0101960E947A0989E1FE01319626
:1025B000A7E2B3E001900D928A95E1F7D09209036A
:1025C000F0920A031F921F921F921F921F921F9256
:1025D0001F921F921F921F9208E1C02E88E0E82EE2
:1025E00008E120E144E06CE0CE0101960E947A0906
:1025F00089E1FE013196A6EDB2E001900D928A9537
:10260000E1F71F921F921F921F921F921F921F921B
:102610001F921F921F9298E0C92E28E1E22E08E037
:1026200020E144E06CE0CE0101960E947A0989E144
:10263000FE013196AFEEB2E001900D928A95E1F77E
:102640001092D1021092D2020FB6F894DEBF0FBEE4
:10265000CDBF1F921F921F921F921F921F921F9217
:102660001F921F921F92C12CE12C08ED28E042E03E
:1026700063E0CE0101960E947A0989E1FE0131965C
:10268000AEE9B2E001900D928A95E1F71F921F9298
:102690001F921F921F921F921F921F921F921F92B2
:1026A00000E020E041E060E0CE0101960E947A095E
:1026B00089E1FE013196A7EBB2E001900D928A9577
:1026C000E1F71092990210929A021F921F921F92A4
:1026D0001F921F921F921F921F921F921F9208EC2F
:1026E00028E142E063E0CE0101960E947A0989E187
:1026F000FE013196A6E6B2E001900D928A95E1F7CF
:102700001F921F921F921F921F921F921F921F9241
:102710001F921F9200E020E041E060E0CE010196B0
:102720000E947A0989E1FE013196AFE7B2E001909B
:102730000D928A95E1F710926102109262020FB633
:10274000F894DEBF0FBECDBF1F921F921F921F9243
:102750001F921F921F921F921F921F920EEC2AE14E
:1027600042E063E0CE0101960E947A0989E1FE0110
:102770003196AEE2B2E001900D928A95E1F71F9298
:102780001F921F921F921F921F921F921F921F92C1
:102790001F9200E020E041E060E0CE0101960E943F
:1027A0007A0989E1FE013196A7E4B2E001900D9229
:1027B0008A95E1F71092290210922A021F921F9225
:1027C0001F921F921F921F921F921F921F921F9281
:1027D0000AED2EE042E063E0CE0101960E947A0904
:1027E00089E1FE013196A6EFB1E001900D928A9544
:1027F000E1F71F921F921F921F921F921F921F922A
:102800001F921F921F9200E020E041E060E0CE01A5
:1028100001960E947A0989E1FE013196AFE0B2E0AB
:1028200001900D928A95E1F744EF57E0A0EBB1E0FB
:102830000FB6F894DEBF0FBECDBF80E090E0FA0186
:1028400024912D9320E030E08C010850184FBC01FA
:102850006C547E4FF801E20FF31FF490FB01E20F7E
:10286000F31FF0822F5F3F4F2031310599F74F5F03
:102870005F4F40968034910511F70E94F70E0E9439
:10288000780E8FEF93E09A83898369E2CE010196F7
:102890000E94FF0A69960FB6F894DEBF0FBECDBF47
:1028A000DF91CF911F910F91FF90EF90DF90CF902C
:1028B000BF90AF909F908F907F906F905F900895A2
:1028C000FF920F931F93CF93DF93F82ED62FC42F31
:1028D0000E948C270091AA011091AB012091AC01BC
:1028E0003091AD01601B710B820B930B61157D471D
:1028F0008105910568F30E948C276093AA0170936B
:10290000AB018093AC019093AD014F2D50E0BA0123
:10291000759567955595479555954795640F751F1E
:1029200089E00E942F288D2F90E0BC017595679556
:102930009595879595958795680F791F86E00E94F4
:102940002F284C2F50E0BA017595679555954795FE
:1029500055954795640F751F85E0DF91CF911F91C5
:102960000F91FF900C942F28EF92FF920F931F93DB
:10297000CF93DF93182F062FF42EE22EC0E0CE1552
:1029800089F0D0E0D23320F44F2D602F812F03C087
:1029900040E060E080E00E946014DF5FD43691F791
:1029A000CF5FEDCF84E6C89FA0011124662757FDB5
:1029B0006095762F8091930190919401A09195015B
:1029C000B0919601840F951FA61FB71F80939301A6
:1029D00090939401A0939501B0939601DF91CF91CC
:1029E0001F910F91FF90EF9008951092AE01E0912A
:1029F000AF0180E1E89FF0011124EC54FE4FE0812B
:102A0000F0E0EE0FFF1FE85FFE4F80819181909311
:102A1000F5018093F40110928C0110928D011092B7
:102A20008E0110928F010E947C0BE091F401F091D5
:102A3000F50112AA10929A0110929B0110929C012A
:102A400010929D0110929E0110929F011092A00180
:102A50001092A1011092A2011092A3011092A40160
:102A60001092A5010895E091AF01F0E08091AE01D0
:102A700090E00196DF01A055BE4F6C9170E00E947E
:102A800007308093AE0124E0EE0FFF1F2A95E1F797
:102A9000E80FF91FEC54FE4FE081F0E0EE0FFF1F4E
:102AA000E85FFE4F808191819093F5018093F4015E
:102AB00010928C0110928D0110928E0110928F0154
:102AC0000E947C0BE091F401F091F50112AA1092A2
:102AD0009A0110929B0110929C0110929D011092FC
:102AE0009E0110929F011092A0011092A1011092DC
:102AF000A2011092A3011092A4011092A5010895C1
:102B0000803494F480320CF08054682F772767FD6E
:102B10007095872F972F0E944A2E20E030E040EAE0
:102B200051E40E94B42D089560E070E0CB01089557
:102B300065E477E083E496E00E94872B6091AF0123
:102B400070E06F5F7F4F4AE050E083E496E00E94C0
:102B50006C2C6DE377E083E496E00E94872BE09194
:102B6000AF01F0E0E055FE4F4AE050E0608183E4C1
:102B700096E00C94992C65E377E083E496E00E945C
:102B8000872B6091AF0170E06F5F7F4F4AE050E0AC
:102B900083E496E00E946C2C6EE277E083E496E09A
:102BA0000E94872B6091AE0170E06F5F7F4F4AE01B
:102BB00050E083E496E00E946C2C66E277E083E4C8
:102BC00096E00E94872B8091AE01E091AF0190E1E9
:102BD000E99FF0011124E80FF11DEC54FE4F6081D4
:102BE00070E06F5F7F4F4AE050E083E496E00C9422
:102BF0006C2C60E277E083E496E00E94872B809162
:102C0000AE01E091AF0190E1E99FF0011124E80FDE
:102C1000F11DEC54FE4F608170E06F5F7F4F4AE022
:102C200050E083E496E00E946C2CE091F401F09176
:102C3000F50182A9811103C065E177E002C06AE075
:102C400077E083E496E00C94872BCF930E94F915EC
:102C500063E077E083E496E00E94872BE091F40143
:102C6000F091F50165A970E06F5F7F4F4AE050E099
:102C700083E496E00E946C2C6EEF76E083E496E0AD
:102C80000E94872BE091F401F091F50185A992A9AA
:102C9000C9E1C99FE00DF11D1124E80FF11D62810A
:102CA0006F7370E040E150E083E496E00E946C2C8A
:102CB0006AEF76E083E496E00E94872BE091F401CE
:102CC000F091F50185A992A9C99FE00DF11D11248C
:102CD000E80FF11D628170E046E0759567954A95B1
:102CE000E1F74AE050E083E496E0CF910C946C2C3D
:102CF00064EF76E083E496E00E94872B8091AE013A
:102D0000E091AF0190E1E99FF0011124E80FF11D7E
:102D1000EC54FE4F4AE050E0608183E496E00E946C
:102D2000992CE091F401F091F50183A9823069F0CA
:102D300028F4813081F462EE76E00FC0833041F0F8
:102D4000843049F46CEA76E008C060ED76E005C0B6
:102D50006EEB76E002C06CE976E083E496E00C94DA
:102D6000872B66E976E083E496E00E94872B8091CA
:102D7000AE01E091AF0190E1E99FF0011124E80F6D
:102D8000F11DEC54FE4F4AE050E0608183E496E090
:102D90000E94992CE091F401F091F50184A9882317
:102DA00029F0813031F465E676E005C06FE776E022
:102DB00002C06DE476E083E496E00C94872B67E430
:102DC00076E083E496E00E94872B8091AE01E0914B
:102DD000AF0190E1E99FF0011124E80FF11DEC54DF
:102DE000FE4F608170E06F5F7F4F4AE050E083E408
:102DF00096E00E946C2CE091F401F091F50182A91B
:102E0000811103C06AE376E002C06DE276E083E4FC
:102E100096E00E94872BE091F401F091F50182A9E0
:102E200099E1899FE00DF11D1124808190E08F30A0
:102E3000910590F5FC01EC5BFF4F0C945C3066E271
:102E400076E02CC069E176E029C064E176E026C036
:102E50006CE076E023C066E076E020C067EF75E0C6
:102E60001DC060EF75E01AC066EE75E017C06EED2C
:102E700075E014C069ED75E011C064ED75E00EC039
:102E80006EEC75E00BC061EC75E008C06AEB75E0B4
:102E900005C06DEA75E002C060EA75E083E496E083
:102EA0000C94872B6EE772E083E496E00E94872BF8
:102EB0008091AE01E091AF0190E1E99FF001112412
:102EC000E80FF11DEC54FE4F608170E06F5F7F4FA3
:102ED0004AE050E083E496E00E946C2C80919701D8
:102EE000823091F038F4882361F0813099F464E500
:102EF00072E012C0833059F0843061F466E172E010
:102F00000BC069E672E008C06FE372E005C06AE2D8
:102F100072E002C06BEF71E083E496E00C94B72B93
:102F20008EE395E00E941F0B86E095E00E941F0B48
:102F30008EEC94E00E941F0B86E994E00E941F0B28
:102F40008EE594E00E941F0B86E294E00E941F0B26
:102F50008EEE93E00E941F0B86EB93E00E941F0B06
:102F60008EE793E00E941F0B86E493E00E941F0B04
:102F70008EE093E00E941F0B86ED92E00E941F0BF3
:102F80008EE992E00E941F0B86E692E00E941F0BE2
:102F90008EE292E00E941F0B86EF91E00E941F0BD1
:102FA0000E948C276093AA017093AB018093AC01BF
:102FB0009093AD010895CF93DF93D82FC62F6CE483
:102FC00070E086E795E00E9491246D2F86E795E0FA
:102FD0000E942E246C2F86E795E00E942E2486E71F
:102FE00095E0DF91CF910C94A62486E795E00E94AE
:102FF0006D2460E087E00E94DB1760E186E00E94BC
:10300000DB1760E088E00E94DB1761E087E00C944A
:10301000DB17CF93DF93809164008460809364001A
:1030200026E040E051EE60E070E083E496E00E942C
:10303000322A80E00E941228BC01882777FD809503
:10304000982F0E94A02C61E089E00E94B72861E0DF
:1030500086E00E94B72861E085E00E94B72860E022
:1030600082E00E94B72861E081E10E94B72861E018
:1030700081E10E94F02868EB77E083E496E00E940B
:10308000B72B8FEF93E00E94D930893249F064E981
:1030900077E083E496E00E94B72B0E94720F18C07D
:1030A0006BE677E083E496E00E94872B4AE050E0ED
:1030B00069E270E083E496E00E946C2C6DE577E0B5
:1030C00083E496E00E94B72B0E94260F0E94C10E57
:1030D000C8E0D1E0899199910E947C0B81E0C832CF
:1030E000D807C1F70E94F517F89410927A0085B5B9
:1030F000887F816085BD80918100887F8160809319
:10310000810080918100886080938100789460EADA
:103110007FE080E090E00E94AF270E948C276093C0
:10312000AA017093AB018093AC019093AD01DF9144
:10313000CF910C94F51486E795E00E946D2460E130
:1031400087E00C94DB176CEE71E083E496E00E945C
:10315000B72B40E060E080E00E9460140E949B1862
:1031600060E081E10E94F02860EA7FE080E090E08A
:103170000E94AF2783B7817F846083BF83B781605C
:1031800083BFF89442E050E069EF7AE080E00E946B
:10319000B82681E08CBB80E685BF80E485BF78944B
:1031A000889561E081E10E94F0280E94F5170E9455
:1031B000F514109291011092920160EA7FE080E094
:1031C00090E00C94AF27CF93C82F4091990150E025
:1031D0004C35510510F00C941022FA01ED5AFF4FB6
:1031E0000C945C3040919301509194016091950151
:1031F00070919601452B462B472B99F480919001B5
:10320000882319F062E975E002C068E875E083E49C
:1032100096E00E94872B0E94BB1583E496E00E94F3
:10322000B32BCC2311F40C94122280919301909132
:103230009401A0919501B091960184369105A10564
:10324000B10510F40C94122281E0809398010C9443
:1032500012224091930150919401609195017091D7
:103260009601483E53406105710528F082E0809345
:1032700098010C94122281110C94122280919201D7
:10328000882391F08091910191E0892780939101A9
:10329000882319F065E775E002C063E675E083E412
:1032A00096E00E94B72B02C00E943315109298013D
:1032B0000C941222409193015091940160919501D8
:1032C00070919601452B462B472B61F469E575E01B
:1032D00083E496E00E94872B25E040E860E880E8E0
:1032E0000E94B41440919301509194016091950112
:1032F00070919601403D57406105710528F084E0CA
:10330000809398010C941222C1110C94122260E552
:1033100075E083E496E00E94B72B0E94A31889E031
:10332000809398010C941222409193015091940142
:103330006091950170919601452B462B472B61F4C6
:1033400065E475E083E496E00E94872B25E040E089
:1033500060E880E80E94B414409193015091940178
:103360006091950170919601403D5740610571054E
:1033700028F083E0809398010C941222C1110C94E0
:10338000122267E375E083E496E00E94872B0E9497
:10339000BB1583E496E00E94B32BE091F401F09119
:1033A000F50115AA109297018AE0809398010C9478
:1033B0001222409193015091940160919501709176
:1033C0009601452B462B472B61F464E275E083E4BC
:1033D00096E00E94872B25E040E860E080E00E94B4
:1033E000B4144091930150919401609195017091B2
:1033F0009601403D57406105710528F082E08093B9
:1034000098010C941222C1110C9412228091920105
:1034100091E089278093920110929101882319F0FD
:1034200069E175E002C06DE075E083E496E00E941A
:10343000B72B109298010C941222811104C01092A3
:1034400098010C9412228091930190919401A09183
:103450009501B0919601803D9740A105B10508F412
:10346000E1C786E480939801DDC7409193015091B4
:1034700094016091950170919601452B462B472B45
:1034800011F40E945217CC2309F4CCC78091930108
:1034900090919401A0919501B09196018536910586
:1034A000A105B10508F4BEC78BE080939801BAC7A7
:1034B00081110EC08091970190E0019666E070E066
:1034C0000E940730809397018AE080939801AAC7F1
:1034D0008091930190919401A0919501B0919601F2
:1034E000883E9340A105B10508F49CC78CE0809309
:1034F000980198C740919301509194016091950172
:1035000070919601452B462B472B61F467EF74E0D1
:1035100083E496E00E94872B25E040E060E880E8A5
:103520000E94B414C11136C069EE74E083E496E0E1
:103530000E94872B80919701823050F4E091F40132
:10354000F091F50115AA82AB0E94251684E115C001
:10355000843050F4E091F401F091F501817082AB78
:103560000E94DF1688E209C0853021F40E94781697
:1035700082E303C00E94B1168CE38093980183E438
:1035800096E00E94B32B8091F4019091F5010E9486
:103590007C0B48C78091930190919401A091950173
:1035A000B0919601803D9740A105B10508F43AC756
:1035B0008DE08093980136C740919301509194011A
:1035C0006091950170919601452B462B472B61F434
:1035D0006BED74E083E496E00E94872B25E040E8E1
:1035E00060E880E80E94B414C1111CC76AEC74E062
:1035F00083E496E00E94B72B8091F4019091F5014D
:103600000E947C0B109298010DC74091930150913C
:1036100094016091950170919601452B462B472BA3
:1036200061F463EC74E083E496E00E94872B0E94CF
:10363000251683E496E00E94B32BCC2309F4F2C64E
:103640008091930190919401A0919501B091960180
:1036500085369105A105B10508F4E4C685E180939E
:103660009801E0C6409193015091940160919501B9
:1036700070919601483E534061057105B0F06AEBC8
:1036800074E083E496E00E94872B0E94251683E471
:1036900096E00E94B32B25E040E460E480E40E94C1
:1036A000B41487E180939801BDC6C111BBC6E091F7
:1036B000F401F091F50192A985A929E1929FE00D0D
:1036C000F11D1124E80FF11D828190E081968F7128
:1036D0009927828364EB74E083E496E00E94872B51
:1036E00084E1809398019EC640919301509194018A
:1036F0006091950170919601452B462B472B91F4D3
:103700006BEA74E083E496E00E94872B0E94251602
:1037100083E496E00E94B32B25E040E460E480E47B
:103720000E94B414409193015091940160919501CD
:1037300070919601403D57406105710588F0E09118
:10374000F401F091F50192A985A929E1929FE00D7C
:10375000F11D1124E80FF11D8281805C828362C615
:10376000C11160C6E091F401F091F50182A9DF0179
:1037700099E1899FA00DB11D112485A98F5F119634
:103780008C9360EA74E083E496E00E94872B0E94A9
:10379000251683E496E00E94B32B8EE18093980176
:1037A00041C64091930150919401609195017091AF
:1037B0009601452B462B472B61F466E974E083E4C0
:1037C00096E00E94872B0E94251683E496E00E94D3
:1037D000B32BCC2309F426C68091930190919401D8
:1037E000A0919501B091960185369105A105B1058D
:1037F00008F418C68FE18093980114C64091930194
:10380000509194016091950170919601403D57400F
:103810006105710520F080E28093980103C6811153
:1038200001C6E091F401F091F50185A98F5F85ABA8
:103830006AE874E083E496E00E94872B0E942516D4
:1038400083E496E00E94B32BE091F401F091F5013E
:1038500085A9803139F561E874E083E496E00E943F
:10386000872BE091F401F091F50182A999E1899FFC
:10387000E00DF11D11244AE050E0618183E496E0FF
:103880000E94992C6AE774E083E496E00E94B72BCB
:1038900025E040E860E880E80E94B4148AE580935F
:1038A0009801C0C584E180939801BCC54091930103
:1038B000509194016091950170919601452B462B92
:1038C000472B61F46AE674E083E496E00E94872B5C
:1038D00025E040E060E080E80E94B414409193014C
:1038E000509194016091950170919601403D57402F
:1038F0006105710520F081E28093980193C5C111A3
:1039000091C563E674E083E496E00E94B72BE091F2
:10391000F401F091F50185A9811104C084E180933F
:10392000980180C5815085AB82A999E1899FE00DFE
:10393000F11D11248181815081838EE18093980152
:1039400071C54091930150919401609195017091DE
:103950009601452B462B472B61F465E574E083E423
:1039600096E00E94872B25E040E860E880E80E940E
:10397000B414C11157C569E474E083E496E00E9471
:10398000872B0E94251683E496E00E94B32BE091DA
:10399000F401F091F50182A9C9E1DF01C89FA00DF2
:1039A000B11D112485A98F5F11968C9360E474E09A
:1039B00083E496E00E94872BE091F401F091F501F9
:1039C00082A9C89FE00DF11D11244AE050E06181F9
:1039D00083E496E00E94992C69E374E083E496E026
:1039E0000E94B72B8AE5809398011CC540919301F2
:1039F000509194016091950170919601452B462B51
:103A0000472B61F46FE274E083E496E00E94872B19
:103A10000E94DF1683E496E00E94B32BCC2309F4C6
:103A200001C58091930190919401A0919501B0916D
:103A3000960185369105A105B10508F4F3C489E224
:103A400080939801EFC4409193015091940160914B
:103A5000950170919601403D57406105710520F038
:103A60008AE280939801DEC48111DCC4E091F40104
:103A7000F091F50182A999E1899FE00DF11D1124D2
:103A8000808190E001968F709927808364E274E0D2
:103A900083E496E00E94872B0E94DF1683E496E081
:103AA0000E94B32B8091F4019091F5010E947C0B50
:103AB00088E280939801B6C440919301509194019B
:103AC0006091950170919601452B462B472B61F42F
:103AD00067E174E083E496E00E94872B25E040E8EC
:103AE00060E880E80E94B414C1119CC46EE074E0E8
:103AF00083E496E00E94872B0E94DF1683E496E021
:103B00000E94B32B8AE5809398018CC44091930165
:103B1000509194016091950170919601452B462B2F
:103B2000472B61F461E074E083E496E00E94872B08
:103B30000E94781683E496E00E94B32BCC2309F40C
:103B400071C48091930190919401A0919501B091DD
:103B5000960185369105A105B10508F463C483E398
:103B6000809398015FC481111CC0E091F401F09131
:103B7000F50183A990E0019665E070E00E940730AE
:103B800083AB66EF73E083E496E00E94872B0E948C
:103B9000781683E496E00E94B32B82E38093980129
:103BA00041C48091930190919401A0919501B091AD
:103BB0009601803D9740A105B10508F433C484E324
:103BC000809398012FC4409193015091940160918A
:103BD000950170919601452B462B472B61F469EEB8
:103BE00073E083E496E00E94872B25E040E860E8DC
:103BF00080E80E94B414C11115C461EE73E083E43F
:103C000096E00E94872B0E94781683E496E00E943B
:103C1000B32B8AE58093980105C44091930150919C
:103C200094016091950170919601452B462B472B8D
:103C300061F464ED73E083E496E00E94872B0E94B8
:103C4000B11683E496E00E94B32BCC2309F4EAC3B7
:103C50008091930190919401A0919501B09196016A
:103C600085369105A105B10508F4DCC38DE3809389
:103C70009801D8C381111CC0E091F401F091F501C5
:103C800084A990E0019663E070E00E94073084AB65
:103C900069EC73E083E496E00E94872B0E94B116E2
:103CA00083E496E00E94B32B8CE380939801BAC31F
:103CB0008091930190919401A0919501B09196010A
:103CC000803D9740A105B10508F4ACC38EE3809315
:103CD0009801A8C34091930150919401609195017E
:103CE00070919601452B462B472B61F46CEB73E0EA
:103CF00083E496E00E94872B25E040E860E880E8B6
:103D00000E94B414C1118EC364EB73E083E496E0A7
:103D10000E94872B0E94B11683E496E00E94B32B89
:103D20008AE5809398017EC340919301509194015C
:103D30006091950170919601452B462B472B61F4BC
:103D400064EA73E083E496E00E94B72B25E040E844
:103D500060E080E00E94B414C11106C0109290018E
:103D600087E4809398015EC38091930190919401C0
:103D7000A0919501B091960181379741A105B105B8
:103D800008F450C38EE4809398014CC34091930192
:103D9000509194016091950170919601452B462BAD
:103DA000472B61F468E973E083E496E00E94872B77
:103DB0000E94981583E496E00E94B32BCC2309F46B
:103DC00031C38091930190919401A0919501B0919C
:103DD000960184369105A105B10508F423C388E452
:103DE000809398011FC34091930150919401609179
:103DF000950170919601483E53406105710520F090
:103E000089E4809398010EC3C1110CC38091AF0166
:103E100090E00196837099278093AF0166E873E084
:103E200083E496E00E94872B0E94981583E496E035
:103E30000E94B32B0E94F51487E480939801F2C28C
:103E40004091930150919401609195017091960178
:103E5000452B462B472B61F46FE673E083E496E035
:103E60000E94872B25E040E860E080E00E94B414C7
:103E70004091930150919401609195017091960148
:103E8000403D57406105710520F08AE48093980118
:103E9000C9C2C111C7C26FE573E083E496E00E9416
:103EA000872B6091AF0170E06F5F7F4F4AE050E079
:103EB00083E496E00E94742C10929801B3C2409162
:103EC0009301509194016091950170919601452B59
:103ED000462B472B61F46AE473E083E496E00E948A
:103EE000872B25E040E060E880E80E94B414409110
:103EF0009301509194016091950170919601403D1C
:103F000057406105710520F08BE4809398018AC2C7
:103F1000C11188C20E94F51465E473E083E496E061
:103F20000E94B72B80E5809398017CC24091930159
:103F3000509194016091950170919601452B462B0B
:103F4000472B61F467E273E083E496E00E94872BDD
:103F500025E040E060E880E00E94B414C11162C234
:103F600010928301109284011092850110928601B3
:103F700010928B0110928701109288011092890192
:103F800010928A016BE173E083E496E00E94B72B04
:103F9000109204011092050110920601109207017F
:103FA0008CE4809398013EC240919301509194011A
:103FB0006091950170919601882309F4A1C045365E
:103FC00051056105710508F49BC063E173E083E46A
:103FD00096E00E94872B4AE050E060918B0183E4D9
:103FE00096E00E94992C80918B01882309F444C0AB
:103FF0008091040190910501A0910601B091070103
:1040000040918701509188016091890170918A01E6
:10401000840F951FA61FB71F80930401909305017D
:10402000A0930601B093070166E073E083E496E095
:104030000E94872B409187015091880160918901EE
:1040400070918A012AE030E083E496E00E948C2C93
:104050006EEF72E083E496E00E94872B40910401AA
:104060005091050160910601709107012AE030E04E
:1040700083E496E00E948C2C80918B01843058F16F
:104080008091040190910501A0910601B091070172
:10409000E2E0880F991FAA1FBB1FEA95D1F7809312
:1040A000040190930501A0930601B09307016DEE02
:1040B00072E083E496E00E94872B409104015091C6
:1040C000050160910601709107012AE030E083E468
:1040D00096E00E948C2C83E496E00E94B32B8091A2
:1040E0008B018F5F80938B01109287011092880162
:1040F0001092890110928A018DE48093980192C1F7
:1041000041325E446105710508F48CC180E09AEF8C
:10411000A0E0B0E08093040190930501A093060114
:10412000B0930701109298017DC181117BC18091EC
:104130008B01853070F010928C0110928D011092DD
:104140008E0110928F0181E080939001109298016E
:1041500069C18CE48093980165C1409193015091AD
:1041600094016091950170919601452B462B472B48
:1041700061F467ED72E083E496E00E94872B25E00E
:1041800040E060E080E80E94B414C1114BC16AECC9
:1041900072E083E496E00E94B72B0E94720F0E94A7
:1041A000F514109298013EC14091930150919401F1
:1041B0006091950170919601452B462B472B61F438
:1041C00060EC72E083E496E00E94872B0E94BB15AE
:1041D00083E496E00E94B32BCC2309F423C18091A1
:1041E000930190919401A0919501B091960185362B
:1041F0009105A105B10508F415C181E580939801E9
:1042000011C1409193015091940160919501709179
:104210009601403D57406105710520F082E580938D
:10422000980100C18111FEC0E091AF018091AE0103
:1042300020E1E29FF0011124E80FF11DEC54FE4F44
:10424000808190E001968F7099278083FC01EE0FAA
:10425000FF1FE85FFE4F808191819093F50180936D
:10426000F4010E947C0B65EB72E083E496E00E940F
:10427000872B0E94BB1583E496E00E94B32B80E558
:1042800080939801CFC04091930150919401609127
:10429000950170919601452B462B472B61F468EAF6
:1042A00072E083E496E00E94872B25E040E860E01E
:1042B00080E80E94B4144091930150919401609160
:1042C000950170919601403D57406105710520F0C0
:1042D00083E580939801A6C0C111A4C08091AE016E
:1042E0008F5F8093AE0162EA72E083E496E00E9401
:1042F000872B0E94BB1583E496E00E94B32B80912C
:10430000AE01E091AF018031A1F4F0E0E055FE4F45
:1043100080836AE972E083E496E00E94872B0E9422
:10432000981583E496E00E94B32B8BE58093980167
:1043300079C090E1E99FF0011124E80FF11DEC54E0
:10434000FE4FE081F0E0EE0FFF1FE85FFE4F80813F
:1043500091819093F5018093F4010E947C0B80E59C
:10436000809398015FC040919301509194016091B6
:10437000950170919601452B462B472B61F46CE813
:1043800072E083E496E00E94872B25E040E860E835
:1043900080E80E94B414C11145C0E091AF01F0E083
:1043A000E055FE4F8091AE018F5F808364E872E03C
:1043B00083E496E00E94872B0E94981583E496E0A0
:1043C0000E94B32B8BE5809398012CC08091AE01A5
:1043D000E091AF0120E1E29FF0011124E80FF11D0F
:1043E000EC54FE4FE081F0E0EE0FFF1FE85DFE4F62
:1043F000608171818091F4019091F5010E94890B97
:104400008091F4019091F5010E947C0B109298012B
:1044100009C00E94780E0E94F5141092980102C003
:10442000109298018091980190919901981759F0F4
:10443000809399011092930110929401109295012A
:104440001092960113C08091930190919401A091D4
:104450009501B09196010196A11DB11D8093930124
:1044600090939401A0939501B09396018091870158
:1044700090918801A0918901B0918A010196A11DB6
:10448000B11D8093870190938801A0938901B09317
:104490008A01CF9108956CE470E086E795E00E9470
:1044A0009124E0917605F09177050190F081E02D5F
:1044B00060E086E795E0099586E795E00E94A624EE
:1044C00043E050E06CE470E086E795E00E948424CD
:1044D00086E795E00E94D623892B91F086E795E048
:1044E0000E94DE238093A80186E795E00E94DE23E8
:1044F0008093A70186E795E00E94DE238093A601C2
:104500000895CF92DF92EF92FF920F931F93CF9374
:10451000DF9300D01F92CDB7DEB782E00E9426293C
:1045200021E0892B09F020E0822F0E94E31880917E
:10453000A901843110F01092A9018091A901811183
:1045400003C00E944B2252C0813069F48091A801BF
:104550000E9480156093A2017093A3018093A4012F
:104560009093A50143C0823069F48091A7010E9415
:10457000801560939E0170939F018093A00190939A
:10458000A10134C0833069F48091A6010E94801596
:1045900060939A0170939B0180939C0190939D017D
:1045A00025C0843019F5809199018A508C33F0F040
:1045B000C0909A01D0909B01E0909C01F0909D01E9
:1045C00000919E0110919F012091A0013091A101C5
:1045D0004091A2015091A3016091A4017091A501A5
:1045E0008091F4019091F5010E94BC0B8091A9018A
:1045F0008F5F8093A90180919901811110C09E0164
:104600002F5F3F4FAE014E5F5F4FBE016D5F7F4F2B
:104610008091F4019091F5010E944A0B6DC0982F92
:10462000977F963411F41B8265C08A30E0F38431A1
:10463000A8F480919701823009F455C038F488239A
:1046400009F456C0813009F44AC035C0833019F0EE
:104650008430A1F130C01B828FEF36C0E091F401AD
:10466000F091F5018E31B0F485A992A929E1929FCC
:10467000E00DF11D1124E80FF11D9E012F5F3F4F4A
:10468000AE014E5F5F4FBE016D5F7F4F82810E9422
:10469000760432C0823308F4B2CF8C33B8F483A9E5
:1046A0008230E9F018F4813019F10CC0833019F030
:1046B000843021F007C08FEF8B8302C01B828FEF05
:1046C0008A8319C080E48B838A8310C0863408F003
:1046D00096CF84A9882319F0813029F009C01B8264
:1046E0001A828FEF03C08FEF8B831A82898304C0F5
:1046F0008FEF8B831A82198280919201882339F07F
:1047000080919101882319F01B821A82198280916D
:104710009901811127C080919001882319F140915E
:104720008C0150918D0160918E0170918F0180916B
:10473000040190910501A0910601B0910701841731
:104740009507A607B70770F40E9433156DE477E06C
:1047500083E496E00E94872B0E94BB1583E496E0D9
:104760000E94B32B49816A818B810E9460148091E1
:104770008C0190918D01A0918E01B0918F010196D5
:10478000A11DB11D80938C0190938D01A0938E018A
:10479000B0938F010F900F900F90DF91CF911F91E9
:1047A0000F91FF90EF90DF90CF9008958091A60534
:1047B00090E02091A705821B910908952091A705FB
:1047C0008091A605281750F4E22FF0E0E855FA4F43
:1047D000808190E02F5F2093A70508958FEF9FEFD2
:1047E0000895E091A7058091A605E81730F4F0E060
:1047F000E855FA4F808190E008958FEF9FEF08957C
:104800000895CF92DF92EF92FF920F931F93CF9371
:10481000DF937C01CB018A0120918205222389F05C
:10482000EB016B01C40ED51ECC15DD0569F0699155
:10483000D701ED91FC910190F081E02DC701099520
:10484000F3CF642F0E946225C801DF91CF911F91A1
:104850000F91FF90EF90DF90CF900895CF93DF936B
:104860001F92CDB7DEB76983209182052223D1F054
:1048700020918305203240F021E030E0FC013383B9
:10488000228380E090E015C080918405E82FF0E05D
:10489000EB57FA4F998190838F5F809384058093C3
:1048A000830505C061E0CE0101960E94622581E08A
:1048B00090E00F90DF91CF910895FC011382128256
:1048C00048EE53E060E070E044835583668377836D
:1048D0008DE491E09183808308951092A705109252
:1048E000A60510928405109283050C94AD24862FA2
:1048F000413208F040E268EA75E00E94CB24109251
:10490000A7058093A605089521E00C94772481E003
:10491000809382056093A50510928405109283050B
:1049200008950C9487240F93062F21E0409183056E
:1049300065E875E08091A5050E940F251092840519
:1049400010928305109282050F91089561E00C94F6
:10495000932486E795E00C945D241092350681E05F
:10496000809333061092320661E082E10E94F028C3
:1049700061E083E10E94F028E9EBF0E080818E7F26
:10498000808380818D7F808388E48093B80085E474
:104990008093BC000895413208F03FC090913506E5
:1049A0009111FCCF91E090933506209333062FEFC1
:1049B0002093C80510920D06240F20930C069093A7
:1049C000340690913406880F892B809334068091A9
:1049D0003206813041F41092320680913406809381
:1049E000BB0085EC01C085EE8093BC00809135064C
:1049F0008130E1F380910D06841710F440910D068B
:104A00002EE036E0FB01D9018A2F821B841718F4AF
:104A10008D918193F9CF842F089580E008950F93AD
:104A2000413208F046C0909135069111FCCF92E0DA
:104A300090933506009333069FEF9093C80510922C
:104A40000D0640930C06FB016EE076E0DB019A2F29
:104A5000961B941718F491919D93F9CF10923406F8
:104A600090913406880F892B80933406809132060A
:104A7000813041F410923206809134068093BB005D
:104A800085EC01C085EE8093BC00222321F080914B
:104A900035068230E1F38091C8058F3F61F0809147
:104AA000C805803251F08091C805803341F483E01D
:104AB00007C081E005C080E003C082E001C084E05F
:104AC0000F910895613298F420913506243089F4CD
:104AD0006093EA05FC018CEE95E0DC012A2F281B8F
:104AE000261718F421912D93F9CF80E0089581E0E5
:104AF000089582E0089585ED8093BC008091BC000C
:104B000084FDFCCF10923506089585EC8093BC009F
:104B10001092350608951F920F920FB60F9211242E
:104B20002F933F934F935F936F937F938F939F93B5
:104B3000AF93BF93EF93FF938091B900887F803646
:104B400009F49CC068F5883209F45BC090F48031A8
:104B500009F454C038F4882309F4F5C0883009F406
:104B60004DC0F5C0883109F44CC0803209F45DC0F5
:104B7000EEC0803409F468C048F4803309F455C0AD
:104B8000883309F0E4C08093C805A8C0803509F4D3
:104B90004FC0883509F45DC0883409F0D8C0D5C04D
:104BA000883909F4C6C0A8F4883709F467C038F416
:104BB000883609F463C0803709F460C0C8C08838FB
:104BC00009F4B7C0803909F45FC0803809F0BFC06C
:104BD0005BC0803B09F485C038F4803A09F466C0B4
:104BE000883A09F47EC0B3C0803C09F4A6C0883C72
:104BF00009F4A3C0883B09F489C0A9C08091340698
:104C000010C090910D0680910C06981770F5E091F8
:104C10000D0681E08E0F80930D06F0E0E25FF94F04
:104C200080818093BB0085EC85C08093C8058DC0D2
:104C3000E0910D0681E08E0F80930D068091BB0000
:104C4000F0E0E25FF94F808390910D0680910C06B1
:104C50006DC0E0910D0681E08E0F80930D0680916E
:104C6000BB00F0E0E25FF94F808380913306811151
:104C70006CC081E08093320684EA60C083E0809358
:104C800035061092C905CFCF8091C905803208F052
:104C900050C0E091C90581E08E0F8093C9058091D5
:104CA000BB00F0E0E653FA4F8083BDCF8091C90589
:104CB000803230F4E091C905F0E0E653FA4F1082FB
:104CC0000E947B256091C90570E0E0912E06F0916D
:104CD0002F068AEC95E009951092C9050E9485255A
:104CE00036C084E0809335061092EB051092EA05F9
:104CF000E0913006F091310609958091EA05811125
:104D000005C081E08093EA051092EC05E091EB0587
:104D100081E08E0F8093EB05F0E0E451FA4F808143
:104D20008093BB009091EB058091EA05981708F4F9
:104D30007ACF85E88093BC000AC085EC8093BC00E4
:104D40001092350604C01092C8050E947B25FF9181
:104D5000EF91BF91AF919F918F917F916F915F91F3
:104D60004F913F912F910F900FBE0F901F9018956C
:104D70008230E8F4E82FF0E0EE0FFF1FEA5CF94F15
:104D800071836083813041F0809169008C7F842B36
:104D900080936900E89A089580916900440F551F37
:104DA000440F551F837F842B80936900E99A0895EF
:104DB000823068F4813011F0E89801C0E998E82F5A
:104DC000F0E0EE0FFF1FEA5CF94F118210820895A8
:104DD0001F920F920FB60F9211242F933F934F9370
:104DE0005F936F937F938F939F93AF93BF93EF9353
:104DF000FF938091360690913706892B29F0E09138
:104E00003606F09137060995FF91EF91BF91AF916A
:104E10009F918F917F916F915F914F913F912F91D2
:104E20000F900FBE0F901F9018951F920F920FB604
:104E30000F9211242F933F934F935F936F937F9320
:104E40008F939F93AF93BF93EF93FF938091380617
:104E500090913906892B29F0E0913806F0913906B6
:104E60000995FF91EF91BF91AF919F918F917F91A4
:104E70006F915F914F913F912F910F900FBE0F90C7
:104E80001F9018951F920F920FB60F9211242F9317
:104E90003F938F939F93AF93BF9380913B069091E5
:104EA0003C06A0913D06B0913E0630913A0623E0C3
:104EB000230F2D3720F40196A11DB11D05C026E852
:104EC000230F0296A11DB11D20933A0680933B0645
:104ED00090933C06A0933D06B0933E0680913F061A
:104EE00090914006A0914106B09142060196A11D05
:104EF000B11D80933F0690934006A0934106B09366
:104F00004206BF91AF919F918F913F912F910F904A
:104F10000FBE0F901F9018953FB7F89480913F06F1
:104F200090914006A0914106B091420626B5A89BFB
:104F300005C02F3F19F00196A11DB11D3FBF662787
:104F4000782F892F9A2F620F711D811D911D42E0CC
:104F5000660F771F881F991F4A95D1F70895CF9242
:104F6000DF92EF92FF92CF93DF936B017C010E945F
:104F70008C27EB01C114D104E104F10489F00E94F3
:104F8000E82C0E948C276C1B7D0B683E734090F3CD
:104F900081E0C81AD108E108F108C851DC4FEACF16
:104FA000DF91CF91FF90EF90DF90CF9008957894AC
:104FB00084B5826084BD84B5816084BD85B582601E
:104FC00085BD85B5816085BDEEE6F0E080818160BC
:104FD0008083E1E8F0E010828081826080838081BC
:104FE00081608083E0E8F0E0808181608083E1EB94
:104FF000F0E0808184608083E0EBF0E0808181607C
:105000008083EAE7F0E08081846080838081826031
:10501000808380818160808380818068808310921A
:10502000C10008958E3008F08E508770209148019D
:1050300090E4299F90011124822B80937C00809121
:105040007A00806480937A0080917A0086FDFCCF9C
:10505000809178002091790090E0922B08951F9321
:10506000CF93DF93182FEB0161E00E94B7282097C0
:1050700011F460E004C0CF3FD10539F461E0812F25
:10508000DF91CF911F910C94F028E12FF0E0E85CC4
:10509000F74FE491E330F9F048F4E130B9F0E23051
:1050A000A1F584B5806284BDC8BD34C0E730E9F0A5
:1050B000E83019F1E43049F58091800080628093F6
:1050C0008000D0938B00C0938A0024C084B5806890
:1050D00084BDC7BD1FC08091800080688093800020
:1050E000D0938900C093880015C08091B00080687B
:1050F0008093B000C093B3000DC08091B000806277
:105100008093B000C093B40005C0C038D1050CF046
:10511000B5CFAFCFDF91CF911F910895833081F04C
:1051200028F4813099F08230A1F008958730A9F0F9
:105130008830B9F08430D1F4809180008F7D03C035
:10514000809180008F7780938000089584B58F7759
:1051500002C084B58F7D84BD08958091B0008F77A3
:1051600003C08091B0008F7D8093B0000895CF93ED
:10517000DF9390E0FC01E45BF74F2491FC01E05ADF
:10518000F74F8491882349F190E0880F991FFC0123
:10519000E857F74FA591B4918258974FFC01C591FC
:1051A000D4919FB7611108C0F8948C912095822307
:1051B0008C93888182230AC0623051F4F8948C91D8
:1051C000322F309583238C938881822B888304C06F
:1051D000F8948C91822B8C939FBFDF91CF9108958F
:1051E0000F931F93CF93DF931F92CDB7DEB7282F76
:1051F00030E0F901E85CF74F8491F901E45BF74F87
:105200001491F901E05AF74F04910023C9F0882363
:1052100021F069830E948E286981E02FF0E0EE0F73
:10522000FF1FE258F74FA591B4919FB7F8948C9166
:10523000611103C01095812301C0812B8C939FBF06
:105240000F90DF91CF911F910F910895CF93DF932E
:10525000282F30E0F901E85CF74F8491F901E45B15
:10526000F74FD491F901E05AF74FC491CC2391F054
:1052700081110E948E28EC2FF0E0EE0FFF1FEC58FA
:10528000F74FA591B4912C912D2381E090E021F46A
:1052900080E002C080E090E0DF91CF910895FC01B2
:1052A000818D228D90E0805C9F4F821B91098F73CE
:1052B00099270895FC01918D828D981731F0828D88
:1052C000E80FF11D858D90E008958FEF9FEF089511
:1052D000FC01918D828D981761F0828DDF01A80FFE
:1052E000B11D5D968C91928D9F5F9F73928F90E020
:1052F00008958FEF9FEF08958CEE9AE2892B49F085
:1053000080E090E0892B29F00E94EC2A81110C9416
:1053100000000895FC01848DDF01A80FB11DA35A80
:10532000BF4F2C91848D90E001968F739927848FC5
:10533000A689B7892C93A089B1898C9180648C93BC
:10534000938D848D981306C00288F389E02D8081A7
:105350008F7D80830895CF93DF93EC01888D882320
:10536000C9F0EA89FB89808185FD05C0A889B989D2
:105370008C9186FD0FC00FB607FCF5CF808185FFAD
:10538000F2CFA889B9898C9185FFEDCFCE010E941B
:105390008A29E7CFDF91CF910895CF92DF92FF92D4
:1053A0000F931F93CF93DF931F92CDB7DEB76C019E
:1053B00081E0D60158968C9358975B969C915B97A9
:1053C0005C968C915C97981307C05096ED91FC9178
:1053D0005197808185FD2EC0F601038D10E00F5F8F
:1053E0001F4F0F731127F02EF601848DF81211C094
:1053F0000FB607FCF9CFD6015096ED91FC9151976D
:10540000808185FFF1CFC60169830E948A29698165
:10541000EBCF838DE80FF11DE35AFF4F6083D60178
:105420005B960C935B975296ED91FC91539780811C
:1054300080620CC0D6015696ED91FC91579760831F
:105440005096ED91FC91519780818064808381E03A
:1054500090E00F90DF91CF911F910F91FF90DF901F
:10546000CF900895BF92CF92DF92EF92FF92CF93A9
:10547000DF93EC016A017B01B22EE889F98982E0B1
:105480008083411581EE580761057105A1F060E048
:1054900079E08DE390E0A70196010E941B30215036
:1054A0003109410951095695479537952795211599
:1054B00080E1380798F0E889F989108260E874E89B
:1054C0008EE190E0A70196010E941B302150310926
:1054D000410951095695479537952795EC85FD85E6
:1054E0003083EE85FF852083188EEC89FD89B0829C
:1054F000EA89FB89808180618083EA89FB898081D8
:1055000088608083EA89FB89808180688083EA895A
:10551000FB8980818F7D8083DF91CF91FF90EF9019
:10552000DF90CF90BF9008951F920F920FB60F9209
:1055300011242F938F939F93EF93FF93E091530642
:10554000F09154068081E0915906F0915A0682FD4F
:1055500012C0908180915C068F5F8F7320915D06F1
:10556000821751F0E0915C06F0E0ED5BF94F958F0A
:1055700080935C0601C08081FF91EF919F918F9194
:105580002F910F900FBE0F901F9018951F920F92A2
:105590000FB60F9211242F933F934F935F936F9306
:1055A0007F938F939F93AF93BF93EF93FF9383E486
:1055B00096E00E948A29FF91EF91BF91AF919F9150
:1055C0008F917F916F915F914F913F912F910F90AC
:1055D0000FBE0F901F90189583E496E00E944F290C
:1055E00021E0892B09F420E0822F089510924606CD
:1055F0001092450688EE93E0A0E0B0E08093470665
:1056000090934806A0934906B0934A068DE591E031
:10561000909344068093430685EC90E09093500667
:1056200080934F0684EC90E090935206809351064D
:1056300080EC90E0909354068093530681EC90E0C8
:10564000909356068093550682EC90E0909358060E
:105650008093570686EC90E090935A068093590603
:1056600010925C0610925D0610925E0610925F0624
:10567000089508950E94D7270E94392B0E94091887
:10568000CCE7D9E20E9481222097E1F30E947C2995
:10569000F9CFCF92DF92EF92FF920F931F93CF93A8
:1056A000DF936C017A01EB01E60EF71E00E010E0DB
:1056B000CE15DF0561F06991D601ED91FC91019065
:1056C000F081E02DC6010995080F191FF1CFC8011F
:1056D000DF91CF911F910F91FF90EF90DF90CF90CE
:1056E00008956115710581F0DB010D900020E9F747
:1056F000AD0141505109461B570BDC01ED91FC9166
:105700000280F381E02D099480E090E00895EF920B
:10571000FF920F931F93CF93DF938C01FB01C0E0A7
:10572000D0E064917F018FEFE81AF80A662361F0F8
:10573000D801ED91FC910190F081E02DC80109950F
:10574000C80FD91FF701EDCFCE01DF91CF911F9187
:105750000F91FF90EF900895DC01ED91FC91019085
:10576000F081E02D099469E671E00C94712B0F93A0
:105770001F93CF93DF93EC010E94872B8C01CE0106
:105780000E94B32B800F911FDF91CF911F910F913A
:1057900008958F929F92AF92BF92CF92DF92EF9235
:1057A000FF920F931F93CF93DF93CDB7DEB7A197EF
:1057B0000FB6F894DEBF0FBECDBF7C01C42EE52F1F
:1057C000CB01D22E19A221E02D1510F02AE0D22E05
:1057D0008E010F5D1F4F8D2C912CA12CB12C6C2DA7
:1057E0007E2FA50194010E941B308C2DD29E801922
:1057F0001124015011098A3014F4805D01C0895CC4
:10580000F8018083211531054105510521F0C22E93
:10581000E32FCA01E4CFB801C7010E94712BA19602
:105820000FB6F894DEBF0FBECDBFDF91CF911F91B1
:105830000F91FF90EF90DF90CF90BF90AF909F902F
:105840008F900895CF92DF92EF92FF920F931F9364
:10585000CF93DF93EC016A017B012115310579F4C7
:10586000E881F9810190F081E02D642FDF91CF91E3
:105870001F910F91FF90EF90DF90CF9009942A3005
:105880003105E9F477FF1AC06DE20E94AC2B8C0160
:1058900044275527BA014C195D096E097F092AE092
:1058A000CE010E94C92B800F911FDF91CF911F91D4
:1058B0000F91FF90EF90DF90CF9008952AE0B7010D
:1058C000A601CE01DF91CF911F910F91FF90EF9034
:1058D000DF90CF900C94C92B9A01AB01662757FD3E
:1058E0006095762F0C94222C0F931F93CF93DF9308
:1058F000EC019A01AB01662757FD6095762F0E9457
:10590000222C8C01CE010E94B32B800F911FDF91BE
:10591000CF911F910F9108952115310541F4DC01BC
:10592000ED91FC910190F081E02D642F09940C948D
:10593000C92B9A01462F50E060E070E00C948C2C4B
:10594000611571058105910511F00C94D030089511
:10595000CF93DF9300D000D0CDB7DEB79B01AC0171
:10596000611571058105910569F069833A834B835F
:105970005C830E94CB3029813A814B815C810E94FB
:105980003D3003C060E070E0CB010F900F900F90AE
:105990000F90DF91CF910895CF92DF92EF92FF9217
:1059A0006B017C01621773078407950764F4CA01D1
:1059B000B9016C197D098E099F090E94A82C6C0DF4
:1059C0007D1D8E1D9F1DFF90EF90DF90CF9008955D
:1059D00008955058BB27AA270ED0F7C1E8D130F060
:1059E000EDD120F031F49F3F11F41EF4B8C10EF454
:1059F000E095E7FBAEC1E92FF9D180F3BA17620752
:105A000073078407950718F071F49EF511C20EF420
:105A1000E0950B2EBA2FA02D0B01B90190010C01BE
:105A2000CA01A0011124FF27591B99F0593F50F4D6
:105A3000503E68F11A16F040A22F232F342F44272E
:105A4000585FF3CF469537952795A795F040539526
:105A5000C9F77EF41F16BA0B620B730B840BBAF0F6
:105A60009150A1F0FF0FBB1F661F771F881FC2F761
:105A70000EC0BA0F621F731F841F48F48795779575
:105A80006795B795F7959E3F08F0B3CF9395880F2C
:105A900008F09927EE0F97958795089588D158F0CB
:105AA00080E891E009F49EEF89D128F040E851E0C8
:105AB00059F45EEF09C053C1BBC1E92FE07896D11C
:105AC00068F3092E052AC1F3261737074807590737
:105AD00038F00E2E07F8E02569F0E025E0640AC0F2
