:100000000C9450010C949B260C94C8260C947801F7
:100010000C9478010C9478010C9478010C9478017C
:100020000C9478010C9478010C9478010C9478016C
:100030000C9478010C9478010C9478010C9478015C
:100040000C94F5260C9478010C94472A0C94792A88
:100050000C9478010C9478010C9478010C9478013C
:100060000C943E250C947801B407C807DC07F00710
:100070000C0820083B0849085E0873088808AD0989
:10008000B209BA09BD09C209C709CC09D109D60903
:10009000DB09E009E509ED09F209F709FC09010AA4
:1000A000090A110A190A1F0A2A0A2F0A340A3C0AE5
:1000B0003F0A460A4D0A570A5B0A5F0A660A6C0A3B
:1000C000720A7B0A810A870A8D0A960A990A9E0A91
:1000D000A30AA90AAF0AB80ABB0AC20AC90AD30A04
:1000E000D30AD30AD30AD30AD30AD30AD30AD30A28
:1000F000D30AD30AD30AD30AD30AD30AD30A191BC1
:100100002E1B511BAC1B7C1BDC1B181C441C731CC2
:100110008E1CA51CBA1CDC1C1F1D9A219A219A2139
:100120009A219A219A213C1D511D9A21811D9A21C3
:100130009A219A219A219A219A21CE1DE31D0D1E02
:100140004C1E9A219A219A219A219A219A21731E52
:10015000881EB51E9A219A219A219A219A219A21C4
:100160009A21CD1EE21E061F9A219A219A219A21D8
:100170009A219A219A211E1F331F571F9A219A21D3
:100180009A219A219A219A219A216F1F841FA51FD3
:10019000CD1FF81F2A2090209A219A219A21A82069
:1001A000BD20F32043219A219A219A219A219A2154
:1001B0009A21642187219A219A219A219A219A21B0
:1001C0009A219A219A218E21912194219721084ADE
:1001D000D73B3BCE016E84BCBFFDC12F3D6C74315B
:1001E0009ABD56833DDA3D00C77F11BED9E4BB4CB2
:1001F0003E916BAAAABE000000803F0010091004C7
:10020000000102030405060708090A0B0C0D0E0F76
:10021000030405060708090A0B000000000000009F
:100220000F0E0D0C0B0A0908070605040302010056
:100230000C0D0E0F00000000000000000000000088
:100240000000000800020100000304070000000095
:100250000000000001020408102040800102040890
:1002600010200102040810200404040404040404FF
:100270000202020202020303030303030000000060
:1002800023002600290000000000250028002B0084
:1002900000000000240027002A002D165C24A92A53
:1002A00011241FBECFEFD8E0DEBFCDBF11E0A0E02C
:1002B000B1E0EAEFFEE502C005900D92AA36B10763
:1002C000D9F727E0AAE6B1E001C01D92A43BB2072E
:1002D000E1F712E0C0EAD2E004C02297FE010E94DA
:1002E000E22ECA39D107C9F70E94ED2A0C947B2F60
:1002F0000C94000010926A0110926B0110926C0134
:1003000088E380936D019CE390936E0190936F015D
:1003100028E120937001109271011092720180E126
:10032000809373018093740110927501109276018D
:1003300020937701109278011092790180937A01CD
:1003400080937B0110927C0110927D0120937E01AD
:1003500080937F0110928001809381017FEF7093E1
:100360008201109283011092840130EC3093850158
:1003700028E020938601109287014CE84093880181
:100380008093890110928A0160E660938B0150E2AC
:1003900050938C0110928D0190938E0190938F0158
:1003A00010929001509391016093920110929301E9
:1003B00080939401409395011092960120939701A8
:1003C000309398011092990110929A0170939B01B9
:1003D00010929C0110929D0130939E0120939F01E9
:1003E0001092A0014093A1018093A2011092A30159
:1003F0006093A4015093A5011092A6019093A701C8
:100400009093A8011092A9015093AA016093AB01A7
:100410001092AC018093AD014093AE011092AF01F8
:100420002093B0013093B1011092B2011092B30148
:100430007093B4012093B5011092B6013093B701C7
:100440008093B8011092B9014093BA015093BB0157
:100450001092BC016093BD019093BE011092BF0148
:100460009093C0016093C1011092C2015093C301E7
:100470004093C4011092C5018093C6013093C70117
:100480001092C8012093C9010895EF92FF920F9333
:100490001F93CF93DF93CCE6D1E08C018A56914035
:1004A0007C01FE0132976081C8010E94652FFE0128
:1004B00031976081C80101960E94652F6881C7014C
:1004C0008C0F9D1F0E94652F0D5F1F4F239691E09B
:1004D000CC3CD90731F7DF91CF911F910F91FF905D
:1004E000EF900895EF92FF920F931F93CF93DF93B6
:1004F000CCE6D1E08C018A5691407C01C8010E9473
:100500005D2FFE0132978083C80101960E945D2F06
:10051000FE0131978083C7018C0F9D1F0E945D2FC4
:1005200088830D5F1F4F239691E0CC3CD90731F7AC
:10053000DF91CF911F910F91FF90EF900895CF938E
:10054000DF93A82FB0E096E0B595A7959A95E1F7CF
:100550008F7390E0FC01EE0FFF1FE80FF91FE659C3
:10056000FE4F8081EB0188838181EA01888382814B
:10057000F9018083EB01888190E00A2E02C09595F5
:1005800087950A94E2F78883FA01808190E00A2E29
:1005900002C0959587950A94E2F78083E9018881E6
:1005A00090E002C095958795AA95E2F78883DF9140
:1005B000CF9108952F923F924F925F926F927F92C8
:1005C0008F929F92AF92BF92CF92DF92EF92FF9263
:1005D0000F931F93CF93DF9300D01F92CDB7DEB759
:1005E0001B01F22ED02EA9829B828A82042F10E05A
:1005F000BC0180E090E00E94CC2C2B013C01B101B9
:1006000080E090E00E94CC2C9B01AC01C301B201C0
:100610000E94382C2B013C01B801882777FD80957A
:10062000982F0E94CE2C4B015C016E2D70E0601B58
:10063000710B882777FD8095982F0E94CE2CA301FF
:1006400092010E94AE2D9B01AC01C501B4010E9434
:100650006E2B0E94A02CEA81FB8160830F2D10E09D
:10066000B801882777FD8095982F0E94CE2C4B01EA
:100670005C016C2D70E0601B710B882777FD809505
:10068000982F0E94CE2CA30192010E94AE2D9B01B7
:10069000AC01C501B4010E946E2B0E94A02CE88D14
:1006A000F98D60830D2D10E0B801882777FD8095C6
:1006B000982F0E94CE2C6B017C01F9816F2F70E086
:1006C000601B710B882777FD8095982F0E94CE2C98
:1006D000A30192010E94AE2D9B01AC01C701B6019E
:1006E0000E946E2B0E94A02CEA8DFB8D60830F90E0
:1006F0000F900F90DF91CF911F910F91FF90EF908E
:10070000DF90CF90BF90AF909F908F907F906F9031
:100710005F904F903F902F9008950F931F93CF932A
:10072000DF931F92CDB7DEB78C0169830E945D2FE6
:100730006981681741F0C8010F90DF91CF911F9137
:100740000F910C94652F0F90DF91CF911F910F9116
:1007500008950C945D2F089508950895FC019B0160
:10076000460F571F828993898417950750F0138A83
:10077000128A848990E00196618170E00E948B2E3C
:10078000848B828993898217930760F48489E80FA8
:10079000F11D20E532E041E552E062E572E0828140
:1007A0000C949F0210925202109251021092500229
:1007B00008956F927F928F929F92AF92CF92EF9215
:1007C0000F931F93CF93DF93EC018B01460F571FBD
:1007D0008A899B898417950750F01B8A1A8A8C890D
:1007E00090E00196698170E00E948B2E8C8B8A8943
:1007F0009B893801769467948615970530F58C8926
:10080000FE01E80FF11D2DE432E04EE452E06FE40A
:1008100072E082810E949F0280E592E09F938F9315
:1008200081E592E09F938F9332E5832E32E0932E01
:10083000A0904D02C0904E02E0904F0200E020E0F8
:1008400040E0B3018A899B892CC08017910780F50D
:100850008C89FE01E80FF11D2DE432E04EE452E0F8
:100860006FE472E082810E949F02B80166197709E5
:100870008A899B8920E532E03F932F9321E532E07E
:100880003F932F9322E5822E22E0922EA12CC12CA1
:10089000E12C00914D0220914E0240914F028619A9
:1008A00097090E94DA020F900F900F900F9006C0E8
:1008B000109252021092510210925002DF91CF9189
:1008C0001F910F91EF90CF90AF909F908F907F905E
:1008D0006F900895FC019B01460F571F82899389F1
:1008E0008417950760F0138A128A848990E0019634
:1008F000618170E0615071090E948B2E848B828926
:1009000093898217930788F4848990E00196618126
:1009100070E00E948B2E8E0F9F1F20E532E041E594
:1009200052E062E572E0FC0106C020E532E041E5FC
:1009300052E062E572E082810C949F020F93CF93A4
:10094000DF93FC01818190E00197908F878B689FF6
:10095000D001699FB00D789FB00D1124420F531F35
:10096000049FC001059F900D11248A0F9B1F820FC9
:10097000931FC289D389C817D90710F0138A128A26
:10098000828993898A179B0770F40E94772EDB0176
:10099000AE0FBF1F20E532E041E552E062E572E0B4
:1009A00013968C9111C08A1B9B0B968B858BBA0179
:1009B0000E94772E8217930760F020E532E041E530
:1009C00052E062E572E08281DF91CF910F910C9449
:1009D0009F02109252021092510210925002DF9127
:1009E000CF910F910895FC018181869F9001879F8F
:1009F000300D1124420F531F828993898417950764
:100A000010F0138A128A828993898217930778F4E7
:100A10000E94772EDB01AE0FBF1F20E532E041E5DB
:100A200052E062E572E012968C910C949F02109253
:100A30005202109251021092500208950F931F9388
:100A4000CF93DF93FC01C181D0E02197D68BC58B7A
:100A50006C9F80016D9F100D7C9F100D1124D8019B
:100A6000AA0FBB1FA40FB51F2A0F3B1F82899389B2
:100A70008217930710F0138A128A8289938980174C
:100A8000910770F40E94772EC61BD70BCE0FDF1F85
:100A900020E532E041E552E062E572E08A811AC069
:100AA0009D01201B310B8217930768F08A179B0763
:100AB000B8F4821B930B0E94772E6F5F7F4F708F6D
:100AC000678BE60FF71F20E532E041E552E062E573
:100AD00072E08281DF91CF911F910F910C949F0260
:100AE000109252021092510210925002DF91CF9157
:100AF0001F910F910895CF93C82F23E030E040E07D
:100B000050E060E070E0CB010E94502B2C2F30E0D1
:100B1000611571058105910561F0613071058105EF
:100B2000910559F4C90133E0880F991F3A95E1F70F
:100B30000AC0C901880F991F06C0C90124E0880FA7
:100B4000991F2A95E1F7CF910895EF92FF920F93A5
:100B50001F93CF93DF931F92CDB7DEB77C018B013C
:100B6000FC0125893689232B41F4842F49830E9477
:100B70007B05F701968B858B4981F701258936899D
:100B8000200F311F628973896217730788F0138AF7
:100B9000128A2489822F90E00196618170E00E9480
:100BA0008B2E848B842F0E947B05F701968B858B7F
:100BB000F70122893389858996892817390798F49E
:100BC0008489E80FF11D20E532E041E552E062E55D
:100BD00072E082810F90DF91CF911F910F91FF9072
:100BE000EF900C949F0210925202109251021092B8
:100BF00050020F90DF91CF911F910F91FF90EF90D6
:100C000008950F931F93CF93DF93FC01EB01460FE1
:100C1000571F8289938984179507C0F0138A128A17
:100C2000458956894F5F5F4F568B458B822F90E0E9
:100C300001974817590754F0168A158A848990E05D
:100C40000196618170E00E948B2E848B028913894A
:100C50000C171D07A8F5622F70E0CE010E94772EB9
:100C6000C8010E94772E708F678B858996890097BF
:100C700051F48489E80FF11D20E532E041E552E0AE
:100C800062E572E013C068177907BCF4848990E0CC
:100C90000196618170E00E948B2E8E0F9F1F20E5D0
:100CA00032E041E552E062E572E0FC018281DF91D1
:100CB000CF911F910F910C949F0268177907C9F685
:100CC000109252021092510210925002DF91CF9175
:100CD0001F910F9108958F929F92AF92CF92EF92B2
:100CE000FF920F931F93CF93DF93EC01FB018A01D7
:100CF000F22E060F171F8A899B8980179107A8F08B
:100D00001B8A1A8A8D899E8901969E8B8D8B30E075
:100D10008217930754F01E8A1D8A8C8990E00196F1
:100D2000698170E00E948B2E8C8B8A899B898E173B
:100D30009F0708F051C08C89FE01E80FF11D2DE4DA
:100D400032E04EE452E06FE472E082810E949F0242
:100D50008C8990E00196698170E00E948B2E8C0F47
:100D60009D1F2AE432E04BE452E06CE472E0FC01A7
:100D700082810E949F02F09EB001F19E700D1124AD
:100D80008D899E89089FF001099FF00D189FF00D35
:100D900011248A899B8920E532E03F932F9321E536
:100DA00032E03F932F9352E5852E52E0952EA0908E
:100DB0004A02C0904B02E0904C0200914D022091FB
:100DC0004E0240914F028E0F9F1F0E94DA020F9039
:100DD0000F900F900F9006C0109252021092510285
:100DE00010925002DF91CF911F910F91FF90EF90E1
:100DF000CF90AF909F908F900895CF93DF93FC0199
:100E0000EB01460F571F828993898417950728F1B4
:100E1000138A128A858996894789508D30E0452B3F
:100E200019F0319521953109280F391F368B258B03
:100E3000848990E00196618170E00E948B2E848B02
:100E4000121613061CF0108E178A07C02C173D07C8
:100E500020F081E090E0908F878B2289338985890B
:100E600096898217930770F08489E80FF11D20E5B9
:100E700032E041E552E062E572E08281DF91CF919C
:100E80000C949F0210925202109251021092500242
:100E9000DF91CF9108950F931F93CF93DF93FC01C0
:100EA000EB01460F571F828993898417950700F13C
:100EB000138A128A858996890196968B858B30E0F4
:100EC00082179307ACF0168A158A8789908D019650
:100ED000908F878B10E08017910754F0108E178A3F
:100EE000848990E00196618170E00E948B2E848B52
:100EF000828993898C179D07C8F4248985899689EE
:100F0000820F911D618170E00E948B2E8E0F9F1FBA
:100F100020E532E041E552E062E572E0FC018281C9
:100F2000DF91CF911F910F910C949F02109252026A
:100F30001092510210925002DF91CF911F910F91A8
:100F400008950F9348E0649F90011124F901E6533E
:100F5000FE4F408150E04B30510508F0EEC0FA01E1
:100F6000EC5CFF4F0C94E02EF901E653FE4F4381F9
:100F700050E0542F44272481420F511D618170E0BD
:100F8000762F66272281620F711D0F910C94AE039C
:100F9000F901E653FE4F438150E0542F442724814A
:100FA000420F511D618170E0762F66272281620F0A
:100FB000711D0F910C94D903F901E653FE4F438143
:100FC00050E0542F44272481420F511D618170E06D
:100FD000762F66272281620F711D0F910C946A048F
:100FE000F901E653FE4F258130E0322F222746815A
:100FF000240F311D438150E0542F44276481460F54
:10100000511D618170E0762F6627A2816A0F711DE4
:1010100007810E949E0491C0F901E653FE4F43816F
:1010200050E0542F44272481420F511D618170E00C
:10103000762F66272281620F711D0F910C94F304A5
:10104000F901E653FE4F258130E0322F22274681F9
:10105000240F311D438150E0542F44276481460FF3
:10106000511D618170E0762F6627E2816E0F711D40
:101070000F910C941E05F901E653FE4F618170E05B
:10108000762F66272281620F711D43810F910C9488
:10109000A505F901E653FE4F438150E0542F442744
:1010A0002481420F511D618170E0762F66272281D5
:1010B000620F711D25810F910C940106F901E65311
:1010C000FE4F438150E0542F44272481420F511D8D
:1010D000618170E0762F66272281620F711D258164
:1010E0000F910C946B06F901E653FE4F438150E0DB
:1010F000542F44272481420F511D618170E0762FC7
:1011000066272281620F711D25810F910C94FD06C7
:10111000F901E653FE4F438150E0542F44272481C8
:10112000420F511D618170E0762F66272281620F88
:10113000711D068125810E944B070F9108958F92A2
:10114000AF92CF92EF920F93CF93DF93CDB7DEB7ED
:10115000FC016083418322830383E482C582A682EB
:1011600087828A8580878B8581878C8582878D851C
:1011700083878E8584878F858587888986878989F7
:1011800087878A89808B8B89818BDF91CF910F91A3
:10119000EF90CF90AF908F9008950F931F93CF93C0
:1011A000DF93EC018B01CB010E94A9038883C80166
:1011B00001960E94A9038983C80102960E94A9038F
:1011C0008A83C80103960E94A9038B83C8010496F1
:1011D0000E94A9038C83C80105960E94A9038D83F0
:1011E000C80106960E94A9038E83C80107960E9433
:1011F000A9038F83C80108960E94A9038887C801A4
:1012000009960E94A9038987C8010A960E94A9032A
:101210008A87C8010B960E94A9038B87C8010C9688
:101220000E94A9038C87C8010D960E94A9038D878F
:10123000C8010E960E94A9038E87C8010F960E94CE
:10124000A9038F87C80140960E94A903888BC80113
:1012500041960E94A903898BDF91CF911F910F9135
:1012600008950F931F93CF93DF93EC018B01688157
:10127000C8010E948D036981C80101960E948D03F7
:101280006A81C80102960E948D036B81C801039692
:101290000E948D036C81C80104960E948D036D81AC
:1012A000C80105960E948D036E81C80106960E94B2
:1012B0008D036F81C80107960E948D036885C80160
:1012C00008960E948D036985C80109960E948D03C6
:1012D0006A85C8010A960E948D036B85C8010B962A
:1012E0000E948D036C85C8010C960E948D036D854C
:1012F000C8010D960E948D036E85C8010E960E944E
:101300008D036F85C8010F960E948D036889C801FF
:1013100040960E948D036989C8014196DF91CF9163
:101320001F910F910C948D03AF92BF92CF92DF92D9
:10133000EF92FF920F93CF93DF93EC015B016A0171
:1013400079016881862F90E08034910508F02FC1E3
:10135000FC01E15CFF4F0C94E02E48E050E065E0BA
:1013600070E004C04FE050E06AE070E0CE010E94FF
:10137000AE031DC14EE150E0DEC04AE050E061E046
:1013800070E0F4CF44E150E063E070E0EFCF48E27A
:1013900050E066E070E0EACF40EA50E06CE070E0D8
:1013A000E5CF4FE050E06FE070E0E0CF40E250E08A
:1013B00061E270E0DBCF43E450E064E470E0D6CF5C
:1013C0004FE050E069E170E004C049E150E064E6BC
:1013D00070E0CE010E94D903EAC042E350E068EC1D
:1013E00070E0F7CF44E650E060E971E0F2CF44E10D
:1013F00050E063E070E009C04CE250E066E070E06D
:1014000004C042E250E061E170E0CE010E946A0453
:10141000CEC002E024E130E043E050E063E070E061
:1014200015C007E024E130E043E050E068E070E000
:101430000DC004E020E130E04AE050E005C001E0EA
:1014400024E130E048E250E065E070E0CE010E9427
:101450009E04ADC042E350E065E070E009C044E6A0
:1014600050E06AE070E004C044E650E064E170E0FF
:10147000CE010E94F3049BC024E130E010C028E2BA
:1014800030E040E150E064E070E00DC02CE330E07B
:1014900044E150E068E070E006C02CE330E046E054
:1014A00050E062E070E0CE010E941E0580C041E085
:1014B00068E070E007C042E060E170E003C045E032
:1014C00062E370E0CE010E94A50571C025E04AE00C
:1014D00050E062E370E00BC025E044E150E064E6D8
:1014E00070E005C02AE042E350E064EF71E0CE0115
:1014F0000E9401065CC021E040E050E064EF71E032
:1015000011C021E040E050E068EE73E00BC028E03D
:1015100040E150E06AE070E005C024E042E250E0C3
:1015200062E270E0CE010E946B0641C040E050E0F4
:101530001BCF40E050E064E170E018CF40E050E0A5
:1015400068E270E013CF22E04AE050E06EE170E024
:101550000BC025E044E150E064E670E005C02AE0FD
:1015600044E150E06AEF70E0CE010E94FD061FC02A
:101570000CE022E002C008E023E040E150E06AE035
:1015800070E00DC008E023E044E150E063E070E06B
:1015900006C004E023E042E250E062E270E0CE01E7
:1015A0000E944B0704C06053CE010E94A1078A89A4
:1015B0009B8901969B8B8A8B80915202F5018083D7
:1015C00080915102F601808380915002F70180835F
:1015D000DF91CF910F91FF90EF90DF90CF90BF9070
:1015E000AF900895FC01108E178A168A158A148A06
:1015F000138A128A089583B78E7F83BF80E00C948C
:101600008B26DC01ED91FC910190F081E02D099495
:10161000EF92FF920F931F93CF93DF931F92CDB75B
:10162000DEB77C01FC0100811181C80169830E9441
:101630005D2F6981681719F0C8010E94652FC701E5
:101640000F90DF91CF911F910F91FF90EF90089530
:10165000CF93DF93CDB7DEB769970FB6F894DEBFAF
:101660000FBECDBFFC0112AA13AA14AA15AA17AA6D
:1016700016AA29E1FE013196DC0101900D922A950E
:10168000E1F729E1FE013196DC01599601900D92B6
:101690002A95E1F769960FB6F894DEBF0FBECDBF6D
:1016A000DF91CF910895AF92BF92CF92DF92EF92E8
:1016B000FF920F931F93CF93DF936C01EB018A018D
:1016C0007901FC0182A99601275E3F4F59019701DC
:1016D000811108C0C5010E9494099701A801BE01AB
:1016E000C60107C0C6010E9494099701A801BE0166
:1016F000C501DF91CF911F910F91FF90EF90DF9087
:10170000CF90BF90AF900C949409CF93DF93EC01EE
:101710000E94F20ACE0149960E94F20A1DAADF91A8
:10172000CF9108950F931F93CF93DF93EC018B011B
:10173000CB010E945D2F8BABC80101960E945D2FEB
:101740008CABB8016E5F7F4FCE010E94CD08B8010F
:101750006C5E7F4FCE014996DF91CF911F910F9123
:101760000C94CD08EF92FF920F931F93CF93DF93CA
:1017700000D0CDB7DEB78C017B01FC0163A9FA82F2
:10178000E982CE0101960E94080BF80164A9C70105
:1017900001969A838983CE0101960E94080BB701B6
:1017A0006E5F7F4FC8010E943109B7016C5E7F4FA9
:1017B000C80149960E9431090F900F90DF91CF9197
:1017C0001F910F91FF90EF9008953F924F925F927B
:1017D0006F927F928F929F92AF92BF92CF92DF9241
:1017E000EF92FF920F931F93CF93DF93CDB7DEB7A6
:1017F00062970FB6F894DEBF0FBECDBF9A8B898B70
:101800002A013B0148015901DC01D6968D919C913A
:10181000D79797FF04C0D7961C921E92D697E98956
:10182000FA8983A9823009F41DC118F4813041F08E
:1018300070C2833009F48BC1843009F4FEC169C2DF
:10184000A989BA89D4968C91882359F0813081F086
:101850008230C1F485E0382E8AE999E9A9E9BFE32D
:101860000DC029E1322E80E090E0A0ECBFE306C07D
:1018700099E1392E83E393E3A3EBBFE389839A8352
:10188000AB83BC8320E030E0A901C301B2010E9418
:10189000A32D181644F0D301C201B0588D839E8346
:1018A000AF83B88704C04D825E826F82788620E065
:1018B00030E0A901C501B4010E94A32D181644F01F
:1018C000D501C401B05889879A87AB87BC8704C00B
:1018D00089869A86AB86BC8620E030E0A901C701E4
:1018E000B6010E94A32D18160CF4F9C1D701C60148
:1018F000B0588D879E87AF87B88B9C01AD016985F5
:101900007A858B859C850E94A32D181674F420E09F
:1019100030E0A901C501B4010E94A32DA5019401E5
:1019200018160CF4EAC1505804C02D853E854F8529
:1019300058896D817E818F8198850E94A32D18160C
:1019400054F420E030E0A901C301B2010E94A32DAC
:10195000730162012DC020E030E0A901C501B4018E
:101960000E94A32D24013501181624F077FA7094F3
:1019700077F8709420E030E0A901C701B6010E9419
:10198000A32D181624F0F7FAF094F7F8F094A701B5
:101990009601C301B2010E94A32D18167CF420E029
:1019A00030E0A901C501B4010E94A32D75016401B5
:1019B000181624F0F7FAF094F7F8F094A989BA8988
:1019C000D2968C91811127C029813A814B815C810B
:1019D000C701B6010E94A32D181644F4E989FA89BB
:1019E00086A997A9019697AB86AB06C0A989BA8943
:1019F000D7961C921E92D697832D90E0E989FA899A
:101A000026A937A9821793070CF083C121E022ABE6
:101A100097AB86AB7EC123E333E343E95FE3C701C2
:101A2000B6010E94A32D18164CF4832D90E0A989CD
:101A3000BA89D7969C938E93D69707C0E989FA897D
:101A400086A997A9019797AB86ABA989BA89D6963B
:101A50008D919C91D797181619060CF45AC1D296FD
:101A60001C9257C1A5019401C501B4010E94AE2D7D
:101A70004B015C01A7019601C701B6010E94AE2D82
:101A80009B01AC01C501B4010E946E2B0E94152E72
:101A90009B01AC01C301B2010E94E12B20E030E0C8
:101AA00044E353E40E94AE2D2BED3FE049E450E4C3
:101AB0000E94382CE989FA89D2A8E6A8F7A8D110A3
:101AC00016C020E030E042E852EC0E94342C87FF40
:101AD00003C081E090E002C08FEF9FEFE80EF91E97
:101AE000A989BA89D796FC92EE92D69713C020E0C6
:101AF00030E042E852E40E94A32D18161CF481E065
:101B000090E002C08FEF9FEFE80EF91EE989FA8995
:101B1000F7AAE6AA8CE390E0A989BA89D4960C903A
:101B2000D49702C0959587950A94E2F7D6962D91A1
:101B30003C91D797821793070CF0EBC0D7961C9275
:101B40001E92D69781E0DD2009F4C5C0C3C0A30171
:101B50009201C301B2010E94AE2D2B013C01A701ED
:101B60009601C701B6010E94AE2D9B01AC01C301D5
:101B7000B2010E946E2B0E94152E9B01AC01C50183
:101B8000B4010E94E12B20E030E044E353E40E94E2
:101B9000AE2D2BED3FE049E450E40E94382CA9899A
:101BA000BA89D296DC90D297D696ED90FC90D797D2
:101BB000D11014C020E030E042E852EC0E94342CF6
:101BC00087FF03C081E090E002C08FEF9FEFE80E37
:101BD000F91EE989FA89F7AAE6AA15C020E030E0E3
:101BE00042E852E40E94A32D18161CF481E090E014
:101BF00002C08FEF9FEFE80EF91EA989BA89D79628
:101C0000FC92EE92D6978CE390E0E989FA8904A8D9
:101C100002C0959587950A94E2F726A937A98217FD
:101C200093070CF076C017AA16AA81E0D11080E0C5
:101C3000A989BA89D2968C936CC0E989FA8992A84D
:101C4000A6A8B7A8911018C02AE939E949E55FEBC1
:101C5000C701B6010E94342C87FF03C081E090E0E9
:101C600002C08FEF9FEFA80EB91EA989BA89D79637
:101C7000BC92AE92D69715C02AE939E949E55FE3EF
:101C8000C701B6010E94A32D18161CF481E090E054
:101C900002C08FEF9FEFA80EB91EE989FA89B7AA93
:101CA000A6AA8CE390E0A989BA89D4960C90D4971F
:101CB00002C0959587950A94E2F7D6962D913C91AE
:101CC000D797821793072CF5D7961C921E92D6971A
:101CD00081E0911080E0E989FA8982AB1AC0A701FE
:101CE000960169857A858B859C850E94A32D18169F
:101CF0000CF40DCEA70196011CCE6D817E818F81E3
:101D000098850E94A32D18160CF41BCE24013501D2
:101D100031CE62960FB6F894DEBF0FBECDBFDF9115
:101D2000CF911F910F91FF90EF90DF90CF90BF90D8
:101D3000AF909F908F907F906F905F904F903F906B
:101D40000895CF93DF93C0E0D0E060E0CE010E9421
:101D5000652F2196C11584E0D807B9F7DF91CF919F
:101D60000895EF92FF920F931F93CF93DF9300D0CC
:101D7000CDB7DEB708E211E038E0E32E31E0F32E14
:101D8000F801619171918F01F701819191917F012A
:101D90000E94B20BF1E008341F0791F78FEF93E038
:101DA0009A83898365E6CE0101960E94080B0F9005
:101DB0000F90DF91CF911F910F91FF90EF900895B9
:101DC0000F931F93CF93DF93C8E2D1E008E011E0B7
:101DD00069917991F801819191918F010E94920B03
:101DE000F1E0C834DF07A1F7DF91CF911F910F9188
:101DF000089561110BC0E82FF0E0EE0FFF1FE85FC0
:101E0000FE4F0190F081E02D43AB0895613059F40D
:101E1000E82FF0E0EE0FFF1FE85FFE4F0190F0812A
:101E2000E02D44AB0895623051F4E82FF0E0EE0F5E
:101E3000FF1FE85FFE4F0190F081E02D1BC0633073
:101E400059F4E82FF0E0EE0FFF1FE85FFE4F01901E
:101E5000F081E02D41830895643170F4E82FF0E0C3
:101E6000EE0FFF1FE85FFE4F0190F081E02DE60FBF
:101E7000F11D329740830895643159F4E82FF0E062
:101E8000EE0FFF1FE85FFE4F0190F081E02D418FC4
:101E90000895653159F4E82FF0E0EE0FFF1FE85F79
:101EA000FE4F0190F081E02D428F0895663260F47C
:101EB000E82FF0E0EE0FFF1FE85FFE4F0190F0818A
:101EC000E02DE60FF11D458308958F929F92AF920A
:101ED000BF92CF92DF92EF92FF920F931F93CF9317
:101EE000DF9300D0CDB7DEB731E8A32E32E0B32EBA
:101EF00000E812E040ECC42E42E0D42EF5016191DE
:101F00005F01DA82C982CE0101960E94080BE12CA2
:101F1000F12CC8018B5F9F4F4C01F401EE0DFF1DAA
:101F20006081C701800F911F9A838983CE0101963A
:101F30000E94080B9FEFE91AF90AE0E1EE16F1049E
:101F400061F7FFEFCF1ADF0A005F1F4F003C82E00E
:101F50001807A1F60F900F90DF91CF911F910F916D
:101F6000FF90EF90DF90CF90BF90AF909F908F90B9
:101F70000895AF92BF92CF92DF92EF92FF920F93AC
:101F80001F93CF93DF9351E8C52E52E0D52E60E822
:101F9000E62E62E0F62E00EC12E0C8010E945D2FF2
:101FA000F60181936F01C0E0D0E0C7018B5F9F4FC6
:101FB0005C01CE018E0D9F1D0E945D2FF501EC0F7F
:101FC000FD1F80832196C031D10599F70F5F1F4F08
:101FD00090E1E90EF11C043CE2E01E07F1F6DF910E
:101FE000CF911F910F91FF90EF90DF90CF90BF9016
:101FF000AF900895262F64E10E946B2EE82FF0E049
:10200000911103C0EF57FD4F0AC074E0EE0FFF1FA0
:102010007A95E1F7EB57FD4FE90FF11D31972083DA
:1020200008955F926F927F928F929F92AF92BF922C
:10203000CF92DF92EF92FF920F931F93CF93DF9394
:10204000CDB7DEB769970FB6F894DEBF0FBECDBF30
:1020500011E010934506109246061F921F921F92A0
:102060001F92BCE19B2E9F921F9308E1B02EBF925E
:102070001F9384E1782E7F921F9390E1892EAA24EA
:10208000A3942CE0C22EEE24E39408E021E04CE07F
:1020900064E0CE0101960E949F0889E1FE0131961D
:1020A000A2E1B6E001900D928A95E1F71F921F928E
:1020B0001F9288E88F938AE88F938CE88F938EE83D
:1020C0008F9380E98F9382E98F9384E98F9336E928
:1020D000832E48E9A42E5AE9C52E6CE9E62E0EE9B6
:1020E00021E04DE061E1CE0101960E949F0889E167
:1020F000FE013196ABE2B6E001900D928A95E1F7D0
:1021000010930D0610930E061F921F921F921F929E
:102110001F921F921F921F921F9282EC8F9373EC5B
:10212000872EE4ECAE2EF5ECCF2EA6ECEA2E07ECD3
:1021300021E047E066E1CE0101960E949F0889E117
:10214000FE013196AAEDB5E001900D928A95E1F776
:102150001F921F921F921F921F921F921F921F92F7
:102160008FE18F939F92B9E18B2E06E1A02E83E140
:10217000C82E90E1E92E0DE02AE048E065E0CE01AE
:1021800001960E949F0889E1FE013196A3EFB5E018
:1021900001900D928A95E1F71093D50522E0F22E79
:1021A000F092D6050FB6F894DEBF0FBECDBF1F92DA
:1021B0001F921F921F921F921F921F921F921F9297
:1021C0001F92812CA12CC12C36E1E32E0EE12EE0D2
:1021D00043E068E0CE0101960E949F0889E1FE017C
:1021E0003196A2EAB5E001900D928A95E1F71F922F
:1021F0001F921F921F921F921F921F921F921F9257
:102200001F92E12C00E020E041E061E0CE01019668
:102210000E949F0889E1FE013196ABEBB5E0019089
:102220000D928A95E1F7F0929D0510929E051F92FE
:102230001F921F921F924AEDD42EDF92DF92DF92FF
:102240008BED8F938CE98F938DE98F935EE9852ECB
:102250006FE9A62E78E8C72EE9E1EE2E06E12EE121
:102260004CE069E1CE0101960E949F0889E1FE01E0
:102270003196AAE6B5E001900D928A95E1F71F929A
:102280001F921F921F92DF92DF92DF9289ED8F9350
:1022900088E98F9387E98F93F6E98F2EA5E9AA2E17
:1022A000B4E9CB2E0BE5E02E0EE526E14CE069E12A
:1022B000CE0101960E949F0889E1FE013196A3E8B4
:1022C000B5E001900D928A95E1F7F09265051093C3
:1022D00066050FB6F894DEBF0FBECDBF1F921F92EA
:1022E0001F921F921F921F921F928DE5582E5F9290
:1022F0009AE5692E6F9227E5D22EDF9234E5832E80
:1023000041E5A42E5EE4C52E6BE4E62E08E422EC43
:1023100049E06FE0CE0101960E949F0889E1FE012D
:102320003196A2E3B5E001900D928A95E1F71F92F4
:102330001F921F921F921F921F921F925F926F9285
:10234000DF9226EC49E06FE0CE0101960E949F08E3
:1023500089E1FE013196ABE4B5E001900D928A95DA
:10236000E1F7F0922D05F0922E051F921F921F9219
:102370001F921F921F921F921F927AE1672E6F92F7
:1023800088E08F93EEE08E2EF8E0AF2EADE1CA2EFE
:10239000B8E0EB2E0BE028E048E06DE2CE010196BC
:1023A0000E949F0889E1FE013196AAEFB4E00190F6
:1023B0000D928A95E1F71F921F921F921F921F9212
:1023C0001F921F921F9282E18F93BF920EE1802E87
:1023D00088E1A82E95E1C92E28E1E22E0BE128E143
:1023E00048E06DE2CE0101960E949F0889E1FE015E
:1023F0003196A3E1B5E001900D928A95E1F733E0C3
:10240000D32ED092F5041092F6040FB6F894DEBFE6
:102410000FBECDBF1F921F921F921F921F921F923D
:102420001F921F921F921F92812C4EE0A42E5BE000
:10243000C52E68E0E62E0DE12AE145E060E2CE011E
:1024400001960E949F0889E1FE013196A2ECB4E05A
:1024500001900D928A95E1F71F921F921F921F9291
:102460001F921F921F921F921F921F927EE1A72E12
:10247000EBE1CE2EF8E1EF2E05E122E145E060E24E
:10248000CE0101960E949F0889E1FE013196ABEDD5
:10249000B4E001900D928A95E1F7D092BD041093BB
:1024A000BE041F921F921F921F921F921F926F9243
:1024B000BF921F921F92A2E18A2EB0E1AB2EC12CD7
:1024C000E12C0AE028E04CE067E2CE0101960E9490
:1024D0009F0889E1FE013196AAE8B4E001900D92CF
:1024E0008A95E1F71F921F921F921F921F929F924F
:1024F0001F92BF921F927F92812C0CE0E02E00E091
:1025000028E04CE067E2CE0101960E949F0889E135
:10251000FE013196A3EAB4E001900D928A95E1F7AD
:10252000D0928504F09286040FB6F894DEBF0FBEF9
:10253000CDBF1F921F921F921F921F921F921F9238
:102540001F921F921F928AE0A82E99E0C92E28E0C0
:10255000E22E0FE12EE145E06AE2CE0101960E94F3
:102560009F0889E1FE013196A2E5B4E001900D9249
:102570008A95E1F71F921F921F921F921F921F923E
:102580001F921F921F921F923AE1A32E49E1C42E7F
:1025900058E1E52E07E126E145E06AE2CE01019629
:1025A0000E949F0889E1FE013196ABE6B4E00190FC
:1025B0000D928A95E1F764E0D62ED0924D041092E8
:1025C0004E041F921F921F921F921F921F921F92E2
:1025D0001F921F921F927AE5A72EC12CE8E5EE2EDE
:1025E00000E026E546E06CE0CE0101960E949F08DF
:1025F00089E1FE013196AAE1B4E001900D928A953D
:10260000E1F71F921F921F921F921F921F921F921B
:102610001F921F921F92FAE4AF2EA8E4EA2E2EE535
:1026200046E06CE0CE0101960E949F0889E1FE0120
:102630003196A3E3B4E001900D928A95E1F7D09230
:102640001504109316040FB6F894DEBF0FBECDBF6D
:102650001F921F921F921F921F921F921F921F92F2
:102660001F921F92A12CBDE4CB2E1CE4E12E0AE4A4
:1026700028E444E06DE1CE0101960E949F0889E1C3
:10268000FE013196A2EEB3E001900D928A95E1F73A
:102690001F921F921F921F921F921F921F921F92B2
:1026A0001F921F920DE5C02E8CE5E82E0AE528E565
:1026B00044E06DE1CE0101960E949F0889E1FE0190
:1026C0003196ABEFB3E001900D928A95E1F7D0928D
:1026D000DD03F092DE031F921F921F921F921F9242
:1026E0001F921F921F921F921F9298E1C92E28E0FD
:1026F000E22E08E120E144E062E2CE0101960E9470
:102700009F0889E1FE013196AAEAB3E001900D929B
:102710008A95E1F71F921F921F921F921F921F929C
:102720001F921F921F921F9238E0C32E48E1E42EA1
:1027300008E020E144E062E2CE0101960E949F0899
:1027400089E1FE013196A3ECB3E001900D928A95E8
:10275000E1F71092A5031092A6030FB6F894DEBF1E
:102760000FBECDBF1F921F921F921F921F921F92EA
:102770001F921F921F921F92C12CE12C08ED28E09E
:1027800042E065E0CE0101960E949F0889E1FE01CA
:102790003196A2E7B3E001900D928A95E1F71F927E
:1027A0001F921F921F921F921F921F921F921F92A1
:1027B0001F9200E020E041E061E0CE0101960E941E
:1027C0009F0889E1FE013196ABE8B3E001900D92DC
:1027D0008A95E1F710926D0310926E031F921F927B
:1027E0001F921F921F921F921F921F921F921F9261
:1027F00008EC28E142E065E0CE0101960E949F08C6
:1028000089E1FE013196AAE3B3E001900D928A9529
:10281000E1F71F921F921F921F921F921F921F9209
:102820001F921F921F9200E020E041E061E0CE0184
:1028300001960E949F0889E1FE013196A3E5B3E06D
:1028400001900D928A95E1F71092350310923603AC
:102850000FB6F894DEBF0FBECDBF1F921F921F921E
:102860001F921F921F921F921F921F921F920EEC97
:102870002AE142E065E0CE0101960E949F0889E1CD
:10288000FE013196A2E0B3E001900D928A95E1F746
:102890001F921F921F921F921F921F921F921F92B0
:1028A0001F921F9200E020E041E061E0CE0101961E
:1028B0000E949F0889E1FE013196ABE1B3E00190EF
:1028C0000D928A95E1F71092FD021092FE021F927E
:1028D0001F921F921F921F921F921F921F921F9270
:1028E0001F920AED2EE042E065E0CE0101960E94C3
:1028F0009F0889E1FE013196AAECB2E001900D92A9
:102900008A95E1F71F921F921F921F921F921F92AA
:102910001F921F921F921F9200E020E041E061E0B1
:10292000CE0101960E949F0889E1FE013196A3EE37
:10293000B2E001900D928A95E1F70FB6F894DEBFF0
:102940000FBECDBF69960FB6F894DEBF0FBECDBFE8
:10295000DF91CF911F910F91FF90EF90DF90CF907B
:10296000BF90AF909F908F907F906F905F900895F1
:102970001F93CF93DF934CEF51E0A1E8B2E080E0EA
:1029800090E0FA0124912D9320E030E0EC01C0505A
:10299000DE4FBC016B577D4FFE01E20FF31F149118
:1029A000FB01E20FF31F10832F5F3F4F20313105F2
:1029B00099F74F5F5F4F40968034910511F7DF9193
:1029C000CF911F910895CF93DF9300D0CDB7DEB79D
:1029D0000E94A10E0E9411100E94B8140E947A0158
:1029E0000E94AB030E94B10E0E94650F80ED92E041
:1029F0000E94450284E393E00E94AD038FEF93E0D1
:102A00009A83898365E6CE0101960E94080B0F9098
:102A10000F90DF91CF910895FF920F931F93CF9363
:102A2000DF93F82ED62FC42F0E943F2700917B0200
:102A300010917C0220917D0230917E02601B710B0F
:102A4000820B930B61157D478105910568F30E9408
:102A50003F2760937B0270937C0280937D0290936A
:102A60007E024F2D50E0BA017595679555954795B3
:102A700055954795640F751F89E00E94E2278D2FB9
:102A800090E0BC0175956795959587959595879587
:102A9000680F791F86E00E94E2274C2F50E0BA01B0
:102AA000759567955595479555954795640F751F8D
:102AB00085E0DF91CF911F910F91FF900C94E22759
:102AC000EF92FF920F931F93CF93DF93182F062F50
:102AD000F42EE22EC0E0CE1589F0D0E0D23320F4FF
:102AE0004F2D602F812F03C040E060E080E00E9406
:102AF0000C15DF5FD43691F7CF5FEDCF84E6C89F2A
:102B0000A0011124662757FD6095762F80916402FD
:102B100090916502A0916602B0916702840F951FA3
:102B2000A61FB71F8093640290936502A09366026C
:102B3000B0936702DF91CF911F910F91FF90EF90BB
:102B40000895CF93C82F25E040E060E880E00E9420
:102B50006015C03188F48C2F90E0880F991FFC011C
:102B6000E85DFE4F60817181FC01E85FFE4F80816E
:102B70009181CF910C94920BC03119F4CF910C94A8
:102B8000B90FC13129F480ED92E0CF910C9472021B
:102B9000C23151F0C33669F40E94E00E0E94B90FB1
:102BA00080ED92E00E94720284E393E0CF910C9456
:102BB000AC03CF910895CF93C82F25E040E060E0AB
:102BC00080E80E946015C03188F48C2F90E0880F57
:102BD000991FFC01E85DFE4F60817181FC01E85F97
:102BE000FE4F80819181CF910C94B20BC03119F4CA
:102BF000CF910C94650FC13129F480ED92E0CF9113
:102C00000C944502C23151F0C33669F40E94B10EF2
:102C10000E94650F80ED92E00E94450284E393E0FC
:102C2000CF910C94AD03CF910895803494F4803209
:102C30000CF08054682F772767FD7095872F972FAA
:102C40000E94CE2C20E030E040EA51E40E94382C73
:102C5000089560E070E0CB01089582E196E00E9463
:102C6000280B8AED95E00E94280B82EA95E00E94ED
:102C7000280B8AE695E00E94280B82E395E00E94EB
:102C8000280B8AEF94E00E94280B82EC94E00E94CB
:102C9000280B8AE894E00E94280B82E594E00E94C9
:102CA000280B8AE194E00E94280B82EE93E00E94B8
:102CB000280B8AEA93E00E94280B82E793E00E94A7
:102CC000280B8AE393E00E94280B82E093E00E94A5
:102CD000280B8AEC92E00E94280B0E943F27609309
:102CE0007B0270937C0280937D0290937E02089514
:102CF000CF93DF93D82FC62F682F87E197E00E94EC
:102D000080296C2F87E197E00E948029C1110BC0B8
:102D1000ED2FF0E0EE0FFF1FE85FFE4F0190F08116
:102D2000E02D63A95EC0C13059F4ED2FF0E0EE0F45
:102D3000FF1FE85FFE4F0190F081E02D64A951C0B4
:102D4000C23051F4ED2FF0E0EE0FFF1FE85FFE4FB1
:102D50000190F081E02D1BC0C33059F4ED2FF0E05D
:102D6000EE0FFF1FE85FFE4F0190F081E02D6181C3
:102D700038C0C43170F4ED2FF0E0EE0FFF1FE85FB4
:102D8000FE4F0190F081E02DEC0FF11D3297608134
:102D900028C0C43159F4ED2FF0E0EE0FFF1FE85FBB
:102DA000FE4F0190F081E02D618D1BC0C53159F4BB
:102DB000ED2FF0E0EE0FFF1FE85FFE4F0190F08176
:102DC000E02D628D0EC0C63290F4ED2FF0E0EE0FD4
:102DD000FF1FE85FFE4F0190F081E02DEC0FF11D29
:102DE000658187E197E0DF91CF910C948029DF9195
:102DF000CF910895CF93DF93D82FC0E06C2F8D2F04
:102E00000E947816CF5FC632C9F7DF91CF9108953F
:102E1000AF92BF92CF92DF92EF92FF920F931F93E8
:102E2000CF93DF9311E8C12E12E0D12E05E8E02EFA
:102E300002E0F02EC0E0D0E060E170E087E197E0D2
:102E40000E94010BBE0187E197E00E94010BF60191
:102E500061916F0187E197E00E94802900E010E016
:102E60005E01FFEFAF1ABF0A60E170E087E197E013
:102E70000E94010BB501600F711F87E197E00E946E
:102E8000010BF701E00FF11F608187E197E00E94DD
:102E900080290F5F1F4F0031110531F7649680E1E3
:102EA000E80EF11CC035D10539F6DF91CF911F91A5
:102EB0000F91FF90EF90DF90CF90BF90AF9008956B
:102EC0001F93CF93DF93D82F64E10E946B2E182FAE
:102ED000C92F60E170E087E197E00E94010B6D2F40
:102EE00087E197E00E948029E12FF0E0C11103C043
:102EF000EF57FD4F0AC084E0EE0FFF1F8A95E1F700
:102F0000EB57FD4FEC0FF11D3197608187E197E0A2
:102F1000DF91CF911F910C948029DF92EF92FF9265
:102F20000F931F93CF93DF932AE6E22E21E0F22E38
:102F300000E010E0E80193E0D92E61E170E087E164
:102F400097E00E94010BBE0187E197E00E94010B10
:102F5000F701EC0FFD1F608187E197E00E94802957
:102F6000DA942196D110E9CF0C5F1F4F81E0E81A67
:102F7000F10800381105F1F6DF91CF911F910F9103
:102F8000FF90EF90DF900895CF93C82F61E170E03C
:102F900087E197E00E94010B6C2F87E197E00E9488
:102FA00080292C2F2370C695C6958C2F90E0FC01AC
:102FB000EE0FFF1FE80FF91FE20FF11DE659FE4F5C
:102FC000608187E197E0CF910C948029EF92FF9286
:102FD0000F931F93CF93DF9300E010E0C0E0D0E0A9
:102FE000C80186539E4F7C0162E170E087E197E063
:102FF0000E94010BBE01600F711F87E197E00E94E4
:10300000010BF701EC0FFD1F608187E197E00E9443
:1030100080292196C830D10539F7085F1F4F003845
:103020001105E1F6DF91CF911F910F91FF90EF9085
:103030000895CF93C82F62E170E087E197E00E9486
:10304000010B6C2F87E197E00E9480298C2F8770FD
:10305000C695C695C69598E0C99FF0011124E80F62
:10306000F11DE653FE4F608187E197E0CF910C940C
:103070008029982F862F903118F4892F0C94781678
:10308000903111F40C946017913111F40C94C41721
:10309000923111F40C9419180895CF93DF93D82F1F
:1030A000C62F803118F40E94F90E2AC0803129F40D
:1030B000642F8C2F0E94FA0F23C0813181F4262FB8
:1030C0002695269530E0F901EE0FFF1FE20FF31F62
:1030D000862F8370E80FF11DE659FE4F10C0823134
:1030E00079F4E62FE695E695E69588E0E89FF0010D
:1030F0001124862F8770E80FF11DE653FE4F4083A1
:103100006C2F8D2FDF91CF910C943918CF93C82F4E
:1031100068EC70E087E197E00E94010B6C2F87E17B
:1031200097E00E9480296091C50287E197E00E94A4
:103130008029C03119F40E94081745C0C13119F423
:103140000E948D1740C0C231B1F1C336B9F50E945B
:103150008D1780E00E94FA1681E00E94FA1682E044
:103160000E94FA1683E00E94FA1684E00E94FA1682
:1031700085E00E94FA1686E00E94FA1687E00E9417
:10318000FA1688E00E94FA1689E00E94FA168AE090
:103190000E94FA168BE00E94FA168CE00E94FA1642
:1031A0008DE00E94FA168EE00E94FA168FE00E94CF
:1031B000FA160E9408170E94E61705C0C03118F4DD
:1031C0008C2F0E94FA1669EC70E087E197E00E946C
:1031D000010B6C2F87E197E00E9480296091C50266
:1031E00087E197E0CF910C948029E091C502F0E04F
:1031F000EE0FFF1FE85FFE4F808191819093C9021F
:103200008093C80210925D0210925E0210925F02DB
:10321000109260020E94850BE091C802F091C902F1
:1032200012AA10926B0210926C0210926D02109210
:103230006E0210926F021092700210927102109240
:103240007202109273021092740210927502109220
:10325000760280916A02843690F06AEF70E087E12E
:1032600097E00E94010B6091C50287E197E00E9400
:10327000802960916A0287E197E00C948029089583
:103280008230C9F028F4882341F0813059F0089544
:103290008A30A9F0843131F108958091C50290E01F
:1032A0000F9604C08091C50290E001968F70992717
:1032B0008093C50202C06093C5020C94F51861307A
:1032C00049F030F0623051F0633051F487E603C0CA
:1032D00084E601C086E68093690204C085E6FBCFE0
:1032E000109269026093C7024093C602089510923B
:1032F0007F02E091800280E1E89FF0011124EB570A
:10330000FD4F80818093C5020C94F518E0918002F6
:10331000F0E080917F0290E00196DF01AF57BD4F52
:103320006C9170E00E948B2E80937F0274E0EE0F10
:10333000FF1F7A95E1F7E80FF91FEB57FD4F8081EA
:103340008093C5020C94F518EF92FF921F93CF93D0
:10335000DF931F92CDB7DEB787E197E00E94022985
:1033600004970CF462C087E197E00E941B297C015E
:1033700087E197E00E941B29182F87E197E00E94C0
:103380001B29682F87E197E069830E941B29482F3A
:103390009701332769812235310561F184F42434A2
:1033A0003105F9F02C34310509F03FC0812F0F9021
:1033B000DF91CF911F91FF90EF900C94A1152735CD
:1033C000310509F12835310539F12335310569F524
:1033D000812F0F90DF91CF911F91FF90EF900C9470
:1033E000DB15812F0F90DF91CF911F91FF90EF9010
:1033F0000C948618812F0F90DF91CF911F91FF9031
:10340000EF900C943918812F0F90DF91CF911F917D
:10341000FF90EF900C944D18812F0F90DF91CF917A
:103420001F91FF90EF900C9440190F90DF91CF9176
:103430001F91FF90EF900895CF93DF93D82FC62F61
:103440006CE470E08AE496E00E9444246D2F8AE4E4
:1034500096E00E94E1236C2F8AE496E00E94E1232B
:103460008AE496E0DF91CF910C9459248AE496E0A7
:103470000E94202460E087E00E941C1A60E186E040
:103480000E941C1A60E088E00E941C1A61E087E03C
:103490000C941C1A8091640084608093640026E080
:1034A00040E051EE60E070E087E197E00E94E5299E
:1034B00080E00E94C527BC01882777FD8095982F62
:1034C0000E94242B61E089E00E946A2861E086E086
:1034D0000E946A2861E085E00E946A2860E082E03C
:1034E0000E946A2861E081E10E946A2861E081E12E
:1034F0000E94A3288FEF93E00E945D2F853619F07C
:103500000E94E3140CC00E94E00E0E94B90F80EDEF
:1035100092E00E94720284E393E00E94AC030E9456
:1035200077190E94361AF89410927A0085B5887F30
:10353000816085BD80918100887F8160809381005A
:1035400080918100886080938100789460EA7FE0B8
:1035500080E090E00E9462270E943F2760937B02F8
:1035600070937C0280937D0290937E0264E670E00B
:1035700087E197E00E94010B6091C50287E197E027
:103580000E94802960E070E087E197E00C94010BD5
:103590008AE496E00E94202460E187E00C941C1AE3
:1035A00040E060E080E00E940C150E94C81A60E0D4
:1035B00081E10E94A32860EA7FE080E090E00E9421
:1035C000622783B7817F846083BF83B7816083BFB5
:1035D000F89442E050E06BEF7AE080E00E946B26C6
:1035E00081E08CBB80E685BF80E485BF78948895B8
:1035F00061E081E10E94A3280E94361A0E94771997
:10360000109262021092630260EA7FE080E090E034
:103610000C946227CF93DF93C82F40916A0250E049
:103620004836510508F086C6FA01E158FF4F0C9460
:10363000E02E882309F480C680916402909165028F
:10364000A0916602B091670284369105A105B1058B
:1036500008F472C681E0809369026EC640916402EC
:10366000509165026091660270916702483E534036
:103670006105710520F082E0809369025DC68111C9
:103680005BC680916302882339F08091620291E0E9
:1036900089278093620202C00E94861910926902F3
:1036A0004BC6409164025091650260916602709130
:1036B0006702452B462B472B31F425E040E860E8B4
:1036C00080E80E946015409164025091650260910B
:1036D000660270916702403D57406105710520F018
:1036E00084E08093690228C6C11126C60E94D01AC0
:1036F00085E08093690220C6409164025091650282
:103700006091660270916702452B462B472B31F47E
:1037100025E040E060E880E80E9460154091640286
:10372000509165026091660270916702403D57407A
:103730006105710520F083E080936902FDC5C11128
:10374000FBC5E091C802F091C90215AA1092680267
:103750008AE080936902F0C540916402509165024D
:103760006091660270916702452B462B472B31F41E
:1037700025E040E860E080E00E946015409164022E
:10378000509165026091660270916702403D57401A
:103790006105710520F082E080936902CDC5C111F9
:1037A000CBC58091630291E08927809363021092D8
:1037B000620210926902C0C580915302882309F108
:1037C000C1110BC00E94D01A1092640210926502BF
:1037D0001092660210926702AFC5809164029091C8
:1037E0006502A0916602B091670280379741A105FA
:1037F000B10508F4A1C51092530289E080936902D3
:103800009BC5C11103C01092690296C580916402E4
:1038100090916502A0916602B0916702803D974049
:10382000A105B10508F488C586E08093690284C5C6
:103830004091640250916502609166027091670246
:10384000452B462B472B31F425E040E860E080E033
:103850000E946015C11106C01092610286E4809337
:1038600069026AC58091640290916502A091660226
:10387000B0916702813A9F40A105B10508F45CC58B
:1038800087E08093690258C54091640250916502B7
:103890006091660270916702452B462B472B31F4ED
:1038A00025E040E060E880E00E946015C11109C099
:1038B00081E0809353020E94D01A85E080936902D0
:1038C0003BC58091640290916502A0916602B0911F
:1038D0006702803A9F40A105B10508F42DC588E034
:1038E0008093690229C540916402509165026091FC
:1038F000660270916702452B462B472B31F425E079
:1039000040E060E080E80E946015C11115C50E948A
:10391000E3140E947719109269020EC54091640267
:10392000509165026091660270916702452B462BAB
:10393000472B31F425E040E460E480E40E94601508
:10394000C111FAC410926902F7C4882309F4F4C4BF
:103950008091640290916502A0916602B091670225
:1039600085369105A105B10508F4E6C48BE0809386
:103970006902E2C481110EC08091680290E0019654
:1039800066E070E00E948B2E809368028AE080934C
:103990006902D2C48091640290916502A09166028E
:1039A000B0916702883E9340A105B10508F4C4C4F4
:1039B0008CE080936902C0C440916402509165021A
:1039C0006091660270916702452B462B472B31F4BC
:1039D00025E040E060E880E80E946015C1111DC04C
:1039E00080916802E091C802F091C902823020F40F
:1039F00015AA82AB84E10BC0843020F4817082ABC5
:103A000088E205C0843011F482E301C08CE3809326
:103A10006902CF010E94850B8FC48091640290914E
:103A20006502A0916602B0916702803D9740A105B2
:103A3000B10508F481C48DE0809369027DC4409192
:103A40006402509165026091660270916702452B95
:103A5000462B472B31F425E040E860E880E80E94DF
:103A60006015C11169C48091C8029091C9020E9479
:103A7000850B1092690260C4882309F45DC48091AB
:103A8000640290916502A0916602B091670285364A
:103A90009105A105B10508F44FC485E18093690241
:103AA0004BC440916402509165026091660270912E
:103AB0006702483E53406105710550F025E040E43F
:103AC00060E480E40E94601587E18093690234C459
:103AD000C11132C4E091C802F091C90292A985A92E
:103AE00029E1929FE00DF11D1124E80FF11D828163
:103AF00090E081968F719927828384E18093690297
:103B00001BC44091640250916502609166027091FD
:103B10006702452B462B472B31F425E040E460E457
:103B200080E40E94601540916402509165026091AA
:103B3000660270916702403D574061057105C8F00B
:103B4000E091C802F091C90292A985A929E1929F4A
:103B5000E00DF11D1124E80FF11D8281805C82834C
:103B6000109264021092650210926602109267022F
:103B7000E3C3C111E1C3E091C802F091C90282A977
:103B8000DF0199E1899FA00DB11D112485A98F5FE7
:103B900011968C938EE180936902CEC3882309F439
:103BA000CBC38091640290916502A0916602B091AE
:103BB000670285369105A105B10508F4BDC38FE103
:103BC00080936902B9C3409164025091650260918B
:103BD000660270916702403D57406105710520F013
:103BE00080E280936902A8C38111A6C3E091C80254
:103BF000F091C90285A98F5F85AB803151F425E032
:103C000040E860E880E80E9460158AE580936902D8
:103C100093C384E1809369028FC340916402509101
:103C200065026091660270916702452B462B472B17
:103C300031F425E040E060E080E80E9460154091AA
:103C40006402509165026091660270916702403D86
:103C500057406105710520F081E2809369026CC3D1
:103C6000C1116AC3E091C802F091C90285A981110E
:103C700004C084E1809369025FC3815085AB82A94F
:103C800099E1899FE00DF11D11248181815081838B
:103C90008EE18093690250C34091640250916502A5
:103CA0006091660270916702452B462B472B31F4D9
:103CB00025E040E860E880E80E946015C1113CC33F
:103CC000E091C802F091C90282A9DF0129E1829F37
:103CD000A00DB11D112485A98F5F11968C938AE5E3
:103CE0008093690229C3882309F426C38091640262
:103CF00090916502A0916602B091670285369105A8
:103D0000A105B10508F418C389E28093690214C3C0
:103D10004091640250916502609166027091670261
:103D2000403D57406105710520F08AE280936902A9
:103D300003C3C11101C3E091C802F091C90282A975
:103D4000EF0199E1899FC00DD11D1124888190E078
:103D5000019660E370E00E948B2E8883CF010E9461
:103D6000850B88E280936902E7C24091640250911A
:103D700065026091660270916702452B462B472BC6
:103D800031F425E040E860E880E80E946015C11148
:103D9000D3C28AE580936902CFC2882309F4CCC2DA
:103DA0008091640290916502A0916602B0916702D1
:103DB00085369105A105B10508F4BEC283E3809361
:103DC0006902BAC2811110C0E091C802F091C90223
:103DD00083A990E0019665E070E00E948B2E83AB92
:103DE00082E380936902A8C2809164029091650287
:103DF000A0916602B0916702803D9740A105B10590
:103E000008F49AC284E38093690296C240916402E6
:103E1000509165026091660270916702452B462BB6
:103E2000472B31F425E040E860E880E80E94601507
:103E3000C11182C28AE5809369027EC2882309F497
:103E40007BC28091640290916502A0916602B0915C
:103E5000670285369105A105B10508F46DC28DE3B1
:103E60008093690269C2811110C0E091C802F0918B
:103E7000C90284A990E0019663E070E00E948B2E55
:103E800084AB8CE38093690257C280916402909165
:103E90006502A0916602B0916702803D9740A1053E
:103EA000B10508F449C28EE38093690245C240918E
:103EB0006402509165026091660270916702452B21
:103EC000462B472B31F425E040E860E880E80E946B
:103ED0006015C11131C28AE5809369022DC2882321
:103EE00009F42AC28091640290916502A091660251
:103EF000B091670284369105A105B10508F41CC292
:103F000087E48093690218C240916402509165026F
:103F10006091660270916702483E534061057105E9
:103F200020F088E48093690207C2C11105C2809124
:103F3000800290E0019683709927809380020E940E
:103F4000771986E480936902F7C140916402509129
:103F500065026091660270916702452B462B472BE4
:103F600031F425E040E860E080E00E946015409177
:103F70006402509165026091660270916702403D53
:103F800057406105710520F089E480936902D4C12E
:103F9000C111D2C110926902CFC140916402509107
:103FA00065026091660270916702452B462B472B94
:103FB00031F425E040E060E880E80E94601540911F
:103FC0006402509165026091660270916702403D03
:103FD00057406105710520F08AE480936902ACC105
:103FE000C111AAC10E94771980E580936902A4C11A
:103FF000409164025091650260916602709167027F
:10400000452B462B472B31F425E040E060E880E06B
:104010000E946015C11190C1109254021092550275
:10402000109256021092570210925C02109258029F
:104030001092590210925A0210925B0210920401DF
:104040001092050110920601109207018BE48093F3
:10405000690272C1409164025091650260916602EA
:1040600070916702882309F446C045365105610501
:10407000710508F440C020915C02222369F180910F
:10408000580290915902A0915A02B0915B0240915E
:104090000401509105016091060170910701840FA0
:1040A000951FA61FB71F8093040190930501A0934D
:1040B0000601B0930701243078F0D2E0880F991FF1
:1040C000AA1FBB1FDA95D1F78093040190930501D5
:1040D000A0930601B09307012F5F20935C0210921A
:1040E00058021092590210925A0210925B028CE40C
:1040F0008093690221C141325E446105710508F473
:104100001BC180E09AEFA0E0B0E08093040190939F
:104110000501A0930601B0930701109269020CC13A
:1041200081110AC180915C02853070F010925D02AD
:1041300010925E0210925F021092600281E0809302
:10414000610210926902F8C08BE480936902F4C0A6
:10415000882309F4F1C08091640290916502A091D6
:104160006602B091670285369105A105B10508F494
:10417000E3C081E580936902DFC040916402509101
:1041800065026091660270916702403D574061058B
:10419000710520F082E580936902CEC08111CCC008
:1041A000E091800280917F0220E1E29FF0011124E2
:1041B000E80FF11DEB57FD4F808190E001968F7065
:1041C00099278083FC01EE0FFF1FE85FFE4F80817F
:1041D00091819093C9028093C8020E94850B80E56B
:1041E00080936902A9C04091640250916502609178
:1041F000660270916702452B462B472B31F425E070
:1042000040E860E080E80E946015409164025091AF
:1042100065026091660270916702403D57406105FA
:10422000710520F083E58093690286C0C11184C0C6
:1042300080917F028F5F80937F02E09180028031C6
:1042400041F4F0E0EF57FD4F80838BE580936902E6
:1042500073C090E1E99FF0011124E80FF11DEB57C5
:10426000FD4FE081F0E0EE0FFF1FE85FFE4F808121
:1042700091819093C9028093C8020E94850B80E5CA
:104280008093690259C04091640250916502609127
:10429000660270916702452B462B472B31F425E0CF
:1042A00040E860E880E80E946015C11145C0E091D7
:1042B0008002F0E0EF57FD4F80917F028F5F808397
:1042C0008BE58093690238C080917F02E091800283
:1042D00020E1E29FF0011124E80FF11DEB57FD4FA3
:1042E000E081F0E0EE0FFF1FE85DFE4F608171811D
:1042F0008091C8029091C9020E94B20B8091C802BD
:104300009091C9020E94850B1092690215C00E940B
:10431000650F0E947719109269020EC01092610217
:104320000BC01092610208C01092610205C0109289
:10433000610202C0109269028091690290916A0242
:10434000981759F080936A021092640210926502E5
:10435000109266021092670213C0809164029091DD
:104360006502A0916602B09167020196A11DB11D80
:104370008093640290936502A0936602B0936702F3
:104380008091580290915902A0915A02B0915B021B
:104390000196A11DB11D8093580290935902A093DC
:1043A0005A02B0935B02DF91CF9108956CE470E004
:1043B0008AE496E00E944424E0914A06F0914B067C
:1043C0000190F081E02D60E08AE496E009958AE4AE
:1043D00096E00E94592443E050E06CE470E08AE4E7
:1043E00096E00E9437248AE496E00E948923892B74
:1043F00091F08AE496E00E949123809379028AE406
:1044000096E00E949123809378028AE496E00E94CD
:104410009123809377020895CF92DF92EF92FF92DB
:104420000F931F93CF93DF9300D01F92CDB7DEB7CA
:104430000E94A41982E00E94D92821E0892B09F06A
:1044400020E0822F0E940A1B80917A02843110F0B2
:1044500010927A0280916A029FEF980F933618F4B7
:10446000863409F054C080917A02811103C00E9401
:10447000D6214DC0813069F4809179020E941516D1
:104480006093730270937402809375029093760226
:104490003EC0823069F4809178020E9415166093C4
:1044A0006F027093700280937102909372022FC01A
:1044B000833069F4809177020E94151660936B0235
:1044C00070936C0280936D0290936E0220C08430D2
:1044D000F1F4C0906B02D0906C02E0906D02F0900D
:1044E0006E0200916F021091700220917102309162
:1044F0007202409173025091740260917502709142
:1045000076028091C8029091C9020E94E50B8091C9
:104510007A028F5F80937A0280916A02811110C0C3
:104520009E012F5F3F4FAE014E5F5F4FBE016D5F3B
:104530007F4F8091C8029091C9020E94530B9BC08B
:104540008A3010F41B8269C08431A8F4809168021B
:10455000823009F45CC038F4882309F45CC08130EF
:1045600009F451C039C0833019F08430C1F134C02E
:104570001B828FEF3AC08E31D0F4E091C802F091E7
:10458000C90285A992A929E1929FE00DF11D11248C
:10459000E80FF11D9E012F5F3F4FAE014E5F5F4F51
:1045A000BE016D5F7F4F82810E949F0264C0823393
:1045B00008F4B6CF8C33D8F4E091C802F091C90268
:1045C00083A9823001F118F4813029F10CC08330C5
:1045D00019F0843021F007C08FEF8B8302C01B825B
:1045E0008FEF8A831BC080E48B838A8343C0863429
:1045F000B8F4E091C802F091C90284A9882319F0A7
:10460000813029F008C01B821A828FEF33C08FEFF0
:104610008B831A822FC08FEF8B831A8219822BC053
:10462000863608F47DCF863631F58091C70290E05A
:104630002091C602FC01EE0FFF1FE80FF91FE6599B
:10464000FE4F808190E0022E02C0959587950A94D6
:10465000E2F78B83818190E0022E02C095958795C9
:104660000A94E2F78A83828190E002C0959587954B
:104670002A95E2F7898380916302882339F080913B
:104680006202882319F01B821A82198280916A02C1
:1046900081111BC0809161028823B9F040915D02B5
:1046A00050915E0260915F027091600280910401FE
:1046B00090910501A0910601B0910701841795071B
:1046C000A607B70710F40E94861949816A818B8179
:1046D0000E940C1580915D0290915E02A0915F0294
:1046E000B09160020196A11DB11D80935D0290936F
:1046F0005E02A0935F02B09360020F900F900F9044
:10470000DF91CF911F910F91FF90EF90DF90CF90AD
:10471000089580917A0690E020917B06821B910992
:10472000089520917B0680917A06281750F4E22F95
:10473000F0E0E458F94F808190E02F5F20937B06F2
:1047400008958FEF9FEF0895E0917B0680917A06A0
:10475000E81730F4F0E0E458F94F808190E00895D4
:104760008FEF9FEF08950895CF92DF92EF92FF921F
:104770000F931F93CF93DF937C01CB018A0120918C
:104780005606222389F0EB016B01C40ED51ECC1511
:10479000DD0569F06991D701ED91FC910190F081FF
:1047A000E02DC7010995F3CF642F0E941525C8019C
:1047B000DF91CF911F910F91FF90EF90DF90CF90FD
:1047C0000895CF93DF931F92CDB7DEB76983209111
:1047D00056062223D1F020915706203240F021E0E6
:1047E00030E0FC013383228380E090E015C08091AB
:1047F0005806E82FF0E0E75AF94F998190838F5FD0
:10480000809358068093570605C061E0CE0101965B
:104810000E94152581E090E00F90DF91CF910895DF
:10482000FC011382128248EE53E060E070E04483A2
:104830005583668377838DE491E091838083089527
:1048400010927B0610927A06109258061092570624
:104850000C946024862F413208F040E26CE776E049
:104860000E947E2410927B0680937A06089521E0B0
:104870000C942A2481E08093560660937906109266
:1048800058061092570608950C943A240F93062F59
:1048900021E04091570669E576E0809179060E9413
:1048A000C2241092580610925706109256060F9185
:1048B000089561E00C9446248AE496E00C94102458
:1048C0001092090781E0809307071092060761E0C4
:1048D00082E10E94A32861E083E10E94A328E9EB22
:1048E000F0E080818E7F808380818D7F808388E46B
:1048F0008093B80085E48093BC000895413208F0AD
:104900003FC0909109079111FCCF91E09093090766
:10491000209307072FEF20939C061092E106240FA7
:104920002093E0069093080790910807880F892B41
:104930008093080780910607813041F410920607A2
:10494000809108078093BB0085EC01C085EE8093C1
:10495000BC00809109078130E1F38091E106841762
:1049600010F44091E10622EE36E0FB01D9018A2FD6
:10497000821B841718F48D918193F9CF842F0895A9
:1049800080E008950F93413208F046C090910907E6
:104990009111FCCF92E090930907009307079FEFD6
:1049A00090939C061092E1064093E006FB0162EEB4
:1049B00076E0DB019A2F961B941718F491919D9342
:1049C000F9CF1092080790910807880F892B8093E0
:1049D000080780910607813041F410920607809104
:1049E00008078093BB0085EC01C085EE8093BC0076
:1049F000222321F0809109078230E1F380919C0607
:104A00008F3F61F080919C06803251F080919C062E
:104A1000803341F483E007C081E005C080E003C03B
:104A200082E001C084E00F910895613298F42091F2
:104A30000907243089F46093BE06FC0180EC96E0FF
:104A4000DC012A2F281B261718F421912D93F9CF6A
:104A500080E0089581E0089582E0089585ED8093D7
:104A6000BC008091BC0084FDFCCF10920907089522
:104A700085EC8093BC001092090708951F920F9255
:104A80000FB60F9211242F933F934F935F936F9321
:104A90007F938F939F93AF93BF93EF93FF938091F7
:104AA000B900887F803609F49CC068F5883209F423
:104AB0005BC090F4803109F454C038F4882309F4C1
:104AC000F5C0883009F44DC0F5C0883109F44CC0F8
:104AD000803209F45DC0EEC0803409F468C048F447
:104AE000803309F455C0883309F0E4C080939C06F4
:104AF000A8C0803509F44FC0883509F45DC08834FA
:104B000009F0D8C0D5C0883909F4C6C0A8F48837E0
:104B100009F467C038F4883609F463C0803709F4B3
:104B200060C0C8C0883809F4B7C0803909F45FC0D4
:104B3000803809F0BFC05BC0803B09F485C038F401
:104B4000803A09F466C0883A09F47EC0B3C0803C5C
:104B500009F4A6C0883C09F4A3C0883B09F489C0C5
:104B6000A9C08091080710C09091E1068091E006ED
:104B7000981770F5E091E10681E08E0F8093E106D1
:104B8000F0E0EE51F94F80818093BB0085EC85C049
:104B900080939C068DC0E091E10681E08E0F8093AA
:104BA000E1068091BB00F0E0EE51F94F80839091D7
:104BB000E1068091E0066DC0E091E10681E08E0F94
:104BC0008093E1068091BB00F0E0EE51F94F8083C5
:104BD0008091070781116CC081E08093060784EA09
:104BE00060C083E08093090710929D06CFCF80912B
:104BF0009D06803208F050C0E0919D0681E08E0F46
:104C000080939D068091BB00F0E0E256F94F8083CF
:104C1000BDCF80919D06803230F4E0919D06F0E09A
:104C2000E256F94F10820E942E2560919D0670E099
:104C3000E0910207F09103078EE996E00995109242
:104C40009D060E94382536C084E0809309071092A3
:104C5000BF061092BE06E0910407F0910507099582
:104C60008091BE06811105C081E08093BE0610923E
:104C7000C006E091BF0681E08E0F8093BF06F0E092
:104C8000E054F94F80818093BB009091BF068091E2
:104C9000BE06981708F47ACF85E88093BC000AC056
:104CA00085EC8093BC001092090704C010929C060A
:104CB0000E942E25FF91EF91BF91AF919F918F910F
:104CC0007F916F915F914F913F912F910F900FBE08
:104CD0000F901F9018958230E8F4E82FF0E0EE0F67
:104CE000FF1FE65FF84F71836083813041F0809150
:104CF00069008C7F842B80936900E89A08958091E5
:104D00006900440F551F440F551F837F842B8093E8
:104D10006900E99A0895823068F4813011F0E898CA
:104D200001C0E998E82FF0E0EE0FFF1FE65FF84FB3
:104D30001182108208951F920F920FB60F921124C4
:104D40002F933F934F935F936F937F938F939F9393
:104D5000AF93BF93EF93FF9380910A0790910B0756
:104D6000892B29F0E0910A07F0910B070995FF9133
:104D7000EF91BF91AF919F918F917F916F915F91D3
:104D80004F913F912F910F900FBE0F901F9018954C
:104D90001F920F920FB60F9211242F933F934F93B0
:104DA0005F936F937F938F939F93AF93BF93EF9393
:104DB000FF9380910C0790910D07892B29F0E091CA
:104DC0000C07F0910D070995FF91EF91BF91AF91FD
:104DD0009F918F917F916F915F914F913F912F9113
:104DE0000F900FBE0F901F9018951F920F920FB645
:104DF0000F9211242F933F938F939F93AF93BF9361
:104E000080910F0790911007A0911107B0911207A0
:104E100030910E0723E0230F2D3720F40196A11DBA
:104E2000B11D05C026E8230F0296A11DB11D2093D8
:104E30000E0780930F0790931007A0931107B0936C
:104E400012078091130790911407A0911507B09154
:104E500016070196A11DB11D8093130790931407A7
:104E6000A0931507B0931607BF91AF919F918F91B3
:104E70003F912F910F900FBE0F901F9018953FB745
:104E8000F8948091130790911407A0911507B091A1
:104E9000160726B5A89B05C02F3F19F00196A11D46
:104EA000B11D3FBF6627782F892F9A2F620F711D82
:104EB000811D911D42E0660F771F881F991F4A953B
:104EC000D1F70895CF92DF92EF92FF92CF93DF93C5
:104ED0006B017C010E943F27EB01C114D104E10466
:104EE000F10489F00E946C2B0E943F276C1B7D0B04
:104EF000683E734090F381E0C81AD108E108F108D8
:104F0000C851DC4FEACFDF91CF91FF90EF90DF9057
:104F1000CF900895789484B5826084BD84B5816013
:104F200084BD85B5826085BD85B5816085BDEEE6B1
:104F3000F0E0808181608083E1E8F0E01082808190
:104F400082608083808181608083E0E8F0E08081FE
:104F500081608083E1EBF0E0808184608083E0EB1E
:104F6000F0E0808181608083EAE7F0E08081846006
:104F70008083808182608083808181608083808162
:104F8000806880831092C10008958E3008F08E50A2
:104F900087702091480190E4299F90011124822B71
:104FA00080937C0080917A00806480937A00809165
:104FB0007A0086FDFCCF809178002091790090E006
:104FC000922B08951F93CF93DF93182FEB0161E08D
:104FD0000E946A28209711F460E004C0CF3FD105F9
:104FE00039F461E0812FDF91CF911F910C94A328B8
:104FF000E12FF0E0E05CFD4FE491E330F9F048F49C
:10500000E130B9F0E230A1F584B5806284BDC8BD5D
:1050100034C0E730E9F0E83019F1E43049F5809127
:105020008000806280938000D0938B00C0938A00C0
:1050300024C084B5806884BDC7BD1FC08091800036
:10504000806880938000D0938900C093880015C049
:105050008091B00080688093B000C093B3000DC011
:105060008091B00080628093B000C093B40005C00E
:10507000C038D1050CF0B5CFAFCFDF91CF911F91E4
:105080000895833081F028F4813099F08230A1F0C6
:1050900008958730A9F08830B9F08430D1F4809138
:1050A00080008F7D03C0809180008F778093800087
:1050B000089584B58F7702C084B58F7D84BD08952F
:1050C0008091B0008F7703C08091B0008F7D809376
:1050D000B0000895CF93DF9390E0FC01EC5AFD4FB0
:1050E0002491FC01E859FD4F8491882349F190E017
:1050F000880F991FFC01E057FD4FA591B4918A5785
:105100009D4FFC01C591D4919FB7611108C0F894DF
:105110008C91209582238C93888182230AC06230EF
:1051200051F4F8948C91322F309583238C9388819D
:10513000822B888304C0F8948C91822B8C939FBF20
:10514000DF91CF9108950F931F93CF93DF931F9219
:10515000CDB7DEB7282F30E0F901E05CFD4F849138
:10516000F901EC5AFD4F1491F901E859FD4F0491F2
:105170000023C9F0882321F069830E9441286981B6
:10518000E02FF0E0EE0FFF1FEA57FD4FA591B4911D
:105190009FB7F8948C91611103C01095812301C0D1
:1051A000812B8C939FBF0F90DF91CF911F910F9117
:1051B0000895CF93DF93282F30E0F901E05CFD4F95
:1051C0008491F901EC5AFD4FD491F901E859FD4F52
:1051D000C491CC2391F081110E944128EC2FF0E082
:1051E000EE0FFF1FE458FD4FA591B4912C912D2394
:1051F00081E090E021F480E002C080E090E0DF9167
:10520000CF910895FC01818D228D90E0805C9F4FAD
:10521000821B91098F7399270895FC01918D828DCE
:10522000981731F0828DE80FF11D858D90E008957B
:105230008FEF9FEF0895FC01918D828D981761F09B
:10524000828DDF01A80FB11D5D968C91928D9F5FBD
:105250009F73928F90E008958FEF9FEF08958FE9ED
:105260009AE2892B49F080E090E0892B29F00E9496
:105270009F2A81110C9400000895FC01848DDF01A8
:10528000A80FB11DA35ABF4F2C91848D90E00196B9
:105290008F739927848FA689B7892C93A089B189A8
:1052A0008C9180648C93938D848D981306C00288B2
:1052B000F389E02D80818F7D80830895CF93DF93E4
:1052C000EC01888D8823C9F0EA89FB89808185FDFE
:1052D00005C0A889B9898C9186FD0FC00FB607FC5F
:1052E000F5CF808185FFF2CFA889B9898C9185FFA0
:1052F000EDCFCE010E943D29E7CFDF91CF910895F8
:10530000CF92DF92FF920F931F93CF93DF931F9261
:10531000CDB7DEB76C0181E0D60158968C935897D3
:105320005B969C915B975C968C915C97981307C0F9
:105330005096ED91FC915197808185FD2EC0F6012C
:10534000038D10E00F5F1F4F0F731127F02EF60132
:10535000848DF81211C00FB607FCF9CFD601509614
:10536000ED91FC915197808185FFF1CFC601698352
:105370000E943D296981EBCF838DE80FF11DE35A2F
:10538000FF4F6083D6015B960C935B975296ED912D
:10539000FC915397808180620CC0D6015696ED91A6
:1053A000FC91579760835096ED91FC9151978081C5
:1053B0008064808381E090E00F90DF91CF911F9116
:1053C0000F91FF90DF90CF900895BF92CF92DF9220
:1053D000EF92FF92CF93DF93EC016A017B01B22E33
:1053E000E889F98982E08083411581EE58076105DB
:1053F0007105A1F060E079E08DE390E0A7019601EE
:105400000E949F2E21503109410951095695479517
:1054100037952795211580E1380798F0E889F989B3
:10542000108260E874E88EE190E0A70196010E9486
:105430009F2E2150310941095109569547953795BD
:105440002795EC85FD853083EE85FF852083188EBA
:10545000EC89FD89B082EA89FB8980818061808343
:10546000EA89FB89808188608083EA89FB89808161
:1054700080688083EA89FB8980818F7D8083DF91CA
:10548000CF91FF90EF90DF90CF90BF9008951F9243
:105490000F920FB60F9211242F938F939F93EF9338
:1054A000FF93E0912707F09128078081E0912D0775
:1054B000F0912E0782FD12C09081809130078F5F9E
:1054C0008F7320913107821751F0E0913007F0E09F
:1054D000E95EF84F958F8093300701C08081FF917E
:1054E000EF919F918F912F910F900FBE0F901F9072
:1054F00018951F920F920FB60F9211242F933F937E
:105500004F935F936F937F938F939F93AF93BF93CB
:10551000EF93FF9387E197E00E943D29FF91EF9180
:10552000BF91AF919F918F917F916F915F914F91BB
:105530003F912F910F900FBE0F901F90189587E10C
:1055400097E00E94022921E0892B09F420E0822FB4
:10555000089510921A071092190788EE93E0A0E0C0
:10556000B0E080931B0790931C07A0931D07B09396
:105570001E078DE591E0909318078093170785EC3F
:1055800090E0909324078093230784EC90E090931D
:1055900026078093250780EC90E09093280780935E
:1055A000270781EC90E090932A078093290782ECEB
:1055B00090E090932C0780932B0786EC90E09093DB
:1055C0002E0780932D07109230071092310710920A
:1055D000320710923307089508950E948A270E9487
:1055E000EC2A0E944A1ACFE2D9E20E940C222097AC
:1055F000E1F30E942F29F9CFCF92DF92EF92FF9231
:105600000F931F93CF93DF936C017A01EB01E60EAA
:10561000F71E00E010E0CE15DF0561F06991D601BC
:10562000ED91FC910190F081E02DC6010995080FE4
:10563000191FF1CFC801DF91CF911F910F91FF90FA
:10564000EF90DF90CF900895611571058105910568
:1056500011F00C94542F0895CF93DF9300D000D015
:10566000CDB7DEB79B01AC016115710581059105D0
:1056700069F069833A834B835C830E944F2F2981B1
:105680003A814B815C810E94C12E03C060E070E0D2
:10569000CB010F900F900F900F90DF91CF91089555
:1056A000CF92DF92EF92FF926B017C01621773073A
:1056B0008407950764F4CA01B9016C197D098E0944
:1056C0009F090E942C2B6C0D7D1D8E1D9F1DFF9030
:1056D000EF90DF90CF90089508955058BB27AA27E8
:1056E0000ED0F7C1E8D130F0EDD120F031F49F3F7A
:1056F00011F41EF4B8C10EF4E095E7FBAEC1E92F3A
:10570000F9D180F3BA17620773078407950718F079
:1057100071F49EF511C20EF4E0950B2EBA2FA02D58
:105720000B01B90190010C01CA01A0011124FF274E
:10573000591B99F0593F50F4503E68F11A16F04049
:10574000A22F232F342F4427585FF3CF4695379548
:105750002795A795F0405395C9F77EF41F16BA0B0D
:10576000620B730B840BBAF09150A1F0FF0FBB1FBB
:10577000661F771F881FC2F70EC0BA0F621F731F04
:10578000841F48F4879577956795B795F7959E3F61
:1057900008F0B3CF9395880F08F09927EE0F9795EF
:1057A0008795089588D158F080E891E009F49EEF3C
:1057B00089D128F040E851E059F45EEF09C053C1A7
:1057C000BBC1E92FE07896D168F3092E052AC1F311
:1057D000261737074807590738F00E2E07F8E02537
:1057E00069F0E025E0640AC0EF6307F8009407FA67
:1057F000DB01B9019D01DC01CA01AD01EF9347D086
:1058000068D10AD05F91552331F02BED3FE049E498
:1058100050FD49EC63CF0895DF93DD27B92FBF77A3
:1058200040E85FE31616170648075B0710F4D92F08
:105830008ED19F938F937F936F9335D2EEECF1E0EF
:1058400015D147D12F913F914F915F9193D1DD2396
:1058500049F09058A2EA2AED3FE049EC5FE3D078A6
:105860005D274DDFDF9135C1D4D008F481E0089584
:105870000CD02FC127D140F01ED130F021F45F3F72
:1058800019F0EBC0511159C1EEC034D198F39923EE
:10589000C9F35523B1F3951B550BBB27AA276217F4
:1058A0007307840738F09F5F5F4F220F331F441F39
:1058B000AA1FA9F333D00E2E3AF0E0E830D0915071
:1058C0005040E695001CCAF729D0FE2F27D0660F5E
:1058D000771F881FBB1F261737074807AB07B0E89D
:1058E00009F0BB0B802DBF01FF2793585F4F2AF0B3
:1058F0009E3F510568F0B1C020C15F3FECF3983E78
:10590000DCF3869577956795B795F7959F5FC9F70F
:10591000880F911D9695879597F90895E1E0660F98
:10592000771F881FBB1F621773078407BA0720F011
:10593000621B730B840BBA0BEE1F88F7E09508957A
:10594000E1D088F09F5790F0B92F9927B751A0F078
:10595000D1F0660F771F881F991F1AF0BA95C9F703
:1059600012C0B13081F0E8D0B1E00895E5C0672FF2
:10597000782F8827B85F39F0B93FCCF386957795B3
:105980006795B395D9F73EF490958095709561959C
:105990007F4F8F4F9F4F0895E89409C097FB3EF4C7
:1059A00090958095709561957F4F8F4F9F4F99236C
:1059B000A9F0F92F96E9BB279395F69587957795EA
:1059C0006795B795F111F8CFFAF4BB0F11F460FFAA
:1059D0001BC06F5F7F4F8F4F9F4F16C0882311F002
:1059E00096E911C0772321F09EE8872F762F05C016
:1059F000662371F096E8862F70E060E02AF09A95B1
:105A0000660F771F881FDAF7880F9695879597F9A5
:105A10000895990F0008550FAA0BE0E8FEEF16163F
:105A20001706E807F907C0F012161306E407F50792
:105A300098F0621B730B840B950B39F40A2661F006
:105A4000232B242B252B21F408950A2609F4A140A9
:105A5000A6958FEF811D811D089597F99F6780E8B6
:105A600070E060E008959FEF80EC0895DF93CF939E
:105A70001F930F93FF92EF92DF927B018C0168944A
:105A800005C0DA2EEF0176D0FE01E894A5912591AC
:105A9000359145915591AEF3EF0131DEFE0197014D
:105AA000A801DA9479F7DF90EF90FF900F911F91A2
:105AB000CF91DF91089500240A9416161706180650
:105AC0000906089500240A94121613061406050602
:105AD0000895092E0394000C11F4882352F0BB0F93
