:100000000C9450010C9413270C9440270C94780105
:100010000C9478010C9478010C94BD010C94780137
:100020000C9478010C9478010C9478010C9478016C
:100030000C9478010C9478010C9478010C9478015C
:100040000C946D270C9478010C94BF2A0C94F12A1F
:100050000C9478010C9478010C9478010C9478013C
:100060000C94B6250C9478010B081F083308470838
:10007000630877089208A008B508CA08DF08040AD0
:10008000090A110A140A190A1E0A230A280A2D0A43
:10009000320A370A3C0A440A490A4E0A530A580AE5
:1000A000600A680A700A760A810A860A8B0A930A2D
:1000B000960A9D0AA40AAE0AB20AB60ABD0AC30A83
:1000C000C90AD20AD80ADE0AE40AED0AF00AF50AD9
:1000D000FA0A000B060B0F0B120B190B200B2A0B45
:1000E0002A0B2A0B2A0B2A0B2A0B2A0B2A0B2A0B68
:1000F0002A0B2A0B2A0B2A0B2A0B2A0B2A0B871BEB
:100100009C1BBF1B1A1CEA1B4A1C891CB51CE61C45
:10011000011D181D2D1D4F1D921D1222122212228B
:10012000122212221222AF1DC41D1222F41D12220D
:1001300012221222122212221222411E561E801E4A
:10014000BF1E122212221222122212221222E61E96
:10015000FB1E281F12221222122212221222122207
:100160001222401F551F791F122212221222122220
:10017000122212221222911FA61FCA1F122212221D
:1001800012221222122212221222E21FF71F1D2017
:1001900045207020A22008211222122212222021A2
:1001A00035216B21BB21122212221222122212228D
:1001B0001222DC21FF2112221222122212221222EA
:1001C000122212221222062209220C220F22084A8F
:1001D000D73B3BCE016E84BCBFFDC12F3D6C74315B
:1001E0009ABD56833DDA3D00C77F11BED9E4BB4CB2
:1001F0003E916BAAAABE000000803F0010091004C7
:10020000000102030405060708090A0B0C0D0E0F76
:10021000030405060708090A0B000000000000009F
:100220000F0E0D0C0B0A0908070605040302010056
:100230000C0D0E0F00000000000000000000000088
:100240000000000800020100000304070000000095
:100250000000000001020408102040800102040890
:1002600010200102040810200404040404040404FF
:100270000202020202020303030303030000000060
:1002800023002600290000000000250028002B0084
:1002900000000000240027002A006D16D424212B22
:1002A00011241FBECFEFD8E0DEBFCDBF11E0A0E02C
:1002B000B1E0EAEEFFE502C005900D92AA36B10763
:1002C000D9F727E0AAE6B1E001C01D92A53BB2072D
:1002D000E1F712E0C0EAD2E004C02297FE010E94DA
:1002E0005A2FCA39D107C9F70E94652B0C94F32FF6
:1002F0000C9400004115510529F480917A008F7704
:1003000080937A006A307105B1F063FF02C088E221
:1003100001C088E06770682B88E190E00FB6F89420
:10032000A895809360000FBE60936000809160008C
:1003300080648093600083B7817F846083BF232BB8
:1003400051F4F89483B7816083BF85B7806685BF19
:100350008F7D85BF04C0F89483B7816083BF789494
:10036000889583B78E7F83BF7894452B29F480913D
:100370007A00806880937A0008951F920F920FB6DA
:100380000F9211248F9388E10FB6F8948093600048
:10039000109260000FBE8F910F900FBE0F901F90B4
:1003A000189510926B0110926C0110926D0188E308
:1003B00080936E019CE390936F019093700128E10C
:1003C00020937101109272011092730180E1809369
:1003D0007401809375011092760110927701209339
:1003E00078011092790110927A0180937B018093B9
:1003F0007C0110927D0110927E0120937F018093F9
:10040000800110928101809382017FEF70938301BC
:10041000109284011092850130EC3093860128E01F
:1004200020938701109288014CE8409389018093C2
:100430008A0110928B0160E660938C0150E2509328
:100440008D0110928E0190938F01909390011092E4
:1004500091015093920160939301109294018093C3
:100460009501409396011092970120939801309343
:10047000990110929A0110929B0170939C01109225
:100480009D0110929E0130939F012093A001109234
:10049000A1014093A2018093A3011092A401609353
:1004A000A5015093A6011092A7019093A8019093E3
:1004B000A9011092AA015093AB016093AC01109274
:1004C000AD018093AE014093AF011092B001209333
:1004D000B1013093B2011092B3011092B401709344
:1004E000B5012093B6011092B7013093B801809303
:1004F000B9011092BA014093BB015093BC01109214
:10050000BD016093BE019093BF011092C001909312
:10051000C1016093C2011092C3015093C401409382
:10052000C5011092C6018093C7013093C801109293
:10053000C9012093CA010895EF92FF920F931F9370
:10054000CF93DF93CDE6D1E08C018B5691407C01B7
:10055000FE0132976081C8010E94DD2FFE013197B4
:100560006081C80101960E94DD2F6881C7018C0F50
:100570009D1F0E94DD2F0D5F1F4F239691E0CD3C04
:10058000D90731F7DF91CF911F910F91FF90EF9035
:100590000895EF92FF920F931F93CF93DF93CDE6D1
:1005A000D1E08C018B5691407C01C8010E94D52F6F
:1005B000FE0132978083C80101960E94D52FFE016B
:1005C00031978083C7018C0F9D1F0E94D52F888390
:1005D0000D5F1F4F239691E0CD3CD90731F7DF9196
:1005E000CF911F910F91FF90EF900895CF93DF93DC
:1005F000A82FB0E096E0B595A7959A95E1F78F738F
:1006000090E0FC01EE0FFF1FE80FF91FE559FE4FC8
:100610008081EB0188838181EA0188838281F901ED
:100620008083EB01888190E00A2E02C09595879522
:100630000A94E2F78883FA01808190E00A2E02C0D2
:10064000959587950A94E2F78083E901888190E087
:1006500002C095958795AA95E2F78883DF91CF919F
:1006600008952F923F924F925F926F927F928F9256
:100670009F92AF92BF92CF92DF92EF92FF920F9331
:100680001F93CF93DF9300D01F92CDB7DEB71B012E
:10069000F22ED02EA9829B828A82042F10E0BC0108
:1006A00080E090E00E94442D2B013C01B10180E0EC
:1006B00090E00E94442D9B01AC01C301B2010E9455
:1006C000B02C2B013C01B801882777FD8095982F2D
:1006D0000E94462D4B015C016E2D70E0601B710B7A
:1006E000882777FD8095982F0E94462DA3019201BF
:1006F0000E94262E9B01AC01C501B4010E94E62B8D
:100700000E94182DEA81FB8160830F2D10E0B80153
:10071000882777FD8095982F0E94462D4B015C011C
:100720006C2D70E0601B710B882777FD8095982FEA
:100730000E94462DA30192010E94262E9B01AC012E
:10074000C501B4010E94E62B0E94182DE88DF98D99
:1007500060830D2D10E0B801882777FD8095982FD4
:100760000E94462D6B017C01F9816F2F70E0601BA8
:10077000710B882777FD8095982F0E94462DA30145
:1007800092010E94262E9B01AC01C701B6010E9476
:10079000E62B0E94182DEA8DFB8D60830F900F9041
:1007A0000F90DF91CF911F910F91FF90EF90DF900D
:1007B000CF90BF90AF909F908F907F906F905F9001
:1007C0004F903F902F9008950F931F93CF93DF93F7
:1007D0001F92CDB7DEB78C0169830E94D52F698146
:1007E000681741F0C8010F90DF91CF911F910F91D1
:1007F0000C94DD2F0F90DF91CF911F910F910895F1
:100800000C94D52F089508950895FC019B01460F7F
:10081000571F828993898417950750F0138A128A8B
:10082000848990E00196618170E00E94032F848B9F
:10083000828993898217930760F48489E80FF11DF8
:1008400021E532E042E552E063E572E082810C94FA
:10085000F602109253021092520210925102089521
:100860006F927F928F929F92AF92CF92EF920F935F
:100870001F93CF93DF93EC018B01460F571F8A899B
:100880009B898417950750F01B8A1A8A8C8990E0FF
:100890000196698170E00E94032F8C8B8A899B8965
:1008A0003801769467948615970530F58C89FE019A
:1008B000E80FF11D2EE432E04FE452E060E572E013
:1008C00082810E94F60281E592E09F938F9382E5F8
:1008D00092E09F938F9333E5832E32E0932EA09086
:1008E0004E02C0904F02E090500200E020E040E055
:1008F000B3018A899B892CC08017910780F58C8968
:10090000FE01E80FF11D2EE432E04FE452E060E515
:1009100072E082810E94F602B801661977098A891D
:100920009B8921E532E03F932F9322E532E03F930C
:100930002F9323E5822E22E0922EA12CC12CE12CB4
:1009400000914E0220914F02409150028619970962
:100950000E9431030F900F900F900F9006C01092DD
:1009600053021092520210925102DF91CF911F91C7
:100970000F91EF90CF90AF909F908F907F906F905E
:100980000895FC019B01460F571F828993898417A4
:10099000950760F0138A128A848990E0019661813C
:1009A00070E0615071090E94032F848B82899389C2
:1009B0008217930788F4848990E00196618170E042
:1009C0000E94032F8E0F9F1F21E532E042E552E087
:1009D00063E572E0FC0106C021E532E042E552E049
:1009E00063E572E082810C94F6020F93CF93DF935C
:1009F000FC01818190E00197908F878B689FD001E7
:100A0000699FB00D789FB00D1124420F531F049FB2
:100A1000C001059F900D11248A0F9B1F820F931F09
:100A2000C289D389C817D90710F0138A128A82891C
:100A300093898A179B0770F40E94EF2EDB01AE0F9B
:100A4000BF1F21E532E042E552E063E572E0139614
:100A50008C9111C08A1B9B0B968B858BBA010E94CF
:100A6000EF2E8217930760F021E532E042E552E075
:100A700063E572E08281DF91CF910F910C94F602D1
:100A8000109253021092520210925102DF91CF91B4
:100A90000F910895FC018181869F9001879F300D01
:100AA0001124420F531F828993898417950710F0F0
:100AB000138A128A828993898217930778F40E9495
:100AC000EF2EDB01AE0FBF1F21E532E042E552E021
:100AD00063E572E012968C910C94F6021092530228
:100AE000109252021092510208950F931F93CF93C8
:100AF000DF93FC01C181D0E02197D68BC58B6C9F21
:100B000080016D9F100D7C9F100D1124D801AA0F3C
:100B1000BB1FA40FB51F2A0F3B1F82899389821721
:100B2000930710F0138A128A82899389801791079C
:100B300070F40E94EF2EC61BD70BCE0FDF1F21E5EE
:100B400032E042E552E063E572E08A811AC09D011D
:100B5000201B310B8217930768F08A179B07B8F4A4
:100B6000821B930B0E94EF2E6F5F7F4F708F678BFE
:100B7000E60FF71F21E532E042E552E063E572E05F
:100B80008281DF91CF911F910F910C94F602109208
:100B900053021092520210925102DF91CF911F9195
:100BA0000F910895CF93C82F23E030E040E050E04C
:100BB00060E070E0CB010E94C82B2C2F30E0611563
:100BC00071058105910561F061307105810591051F
:100BD00059F4C90133E0880F991F3A95E1F70AC02B
:100BE000C901880F991F06C0C90124E0880F991F09
:100BF0002A95E1F7CF910895EF92FF920F931F93FB
:100C0000CF93DF931F92CDB7DEB77C018B01FC0140
:100C100025893689232B41F4842F49830E94D205EC
:100C2000F701968B858B4981F70125893689200F3D
:100C3000311F628973896217730788F0138A128AD9
:100C40002489822F90E00196618170E00E94032F39
:100C5000848B842F0E94D205F701968B858BF70138
:100C600022893389858996892817390798F48489D8
:100C7000E80FF11D21E532E042E552E063E572E064
:100C800082810F90DF91CF911F910F91FF90EF9094
:100C90000C94F602109253021092520210925102DA
:100CA0000F90DF91CF911F910F91FF90EF900895DA
:100CB0000F931F93CF93DF93FC01EB01460F571F58
:100CC0008289938984179507C0F0138A128A45890F
:100CD00056894F5F5F4F568B458B822F90E001976F
:100CE0004817590754F0168A158A848990E00196AE
:100CF000618170E00E94032F848B028913890C1795
:100D00001D07A8F5622F70E0CE010E94EF2EC801EA
:100D10000E94EF2E708F678B85899689009751F41A
:100D20008489E80FF11D21E532E042E552E063E5F8
:100D300072E013C068177907BCF4848990E00196CB
:100D4000618170E00E94032F8E0F9F1F21E532E02A
:100D500042E552E063E572E0FC018281DF91CF91D0
:100D60001F910F910C94F60268177907C9F610923B
:100D700053021092520210925102DF91CF911F91B3
:100D80000F9108958F929F92AF92CF92EF92FF9220
:100D90000F931F93CF93DF93EC01FB018A01F22E97
:100DA000060F171F8A899B8980179107A8F01B8A55
:100DB0001A8A8D899E8901969E8B8D8B30E08217D1
:100DC000930754F01E8A1D8A8C8990E001966981F0
:100DD00070E00E94032F8C8B8A899B898E179F0756
:100DE00008F051C08C89FE01E80FF11D2EE432E0BD
:100DF0004FE452E060E572E082810E94F6028C8945
:100E000090E00196698170E00E94032F8C0F9D1F76
:100E10002BE432E04CE452E06DE472E0FC018281AC
:100E20000E94F602F09EB001F19E700D11248D8992
:100E30009E89089FF001099FF00D189FF00D112465
:100E40008A899B8921E532E03F932F9322E532E0A6
:100E50003F932F9353E5852E52E0952EA0904B02A1
:100E6000C0904C02E0904D0200914E0220914F0242
:100E7000409150028E0F9F1F0E9431030F900F90E0
:100E80000F900F9006C010925302109252021092CF
:100E90005102DF91CF911F910F91FF90EF90CF9072
:100EA000AF909F908F900895CF93DF93FC01EB015B
:100EB000460F571F828993898417950728F1138A53
:100EC000128A858996894789508D30E0452B19F023
:100ED000319521953109280F391F368B258B84894F
:100EE00090E00196618170E00E94032F848B1216BE
:100EF00013061CF0108E178A07C02C173D0720F030
:100F000081E090E0908F878B22893389858996894B
:100F10008217930770F08489E80FF11D21E532E014
:100F200042E552E063E572E08281DF91CF910C945B
:100F3000F602109253021092520210925102DF9167
:100F4000CF9108950F931F93CF93DF93FC01EB0193
:100F5000460F571F828993898417950700F1138ADA
:100F6000128A858996890196968B858B30E0821747
:100F70009307ACF0168A158A8789908D0196908F19
:100F8000878B10E08017910754F0108E178A8489A0
:100F900090E00196618170E00E94032F848B82892A
:100FA00093898C179D07C8F4248985899689820FB7
:100FB000911D618170E00E94032F8E0F9F1F21E51C
:100FC00032E042E552E063E572E0FC018281DF91AC
:100FD000CF911F910F910C94F60210925302109230
:100FE000520210925102DF91CF911F910F910895FB
:100FF0000F9348E0649F90011124F901E553FE4FDF
:10100000408150E04B30510508F0EEC0FA01EC5C35
:10101000FF4F0C94582FF901E553FE4F438150E0E8
:10102000542F44272481420F511D618170E0762F97
:1010300066272281620F711D0F910C940504F9013E
:10104000E553FE4F438150E0542F44272481420F43
:10105000511D618170E0762F66272281620F711D1C
:101060000F910C943004F901E553FE4F438150E099
:10107000542F44272481420F511D618170E0762F47
:1010800066272281620F711D0F910C94C104F90132
:10109000E553FE4F258130E0322F22274681240F71
:1010A000311D438150E0542F44276481460F511D68
:1010B000618170E0762F6627A2816A0F711D07811A
:1010C0000E94F50491C0F901E553FE4F438150E0C1
:1010D000542F44272481420F511D618170E0762FE7
:1010E00066272281620F711D0F910C944A05F90148
:1010F000E553FE4F258130E0322F22274681240F11
:10110000311D438150E0542F44276481460F511D07
:10111000618170E0762F6627E2816E0F711D0F915D
:101120000C947505F901E553FE4F618170E0762F4F
:1011300066272281620F711D43810F910C94FC057B
:10114000F901E553FE4F438150E0542F4427248199
:10115000420F511D618170E0762F66272281620F58
:10116000711D25810F910C945806F901E553FE4F2E
:10117000438150E0542F44272481420F511D618147
:1011800070E0762F66272281620F711D25810F91F5
:101190000C94C206F901E553FE4F438150E0542FF1
:1011A00044272481420F511D618170E0762F66270C
:1011B0002281620F711D25810F910C945407F90152
:1011C000E553FE4F438150E0542F44272481420FC2
:1011D000511D618170E0762F66272281620F711D9B
:1011E000068125810E94A2070F9108958F92AF92E8
:1011F000CF92EF920F93CF93DF93CDB7DEB7FC0181
:101200006083418322830383E482C582A68287822E
:101210008A8580878B8581878C8582878D8583876A
:101220008E8584878F858587888986878989878742
:101230008A89808B8B89818BDF91CF910F91EF9081
:10124000CF90AF908F9008950F931F93CF93DF931C
:10125000EC018B01CB010E9400048883C801019638
:101260000E9400048983C80102960E9400048A83B8
:10127000C80103960E9400048B83C80104960E9453
:1012800000048C83C80105960E9400048D83C80168
:1012900006960E9400048E83C80107960E940004EF
:1012A0008F83C80108960E9400048887C8010996A8
:1012B0000E9400048987C8010A960E9400048A8758
:1012C000C8010B960E9400048B87C8010C960E94EF
:1012D00000048C87C8010D960E9400048D87C80108
:1012E0000E960E9400048E87C8010F960E9400048B
:1012F0008F87C80140960E940004888BC8014196E0
:101300000E940004898BDF91CF911F910F91089566
:101310000F931F93CF93DF93EC018B016881C8017A
:101320000E94E4036981C80101960E94E4036A8176
:10133000C80102960E94E4036B81C80103960E94D3
:10134000E4036C81C80104960E94E4036D81C80126
:1013500005960E94E4036E81C80106960E94E4038C
:101360006F81C80107960E94E4036885C80108964A
:101370000E94E4036985C80109960E94E4036A8516
:10138000C8010A960E94E4036B85C8010B960E946F
:10139000E4036C85C8010C960E94E4036D85C801C6
:1013A0000D960E94E4036E85C8010E960E94E40328
:1013B0006F85C8010F960E94E4036889C8014096B2
:1013C0000E94E4036989C8014196DF91CF911F9182
:1013D0000F910C94E403AF92BF92CF92DF92EF9201
:1013E000FF920F93CF93DF93EC015B016A017901C8
:1013F0006881862F90E08034910508F02FC1FC01B0
:10140000E15CFF4F0C94582F48E050E065E070E03D
:1014100004C04FE050E06AE070E0CE010E94050495
:101420001DC14EE150E0DEC04AE050E061E070E0F6
:10143000F4CF44E150E063E070E0EFCF48E250E0E9
:1014400066E070E0EACF40EA50E06CE070E0E5CFA3
:101450004FE050E06FE070E0E0CF40E250E061E24A
:1014600070E0DBCF43E450E064E470E0D6CF4FE0BF
:1014700050E069E170E004C049E150E064E670E0EA
:10148000CE010E943004EAC042E350E068EC70E014
:10149000F7CF44E650E060E971E0F2CF44E150E07C
:1014A00063E070E009C04CE250E066E070E004C028
:1014B00042E250E061E170E0CE010E94C104CEC082
:1014C00002E024E130E043E050E063E070E015C06A
:1014D00007E024E130E043E050E068E070E00DC058
:1014E00004E020E130E04AE050E005C001E024E102
:1014F00030E048E250E065E070E0CE010E94F50483
:10150000ADC042E350E065E070E009C044E650E061
:101510006AE070E004C044E650E064E170E0CE01AF
:101520000E944A059BC024E130E010C028E230E070
:1015300040E150E064E070E00DC02CE330E044E1B5
:1015400050E068E070E006C02CE330E046E050E098
:1015500062E070E0CE010E94750580C041E068E065
:1015600070E007C042E060E170E003C045E062E384
:1015700070E0CE010E94FC0571C025E04AE050E019
:1015800062E370E00BC025E044E150E064E670E007
:1015900005C02AE042E350E064EF71E0CE010E9412
:1015A00058065CC021E040E050E064EF71E011C0FB
:1015B00021E040E050E068EE73E00BC028E040E13D
:1015C00050E06AE070E005C024E042E250E062E2F0
:1015D00070E0CE010E94C20641C040E050E01BCF47
:1015E00040E050E064E170E018CF40E050E068E295
:1015F00070E013CF22E04AE050E06EE170E00BC0F3
:1016000025E044E150E064E670E005C02AE044E1F2
:1016100050E06AEF70E0CE010E9454071FC00CE05A
:1016200022E002C008E023E040E150E06AE070E020
:101630000DC008E023E044E150E063E070E006C044
:1016400004E023E042E250E062E270E0CE010E945A
:10165000A20704C06053CE010E94F8078A899B89C3
:1016600001969B8B8A8B80915302F5018083809138
:101670005202F601808380915102F7018083DF914D
:10168000CF910F91FF90EF90DF90CF90BF90AF90F0
:101690000895FC01108E178A168A158A148A138AF7
:1016A000128A089508950C94DD2F0C94D52FDC0137
:1016B000ED91FC910190F081E02D0994EF92FF9261
:1016C0000F931F93CF93DF931F92CDB7DEB77C01AB
:1016D000FC0100811181C80169830E94D52F6981B5
:1016E000681719F0C8010E94DD2FC7010F90DF9124
:1016F000CF911F910F91FF90EF900895CF93DF93BB
:10170000CDB7DEB769970FB6F894DEBF0FBECDBF79
:10171000FC0112AA13AA14AA15AA17AA16AA29E14B
:10172000FE013196DC0101900D922A95E1F729E145
:10173000FE013196DC01599601900D922A95E1F750
:1017400069960FB6F894DEBF0FBECDBFDF91CF9183
:101750000895AF92BF92CF92DF92EF92FF920F93D4
:101760001F93CF93DF936C01EB018A017901FC0198
:1017700082A99601275E3F4F59019701811108C048
:10178000C5010E94EB099701A801BE01C60107C06F
:10179000C6010E94EB099701A801BE01C501DF91B6
:1017A000CF911F910F91FF90EF90DF90CF90BF905E
:1017B000AF900C94EB09CF93DF93EC010E94490B9F
:1017C000CE0149960E94490B1DAADF91CF91089541
:1017D0000F931F93CF93DF93EC018B01CB010E94FA
:1017E000550B8BABC80101960E94550B8CABB80111
:1017F0006E5F7F4FCE010E942409B8016C5E7F4F5F
:10180000CE014996DF91CF911F910F910C9424093D
:10181000EF92FF920F931F93CF93DF9300D0CDB73A
:10182000DEB78C017B01FC0163A9FA82E982CE015B
:1018300001960E945E0BF80164A9C70101969A8384
:101840008983CE0101960E945E0BB7016E5F7F4FC8
:10185000C8010E948809B7016C5E7F4FC801499694
:101860000E9488090F900F90DF91CF911F910F91E7
:10187000FF90EF9008953F924F925F926F927F9208
:101880008F929F92AF92BF92CF92DF92EF92FF9290
:101890000F931F93CF93DF93CDB7DEB762970FB649
:1018A000F894DEBF0FBECDBF9A8B898B2A013B0116
:1018B00048015901DC01D6968D919C91D79797FFED
:1018C00004C0D7961C921E92D697E989FA8983A9FB
:1018D000823009F41DC118F4813041F070C28330A8
:1018E00009F48BC1843009F4FEC169C2A989BA899F
:1018F000D4968C91882359F0813081F08230C1F4E4
:1019000085E0382E8AE999E9A9E9BFE30DC029E10C
:10191000322E80E090E0A0ECBFE306C099E1392EC2
:1019200083E393E3A3EBBFE389839A83AB83BC8315
:1019300020E030E0A901C301B2010E941B2E18165D
:1019400044F0D301C201B0588D839E83AF83B88722
:1019500004C04D825E826F82788620E030E0A9016B
:10196000C501B4010E941B2E181644F0D501C40114
:10197000B05889879A87AB87BC8704C089869A86C6
:10198000AB86BC8620E030E0A901C701B6010E9409
:101990001B2E18160CF4F9C1D701C601B0588D875B
:1019A0009E87AF87B88B9C01AD0169857A858B8551
:1019B0009C850E941B2E181674F420E030E0A901CB
:1019C000C501B4010E941B2EA501940118160CF448
:1019D000EAC1505804C02D853E854F8558896D81D8
:1019E0007E818F8198850E941B2E181654F420E06A
:1019F00030E0A901C301B2010E941B2E73016201F4
:101A00002DC020E030E0A901C501B4010E941B2EC9
:101A100024013501181624F077FA709477F8709441
:101A200020E030E0A901C701B6010E941B2E181664
:101A300024F0F7FAF094F7F8F094A7019601C301A7
:101A4000B2010E941B2E18167CF420E030E0A901A0
:101A5000C501B4010E941B2E75016401181624F003
:101A6000F7FAF094F7F8F094A989BA89D2968C9194
:101A7000811127C029813A814B815C81C701B60160
:101A80000E941B2E181644F4E989FA8986A997A9A1
:101A9000019697AB86AB06C0A989BA89D7961C92E6
:101AA0001E92D697832D90E0E989FA8926A937A955
:101AB000821793070CF083C121E022AB97AB86AB72
:101AC0007EC123E333E343E95FE3C701B6010E942C
:101AD0001B2E18164CF4832D90E0A989BA89D7964D
:101AE0009C938E93D69707C0E989FA8986A997A90E
:101AF000019797AB86ABA989BA89D6968D919C91AF
:101B0000D797181619060CF45AC1D2961C9257C1D1
:101B1000A5019401C501B4010E94262E4B015C0170
:101B2000A7019601C701B6010E94262E9B01AC01B8
:101B3000C501B4010E94E62B0E948D2E9B01AC01D1
:101B4000C301B2010E94592C20E030E044E353E489
:101B50000E94262E2BED3FE049E450E40E94B02C79
:101B6000E989FA89D2A8E6A8F7A8D11016C020E022
:101B700030E042E852EC0E94AC2C87FF03C081E0C9
:101B800090E002C08FEF9FEFE80EF91EA989BA8995
:101B9000D796FC92EE92D69713C020E030E042E850
:101BA00052E40E941B2E18161CF481E090E002C043
:101BB0008FEF9FEFE80EF91EE989FA89F7AAE6AAE6
:101BC0008CE390E0A989BA89D4960C90D49702C08E
:101BD000959587950A94E2F7D6962D913C91D797E3
:101BE000821793070CF0EBC0D7961C921E92D697E3
:101BF00081E0DD2009F4C5C0C3C0A3019201C30187
:101C0000B2010E94262E2B013C01A7019601C701BB
:101C1000B6010E94262E9B01AC01C301B2010E94B5
:101C2000E62B0E948D2E9B01AC01C501B4010E94E0
:101C3000592C20E030E044E353E40E94262E2BEDA3
:101C40003FE049E450E40E94B02CA989BA89D296B9
:101C5000DC90D297D696ED90FC90D797D11014C017
:101C600020E030E042E852EC0E94AC2C87FF03C039
:101C700081E090E002C08FEF9FEFE80EF91EE98946
:101C8000FA89F7AAE6AA15C020E030E042E852E45B
:101C90000E941B2E18161CF481E090E002C08FEF0A
:101CA0009FEFE80EF91EA989BA89D796FC92EE92A9
:101CB000D6978CE390E0E989FA8904A802C095954B
:101CC00087950A94E2F726A937A9821793070CF0A3
:101CD00076C017AA16AA81E0D11080E0A989BA8936
:101CE000D2968C936CC0E989FA8992A8A6A8B7A865
:101CF000911018C02AE939E949E55FEBC701B6013F
:101D00000E94AC2C87FF03C081E090E002C08FEFFF
:101D10009FEFA80EB91EA989BA89D796BC92AE9238
:101D2000D69715C02AE939E949E55FE3C701B6014D
:101D30000E941B2E18161CF481E090E002C08FEF69
:101D40009FEFA80EB91EE989FA89B7AAA6AA8CE363
:101D500090E0A989BA89D4960C90D49702C0959541
:101D600087950A94E2F7D6962D913C91D7978217E2
:101D700093072CF5D7961C921E92D69781E091106E
:101D800080E0E989FA8982AB1AC0A70196016985CA
:101D90007A858B859C850E941B2E18160CF40DCE1F
:101DA000A70196011CCE6D817E818F8198850E944E
:101DB0001B2E18160CF41BCE2401350131CE629671
:101DC0000FB6F894DEBF0FBECDBFDF91CF911F914C
:101DD0000F91FF90EF90DF90CF90BF90AF909F90CA
:101DE0008F907F906F905F904F903F900895CF932A
:101DF000DF93C0E0D0E060E0CE010E94530B21965B
:101E0000C11584E0D807B9F7DF91CF9108950F93FA
:101E10001F93CF93DF93C8E2D1E008E011E069910E
:101E20007991F801819191918F010E94080CF1E064
:101E3000C834DF07A1F7DF91CF911F910F9108956B
:101E40000F931F93CF93DF93C8E2D1E008E011E036
:101E500069917991F801819191918F010E94E80B2C
:101E6000F1E0C834DF07A1F7DF91CF911F910F9107
:101E7000089561110BC0E82FF0E0EE0FFF1FE85F3F
:101E8000FE4F0190F081E02D43AB0895613059F48D
:101E9000E82FF0E0EE0FFF1FE85FFE4F0190F081AA
:101EA000E02D44AB0895623051F4E82FF0E0EE0FDE
:101EB000FF1FE85FFE4F0190F081E02D1BC06330F3
:101EC00059F4E82FF0E0EE0FFF1FE85FFE4F01909E
:101ED000F081E02D41830895643170F4E82FF0E043
:101EE000EE0FFF1FE85FFE4F0190F081E02DE60F3F
:101EF000F11D329740830895643159F4E82FF0E0E2
:101F0000EE0FFF1FE85FFE4F0190F081E02D418F43
:101F10000895653159F4E82FF0E0EE0FFF1FE85FF8
:101F2000FE4F0190F081E02D428F0895663260F4FB
:101F3000E82FF0E0EE0FFF1FE85FFE4F0190F08109
:101F4000E02DE60FF11D458308958F929F92AF9289
:101F5000BF92CF92DF92EF92FF920F931F93CF9396
:101F6000DF9300D0CDB7DEB722E8A22E22E0B22E5A
:101F700000E812E030ECC32E32E0D32EF50161917F
:101F80005F01DA82C982CE0101960E945E0BE12CCC
:101F9000F12CC8018A5F9F4F4C01F401EE0DFF1D2B
:101FA0006081C701800F911F9A838983CE010196BA
:101FB0000E945E0B9FEFE91AF90AE0E1EE16F104C8
:101FC00061F7FFEFCF1ADF0A005F1F4F003C82E08E
:101FD0001807A1F60F900F90DF91CF911F910F91ED
:101FE000FF90EF90DF90CF90BF90AF909F908F9039
:101FF0000895AF92BF92CF92DF92EF92FF920F932C
:102000001F93CF93DF9342E8C42E42E0D42E50E8D2
:10201000E52E52E0F52E00EC12E0C8010E94550BAF
:10202000F60181936F01C0E0D0E0C7018A5F9F4F46
:102030005C01CE018E0D9F1D0E94550BF501EC0F2A
:10204000FD1F80832196C031D10599F70F5F1F4F87
:1020500090E1E90EF11C043CE2E01E07F1F6DF918D
:10206000CF911F910F91FF90EF90DF90CF90BF9095
:10207000AF900895262F64E10E94E32EE82FF0E050
:10208000911103C0EE57FD4F0AC064E0EE0FFF1F31
:102090006A95E1F7EA57FD4FE90FF11D319720836B
:1020A00008955F926F927F928F929F92AF92BF92AC
:1020B000CF92DF92EF92FF920F931F93CF93DF9314
:1020C000CDB7DEB769970FB6F894DEBF0FBECDBFB0
:1020D00011E010934606109247061F921F921F921E
:1020E0001F92ECE19E2E9F921F93F8E1BF2EBF92AC
:1020F0001F93A4E17A2E7F921F93B0E18B2EAA2426
:10210000A3940CE0C02EEE24E39408E021E04CE020
:1021100064E0CE0101960E94F60889E1FE01319645
:10212000A3E1B6E001900D928A95E1F71F921F920C
:102130001F9288E88F938AE88F938CE88F938EE8BC
:102140008F9380E98F9382E98F9384E98F9386E957
:10215000882E98E9A92E2AE9C22E3CE9E32E0EE941
:1021600021E04DE061E1CE0101960E94F60889E18F
:10217000FE013196ACE2B6E001900D928A95E1F74E
:1021800010930E0610930F061F921F921F921F921C
:102190001F921F921F921F921F9282EC8F9343EC0B
:1021A000842E54ECA52E65ECC62E76ECE72E07ECBB
:1021B00021E047E066E1CE0101960E94F60889E140
:1021C000FE013196ABEDB5E001900D928A95E1F7F5
:1021D0001F921F921F921F921F921F921F921F9277
:1021E0008FE18F939F92E9E18E2EF6E1AF2EA3E16E
:1021F000CA2EB0E1EB2E0DE02AE048E065E0CE010A
:1022000001960E94F60889E1FE013196A4EFB5E03F
:1022100001900D928A95E1F71093D60502E0F02E19
:10222000F092D7050FB6F894DEBF0FBECDBF1F9258
:102230001F921F921F921F921F921F921F921F9216
:102240001F92812CA12CC12C86E1E82E0EE12EE0FC
:1022500043E068E0CE0101960E94F60889E1FE01A4
:102260003196A3EAB5E001900D928A95E1F71F92AD
:102270001F921F921F921F921F921F921F921F92D6
:102280001F92E12C00E020E041E061E0CE010196E8
:102290000E94F60889E1FE013196ACEBB5E00190B1
:1022A0000D928A95E1F7F0929E0510929F051F927C
:1022B0001F921F921F929AEDD92EDF92DF92DF922A
:1022C0008BED8F938CE98F938DE98F932EE9822E7E
:1022D0003FE9A32E48E8C42E59E1E52E06E12EE1A0
:1022E0004CE069E1CE0101960E94F60889E1FE0109
:1022F0003196ABE6B5E001900D928A95E1F71F9219
:102300001F921F921F92DF92DF92DF9289ED8F93CF
:1023100088E98F9387E98F9366E9862E75E9A72E62
:10232000E4E9CE2EFBE5EF2E0EE526E14CE069E177
:10233000CE0101960E94F60889E1FE013196A4E8DB
:10234000B5E001900D928A95E1F7F0926605109341
:1023500067050FB6F894DEBF0FBECDBF1F921F9268
:102360001F921F921F921F921F92ADE55A2E5F92ED
:10237000BAE56B2E6F9207E5D02EDF9284E5882EAA
:1023800091E5A92E2EE4C22E3BE4E32E08E422ECD4
:1023900049E06FE0CE0101960E94F60889E1FE0156
:1023A0003196A3E3B5E001900D928A95E1F71F9273
:1023B0001F921F921F921F921F921F925F926F9205
:1023C000DF9226EC49E06FE0CE0101960E94F6080C
:1023D00089E1FE013196ACE4B5E001900D928A9559
:1023E000E1F7F0922E05F0922F051F921F921F9297
:1023F0001F921F921F921F921F924AE1642E6F92AA
:1024000088E08F935EE0852E68E0A62E7DE1C72EE2
:10241000E8E0EE2E0BE028E048E06DE2CE01019608
:102420000E94F60889E1FE013196ABEFB4E001901D
:102430000D928A95E1F71F921F921F921F921F9291
:102440001F921F921F9282E18F93BF92FEE18F2E07
:10245000A8E1AA2EB5E1CB2E08E1E02E0BE128E1A0
:1024600048E06DE2CE0101960E94F60889E1FE0186
:102470003196A4E1B5E001900D928A95E1F783E0F1
:10248000D82ED092F6041092F7040FB6F894DEBF5F
:102490000FBECDBF1F921F921F921F921F921F92BD
:1024A0001F921F921F921F92812C9EE0A92E2BE05B
:1024B000C22E38E0E32E0DE12AE145E060E2CE01D4
:1024C00001960E94F60889E1FE013196A3ECB4E082
:1024D00001900D928A95E1F71F921F921F921F9211
:1024E0001F921F921F921F921F921F924EE1A42EC5
:1024F0005BE1C52E68E1E62E05E122E145E060E200
:10250000CE0101960E94F60889E1FE013196ACEDFC
:10251000B4E001900D928A95E1F7D092BE04109339
:10252000BF041F921F921F921F921F921F926F92C1
:10253000BF921F921F9272E1872EE0E1AE2EC12C56
:10254000E12C0AE028E04CE067E2CE0101960E940F
:10255000F60889E1FE013196ABE8B4E001900D92F6
:102560008A95E1F71F921F921F921F921F929F92CE
:102570001F92BF921F927F92812CFCE0EF2E00E011
:1025800028E04CE067E2CE0101960E94F60889E15E
:10259000FE013196A4EAB4E001900D928A95E1F72C
:1025A000D0928604F09287040FB6F894DEBF0FBE77
:1025B000CDBF1F921F921F921F921F921F921F92B8
:1025C0001F921F921F92AAE0AA2EB9E0CB2E08E01C
:1025D000E02E0FE12EE145E06AE2CE0101960E9475
:1025E000F60889E1FE013196A3E5B4E001900D9271
:1025F0008A95E1F71F921F921F921F921F921F92BE
:102600001F921F921F921F928AE1A82E99E1C92E54
:1026100028E1E22E07E126E145E06AE2CE010196DB
:102620000E94F60889E1FE013196ACE6B4E0019023
:102630000D928A95E1F734E0D32ED0924E04109299
:102640004F041F921F921F921F921F921F921F9260
:102650001F921F921F924AE5A42EC12C58E5E52E29
:1026600000E026E546E06CE0CE0101960E94F60807
:1026700089E1FE013196ABE1B4E001900D928A95BB
:10268000E1F71F921F921F921F921F921F921F929B
:102690001F921F921F926AE4A62E78E4E72E2EE581
:1026A00046E06CE0CE0101960E94F60889E1FE0149
:1026B0003196A4E3B4E001900D928A95E1F7D092AF
:1026C0001604109317040FB6F894DEBF0FBECDBFEB
:1026D0001F921F921F921F921F921F921F921F9272
:1026E0001F921F92A12CEDE4CE2EFCE4EF2E0AE403
:1026F00028E444E06DE1CE0101960E94F60889E1EC
:10270000FE013196A3EEB3E001900D928A95E1F7B8
:102710001F921F921F921F921F921F921F921F9231
:102720001F921F92ADE5CA2EBCE5EB2E0AE528E507
:1027300044E06DE1CE0101960E94F60889E1FE01B8
:102740003196ACEFB3E001900D928A95E1F7D0920B
:10275000DE03F092DF031F921F921F921F921F92BF
:102760001F921F921F921F921F9218E1C12E08E024
:10277000E02E08E120E144E062E2CE0101960E94F1
:10278000F60889E1FE013196ABEAB3E001900D92C3
:102790008A95E1F71F921F921F921F921F921F921C
:1027A0001F921F921F921F9288E0C82E98E1E92E77
:1027B00008E020E144E062E2CE0101960E94F608C2
:1027C00089E1FE013196A4ECB3E001900D928A9567
:1027D000E1F71092A6031092A7030FB6F894DEBF9C
:1027E0000FBECDBF1F921F921F921F921F921F926A
:1027F0001F921F921F921F92C12CE12C08ED28E01E
:1028000042E065E0CE0101960E94F60889E1FE01F2
:102810003196A3E7B3E001900D928A95E1F71F92FC
:102820001F921F921F921F921F921F921F921F9220
:102830001F9200E020E041E061E0CE0101960E949D
:10284000F60889E1FE013196ACE8B3E001900D9203
:102850008A95E1F710926E0310926F031F921F92F8
:102860001F921F921F921F921F921F921F921F92E0
:1028700008EC28E142E065E0CE0101960E94F608EE
:1028800089E1FE013196ABE3B3E001900D928A95A8
:10289000E1F71F921F921F921F921F921F921F9289
:1028A0001F921F921F9200E020E041E061E0CE0104
:1028B00001960E94F60889E1FE013196A4E5B3E095
:1028C00001900D928A95E1F710923603109237032A
:1028D0000FB6F894DEBF0FBECDBF1F921F921F929E
:1028E0001F921F921F921F921F921F921F920EEC17
:1028F0002AE142E065E0CE0101960E94F60889E1F6
:10290000FE013196A3E0B3E001900D928A95E1F7C4
:102910001F921F921F921F921F921F921F921F922F
:102920001F921F9200E020E041E061E0CE0101969D
:102930000E94F60889E1FE013196ACE1B3E0019016
:102940000D928A95E1F71092FE021092FF021F92FB
:102950001F921F921F921F921F921F921F921F92EF
:102960001F920AED2EE042E065E0CE0101960E9442
:10297000F60889E1FE013196ABECB2E001900D92D0
:102980008A95E1F71F921F921F921F921F921F922A
:102990001F921F921F921F9200E020E041E061E031
:1029A000CE0101960E94F60889E1FE013196A4EE5F
:1029B000B2E001900D928A95E1F70FB6F894DEBF70
:1029C0000FBECDBF69960FB6F894DEBF0FBECDBF68
:1029D000DF91CF911F910F91FF90EF90DF90CF90FB
:1029E000BF90AF909F908F907F906F905F90089571
:1029F0001F93CF93DF934CEF51E0A2E8B2E080E069
:102A000090E0FA0124912D9320E030E0EC01C050D9
:102A1000DE4FBC016A577D4FFE01E20FF31F149198
:102A2000FB01E20FF31F10832F5F3F4F2031310571
:102A300099F74F5F5F4F40968034910511F7DF9112
:102A4000CF911F910895CF93DF9300D0CDB7DEB71C
:102A50000E94F70E0E9451100E94F8140E94D101AA
:102A60000E9402040E94070F0E94A50F80ED92E0D1
:102A70000E949C0284E393E00E9404048FEF93E0A1
:102A80009A8389836FE6CE0101960E945E0B0F90B8
:102A90000F90DF91CF910895FF920F931F93CF93E3
:102AA000DF93F82ED62FC42F0E94B72700917C0207
:102AB00010917D0220917E0230917F02601B710B8C
:102AC000820B930B61157D478105910568F30E9488
:102AD000B72760937C0270937D0280937E0290936F
:102AE0007F024F2D50E0BA01759567955595479532
:102AF00055954795640F751F89E00E945A288D2FC0
:102B000090E0BC0175956795959587959595879506
:102B1000680F791F86E00E945A284C2F50E0BA01B6
:102B2000759567955595479555954795640F751F0C
:102B300085E0DF91CF911F910F91FF900C945A285F
:102B4000EF92FF920F931F93CF93DF93182F062FCF
:102B5000F42EE22EC0E0CE1589F0D0E0D23320F47E
:102B60004F2D602F812F03C040E060E080E00E9485
:102B70004C15DF5FD43691F7CF5FEDCF84E6C89F69
:102B8000A0011124662757FD6095762F809165027C
:102B900090916602A0916702B0916802840F951F20
:102BA000A61FB71F8093650290936602A0936702E9
:102BB000B0936802DF91CF911F910F91FF90EF903A
:102BC0000895CF93C82F25E040E060E880E00E94A0
:102BD000A015C03188F48C2F90E0880F991FFC015C
:102BE000E85DFE4F60817181FC01E85FFE4F8081EE
:102BF0009181CF910C94E80BC03119F4CF910C94D2
:102C0000F90FC13129F480ED92E0CF910C94C90203
:102C1000C23151F0C33669F40E94200F0E94F90FAF
:102C200080ED92E00E94C90284E393E0CF910C947E
:102C30000304CF910895CF93C82F25E040E060E0D2
:102C400080E80E94A015C03188F48C2F90E0880F96
:102C5000991FFC01E85DFE4F60817181FC01E85F16
:102C6000FE4F80819181CF910C94080CC03119F4F2
:102C7000CF910C94A50FC13129F480ED92E0CF9152
:102C80000C949C02C23151F0C33669F40E94070FC4
:102C90000E94A50F80ED92E00E949C0284E393E0E5
:102CA000CF910C940404CF910895803494F4803231
:102CB0000CF08054682F772767FD7095872F972F2A
:102CC0000E94462D20E030E040EA51E40E94B02C02
:102CD000089560E070E0CB01089583E196E00E94E2
:102CE0007E0B8BED95E00E947E0B83EA95E00E94BF
:102CF0007E0B8BE695E00E947E0B83E395E00E94BD
:102D00007E0B8BEF94E00E947E0B83EC94E00E949C
:102D10007E0B8BE894E00E947E0B83E594E00E949A
:102D20007E0B8BE194E00E947E0B83EE93E00E9489
:102D30007E0B8BEA93E00E947E0B83E793E00E9478
:102D40007E0B8BE393E00E947E0B83E093E00E9476
:102D50007E0B8BEC92E00E947E0B0E94B727609363
:102D60007C0270937D0280937E0290937F0208958F
:102D7000CF93DF93D82FC62F682F88E197E00E946A
:102D8000F8296C2F88E197E00E94F829C1110BC047
:102D9000ED2FF0E0EE0FFF1FE85FFE4F0190F08196
:102DA000E02D63A95EC0C13059F4ED2FF0E0EE0FC5
:102DB000FF1FE85FFE4F0190F081E02D64A951C034
:102DC000C23051F4ED2FF0E0EE0FFF1FE85FFE4F31
:102DD0000190F081E02D1BC0C33059F4ED2FF0E0DD
:102DE000EE0FFF1FE85FFE4F0190F081E02D618143
:102DF00038C0C43170F4ED2FF0E0EE0FFF1FE85F34
:102E0000FE4F0190F081E02DEC0FF11D32976081B3
:102E100028C0C43159F4ED2FF0E0EE0FFF1FE85F3A
:102E2000FE4F0190F081E02D618D1BC0C53159F43A
:102E3000ED2FF0E0EE0FFF1FE85FFE4F0190F081F5
:102E4000E02D628D0EC0C63290F4ED2FF0E0EE0F53
:102E5000FF1FE85FFE4F0190F081E02DEC0FF11DA8
:102E6000658188E197E0DF91CF910C94F829DF919B
:102E7000CF910895CF93DF93D82FC0E06C2F8D2F83
:102E80000E94B816CF5FC632C9F7DF91CF9108957F
:102E9000AF92BF92CF92DF92EF92FF920F931F9368
:102EA000CF93DF9372E8C72E72E0D72EE6E8EE2EBE
:102EB000E2E0FE2EC0E0D0E060E170E088E197E063
:102EC0000E94570BBE0188E197E00E94570BF60164
:102ED00061916F0188E197E00E94F82900E010E01D
:102EE0005E01FFEFAF1ABF0A60E170E088E197E092
:102EF0000E94570BB501600F711F88E197E00E9497
:102F0000570BF701E00FF11F608188E197E00E9405
:102F1000F8290F5F1F4F0031110531F7649680E1EA
:102F2000E80EF11CC035D10539F6DF91CF911F9124
:102F30000F91FF90EF90DF90CF90BF90AF900895EA
:102F40001F93CF93DF93D82F64E10E94E32E182FB5
:102F5000C92F60E170E088E197E00E94570B6D2F68
:102F600088E197E00E94F829E12FF0E0C11103C049
:102F7000EE57FD4F0AC0A4E0EE0FFF1FAA95E1F740
:102F8000EA57FD4FEC0FF11D3197608188E197E022
:102F9000DF91CF911F910C94F829DF92EF92FF926D
:102FA0000F931F93CF93DF93CBE6EC2EC1E0FC2E63
:102FB00000E010E0E801B3E0DB2E61E170E088E1C1
:102FC00097E00E94570BBE0188E197E00E94570BE3
:102FD000F701EC0FFD1F608188E197E00E94F8295E
:102FE000DA942196D110E9CF0C5F1F4F81E0E81AE7
:102FF000F10800381105F1F6DF91CF911F910F9183
:10300000FF90EF90DF900895CF93C82F61E170E0BB
:1030100088E197E00E94570B6C2F88E197E00E94AF
:10302000F8292C2F2370C695C6958C2F90E0FC01B3
:10303000EE0FFF1FE80FF91FE20FF11DE559FE4FDC
:10304000608188E197E0CF910C94F829EF92FF928C
:103050000F931F93CF93DF9300E010E0C0E0D0E028
:10306000C80185539E4F7C0162E170E088E197E0E2
:103070000E94570BBE01600F711F88E197E00E940C
:10308000570BF701EC0FFD1F608188E197E00E946C
:10309000F8292196C830D10539F7085F1F4F00384D
:1030A0001105E1F6DF91CF911F910F91FF90EF9005
:1030B0000895CF93C82F62E170E088E197E00E9405
:1030C000570B6C2F88E197E00E94F8298C2F8770AE
:1030D000C695C695C69598E0C99FF0011124E80FE2
:1030E000F11DE553FE4F608188E197E0CF910C948C
:1030F000F829982F862F903118F4892F0C94B81640
:10310000903111F40C94A017913111F40C9404181F
:10311000923111F40C9459180895CF93DF93D82F5E
:10312000C62F803118F40E94390F2AC0803129F44B
:10313000642F8C2F0E943A1023C0813181F4262FF6
:103140002695269530E0F901EE0FFF1FE20FF31FE1
:10315000862F8370E80FF11DE559FE4F10C08231B4
:1031600079F4E62FE695E695E69588E0E89FF0018C
:103170001124862F8770E80FF11DE553FE4F408321
:103180006C2F8D2FDF91CF910C947918CF93C82F8E
:1031900068EC70E088E197E00E94570B6C2F88E1A3
:1031A00097E00E94F8296091C60288E197E00E94AA
:1031B000F829C03119F40E94481745C0C13119F4EB
:1031C0000E94CD1740C0C231B1F1C336B9F50E949B
:1031D000CD1780E00E943A1781E00E943A1782E002
:1031E0000E943A1783E00E943A1784E00E943A173F
:1031F00085E00E943A1786E00E943A1787E00E9415
:103200003A1788E00E943A1789E00E943A178AE04C
:103210000E943A178BE00E943A178CE00E943A17FE
:103220008DE00E943A178EE00E943A178FE00E94CC
:103230003A170E9448170E94261805C0C03118F49A
:103240008C2F0E943A1769EC70E088E197E00E94A9
:10325000570B6C2F88E197E00E94F8296091C60215
:1032600088E197E0CF910C94F829E091C602F0E054
:10327000EE0FFF1FE85FFE4F808191819093CA029D
:103280008093C90210925E0210925F021092600257
:10329000109261020E94DB0BE091C902F091CA0218
:1032A00012AA10926C0210926D0210926E0210928D
:1032B0006F021092700210927102109272021092BC
:1032C000730210927402109275021092760210929C
:1032D000770280916B02843690F06AEF70E088E1AB
:1032E00097E00E94570B6091C60288E197E00E9428
:1032F000F82960916B0288E197E00C94F829089511
:103300008230C9F028F4882341F0813059F00895C3
:103310008A30A9F0843131F108958091C60290E09D
:103320000F9604C08091C60290E001968F70992795
:103330008093C60202C06093C6020C9435196130B6
:1033400049F030F0623051F0633051F487E603C049
:1033500084E601C086E680936A0204C085E6FBCF5E
:1033600010926A026093C8024093C70208951092B7
:103370008002E091810280E1E89FF0011124EA5788
:10338000FD4F80818093C6020C943519E091810233
:10339000F0E08091800290E00196DF01AE57BD4FD2
:1033A0006C9170E00E94032F8093800274E0EE0F16
:1033B000FF1F7A95E1F7E80FF91FEA57FD4F80816B
:1033C0008093C6020C943519EF92FF921F93CF930E
:1033D000DF931F92CDB7DEB788E197E00E947A298C
:1033E00004970CF462C088E197E00E9493297C0165
:1033F00088E197E00E949329182F88E197E00E94C6
:103400009329682F88E197E069830E949329482FC8
:103410009701332769812235310561F184F4243421
:103420003105F9F02C34310509F03FC0812F0F90A0
:10343000DF91CF911F91FF90EF900C94E11527350C
:10344000310509F12835310539F12335310569F5A3
:10345000812F0F90DF91CF911F91FF90EF900C94EF
:103460001B16812F0F90DF91CF911F91FF90EF904E
:103470000C94C618812F0F90DF91CF911F91FF9070
:10348000EF900C947918812F0F90DF91CF911F91BD
:10349000FF90EF900C948D18812F0F90DF91CF91BA
:1034A0001F91FF90EF900C9480190F90DF91CF91B6
:1034B0001F91FF90EF900895CF93DF93D82FC62FE1
:1034C0006CE470E08BE496E00E94BC246D2F8BE4EA
:1034D00096E00E9459246C2F8BE496E00E945924B8
:1034E0008BE496E0DF91CF910C94D1248BE496E0AD
:1034F0000E94982460E087E00E945C1A60E186E008
:103500000E945C1A60E088E00E945C1A61E087E03B
:103510000C945C1A26E040E051EE60E070E088E137
:1035200097E00E945D2A80E00E943D28BC01882728
:1035300077FD8095982F0E949C2B61E089E00E9486
:10354000E22861E086E00E94E22861E085E00E94D6
:10355000E22860E082E00E94E22861E081E10E94CE
:10356000E22842E050E062E57BE080E00E94E32652
:103570008DEF93E00E94550B91E0811101C090E026
:10358000909354028CEF93E00E94550B809381023C
:103590008EEF93E00E94550B8823A1F060E08EEF40
:1035A00093E00E94530B20E030E040E050E06AE0FE
:1035B00070E08AE691E00E947A0185E080936A02D9
:1035C00080936B0280E00E9403278FEF93E00E94BC
:1035D000550B8F3619F00E9423150CC00E94200F46
:1035E0000E94F90F80ED92E00E94C90284E393E00B
:1035F0000E94030461E081E10E941B290E94B71927
:103600000E94761AF89410927A0085B5887F8160BE
:1036100085BD80918100887F816080938100809149
:103620008100886080938100789468E270E080E097
:1036300090E00E94DA270E94B72760937C02709383
:103640007D0280937E0290937F0264E670E088E1C1
:1036500097E00E94570B6091C60288E197E00E94B4
:10366000F82960E070E088E197E00C94570B8BE458
:1036700096E00E94982460E187E00C945C1A40E098
:1036800060E080E00E944C150E94371B60E081E101
:103690000E941B2960EA7FE080E090E00E94DA2728
:1036A00061E08EEF93E00E94530B60E07AEF80E0E0
:1036B00090E00E94DA2728E088E190E00FB6F894C5
:1036C000A895809360000FBE2093600061E081E1C7
:1036D0000E941B290E94761A0E94B7191092630259
:1036E0001092640260EA7FE080E090E00C94DA27B8
:1036F000CF93DF93C82F40916B0250E048365105BD
:1037000008F090C6FA01E158FF4F0C94582F882317
:1037100009F48AC68091650290916602A0916702C1
:10372000B091680284369105A105B10508F47CC604
:1037300081E080936A0278C64091650250916602EA
:103740006091670270916802483E534061057105BF
:1037500020F082E080936A0267C6811165C680917D
:103760006402882339F08091630291E08927809375
:10377000630202C00E94C61910926A0255C64091A7
:103780006502509166026091670270916802452B54
:10379000462B472B31F425E040E860E880E80E94A2
:1037A000A015409165025091660260916702709188
:1037B0006802403D57406105710520F084E0809328
:1037C0006A0232C6C11130C60E943F1B85E0809359
:1037D0006A022AC6409165025091660260916702B2
:1037E00070916802452B462B472B31F425E040E0D1
:1037F00060E880E80E94A015409165025091660241
:103800006091670270916802403D57406105710503
:1038100020F083E080936A0207C6C11105C6E091DB
:10382000C902F091CA0215AA109269028AE0809337
:103830006A02FAC540916502509166026091670282
:1038400070916802452B462B472B31F425E040E868
:1038500060E080E00E94A0154091650250916602F0
:103860006091670270916802403D574061057105A3
:1038700020F082E080936A02D7C5C111D5C580913E
:10388000640291E08927809364021092630210928F
:103890006A02CAC580915402882321F1C1110BC06C
:1038A0000E943F1B109265021092660210926702FE
:1038B00010926802B9C58091650290916602A0914C
:1038C0006702B091680280379741A105B10508F4FD
:1038D000ABC560E08DEF93E00E94530B89E08093CD
:1038E0006A02A2C5C11103C010926A029DC58091EF
:1038F000650290916602A0916702B0916802803DD6
:103900009740A105B10508F48FC586E080936A024F
:103910008BC540916502509166026091670270917B
:103920006802452B462B472B31F425E040E860E048
:1039300080E00E94A015C11106C01092620286E4C8
:1039400080936A0271C58091650290916602A09190
:103950006702B0916802813A9F40A105B10508F461
:1039600063C587E080936A025FC54091650250910C
:1039700066026091670270916802452B462B472BC7
:1039800031F425E040E060E880E00E94A015C1111C
:103990000BC061E08DEF93E00E94530B0E943F1B30
:1039A00085E080936A0240C580916502909166022D
:1039B000A0916702B0916802803A9F40A105B105CD
:1039C00008F432C588E080936A022EC540916502F2
:1039D000509166026091670270916802452B462BF8
:1039E000472B31F425E040E060E080E80E94A0151C
:1039F000C1111AC50E9423150E94B71910926A02BC
:103A000013C5409165025091660260916702709102
:103A10006802452B462B472B31F425E040E460E457
:103A200080E40E94A015C111FFC410926A02FCC478
:103A3000882309F4F9C48091650290916602A091EF
:103A40006702B091680285369105A105B10508F4B9
:103A5000EBC48BE080936A02E7C481110EC08091B1
:103A6000690290E0019666E070E00E94032F809367
:103A700069028AE080936A02D7C4809165029091BE
:103A80006602A0916702B0916802883E9340A1054A
:103A9000B10508F4C9C48CE080936A02C5C44091A2
:103AA0006502509166026091670270916802452B31
:103AB000462B472B31F425E040E060E880E80E9487
:103AC000A015C1111DC080916902E091C902F09159
:103AD000CA02823020F415AA82AB84E10BC0843084
:103AE00020F4817082AB88E205C0843011F482E357
:103AF00001C08CE380936A02CF010E94DB0B94C467
:103B00008091650290916602A0916702B09168026F
:103B1000803D9740A105B10508F486C48DE08093EF
:103B20006A0282C440916502509166026091670208
:103B300070916802452B462B472B31F425E040E875
:103B400060E880E80E94A015C1116EC48091C9028E
:103B50009091CA020E94DB0B10926A0265C488230E
:103B600009F462C48091650290916602A091670297
:103B7000B091680285369105A105B10508F454C4D9
:103B800085E180936A0250C44091650250916602BB
:103B90006091670270916802483E5340610571056B
:103BA00050F025E040E460E480E40E94A01587E145
:103BB00080936A0239C4C11137C4E091C902F091FF
:103BC000CA0292A985A929E1929FE00DF11D112455
:103BD000E80FF11D828190E081968F719927828391
:103BE00084E180936A0220C440916502509166028C
:103BF0006091670270916802452B462B472B31F488
:103C000025E040E460E480E40E94A0154091650254
:103C1000509166026091670270916802403D574082
:103C200061057105C8F0E091C902F091CA0292A93C
:103C300085A929E1929FE00DF11D1124E80FF11DE6
:103C40008281805C828310926502109266021092DB
:103C5000670210926802E8C3C111E6C3E091C9028D
:103C6000F091CA0282A9DF0199E1899FA00DB11DDF
:103C7000112485A98F5F11968C938EE180936A023F
:103C8000D3C3882309F4D0C3809165029091660262
:103C9000A0916702B091680285369105A105B10532
:103CA00008F4C2C38FE180936A02BEC340916502EB
:103CB000509166026091670270916802403D5740E2
:103CC0006105710520F080E280936A02ADC3811125
:103CD000ABC3E091C902F091CA0285A98F5F85ABA1
:103CE000803151F425E040E860E880E80E94A015AA
:103CF0008AE580936A0298C384E180936A0294C340
:103D0000409165025091660260916702709168026D
:103D1000452B462B472B31F425E040E060E080E85E
:103D20000E94A01540916502509166026091670261
:103D300070916802403D57406105710520F081E2B5
:103D400080936A0271C3C1116FC3E091C902F091FF
:103D5000CA0285A9811104C084E180936A0264C308
:103D6000815085AB82A999E1899FE00DF11D112455
:103D70008181815081838EE180936A0255C3409195
:103D80006502509166026091670270916802452B4E
:103D9000462B472B31F425E040E860E880E80E949C
:103DA000A015C11141C3E091C902F091CA0282A9D4
:103DB000DF0129E1829FA00DB11D112485A98F5F2C
:103DC00011968C938AE580936A022EC3882309F4A6
:103DD0002BC38091650290916602A0916702B09119
:103DE000680285369105A105B10508F41DC389E275
:103DF00080936A0219C340916502509166026091F6
:103E0000670270916802403D57406105710520F0DE
:103E10008AE280936A0208C3C11106C3E091C90215
:103E2000F091CA0282A9EF0199E1899FC00DD11DCD
:103E30001124888190E0019660E370E00E94032FD6
:103E40008883CF010E94DB0B88E280936A02ECC278
:103E5000409165025091660260916702709168021C
:103E6000452B462B472B31F425E040E860E880E8FD
:103E70000E94A015C111D8C28AE580936A02D4C2FB
:103E8000882309F4D1C28091650290916602A091C5
:103E90006702B091680285369105A105B10508F465
:103EA000C3C283E380936A02BFC2811110C0E09154
:103EB000C902F091CA0283A990E0019665E070E022
:103EC0000E94032F83AB82E380936A02ADC280918C
:103ED000650290916602A0916702B0916802803DF0
:103EE0009740A105B10508F49FC284E380936A025C
:103EF0009BC2409165025091660260916702709189
:103F00006802452B462B472B31F425E040E860E85A
:103F100080E80E94A015C11187C28AE580936A02D9
:103F200083C2882309F480C2809165029091660261
:103F3000A0916702B091680285369105A105B1058F
:103F400008F472C28DE380936A026EC2811110C0C0
:103F5000E091C902F091CA0284A990E0019663E061
:103F600070E00E94032F84AB8CE380936A025CC2F2
:103F70008091650290916602A0916702B0916802FB
:103F8000803D9740A105B10508F44EC28EE38093B1
:103F90006A024AC2409165025091660260916702CE
:103FA00070916802452B462B472B31F425E040E801
:103FB00060E880E80E94A015C11136C28AE58093AE
:103FC0006A0232C2882309F42FC28091650290915F
:103FD0006602A0916702B091680284369105A1053E
:103FE000B10508F421C287E480936A021DC24091A2
:103FF0006502509166026091670270916802483EC6
:1040000053406105710520F088E480936A020CC278
:10401000C1110AC26091810270E06F5F7F4F6370CF
:104020007727609381028CEF93E00E94530B0E94EC
:10403000B71986E480936A02F7C1409165025091F6
:1040400066026091670270916802452B462B472BF0
:1040500031F425E040E860E080E00E94A015409146
:104060006502509166026091670270916802403D5E
:1040700057406105710520F089E480936A02D4C13C
:10408000C111D2C110926A02CFC140916502509114
:1040900066026091670270916802452B462B472BA0
:1040A00031F425E040E060E880E80E94A0154091EE
:1040B0006502509166026091670270916802403D0E
:1040C00057406105710520F08AE480936A02ACC113
:1040D000C111AAC10E94B71980E580936A02A4C1E8
:1040E000409165025091660260916702709168028A
:1040F000452B462B472B31F425E040E060E880E07B
:104100000E94A015C11190C1109255021092560242
:10411000109257021092580210925D0210925902AA
:1041200010925A0210925B0210925C0210920401EB
:104130001092050110920601109207018BE4809302
:104140006A0272C1409165025091660260916702F5
:1041500070916802882309F446C04536510561050F
:10416000710508F440C020915D02222369F180911D
:10417000590290915A02A0915B02B0915C02409169
:104180000401509105016091060170910701840FAF
:10419000951FA61FB71F8093040190930501A0935C
:1041A0000601B0930701243078F0D2E0880F991F00
:1041B000AA1FBB1FDA95D1F78093040190930501E4
:1041C000A0930601B09307012F5F20935D02109228
:1041D000590210925A0210925B0210925C028CE417
:1041E00080936A0221C141325E446105710508F481
:1041F0001BC180E09AEFA0E0B0E0809304019093AF
:104200000501A0930601B093070110926A020CC148
:1042100081110AC180915D02853070F010925E02BA
:1042200010925F02109260021092610281E080930E
:10423000620210926A02F8C08BE480936A02F4C0B2
:10424000882309F4F1C08091650290916602A091E3
:104250006702B091680285369105A105B10508F4A1
:10426000E3C081E580936A02DFC04091650250910E
:1042700066026091670270916802403D5740610597
:10428000710520F082E580936A02CEC08111CCC016
:10429000E09181028091800220E1E29FF0011124EF
:1042A000E80FF11DEA57FD4F808190E001968F7075
:1042B00099278083FC01EE0FFF1FE85FFE4F80818E
:1042C00091819093CA028093C9020E94DB0B80E522
:1042D00080936A02A9C04091650250916602609184
:1042E000670270916802452B462B472B31F425E07D
:1042F00040E860E080E80E94A0154091650250917E
:1043000066026091670270916802403D5740610506
:10431000710520F083E580936A0286C0C11184C0D4
:10432000809180028F5F80938002E09181028031D2
:1043300041F4F0E0EE57FD4F80838BE580936A02F5
:1043400073C090E1E99FF0011124E80FF11DEA57D5
:10435000FD4FE081F0E0EE0FFF1FE85FFE4F808130
:1043600091819093CA028093C9020E94DB0B80E581
:1043700080936A0259C04091650250916602609133
:10438000670270916802452B462B472B31F425E0DC
:1043900040E860E880E80E94A015C11145C0E091A6
:1043A0008102F0E0EE57FD4F809180028F5F8083A5
:1043B0008BE580936A0238C080918002E09181028F
:1043C00020E1E29FF0011124E80FF11DEA57FD4FB3
:1043D000E081F0E0EE0FFF1FE85DFE4F608171812C
:1043E0008091C9029091CA020E94080C8091C90272
:1043F0009091CA020E94DB0B10926A0215C00E94C3
:10440000A50F0E94B71910926A020EC010926202A4
:104410000BC01092620208C01092620205C0109296
:10442000620202C010926A0280916A0290916B024D
:10443000981759F080936B021092650210926602F1
:10444000109267021092680213C0809165029091E9
:104450006602A0916702B09168020196A11DB11D8C
:104460008093650290936602A0936702B0936802FE
:104470008091590290915A02A0915B02B0915C0226
:104480000196A11DB11D8093590290935A02A093E9
:104490005B02B0935C02DF91CF9108956CE470E011
:1044A0008BE496E00E94BC24E0914B06F0914C0610
:1044B0000190F081E02D60E08BE496E009958BE4BB
:1044C00096E00E94D12443E050E06CE470E08BE47D
:1044D00096E00E94AF248BE496E00E940124892B91
:1044E00091F08BE496E00E94092480937A028BE499
:1044F00096E00E940924809379028BE496E00E9462
:104500000924809378020895CF92DF92EF92FF9270
:104510000F931F93CF93DF9300D01F92CDB7DEB7D9
:104520000E94E41982E00E94512921E0892B09F0C0
:1045300020E0822F0E94781B80917B02843110F052
:1045400010927B0280916B029FEF980F933618F4C4
:10455000863409F054C080917B02811103C00E940F
:104560004E224DC0813069F480917A020E94551626
:104570006093740270937502809376029093770231
:104580003EC0823069F4809179020E945516609392
:1045900070027093710280937202909373022FC025
:1045A000833069F4809178020E94551660936C0202
:1045B00070936D0280936E0290936F0220C08430DE
:1045C000F1F4C0906C02D0906D02E0906E02F09019
:1045D0006F0200917002109171022091720230916D
:1045E000730240917402509175026091760270914D
:1045F00077028091C9029091CA020E943B0C80917F
:104600007B028F5F80937B0280916B02811110C0CF
:104610009E012F5F3F4FAE014E5F5F4FBE016D5F4A
:104620007F4F8091C9029091CA020E94A90B9BC042
:104630008A3010F41B8269C08431A8F48091690229
:10464000823009F45CC038F4882309F45CC08130FE
:1046500009F451C039C0833019F08430C1F134C03D
:104660001B828FEF3AC08E31D0F4E091C902F091F5
:10467000CA0285A992A929E1929FE00DF11D11249A
:10468000E80FF11D9E012F5F3F4FAE014E5F5F4F60
:10469000BE016D5F7F4F82810E94F60264C082334B
:1046A00008F4B6CF8C33D8F4E091C902F091CA0275
:1046B00083A9823001F118F4813029F10CC08330D4
:1046C00019F0843021F007C08FEF8B8302C01B826A
:1046D0008FEF8A831BC080E48B838A8343C0863438
:1046E000B8F4E091C902F091CA0284A9882319F0B4
:1046F000813029F008C01B821A828FEF33C08FEF00
:104700008B831A822FC08FEF8B831A8219822BC062
:10471000863608F47DCF863631F58091C80290E068
:104720002091C702FC01EE0FFF1FE80FF91FE559AA
:10473000FE4F808190E0022E02C0959587950A94E5
:10474000E2F78B83818190E0022E02C095958795D8
:104750000A94E2F78A83828190E002C0959587955A
:104760002A95E2F7898380916402882339F0809149
:104770006302882319F01B821A82198280916B02CE
:1047800081111BC0809162028823B9F040915E02C2
:1047900050915F026091600270916102809104010A
:1047A00090910501A0910601B0910701841795072A
:1047B000A607B70710F40E94C61949816A818B8148
:1047C0000E944C1580915E0290915F02A091600260
:1047D000B09161020196A11DB11D80935E0290937C
:1047E0005F02A0936002B09361020F900F900F9050
:1047F000DF91CF911F910F91FF90EF90DF90CF90BD
:10480000089580917B0690E020917C06821B91099F
:10481000089520917C0680917B06281750F4E22FA2
:10482000F0E0E358F94F808190E02F5F20937C0601
:1048300008958FEF9FEF0895E0917C0680917B06AD
:10484000E81730F4F0E0E358F94F808190E00895E4
:104850008FEF9FEF08950895CF92DF92EF92FF922E
:104860000F931F93CF93DF937C01CB018A0120919B
:104870005706222389F0EB016B01C40ED51ECC151F
:10488000DD0569F06991D701ED91FC910190F0810E
:10489000E02DC7010995F3CF642F0E948D25C80133
:1048A000DF91CF911F910F91FF90EF90DF90CF900C
:1048B0000895CF93DF931F92CDB7DEB76983209120
:1048C00057062223D1F020915806203240F021E0F3
:1048D00030E0FC013383228380E090E015C08091BA
:1048E0005906E82FF0E0E65AF94F998190838F5FDF
:1048F000809359068093580605C061E0CE01019669
:104900000E948D2581E090E00F90DF91CF91089576
:10491000FC011382128248EE53E060E070E04483B1
:104920005583668377838DE491E091838083089536
:1049300010927C0610927B0610925906109258062F
:104940000C94D824862F413208F040E26DE776E0DF
:104950000E94F62410927C0680937B06089521E045
:104960000C94A22481E08093570660937A061092FB
:1049700059061092580608950C94B2240F93062FEE
:1049800021E0409158066AE576E080917A060E941F
:104990003A251092590610925806109257060F9118
:1049A000089561E00C94BE248BE496E00C94882476
:1049B00010920A0781E0809308071092070761E0D0
:1049C00082E10E941B2961E083E10E941B29E9EB3F
:1049D000F0E080818E7F808380818D7F808388E47A
:1049E0008093B80085E48093BC000895413208F0BC
:1049F0003FC090910A079111FCCF91E090930A0774
:104A0000209308072FEF20939D061092E206240FB3
:104A10002093E1069093090790910907880F892B4D
:104A20008093090780910707813041F410920707AE
:104A3000809109078093BB0085EC01C085EE8093CF
:104A4000BC0080910A078130E1F38091E20684176F
:104A500010F44091E20623EE36E0FB01D9018A2FE3
:104A6000821B841718F48D918193F9CF842F0895B8
:104A700080E008950F93413208F046C090910A07F4
:104A80009111FCCF92E090930A07009308079FEFE3
:104A900090939D061092E2064093E106FB0163EEBF
:104AA00076E0DB019A2F961B941718F491919D9351
:104AB000F9CF1092090790910907880F892B8093ED
:104AC000090780910707813041F410920707809110
:104AD00009078093BB0085EC01C085EE8093BC0084
:104AE000222321F080910A078230E1F380919D0614
:104AF0008F3F61F080919D06803251F080919D063C
:104B0000803341F483E007C081E005C080E003C04A
:104B100082E001C084E00F910895613298F4209101
:104B20000A07243089F46093BF06FC0181EC96E00B
:104B3000DC012A2F281B261718F421912D93F9CF79
:104B400080E0089581E0089582E0089585ED8093E6
:104B5000BC008091BC0084FDFCCF10920A07089530
:104B600085EC8093BC0010920A0708951F920F9263
:104B70000FB60F9211242F933F934F935F936F9330
:104B80007F938F939F93AF93BF93EF93FF93809106
:104B9000B900887F803609F49CC068F5883209F432
:104BA0005BC090F4803109F454C038F4882309F4D0
:104BB000F5C0883009F44DC0F5C0883109F44CC007
:104BC000803209F45DC0EEC0803409F468C048F456
:104BD000803309F455C0883309F0E4C080939D0602
:104BE000A8C0803509F44FC0883509F45DC0883409
:104BF00009F0D8C0D5C0883909F4C6C0A8F48837F0
:104C000009F467C038F4883609F463C0803709F4C2
:104C100060C0C8C0883809F4B7C0803909F45FC0E3
:104C2000803809F0BFC05BC0803B09F485C038F410
:104C3000803A09F466C0883A09F47EC0B3C0803C6B
:104C400009F4A6C0883C09F4A3C0883B09F489C0D4
:104C5000A9C08091090710C09091E2068091E106F9
:104C6000981770F5E091E20681E08E0F8093E206DE
:104C7000F0E0ED51F94F80818093BB0085EC85C059
:104C800080939D068DC0E091E20681E08E0F8093B7
:104C9000E2068091BB00F0E0ED51F94F80839091E6
:104CA000E2068091E1066DC0E091E20681E08E0FA0
:104CB0008093E2068091BB00F0E0ED51F94F8083D4
:104CC0008091080781116CC081E08093070784EA16
:104CD00060C083E080930A0710929E06CFCF809138
:104CE0009E06803208F050C0E0919E0681E08E0F53
:104CF00080939E068091BB00F0E0E156F94F8083DF
:104D0000BDCF80919E06803230F4E0919E06F0E0A7
:104D1000E156F94F10820E94A62560919E0670E030
:104D2000E0910307F09104078FE996E0099510924E
:104D30009E060E94B02536C084E080930A07109238
:104D4000C0061092BF06E0910507F091060709958D
:104D50008091BF06811105C081E08093BF0610924B
:104D6000C106E091C00681E08E0F8093C006F0E09E
:104D7000EF53F94F80818093BB009091C0068091E2
:104D8000BF06981708F47ACF85E88093BC000AC064
:104D900085EC8093BC0010920A0704C010929D0617
:104DA0000E94A625FF91EF91BF91AF919F918F91A6
:104DB0007F916F915F914F913F912F910F900FBE17
:104DC0000F901F9018958230E8F4E82FF0E0EE0F76
:104DD000FF1FE55FF84F71836083813041F0809160
:104DE00069008C7F842B80936900E89A08958091F4
:104DF0006900440F551F440F551F837F842B8093F8
:104E00006900E99A0895823068F4813011F0E898D9
:104E100001C0E998E82FF0E0EE0FFF1FE55FF84FC3
:104E20001182108208951F920F920FB60F921124D3
:104E30002F933F934F935F936F937F938F939F93A2
:104E4000AF93BF93EF93FF9380910B0790910C0763
:104E5000892B29F0E0910B07F0910C070995FF9140
:104E6000EF91BF91AF919F918F917F916F915F91E2
:104E70004F913F912F910F900FBE0F901F9018955B
:104E80001F920F920FB60F9211242F933F934F93BF
:104E90005F936F937F938F939F93AF93BF93EF93A2
:104EA000FF9380910D0790910E07892B29F0E091D7
:104EB0000D07F0910E070995FF91EF91BF91AF910A
:104EC0009F918F917F916F915F914F913F912F9122
:104ED0000F900FBE0F901F9018951F920F920FB654
:104EE0000F9211242F933F938F939F93AF93BF9370
:104EF0008091100790911107A0911207B0911307AC
:104F000030910F0723E0230F2D3720F40196A11DC8
:104F1000B11D05C026E8230F0296A11DB11D2093E7
:104F20000F078093100790931107A0931207B09377
:104F300013078091140790911507A0911607B0915F
:104F400017070196A11DB11D8093140790931507B3
:104F5000A0931607B0931707BF91AF919F918F91C0
:104F60003F912F910F900FBE0F901F9018953FB754
:104F7000F8948091140790911507A0911607B091AD
:104F8000170726B5A89B05C02F3F19F00196A11D54
:104F9000B11D3FBF6627782F892F9A2F620F711D91
:104FA000811D911D42E0660F771F881F991F4A954A
:104FB000D1F70895CF92DF92EF92FF92CF93DF93D4
:104FC0006B017C010E94B727EB01C114D104E104FD
:104FD000F10489F00E94E42B0E94B7276C1B7D0B23
:104FE000683E734090F381E0C81AD108E108F108E7
:104FF000C851DC4FEACFDF91CF91FF90EF90DF9067
:10500000CF900895789484B5826084BD84B5816022
:1050100084BD85B5826085BD85B5816085BDEEE6C0
:10502000F0E0808181608083E1E8F0E0108280819F
:1050300082608083808181608083E0E8F0E080810D
:1050400081608083E1EBF0E0808184608083E0EB2D
:10505000F0E0808181608083EAE7F0E08081846015
:105060008083808182608083808181608083808171
:10507000806880831092C10008958E3008F08E50B1
:1050800087702091480190E4299F90011124822B80
:1050900080937C0080917A00806480937A00809174
:1050A0007A0086FDFCCF809178002091790090E015
:1050B000922B08951F93CF93DF93182FEB0161E09C
:1050C0000E94E228209711F460E004C0CF3FD10590
:1050D00039F461E0812FDF91CF911F910C941B294E
:1050E000E12FF0E0E05CFD4FE491E330F9F048F4AB
:1050F000E130B9F0E230A1F584B5806284BDC8BD6D
:1051000034C0E730E9F0E83019F1E43049F5809136
:105110008000806280938000D0938B00C0938A00CF
:1051200024C084B5806884BDC7BD1FC08091800045
:10513000806880938000D0938900C093880015C058
:105140008091B00080688093B000C093B3000DC020
:105150008091B00080628093B000C093B40005C01D
:10516000C038D1050CF0B5CFAFCFDF91CF911F91F3
:105170000895833081F028F4813099F08230A1F0D5
:1051800008958730A9F08830B9F08430D1F4809147
:1051900080008F7D03C0809180008F778093800096
:1051A000089584B58F7702C084B58F7D84BD08953E
:1051B0008091B0008F7703C08091B0008F7D809385
:1051C000B0000895CF93DF9390E0FC01EC5AFD4FBF
:1051D0002491FC01E859FD4F8491882349F190E026
:1051E000880F991FFC01E057FD4FA591B4918A5794
:1051F0009D4FFC01C591D4919FB7611108C0F894EF
:105200008C91209582238C93888182230AC06230FE
:1052100051F4F8948C91322F309583238C938881AC
:10522000822B888304C0F8948C91822B8C939FBF2F
:10523000DF91CF9108950F931F93CF93DF931F9228
:10524000CDB7DEB7282F30E0F901E05CFD4F849147
:10525000F901EC5AFD4F1491F901E859FD4F049101
:105260000023C9F0882321F069830E94B92869814D
:10527000E02FF0E0EE0FFF1FEA57FD4FA591B4912C
:105280009FB7F8948C91611103C01095812301C0E0
:10529000812B8C939FBF0F90DF91CF911F910F9126
:1052A0000895CF93DF93282F30E0F901E05CFD4FA4
:1052B0008491F901EC5AFD4FD491F901E859FD4F61
:1052C000C491CC2391F081110E94B928EC2FF0E019
:1052D000EE0FFF1FE458FD4FA591B4912C912D23A3
:1052E00081E090E021F480E002C080E090E0DF9176
:1052F000CF910895FC01818D228D90E0805C9F4FBD
:10530000821B91098F7399270895FC01918D828DDD
:10531000981731F0828DE80FF11D858D90E008958A
:105320008FEF9FEF0895FC01918D828D981761F0AA
:10533000828DDF01A80FB11D5D968C91928D9F5FCC
:105340009F73928F90E008958FEF9FEF089587E10C
:105350009BE2892B49F080E090E0892B29F00E94A4
:10536000172B81110C9400000895FC01848DDF013E
:10537000A80FB11DA35ABF4F2C91848D90E00196C8
:105380008F739927848FA689B7892C93A089B189B7
:105390008C9180648C93938D848D981306C00288C1
:1053A000F389E02D80818F7D80830895CF93DF93F3
:1053B000EC01888D8823C9F0EA89FB89808185FD0D
:1053C00005C0A889B9898C9186FD0FC00FB607FC6E
:1053D000F5CF808185FFF2CFA889B9898C9185FFAF
:1053E000EDCFCE010E94B529E7CFDF91CF9108958F
:1053F000CF92DF92FF920F931F93CF93DF931F9271
:10540000CDB7DEB76C0181E0D60158968C935897E2
:105410005B969C915B975C968C915C97981307C008
:105420005096ED91FC915197808185FD2EC0F6013B
:10543000038D10E00F5F1F4F0F731127F02EF60141
:10544000848DF81211C00FB607FCF9CFD601509623
:10545000ED91FC915197808185FFF1CFC601698361
:105460000E94B5296981EBCF838DE80FF11DE35AC6
:10547000FF4F6083D6015B960C935B975296ED913C
:10548000FC915397808180620CC0D6015696ED91B5
:10549000FC91579760835096ED91FC9151978081D4
:1054A0008064808381E090E00F90DF91CF911F9125
:1054B0000F91FF90DF90CF900895BF92CF92DF922F
:1054C000EF92FF92CF93DF93EC016A017B01B22E42
:1054D000E889F98982E08083411581EE58076105EA
:1054E0007105A1F060E079E08DE390E0A7019601FD
:1054F0000E94172F215031094109510956954795AE
:1055000037952795211580E1380798F0E889F989C2
:10551000108260E874E88EE190E0A70196010E9495
:10552000172F215031094109510956954795379553
:105530002795EC85FD853083EE85FF852083188EC9
:10554000EC89FD89B082EA89FB8980818061808352
:10555000EA89FB89808188608083EA89FB89808170
:1055600080688083EA89FB8980818F7D8083DF91D9
:10557000CF91FF90EF90DF90CF90BF9008951F9252
:105580000F920FB60F9211242F938F939F93EF9347
:10559000FF93E0912807F09129078081E0912E0781
:1055A000F0912F0782FD12C09081809131078F5FAB
:1055B0008F7320913207821751F0E0913107F0E0AC
:1055C000E85EF84F958F8093310701C08081FF918D
:1055D000EF919F918F912F910F900FBE0F901F9081
:1055E00018951F920F920FB60F9211242F933F938D
:1055F0004F935F936F937F938F939F93AF93BF93DB
:10560000EF93FF9388E197E00E94B529FF91EF9116
:10561000BF91AF919F918F917F916F915F914F91CA
:105620003F912F910F900FBE0F901F90189588E11A
:1056300097E00E947A2921E0892B09F420E0822F4B
:10564000089510921B0710921A0788EE93E0A0E0CD
:10565000B0E080931C0790931D07A0931E07B093A2
:105660001F078DE591E0909319078093180785EC4B
:1056700090E0909325078093240784EC90E090932A
:1056800027078093260780EC90E09093290780936A
:10569000280781EC90E090932B0780932A0782ECF7
:1056A00090E090932D0780932C0786EC90E09093E8
:1056B0002F0780932E071092310710923207109215
:1056C000330710923407089508950E9402280E941B
:1056D000642B0E948A1AC7EAD9E20E94842220978A
:1056E000E1F30E94A729F9CFCF92DF92EF92FF92C8
:1056F0000F931F93CF93DF936C017A01EB01E60EBA
:10570000F71E00E010E0CE15DF0561F06991D601CB
:10571000ED91FC910190F081E02DC6010995080FF3
:10572000191FF1CFC801DF91CF911F910F91FF9009
:10573000EF90DF90CF900895611571058105910577
:1057400011F00C94CC2F0895CF93DF9300D000D0AC
:10575000CDB7DEB79B01AC016115710581059105DF
:1057600069F069833A834B835C830E94C72F298148
:105770003A814B815C810E94392F03C060E070E068
:10578000CB010F900F900F900F90DF91CF91089564
:10579000CF92DF92EF92FF926B017C016217730749
:1057A0008407950764F4CA01B9016C197D098E0953
:1057B0009F090E94A42B6C0D7D1D8E1D9F1DFF90C7
:1057C000EF90DF90CF90089508955058BB27AA27F7
:1057D0000ED0F7C1E8D130F0EDD120F031F49F3F89
:1057E00011F41EF4B8C10EF4E095E7FBAEC1E92F49
:1057F000F9D180F3BA17620773078407950718F089
:1058000071F49EF511C20EF4E0950B2EBA2FA02D67
:105810000B01B90190010C01CA01A0011124FF275D
:10582000591B99F0593F50F4503E68F11A16F04058
:10583000A22F232F342F4427585FF3CF4695379557
:105840002795A795F0405395C9F77EF41F16BA0B1C
:10585000620B730B840BBAF09150A1F0FF0FBB1FCA
:10586000661F771F881FC2F70EC0BA0F621F731F13
:10587000841F48F4879577956795B795F7959E3F70
:1058800008F0B3CF9395880F08F09927EE0F9795FE
:105890008795089588D158F080E891E009F49EEF4B
:1058A00089D128F040E851E059F45EEF09C053C1B6
:1058B000BBC1E92FE07896D168F3092E052AC1F320
:1058C000261737074807590738F00E2E07F8E02546
:1058D00069F0E025E0640AC0EF6307F8009407FA76
:1058E000DB01B9019D01DC01CA01AD01EF9347D095
:1058F00068D10AD05F91552331F02BED3FE049E4A8
:1059000050FD49EC63CF0895DF93DD27B92FBF77B2
:1059100040E85FE31616170648075B0710F4D92F17
:105920008ED19F938F937F936F9335D2EEECF1E0FE
:1059300015D147D12F913F914F915F9193D1DD23A5
:1059400049F09058A2EA2AED3FE049EC5FE3D078B5
:105950005D274DDFDF9135C1D4D008F481E0089593
:105960000CD02FC127D140F01ED130F021F45F3F81
:1059700019F0EBC0511159C1EEC034D198F39923FD
:10598000C9F35523B1F3951B550BBB27AA27621703
:105990007307840738F09F5F5F4F220F331F441F48
:1059A000AA1FA9F333D00E2E3AF0E0E830D0915080
:1059B0005040E695001CCAF729D0FE2F27D0660F6D
:1059C000771F881FBB1F261737074807AB07B0E8AC
:1059D00009F0BB0B802DBF01FF2793585F4F2AF0C2
:1059E0009E3F510568F0B1C020C15F3FECF3983E87
:1059F000DCF3869577956795B795F7959F5FC9F71F
:105A0000880F911D9695879597F90895E1E0660FA7
:105A1000771F881FBB1F621773078407BA0720F020
:105A2000621B730B840BBA0BEE1F88F7E095089589
:105A3000E1D088F09F5790F0B92F9927B751A0F087
:105A4000D1F0660F771F881F991F1AF0BA95C9F712
:105A500012C0B13081F0E8D0B1E00895E5C0672F01
:105A6000782F8827B85F39F0B93FCCF386957795C2
:105A70006795B395D9F73EF49095809570956195AB
:105A80007F4F8F4F9F4F0895E89409C097FB3EF4D6
:105A900090958095709561957F4F8F4F9F4F99237B
:105AA000A9F0F92F96E9BB279395F69587957795F9
:105AB0006795B795F111F8CFFAF4BB0F11F460FFB9
:105AC0001BC06F5F7F4F8F4F9F4F16C0882311F011
:105AD00096E911C0772321F09EE8872F762F05C025
