:100000000C945D020C9491240C94BE240C948502F3
:100010000C9485020C9485020C94CA020C948502FF
:100020000C9485020C9485020C9485020C94850234
:100030000C9485020C9485020C9485020C94850224
:100040000C94EB240C9485020C9420280C945228D8
:100050000C9485020C9485020C9485020C94850204
:100060000C9434230C948502250A2E0A3B0A400A7C
:100070004A0A4F0A590A610A6B0A730A7D0A810A01
:10008000850A920A9A0AA50AAA0AB50ABF0AC90AE3
:10009000D60AE40AE90AF60A050B140B220B350B03
:1000A000400B4C0B570B640B720B7B0B850B940BAB
:1000B000AC0BAF0BBA0BBD0BC80BCB0BD70BE50BC7
:1000C000EA0BEF0BF80B020C0E0C1C0C1F0C240C93
:1000D000280C2C0C300C340C380C430C5B0C510CE1
:1000E000690C770C6F1E721E751EB81EBB1EE01EBB
:1000F000FE1E131F291F461F084AD73B3BCE016E29
:1001000084BCBFFDC12F3D6C74319ABD56833DDA6E
:100110003D00C77F11BED9E4BB4C3E916BAAAABE7D
:10012000000000803F000000003840481800001028
:100130001000001800001010000018100010FF0040
:1001400000E02000C04000A0600080800060A000AF
:1001500040C00020E00000FF0000E02000C04000A0
:10016000A0600080800060A00040C00020E000008F
:10017000FF2000E04000C06000A0800080A0006080
:10018000C00040E00020404040A0101010A010101F
:1001900010A0800830503030803008505008308037
:1001A00008305030088030085050083080303050CF
:1001B00030088050085000010203040506070809B2
:1001C0000A0B0C0D0E0F04050607000000000000CE
:1001D00000000000000008090A0B000000000000F9
:1001E0000000000000000C0D0E0F000000000000D9
:1001F0000000000000001004040401020D06242683
:10020000282A2C2E000000000000000000000E062E
:100210002426282A2C2E00000000000000000000E8
:1002200001010907018786858483820000000000A0
:10023000000000003B034850580000000000000090
:1002400000000000000001000602CE1A00000000BD
:10025000000000000000000000001502CE1A00009F
:100260000000000000000000000000000100130773
:10027000012426282A2C2E00000000000000000087
:100280001407012426282A2C2E000000000000005C
:1002900000000000270F080A0C0810181A1C180884
:1002A00010121410180002010000000000000000ED
:1002B000000000000000000000000F0901C8C80194
:1002C000D0D001D8D80000000000000002010000DA
:1002D000000000000000000000000000000000001E
:1002E0001E04181416120000000000000000000098
:1002F00000000201000000000000000000000000FB
:100300000000000000001D031E1A15000000000080
:1003100000000000000000000201000000000000DA
:100320000000000000000000000000003703212250
:100330002300000000000000000000000000020197
:1003400000000000000000000000000000000000AD
:10035000000030031F1C1900000000000000000016
:10036000000000000201000000000000000000008A
:100370000000000000000000180DC1080A0C0E105B
:10038000121416181A1C1E000000020100000000C2
:1003900000000000000000000000000000001A073C
:1003A000012426282A2C2E00000000000000000056
:1003B000020100000000000000000000000000003A
:1003C000000000000F061FD4D414DFDF000000007F
:1003D000000000000000020100000000000000001A
:1003E000000000000000000000000F0626ECEC2CCE
:1003F000E6E600000000000000000000020100002E
:1004000000000000000000000000000000000000EC
:10041000230321242500000000000000000000004C
:1004200000000201000000000000000000000000C9
:100430000000000000001B0628002B002E0000001A
:1004400000000000000000000201000000000000A9
:100450000000000000000000000000000008000292
:10046000010000030407000000000000000001027A
:100470000408102040800102040810200102040832
:100480001020040404040404040402020202020210
:1004900003030303030300000000230026002900D8
:1004A00000000000250028002B00000000002400B0
:1004B00027002A00D61B5222822811241FBECFEF0C
:1004C000D8E0DEBFCDBF12E0A0E0B1E0E2E2F9E5A6
:1004D00002C005900D92A432B107D9F727E0A4E23B
:1004E000B2E001C01D92A833B207E1F714E0CAEBF5
:1004F000D4E004C02297FE010E94542CC43BD107D3
:10050000C9F70E94C6280C948F2C0C94000041154A
:10051000510529F480917A008F7780937A006A30B0
:100520007105B1F063FF02C088E201C088E0677026
:10053000682B88E190E00FB6F894A895809360004E
:100540000FBE6093600080916000806480936000C3
:1005500083B7817F846083BF232B51F4F89483B7E2
:10056000816083BF85B7806685BF8F7D85BF04C0EE
:10057000F89483B7816083BF7894889583B78E7F22
:1005800083BF7894452B29F480917A00806880930A
:100590007A0008951F920F920FB60F9211248F9335
:1005A00088E10FB6F89480936000109260000FBE4F
:1005B0008F910F900FBE0F901F90189580E090E0E4
:1005C000FC01EA5DFE4FE491DC01AB5DBD4FEC93B5
:1005D000FC01E95DFE4FE4911196EC931197FC014B
:1005E000E85DFE4FE4911296EC93039680399105F5
:1005F00039F70895EF92FF920F931F93CF93DF93F4
:10060000C7E2D2E08C01855292407C01FE01329714
:100610006081C8010E94812CFE0131976081C80170
:1006200001960E94812C6881C7018C0F9D1F0E943A
:10063000812C0D5F1F4F239692E0C73BD90731F7FE
:10064000DF91CF911F910F91FF90EF900895EF925E
:10065000FF920F931F93CF93DF93C7E2D2E08C01F9
:10066000855292407C01C8010E94792CFE0132978C
:100670008083C80101960E94792CFE013197808306
:10068000C7018C0F9D1F0E94792C88830D5F1F4F1F
:10069000239692E0C73BD90731F7DF91CF911F91A5
:1006A0000F91FF90EF900895CF93DF93A82FB0E0C4
:1006B00096E0B595A7959A95E1F78F7390E0FC01C8
:1006C000EE0FFF1FE80FF91FEB5DFD4F8081EB017F
:1006D00088838181EA0188838281F9018083EB012B
:1006E000888190E00A2E02C0959587950A94E2F7DA
:1006F0008883FA01808190E00A2E02C09595879543
:100700000A94E2F78083E901888190E002C0959520
:100710008795AA95E2F78883DF91CF9108952F926C
:100720003F924F925F926F927F928F929F92AF9281
:10073000BF92CF92DF92EF92FF920F931F93CF93CE
:10074000DF9300D01F92CDB7DEB71B01F22ED02E63
:10075000A9829B828A82042F10E0BC0180E090E095
:100760000E945D2A2B013C01B10180E090E00E94D3
:100770005D2A9B01AC01C301B2010E94C9292B0172
:100780003C01B801882777FD8095982F0E945F2A49
:100790004B015C016E2D70E0601B710B882777FDAB
:1007A0008095982F0E945F2AA30192010E943F2BFF
:1007B0009B01AC01C501B4010E94FF280E94312AAF
:1007C000EA81FB8160830F2D10E0B801882777FD57
:1007D0008095982F0E945F2A4B015C016C2D70E080
:1007E000601B710B882777FD8095982F0E945F2AE8
:1007F000A30192010E943F2B9B01AC01C501B401F2
:100800000E94FF280E94312AE88DF98D60830D2D0A
:1008100010E0B801882777FD8095982F0E945F2A05
:100820006B017C01F9816F2F70E0601B710B8827D1
:1008300077FD8095982F0E945F2AA30192010E9464
:100840003F2B9B01AC01C701B6010E94FF280E940B
:10085000312AEA8DFB8D60830F900F900F90DF910E
:10086000CF911F910F91FF90EF90DF90CF90BF90AD
:10087000AF909F908F907F906F905F904F903F9040
:100880002F9008956F927F928F929F92AF92BF9216
:10089000CF92DF92EF92FF920F931F93CF93DF934C
:1008A000CDB7DEB7B82E8B01DA01F90199888A89B4
:1008B0006B88811002C088248394911001C09B2C06
:1008C000792C882319F0891508F4782EF12CA701CA
:1008D0004C0D511DC92CD12C4C9DC0014D9D900D2E
:1008E0005C9D900D1124889E9001899E300D1124ED
:1008F00082E0981205C081E0781202C0240F351FF3
:10090000C9018A0D911D6D917C9111976817790726
:1009100080F011961C921E928081870D80838B152A
:1009200040F0971002C0108204C06B2D0E94FC2B77
:100930009083662009F449C08D919C91821793079A
:10094000B8F4BA010E94082C8E159F0588F4CB01DB
:10095000B6010E94082C9081980F892F992787FD56
:1009600090956B2D70E0971014C0861797073CF098
:100970001092BB021092BC021092BD0226C0F80178
:10098000E80FF91F2BEB32E04CEB52E06DEB72E01D
:100990000BC00E941C2C800F911F2BEB32E04CEB04
:1009A00052E06DEB72E0FC018081DF91CF911F91ED
:1009B0000F91FF90EF90DF90CF90BF90AF909F90FE
:1009C0008F907F906F900C945403DF91CF911F9183
:1009D0000F91FF90EF90DF90CF90BF90AF909F90DE
:1009E0008F907F906F9008952F923F924F925F92D9
:1009F0006F927F928F929F92AF92BF92CF92DF922F
:100A0000EF92FF920F931F93CF93DF93CDB7DEB793
:100A1000982E8B013A01582C4D88BE888F89388CCE
:100A2000298CB11003C0BB24BA94B90C8B2C882339
:100A300019F08B1508F4882ED12CF12C4B2D50E099
:100A4000852D90E031101EC0B7016C0D7D1D649F97
:100A5000F001659FF00D749FF00D1124EC0DFD1D4C
:100A6000AA2DB0E0411003C0A80FB91F21C0AC01EE
:100A70004A0F5B1F449ED001459EB00D1124A81B58
:100A8000B90B16C0BC016A0D711D469ED001479E70
:100A9000B00D1124A80FB91FC7018C0D9D1D849F97
:100AA000F001859FF00D949FF00D1124EC19FD09C4
:100AB000AD014E0F5F1FD3018D919C91119784174B
:100AC0009507B0F01D921C92D9018C91880D8C93E2
:100AD00090E0692D70E0615071098617970744F026
:100AE000B81002C01C9204C00E941C2CD9018C9327
:100AF000222009F482C0D3018D919C918E179F070B
:100B0000B8F4B7016C0D7D1D0E94082C311006C091
:100B10008C159D0540F1F901808105C08E159F055A
:100B200010F5D9018C918F5F860F8F3F19F51BC08F
:100B30008E1B9F0B252D30E0B12CB1E03B1611F040
:100B4000411009C0B9016A0D7B1D0E94082C821753
:100B5000930748F011C0B9016A0D7B1D0E94082C53
:100B60008A159B0548F01092BB021092BC021092AD
:100B7000BD0243C0811108C02BEB32E04CEB52E0C8
:100B80006DEB72E0F80124C0992787FD9095692DDF
:100B900070E0861797079CF0B81429F3019761500D
:100BA00071090E941C2C800F911F2BEB32E04CEB43
:100BB00052E06DEB72E0DC0111968C910AC0F801F5
:100BC000E80FF91F2BEB32E04CEB52E06DEB72E0DB
:100BD0008081DF91CF911F910F91FF90EF90DF9077
:100BE000CF90BF90AF909F908F907F906F905F90CD
:100BF0004F903F902F900C945403DF91CF911F9111
:100C00000F91FF90EF90DF90CF90BF90AF909F90AB
:100C10008F907F906F905F904F903F902F900895AE
:100C20006F927F928F929F92AF92BF92CF92DF92FC
:100C3000EF92FF920F931F93CF93DF93CDB7DEB761
:100C4000182F3B01DA01F90109899A88011101C0C5
:100C5000082FF12CB7016C0D711D802F90E00197CA
:100C6000689FA001699F500D789F500D1124B12CF1
:100C70009A01220F331F2A0D3B1DC901880D911DBA
:100C8000CD90DC901197C816D90648F011961C92A9
:100C90001E928081800F8083811708F01082992036
:100CA00009F44EC08D919C918417950750F40E94D1
:100CB000082C8E159F0518F580818150861B800FAA
:100CC00014C04A0D5B1D8417950710F480810DC078
:100CD00082179307A0F4841B950B0E94082C8E1595
:100CE0009F0568F480818F5F860F8F3F41F09927C1
:100CF00087FD9095212F30E0821793073CF01092EA
:100D0000BB021092BC021092BD021AC0F301E80FA0
:100D1000F91F2BEB32E04CEB52E06DEB72E080817F
:100D2000DF91CF911F910F91FF90EF90DF90CF90C7
:100D3000BF90AF909F908F907F906F900C945403D2
:100D4000DF91CF911F910F91FF90EF90DF90CF90A7
:100D5000BF90AF909F908F907F906F9008952F924B
:100D60003F924F925F926F927F928F929F92AF923B
:100D7000BF92CF92DF92EF92FF920F931F93CF9388
:100D8000DF93CDB7DEB7982F2B013A01F801BE2CC7
:100D90009A2C682D3D882E887F89888D898C4E2DD0
:100DA00050E0EC2CF12CA081B181711145C08A0179
:100DB00061110CC0682F70E06A1B7B0BE69E50012E
:100DC000E79EB00CF69EB00C11240AC0613051F4BD
:100DD0001196EA9E5001EB9EB00CFA9EB00C1124C5
:100DE000D82E20C0A82EB12CB50161507109D62E85
:100DF000DD0CAA15BB054CF41196EA9E5001EB9E42
:100E0000B00CFA9EB00C11240DC061E070E06A1BBA
:100E10007B0B6D0D711DE69E5001E79EB00CF69E9A
:100E2000B00C1124211003C04A0D5B1D4AC0C89E9E
:100E3000400D511D112445C061110CC0682F70E098
:100E40006A1B7B0B469F8001479F100D569F100D1C
:100E500011240AC0613051F411964A9F80014B9FC2
:100E6000100D5A9F100D1124D82E20C0682F70E04D
:100E70008B0101501109D02EDD0CA617B7074CF4D9
:100E800011964A9F80014B9F100D5A9F100D1124FF
:100E90000DC061E070E06A1B7B0B6D0D711D469FFC
:100EA0008001479F100D569F100D1124211004C082
:100EB000A8014E0D5F1D05C0A701B89E400D511D34
:100EC000112481E0831568F4D9018C91A82FB0E03A
:100ED000692F70E061507109A617B70711F4490D29
:100EE000511DD3016D917C9111976417750708F41A
:100EF0004CC01D921C92311018C0408151814F5F2F
:100F00005F4F518340836D2D70E064177507ECF5DA
:100F1000D9014C9150E04F5F5F4F692F70E0CA01DB
:100F20000E941C2CD9018C932EC0B1E03B121AC038
:100F3000408151814F5F5F4F51834083D9014C9174
:100F400050E04F5F5F4F692F70E0CA010E941C2C78
:100F5000D9018C938D2D90E04081518184179507A4
:100F6000A4F411C0D9018C918F5F8C93891768F01C
:100F70001C92808191810196918380834D2D50E058
:100F80004817590714F411821082882061F1F30187
:100F9000808191818017910700F5D9018C91F20130
:100FA000E80FF11D2BEB32E04CEB52E06DEB72E001
:100FB0008081DF91CF911F910F91FF90EF90DF9093
:100FC000CF90BF90AF909F908F907F906F905F90E9
:100FD0004F903F902F900C9454031092BB021092AC
:100FE000BC021092BD02DF91CF911F910F91FF9033
:100FF000EF90DF90CF90BF90AF909F908F907F90B9
:101000006F905F904F903F902F9008952F923F9256
:101010004F925F926F927F928F929F92AF92BF9208
:10102000CF92DF92EF92FF920F931F93CF93DF93B4
:10103000CDB7DEB7982E1B012A0189015D898E8903
:101040004F89F12CD12C97012C0D3D1D829F300131
:10105000839F700C1124B12C682D70E0D2018D910A
:101060009C911197511121C0A60CB71C6A0D7B1DD4
:101070008617970758F01D921C92F801808190E026
:101080000196692D70E00E941C2C8083442309F492
:101090009DC1D2018D919C918615970508F44EC093
:1010A0008A159B0508F068C1CCC0513021F5F301C9
:1010B000EA0DFB1D6E0F7F1F8617970768F0D201A0
:1010C0001D921C92D8018C9190E00196692D70E0E0
:1010D0000E941C2CD8018C93442309F477C1D201BF
:1010E0004D905C904A145B0408F4ABC04E165F064A
:1010F00008F45EC041C1523009F082C0F301EE0F26
:10110000FF1FEA0DFB1D6E0F7F1F8617970768F004
:10111000D2011D921C92D8018C9190E00196692D0C
:1011200070E00E941C2CD8018C93442309F44EC11A
:10113000D2018D919C918615970578F5B9010E9491
:10114000082C8E159F0508F017C1F8018081F10168
:10115000E80FF11D28EB32E049EB52E06AEB72E058
:1011600080810E9454038BEB92E09F938F938CEBD2
:1011700092E09F938F933DEB832E32E0932EA090CD
:10118000B802C090B902E090BA0200E020E040E06E
:10119000B301D2018D919C91E8C0A60CB71C8A15B1
:1011A0009B0508F44EC08E179F0708F0E5C02C0180
:1011B0004A185B08C201B9010E94082C8C159D05D4
:1011C00008F4DAC0D8018C91F101E80FF11D28EB89
:1011D00032E049EB52E06AEB72E080810E945403F6
:1011E0008BEB92E09F938F938CEB92E09F938F9386
:1011F0002DEB822E22E0922EA12CC12CE12CADC031
:10120000533009F050C0F301EA0DFB1D6E0F7F1F34
:101210008617970768F0D2011D921C92D8018C9115
:1012200090E00196692D70E00E941C2CD8018C93EF
:10123000442309F4CBC0D2014D905C904A145B0466
:1012400018F4F8018081A4C04E165F0608F094C01F
:101250004A185B08C201B9010E94082C8C159D0533
:1012600008F48AC0D8018C91F101E80FF11D28EB38
:1012700032E049EB52E06AEB72E080810E94540355
:10128000F801808190E00196692D70E00E941C2C8D
:10129000820D931D25EB32E046EB52E067EB72E0E6
:1012A000DC018C9146C0A60CB71C6A0D7B1D86170D
:1012B000970768F0F20111821082D8018C9190E0BA
:1012C0000196692D70E00E941C2CF8018083442354
:1012D00009F47CC0D2014D905C904614570408F08C
:1012E00052C0C201B9010E94082C8E159F0508F05A
:1012F00043C0F801808190E00196692D70E00E9462
:101300001C2C820D931D28EB32E049EB52E06AEB76
:1013100072E0DC018C910E945403F8018081F1019C
:10132000E80FF11D25EB32E046EB52E067EB72E08F
:1013300080810E9454038BEB92E09F938F938CEB00
:1013400092E09F938F939DEB892E92E0992EA0902F
:10135000B502C090B602E090B7020091B8022091A9
:10136000B9024091BA02B301C2010E948F030F90EB
:101370000F900F900F902AC01092BB021092BC02E7
:101380001092BD0223C04A145B04B0F7D8018C91BF
:10139000F101E80FF11D2BEB32E04CEB52E06DEB6D
:1013A00072E08081DF91CF911F910F91FF90EF90BC
:1013B000DF90CF90BF90AF909F908F907F906F9075
:1013C0005F904F903F902F900C945403DF91CF91FA
:1013D0001F910F91FF90EF90DF90CF90BF90AF9053
:1013E0009F908F907F906F905F904F903F902F9045
:1013F00008952F923F924F925F926F927F928F92B9
:101400009F92AF92BF92CF92DF92EF92FF920F9393
:101410001F93CF93DF9300D0CDB7DEB7982F862FE1
:10142000BA01390198018701260115019A82898242
:101430004F89C92ED12C9EE3C916D10408F06AC287
:10144000F601EC5CFF4F0C94522C4F931F921F92AD
:10145000812CA12CC12CA9E1EA2E09C04F931F9227
:101460001F92812CA12CE2E3CE2EF2E3EF2EA301FA
:101470000E9442044CC24F931F921F92812C4CC079
:101480004F931F921F92812CA12C58E1C52EEE2460
:10149000E394EDCF4F931F921F92812C52C04F9334
:1014A0001F921F92812CA12C9EE1C92E44E1E42EB3
:1014B000DECF4F931F921F92812CA12CBDE2CB2E29
:1014C00019C04F931F921F92812CA12CA1E6CA2E06
:1014D000F3E0EF2ECCCF4F931F921F92812CA12CC3
:1014E000EEEBCE2E3FC04F931F921F92812C5CE8F3
:1014F000A52EC12C45E0E42EBACF4F931F921F9228
:101500002DC04F931F921F9234C04F9391E09F9331
:1015100092E09F9390E2892EA12CA0E1CA2EB9E01F
:10152000EB2EA5CF4F9391E09F9393E09F93F0E133
:101530008F2E98CF4F9391E09F9393E09F93E0E499
:101540008E2EA12C56E1C52EC3CF4F9393E09F93CF
:101550009F93CCCF4F9393E09F939F93812C4CE824
:10156000A42EC12C9AE0E92E82CF4F9393E09F9353
:101570009F93812CACE8AA2EBAE0CB2EBBCF4F9321
:101580001F9291E09F939F939F93812CF4E1AF2E44
:101590000BC04F9391E09F931F921F9295E09F93F2
:1015A00056E1852EE3E0AE2EC12C59C04F931F9219
:1015B0001F921F9291E09F93812CB2E3AB2E96E194
:1015C000C92E43E0E42E4DC04F931F9291E09F93AC
:1015D00005C04F931F9291E09F9393E09F9395E0F6
:1015E0009F93F6E18F2EA3E0AA2E37C04F9391E090
:1015F0009F939F9343E04F939F934EE1842E5EE130
:10160000A52EC12CEAE0EE2E2CC04F931F9291E044
:101610009F9393E09F931F92812CADE2AA2EBCE092
:10162000CB2E98E0E92E1DC04F931F9291E09F931F
:1016300093E09F931F925CE3852EE8E2AE2EFEE1DD
:10164000CF2E0DC04F931F9291E09F9392E09F93F6
:101650001F929DE2892E4FE0A42EBDE2CB2EA5E085
:10166000EA2EA3010E94F40471C04F9390E19F936E
:1016700091E09F939F9392E09F938824839409C065
:101680004F9390E19F9391E09F939F9392E09F935C
:10169000812CA12CC12C45C04F9390E19F9391E0E8
:1016A0009F939F9392E09F93F2E08F2EF2CF4F9300
:1016B00090E29F931F921F9291E09F9352E0852E9C
:1016C000A12CE2E0CE2E3DC04F9398E09F9391E095
:1016D0009F931F9292E09F9392E0892E40E5A42E63
:1016E000C12C2FC04F9390E29F9391E09F939F93C3
:1016F0001F92812C13C04F9390E29F9391E09F9390
:101700009F931F928824839409C04F9390E29F93E4
:1017100091E09F939F931F92B2E08B2EA12CAEE19C
:10172000CA2EF3E0EF2E0FC04F9398E09F9391E005
:101730009F931F9292E09F9352E0852EA12CE4E1AB
:10174000CE2E45E0E42EA3010E94AF060F900F902D
:101750000F900F900F90DEC04F931F9203C04F93D6
:1017600095E09F93A8E28A2EB0E1AB2EC12C98E0C1
:10177000E92E25C04F931F9203C04F9395E09F938E
:1017800055E5852EE8E0AE2EC12CF3E0EF2E17C014
:101790004F931F9203C04F9395E09F93A8E28A2E28
:1017A000B0E1AB2E95E0C92E45E0E42E08C04F9382
:1017B0001F92812CE3E0AE2EC12CF4E1EF2EA301A9
:1017C0000E9410060F900F90A5C04F9391E09F9339
:1017D0001F9209C04F9397E09F931F920EC04F93A3
:1017E00091E09F939F93812CA12C54E6C52E13C0AA
:1017F0004F9397E09F9391E09F939BE4892E49E15B
:10180000A42E15C04F9391E09F9392E09F93B6E969
:101810008B2EA12CC12CA6E9EA2E76C04F9394E022
:101820009F9392E09F93E6E98E2EF2E3AF2E49E17B
:10183000C42E59E1E52E68C04F9398E002C04F9343
:1018400091E09F9393E018C04F9393E09F931FC044
:101850004F9393E09F9329C04F9393E09F932FC0A2
:101860004F9393E09F9339C04F9393E09F9343C06E
:101870004F9391E09F9394E09F93812CA12CC12CD6
:101880009AEFE92E41C04F9393E09F9394E09F938A
:10189000E6E18E2EF3E0AF2EA6E1CA2EB3E0EB2EEA
:1018A00033C04F9393E09F9394E09F934DE2842E37
:1018B00055E0A52E25C04F9393E09F9394E09F930E
:1018C000F0E18F2EA9E0AA2EB0E1CB2E99E0E92E0F
:1018D0001BC04F9393E09F9394E09F9392E3892ED4
:1018E00042E3A42E52E3C52EE2E3EE2E0DC04F9349
:1018F00093E09F9394E09F93ADE28A2EB2E3AB2EE8
:10190000EDE2CE2EF5E0EF2EA3010E9406080F9027
:101910000F900F90F30180819181019691838083D4
:101920008091BD02F20180838091BC02F10180832D
:101930008091BB02E981FA8180830F900F90DF9143
:10194000CF911F910F91FF90EF90DF90CF90BF90BC
:10195000AF909F908F907F906F905F904F903F904F
:101960002F90089508950F931F93CF93DF931F92A5
:10197000CDB7DEB78C0169830E94792C6981681725
:1019800041F0C8010F90DF91CF911F910F910C94FE
:10199000812C0F90DF91CF911F910F9108950C949E
:1019A000792CDC01ED91FC910190F081E02D0994FE
:1019B000DC01ED91FC910190F081E02D0994809182
:1019C000730526E2829FC001112480549D4F90939D
:1019D000BF028093BE0210922C0510922B0510922C
:1019E0002A051092210510922005109224051092CC
:1019F00027051092260510922305109222051092B9
:101A00002505109229051092280508958F929F921E
:101A1000AF92BF92CF92DF92EF92FF920F931F93FC
:101A2000E091BE02F091BF02AF014A5F5F4F81E0DB
:101A300090912C05911180E08F9367EC862E65E0E4
:101A4000962E78ECA72E75E0B72EA9ECCA2EA5E04D
:101A5000DA2EB0E2EB2EB5E0FB2E04E215E026E232
:101A600035E0648182810E94F909E091BE02F09123
:101A7000BF02AF014A5E5F4F81E090912C0591302B
:101A800009F080E08F9387EC882E85E0982E98EC03
:101A9000A92E95E0B92E29ECC22E25E0D22E32E2F5
:101AA000E32E35E0F32E05E215E028E235E065810E
:101AB00083810E94F9090F900F901F910F91FF9061
:101AC000EF90DF90CF90BF90AF909F908F90089550
:101AD000FF920F931F93CF93DF93D82FC62FF42E2F
:101AE0000E9435250091CA051091CB052091CC05A7
:101AF0003091CD05601B710B820B930B61157D47F7
:101B00008105910568F30E9435256093CA0570939D
:101B1000CB058093CC059093CD056D2F70E089E0C7
:101B20000E94BB256C2F70E086E00E94BB256F2DC4
:101B300070E085E0DF91CF911F910F91FF900C94A1
:101B4000BB25AF92BF92CF92DF92EF92FF920F939D
:101B50001F93CF93DF93182F062FF42EE22EC0E0B1
:101B6000CE1589F0D0E0D23320F44F2D602F812F95
:101B700003C040E060E080E00E94680DDF5FD43683
:101B800091F7CF5FEDCF84E6C89FF00111249F2F1E
:101B9000990F990B9F01492F592F692F792F892F61
:101BA000A090B705B090B805C090B905D090BA051F
:101BB000E090BB05F090BC050091BD051091BE05FD
:101BC0000E94582C2093B7053093B8054093B9056F
:101BD0005093BA056093BB057093BC058093BD0517
:101BE0009093BE05DF91CF911F910F91FF90EF90E1
:101BF000DF90CF90BF90AF900895E0917205811172
:101C000003C0109271050EC08091710590E001969D
:101C1000AE2FB0E0A359BA4F6C9170E00E941C2C1B
:101C2000809371058091710590E1E99FF001112485
:101C3000E80FF11DE35DFA4F8081809373050C94EA
:101C4000DF0C40E060E080E00E94680D61E08FEF13
:101C500093E00E94B30C60E081E10E947C2660E08A
:101C600079E180E090E00E94582528E088E190E04A
:101C70000FB6F894A895809360000FBE2093600083
:101C800060E07AEF80E090E00C9458258091C105E7
:101C9000811103C00E94060DDEC08A3031F58091AB
:101CA000BF05811106C080EC8093C9051092C8055C
:101CB00019C0813031F41092C9051092C80580EC2A
:101CC000C1C0823031F480E88093C9051092C80504
:101CD000B9C01092C905833011F480E838C080EC97
:101CE0008093C8051092C705B6C09CEE980F9A3035
:101CF000C8F4E091BE02F091BF028091C2059091BC
:101D00002C0520E1929FE00DF11D1124E80FF11D3B
:101D100027EC35E048EC55E069EC75E086810E94DF
:101D2000540399C08E3109F4B5CF883209F4B2CF8B
:101D30009EEC980F9A3008F047C0E091BE02F091F7
:101D4000BF028081811106C080E68093C90580931F
:101D5000C80578C0813031F480E38093C9051092C2
:101D6000C80515C0823041F41092C9051092C8050B
:101D700080E38093C7050DC0833021F488E280930F
:101D8000C90503C01092C90580E38093C80510926D
:101D9000C70581819091C905082E01C0990F0A9449
:101DA000EAF79093C9059091C805082E01C0990FD4
:101DB0000A94EAF79093C8059091C70501C0990F5E
:101DC0008A95EAF7892F3EC08C3309F463CF8634B5
:101DD00009F460CF8E3641F480E88093C9051092F3
:101DE000C7051092C80537C09EE2980F923008F4DC
:101DF00051CF843D51F58091C40590E02091C305F9
:101E0000FC01EE0FFF1FE80FF91FEB5DFD4F808116
:101E100090E0022E02C0959587950A94E2F7809390
:101E2000C905818190E0022E02C0959587950A949C
:101E3000E2F78093C805828190E002C0959587956E
:101E40002A95E2F78093C70506C01092C705109245
:101E5000C8051092C9058091C605882331F180918B
:101E6000C505882311F12091B7053091B80540913F
:101E7000B9055091BA056091BB057091BC05809180
:101E8000BD059091BE0520343E47410551056105D1
:101E900071058105910519F010F00E94210E109234
:101EA000C7051092C8051092C9050895CF93DF9316
:101EB000C0E0D0E060E0CE010E94B30C2196C115D5
:101EC00084E0D807B9F7DF91CF9108950F931F935E
:101ED000CF93DF93C0ECD2E08AEF91E020E030E0D6
:101EE000FC01449148833196E491D901A054BD4F3F
:101EF0001196EC931197FC013296E4911296EC93B3
:101F00001297FC013396E4911496EC931497FC011C
:101F10007496E4911396EC931397FC017596E491F3
:101F20001596EC9340E050E0890102501E4FB90134
:101F3000605F7D4FF801E40FF51FE491DE01A40F0F
:101F4000B51F1696EC931697FB01E40FF51FE4916D
:101F50005696EC934F5F5F4F4031510559F7869687
:101F60002A5D3F4FA6962036F2E03F0709F0B8CF32
:101F7000DF91CF911F910F9108951F93CF93DF931E
:101F800046EF51E0ADE6B5E080E090E0FA01249143
:101F90002D9320E030E0EC01CA54DE4FBC01635DBC
:101FA0007A4FFE01E20FF31F1491FB01E20FF31FC2
:101FB00010832F5F3F4F2031310599F74F5F5F4FFF
:101FC00040968034910511F7DF91CF911F910895CC
:101FD000DF92EF92FF920F931F93CF93DF93E82E40
:101FE00088E2E89EE001112496E2E99E8001112436
:101FF00000541D4FF8016081CE010E94B30CF8011E
:102000006181CE0101960E94B30CF8016281CE017C
:1020100002960E94B30CF8016481CE0103960E94DF
:10202000B30CF8016381CE0144960E94B30CF80111
:102030006581CE0145960E94B30C8E010A5E1F4F4A
:10204000F6E2EF9E70011124EC1AFD0AC7018054DC
:102050009D4F7C0140E1D42EE701C00FD11FFE014E
:1020600070976081C80142970E94B30C6881C801D3
:102070000E94B30CDA940F5F1F4FD110EDCFDF91A8
:10208000CF911F910F91FF90EF90DF900895CF9324
:10209000C0E08C2F0E94E80FCF5FC031D1F7CF9105
:1020A0000895AF92BF92CF92DF92EF92FF920F937B
:1020B0001F93CF93DF935DE6C52E55E0D52E6DE2DD
:1020C000E62E65E0F62EC0E8D2E0F60161916F01E0
:1020D000CE010E94B30C5E01F0E7AF1AF2E0BF0A36
:1020E0008E0100581240F701E00FF11F6081C80116
:1020F0008F579D4F0E94B30C0F5F1F4F0A151B0592
:1021000091F7649684E0E81AF108C03DE2E0DE074A
:10211000E1F6DF91CF911F910F91FF90EF90DF904B
:10212000CF90BF90AF900895CF92DF92EF92FF9241
:102130000F931F93CF93DF93E82EC82ED12C88E204
:10214000E89EE0011124CE010E94CF0C96E29C9DF6
:1021500080019D9D100D112400541D4FF8018083B6
:10216000CE0101960E94CF0CF8018183CE01029628
:102170000E94CF0CF8018283CE0103960E94CF0CFF
:10218000F8018483CE0144960E94CF0CF80183832A
:10219000CE0145960E94CF0CF80185838E010A5E20
:1021A0001F4FF6E2EF9E70011124EC1AFD0AC701E1
:1021B00080549D4F7C01D12CC80142970E94CF0CC6
:1021C000E701C00FD11FFE0170978083C8010E94F4
:1021D000CF0C8883D3940F5F1F4F90E1D912ECCFBF
:1021E000DF91CF911F910F91FF90EF90DF90CF90F3
:1021F0000895CF93C0E08C2F0E949410CF5FC03120
:10220000D1F7CF910895AF92BF92CF92DF92EF9224
:10221000FF920F931F93CF93DF937DE6C72E75E058
:10222000D72EEDE2EE2EE5E0FE2EC0E0D0E0CE01AE
:1022300080589D4F0E94CF0CF60181936F015E0183
:10224000F0E1AF0EB11C8E01C8018F579D4F0E9467
:10225000CF0CF701E00FF11F80830F5F1F4F0A15AE
:102260001B0591F7649684E0E81AF108C035D105A2
:10227000F1F6DF91CF911F910F91FF90EF90DF90DA
:10228000CF90BF90AF9008950E94560F0E94660FA6
:102290000E9447100E94BD0F0E9451100E94DE0252
:1022A00084EE92E00C94FA02CF93C82F9091C1056E
:1022B000923309F48CC408F04FC09D3009F4A4C2D5
:1022C00010F5943009F47EC168F4913009F4CBC064
:1022D00008F4ACC0923009F4F8C0933009F432C16C
:1022E0000C9499199A3009F4F3C128F4953009F443
:1022F000ADC10C9499199B3009F407C29C3009F4C4
:1023000032C20C9499199F3109F47BC388F495313A
:1023100009F4B6C228F4943109F495C20C949919C1
:10232000963109F4E8C29E3109F44EC30C94991910
:10233000983209F4F3C340F4903209F491C3913216
:1023400009F4CCC30C949919993209F404C49A3253
:1023500009F437C40C949919943609F490C610F511
:102360009E3309F424C560F4943309F47DC408F461
:102370004BC49C3309F4CFC49D3309F4E9C4D9C7D5
:10238000973409F4D7C538F49F3309F453C596340C
:1023900009F48EC5CEC7983409F402C6993409F4FD
:1023A0004EC6C7C79F3609F462C760F4963609F473
:1023B00003C708F4C3C6973609F4BFC09E3609F4B4
:1023C00039C7B7C7993C09F491C758F5983709F44C
:1023D000B0C6983C09F0ADC721E040E860E880E86D
:1023E0000E94A10D21E040E060E080E80E94A10D84
:1023F00021E040E860E880E80E94A10D21E040E093
:1024000060E880E00E94A10D21E040E860E880E8FB
:102410000E94A10D809173050E94E80F1092C005E3
:102420008AC7925D933008F486C783C7882309F46E
:1024300082C72091B7053091B8054091B9055091F8
:10244000BA056091BB057091BC058091BD05909166
:10245000BE05A3E60E946D2C09F008F46CC781E06C
:102460008093C00568C78091C605882341F0C111DB
:1024700062C78091C50589278093C5055CC72091F7
:10248000B7053091B8054091B9055091BA056091F2
:10249000BB057091BC058091BD059091BE05273E9E
:1024A000334041055105610571058105910529F00C
:1024B00020F082E08093C0053EC7C1113CC781E097
:1024C0000E94FD0D1092C00536C72091B7053091CE
:1024D000B8054091B9055091BA056091BB0570915E
:1024E000BC058091BD059091BE05A0E00E946D2CB9
:1024F00031F425E040E860E880E80E94A10D2091D9
:10250000B7053091B8054091B9055091BA05609171
:10251000BB057091BC058091BD059091BE052F3C17
:10252000374041055105610571058105910529F087
:1025300020F083E08093C005FEC6C111FCC60E9456
:10254000210EF9C62091B7053091B8054091B90523
:102550005091BA056091BB057091BC058091BD0595
:102560009091BE05A0E00E946D2C31F425E040E082
:1025700060E880E80E94A10D2091B7053091B80570
:102580004091B9055091BA056091BB057091BC05A9
:102590008091BD059091BE052F3C37404105510506
:1025A000610571058105910529F020F084E0809393
:1025B000C005C1C6C111BFC61092BF058AE0809395
:1025C000C005B9C62091B7053091B8054091B9054D
:1025D0005091BA056091BB057091BC058091BD0515
:1025E0009091BE05A0E00E946D2C31F425E040E8FA
:1025F00060E080E00E94A10D2091B7053091B80500
:102600004091B9055091BA056091BB057091BC0528
:102610008091BD059091BE052F3C37404105510585
:10262000610571058105910529F020F085E0809311
:10263000C0050CC0C1110AC08091C60591E0892770
:102640008093C6051092C5051092C0052091B7056C
:102650003091B8054091B9055091BA056091BB051C
:102660007091BC058091BD059091BE05A0E00E94CF
:102670006D2C31F425E040E060E080E80E94A10D7F
:102680002091B7053091B8054091B9055091BA0530
:102690006091BB057091BC058091BD059091BE0510
:1026A000203D3740410551056105710581059105C2
:1026B00029F020F082E08093C0053DC6C1113BC6E1
:1026C00061E08EEF93E00E94B30C0E94210E33C6AE
:1026D000882309F430C62091B7053091B8054091A0
:1026E000B9055091BA056091BB057091BC05809108
:1026F000BD059091BE05A4E60E946D2C09F008F47A
:102700001AC68BE08093C00516C62091B70530919C
:10271000B8054091B9055091BA056091BB0570911B
:10272000BC058091BD059091BE052F3C3740410509
:102730005105610571058105910529F020F08CE0B6
:102740008093C005F8C5C111F6C58091BF0590E022
:10275000019665E070E00E941C2C8093BF058AE022
:102760008093C005E8C52091B7053091B805409128
:10277000B9055091BA056091BB057091BC05809177
:10278000BD059091BE05A0E00E946D2C31F425E0BE
:1027900040E060E880E80E94A10D2091B7053091EB
:1027A000B8054091B9055091BA056091BB0570918B
:1027B000BC058091BD059091BE052F3C3740410579
:1027C0005105610571058105910529F020F08DE025
:1027D0008093C005B0C5C111AEC58091BF058230E0
:1027E00030F480932C0584E18093C005A4C5843027
:1027F00038F4817080932C0588E28093C0059BC5D6
:1028000082E38093C00597C52091B7053091B80544
:102810004091B9055091BA056091BB057091BC0516
:102820008091BD059091BE05A0E00E946D2C31F411
:1028300025E040E860E880E80E94A10DC1117BC559
:102840001092C00578C5882309F475C52091B70595
:102850003091B8054091B9055091BA056091BB051A
:102860007091BC058091BD059091BE05A4E60E94C3
:102870006D2C09F008F45FC585E18093C0055BC548
:102880002091B7053091B8054091B9055091BA052E
:102890006091BB057091BC058091BD059091BE050E
:1028A000203D3740410551056105710581059105C0
:1028B00029F020F086E18093C0053DC5C1113BC5DC
:1028C000E091BE02F091BF0290912C058091C2056B
:1028D00020E1929FE00DF11D1124E80FF11D86818A
:1028E00090E0019660E370E00E941C2C868384E1F6
:1028F0008093C00520C52091B7053091B80540915F
:10290000B9055091BA056091BB057091BC058091E5
:10291000BD059091BE05A0E00E946D2C31F425E02C
:1029200040E860E880E80E94A10D2091B705309151
:10293000B8054091B9055091BA056091BB057091F9
:10294000BC058091BD059091BE05203D37404105F5
:102950005105610571058105910521F118F1E0919D
:10296000BE02F091BF0290912C058091C20520E13A
:10297000929FE00DF11D1124E80FF11D8681805C0E
:1029800086831092B7051092B8051092B90510927F
:10299000BA051092BB051092BC051092BD051092AD
:1029A000BE05C9C4C111C7C4E091BE02F091BF0207
:1029B00080912C05E80FF11D8091C2058F5F848303
:1029C0008EE18093C005B7C4882309F4B4C4209174
:1029D000B7053091B8054091B9055091BA0560919D
:1029E000BB057091BC058091BD059091BE05A4E624
:1029F0000E946D2C09F008F49EC48FE18093C005FD
:102A00009AC42091B7053091B8054091B90550910D
:102A1000BA056091BB057091BC058091BD05909190
:102A2000BE05203D37404105510561057105810511
:102A3000910529F020F080E28093C0057CC4C1118B
:102A40007AC48091C2058F5F8093C205803120F0E7
:102A500088EC8093C0056FC484E18093C0056BC48B
:102A60002091B7053091B8054091B9055091BA054C
:102A70006091BB057091BC058091BD059091BE052C
:102A8000A0E00E946D2C31F425E040E060E080E899
:102A90000E94A10D2091B7053091B8054091B9056C
:102AA0005091BA056091BB057091BC058091BD0540
:102AB0009091BE05203D37404105510561057105E6
:102AC0008105910529F020F081E28093C00533C48F
:102AD000C11131C484E18093C0052DC42091B70594
:102AE0003091B8054091B9055091BA056091BB0588
:102AF0007091BC058091BD059091BE05A0E00E943B
:102B00006D2C31F425E040E860E880E80E94A10DDA
:102B1000C11111C488EC8093C0050DC4882309F449
:102B20000AC42091B7053091B8054091B90550917C
:102B3000BA056091BB057091BC058091BD0590916F
:102B4000BE05A4E60E946D2C09F008F4F4C389E2E6
:102B50008093C005F0C32091B7053091B80540912E
:102B6000B9055091BA056091BB057091BC05809183
:102B7000BD059091BE05203D3740410551056105D9
:102B800071058105910529F020F08AE28093C00546
:102B9000D2C3C111D0C3E091BE02F091BF028091B7
:102BA0002C05E80FF11D828190E001966EE370E044
:102BB0000E941C2C82830E94DF0C88E28093C00557
:102BC000BAC38111B8C388EC8093C005B4C388230D
:102BD00009F4B1C32091B7053091B8054091B9050A
:102BE0005091BA056091BB057091BC058091BD05FF
:102BF0009091BE05A4E60E946D2C09F008F49BC3D9
:102C000083E38093C00597C32091B7053091B80541
:102C10004091B9055091BA056091BB057091BC0512
:102C20008091BD059091BE05203D3740410551057D
:102C3000610571058105910529F020F084E38093F9
:102C4000C00579C3C11177C3E091BE02F091BF0204
:102C5000808190E0019665E070E00E941C2C8083EA
:102C600082E38093C00567C32091B7053091B80512
:102C70004091B9055091BA056091BB057091BC05B2
:102C80008091BD059091BE05A0E00E946D2C31F4AD
:102C900025E040E860E880E80E94A10D2091B7059A
:102CA0003091B8054091B9055091BA056091BB05C6
:102CB0007091BC058091BD059091BE05203D3740C7
:102CC000410551056105710581059105F1F0E8F0B7
:102CD000E091BE02F091BF02818190E0019663E035
:102CE00070E00E941C2C81831092B7051092B805E9
:102CF0001092B9051092BA051092BB051092BC054E
:102D00001092BD051092BE0516C3C11114C388EC04
:102D10008093C00510C3882309F40DC32091B70523
:102D20003091B8054091B9055091BA056091BB0545
:102D30007091BC058091BD059091BE05A4E60E94EE
:102D40006D2C09F008F4F7C28DE38093C005F3C23F
:102D50002091B7053091B8054091B9055091BA0559
:102D60006091BB057091BC058091BD059091BE0539
:102D7000203D3740410551056105710581059105EB
:102D800029F020F08EE38093C005D5C2C111D3C2D3
:102D90008091720590E00196837099278093720567
:102DA00080E00E94FD0D8CE38093C005C4C2209199
:102DB000B7053091B8054091B9055091BA056091B9
:102DC000BB057091BC058091BD059091BE05A0E04A
:102DD0000E946D2C31F425E040E860E080E00E9424
:102DE000A10D2091B7053091B8054091B9055091DA
:102DF000BA056091BB057091BC058091BD059091AD
:102E0000BE05203D3740410551056105710581052D
:102E1000910529F020F08FE38093C0058CC2C11189
:102E20008AC225E040E860E880E80E94A10D109287
:102E3000C00581C22091B7053091B8054091B90510
:102E40005091BA056091BB057091BC058091BD059C
:102E50009091BE05A0E00E946D2C31F425E040E089
:102E600060E880E80E94A10D2091B7053091B80577
:102E70004091B9055091BA056091BB057091BC05B0
:102E80008091BD059091BE05203D3740410551051B
:102E9000610571058105910529F020F08EE380938D
:102EA000C00549C2C11147C286E48093C00543C230
:102EB0002091B7053091B8054091B9055091BA05F8
:102EC0006091BB057091BC058091BD059091BE05D8
:102ED000A0E00E946D2C89F480917105E09172054B
:102EE00020E1E29FF0011124E80FF11DE35DFA4FAC
:102EF0008081809373050E94DF0CCC2309F41BC2F0
:102F00002091B7053091B8054091B9055091BA05A7
:102F10006091BB057091BC058091BD059091BE0587
:102F2000A4E60E946D2C09F008F405C287E48093A2
:102F3000C00501C22091B7053091B8054091B9058F
:102F40005091BA056091BB057091BC058091BD059B
:102F50009091BE05203D3740410551056105710541
:102F60008105910529F020F088E48093C005E3C134
:102F7000C111E1C1E09172058091710520E1E29FEC
:102F8000F0011124E80FF11DE35DFA4F808190E01C
:102F900001968F709927808386E48093C005CBC10A
:102FA0002091B7053091B8054091B9055091BA0507
:102FB0006091BB057091BC058091BD059091BE05E7
:102FC000A0E00E946D2C31F425E040E860E080E84C
:102FD0000E94A10D2091B7053091B8054091B90527
:102FE0005091BA056091BB057091BC058091BD05FB
:102FF0009091BE05203D37404105510561057105A1
:103000008105910529F020F089E48093C00593C1E2
:10301000C11191C1809171058F5F80937105E0911D
:103020007205F0E0E359FA4F8083803120F089EC9B
:103030008093C00580C186E48093C0057CC1209147
:10304000B7053091B8054091B9055091BA05609126
:10305000BB057091BC058091BD059091BE05A0E0B7
:103060000E946D2C31F425E040E860E880E80E9481
:10307000A10DC11160C189EC8093C0055CC18EEFC8
:1030800093E00E94CF0C2091B7053091B805409194
:10309000B9055091BA056091BB057091BC05E091EE
:1030A000BD059091BE058823A9F18E2F20373741A9
:1030B00041055105610571058105910531F425E052
:1030C00040E060E880E00E94A10DC11134C1209170
:1030D000B7053091B8054091B9055091BA05609196
:1030E000BB057091BC058091BD059091BE05203750
:1030F000374141055105610571058105910509F0CB
:1031000008F41DCA60E08EEF93E00E94B30C1092A9
:10311000C00511C18E2F2F3C374041055105610577
:1031200071058105910529F020F085E68093C005A1
:1031300002C1C11100C11092C005FDC02091B705A8
:103140003091B8054091B9055091BA056091BB0521
:103150007091BC058091BD059091BE05A0E00E94D4
:103160006D2C31F425E040E860E080E00E94A10D84
:103170002091B7053091B8054091B9055091BA0535
:103180006091BB057091BC058091BD059091BE0515
:1031900020373741410551056105710581059105CC
:1031A00029F020F086E68093C005C5C0C111C3C0D8
:1031B0008CE38093C005BFC02091B7053091B8055E
:1031C0004091B9055091BA056091BB057091BC055D
:1031D0008091BD059091BE05A0E00E946D2C31F458
:1031E00025E040E060E080E80E94A10D2091B70555
:1031F0003091B8054091B9055091BA056091BB0571
:103200007091BC058091BD059091BE052037374176
:1032100041055105610571058105910529F020F0F1
:1032200087E68093C00587C0C11185C08EE6809374
:10323000C00581C0882309F47EC02091B705309174
:10324000B8054091B9055091BA056091BB057091E0
:10325000BC058091BD059091BE05A4E60E946D2C31
:1032600009F008F468C08FE68093C00564C020911F
:10327000B7053091B8054091B9055091BA056091F4
:10328000BB057091BC058091BD059091BE052F36A0
:10329000374141055105610571058105910509F029
:1032A00008F44BC921E040E060E080E80E94A10DF5
:1032B00021E040E860E080E00E94A10D21E040E0D4
:1032C00060E080E80E94A10D21E040E860E080E03D
:1032D0000E94A10D21E040E060E080E80E94A10D85
:1032E0000E94441188E78093C00525C021E040E892
:1032F00060E880E80E94A10D21E040E060E080E805
:103300000E94A10D21E040E860E880E80E94A10D44
:1033100021E040E860E080E00E94A10D21E040E86B
:1033200060E880E80E94A10D0E9451101092C00533
:1033300002C01092C0058091C0059091C1059817F8
:1033400099F08093C1051092B7051092B8051092BC
:10335000B9051092BA051092BB051092BC051092E7
:10336000BD051092BE0523C02091B7053091B80568
:103370004091B9055091BA056091BB057091BC05AB
:103380008091BD059091BE05A1E00E94612C209323
:10339000B7053093B8054093B9055093BA056093CB
:1033A000BB057093BC058093BD059093BE05CF917E
:1033B0000895CF93C82F611108C086E2C89FF0011D
:1033C0001124E054FD4F408368C0613041F486E22F
:1033D000C89FF0011124E054FD4F41835EC0663266
:1033E00008F05BC0862F90E0029762E170E00E94D7
:1033F0001C2C2C2F30E081110CC086E2829FF00142
:10340000839FF00D1124E054FD4FE60FF71F428318
:1034100044C0813079F586E2829FF001839FF00DF0
:103420001124E054FD4FE60FF71F443639F4448170
:10343000842F90E040978CF481E00BC0433661F517
:103440004481842F90E0823091052CF042972CF437
:103450008FEF840F03C081E001C080E196E2929F6C
:10346000F001939FF00D1124E054FD4FE60FF71F7C
:10347000848313C0FB01A4E0EE0FFF1FAA95E1F7C0
:1034800056E2529FB001539F700D1124E60FF71FB3
:10349000E054FD4FE80FF91F448380917305C81372
:1034A00003C0CF910C94DF0CCF910895262F64E1D7
:1034B0000E94FC2BE82FF0E0911103C0E359FA4F72
:1034C0000AC0B4E0EE0FFF1FBA95E1F7E35DFA4FD3
:1034D000E90FF11D319720830895803110F40C9489
:1034E0009410803111F40C94031184EE92E00C944A
:1034F0002703803118F40E94E80F09C0803119F4C5
:103500000E94511004C084EE92E00E94FA0224E06E
:1035100040E860E880E80E94A10D24E040E060E01F
:1035200080E80E94A10D24E040E860E880E80C9467
:10353000A10D811105C08091730590E00F9606C022
:10354000813049F48091730590E001968F7099273E
:103550008093730504C0823021F4609373050C944A
:10356000DF0C8A3089F4611102C082ED07C061303E
:1035700011F484ED03C0623021F483ED8093C00523
:1035800008951092C0050895843121F46093C40514
:103590004093C30508950F931F93CF93DF938091BA
:1035A000B6056091B0057091B1050091AE0510911E
:1035B000AF05C091AC05D091AD05811137C088270A
:1035C00077FD8095982F0E945F2A20E030E048EA3E
:1035D00051E40E94C9296093A8057093A9058093BE
:1035E000AA059093AB05B801882777FD8095982FA1
:1035F0000E945F2A20E030E048EA51E40E94C92995
:103600006093A4057093A5058093A6059093A705E4
:10361000BE01882777FD8095982F0E945F2A20E0C1
:1036200030E048EA51E40E94C92936C0882777FD76
:103630008095982F0E945F2A20E030E040E85AE30E
:103640000E943F2B6093A8057093A9058093AA055B
:103650009093AB05B801882777FD8095982F0E943D
:103660005F2A20E030E040E85AE30E943F2B60935D
:10367000A4057093A5058093A6059093A705BE01A8
:10368000882777FD8095982F0E945F2A20E030E000
:1036900040E85AE30E943F2B6093A0057093A10578
:1036A0008093A2059093A305DF91CF911F910F9175
:1036B00008953F924F925F926F927F928F929F9266
:1036C000AF92BF92CF92DF92EF92FF920F931F9330
:1036D000CF93DF9340909C0550909D0560909E0590
:1036E00070909F05C090B60534E7832E35E0932E89
:1036F00044E8E42E45E0F42E80E8C89E60011124E1
:10370000F601E050FF4F6F01E40100E010E0312CC2
:103710005601A00EB11EF5012081318142815381F5
:10372000C301B2010E94342B18166CF0F501E05C65
:10373000FF4F2081318142815381C301B2010E9438
:10374000C52987FF0DC0F70110822881822F90E0E4
:10375000883C91051CF481E0820F01C088EC8883CD
:10376000F70180818F5F81937F018D3008F018828F
:103770008991873010F03C2E38180C5F1F4F0034B1
:10378000110531F63092B205DF91CF911F910F9163
:10379000FF90EF90DF90CF90BF90AF909F908F9071
:1037A0007F906F905F904F903F9008950E943525D5
:1037B0006093CA057093CB058093CC059093CD059B
:1037C0000895CF93DF93D82FC62F682F8BE996E00B
:1037D0000E9459276C2F8BE996E00E945927C1114E
:1037E00008C086E2D89FF0011124E054FD4F6081AB
:1037F00009C0C13069F486E2D89FF0011124E05479
:10380000FD4F61818BE996E0DF91CF910C945927B0
:10381000C632D8F58C2F90E0029762E170E00E94EA
:103820001C2C2D2F30E081110DC086E2829FD0012B
:10383000839FB00D1124A054BD4FA60FB71F129641
:103840006C91E0CF813069F486E2829FD001839F42
:10385000B00D1124A054BD4FA60FB71F14966C9144
:10386000D1CFFB0154E0EE0FFF1F5A95E1F766E25E
:10387000629FA001639F500D1124E40FF51FE054D7
:10388000FD4FE80FF91F6481BDCF60E070E08BE968
:1038900096E0DF91CF910C94D10CCF93DF93D82F8A
:1038A000C0E06C2F8D2F0E94E11BCF5FC632C9F79D
:1038B000DF91CF9108951F93CF93DF93D82F64E1C9
:1038C0000E94FC2B182FC92F60E170E08BE996E075
:1038D0000E94D10C6D2F8BE996E00E945927E12FB1
:1038E000F0E0C11103C0E359FA4F0AC064E0EE0FE3
:1038F000FF1F6A95E1F7E35DFA4FEC0FF11D319779
:1039000060818BE996E0DF91CF911F910C9459274C
:10391000CF93DF93D0E0C0E08C2F8D0F0E945B1C13
:10392000CF5FC131C9F7DC5ED035A9F7DF91CF9108
:103930000895CF93C82F61E170E08BE996E00E9473
:10394000D10C6C2F8BE996E00E9459278C2F63E0F5
:103950000E94FC2B292F8BEAC89F812D112486956C
:1039600090E0FC01EE0FFF1FE80FF91FE20FF11DC1
:10397000EB5DFD4F60818BE996E0CF910C94592768
:10398000803110F40C94E11B803119F4862F0C94D3
:103990005B1C862F0C94991CCF93DF93C82FD62FD6
:1039A000803118F40E94D9191DC0803129F4642F88
:1039B0008D2F0E94561A16C02BEA629F212D1124CA
:1039C0002695822F880F820F962F981B30E0F901E1
:1039D000EE0FFF1FE20FF31FE90FF11DEB5DFD4F2F
:1039E0004083C1E16D2F8C2FDF91CF910C94C01CCF
:1039F000CF93C0E08C2F0E94991CCF5FC039D1F7C4
:103A0000CF910895CF93C82F68EC70E08BE996E0D2
:103A10000E94D10C6C2F8BE996E00E94592760918F
:103A200073058BE996E00E945927C03120F48C2F52
:103A30000E944D1C08C0C03119F40E94881C03C0AC
:103A40000E94F81CC1E169EC70E08BE996E00E94ED
:103A5000D10C6C2F8BE996E00E9459276091730579
:103A60008BE996E0CF910C9459270F931F93CF9336
:103A7000DF931F92CDB7DEB78BE996E00E94DB267D
:103A80000497D4F18BE996E00E94F426082F8BE985
:103A900096E00E94F426182F8BE996E00E94F42607
:103AA000682F8BE996E069830E94F426482F69818C
:103AB000043421F4812F0E94021DDECF0C3421F446
:103AC000812F0E946D1AD8CF033521F4812F0E94D7
:103AD000791AD2CF023521F4812F0E94C01CCCCF9D
:103AE000073521F4812F0E94CC1CC6CF083521F662
:103AF000812F0E94991AC0CF0F90DF91CF911F9113
:103B00000F910895CF938091B605811161C06CE447
:103B100070E08EEC95E00E943A2260E070E08EEC5E
:103B200095E00E94D80C8EEC95E00E944F2243E075
:103B300050E06CE470E08EEC95E00E942D228EEC5B
:103B400095E00E947F21892B09F4A6C08EEC95E0B8
:103B50000E948721880F991F880F991F282F87FFA0
:103B600002C023E0280F25952595822F992787FDF0
:103B700090959093B1058093B0058EEC95E00E94EE
:103B80008721880F991F880F991F282F87FF02C050
:103B900023E0280F25952595822F992787FD90955D
:103BA0009093AF058093AE058EEC95E00E9487213F
:103BB000880F991F880F991F282F87FF02C023E0C5
:103BC000280F25952595822F992787FD909560C010
:103BD0006DE170E08EEC95E00E943A2261E070E0C9
:103BE0008EEC95E00E94D80C8EEC95E00E944F225E
:103BF00046E050E06DE170E08EEC95E00E942D22F1
:103C00008EEC95E00E947F21892B09F445C08EEC53
:103C100095E00E948721C82F8EEC95E00E948721B5
:103C2000B4E095958795BA95E1F740E050E05C2FB8
:103C3000842B952B9093B1058093B0058EEC95E085
:103C40000E948721C82F8EEC95E00E94872124E0F6
:103C5000959587952A95E1F740E050E05C2F842BFD
:103C6000952B9093AF058093AE058EEC95E00E9466
:103C70008721C82F8EEC95E00E94872134E095952E
:103C800087953A95E1F740E050E05C2F842B952B27
:103C90009093AD058093AC05CF9108954F925F92BC
:103CA0006F927F928F929F92AF92BF92CF92DF924C
:103CB000EF92FF920F931F93CF93DF938091B30501
:103CC0006091B5050E94FC2B892F90E08A30910508
:103CD00008F0EAC1FC01EE58FF4F0C94522C0E94F0
:103CE000821DE2C10E94CB1ADFC16091A8057091CC
:103CF000A9058091AA059091AB058090A4059090AC
:103D0000A505A090A605B090A705C090A005D090ED
:103D1000A105E090A205F090A3059B01AC010E94D3
:103D20003F2B2B013C01A5019401C501B4010E9468
:103D30003F2B9B01AC01C301B2010E94FF284B0144
:103D40005C01A7019601C701B6010E943F2B9B01B0
:103D5000AC01C501B4010E94FF280E94A62B60930C
:103D60009C0570939D0580939E0590939F059CC133
:103D70000E94591B99C16091A4057091A50580917D
:103D8000A6059091A705C090A005D090A105E09050
:103D9000A205F090A3059B01AC010E943F2B4B01B3
:103DA0005C01A7019601C701B6010E943F2B9B0150
:103DB000AC01C501B4010E94FF280E94A62B15C0CA
:103DC000209198053091990540919A0550919B0555
:103DD0008091A8059091A905A091AA05B091AB0585
:103DE000BC01CD0190580E94722960939805709390
:103DF000990580939A0590939B0556C120E030E089
:103E000044E353E4609198057091990580919A0577
:103E100090919B050E943F2B2BED3FE049E450E43D
:103E20000E94C929E2CF2091A0053091A1054091BF
:103E3000A2055091A3058091A4059091A505A0919C
:103E4000A605B091A705BC01CD0190580E9472292A
:103E500014C020E030E044E353E460919405709195
:103E6000950580919605909197050E943F2B2BED2B
:103E70003FE049E450E40E94C9296093940570939F
:103E8000950580939605909397050EC10091BE020B
:103E90001091BF02D8018C91882309F405C1B0901C
:103EA0002C05813009F041C011969C91911113C0ED
:103EB000B11006C09091B205903110F080932C059E
:103EC00080912C05813009F0EFC08091B2058B30D4
:103ED00008F0EAC027C0913099F4B11006C0809173
:103EE000B205893010F090932C0580912C0581301B
:103EF00009F0DAC08091B205843008F0D5C012C054
:103F0000B11006C09091B205953010F080932C0549
:103F100080912C05813009F0C7C08091B2058330B3
:103F200008F0C2C010922C05BFC0C0912A05D091E4
:103F30002B05B11046C09091B205933008F09EC099
:103F4000823069F420E030E046E952EC6091980557
:103F50007091990580919A0590919B057EC0833060
:103F6000B9F4C0909405D0909505E0909605F09036
:103F7000970520E030E040EA52ECC701B6010E940C
:103F8000C52987FF6EC020E030E048EC52EC16C037
:103F9000C090A005D090A105E090A205F090A305E7
:103FA00026E636E646E65FEBC701B6010E94C52964
:103FB00087FF57C02DEC3CEC4CE85FEBC701B60126
:103FC00016C0B1E0BB125AC09091B205933008F010
:103FD00055C0823089F420E030E046E952E4609137
:103FE00098057091990580919A0590919B050E9482
:103FF000342B1816DCF135C08330B9F4C090940529
:10400000D0909505E0909605F090970520E030E07F
:1040100040EA52E4C701B6010E94342B18160CF591
:1040200020E030E048EC52E416C0C090A005D090EB
:10403000A105E090A205F090A30526E636E646E647
:104040005FE3C701B6010E94342B181654F42DEC1F
:104050003CEC4CE85FE3C701B6010E94C52987FD2F
:1040600005C0882799278C1B9D0B02C081E090E03A
:10407000C80FD91FD0932B05C0932A05D8011196DC
:10408000EC91F0E0E050FE4F808190E020912A0515
:1040900030912B05821793073CF481E0B11080E04A
:1040A00080932C05F80111828091B3058F5F809376
:1040B000B3059091B405891710F01092B305DF9104
:1040C000CF911F910F91FF90EF90DF90CF90BF9015
:1040D000AF909F908F907F906F905F904F900895DA
:1040E00082E00E94B22621E0892B09F020E0822F95
:1040F0000E9454110E94351D8091C1059FEF980FB9
:10410000913D10F48C3311F40E944E1E0E94460E15
:104110004091C7056091C8058091C9050C94680D50
:104120006DE170E08EEC95E00E943A226DE070E067
:104130008EEC95E00E94D80C60E08EEC95E00E9439
:104140003C2241E050E06DE170E08EEC95E00E9491
:104150002D228EEC95E00E947F21892B39F08EEC88
:1041600095E00E9487218A3441F001C080E091E00F
:104170008A3509F090E0892F01C081E08093B6056F
:1041800008958EEC95E00E94162226E040E051EE64
:1041900060E070E08BE996E00E94BE271092C005B7
:1041A0001092C10561E089E00E94432661E086E04B
:1041B0000E94432661E085E00E94432660E082E0A1
:1041C0000E94432661E081E10E94432642E050E0E4
:1041D00062EB7CE080E00E9461248FEF93E00E941C
:1041E000CF0C8823A1F060E08FEF93E00E94B30C26
:1041F00020E030E040E050E06AE070E084E292E0ED
:104200000E94870284E68093C0058093C10580E008
:104210000E9481248CEF93E00E94CF0C8B3881F0B8
:104220000E9444110E9490206BE88CEF93E00E9462
:10423000B30C6091B6058BEF93E00E94B30C08C0FD
:104240000E94F9100E94031184EE92E00E9427035D
:104250008DEF93E00E94CF0C809372058BEF93E07B
:104260000E94CF0C8093B605811102C091E101C07C
:1042700094E19093B505811102C082E301C084E10D
:104280008093B40561E081E10E947C26F89410924D
:104290007A0085B5887F816085BD80918100887FA7
:1042A000816080938100809181008860809381008B
:1042B000789468E270E080E090E00E94582580E009
:1042C0000E94FD0D64E670E08BE996E00E94D10C3F
:1042D000609173058BE996E00E94592760E070E0D9
:1042E0008BE996E00E94D10C0E9435256093CA05A7
:1042F0007093CB058093CC059093CD050895809164
:10430000FE0590E02091FF05821B91090895209100
:10431000FF058091FE05281750F4E22FF0E0E050F1
:10432000FA4F808190E02F5F2093FF0508958FEF73
:104330009FEF0895E091FF058091FE05E81730F4A6
:10434000F0E0E050FA4F808190E008958FEF9FEF0A
:1043500008950895CF92DF92EF92FF920F931F93EB
:10436000CF93DF937C01CB018A012091DA052223D0
:1043700089F0EB016B01C40ED51ECC15DD0569F08B
:104380006991D701ED91FC910190F081E02DC70179
:104390000995F3CF642F0E940B23C801DF91CF91C1
:1043A0001F910F91FF90EF90DF90CF900895CF93E2
:1043B000DF931F92CDB7DEB769832091DA05222300
:1043C000D1F02091DB05203240F021E030E0FC010B
:1043D0003383228380E090E015C08091DC05E82FD4
:1043E000F0E0E352FA4F998190838F5F8093DC0570
:1043F0008093DB0505C061E0CE0101960E940B238E
:1044000081E090E00F90DF91CF910895FC0113823D
:10441000128248EE53E060E070E044835583668387
:10442000778387E092E09183808308951092FF055F
:104430001092FE051092DC051092DB050C945622BA
:10444000862F413208F040E260E076E00E9474225C
:104450001092FF058093FE05089521E00C94202220
:1044600081E08093DA056093FD051092DC051092DF
:10447000DB0508950C9430220F93062F21E0409124
:10448000DB056DED75E08091FD050E94B82210926C
:10449000DC051092DB051092DA050F91089561E0BA
:1044A0000C943C228EEC95E00C94062210928D0622
:1044B00081E080938B0610928A0661E082E10E947F
:1044C0007C2661E083E10E947C26E9EBF0E08081BC
:1044D0008E7F808380818D7F80838CE08093B80085
:1044E00085E48093BC000895413208F03FC090916C
:1044F0008D069111FCCF91E090938D0620938B0651
:104500002FEF2093200610926506240F2093640657
:1045100090938C0690918C06880F892B80938C0643
:1045200080918A06813041F410928A0680918C062F
:104530008093BB0085EC01C085EE8093BC00809128
:104540008D068130E1F380916506841710F4409167
:10455000650626E636E0FB01D9018A2F821B841707
:1045600018F48D918193F9CF842F089580E00895F8
:104570000F93413208F046C090918D069111FCCF07
:1045800092E090938D0600938B069FEF9093200608
:104590001092650640936406FB0166E676E0DB0157
:1045A0009A2F961B941718F491919D93F9CF10921E
:1045B0008C0690918C06880F892B80938C068091B5
:1045C0008A06813041F410928A0680918C0680938D
:1045D000BB0085EC01C085EE8093BC00222321F056
:1045E00080918D068230E1F3809120068F3F61F04B
:1045F00080912006803251F080912006803341F472
:1046000083E007C081E005C080E003C082E001C014
:1046100084E00F910895613298F420918D06243042
:1046200089F460934206FC0184E496E0DC012A2FC1
:10463000281B261718F421912D93F9CF80E00895B7
:1046400081E0089582E0089585ED8093BC0080911B
:10465000BC0084FDFCCF10928D06089585EC8093FC
:10466000BC0010928D0608951F920F920FB60F9204
:1046700011242F933F934F935F936F937F938F9367
:104680009F93AF93BF93EF93FF938091B900887F7F
:10469000803609F49CC068F5883209F45BC090F458
:1046A000803109F454C038F4882309F4F5C0883007
:1046B00009F44DC0F5C0883109F44CC0803209F4CA
:1046C0005DC0EEC0803409F468C048F4803309F45A
:1046D00055C0883309F0E4C080932006A8C0803517
:1046E00009F44FC0883509F45DC0883409F0D8C09A
:1046F000D5C0883909F4C6C0A8F4883709F467C062
:1047000038F4883609F463C0803709F460C0C8C043
:10471000883809F4B7C0803909F45FC0803809F0DF
:10472000BFC05BC0803B09F485C038F4803A09F40F
:1047300066C0883A09F47EC0B3C0803C09F4A6C0C4
:10474000883C09F4A3C0883B09F489C0A9C08091C2
:104750008C0610C09091650680916406981770F5DC
:10476000E091650681E08E0F80936506F0E0EA59DE
:10477000F94F80818093BB0085EC85C08093200633
:104780008DC0E091650681E08E0F80936506809173
:10479000BB00F0E0EA59F94F808390916506809163
:1047A00064066DC0E091650681E08E0F809365061A
:1047B0008091BB00F0E0EA59F94F808380918B062D
:1047C00081116CC081E080938A0684EA60C083E036
:1047D00080938D0610922106CFCF809121068032E2
:1047E00008F050C0E091210681E08E0F80932106F1
:1047F0008091BB00F0E0EE5DF94F8083BDCF8091EA
:104800002106803230F4E0912106F0E0EE5DF94FB0
:1048100010820E9424236091210670E0E0918606B8
:10482000F091870682E296E00995109221060E9497
:104830002E2336C084E080938D061092430610929A
:104840004206E0918806F09189060995809142061A
:10485000811105C081E08093420610924406E091E8
:10486000430681E08E0F80934306F0E0EC5BF94F46
:1048700080818093BB0090914306809142069817F7
:1048800008F47ACF85E88093BC000AC085EC809359
:10489000BC0010928D0604C0109220060E942423B2
:1048A000FF91EF91BF91AF919F918F917F916F9108
:1048B0005F914F913F912F910F900FBE0F901F90DE
:1048C00018958230E8F4E82FF0E0EE0FFF1FE25772
:1048D000F94F71836083813041F0809169008C7F52
:1048E000842B80936900E89A089580916900440FB1
:1048F000551F440F551F837F842B80936900E99ACD
:104900000895823068F4813011F0E89801C0E99888
:10491000E82FF0E0EE0FFF1FE257F94F11821082EF
:1049200008951F920F920FB60F9211242F933F9369
:104930004F935F936F937F938F939F93AF93BF93A7
:10494000EF93FF9380918E0690918F06892B29F02B
:10495000E0918E06F0918F060995FF91EF91BF913E
:10496000AF919F918F917F916F915F914F913F9107
:104970002F910F900FBE0F901F9018951F920F92BE
:104980000FB60F9211242F933F934F935F936F9322
:104990007F938F939F93AF93BF93EF93FF938091F8
:1049A000900690919106892B29F0E0919006F09164
:1049B00091060995FF91EF91BF91AF919F918F91D2
:1049C0007F916F915F914F913F912F910F900FBE0B
:1049D0000F901F9018951F920F920FB60F921124EF
:1049E0002F933F938F939F93AF93BF9380919306A1
:1049F00090919406A0919506B091960630919206FA
:104A000023E0230F2D3720F40196A11DB11D05C011
:104A100026E8230F0296A11DB11D209392068093D4
:104A2000930690939406A0939506B0939606809172
:104A3000970690919806A0919906B0919A060196D2
:104A4000A11DB11D8093970690939806A093990697
:104A5000B0939A06BF91AF919F918F913F912F9103
:104A60000F900FBE0F901F9018953FB7F89480914C
:104A7000970690919806A0919906B0919A0626B54E
:104A8000A89B05C02F3F19F00196A11DB11D3FBF86
:104A90006627782F892F9A2F620F711D811D911D16
:104AA00042E0660F771F881F991F4A95D1F7089536
:104AB000CF92DF92EF92FF92CF93DF936B017C0155
:104AC0000E943525EB01C114D104E104F10489F001
:104AD0000E94FD280E9435256C1B7D0B683E7340AB
:104AE00090F381E0C81AD108E108F108C851DC4F01
:104AF000EACFDF91CF91FF90EF90DF90CF900895B4
:104B0000789484B5826084BD84B5816084BD85B5A8
:104B1000826085BD85B5816085BDEEE6F0E080816F
:104B200081608083E1E8F0E0108280818260808390
:104B3000808181608083E0E8F0E080818160808313
:104B4000E1EBF0E0808184608083E0EBF0E0808145
:104B500081608083EAE7F0E08081846080838081E7
:104B6000826080838081816080838081806880838F
:104B70001092C10008951F93CF93DF93182FEB017C
:104B800061E00E944326209711F460E004C0CF3F0B
:104B9000D10539F461E0812FDF91CF911F910C9401
:104BA0007C26E12FF0E0E65AFB4FE491E330F9F088
:104BB00048F4E130B9F0E230A1F584B5806284BDFB
:104BC000C8BD34C0E730E9F0E83019F1E43049F508
:104BD00080918000806280938000D0938B00C0938E
:104BE0008A0024C084B5806884BDC7BD1FC0809181
:104BF0008000806880938000D0938900C0938800F3
:104C000015C08091B00080688093B000C093B3005D
:104C10000DC08091B00080628093B000C093B4005A
:104C200005C0C038D1050CF0B5CFAFCFDF91CF9123
:104C30001F910895833081F028F4813099F08230FB
:104C4000A1F008958730A9F08830B9F08430D1F40C
:104C5000809180008F7D03C0809180008F7780934A
:104C60008000089584B58F7702C084B58F7D84BDA0
:104C700008958091B0008F7703C08091B0008F7D40
:104C80008093B0000895CF93DF9390E0FC01E25948
:104C9000FB4F2491FC01EE57FB4F8491882349F18F
:104CA00090E0880F991FFC01E655FB4FA591B49148
:104CB00080569B4FFC01C591D4919FB7611108C0EC
:104CC000F8948C91209582238C93888182230AC04A
:104CD000623051F4F8948C91322F309583238C9369
:104CE0008881822B888304C0F8948C91822B8C93CA
:104CF0009FBFDF91CF9108950F931F93CF93DF93C1
:104D00001F92CDB7DEB7282F30E0F901E65AFB4FEE
:104D10008491F901E259FB4F1491F901EE57FB4FD1
:104D200004910023C9F0882321F069830E941A2688
:104D30006981E02FF0E0EE0FFF1FE056FB4FA591D9
:104D4000B4919FB7F8948C91611103C010958123A1
:104D500001C0812B8C939FBF0F90DF91CF911F914A
:104D60000F910895CF93DF93282F30E0F901E65A91
:104D7000FB4F8491F901E259FB4FD491F901EE57B1
:104D8000FB4FC491CC2391F081110E941A26EC2F85
:104D9000F0E0EE0FFF1FEA56FB4FA591B4912C9166
:104DA0002D2381E090E021F480E002C080E090E0DB
:104DB000DF91CF910895FC01818D228D90E0805C80
:104DC0009F4F821B91098F7399270895FC01918D44
:104DD000828D981731F0828DE80FF11D858D90E05E
:104DE00008958FEF9FEF0895FC01918D828D9817A4
:104DF00061F0828DDF01A80FB11D5D968C91928DBF
:104E00009F5F9F73928F90E008958FEF9FEF0895BB
:104E100088E798E2892B49F080E090E0892B29F01F
:104E20000E94782881110C9400000895FC01848D63
:104E3000DF01A80FB11DA35ABF4F2C91848D90E0C4
:104E400001968F739927848FA689B7892C93A0899F
:104E5000B1898C9180648C93938D848D981306C056
:104E60000288F389E02D80818F7D80830895CF9320
:104E7000DF93EC01888D8823C9F0EA89FB89808162
:104E800085FD05C0A889B9898C9186FD0FC00FB634
:104E900007FCF5CF808185FFF2CFA889B9898C9175
:104EA00085FFEDCFCE010E941627E7CFDF91CF918E
:104EB0000895CF92DF92FF920F931F93CF93DF93CA
:104EC0001F92CDB7DEB76C0181E0D60158968C9366
:104ED00058975B969C915B975C968C915C97981326
:104EE00007C05096ED91FC915197808185FD2EC0B1
:104EF000F601038D10E00F5F1F4F0F731127F02E87
:104F0000F601848DF81211C00FB607FCF9CFD60157
:104F10005096ED91FC915197808185FFF1CFC601AC
:104F200069830E9416276981EBCF838DE80FF11DFD
:104F3000E35AFF4F6083D6015B960C935B975296C2
:104F4000ED91FC915397808180620CC0D6015696FA
:104F5000ED91FC91579760835096ED91FC9151979C
:104F600080818064808381E090E00F90DF91CF9119
:104F70001F910F91FF90DF90CF900895BF92CF9235
:104F8000DF92EF92FF92CF93DF93EC016A017B01F6
:104F9000B22EE889F98982E08083411581EE5807B5
:104FA00061057105A1F060E079E08DE390E0A70173
:104FB00096010E94302C2150310941095109569522
:104FC000479537952795211580E1380798F0E889AE
:104FD000F989108260E874E88EE190E0A7019601FB
:104FE0000E94302C215031094109510956954795AD
:104FF00037952795EC85FD853083EE85FF852083E9
:10500000188EEC89FD89B082EA89FB8980818061F4
:105010008083EA89FB89808188608083EA89FB89B3
:10502000808180688083EA89FB8980818F7D80838D
:10503000DF91CF91FF90EF90DF90CF90BF900895D8
:105040001F920F920FB60F9211242F938F939F935D
:10505000EF93FF93E091AB06F091AC068081E09175
:10506000B106F091B20682FD12C090818091B40623
:105070008F5F8F732091B506821751F0E091B406CF
:10508000F0E0E556F94F958F8093B40601C080811A
:10509000FF91EF919F918F912F910F900FBE0F90E5
:1050A0001F9018951F920F920FB60F9211242F93F5
:1050B0003F934F935F936F937F938F939F93AF93A0
:1050C000BF93EF93FF938BE996E00E941627FF9121
:1050D000EF91BF91AF919F918F917F916F915F9170
:1050E0004F913F912F910F900FBE0F901F901895E9
:1050F0008BE996E00E94DB2621E0892B09F420E071
:10510000822F089510929E0610929D0688EE93E0DD
:10511000A0E0B0E080939F069093A006A093A10624
:10512000B093A20687E192E090939C0680939B0641
:1051300085EC90E09093A8068093A70684EC90E01D
:105140009093AA068093A90680EC90E09093AC0619
:105150008093AB0681EC90E09093AE068093AD0611
:1051600082EC90E09093B0068093AF0686EC90E0DE
:105170009093B2068093B1061092B4061092B506D1
:105180001092B6061092B706089508950E948025E1
:105190000E94C5280E94C120C8E0D7E20E9470206A
:1051A0002097E1F30E940827F9CFCF92DF92EF9288
:1051B000FF920F931F93CF93DF936C017A01EB0162
:1051C000E60EF71E00E010E0CE15DF0561F06991F4
:1051D000D601ED91FC910190F081E02DC601099579
:1051E000080F191FF1CFC801DF91CF911F910F91C7
:1051F000FF90EF90DF90CF90089508955058BB270F
:10520000AA270ED0F7C1E8D130F0EDD120F031F46B
:105210009F3F11F41EF4B8C10EF4E095E7FBAEC158
:10522000E92FF9D180F3BA1762077307840795074E
:1052300018F071F49EF511C20EF4E0950B2EBA2F02
:10524000A02D0B01B90190010C01CA01A00111248C
:10525000FF27591B99F0593F50F4503E68F11A1638
:10526000F040A22F232F342F4427585FF3CF4695C9
:1052700037952795A795F0405395C9F77EF41F16EB
:10528000BA0B620B730B840BBAF09150A1F0FF0FB5
:10529000BB1F661F771F881FC2F70EC0BA0F621FA1
:1052A000731F841F48F4879577956795B795F79591
:1052B0009E3F08F0B3CF9395880F08F09927EE0F23
:1052C00097958795089588D158F080E891E009F482
:1052D0009EEF89D128F040E851E059F45EEF09C013
:1052E00053C1BBC1E92FE07896D168F3092E052A96
:1052F000C1F3261737074807590738F00E2E07F86D
:10530000E02569F0E025E0640AC0EF6307F8009447
:1053100007FADB01B9019D01DC01CA01AD01EF9380
:1053200047D068D10AD05F91552331F02BED3FE093
:1053300049E450FD49EC63CF0895DF93DD27B92F91
:10534000BF7740E85FE31616170648075B0710F4BF
:10535000D92F8ED19F938F937F936F9335D2E8EFA0
:10536000F0E015D147D12F913F914F915F9193D1AB
:10537000DD2349F09058A2EA2AED3FE049EC5FE3D3
:10538000D0785D274DDFDF9135C1D4D008F481E0BE
:1053900008950CD02FC127D140F01ED130F021F458
:1053A0005F3F19F0EBC0511159C1EEC034D198F3F1
:1053B0009923C9F35523B1F3951B550BBB27AA2796
:1053C00062177307840738F09F5F5F4F220F331F08
:1053D000441FAA1FA9F333D00E2E3AF0E0E830D0D4
:1053E00091505040E695001CCAF729D0FE2F27D0D7
:1053F000660F771F881FBB1F261737074807AB07A5
:10540000B0E809F0BB0B802DBF01FF2793585F4F19
:105410002AF09E3F510568F0B1C020C15F3FECF318
:10542000983EDCF3869577956795B795F7959F5FDE
:10543000C9F7880F911D9695879597F90895E1E032
:10544000660F771F881FBB1F621773078407BA0791
:1054500020F0621B730B840BBA0BEE1F88F7E095EC
:105460000895E1D088F09F5790F0B92F9927B75150
:10547000A0F0D1F0660F771F881F991F1AF0BA9518
:10548000C9F712C0B13081F0E8D0B1E00895E5C0AD
:10549000672F782F8827B85F39F0B93FCCF386950E
:1054A00077956795B395D9F73EF49095809570956B
:1054B00061957F4F8F4F9F4F0895E89409C097FBE8
:1054C0003EF490958095709561957F4F8F4F9F4FDB
:1054D0009923A9F0F92F96E9BB279395F69587951F
:1054E00077956795B795F111F8CFFAF4BB0F11F4E2
:1054F00060FF1BC06F5F7F4F8F4F9F4F16C0882389
:1055000011F096E911C0772321F09EE8872F762FBE
:1055100005C0662371F096E8862F70E060E02AF0FF
:105520009A95660F771F881FDAF7880F96958795EB
:1055300097F90895990F0008550FAA0BE0E8FEEFC0
:1055400016161706E807F907C0F012161306E40747
:10555000F50798F0621B730B840B950B39F40A2640
:1055600061F0232B242B252B21F408950A2609F41E
:10557000A140A6958FEF811D811D089597F99F6722
:1055800080E870E060E008959FEF80EC0895DF937D
:10559000CF931F930F93FF92EF92DF927B018C01C9
:1055A000689405C0DA2EEF0176D0FE01E894A5914B
:1055B0002591359145915591AEF3EF0131DEFE0114
:1055C0009701A801DA9479F7DF90EF90FF900F919F
:1055D0001F91CF91DF91089500240A9416161706A3
:1055E00018060906089500240A94121613061406D4
:1055F00005060895092E0394000C11F4882352F037
:10560000BB0F40F4BF2B11F460FF04C06F5F7F4FEE
:105610008F4F9F4F089557FD9058440F551F59F0D5
:105620005F3F71F04795880F97FB991F61F09F3F8F
:1056300079F087950895121613061406551FF2CFB8
:105640004695F1DF08C0161617061806991FF1CF08
:1056500086957105610508940895E894BB2766272F
:105660007727CB0197F9089565DF08F48FEF089548
:105670009B01AC0160E070E080E89FE38ACE0BD034
:10568000B9CFAADF28F0AFDF18F0952309F076CF65
:105690007BCF1124E3CFBFDFA0F3959FD1F3950F0C
:1056A00050E0551F629FF001729FBB27F00DB11DA6
:1056B000639FAA27F00DB11DAA1F649F6627B00D36
:1056C000A11D661F829F2227B00DA11D621F739F1F
:1056D000B00DA11D621F839FA00D611D221F749F2D
:1056E0003327A00D611D231F849F600D211D822F74
:1056F000762F6A2F11249F5750408AF0E1F08823BB
:105700004AF0EE0FFF1FBB1F661F771F881F9150C7
:105710005040A9F79E3F510570F030CF9FCF5F3FBB
:10572000ECF3983EDCF3869577956795B795F795FA
:10573000E7959F5FC1F7FE2B880F911D9695879582
:1057400097F9089511F40EF41FCF41C06CDFD0F328
:105750009923D9F3CEF39F57550B87FF46D00024EA
:10576000A0E640EA900180585695979528F4805C11
:10577000660F771F881F20F026173707480730F479
:10578000621B730B840B202931294A2BA695179491
:105790000794202531254A2758F7660F771F881F61
:1057A00020F026173707480730F4620B730B840B81
:1057B000200D311D411DA09581F7B901842F91580D
:1057C000880F9695879508959B01AC0158CF9F3F10
:1057D00031F0915020F4879577956795B795880FAC
:1057E000911D9695879597F9089591505040660FB1
:1057F000771F881FD2F70895991B79E004C0991F7D
:10580000961708F0961B881F7A95C9F7809508951A
:10581000AA1BBB1B51E107C0AA1FBB1FA617B707D6
:1058200010F0A61BB70B881F991F5A95A9F78095F2
:105830009095BC01CD01089597FB072E16F40094B6
:1058400007D077FD09D00E94082C07FC05D03EF454
:10585000909581959F4F0895709561957F4F08951C
:10586000A1E21A2EAA1BBB1BFD010DC0AA1FBB1F64
:10587000EE1FFF1FA217B307E407F50720F0A21BD6
:10588000B30BE40BF50B661F771F881F991F1A9443
:1058900069F760957095809590959B01AC01BD016D
:1058A000CF010895EE0FFF1F0590F491E02D0994AC
:1058B0002A0D3B1D4C1D5D1D6E1D7F1D801F911F00
:1058C00008950024A7FD00942A0F301D401D501D8F
:1058D000601D701D801D901D08950024A7FD00947B
:1058E0002A173005400550056005700580059005B4
:1058F0000895F999FECF92BD81BDF89A992780B598
:105900000895262FF999FECF1FBA92BD81BD20BD03
:105910000FB6F894FA9AF99A0FBE01960895F89482
:02592000FFCFB7
:10592200CDCC8C3F9A99993F6666A63F3333B33FFD
:105932000000C03FCDCCCC3F9A99D93F6666E63F86
:105942003333F33F0000004066660640CDCC0C4086
:10595200333313409A9919400000204033332340D7
:105962006666663FCDCC4C3F3333333F6666263F97
:105972009A99193FCDCC0C3F0000003F6666E63E87
:10598200CDCCCC3E3333B33E9A99993E0000803E53
:10599200CDCC4C3E9A99193ECDCCCC3D0000003F77
:1059A200CDCC8C3FCDCCAC3F0000C03F3333D33F96
:1059B2006666E63F9A99F93F666606400000104027
:1059C2009A99194033332340CDCC2C406666364039
:1059D200000040409A99494033335340CDCC5C405B
:1059E2006666663FCDCC4C3F3333333F6666263F17
:1059F2009A99193FCDCC0C3F0000003F6666E63E07
:105A0200CDCCCC3E3333B33E9A99993E0000803ED2
:105A1200CDCC4C3E9A99193ECDCCCC3D0000003FF6
:105A22001E120600000000D721AA217F2187219A99
:105A320021A921000000005927D528DB26F426E6FB
:045A420026372700DC
:00000001FF
