:100000000C94CB040C949D240C94CA240C94F304FB
:100010000C94F3040C94F3040C94F3040C94F30484
:100020000C94F3040C94F3040C94F3040C94F30474
:100030000C94F3040C94F3040C94F3040C94F30464
:100040000C94F7240C94F3040C9449280C947B280A
:100050000C94F3040C94F3040C94F3040C94F30444
:100060000C9440230C94F304CF0AD10AD70ADA0A7D
:10007000DD0AE20AE50AEA0AF10AF60AFC0A000BBE
:10008000060B0C0B0F0B150BB714BA14BD14C014D0
:10009000C314C614C914CC14CF14D214D514D81454
:1000A000DB14DE14E114A316D216161741177D17C0
:1000B000A41FA41FA41FA41FA41FC117DC1711187D
:1000C0007818A41FA41FA41FA41FA41FA41F901866
:1000D000B518E2183B199319A41FA41FA41FA41F4D
:1000E000A41F9D19C219461A8D1AA41FA41FA41F6C
:1000F000A41FA41FA41FEF1A141B571BA41FA41F87
:10010000A41FA41FA41FA41FA41F8F1BA21BDC1BC2
:10011000A41FA41FA41FA41FA41FA41FA41F141C5A
:10012000271C611CA41FA41FA41FA41FA41FA41F7D
:10013000A41F991CC91CEE1C2B1D651D911DB61D0D
:100140006E1E8C1EA41F9E1EC31E171F7F1F084AF3
:10015000D73B3BCE016E84BCBFFDC12F3D6C7431DB
:100160009ABD56833DDA3D00C77F11BED9E4BB4C32
:100170003E916BAAAABE000000803F000000002054
:10018000202030000028280000300000282800002F
:1001900030280028FF0000FC4000F88000F4C00078
:1001A000F0F000C0F40080F80040FC0000FF000008
:1001B000FC4000F88000F4C000F0F000C0F40080C3
:1001C000F80040FC0000FF4000FC8000F8C000F494
:1001D000F000F0F400C0F80080FC0040F02020D8CF
:1001E0004040C06060A08080E0E020C8C840B0B05F
:1001F0006098988020F02040D84060C06080A08047
:1002000020E0E040C8C860B0B08098982020F0405E
:1002100040D86060C08080A0E020E0C840C8B060E6
:10022000B0988098A0A0A03272603293878032602C
:1002300060328080603260803273656C65637420E8
:1002400062756E646C652E2E2E2000476F696E6796
:1002500020746F20736C6565700043414E445920D3
:100260005354524F424500434F4D4554205354522E
:100270004F424500524942424F4E004D4F52504866
:10028000205354524F4245004348415345004C458A
:10029000474F004544474500424C494E4B2D4500D1
:1002A0004441534820444F50530054524143455217
:1002B000005345495A555245205354524F42450028
:1002C00050554C5345005354524F42494500444FFA
:1002D0005053004859504552205354524F42450004
:1002E0005354524F424500207072696D6520423A66
:1002F0002000207072696D6520413A20006D6F64A6
:10030000652000616363656C2073656E7369746951
:10031000766974793A204849474800616363656C9F
:100320002073656E73697469766974793A204D45F6
:100330004449554D00616363656C2073656E736954
:100340007469766974793A204C4F57006D6F646513
:100350002000616363656C206D6F64653A204F46D1
:100360004600616363656C206D6F64653A20464C9E
:1003700049505A00616363656C206D6F64653A2073
:1003800054494C545900616363656C206D6F64651A
:100390003A2054494C545800616363656C206D6F7A
:1003A00064653A205350454544006D6F64652000F4
:1003B00020732D003A20692D0020736C6F7420008B
:1003C0002070616C657474652042002070616C65FA
:1003D0007474652041006D6F646520003A206D6F74
:1003E0006465200020736C6F74200062756E646C0D
:1003F00065200020736C6F74732D0062756E646CE1
:1004000065200020636F6E666967757265206163A1
:10041000632073656E73697469766974790020630B
:100420006F6E66696775726520616363206D6F64C6
:10043000650020636F6E666967757265207072690A
:100440006D6520420020636F6E6669677572652076
:100450007072696D6520410020636F6E6669677513
:1004600072652070616C6574746520420020636F52
:100470006E6669677572652070616C65747465205D
:1004800041006D6F6465200073617665643A2000F9
:1004900073617665643A20007365743A2000776969
:1004A0006C6C20736176652E2E2E20007377697434
:1004B000636865643A200077696C6C207365742EFC
:1004C0002E2E200065646974696E673A20006D61A4
:1004D00073746572207265736574002062706D209C
:1004E00074726967676572206973200020746F7485
:1004F000616C2000207468697320636C69636B20F1
:1005000000636C69636B20230073657474696E67A4
:100510002062706D00656469740077696C6C20748A
:100520006F67676C652062706D20737769746368AC
:10053000696E672E2E2E200073656C6563743A20F9
:1005400062756E646C65200077696C6C2065646907
:10055000742062756E646C652E2E2E200073776990
:1005600074636865643A2062756E646C6520007718
:10057000696C6C2073656C6563742062756E646C65
:10058000652E2E2E200073656C656374696E673A64
:1005900020006D61737465722072657365742E2E10
:1005A0002E200073656C656374696E6700736176F5
:1005B00065643A200077696C6C20736176652E2E35
:1005C000200073776974636865643A20007361760C
:1005D00065643A200077696C6C20736176652E2E15
:1005E0002E0073776974636865643A2000736176DE
:1005F000696E673A200073776974636865643A20AE
:100600000077696C6C20736176652E2E200065641E
:100610006974696E673A200020736C6F747300739D
:100620006176696E673A2000636F6E6669726D6508
:10063000643A200072656A6563740077696C6C20A7
:10064000736176652E2E2E200020736C6F747300FC
:10065000736176696E673A2000636F6E6669726DCA
:1006600065643A200077696C6C2072656A65637412
:100670002E2E2E2000636F6E6669726D3A20007315
:10068000656C65637465643A200073656C656374BA
:100690003A20007072657620636F6C6F723A2000AA
:1006A0006E65787420636F6C6F723A200073656CAE
:1006B0006563743A2000656469743A20006578695E
:1006C0007420636F6E666967206D656E750077696B
:1006D0006C6C20657869742E2E2E2000636F6E6618
:1006E00069677572696E673A200077696C6C20657E
:1006F0006E74657220636F6E6669672E2E2E200001
:10070000636F6E6669673A206D6F64652000736C75
:100710006565702E2E2E2000636F6E6A75726520DF
:100720006F666600636F6E6A757265206F6E006338
:100730006F6E6669672E2E2E2000736C656570697A
:100740006E6700746F67676C6520636F6E6A7572A1
:10075000652E2E2E2000636F6E6A7572653A206CCE
:1007600069676874206F6E00636F6E6A7572653AB0
:10077000206C69676874206F666600736C656570CD
:100780002E2E2E2000706C6179696E673A20007001
:100790006C6179696E672062706D3A200062706DDD
:1007A000206E657874206D6F64653A200050726920
:1007B0006D652076302E312E352E20454550524F16
:1007C0004D2056657273696F6E3A200056657273DC
:1007D000696F6E206D617463682E20526561646973
:1007E0006E672073617665642073657474696E67E3
:1007F000732E0056657273696F6E206D69736D613B
:100800007463682E2057726974696E672064656628
:1008100061756C747320746F20454550524F4D2E96
:10082000000A57656C636F6D6520746F20507269A4
:100830006D6572210000000101010101010101014A
:10084000010202020202020203030303030304047F
:10085000040404050505050606060607070707083C
:100860000808080909090A0A0A0A0B0B0B0C0C0CE8
:100870000D0D0E0E0E0F0F0F10101111111212137D
:1008800013141414151516161717181819191A1AFF
:100890001B1B1C1C1D1E1E1F1F2020212122232369
:1008A0002425252626272828292A2A2B2C2C2D2EBC
:1008B0002E2F303131323333343536363738393AFA
:1008C0003A3B3C3D3E3E3F40414243434445464720
:1008D00048494A4B4B4C4D4E4F505152535455562C
:1008E0005758595A5B5C5D5E5F6061626364656620
:1008F00067686A6B6C6D6E6F7071727475767778FD
:10090000797B7C7D7E7F81828384868788898B8CBE
:100910008D8E90919294959698999A9C9D9EA0A167
:10092000A3A4A5A7A8AAABACAEAFB1B2B4B5B7B8F3
:10093000B9BBBCBEC00000000800020100000304F7
:100940000700000000000000000102040810204021
:10095000800102040810200102040810200404048D
:100960000404040404020202020202030303030358
:1009700003000000002300260029000000000025DD
:100980000028002B0000000000240027002A00009F
:10099000EA145E22AB2811241FBECFEFD8E0DEBFE1
:1009A000CDBF11E0A0E0B1E0EAE8FDE502C00590AE
:1009B0000D92A03AB107D9F725E0A0EAB1E001C055
:1009C0001D92AC37B207E1F719E0C6E9D9E004C0DF
:1009D0002297FE010E942A2EC039D107C9F70E9432
:1009E000EF280C94C32E0C940000CF93DF93A82F14
:1009F000B0E096E0B595A7959A95E1F78F7390E0F2
:100A0000FC01EE0FFF1FE80FF91FE458FE4FE491C1
:100A1000F0E00A2E02C0F595E7950A94E2F7EB01A3
:100A2000E883FC01EE0FFF1FE80FF91FE358FE4FAC
:100A3000E491F0E00A2E02C0F595E7950A94E2F7FA
:100A4000EA01E883FC01EE0FFF1FE80FF91FE258EF
:100A5000FE4FE491F0E002C0F595E795AA95E2F724
:100A6000D901EC93DF91CF9108952F923F924F924D
:100A70005F926F927F928F929F92AF92BF92CF922E
:100A8000DF92EF92FF920F931F93CF93DF9300D0EB
:100A90001F92CDB7DEB71B01F22ED02EA9829B820A
:100AA0008A82042F10E0BC0180E090E00E94142CA8
:100AB0002B013C01B10180E090E00E94142C9B01CD
:100AC000AC01C301B2010E94802B2B013C01B80193
:100AD000882777FD8095982F0E94162C4B015C018A
:100AE0006E2D70E0601B710B882777FD8095982F25
:100AF0000E94162CA30192010E94F62C9B01AC01CE
:100B0000C501B4010E94B62A0E94E82BEA81FB814C
:100B100060830F2D10E0B801882777FD8095982F0E
:100B20000E94162C4B015C016C2D70E0601B710B58
:100B3000882777FD8095982F0E94162CA30192019B
:100B40000E94F62C9B01AC01C501B4010E94B62A9B
:100B50000E94E82BE88DF98D60830D2D10E0B8011F
:100B6000882777FD8095982F0E94162C6B017C01B9
:100B7000F9816F2F70E0601B710B882777FD8095DE
:100B8000982F0E94162CA30192010E94F62C9B0123
:100B9000AC01C701B6010E94B62A0E94E82BEA8D7B
:100BA000FB8D60830F900F900F90DF91CF911F917D
:100BB0000F91FF90EF90DF90CF90BF90AF909F90FC
:100BC0008F907F906F905F904F903F902F900895FF
:100BD0000F931F93CF93DF931F92CDB7DEB78C0196
:100BE00069830E94A52E6981681741F0C8010F90A2
:100BF000DF91CF911F910F910C94AD2E0F90DF914B
:100C0000CF911F910F9108950C94A52EFC01262FD2
:100C100030E0C901840F911D468557854817590753
:100C200050F017861686808990E00196618170E009
:100C30000E94D32D808B868597858217930760F459
:100C40008089E80FF11D26EA31E047EA51E068EAC1
:100C500071E082810C94F5041092A8011092A70112
:100C60001092A60108956F927F928F929F92AF92F9
:100C7000CF92EF920F931F93CF93DF93EC01662EE9
:100C8000062F10E0C801840F911D2E853F8528177F
:100C9000390758F01F861E86888990E001962981C1
:100CA000622F70E00E94D32D888B8E859F8566947D
:100CB000712C8615970530F58889FE01E80FF11D26
:100CC00023EA31E044EA51E065EA71E082810E9462
:100CD000F50486EA91E09F938F9387EA91E09F93D2
:100CE0008F9338EA832E31E0932EA090A301C09019
:100CF000A401E090A50100E020E040E0B3018E8572
:100D00009F852CC08017910780F58889FE01E80F28
:100D1000F11D23EA31E044EA51E065EA71E08281A5
:100D20000E94F504B801661977098E859F8526EA29
:100D300031E03F932F9327EA31E03F932F9328EA46
:100D4000822E21E0922EA12CC12CE12C0091A30136
:100D50002091A4014091A501861997090E943505AB
:100D60000F900F900F900F9006C01092A801109254
:100D7000A7011092A601DF91CF911F910F91EF90E3
:100D8000CF90AF909F908F907F906F900895FC01CF
:100D9000262F30E0C901840F911D468557854817DD
:100DA000590760F017861686808990E00196618168
:100DB00070E0615071090E94D32D808B86859785E4
:100DC0008217930788F4808990E00196618170E032
:100DD0000E94D32D8E0F9F1F26EA31E047EA51E093
:100DE00068EA71E0FC0106C026EA31E047EA51E01A
:100DF00068EA71E082810C94F5040F93CF93DF933E
:100E0000FC01818190E00197948B838B70E0869F39
:100E1000D001879FB00D969FB00D112430E0C9011D
:100E2000840F911DAC01049FC001059F900D1124FA
:100E30008A0F9B1F820F931FC685D785C817D907B6
:100E400010F017861686868597858A179B0770F49B
:100E50000E94BF2DDB01AE0FBF1F26EA31E047EA3B
:100E600051E068EA71E013968C9111C08A1B9B0BCC
:100E7000928B818BBA010E94D32D8217930764F065
:100E800026EA31E047EA51E068EA71E08281DF91C9
:100E9000CF910F910C94F5041092A8011092A70124
:100EA0001092A601DF91CF910F910895FC0121814D
:100EB000269F90011124C901840F911D46855785F5
:100EC0004817590710F0178616868685978582176A
:100ED000930780F470E00E94BF2DDB01AE0FBF1FAF
:100EE00026EA31E047EA51E068EA71E012968C9117
:100EF0000C94F5041092A8011092A7011092A6017B
:100F000008950F931F93CF93DF93FC01C181D0E02D
:100F10002197D28BC18B70E0C69F8001C79F100DB7
:100F2000D69F100D1124D801AA0FBB1FA40FB11D0D
:100F3000CD01820F911D268537852817390710F0BE
:100F400017861686868597858017910770F40E940C
:100F5000BF2DC61BD70BCE0FDF1F26EA31E047EAB5
:100F600051E068EA71E08A811AC09D01201B310BB3
:100F70008217930768F08A179B07B8F4821B930BBC
:100F80000E94BF2D6F5F7F4F748B638BE60FF71F3F
:100F900026EA31E047EA51E068EA71E08281DF91B8
:100FA000CF911F910F910C94F5041092A80110920B
:100FB000A7011092A601DF91CF911F910F91089583
:100FC00023E030E040E050E060E070E0CB010E94C0
:100FD000982A611571058105910539F06130710517
:100FE0008105910521F080E2089584E0089580E173
:100FF00008950F931F93CF93DF931F92CDB7DEB762
:101000008C01FC0181899289892B41F469830E94BA
:10101000E00790E0F801928B818B6981F80181896A
:101020009289860F911D268537852817390780F00C
:1010300017861686808990E00196618170E00E9493
:10104000D32D808B0E94E00790E0F801928B818B7A
:10105000F80126853785818992892817390788F410
:101060008089E80FF11D26EA31E047EA51E068EA9D
:1010700071E082810F90DF91CF911F910F910C94BD
:10108000F5041092A8011092A7011092A6010F90EA
:10109000DF91CF911F910F910895CF93DF93FC01C2
:1010A000362FC62FD0E0CE01840F911DA685B785BF
:1010B000A817B907C8F017861686418952894F5F6D
:1010C0005F4F528B418BA22FB0E011974A175B07FD
:1010D0005CF0128A118A808990E001964181642F28
:1010E00070E00E94D32D808B468557854C175D0795
:1010F000A0F5832F622F0E94B32D682F70E0CA01E4
:101100000E94BF2D748B638B81899289009751F463
:101110008089E80FF11D26EA31E047EA51E068EAEC
:1011200071E013C068177907ACF4808990E00196EC
:10113000618170E00E94D32D8E0F9F1F26EA31E05F
:1011400047EA51E068EA71E0FC018281DF91CF91CA
:101150000C94F50468177907D9F61092A80110923B
:10116000A7011092A601DF91CF9108958F929F92CF
:10117000AF92CF92EF92FF920F931F93CF93DF9393
:10118000EC01F22EE62FF0E08F01040F111D8E8589
:101190009F8580179107A8F01F861E8689899A89E6
:1011A00001969A8B898B30E08217930754F01A8A44
:1011B000198A888990E00196698170E00E94D32D98
:1011C000888B8E859F858E179F0708F051C0888970
:1011D000FE01E80FF11D23EA31E044EA51E065EA3F
:1011E00071E082810E94F504888990E0019669810E
:1011F00070E00E94D32D8C0F9D1F20EA31E041EA60
:1012000051E062EA71E0FC0182810E94F504F09EE7
:10121000B001F19E700D112489899A89089FF0010F
:10122000099FF00D189FF00D11248E859F8526EAE9
:1012300031E03F932F9327EA31E03F932F93A8EAC1
:101240008A2EA1E09A2EA090A001C090A101E0906A
:10125000A2010091A3012091A4014091A5018E0F4C
:101260009F1F0E9435050F900F900F900F9006C0A2
:101270001092A8011092A7011092A601DF91CF91C0
:101280001F910F91FF90EF90CF90AF909F908F9014
:101290000895CF93DF93FC01C62FD0E0CE01840FD9
:1012A000911D468557854817590728F117861686D8
:1012B000818992894389548930E0452B19F0319511
:1012C00021953109280F391F328B218B808990E0BD
:1012D0000196618170E00E94D32D808B1216130657
:1012E0001CF0148A138A07C02C173D0724F081E0F4
:1012F00090E0948B838B268537858189928982172C
:10130000930770F08089E80FF11D26EA31E047EA83
:1013100051E068EA71E08281DF91CF910C94F5048D
:101320001092A8011092A7011092A601DF91CF910F
:1013300008950F931F93CF93DF93FC01C62FD0E046
:10134000CE01840F911D468557854817590700F136
:1013500017861686818992890196928B818B30E05F
:1013600082179307ACF0128A118A838994890196B7
:10137000948B838B10E08017910754F0148A138AA2
:10138000808990E00196618170E00E94D32D808B6E
:10139000868597858C179D07C8F420898189928955
:1013A000820F911D618170E00E94D32D8E0F9F1FCF
:1013B00026EA31E047EA51E068EA71E0FC01828107
:1013C000DF91CF911F910F910C94F5041092A80119
:1013D0001092A7011092A601DF91CF911F910F915A
:1013E00008958F92AF92CF92EF920F93CF93DF93A6
:1013F000CDB7DEB7FC016083418322830383E4829F
:10140000C582A68287828A8580878B8581878C8525
:1014100082878D8583878E8584878F858587DF91F9
:10142000CF910F91EF90CF90AF908F9008950F9341
:101430001F93CF93DF93EC018B01CB010E94040635
:101440008883C80101960E9404068983C801029618
:101450000E9404068A83C80103960E9404068B83B7
:10146000C80104960E9404068C83C80105960E9458
:1014700004068D83C80106960E9404068E83C80167
:1014800007960E9404068F83C80108960E940406EE
:101490008887C80109960E9404068987C8010A96B0
:1014A0000E9404068A87C8010B960E9404068B8757
:1014B000C8010C960E9404068C87C8010D960E94F4
:1014C00004068D87DF91CF911F910F9108950F939F
:1014D0001F93CF93DF93EC018B016881C8010E94B9
:1014E000E8056981C80101960E94E8056A81C80182
:1014F00002960E94E8056B81C80103960E94E805E8
:101500006C81C80104960E94E8056D81C8010596AA
:101510000E94E8056E81C80106960E94E8056F8169
:10152000C80107960E94E8056885C80108960E94D0
:10153000E8056985C80109960E94E8056A85C80121
:101540000A960E94E8056B85C8010B960E94E80583
:101550006C85C8010C960E94E8056D85C8010D9642
:10156000DF91CF911F910F910C94E805AF92BF923C
:10157000CF92DF92EF92FF920F931F93CF93DF935F
:10158000EC017B016A015901088110E0003111056D
:1015900008F051C0F801EC5CFF4F0C94282E40E19C
:1015A00012C042E262E2CE010E94060644C044E15B
:1015B00063E0F9CF48E266E0F6CF42E368EC0E94D0
:1015C000330639C04EEB6AE0EECF48E266E00E9497
:1015D000C70631C001E024E143E063E00E94FD065C
:1015E0002AC044E66AE00E94560725C028E240E18E
:1015F00064E00E9481071FC060E10E94F9071BC0E0
:1016000025E044E164E60E944D0815C024E042E272
:1016100062E20E94B6080FC040E066E1C4CF22E05B
:1016200040E16EE10E94490906C008E023E040E184
:101630006AE00E9499098E859F8501969F878E8713
:101640008091A801F70180838091A701F601808332
:101650008091A601F5018083DF91CF911F910F91B9
:10166000FF90EF90DF90CF90BF90AF900895FC0176
:10167000148A138A128A118A108A17861686089588
:1016800083B78E7F83BF80E00C948D24EF92FF920E
:101690000F931F93CF93DF931F92CDB7DEB77C01DB
:1016A000FC0100811181C80169830E94A52E698116
:1016B000681719F0C8010E94AD2EC7010F90DF9185
:1016C000CF911F910F91FF90EF900895CF93DF93EB
:1016D000CDB7DEB765970FB6F894DEBF0FBECDBFAE
:1016E000FC0112A613A614A615A617A616A625E198
:1016F000FE013196DC0101900D922A95E1F725E17A
:10170000FE013196DC01559601900D922A95E1F784
:1017100065960FB6F894DEBF0FBECDBFDF91CF91B7
:101720000895AF92BF92CF92DF92EF92FF920F9304
:101730001F93CF93DF936C01EB018A017901FC01C8
:1017400082A596012B5E3F4F59019701811108C078
:10175000C5010E94B60A9701A801BE01C60107C0D3
:10176000C6010E94B60A9701A801BE01C501DF911A
:10177000CF911F910F91FF90EF90DF90CF90BF908E
:10178000AF900C94B60ACF93DF93EC010E94370B15
:10179000CE0145960E94370B1DA6DF91CF9108958B
:1017A000EF92FF920F931F93CF93DF9300D0CDB7AB
:1017B000DEB78C017B01FC0163A5FA82E982CE01D0
:1017C00001960E94460BF80164A5C70101969A8311
:1017D0008983CE0101960E94460BB7016E5F7F4F51
:1017E000C8010E94670AB701605F7F4FC801459634
:1017F0000E94670A0F900F90DF91CF911F910F9178
:10180000FF90EF9008953F924F925F926F927F9278
:101810008F929F92AF92BF92CF92DF92EF92FF9200
:101820000F931F93CF93DF9300D000D000D0CDB79C
:10183000DEB79E838D834A015B0128013901DC01FB
:101840009E968D919C919F9797FF04C09F961C92A6
:101850001E929E97ED81FE8183A5823009F4B4C06B
:1018600018F4813041F0ECC1833009F422C1843096
:1018700009F495C1E5C1AD81BE819C968C91882308
:1018800059F0813081F08230C1F485E0382E86E64F
:1018900096E6A6EABFE30DC02AE0322E80E090E093
:1018A000A0E2B0E406C099E1392E8AE999E9A9EDF0
:1018B000BFE389839A83AB83BC8320E030E0A90136
:1018C000C501B4010E94EB2C181624F0B7FAB094AD
:1018D000B7F8B09420E030E0A901C301B2010E9442
:1018E000EB2CA301920118160CF05058C501B4015D
:1018F0000E94B62A4B015C0120E030E0A901C7013B
:10190000B6010E94EB2CA701960118160CF0505856
:10191000C501B4010E94B62A20E030E040E85FE350
:101920000E94B52AAD81BE819A962C91211127C0C3
:1019300029813A814B815C810E94EB2C181644F47A
:10194000ED81FE8186A597A5019697A786A706C07B
:10195000AD81BE819F961C921E929E97832D90E032
:10196000ED81FE8126A537A5821793070CF068C18B
:1019700081E082A789E190E097A786A761C12AE963
:1019800039E949E95FE30E94EB2C18164CF489E130
:1019900090E0AD81BE819F969C938E939E9707C0E9
:1019A000ED81FE8186A597A5019797A786A7AD81B2
:1019B000BE819E968D919C919F97181619060CF4E6
:1019C0003FC19A961C923CC1A3019201C301B2018E
:1019D0000E94F62C2B013C01A7019601C701B6011C
:1019E0000E94F62C9B01AC01C301B2010E94B62AF1
:1019F0000E945D2D9B01AC01C501B4010E94292B01
:101A000020E030E044E353E40E94F62C2BED3FE06D
:101A100049E450E40E94802BED81FE81D2A4E6A42B
:101A2000F7A4D11016C020E030E046E952EC0E9445
:101A30007C2B87FF03C081E090E002C08FEF9FEF17
:101A4000E80EF91EAD81BE819F96FC92EE929E97A4
:101A500013C020E030E046E952E40E94EB2C181657
:101A60001CF481E090E002C08FEF9FEFE80EF91EBA
:101A7000ED81FE81F7A6E6A68FE090E0AD81BE8104
:101A80009C960C909C9702C0880F991F0A94E2F7CD
:101A90009E962D913C919F97821793070CF0D0C092
:101AA0009F961C921E929E9781E0DD2009F4C5C08E
:101AB000C3C0A5019401C501B4010E94F62C4B01DD
:101AC0005C01A7019601C701B6010E94F62C9B019B
:101AD000AC01C501B4010E94B62A0E945D2D9B0194
:101AE000AC01C301B2010E94292B20E030E044E3A5
:101AF00053E40E94F62C2BED3FE049E450E40E94B1
:101B0000802BAD81BE819A96DC909A979E96ED903F
:101B1000FC909F97D11014C020E030E046E952ECD1
:101B20000E947C2B87FF03C081E090E002C08FEF12
:101B30009FEFE80EF91EED81FE81F7A6E6A615C01F
:101B400020E030E046E952E40E94EB2C18161CF429
:101B500081E090E002C08FEF9FEFE80EF91EAD81AB
:101B6000BE819F96FC92EE929E978FE090E0ED8171
:101B7000FE8104A402C0880F991F0A94E2F726A5EB
:101B800037A5821793070CF05BC017A616A681E055
:101B9000D11080E0AD81BE819A968C9351C0ED81C9
:101BA000FE8192A4A6A4B7A4911018C023E333E346
:101BB00043E75FEBC701B6010E947C2B87FF03C0A0
:101BC00081E090E002C08FEF9FEFA80EB91EAD81BB
:101BD000BE819F96BC92AE929E9715C023E333E3DD
:101BE00043E75FE3C701B6010E94EB2C18161CF413
:101BF00081E090E002C08FEF9FEFA80EB91EED814B
:101C0000FE81B7A6A6A68FE090E0AD81BE819C962E
:101C10000C909C9702C0880F991F0A94E2F79E9639
:101C20002D913C919F978217930754F49F961C9295
:101C30001E929E9781E0911080E0ED81FE8182A747
:101C400026960FB6F894DEBF0FBECDBFDF91CF91C1
:101C50001F910F91FF90EF90DF90CF90BF90AF90CA
:101C60009F908F907F906F905F904F903F900895DE
:101C7000AF92BF92CF92DF92EF92FF920F931F939A
:101C8000CF93DF9300D0CDB7DEB739E0C32E31E07C
:101C9000D32E00E010E044ECE42E43E0F42EF601F5
:101CA00061916F01FA82E982CE0101960E94460B92
:101CB0005801FCE0AF0EB11CF801E35FFE4F6081FC
:101CC000C8018C579C4F9A838983CE0101960E944C
:101CD000460B0F5F1F4F0A151B0571F78FEFE81AB0
:101CE000F80A00331105D9F60F900F90DF91CF91CC
:101CF0001F910F91FF90EF90DF90CF90BF90AF902A
:101D00000895CF92DF92EF92FF920F931F93CF939C
:101D1000DF9359E0E52E51E0F52EC0E0D0E004EC71
:101D200013E0C8010E94A52EF70181937F016E0187
:101D3000FCE0CF0ED11CCE018C579C4F0E94A52EEB
:101D4000FE01E35FFE4F80832196CC15DD0599F7F8
:101D50000F5F1F4F083C83E0180719F7DF91CF9101
:101D60001F910F91FF90EF90DF90CF9008950F9308
:101D70001F93CF93DF93C5E5D1E00DE311E06991A7
:101D80007991F801819191918F010E94D00BF1E03E
:101D9000CD36DF07A1F7DF91CF911F910F91089505
:101DA000CF92DF92EF92FF920F931F93CF93DF9327
:101DB00065E5E62E61E0F62E7DE3C72E71E0D72EB5
:101DC000F701019111917F01F601C191D1916F014C
:101DD000C8010E94A52E8BA7C80101960E94A52EBE
:101DE0008CA7B8016E5F7F4FCE010E94170AB80121
:101DF000605F7F4FCE0145960E94170AFDE6EF1601
:101E0000F1E0FF06E9F6DF91CF911F910F91FF906E
:101E1000EF90DF90CF9008958F929F92AF92BF92F4
:101E2000CF92DF92EF92FF920F931F93CF93DF93A6
:101E3000CDB7DEB765970FB6F894DEBF0FBECDBF46
:101E400011E010930D0410930E041F921F921F9225
:101E50001F921F92E2E4FE2EFF92F3E48F2EA4E481
:101E6000AA2EB5E4CB2E06E4E02E07E423E747E0F4
:101E700068E0CE0101960E94F10985E1FE013196EC
:101E8000A2EEB3E001900D928A95E1F71F921F92A6
:101E90001F921F928FE58F938CE58F9389E5882E93
:101EA00096E5A92E23E5C22E30E5E32E0DE42AE4C3
:101EB00048E063E0CE0101960E94F10985E1FE0150
:101EC0003196A7EFB3E001900D928A95E1F7109358
:101ED000DD031092DE034CE9D42EDF9288E78F9366
:101EE00098E99F938F9394E99F938F9350E9852E60
:101EF00068E7A62E7CE8C72EE8E7EE2E08E828E77C
:101F00004CE062E0CE0101960E94F10985E1FE01FC
:101F10003196A2EBB3E001900D928A95E1F71F9202
:101F20001F921F921F921F92DF92F8E98F2EA4E951
:101F3000AA2EB0E9CB2E8CE8E82E28E747E067E030
:101F4000CE0101960E94F10985E1FE013196A7ECD0
:101F5000B3E001900D928A95E1F71093AD031093D1
:101F6000AE031F921F921F921F929AE5D92EDF9205
:101F700086E08F9326E0822E36E0A32E46E5C42E1F
:101F800056E0E52E06E026E048E062E0CE0101964C
:101F90000E94F10985E1FE013196A2E8B3E00190CB
:101FA0000D928A95E1F71F921F921F921F921F9226
:101FB0001F92812C6AE5A62E76E4C72EE6E5EE2E6A
:101FC00006E426E445E066E0CE0101960E94F109B0
:101FD00085E1FE013196A7E9B3E001900D928A9563
:101FE000E1F710937D0310937E030FB6F894DEBFE4
:101FF0000FBECDBF1F921F92F8E5BF2EBF921F9359
:1020000087E58F931F93A6E58A2EAA24A394B5E5AE
:10201000CB2EEE24E39404E521E04AE063E0CE0118
:1020200001960E94F10985E1FE013196A2E5B3E037
:1020300001900D928A95E1F71F921F921F921F92B5
:1020400085E58F9386E58F9307E5802E88E5A82E9A
:1020500097E5C92E26E5E22E05E524E548E06AE08D
:10206000CE0101960E94F10985E1FE013196A7E6B5
:10207000B3E001900D928A95E1F710934D03109310
:102080004E031F923AED932E9F928AE98F93DF922F
:102090001F9284ED8F9344E9842E54E5A52EC12C24
:1020A00066EDE62E06E926E54CE060E0CE010196FD
:1020B0000E94F10985E1FE013196A2E2B3E00190B0
:1020C0000D928A95E1F71F921F921F921F921F9205
:1020D0009F927AED872EEAEDAE2EFAE9CF2EA4E993
:1020E000EA2E04E526E547E069E0CE0101960E946C
:1020F000F10985E1FE013196A7E3B3E001900D926D
:102100008A95E1F784E080931D03B2E09B2E9092C4
:102110001E031F921F921F921F921F921F92812CCB
:10212000A12C08E5C02E8AE5E82E08E526E544E066
:102130006EE0CE0101960E94F10985E1FE01319623
:10214000A2EFB2E001900D928A95E1F71F921F92E3
:102150001F921F921F921F9298E4C92E2AE4E22E2A
:1021600008E42EE544E06EE0CE0101960E94F109FC
:1021700085E1FE013196A7E0B3E001900D928A95CA
:10218000E1F71092ED020FB6F894DEBF0FBECDBF9F
:10219000FF92FF92FF9284E58F93FF92FF9232E4C9
:1021A000832E4EE4A42E52E4C52E62E4E62E02E411
:1021B0002AE54CE060E0CE0101960E94F10985E13C
:1021C000FE013196A2ECB2E001900D928A95E1F702
:1021D0001092BD021F9282E18F938AE18F931F922A
:1021E00086E18F938EE08F93812C7AE1A72EE6E132
:1021F000CE2EE12C02E12EE046E06FE0CE0101960A
:102200000E94F10985E1FE013196A2E9B2E0019058
:102210000D928A95E1F710928D021F928AE48F93B6
:10222000DF921F921F92DF92F2E48F2EA12CC12C1D
:10223000A2E5EA2E0AE420E04CE06CE0CE01019633
:102240000E94F10985E1FE013196A2E6B2E001901B
:102250000D928A95E1F710935D0290925E021F92B3
:102260001F921F921F921F921F92812CB6E5EB2E98
:102270000AE52EE443E061E0CE0101960E94F109F7
:1022800085E1FE013196A2E3B2E001900D928A95BC
:10229000E1F710922D021F921F921F921F928BE561
:1022A0008F93BF9215E5812E02E5A02E8FE4C82EF4
:1022B0009CE4E92E09E42EE548E06BE0CE010196AE
:1022C0000E94F10985E1FE013196A2E0B2E00190A1
:1022D0000D928A95E1F71092FD011F921F921F92B5
:1022E0001F921F921F92812CA12CC12C2AE5E22E55
:1022F00000E026E544E061E0CE0101960E94F1098C
:1023000085E1FE013196A2EDB1E001900D928A9532
:10231000E1F70FB6F894DEBF0FBECDBF0E94B70E37
:1023200065960FB6F894DEBF0FBECDBFDF91CF919B
:102330001F910F91FF90EF90DF90CF90BF90AF90E3
:102340009F908F900895FF920F931F93CF93DF93E9
:10235000F82ED62FC42F0E9441250091CA0110915A
:10236000CB012091CC013091CD01601B710B820B10
:10237000930B61157D478105910568F30E94412506
:102380006093CA017093CB018093CC019093CD01EF
:10239000EF2DF0E0EB5CF74FE4916E2F70E089E0F9
:1023A0000E94E425ED2FF0E0EB5CF74FE4916E2FF7
:1023B00070E086E00E94E425EC2FF0E0EB5CF74F44
:1023C000E4916E2F70E085E0DF91CF911F910F9126
:1023D000FF900C94E425EF92FF920F931F93CF93FD
:1023E000DF93182F062FF42EE22ED0E0DE1589F0B1
:1023F000C0E0C23320F44F2D602F812F03C040E096
:1024000060E080E00E94A311CF5FC43691F7DF5FE8
:10241000EDCFDF91CF911F910F91FF90EF90089535
:102420001092CE01E091CF018CE0E89FF0011124E1
:10243000E35FFE4FE081F0E0EE0FFF1FE35CFE4F35
:10244000808191819093D1018093D0011092B2014B
:102450001092B3011092B4011092B5010E94C30B07
:10246000E091D001F091D10112A61092BD0110921D
:10247000BE011092BF011092C0011092C1011092D2
:10248000C2011092C3011092C4011092C5011092B2
:10249000C6011092C7011092C80108952091CF0182
:1024A00030E08091CE0190E00196F901E75FFE4FA8
:1024B000608170E00E94D32D8093CE014CE0429F5A
:1024C000F001439FF00D1124E80FF91FE35FFE4F69
:1024D000E081F0E0EE0FFF1FE35CFE4F8081918111
:1024E0009093D1018093D0011092B2011092B30168
:1024F0001092B4011092B5010E94C30BE091D0017B
:10250000F091D10112A61092BD011092BE0110925D
:10251000BF011092C0011092C1011092C20110922D
:10252000C3011092C4011092C5011092C60110920D
:10253000C7011092C80108956F927F928F929F9267
:10254000AF92BF92CF92DF92EF92FF920F931F93C1
:10255000CF93DF933A01D62FC72F680179018034DA
:102560007CF580320CF08054682F772767FD7095DA
:10257000872F972F0E94162C20E030E040EA51E48C
:102580000E94802BA70196010E94F62C4B015C0152
:10259000A701960160E070E080E89FE30E94B52A01
:1025A0009B01AC01B3018D2F9C2F0E94F62C9B0147
:1025B000AC01C501B4010E94B62A3B01D82FC92F36
:1025C000B3018D2F9C2FDF91CF911F910F91FF9021
:1025D000EF90DF90CF90BF90AF909F908F907F90C3
:1025E0006F90089562E874E08FED94E00E943C29BA
:1025F0008091CE01E091CF019CE0E99FF001112490
:10260000E80FF11DE35FFE4F608170E06F5F7F4F69
:102610004AE050E08FED94E00E94212A8091BB01B6
:10262000823091F038F4882361F0813099F468E5C4
:1026300074E012C0833059F0843061F46EE174E0CC
:102640000BC06DE674E008C065E474E005C062E3A9
:1026500074E002C063E074E08FED94E00C946C29A8
:102660006BEF73E08FED94E00E943C296091CF0105
:1026700070E06F5F7F4F4AE050E08FED94E00E9482
:10268000212A63EF73E08FED94E00E943C29E091F2
:10269000CF01F0E0E75FFE4F4AE050E060818FED50
:1026A00094E00C944E2A6BEE73E08FED94E00E9460
:1026B0003C296091CF0170E06F5F7F4F4AE050E0AE
:1026C0008FED94E00E94212A64EE73E08FED94E098
:1026D0000E943C296091CE0170E06F5F7F4F4AE01D
:1026E00050E08FED94E00E94212A6CED73E08FEDB5
:1026F00094E00E943C298091CE01E091CF019CE0C2
:10270000E99FF0011124E80FF11DE35FFE4F6081A6
:1027100070E06F5F7F4F4AE050E08FED94E00C94E3
:10272000212A66ED73E08FED94E00E943C298091B0
:10273000CE01E091CF019CE0E99FF0011124E80F68
:10274000F11DE35FFE4F608170E06F5F7F4F4AE0F5
:1027500050E08FED94E00E94212AE091D001F091A9
:10276000D10182A5811103C06BEC73E002C060EC63
:1027700073E08FED94E00C943C29CF930E94911369
:1027800069EB73E08FED94E00E943C29E091D00169
:10279000F091D10165A570E06F5F7F4F4AE050E096
:1027A0008FED94E00E94212A64EB73E08FED94E0BA
:1027B0000E943C29E091D001F091D10185A592A51C
:1027C000C5E1C99FE00DF11D1124E80FF11D6281E3
:1027D0006F7370E040E150E08FED94E00E94212A99
:1027E00060EB73E08FED94E00E943C29E091D00112
:1027F000F091D10185A592A5C99FE00DF11D11248D
:10280000E80FF11D628170E056E0759567955A9565
:10281000E1F74AE050E08FED94E0CF910C94212A4B
:102820006AEA73E08FED94E00E943C298091CE012A
:10283000E091CF019CE0E99FF0011124E80FF11D28
:10284000E35FFE4F4AE050E060818FED94E00E942C
:102850004E2AE091D001F091D10183A5823069F038
:1028600028F4813081F468E973E00FC0833041F0CF
:10287000843049F462E673E008C066E873E005C09E
:1028800064E773E002C062E573E08FED94E00C94BE
:102890003C296CE473E08FED94E00E943C29809128
:1028A000CE01E091CF019CE0E99FF0011124E80FF7
:1028B000F11DE35FFE4F4AE050E060818FED94E050
:1028C0000E944E2AE091D001F091D10184A5882385
:1028D00029F0813031F46BE173E005C065E373E00A
:1028E00002C063E073E08FED94E00C943C296DEF3F
:1028F00072E08FED94E00E943C298091CE01E0913E
:10290000CF019CE0E99FF0011124E80FF11DE35F86
:10291000FE4F608170E06F5F7F4F4AE050E08FEDC7
:1029200094E00E94212AE091D001F091D10182A58A
:10293000811103C062EF72E002C067EE72E08FEDBA
:1029400094E00E943C29E091D001F091D10182A550
:1029500095E1899FE00DF11D1124808190E08F3079
:10296000910590F5FC01EC5BFF4F0C94282E60EE76
:1029700072E02CC063ED72E029C06EEC72E026C0FC
:1029800066EC72E023C060EC72E020C061EB72E0A4
:102990001DC06AEA72E01AC060EA72E017C068E916
:1029A00072E014C063E972E011C06EE872E00EC01C
:1029B00068E872E00BC06BE772E008C064E772E0A1
:1029C00005C067E672E002C06AE572E08FED94E050
:1029D0000C943C2982EE93E00E94660B82EB93E01C
:1029E0000E94660B82E893E00E94660B82E593E00A
:1029F0000E94660B82E293E00E94660B82EF92E0F7
:102A00000E94660B82EC92E00E94660B82E992E0E3
:102A10000E94660B82E692E00E94660B82E392E0DF
:102A20000E94660B82E092E00E94660B82ED91E0CC
:102A30000E94660B0E9441256093CA017093CB01EE
:102A40008093CC019093CD010895CF93DF93D82F3D
:102A5000C62F6CE470E082E194E00E9446226D2F64
:102A600082E194E00E94E3216C2F82E194E00E94D5
:102A7000E32182E194E0DF91CF910C945B2282E12B
:102A800094E00E94222260E087E00E94251560E128
:102A900086E00E94251560E088E00E94251561E02F
:102AA00087E00C9425150F931F93CF93DF9300D0ED
:102AB000CDB7DEB78091640084608093640026E027
:102AC00040E051EE60E070E08FED94E00E94E72777
:102AD00080E00E94C725BC01882777FD8095982F4C
:102AE0000E946C2A61E089E00E946C2661E086E029
:102AF0000E946C2661E085E00E946C2660E082E026
:102B00000E946C2661E081E10E946C2661E081E117
:102B10000E94A52661E278E08FED94E00E946C2986
:102B200080E092E00E94A52E8336A1F063EF77E06B
:102B30008FED94E00E946C290E940C0F0E94380EC9
:102B400080E092E09A83898363E6CE0101960E9439
:102B5000460B0AC06CEC77E08FED94E00E946C2984
:102B60000E94D00E0E94810E6DEA77E08FED94E016
:102B70000E943C294AE050E063E68FED94E00E9419
:102B8000552A0DE311E0F801819191918F010E9486
:102B9000C30BF1E005351F07B1F70E943F15F8940C
:102BA00010927A0085B5887F816085BD8091810013
:102BB000887F816080938100789460EA7FE080E084
:102BC00090E00E9464250E9441256093CA017093A1
:102BD000CB018093CC019093CD010E94101281E033
:102BE000809308010F900F90DF91CF911F910F916B
:102BF000089582E194E00E94222260E187E00C9433
:102C000025150F931F93CF93DF936BE472E08FED45
:102C100094E00E946C2940E060E080E00E94A311F3
:102C20000E94F91560E081E10E94A52660EA7FE03C
:102C300080E090E00E94642583B7817F846083BF39
:102C400083B7816083BFF89442E050E060E47BE0AA
:102C500080E00E946D2481E08CBB80E685BF80E42B
:102C600085BF789488950E9441256093CA0170932E
:102C7000CB018093CC019093CD01C0E0D0E082E005
:102C80000E94DB26892B91F50E9441250091CA0103
:102C90001091CB012091CC013091CD01601B710BC3
:102CA000820B930B61307D478105910558F00E949E
:102CB00041256093CA017093CB018093CC0190931E
:102CC000CD012196C13D87E0D807C8F269E372E0E3
:102CD0008FED94E00E943C2925E040E860E080E030
:102CE0000E94EB1186E48093BC0105C0C13DD74032
:102CF00068F71092BC0161E081E10E94A5260E9464
:102D00003F150E94101281E0809308011092B701D4
:102D10001092B80160EA7FE080E090E0DF91CF910F
:102D20001F910F910C946425CF93C82F4091BC0143
:102D300050E04435510510F00C94A41FFA01ED5AEF
:102D4000FF4F0C94282E809108018823A9F08091D0
:102D5000B601882319F06FE877E002C065E877E0F4
:102D60008FED94E00E943C290E9453138FED94E074
:102D70000E94682910920801CC2311F40C94AD1F15
:102D80008091B9019091BA018536910510F40C94A7
:102D9000AD1F1092BA011092B90181E08093BC017D
:102DA0000C94AD1F8091B9019091BA01893E934076
:102DB000B8F06BE777E08FED94E00E943C2925E0C6
:102DC00040E860E880E80E94EB1184EF91E0909386
:102DD000BA018093B90182E08093BC010C94AD1FCD
:102DE000C1110C94AD1F8091B801882391F080919E
:102DF000B70191E089278093B701882319F068E62D
:102E000077E002C066E577E08FED94E00E946C29E0
:102E100005C00E944E1281E0809308011092BA0111
:102E20001092B9011092BC010C94AD1F8091B901B0
:102E30009091BA01813D9740B8F063E477E08FED5F
:102E400094E00E943C2925E040E860E080E00E9498
:102E5000EB1184EF91E09093BA018093B90183E084
:102E60008093BC010C94AD1FC1110C94AD1F6AE39B
:102E700077E08FED94E00E946C290E9401160C947B
:102E8000AD1F8091B9019091BA01813D9740B8F092
:102E90006FE277E08FED94E00E943C2925E040E06E
:102EA00060E880E80E94EB1184EF91E09093BA0112
:102EB0008093B90184E08093BC010C94AD1FC111D3
:102EC0000C94AD1F8091B80191E089278093B801DF
:102ED0001092B701882319F064E277E002C068E13C
:102EE00077E08FED94E00E946C291092BA01109265
:102EF000B9011092BC010C94AD1F8091B901909161
:102F0000BA01813D9740B8F06EE077E08FED94E034
:102F10000E943C2925E040E860E880E80E94EB112F
:102F200084EF91E09093BA018093B90182E080939D
:102F3000BC010C94AD1FC1110C94AD1F8091D00148
:102F40009091D1010E94C30B60E077E08FED94E097
:102F50000E943C290E9453138FED94E00E9468293F
:102F6000E091D001F091D10115A61092BA01109212
:102F7000B90181E0809308018AE08093BC010C9440
:102F8000AD1F80910801882321F00E94F212109257
:102F90000801CC2309F4E1C78091B9019091BA01ED
:102FA0008536910508F4D9C71092BA011092B9017B
:102FB0008BE08093BC01D1C7811115C08091BB010A
:102FC00090E0019666E070E00E94D32D8093BB01F3
:102FD0001092BA011092B90181E0809308018AE051
:102FE0008093BC01BAC78091B9019091BA01893E22
:102FF000934008F4B2C76AEE76E08FED94E00E9449
:103000003C2925E040E060E880E80E94EB1184EF75
:1030100091E09093BA018093B9018CE08093BC0158
:103020009CC781114DC01092BA011092B9016CED8C
:1030300076E08FED94E00E943C298091BB018230C4
:10304000E1F050F4882381F0813039F5E091D0012E
:10305000F091D10182A70DC08330A9F08430E9F44A
:103060000E94101482E31CC0E091D001F091D101C4
:1030700012A60E94BD1384E113C0E091D001F0912B
:10308000D10112A606C0E091D001F091D10181E0FA
:1030900082A70E94771488E203C00E9449148CE33F
:1030A0008093BC018091D0019091D1010E94C30B0B
:1030B00081E0809308018FED94E00E9468294DC75C
:1030C0008091B9019091BA01813D974008F445C7BC
:1030D0006EEC76E08FED94E00E943C2925E040E81C
:1030E00060E880E80E94EB118DE08093BC0135C759
:1030F000811133C78091D0019091D1010E94C30BFF
:103100006DEB76E08FED94E00E946C291092BA018D
:103110001092B90181E0809308011092BC011DC793
:1031200080910801882371F066EB76E08FED94E0E2
:103130000E943C290E94BD138FED94E00E946829F3
:1031400010920801CC2309F408C78091B90190912D
:10315000BA018536910508F400C71092BA011092A1
:10316000B90185E18093BC01F8C68091B9019091C5
:10317000BA01893E9340E0F06DEA76E08FED94E08D
:103180000E943C290E94BD138FED94E00E946829A3
:1031900025E040E460E480E40E94EB1184EF91E0DC
:1031A0009093BA018093B90187E18093BC01D5C6A1
:1031B000C111D3C61092BA011092B90186E1809371
:1031C000BC01CBC68091B9019091BA018D3B924070
:1031D00050F1E091D001F091D10192A585A5A5E132
:1031E0009A9FE00DF11D1124E80FF11D828190E0FE
:1031F000805C9F4F6FE370E00E94D32D828360EA72
:1032000076E08FED94E00E943C290E94BD138FED83
:1032100094E00E9468291092BA011092B90184E1E9
:103220008093BC019AC6CC2309F497C6E091D001E3
:10323000F091D10192A585A5B5E19B9FE00DF11D0F
:103240001124E80FF11D828190E0CE966FE370E0CB
:103250000E94D32D828363E976E08FED94E00E9493
:103260003C290E94BD138FED94E00E94682988E1FB
:103270008093BC0172C68091B9019091BA01893ED8
:10328000934048F1E091D001F091D10192A585A53C
:1032900025E1929FE00DF11D1124E80FF11D8281BF
:1032A000805C82836AE876E08FED94E00E943C299E
:1032B0000E94BD138FED94E00E94682925E040E450
:1032C00060E480E40E94EB1184EF91E09093BA01F6
:1032D0008093B90142C6C11140C6E091D001F0917E
:1032E000D10182A5DF0135E1839FA00DB11D11241D
:1032F00085A58F5F11968C936FE776E08FED94E054
:103300000E943C290E94BD138FED94E00E94682921
:103310001092BA011092B90181E0809308018EE108
:103320008093BC011AC6811118C61092BA0110927E
:10333000B90184E18093BC0110C680910801882303
:1033400071F065E776E08FED94E00E943C290E94E1
:10335000BD138FED94E00E94682910920801CC23E0
:1033600009F4FBC58091B9019091BA0185369105A8
:1033700008F4F3C51092BA011092B9018FE180935D
:10338000BC01EBC58091B9019091BA01813D974094
:10339000B0F065E676E08FED94E00E943C2925E0F0
:1033A00040E060E080E80E94EB1184EF91E09093B0
:1033B000BA018093B90180E28093BC01CEC5C111EE
:1033C000CCC5E091D001F091D10185A58F5F85A793
:1033D0001092BA011092B90169E576E08FED94E0A0
:1033E0000E943C290E94BD138FED94E00E94682941
:1033F0008091D0019091D101FC0125A52C3009F0DC
:1034000041C03091CE01E091CF012E9FF0011124F7
:10341000E30FF11DE35FFE4FE081F0E0EE0FFF1FD1
:10342000EB5AFE4F608171810E94D00B8091D001D8
:103430009091D1010E94C30B60E576E08FED94E09E
:103440000E943C29E091D001F091D10182A525E1B3
:10345000829FE00DF11D11244AE050E061818FED63
:1034600094E00E944E2A69E476E08FED94E00E9499
:103470006C2925E040E860E880E80E94EB1110929A
:10348000BC016BC584E18093BC0167C58091B90123
:103490009091BA01813D974080F06BE376E08FED2B
:1034A00094E00E943C2925E040E860E880E80E9422
:1034B000EB1181E28093BC0150C5C1114EC5109241
:1034C000BA011092B90164E376E08FED94E00E94B6
:1034D0006C29E091D001F091D10185A5811105C041
:1034E00081E08093080184E10FC0815085A782A507
:1034F00095E1899FE00DF11D112481818150818327
:1035000081E0809308018EE18093BC010E94BD138D
:103510008FED94E00E94682920C581111EC568E2E4
:1035200076E08FED94E00E943C290E94BD138FED60
:1035300094E00E9468298091D0019091D101DC0132
:103540009A962C919A97C5E1FC01C29FE00DF11D5E
:1035500011249D962C912F5F21832091CE01E09123
:10356000CF01BCE0EB9FF0011124E20FF11DE35FFE
:10357000FE4FE081F0E0EE0FFF1FEB5AFE4F60813F
:1035800071810E94D00B8091D0019091D1010E9455
:10359000C30B6FE176E08FED94E00E943C29E0914F
:1035A000D001F091D10182A5C89FE00DF11D112439
:1035B0004AE050E061818FED94E00E944E2A68E17C
:1035C00076E08FED94E00E946C291092BA0110927F
:1035D000B90181E0809308011092BC01BEC48091C2
:1035E0000801882371F06EE076E08FED94E00E9490
:1035F0003C290E9477148FED94E00E946829109274
:103600000801CC2309F4A9C48091B9019091BA01B1
:103610008536910508F4A1C41092BA011092B9013F
:1036200089E28093BC0199C42091B9013091BA011B
:10363000203D374080F061E076E08FED94E00E941D
:103640003C2925E040E860E880E80E94EB118AE22E
:103650008093BC0182C4811180C4E091D001F091BB
:10366000D10182A525E1829FE00DF11D1124808109
:1036700090E001968F709927808366EF75E08FED5B
:1036800094E00E943C290E9477148FED94E00E9400
:1036900068298091D0019091D1010E94C30B1092B2
:1036A000BA011092B90188E28093BC0156C481111D
:1036B00054C48091CE01E091CF013CE0E39FF00142
:1036C0001124E80FF11DE35FFE4FE081F0E0EE0F03
:1036D000FF1FEB5AFE4F608171818091D001909164
:1036E000D1010E94D00B8091D0019091D1010E9414
:1036F000C30B6DEE75E08FED94E00E943C290E94B3
:1037000077148FED94E00E9468291092BA0110920C
:10371000B90181E0809308011092BC011EC4882386
:1037200009F41BC48091B9019091BA0185369105C5
:1037300008F413C41092BA011092B90183E3809384
:10374000BC010BC4811120C0E091D001F091D101E6
:1037500083A590E0019665E070E00E94D32D83A7D9
:1037600062EE75E08FED94E00E943C290E941014F7
:103770008FED94E00E9468291092BA011092B9016D
:1037800082E38093BC01E9C38091B9019091BA01B1
:10379000803D974008F4E1C365ED75E08FED94E05E
:1037A0000E943C2925E040E860E880E80E94EB1197
:1037B00084E38093BC01D1C38111CFC38091CE013A
:1037C000E091CF01BCE0EB9FF0011124E80FF11D67
:1037D000E35FFE4FE081F0E0EE0FFF1FEB5AFE4F7C
:1037E000608171818091D0019091D1010E94D00BB4
:1037F0008091D0019091D1010E94C30B6DEC75E0D6
:103800008FED94E00E943C290E9410148FED94E00B
:103810000E9468291092BA011092B90181E0809348
:1038200008011092BC0199C3882309F496C38091C2
:10383000B9019091BA018536910508F48EC31092B2
:10384000BA011092B9018DE38093BC0186C3811146
:1038500020C0E091D001F091D10184A590E00196C3
:1038600063E070E00E94D32D84A762EC75E08FEDD9
:1038700094E00E943C290E9449148FED94E00E943C
:1038800068291092BA011092B9018CE38093BC01AF
:1038900064C38091B9019091BA01803D974008F4CA
:1038A0005CC365EB75E08FED94E00E943C2925E058
:1038B00040E860E880E80E94EB118EE38093BC0151
:1038C0004CC381114AC38091CE01E091CF012CE01D
:1038D000E29FF0011124E80FF11DE35FFE4FE0814C
:1038E000F0E0EE0FFF1FEB5AFE4F60817181809177
:1038F000D0019091D1010E94D00B8091D001909184
:10390000D1010E94C30B6DEA75E08FED94E00E9437
:103910003C290E9449148FED94E00E94682910927E
:10392000BA011092B90181E0809308011092BC01A4
:1039300014C3811110C063EA75E08FED94E00E941A
:103940006C291092B6011092BA011092B90187E465
:103950008093BC0102C38091B9019091BA0189386A
:10396000934108F4FAC262E975E08FED94E00E9499
:103970003C2925E040E060E080E80E94EB1184EF04
:1039800091E09093BA018093B9018EE48093BC01D9
:10399000E4C280910801882371F066E875E08FED3C
:1039A00094E00E943C290E9430138FED94E00E9425
:1039B000682910920801CC2309F4CFC28091B90183
:1039C0009091BA018536910508F4C7C21092BA01E8
:1039D0001092B90188E48093BC01BFC22091B90163
:1039E0003091BA01203D3740B0F06FE675E08FEDC1
:1039F00094E00E943C2925E040E860E080E00E94DD
:103A0000EB1184EF91E09093BA018093B90189E4BE
:103A10008093BC01A2C2C111A0C28091CF0190E0ED
:103A20000196837099278093CF016DE575E08FED46
:103A300094E00E943C290E9430138FED94E00E9494
:103A400068290E9410121092BA011092B90187E4FD
:103A50008093BC0182C22091B9013091BA01203D0E
:103A60003740B0F068E475E08FED94E00E943C29A7
:103A700025E040E060E880E80E94EB1184EF91E0EF
:103A80009093BA018093B9018AE48093BC0165C226
:103A9000811163C268E375E08FED94E00E943C29D8
:103AA0006091CF0170E06F5F7F4F4AE050E08FED93
:103AB00094E00E94292A1092BA011092B90181E083
:103AC000809308011092BC0148C22091B901309145
:103AD000BA01203D374080F06AE175E08FED94E057
:103AE0000E943C2925E040E060E880E00E94EB1164
:103AF0008BE48093BC0131C281112FC20E9410124D
:103B000065E175E08FED94E00E946C291092BA0196
:103B10001092B90181E08093080180E58093BC0197
:103B20001CC281111AC21092A9011092AA0110920E
:103B3000AB011092AC011092B1011092BA01109237
:103B4000B90181E0809308011092AD011092AE019D
:103B50001092AF011092B00169E075E08FED94E032
:103B60000E946C298CE48093BC01F7C12091B901BB
:103B70003091BA01882309F4A3C02536310508F431
:103B80009FC01092BA011092B90161E075E08FED0B
:103B900094E00E943C294AE050E06091B1018FED31
:103BA00094E00E944E2A8091B101882309F444C018
:103BB0008091A9019091AA01A091AB01B091AC01B3
:103BC0004091AD015091AE016091AF017091B00193
:103BD000840F951FA61FB71F8093A9019093AA0178
:103BE000A093AB01B093AC0164EF74E08FED94E06F
:103BF0000E943C294091AD015091AE016091AF010E
:103C00007091B0012AE030E08FED94E00E94412AEB
:103C10006CEE74E08FED94E00E943C294091A90184
:103C20005091AA016091AB017091AC012AE030E0A3
:103C30008FED94E00E94412A8091B101843058F1C7
:103C40008091A9019091AA01A091AB01B091AC0122
:103C5000E2E0880F991FAA1FBB1FEA95D1F7809356
:103C6000040190930501A0930601B09307016BED49
:103C700074E08FED94E00E943C2940910401509142
:103C8000050160910601709107012AE030E08FED97
:103C900094E00E94412A8FED94E00E94682980916F
:103CA000B1018F5F8093B1011092AD011092AE010E
:103CB0001092AF011092B0018DE48093BC014DC110
:103CC00021323E4408F449C11092BA011092B90160
:103CD00081E0809308011092BC013FC181113DC178
:103CE0001092BA011092B9018091B101853080F033
:103CF0001092B2011092B3011092B4011092B5016A
:103D000081E08093B601809308011092BC0125C127
:103D10008CE48093BC0121C181111FC10E940C0F52
:103D20000E9410126EEC74E08FED94E00E946C29FA
:103D300081E0809308011092BC010FC180910801BD
:103D4000882371F064EC74E08FED94E00E943C29CC
:103D50000E9453138FED94E00E946829109208018D
:103D6000CC2309F4FAC08091B9019091BA0185364B
:103D7000910508F4F2C01092BA011092B90181E5E0
:103D80008093BC01EAC02091B9013091BA01203D75
:103D90003740B0F067EB74E08FED94E00E943C296F
:103DA00025E040E860E080E80E94EB1184EF91E0BC
:103DB0009093BA018093B90182E58093BC01CDC094
:103DC0008111CBC0E091CF018091CE012CE0E29F28
:103DD000F0011124E80FF11DE35FFE4F808190E0B8
:103DE00001966CE070E00E94D32D8083FC01EE0F01
:103DF000FF1FE35CFE4F808191819093D1018093FE
:103E0000D0010E94C30B6CEA74E08FED94E00E9435
:103E10003C290E9453138FED94E00E946829109270
:103E2000BA011092B90180E58093BC0196C020913F
:103E3000B9013091BA01203D374080F06EE974E05D
:103E40008FED94E00E943C2925E040E860E880E89E
:103E50000E94EB1183E58093BC017FC0C1117DC03E
:103E60008091CE018F5F8093CE011092BA011092A3
:103E7000B90168E974E08FED94E00E943C290E944A
:103E800053138FED94E00E9468298091CE01E09158
:103E9000CF018C30B9F4F0E0E75FFE4F80830E94E1
:103EA000380E0E94101260E974E08FED94E00E94D9
:103EB0003C290E9430138FED94E00E9468291092F3
:103EC000BC014BC09CE0E99FF0011124E80FF11DFB
:103ED000E35FFE4FE081F0E0EE0FFF1FE35CFE4F7B
:103EE000808191819093D1018093D0010E94C30B76
:103EF00081E08093080180E58093BC012EC0811190
:103F00002CC0E091CF01F0E0E75FFE4F8091CE0141
:103F10008F5F80830E94380E0E94101268E874E060
:103F20008FED94E00E943C290E9430138FED94E0C5
:103F30000E9468291092BA011092B90181E0809321
:103F400008011092BC0109C01092BA011092B90187
:103F500081E0809308011092BC018091AD019091A5
:103F6000AE01A091AF01B091B0010196A11DB11DAC
:103F70008093AD019093AE01A093AF01B093B001D7
:103F80008091B9019091BA0101969093BA01809302
:103F9000B901CF9108950F931F93CF93DF9300D072
:103FA00000D0CDB7DEB76CE470E082E194E00E940F
:103FB0004622E0911204F09113040190F081E02D6B
:103FC00060E082E194E0099582E194E00E945B2246
:103FD00043E050E06CE470E082E194E00E9439221A
:103FE00082E194E00E948B21892B09F466C0409104
:103FF000C5015091C6016091C7017091C80182E16D
:1040000094E049835A836B837C830E94932106E664
:1040100016E626E63FE349815A816B817C810E9446
:104020009C126093C5017093C6018093C701909361
:10403000C8014091C1015091C2016091C3017091CA
:10404000C40182E194E049835A836B837C830E949C
:10405000932106E616E626E63FE349815A816B8105
:104060007C810E949C126093C1017093C201809375
:10407000C3019093C4014091BD015091BE01609174
:10408000BF017091C00182E194E049835A836B8340
:104090007C830E94932106E616E626E63FE34981EB
:1040A0005A816B817C810E949C126093BD01709348
:1040B000BE018093BF019093C0010F900F900F90AD
:1040C0000F90DF91CF911F910F910895CF92DF92C2
:1040D000EF92FF920F931F93CF93DF9300D01F9225
:1040E000CDB7DEB782E00E94DB2621E0892B09F004
:1040F00020E0822F0E9494168091C901843110F033
:104100001092C9018091C901811125C00E94CB1F65
:104110008091BC018A508C33F0F0C090BD01D090EA
:10412000BE01E090BF01F090C0010091C10110916B
:10413000C2012091C3013091C4014091C501509149
:10414000C6016091C7017091C8018091D001909122
:10415000D1010E94030C8091C9018F5F8093C90136
:104160008091BC01811110C09E012F5F3F4FAE01B5
:104170004E5F5F4FBE016D5F7F4F8091D001909188
:10418000D1010E94910B6DC0982F977F963411F446
:104190001B8265C08A30E0F38431A8F48091BB01B2
:1041A000823009F455C038F4882309F456C08130B0
:1041B00009F44AC035C0833019F08430A1F130C011
:1041C0001B828FEF36C0E091D001F091D1018E318A
:1041D000B0F485A592A525E1929FE00DF11D112473
:1041E000E80FF11D9E012F5F3F4FAE014E5F5F4F05
:1041F000BE016D5F7F4F82810E94F50432C0823321
:1042000008F4B2CF8C33B8F483A58230E9F018F407
:10421000813019F10CC0833019F0843021F007C0CF
:104220008FEF8B8302C01B828FEF8A8319C080E4DB
:104230008B838A8310C0863408F096CF84A58823A8
:1042400019F0813029F009C01B821A828FEF03C058
:104250008FEF8B831A82898304C08FEF8B831A823E
:1042600019828091B801882339F08091B7018823A1
:1042700019F01B821A8219828091BC018A3038F5AC
:104280008091B601882319F14091B2015091B30198
:104290006091B4017091B501809104019091050184
:1042A000A0910601B091070184179507A607B707EB
:1042B00070F40E944E126DE977E08FED94E00E9459
:1042C0003C290E9453138FED94E00E946829498194
:1042D0006A818B810E94A3118091B2019091B301F8
:1042E000A091B401B091B5010196A11DB11D8093BB
:1042F000B2019093B301A093B401B093B5010F90B4
:104300000F900F90DF91CF911F910F91FF90EF9041
:10431000DF90CF9008958091420490E02091430473
:10432000821B91090895209143048091420428172B
:1043300050F4E22FF0E0EC5BFB4F808190E02F5FC8
:104340002093430408958FEF9FEF0895E091430475
:1043500080914204E81730F4F0E0EC5BFB4F808181
:1043600090E008958FEF9FEF08950895CF92DF9228
:10437000EF92FF920F931F93CF93DF937C01CB01BA
:104380008A0120911E04222389F0EB016B01C40EE7
:10439000D51ECC15DD0569F06991D701ED91FC9131
:1043A0000190F081E02DC7010995F3CF642F0E94A1
:1043B0001723C801DF91CF911F910F91FF90EF90CC
:1043C000DF90CF900895CF93DF931F92CDB7DEB7E4
:1043D000698320911E042223D1F020911F042032F2
:1043E00040F021E030E0FC013383228380E090E064
:1043F00015C080912004E82FF0E0EF5DFB4F99811C
:1044000090838F5F8093200480931F0405C061E038
:10441000CE0101960E94172381E090E00F90DF917A
:10442000CF910895FC011382128248EE53E060E0C0
:1044300070E0448355836683778382E791E09183BC
:104440008083089510924304109242041092200435
:1044500010921F040C946222862F413208F040E231
:1044600064E474E00E94802210924304809342042A
:10447000089521E00C942C2281E080931E04609327
:1044800041041092200410921F0408950C943C22C1
:104490000F93062F21E040911F0461E274E08091A8
:1044A00041040E94C4221092200410921F04109212
:1044B0001E040F91089561E00C94482282E194E07B
:1044C0000C9412221092D10481E08093CF041092B8
:1044D000CE0461E082E10E94A52661E083E10E94B2
:1044E000A526E9EBF0E080818E7F808380818D7F3F
:1044F000808388E48093B80085E48093BC000895AD
:10450000413208F03FC09091D1049111FCCF91E06D
:104510009093D1042093CF042FEF20936404109242
:10452000A904240F2093A8049093D0049091D00460
:10453000880F892B8093D0048091CE04813041F480
:104540001092CE048091D0048093BB0085EC01C012
:1045500085EE8093BC008091D1048130E1F380919D
:10456000A904841710F44091A9042AEA34E0FB015D
:10457000D9018A2F821B841718F48D918193F9CF6A
:10458000842F089580E008950F93413208F046C0CB
:104590009091D1049111FCCF92E09093D1040093BB
:1045A000CF049FEF909364041092A9044093A80451
:1045B000FB016AEA74E0DB019A2F961B941718F44A
:1045C00091919D93F9CF1092D0049091D004880FCF
:1045D000892B8093D0048091CE04813041F41092D5
:1045E000CE048091D0048093BB0085EC01C085EEA1
:1045F0008093BC00222321F08091D1048230E1F32A
:10460000809164048F3F61F080916404803251F0A6
:1046100080916404803341F483E007C081E005C0E9
:1046200080E003C082E001C084E00F910895613210
:1046300098F42091D104243089F460938604FC011D
:1046400088E894E0DC012A2F281B261718F4219112
:104650002D93F9CF80E0089581E0089582E00895D8
:1046600085ED8093BC008091BC0084FDFCCF10924E
:10467000D104089585EC8093BC001092D104089574
:104680001F920F920FB60F9211242F933F934F93C7
:104690005F936F937F938F939F93AF93BF93EF93AA
:1046A000FF938091B900887F803609F49CC068F53B
:1046B000883209F45BC090F4803109F454C038F4B6
:1046C000882309F4F5C0883009F44DC0F5C088315D
:1046D00009F44CC0803209F45DC0EEC0803409F4A6
:1046E00068C048F4803309F455C0883309F0E4C049
:1046F00080936404A8C0803509F44FC0883509F45C
:104700005DC0883409F0D8C0D5C0883909F4C6C066
:10471000A8F4883709F467C038F4883609F463C010
:10472000803709F460C0C8C0883809F4B7C0803940
:1047300009F45FC0803809F0BFC05BC0803B09F45A
:1047400085C038F4803A09F466C0883A09F47EC01E
:10475000B3C0803C09F4A6C0883C09F4A3C0883BE0
:1047600009F489C0A9C08091D00410C09091A90417
:104770008091A804981770F5E091A90481E08E0F4C
:104780008093A904F0E0E655FB4F80818093BB0045
:1047900085EC85C0809364048DC0E091A90481E01C
:1047A0008E0F8093A9048091BB00F0E0E655FB4F8B
:1047B00080839091A9048091A8046DC0E091A90420
:1047C00081E08E0F8093A9048091BB00F0E0E65554
:1047D000FB4F80838091CF0481116CC081E0809376
:1047E000CE0484EA60C083E08093D1041092650413
:1047F000CFCF80916504803208F050C0E09165040D
:1048000081E08E0F809365048091BB00F0E0EA594F
:10481000FB4F8083BDCF80916504803230F4E091FE
:104820006504F0E0EA59FB4F10820E94302360914A
:10483000650470E0E091CA04F091CB0486E694E050
:104840000995109265040E943A2336C084E0809353
:10485000D1041092870410928604E091CC04F09168
:10486000CD04099580918604811105C081E0809373
:10487000860410928804E091870481E08E0F809373
:104880008704F0E0E857FB4F80818093BB00909154
:10489000870480918604981708F47ACF85E880937E
:1048A000BC000AC085EC8093BC001092D10404C007
:1048B000109264040E943023FF91EF91BF91AF9159
:1048C0009F918F917F916F915F914F913F912F9128
:1048D0000F900FBE0F901F9018958230E8F4E82FCC
:1048E000F0E0EE0FFF1FEE52FB4F718360838130CB
:1048F00041F0809169008C7F842B80936900E89A55
:10490000089580916900440F551F440F551F837F00
:10491000842B80936900E99A0895823068F481308D
:1049200011F0E89801C0E998E82FF0E0EE0FFF1FC2
:10493000EE52FB4F1182108208951F920F920FB614
:104940000F9211242F933F934F935F936F937F9315
:104950008F939F93AF93BF93EF93FF938091D20474
:104960009091D304892B29F0E091D204F091D304E3
:104970000995FF91EF91BF91AF919F918F917F9199
:104980006F915F914F913F912F910F900FBE0F90BC
:104990001F9018951F920F920FB60F9211242F930C
:1049A0003F934F935F936F937F938F939F93AF93B7
:1049B000BF93EF93FF938091D4049091D504892BFA
:1049C00029F0E091D404F091D5040995FF91EF917D
:1049D000BF91AF919F918F917F916F915F914F9117
:1049E0003F912F910F900FBE0F901F9018951F921F
:1049F0000F920FB60F9211242F933F938F939F9393
:104A0000AF93BF938091D7049091D804A091D9041B
:104A1000B091DA043091D60423E0230F2D3720F42F
:104A20000196A11DB11D05C026E8230F0296A11D08
:104A3000B11D2093D6048093D7049093D804A093FB
:104A4000D904B093DA048091DB049091DC04A09146
:104A5000DD04B091DE040196A11DB11D8093DB043D
:104A60009093DC04A093DD04B093DE04BF91AF917A
:104A70009F918F913F912F910F900FBE0F901F909C
:104A800018953FB7F8948091DB049091DC04A091D5
:104A9000DD04B091DE0426B5A89B05C02F3F19F0B8
:104AA0000196A11DB11D3FBF6627782F892F9A2F30
:104AB000620F711D811D911D42E0660F771F881FD7
:104AC000991F4A95D1F70895CF92DF92EF92FF9206
:104AD000CF93DF936B017C010E944125EB01C11450
:104AE000D104E104F10489F00E94B42A0E94412516
:104AF0006C1B7D0B683E734090F381E0C81AD108AF
:104B0000E108F108C851DC4FEACFDF91CF91FF9067
:104B1000EF90DF90CF900895789484B5826084BD43
:104B200084B5816084BD85B5826085BD85B58160B1
:104B300085BDEEE6F0E0808181608083E1E8F0E011
:104B40001082808182608083808181608083E0E840
:104B5000F0E0808181608083E1EBF0E0808184601F
:104B60008083E0EBF0E0808181608083EAE7F0E021
:104B70008081846080838081826080838081816085
:104B800080838081806880831092C10008958E3078
:104B900008F08E50877020916D0190E4299F90015C
:104BA0001124822B80937C0080917A008064809312
:104BB0007A0080917A0086FDFCCF80917800209168
:104BC000790090E0922B08951F93CF93DF93182FD5
:104BD000EB0161E00E946C26209711F460E004C0B4
:104BE000CF3FD10539F461E0812FDF91CF911F9143
:104BF0000C94A526E12FF0E0EB5CF64FE491E33056
:104C0000F9F048F4E130B9F0E230A1F584B5806202
:104C100084BDC8BD34C0E730E9F0E83019F1E430B4
:104C200049F580918000806280938000D0938B0052
:104C3000C0938A0024C084B5806884BDC7BD1FC0EE
:104C400080918000806880938000D0938900C09319
:104C5000880015C08091B00080688093B000C09338
:104C6000B3000DC08091B00080628093B000C0930B
:104C7000B40005C0C038D1050CF0B5CFAFCFDF917F
:104C8000CF911F910895833081F028F4813099F0FD
:104C90008230A1F008958730A9F08830B9F08430CF
:104CA000D1F4809180008F7D03C0809180008F7748
:104CB00080938000089584B58F7702C084B58F7D7E
:104CC00084BD08958091B0008F7703C08091B000BB
:104CD0008F7D8093B0000895CF93DF9390E0FC0127
:104CE000E75BF64F2491FC01E35AF64F8491882349
:104CF00049F190E0880F991FFC01EB57F64FA59101
:104D0000B4918558964FFC01C591D4919FB761111C
:104D100008C0F8948C91209582238C9388818223FB
:104D20000AC0623051F4F8948C91322F309583236D
:104D30008C938881822B888304C0F8948C91822B79
:104D40008C939FBFDF91CF9108950F931F93CF93C3
:104D5000DF931F92CDB7DEB7282F30E0F901EB5C6F
:104D6000F64F8491F901E75BF64F1491F901E35A8C
:104D7000F64F04910023C9F0882321F069830E9433
:104D800043266981E02FF0E0EE0FFF1FE558F64F54
:104D9000A591B4919FB7F8948C91611103C01095BF
:104DA000812301C0812B8C939FBF0F90DF91CF9106
:104DB0001F910F910895CF93DF93282F30E0F901D1
:104DC000EB5CF64F8491F901E75BF64FD491F90162
:104DD000E35AF64FC491CC2391F081110E944326EF
:104DE000EC2FF0E0EE0FFF1FEF58F64FA591B491B6
:104DF0002C912D2381E090E021F480E002C080E03E
:104E000090E0DF91CF910895FC01818D228D90E09B
:104E1000805C9F4F821B91098F7399270895FC0135
:104E2000918D828D981731F0828DE80FF11D858D5F
:104E300090E008958FEF9FEF0895FC01918D828D92
:104E4000981761F0828DDF01A80FB11D5D968C91DE
:104E5000928D9F5F9F73928F90E008958FEF9FEFE9
:104E6000089581EA98E2892B49F080E090E0892B4F
:104E700029F00E94A12881110C9400000895FC01E2
:104E8000848DDF01A80FB11DA35ABF4F2C91848DD3
:104E900090E001968F739927848FA689B7892C9308
:104EA000A089B1898C9180648C93938D848D9813A3
:104EB00006C00288F389E02D80818F7D808308956C
:104EC000CF93DF93EC01888D8823C9F0EA89FB89B1
:104ED000808185FD05C0A889B9898C9186FD0FC0A8
:104EE0000FB607FCF5CF808185FFF2CFA889B9897D
:104EF0008C9185FFEDCFCE010E943F27E7CFDF9158
:104F0000CF910895CF92DF92FF920F931F93CF938B
:104F1000DF931F92CDB7DEB76C0181E0D6015896C2
:104F20008C9358975B969C915B975C968C915C9761
:104F3000981307C05096ED91FC915197808185FDA3
:104F40002EC0F601038D10E00F5F1F4F0F73112766
:104F5000F02EF601848DF81211C00FB607FCF9CFC0
:104F6000D6015096ED91FC915197808185FFF1CF4C
:104F7000C60169830E943F276981EBCF838DE80FCB
:104F8000F11DE35AFF4F6083D6015B960C935B974C
:104F90005296ED91FC915397808180620CC0D601AE
:104FA0005696ED91FC91579760835096ED91FC9148
:104FB000519780818064808381E090E00F90DF9141
:104FC000CF911F910F91FF90DF90CF900895BF92E6
:104FD000CF92DF92EF92FF92CF93DF93EC016A01C1
:104FE0007B01B22EE889F98982E08083411581EE48
:104FF000580761057105A1F060E079E08DE390E06C
:10500000A70196010E94E72D21503109410951095C
:105010005695479537952795211580E1380798F0E3
:10502000E889F989108260E874E88EE190E0A701D0
:1050300096010E94E72D21503109410951095695E9
:10504000479537952795EC85FD853083EE85FF855F
:105050002083188EEC89FD89B082EA89FB898081E2
:1050600080618083EA89FB89808188608083EA8906
:10507000FB89808180688083EA89FB8980818F7DBC
:105080008083DF91CF91FF90EF90DF90CF90BF9022
:1050900008951F920F920FB60F9211242F938F93A2
:1050A0009F93EF93FF93E091EF04F091F0048081E0
:1050B000E091F504F091F60482FD12C09081809198
:1050C000F8048F5F8F732091F904821751F0E091FB
:1050D000F804F0E0E152FB4F958F8093F80401C093
:1050E0008081FF91EF919F918F912F910F900FBE33
:1050F0000F901F9018951F920F920FB60F921124C8
:105100002F933F934F935F936F937F938F939F93CF
:10511000AF93BF93EF93FF938FED94E00E943F27EF
:10512000FF91EF91BF91AF919F918F917F916F917F
:105130005F914F913F912F910F900FBE0F901F9055
:1051400018958FED94E00E94042721E0892B09F443
:1051500020E0822F08951092E2041092E10488EE7C
:1051600093E0A0E0B0E08093E3049093E404A09384
:10517000E504B093E60482E891E09093E004809324
:10518000DF0485EC90E09093EC048093EB0484ECD6
:1051900090E09093EE048093ED0480EC90E0909387
:1051A000F0048093EF0481EC90E09093F2048093FC
:1051B000F10482EC90E09093F4048093F30486EC85
:1051C00090E09093F6048093F5041092F804109206
:1051D000F9041092FA041092FB04089508950E94B5
:1051E0008C250E94EE280E945315C1E3D7E20E944D
:1051F00066202097E1F30E943127F9CFCF92DF920A
:10520000EF92FF920F931F93CF93DF936C017A017C
:10521000EB01E60EF71E00E010E0CE15DF0561F0B1
:105220006991D601ED91FC910190F081E02DC601CC
:105230000995080F191FF1CFC801DF91CF911F9178
:105240000F91FF90EF90DF90CF9008956115710559
:1052500081F0DB010D900020E9F7AD0141505109CB
:10526000461B570BDC01ED91FC910280F381E02D90
:10527000099480E090E00895EF92FF920F931F93BE
:10528000CF93DF938C01FB01C0E0D0E064917F01FC
:105290008FEFE81AF80A662361F0D801ED91FC91CE
:1052A0000190F081E02DC8010995C80FD91FF701C1
:1052B000EDCFCE01DF91CF911F910F91FF90EF9035
:1052C0000895DC01ED91FC910190F081E02D0994AD
:1052D0006EE871E00C9426290F931F93CF93DF9310
:1052E000EC010E943C298C01CE010E946829800FAC
:1052F000911FDF91CF911F910F9108958F929F92EF
:10530000AF92BF92CF92DF92EF92FF920F931F93D3
:10531000CF93DF93CDB7DEB7A1970FB6F894DEBF7A
:105320000FBECDBF7C01C42EE52FCB01D22E19A21A
:1053300021E02D1510F02AE0D22E8E010F5D1F4FB7
:105340008D2C912CA12CB12C6C2D7E2FA5019401BC
:105350000E94E72D8C2DD29E801911240150110935
:105360008A3014F4805D01C0895CF80180832115C6
:1053700031054105510521F0C22EE32FCA01E4CFCA
:10538000B801C7010E942629A1960FB6F894DEBF86
:105390000FBECDBFDF91CF911F910F91FF90EF9086
:1053A000DF90CF90BF90AF909F908F900895CF9255
:1053B000DF92EF92FF920F931F93CF93DF93EC0155
:1053C0006A017B012115310579F4E881F9810190A9
:1053D000F081E02D642FDF91CF911F910F91FF900D
:1053E000EF90DF90CF9009942A303105E9F477FFF0
:1053F0001AC06DE20E9461298C0144275527BA0129
:105400004C195D096E097F092AE0CE010E947E29B0
:10541000800F911FDF91CF911F910F91FF90EF901F
:10542000DF90CF9008952AE0B701A601CE01DF9169
:10543000CF911F910F91FF90EF90DF90CF900C9440
:105440007E299A01AB01662757FD6095762F0C9453
:10545000D7290F931F93CF93DF93EC019A01AB01F0
:10546000662757FD6095762F0E94D7298C01CE01C3
:105470000E946829800F911FDF91CF911F910F919A
:1054800008952115310541F4DC01ED91FC91019065
:10549000F081E02D642F09940C947E299A01462F07
:1054A00050E060E070E00C94412A0F931F93CF937B
:1054B000DF93EC019A01462F50E060E070E00E941B
:1054C000412A8C01CE010E946829800F911FDF9133
:1054D000CF911F910F910895611571058105910577
:1054E00011F00C949C2E0895CF93DF9300D000D040
:1054F000CDB7DEB79B01AC01611571058105910542
:1055000069F069833A834B835C830E94972E2981DB
:105510003A814B815C810E94092E03C060E070E0FB
:10552000CB010F900F900F900F90DF91CF910895C6
:10553000CF92DF92EF92FF926B017C0162177307AB
:105540008407950764F4CA01B9016C197D098E09B5
:105550009F090E94742A6C0D7D1D8E1D9F1DFF905A
:10556000EF90DF90CF90089508955058BB27AA2759
:105570000ED0F7C1E8D130F0EDD120F031F49F3FEB
:1055800011F41EF4B8C10EF4E095E7FBAEC1E92FAB
:10559000F9D180F3BA17620773078407950718F0EB
:1055A00071F49EF511C20EF4E0950B2EBA2FA02DCA
:1055B0000B01B90190010C01CA01A0011124FF27C0
:1055C000591B99F0593F50F4503E68F11A16F040BB
:1055D000A22F232F342F4427585FF3CF46953795BA
:1055E0002795A795F0405395C9F77EF41F16BA0B7F
:1055F000620B730B840BBAF09150A1F0FF0FBB1F2D
:10560000661F771F881FC2F70EC0BA0F621F731F75
:10561000841F48F4879577956795B795F7959E3FD2
:1056200008F0B3CF9395880F08F09927EE0F979560
:105630008795089588D158F080E891E009F49EEFAD
:1056400089D128F040E851E059F45EEF09C053C118
:10565000BBC1E92FE07896D168F3092E052AC1F382
:10566000261737074807590738F00E2E07F8E025A8
:1056700069F0E025E0640AC0EF6307F8009407FAD8
:10568000DB01B9019D01DC01CA01AD01EF9347D0F7
:1056900068D10AD05F91552331F02BED3FE049E40A
:1056A00050FD49EC63CF0895DF93DD27B92FBF7715
:1056B00040E85FE31616170648075B0710F4D92F7A
:1056C0008ED19F938F937F936F9335D2EEE4F1E069
:1056D00015D147D12F913F914F915F9193D1DD2308
:1056E00049F09058A2EA2AED3FE049EC5FE3D07818
:1056F0005D274DDFDF9135C1D4D008F481E00895F6
:105700000CD02FC127D140F01ED130F021F45F3FE3
:1057100019F0EBC0511159C1EEC034D198F399235F
:10572000C9F35523B1F3951B550BBB27AA27621765
:105730007307840738F09F5F5F4F220F331F441FAA
:10574000AA1FA9F333D00E2E3AF0E0E830D09150E2
:105750005040E695001CCAF729D0FE2F27D0660FCF
:10576000771F881FBB1F261737074807AB07B0E80E
:1057700009F0BB0B802DBF01FF2793585F4F2AF024
:105780009E3F510568F0B1C020C15F3FECF3983EE9
:10579000DCF3869577956795B795F7959F5FC9F781
:1057A000880F911D9695879597F90895E1E0660F0A
:1057B000771F881FBB1F621773078407BA0720F083
:1057C000621B730B840BBA0BEE1F88F7E0950895EC
:1057D000E1D088F09F5790F0B92F9927B751A0F0EA
:1057E000D1F0660F771F881F991F1AF0BA95C9F775
:1057F00012C0B13081F0E8D0B1E00895E5C0672F64
:10580000782F8827B85F39F0B93FCCF38695779524
:105810006795B395D9F73EF490958095709561950D
:105820007F4F8F4F9F4F0895E89409C097FB3EF438
:1058300090958095709561957F4F8F4F9F4F9923DD
:10584000A9F0F92F96E9BB279395F695879577955B
:105850006795B795F111F8CFFAF4BB0F11F460FF1B
:105860001BC06F5F7F4F8F4F9F4F16C0882311F073
:1058700096E911C0772321F09EE8872F762F05C087
:10588000662371F096E8862F70E060E02AF09A9522
:10589000660F771F881FDAF7880F9695879597F917
:1058A0000895990F0008550FAA0BE0E8FEEF1616B1
:1058B0001706E807F907C0F012161306E407F50704
:1058C00098F0621B730B840B950B39F40A2661F078
:1058D000232B242B252B21F408950A2609F4A1401B
:1058E000A6958FEF811D811D089597F99F6780E828
:1058F00070E060E008959FEF80EC0895DF93CF9310
:105900001F930F93FF92EF92DF927B018C016894BB
:1059100005C0DA2EEF0176D0FE01E894A59125911D
:10592000359145915591AEF3EF0131DEFE019701BE
:10593000A801DA9479F7DF90EF90FF900F911F9113
:10594000CF91DF91089500240A94161617061806C1
:105950000906089500240A94121613061406050673
:105960000895092E0394000C11F4882352F0BB0F04
:1059700040F4BF2B11F460FF04C06F5F7F4F8F4F67
:105980009F4F089557FD9058440F551F59F05F3FA2
:1059900071F04795880F97FB991F61F09F3F79F051
:1059A00087950895121613061406551FF2CF4695D3
:1059B000F1DF08C0161617061806991FF1CF869555
:1059C0007105610508940895E894BB276627772739
:1059D000CB0197F9089565DF08F48FEF08959B01D7
:1059E000AC0160E070E080E89FE38ACE0BD0B9CFD5
:1059F000AADF28F0AFDF18F0952309F076CF7BCF30
:105A00001124E3CFBFDFA0F3959FD1F3950F50E0B2
:105A1000551F629FF001729FBB27F00DB11D639F60
:105A2000AA27F00DB11DAA1F649F6627B00DA11D06
:105A3000661F829F2227B00DA11D621F739FB00DAC
:105A4000A11D621F839FA00D611D221F749F33271C
:105A5000A00D611D231F849F600D211D822F762FB5
:105A60006A2F11249F5750408AF0E1F088234AF0B2
:105A7000EE0FFF1FBB1F661F771F881F91505040FE
:105A8000A9F79E3F510570F030CF9FCF5F3FECF3F9
:105A9000983EDCF3869577956795B795F795E795EA
:105AA0009F5FC1F7FE2B880F911D9695879597F9FB
:105AB000089511F40EF41FCF41C06CDFD0F3992389
:105AC000D9F3CEF39F57550B87FF46D00024A0E6AD
:105AD00040EA900180585695979528F4805C660FAF
