:100000000C945D020C94C6240C94F3240C94850289
:100010000C9485020C9485020C94CA020C948502FF
:100020000C9485020C9485020C9485020C94850234
:100030000C9485020C9485020C9485020C94850224
:100040000C9420250C9485020C9455280C94872838
:100050000C9485020C9485020C9485020C94850204
:100060000C9469230C948502250A2E0A3B0A400A47
:100070004A0A4F0A590A610A6B0A730A7D0A810A01
:10008000850A920A9A0AA50AAA0AB50ABF0AC90AE3
:10009000D60AE40AE90AF60A050B140B220B350B03
:1000A000400B4C0B570B640B720B7B0B850B940BAB
:1000B000AC0BAF0BBA0BBD0BC80BCB0BD70BE50BC7
:1000C000EA0BEF0BF80B020C0E0C1C0C1F0C240C93
:1000D000280C2C0C300C340C380C430C5B0C510CE1
:1000E000690C770CA51EA81EAB1EEE1EF11E161F76
:1000F000341F491F5F1F7C1F084AD73B3BCE016E50
:1001000084BCBFFDC12F3D6C74319ABD56833DDA6E
:100110003D00C77F11BED9E4BB4C3E916BAAAABE7D
:10012000000000803F000000003840481800001028
:100130001000001800001010000018100010FF0040
:1001400000E02000C04000A0600080800060A000AF
:1001500040C00020E00000FF0000E02000C04000A0
:10016000A0600080800060A00040C00020E000008F
:10017000FF2000E04000C06000A0800080A0006080
:10018000C00040E00020404040A0101010A010101F
:1001900010A0800830503030803008505008308037
:1001A00008305030088030085050083080303050CF
:1001B00030088050085000010203040506070809B2
:1001C0000A0B0C0D0E0F04050607000000000000CE
:1001D00000000000000008090A0B000000000000F9
:1001E0000000000000000C0D0E0F000000000000D9
:1001F0000000000000001004040401020D06242683
:10020000282A2C2E000000000000000000000E062E
:100210002426282A2C2E00000000000000000000E8
:1002200001010907018786858483820000000000A0
:10023000000000003B034850580000000000000090
:1002400000000000000001000602CE1A00000000BD
:10025000000000000000000000001502CE1A00009F
:100260000000000000000000000000000100130773
:10027000012426282A2C2E00000000000000000087
:100280001407012426282A2C2E000000000000005C
:1002900000000000270F080A0C0810181A1C180884
:1002A00010121410180002010000000000000000ED
:1002B000000000000000000000000F0901C8C80194
:1002C000D0D001D8D80000000000000002010000DA
:1002D000000000000000000000000000000000001E
:1002E0001E04181416120000000000000000000098
:1002F00000000201000000000000000000000000FB
:100300000000000000001D031E1A15000000000080
:1003100000000000000000000201000000000000DA
:100320000000000000000000000000003703212250
:100330002300000000000000000000000000020197
:1003400000000000000000000000000000000000AD
:10035000000030031F1C1900000000000000000016
:10036000000000000201000000000000000000008A
:100370000000000000000000180DC1080A0C0E105B
:10038000121416181A1C1E000000020100000000C2
:1003900000000000000000000000000000001A073C
:1003A000012426282A2C2E00000000000000000056
:1003B000020100000000000000000000000000003A
:1003C000000000000F061FD4D414DFDF000000007F
:1003D000000000000000020100000000000000001A
:1003E000000000000000000000000F0626ECEC2CCE
:1003F000E6E600000000000000000000020100002E
:1004000000000000000000000000000000000000EC
:10041000230321242500000000000000000000004C
:1004200000000201000000000000000000000000C9
:100430000000000000001B0628002B002E0000001A
:1004400000000000000000000201000000000000A9
:100450000000000000000000000000000008000292
:10046000010000030407000000000000000001027A
:100470000408102040800102040810200102040832
:100480001020040404040404040402020202020210
:1004900003030303030300000000230026002900D8
:1004A00000000000250028002B00000000002400B0
:1004B00027002A00A71B8722B72811241FBECFEFD1
:1004C000D8E0DEBFCDBF11E0A0E0B1E0ECE8F9E597
:1004D00002C005900D92A43EB107D9F726E0A4EE24
:1004E000B1E001C01D92AB3FB207E1F714E0CAEBE7
:1004F000D4E004C02297FE010E94892CC43BD1079E
:10050000C9F70E94FB280C94C42C0C9400004115E0
:10051000510529F480917A008F7780937A006A30B0
:100520007105B1F063FF02C088E201C088E0677026
:10053000682B88E190E00FB6F894A895809360004E
:100540000FBE6093600080916000806480936000C3
:1005500083B7817F846083BF232B51F4F89483B7E2
:10056000816083BF85B7806685BF8F7D85BF04C0EE
:10057000F89483B7816083BF7894889583B78E7F22
:1005800083BF7894452B29F480917A00806880930A
:100590007A0008951F920F920FB60F9211248F9335
:1005A00088E10FB6F89480936000109260000FBE4F
:1005B0008F910F900FBE0F901F90189580E090E0E4
:1005C000FC01EA5DFE4FE491DC01AB51BE4FEC93C0
:1005D000FC01E95DFE4FE4911196EC931197FC014B
:1005E000E85DFE4FE4911296EC93039680399105F5
:1005F00039F70895EF92FF920F931F93CF93DF93F4
:10060000C7EED1E08C01855E91407C01FE013297FE
:100610006081C8010E94B62CFE0131976081C8013B
:1006200001960E94B62C6881C7018C0F9D1F0E9405
:10063000B62C0D5F1F4F239692E0C737D90731F7CD
:10064000DF91CF911F910F91FF90EF900895EF925E
:10065000FF920F931F93CF93DF93C7EED1E08C01EE
:10066000855E91407C01C8010E94AE2CFE0132974C
:100670008083C80101960E94AE2CFE0131978083D1
:10068000C7018C0F9D1F0E94AE2C88830D5F1F4FEA
:10069000239692E0C737D90731F7DF91CF911F91A9
:1006A0000F91FF90EF900895CF93DF93A82FB0E0C4
:1006B00096E0B595A7959A95E1F78F7390E0FC01C8
:1006C000EE0FFF1FE80FF91FEB51FE4F8081EB018A
:1006D00088838181EA0188838281F9018083EB012B
:1006E000888190E00A2E02C0959587950A94E2F7DA
:1006F0008883FA01808190E00A2E02C09595879543
:100700000A94E2F78083E901888190E002C0959520
:100710008795AA95E2F78883DF91CF9108952F926C
:100720003F924F925F926F927F928F929F92AF9281
:10073000BF92CF92DF92EF92FF920F931F93CF93CE
:10074000DF9300D01F92CDB7DEB71B01F22ED02E63
:10075000A9829B828A82042F10E0BC0180E090E095
:100760000E94922A2B013C01B10180E090E00E949E
:10077000922A9B01AC01C301B2010E94FE292B0108
:100780003C01B801882777FD8095982F0E94942A14
:100790004B015C016E2D70E0601B710B882777FDAB
:1007A0008095982F0E94942AA30192010E94742B95
:1007B0009B01AC01C501B4010E9434290E94662A44
:1007C000EA81FB8160830F2D10E0B801882777FD57
:1007D0008095982F0E94942A4B015C016C2D70E04B
:1007E000601B710B882777FD8095982F0E94942AB3
:1007F000A30192010E94742B9B01AC01C501B401BD
:100800000E9434290E94662AE88DF98D60830D2D9F
:1008100010E0B801882777FD8095982F0E94942AD0
:100820006B017C01F9816F2F70E0601B710B8827D1
:1008300077FD8095982F0E94942AA30192010E942F
:10084000742B9B01AC01C701B6010E9434290E94A0
:10085000662AEA8DFB8D60830F900F900F90DF91D9
:10086000CF911F910F91FF90EF90DF90CF90BF90AD
:10087000AF909F908F907F906F905F904F903F9040
:100880002F9008956F927F928F929F92AF92BF9216
:10089000CF92DF92EF92FF920F931F93CF93DF934C
:1008A000CDB7DEB7B82E8B01DA01F90199888A89B4
:1008B0006B88811002C088248394911001C09B2C06
:1008C000792C882319F0891508F4782EF12CA701CA
:1008D0004C0D511DC92CD12C4C9DC0014D9D900D2E
:1008E0005C9D900D1124889E9001899E300D1124ED
:1008F00082E0981205C081E0781202C0240F351FF3
:10090000C9018A0D911D6D917C9111976817790726
:1009100080F011961C921E928081870D80838B152A
:1009200040F0971002C0108204C06B2D0E94312C41
:100930009083662009F449C08D919C91821793079A
:10094000B8F4BA010E943D2C8E159F0588F4CB01A6
:10095000B6010E943D2C9081980F892F992787FD21
:1009600090956B2D70E0971014C0861797073CF098
:1009700010927B0210927C0210927D0226C0F80138
:10098000E80FF91F2BE732E04CE752E06DE772E029
:100990000BC00E94512C800F911F2BE732E04CE7D7
:1009A00052E06DE772E0FC018081DF91CF911F91F1
:1009B0000F91FF90EF90DF90CF90BF90AF909F90FE
:1009C0008F907F906F900C945403DF91CF911F9183
:1009D0000F91FF90EF90DF90CF90BF90AF909F90DE
:1009E0008F907F906F9008952F923F924F925F92D9
:1009F0006F927F928F929F92AF92BF92CF92DF922F
:100A0000EF92FF920F931F93CF93DF93CDB7DEB793
:100A1000982E8B013A01582C4D88BE888F89388CCE
:100A2000298CB11003C0BB24BA94B90C8B2C882339
:100A300019F08B1508F4882ED12CF12C4B2D50E099
:100A4000852D90E031101EC0B7016C0D7D1D649F97
:100A5000F001659FF00D749FF00D1124EC0DFD1D4C
:100A6000AA2DB0E0411003C0A80FB91F21C0AC01EE
:100A70004A0F5B1F449ED001459EB00D1124A81B58
:100A8000B90B16C0BC016A0D711D469ED001479E70
:100A9000B00D1124A80FB91FC7018C0D9D1D849F97
:100AA000F001859FF00D949FF00D1124EC19FD09C4
:100AB000AD014E0F5F1FD3018D919C91119784174B
:100AC0009507B0F01D921C92D9018C91880D8C93E2
:100AD00090E0692D70E0615071098617970744F026
:100AE000B81002C01C9204C00E94512CD9018C93F2
:100AF000222009F482C0D3018D919C918E179F070B
:100B0000B8F4B7016C0D7D1D0E943D2C311006C05C
:100B10008C159D0540F1F901808105C08E159F055A
:100B200010F5D9018C918F5F860F8F3F19F51BC08F
:100B30008E1B9F0B252D30E0B12CB1E03B1611F040
:100B4000411009C0B9016A0D7B1D0E943D2C82171E
:100B5000930748F011C0B9016A0D7B1D0E943D2C1E
:100B60008A159B0548F010927B0210927C0210922D
:100B70007D0243C0811108C02BE732E04CE752E010
:100B80006DE772E0F80124C0992787FD9095692DE3
:100B900070E0861797079CF0B81429F3019761500D
:100BA00071090E94512C800F911F2BE732E04CE716
:100BB00052E06DE772E0DC0111968C910AC0F801F9
:100BC000E80FF91F2BE732E04CE752E06DE772E0E7
:100BD0008081DF91CF911F910F91FF90EF90DF9077
:100BE000CF90BF90AF909F908F907F906F905F90CD
:100BF0004F903F902F900C945403DF91CF911F9111
:100C00000F91FF90EF90DF90CF90BF90AF909F90AB
:100C10008F907F906F905F904F903F902F900895AE
:100C20006F927F928F929F92AF92BF92CF92DF92FC
:100C3000EF92FF920F931F93CF93DF93CDB7DEB761
:100C4000182F3B01DA01F90109899A88011101C0C5
:100C5000082FF12CB7016C0D711D802F90E00197CA
:100C6000689FA001699F500D789F500D1124B12CF1
:100C70009A01220F331F2A0D3B1DC901880D911DBA
:100C8000CD90DC901197C816D90648F011961C92A9
:100C90001E928081800F8083811708F01082992036
:100CA00009F44EC08D919C918417950750F40E94D1
:100CB0003D2C8E159F0518F580818150861B800F75
:100CC00014C04A0D5B1D8417950710F480810DC078
:100CD00082179307A0F4841B950B0E943D2C8E1560
:100CE0009F0568F480818F5F860F8F3F41F09927C1
:100CF00087FD9095212F30E0821793073CF01092EA
:100D00007B0210927C0210927D021AC0F301E80F60
:100D1000F91F2BE732E04CE752E06DE772E080818B
:100D2000DF91CF911F910F91FF90EF90DF90CF90C7
:100D3000BF90AF909F908F907F906F900C945403D2
:100D4000DF91CF911F910F91FF90EF90DF90CF90A7
:100D5000BF90AF909F908F907F906F9008952F924B
:100D60003F924F925F926F927F928F929F92AF923B
:100D7000BF92CF92DF92EF92FF920F931F93CF9388
:100D8000DF93CDB7DEB7982F2B013A01F801BE2CC7
:100D90009A2C682D3D882E887F89888D898C4E2DD0
:100DA00050E0EC2CF12CA081B181711145C08A0179
:100DB00061110CC0682F70E06A1B7B0BE69E50012E
:100DC000E79EB00CF69EB00C11240AC0613051F4BD
:100DD0001196EA9E5001EB9EB00CFA9EB00C1124C5
:100DE000D82E20C0A82EB12CB50161507109D62E85
:100DF000DD0CAA15BB054CF41196EA9E5001EB9E42
:100E0000B00CFA9EB00C11240DC061E070E06A1BBA
:100E10007B0B6D0D711DE69E5001E79EB00CF69E9A
:100E2000B00C1124211003C04A0D5B1D4AC0C89E9E
:100E3000400D511D112445C061110CC0682F70E098
:100E40006A1B7B0B469F8001479F100D569F100D1C
:100E500011240AC0613051F411964A9F80014B9FC2
:100E6000100D5A9F100D1124D82E20C0682F70E04D
:100E70008B0101501109D02EDD0CA617B7074CF4D9
:100E800011964A9F80014B9F100D5A9F100D1124FF
:100E90000DC061E070E06A1B7B0B6D0D711D469FFC
:100EA0008001479F100D569F100D1124211004C082
:100EB000A8014E0D5F1D05C0A701B89E400D511D34
:100EC000112481E0831568F4D9018C91A82FB0E03A
:100ED000692F70E061507109A617B70711F4490D29
:100EE000511DD3016D917C9111976417750708F41A
:100EF0004CC01D921C92311018C0408151814F5F2F
:100F00005F4F518340836D2D70E064177507ECF5DA
:100F1000D9014C9150E04F5F5F4F692F70E0CA01DB
:100F20000E94512CD9018C932EC0B1E03B121AC003
:100F3000408151814F5F5F4F51834083D9014C9174
:100F400050E04F5F5F4F692F70E0CA010E94512C43
:100F5000D9018C938D2D90E04081518184179507A4
:100F6000A4F411C0D9018C918F5F8C93891768F01C
:100F70001C92808191810196918380834D2D50E058
:100F80004817590714F411821082882061F1F30187
:100F9000808191818017910700F5D9018C91F20130
:100FA000E80FF11D2BE732E04CE752E06DE772E00D
:100FB0008081DF91CF911F910F91FF90EF90DF9093
:100FC000CF90BF90AF909F908F907F906F905F90E9
:100FD0004F903F902F900C94540310927B021092EC
:100FE0007C0210927D02DF91CF911F910F91FF90B3
:100FF000EF90DF90CF90BF90AF909F908F907F90B9
:101000006F905F904F903F902F9008952F923F9256
:101010004F925F926F927F928F929F92AF92BF9208
:10102000CF92DF92EF92FF920F931F93CF93DF93B4
:10103000CDB7DEB7982E1B012A0189015D898E8903
:101040004F89F12CD12C97012C0D3D1D829F300131
:10105000839F700C1124B12C682D70E0D2018D910A
:101060009C911197511121C0A60CB71C6A0D7B1DD4
:101070008617970758F01D921C92F801808190E026
:101080000196692D70E00E94512C8083442309F45D
:101090009DC1D2018D919C918615970508F44EC093
:1010A0008A159B0508F068C1CCC0513021F5F301C9
:1010B000EA0DFB1D6E0F7F1F8617970768F0D201A0
:1010C0001D921C92D8018C9190E00196692D70E0E0
:1010D0000E94512CD8018C93442309F477C1D2018A
:1010E0004D905C904A145B0408F4ABC04E165F064A
:1010F00008F45EC041C1523009F082C0F301EE0F26
:10110000FF1FEA0DFB1D6E0F7F1F8617970768F004
:10111000D2011D921C92D8018C9190E00196692D0C
:1011200070E00E94512CD8018C93442309F44EC1E5
:10113000D2018D919C918615970578F5B9010E9491
:101140003D2C8E159F0508F017C1F8018081F10133
:10115000E80FF11D28E732E049E752E06AE772E064
:1011600080810E9454038BE792E09F938F938CE7DA
:1011700092E09F938F933DE7832E32E0932EA090D1
:101180007802C0907902E0907A0200E020E040E02E
:10119000B301D2018D919C91E8C0A60CB71C8A15B1
:1011A0009B0508F44EC08E179F0708F0E5C02C0180
:1011B0004A185B08C201B9010E943D2C8C159D059F
:1011C00008F4DAC0D8018C91F101E80FF11D28E78D
:1011D00032E049E752E06AE772E080810E945403FE
:1011E0008BE792E09F938F938CE792E09F938F938E
:1011F0002DE7822E22E0922EA12CC12CE12CADC035
:10120000533009F050C0F301EA0DFB1D6E0F7F1F34
:101210008617970768F0D2011D921C92D8018C9115
:1012200090E00196692D70E00E94512CD8018C93BA
:10123000442309F4CBC0D2014D905C904A145B0466
:1012400018F4F8018081A4C04E165F0608F094C01F
:101250004A185B08C201B9010E943D2C8C159D05FE
:1012600008F48AC0D8018C91F101E80FF11D28E73C
:1012700032E049E752E06AE772E080810E9454035D
:10128000F801808190E00196692D70E00E94512C58
:10129000820D931D25E732E046E752E067E772E0F2
:1012A000DC018C9146C0A60CB71C6A0D7B1D86170D
:1012B000970768F0F20111821082D8018C9190E0BA
:1012C0000196692D70E00E94512CF801808344231F
:1012D00009F47CC0D2014D905C904614570408F08C
:1012E00052C0C201B9010E943D2C8E159F0508F025
:1012F00043C0F801808190E00196692D70E00E9462
:10130000512C820D931D28E732E049E752E06AE74D
:1013100072E0DC018C910E945403F8018081F1019C
:10132000E80FF11D25E732E046E752E067E772E09B
:1013300080810E9454038BE792E09F938F938CE708
:1013400092E09F938F939DE7892E92E0992EA09033
:101350007502C0907602E0907702009178022091A9
:10136000790240917A02B301C2010E948F030F906B
:101370000F900F900F902AC010927B0210927C0267
:1013800010927D0223C04A145B04B0F7D8018C91FF
:10139000F101E80FF11D2BE732E04CE752E06DE779
:1013A00072E08081DF91CF911F910F91FF90EF90BC
:1013B000DF90CF90BF90AF909F908F907F906F9075
:1013C0005F904F903F902F900C945403DF91CF91FA
:1013D0001F910F91FF90EF90DF90CF90BF90AF9053
:1013E0009F908F907F906F905F904F903F902F9045
:1013F00008952F923F924F925F926F927F928F92B9
:101400009F92AF92BF92CF92DF92EF92FF920F9393
:101410001F93CF93DF9300D0CDB7DEB7982F862FE1
:10142000BA01390198018701260115019A82898242
:101430004F89C92ED12C9EE3C916D10408F06AC287
:10144000F601EC5CFF4F0C94872C4F931F921F9278
:10145000812CA12CC12CA9E1EA2E09C04F931F9227
:101460001F92812CA12CE2E3CE2EF2E3EF2EA301FA
:101470000E9442044CC24F931F921F92812C4CC079
:101480004F931F921F92812CA12C58E1C52EEE2460
:10149000E394EDCF4F931F921F92812C52C04F9334
:1014A0001F921F92812CA12C9EE1C92E44E1E42EB3
:1014B000DECF4F931F921F92812CA12CBDE2CB2E29
:1014C00019C04F931F921F92812CA12CA1E6CA2E06
:1014D000F3E0EF2ECCCF4F931F921F92812CA12CC3
:1014E000EEEBCE2E3FC04F931F921F92812C5CE8F3
:1014F000A52EC12C45E0E42EBACF4F931F921F9228
:101500002DC04F931F921F9234C04F9391E09F9331
:1015100092E09F9390E2892EA12CA0E1CA2EB9E01F
:10152000EB2EA5CF4F9391E09F9393E09F93F0E133
:101530008F2E98CF4F9391E09F9393E09F93E0E499
:101540008E2EA12C56E1C52EC3CF4F9393E09F93CF
:101550009F93CCCF4F9393E09F939F93812C4CE824
:10156000A42EC12C9AE0E92E82CF4F9393E09F9353
:101570009F93812CACE8AA2EBAE0CB2EBBCF4F9321
:101580001F9291E09F939F939F93812CF4E1AF2E44
:101590000BC04F9391E09F931F921F9295E09F93F2
:1015A00056E1852EE3E0AE2EC12C59C04F931F9219
:1015B0001F921F9291E09F93812CB2E3AB2E96E194
:1015C000C92E43E0E42E4DC04F931F9291E09F93AC
:1015D00005C04F931F9291E09F9393E09F9395E0F6
:1015E0009F93F6E18F2EA3E0AA2E37C04F9391E090
:1015F0009F939F9343E04F939F934EE1842E5EE130
:10160000A52EC12CEAE0EE2E2CC04F931F9291E044
:101610009F9393E09F931F92812CADE2AA2EBCE092
:10162000CB2E98E0E92E1DC04F931F9291E09F931F
:1016300093E09F931F925CE3852EE8E2AE2EFEE1DD
:10164000CF2E0DC04F931F9291E09F9392E09F93F6
:101650001F929DE2892E4FE0A42EBDE2CB2EA5E085
:10166000EA2EA3010E94F40471C04F9390E19F936E
:1016700091E09F939F9392E09F938824839409C065
:101680004F9390E19F9391E09F939F9392E09F935C
:10169000812CA12CC12C45C04F9390E19F9391E0E8
:1016A0009F939F9392E09F93F2E08F2EF2CF4F9300
:1016B00090E29F931F921F9291E09F9352E0852E9C
:1016C000A12CE2E0CE2E3DC04F9398E09F9391E095
:1016D0009F931F9292E09F9392E0892E40E5A42E63
:1016E000C12C2FC04F9390E29F9391E09F939F93C3
:1016F0001F92812C13C04F9390E29F9391E09F9390
:101700009F931F928824839409C04F9390E29F93E4
:1017100091E09F939F931F92B2E08B2EA12CAEE19C
:10172000CA2EF3E0EF2E0FC04F9398E09F9391E005
:101730009F931F9292E09F9352E0852EA12CE4E1AB
:10174000CE2E45E0E42EA3010E94AF060F900F902D
:101750000F900F900F90DEC04F931F9203C04F93D6
:1017600095E09F93A8E28A2EB0E1AB2EC12C98E0C1
:10177000E92E25C04F931F9203C04F9395E09F938E
:1017800055E5852EE8E0AE2EC12CF3E0EF2E17C014
:101790004F931F9203C04F9395E09F93A8E28A2E28
:1017A000B0E1AB2E95E0C92E45E0E42E08C04F9382
:1017B0001F92812CE3E0AE2EC12CF4E1EF2EA301A9
:1017C0000E9410060F900F90A5C04F9391E09F9339
:1017D0001F9209C04F9397E09F931F920EC04F93A3
:1017E00091E09F939F93812CA12C54E6C52E13C0AA
:1017F0004F9397E09F9391E09F939BE4892E49E15B
:10180000A42E15C04F9391E09F9392E09F93B6E969
:101810008B2EA12CC12CA6E9EA2E76C04F9394E022
:101820009F9392E09F93E6E98E2EF2E3AF2E49E17B
:10183000C42E59E1E52E68C04F9398E002C04F9343
:1018400091E09F9393E018C04F9393E09F931FC044
:101850004F9393E09F9329C04F9393E09F932FC0A2
:101860004F9393E09F9339C04F9393E09F9343C06E
:101870004F9391E09F9394E09F93812CA12CC12CD6
:101880009AEFE92E41C04F9393E09F9394E09F938A
:10189000E6E18E2EF3E0AF2EA6E1CA2EB3E0EB2EEA
:1018A00033C04F9393E09F9394E09F934DE2842E37
:1018B00055E0A52E25C04F9393E09F9394E09F930E
:1018C000F0E18F2EA9E0AA2EB0E1CB2E99E0E92E0F
:1018D0001BC04F9393E09F9394E09F9392E3892ED4
:1018E00042E3A42E52E3C52EE2E3EE2E0DC04F9349
:1018F00093E09F9394E09F93ADE28A2EB2E3AB2EE8
:10190000EDE2CE2EF5E0EF2EA3010E9406080F9027
:101910000F900F90F30180819181019691838083D4
:1019200080917D02F201808380917C02F1018083AD
:1019300080917B02E981FA8180830F900F90DF9183
:10194000CF911F910F91FF90EF90DF90CF90BF90BC
:10195000AF909F908F907F906F905F904F903F904F
:101960002F90089508950F931F93CF93DF931F92A5
:10197000CDB7DEB78C0169830E94AE2C69816817F0
:1019800041F0C8010F90DF91CF911F910F910C94FE
:10199000B62C0F90DF91CF911F910F9108950C9469
:1019A000AE2CDC01ED91FC910190F081E02D0994C9
:1019B000DC01ED91FC910190F081E02D0994809182
:1019C000330526E2829FC001112480589D4F9093D9
:1019D0007F0280937E021092EC041092EB0410922E
:1019E000EA041092E1041092E0041092E4041092D0
:1019F000E7041092E6041092E3041092E2041092BD
:101A0000E5041092E9041092E80408958F929F92E1
:101A1000AF92BF92CF92DF92EF92FF920F931F93FC
:101A2000E0917E02F0917F02AF014A5F5F4F81E05B
:101A30009091EC04911180E08F936AE8862E65E026
:101A4000962E7BE8A72E75E0B72EACE8CA2EA5E04F
:101A5000DA2EB0EEEB2EB4E0FB2E04EE14E026EE10
:101A600034E0648182810E94F909E0917E02F09164
:101A70007F02AF014A5E5F4F81E09091EC049130AC
:101A800009F080E08F938AE8882E85E0982E9BE805
:101A9000A92E95E0B92E2CE8C22E25E0D22E32EEEA
:101AA000E32E34E0F32E05EE14E028EE34E06581F9
:101AB00083810E94F9090F900F901F910F91FF9061
:101AC000EF90DF90CF90BF90AF909F908F90089550
:101AD000FF920F931F93CF93DF93D82FC62FF42E2F
:101AE0000E946A2500918D0510918E0520918F0529
:101AF00030919005601B710B820B930B61157D4734
:101B00008105910568F30E946A2560938D057093A5
:101B10008E0580938F05909390056D2F70E089E07E
:101B20000E94F0256C2F70E086E00E94F0256F2D5A
:101B300070E085E0DF91CF911F910F91FF900C94A1
:101B4000F025AF92BF92CF92DF92EF92FF920F9368
:101B50001F93CF93DF93182F062FF42EE22EC0E0B1
:101B6000CE1589F0D0E0D23320F44F2D602F812F95
:101B700003C040E060E080E00E94680DDF5FD43683
:101B800091F7CF5FEDCF84E6C89FF00111249F2F1E
:101B9000990F990B9F01492F592F692F792F892F61
:101BA000A0907A05B0907B05C0907C05D0907D0513
:101BB000E0907E05F0907F050091800510918105F1
:101BC0000E948D2C20937A0530937B0540937C05F1
:101BD00050937D0560937E0570937F05809380050B
:101BE00090938105DF91CF911F910F91FF90EF901E
:101BF000DF90CF90BF90AF900895E09132058111B2
:101C000003C0109231050EC08091310590E001961D
:101C1000AE2FB0E0A35DBA4F6C9170E00E94512CE2
:101C2000809331058091310590E1E99FF001112405
:101C3000E80FF11DE351FB4F8081809333050C9435
:101C4000DF0C40E060E080E00E94680D61E08FEF13
:101C500093E00E94B30C60E081E10E94B12660E055
:101C600079E180E090E00E948D2528E088E190E015
:101C70000FB6F894A895809360000FBE2093600083
:101C800060E07AEF80E090E00C948D2580918405EF
:101C9000811103C00E94060DDEC08A3031F58091AB
:101CA0008205811106C080EC80938C0510928B0513
:101CB00019C0813031F410928C0510928B0580ECA4
:101CC000C1C0823031F480E880938C0510928B057E
:101CD000B9C010928C05833011F480E838C080ECD4
:101CE00080938B0510928A05B6C09CEE980F9A30AF
:101CF000C8F4E0917E02F0917F0280918505909179
:101D0000EC0420E1929FE00DF11D1124E80FF11D7C
:101D10002AE835E04BE855E06CE875E086810E94E2
:101D2000540399C08E3109F4B5CF883209F4B2CF8B
:101D30009EEC980F9A3008F047C0E0917E02F09137
:101D40007F028081811106C080E680938C0580939C
:101D50008B0578C0813031F480E380938C0510923C
:101D60008B0515C0823041F410928C0510928B05C2
:101D700080E380938A050DC0833021F488E280934C
:101D80008C0503C010928C0580E380938B05109224
:101D90008A05818190918C05082E01C0990F0A94C3
:101DA000EAF790938C0590918B05082E01C0990F4E
:101DB0000A94EAF790938B0590918A0501C0990FD8
:101DC0008A95EAF7892F3EC08C3309F463CF8634B5
:101DD00009F460CF8E3641F480E880938C05109230
:101DE0008A0510928B0537C09EE2980F923008F456
:101DF00051CF843D51F58091870590E02091860573
:101E0000FC01EE0FFF1FE80FF91FEB51FE4F808121
:101E100090E0022E02C0959587950A94E2F7809390
:101E20008C05818190E0022E02C0959587950A94D9
:101E3000E2F780938B05828190E002C095958795AB
:101E40002A95E2F780938A0506C010928A051092BF
:101E50008B0510928C0580918905882331F1809142
:101E60008805882311F120917A0530917B054091F6
:101E70007C0550917D0560917E0570917F05809174
:101E800080059091810520343E474105510561054B
:101E900071058105910519F010F00E94210E109234
:101EA0008A0510928B0510928C050895CF93DF93CD
:101EB000C0E0D0E060E0CE010E94B30C2196C115D5
:101EC00084E0D807B9F7DF91CF9108950F931F935E
:101ED000CF93DF93C0E8D2E08AEF91E020E030E0DA
:101EE000FC01449148833196E491D901A058BD4F3B
:101EF0001196EC931197FC013296E4911296EC93B3
:101F00001297FC013396E4911496EC931497FC011C
:101F10007496E4911396EC931397FC017596E491F3
:101F20001596EC9340E050E0890102501E4FB90134
:101F3000605F7D4FF801E40FF51FE491DE01A40F0F
:101F4000B51F1696EC931697FB01E40FF51FE4916D
:101F50005696EC934F5F5F4F4031510559F7869687
:101F60002A5D3F4FA6962036F2E03F0709F0B8CF32
:101F7000DF91CF911F910F9108951F93CF93DF931E
:101F800046EF51E0ADE2B5E080E090E0FA01249147
:101F90002D9320E030E0EC01CA54DE4FBC016351C8
:101FA0007B4FFE01E20FF31F1491FB01E20FF31FC1
:101FB00010832F5F3F4F2031310599F74F5F5F4FFF
:101FC00040968034910511F7DF91CF911F910895CC
:101FD000DF92EF92FF920F931F93CF93DF93E82E40
:101FE00088E2E89EE001112496E2E99E8001112436
:101FF00000581D4FF8016081CE010E94B30CF8011A
:102000006181CE0101960E94B30CF8016281CE017C
:1020100002960E94B30CF8016481CE0103960E94DF
:10202000B30CF8016381CE0144960E94B30CF80111
:102030006581CE0145960E94B30C8E010A5E1F4F4A
:10204000F6E2EF9E70011124EC1AFD0AC7018058D8
:102050009D4F7C0140E1D42EE701C00FD11FFE014E
:1020600070976081C80142970E94B30C6881C801D3
:102070000E94B30CDA940F5F1F4FD110EDCFDF91A8
:10208000CF911F910F91FF90EF90DF900895CF9324
:10209000C0E08C2F0E94E80FCF5FC031D1F7CF9105
:1020A0000895AF92BF92CF92DF92EF92FF920F937B
:1020B0001F93CF93DF935DE2C52E55E0D52E6DEED5
:1020C000E62E64E0F62EC0E8D2E0F60161916F01E1
:1020D000CE010E94B30C5E01F0E7AF1AF2E0BF0A36
:1020E0008E0100581240F701E00FF11F6081C80116
:1020F0008F579D4F0E94B30C0F5F1F4F0A151B0592
:1021000091F7649684E0E81AF108C03DE2E0DE074A
:10211000E1F6DF91CF911F910F91FF90EF90DF904B
:10212000CF90BF90AF900895CF92DF92EF92FF9241
:102130000F931F93CF93DF93E82EC82ED12C88E204
:10214000E89EE0011124CE010E94CF0C96E29C9DF6
:1021500080019D9D100D112400581D4FF8018083B2
:10216000CE0101960E94CF0CF8018183CE01029628
:102170000E94CF0CF8018283CE0103960E94CF0CFF
:10218000F8018483CE0144960E94CF0CF80183832A
:10219000CE0145960E94CF0CF80185838E010A5E20
:1021A0001F4FF6E2EF9E70011124EC1AFD0AC701E1
:1021B00080589D4F7C01D12CC80142970E94CF0CC2
:1021C000E701C00FD11FFE0170978083C8010E94F4
:1021D000CF0C8883D3940F5F1F4F90E1D912ECCFBF
:1021E000DF91CF911F910F91FF90EF90DF90CF90F3
:1021F0000895CF93C0E08C2F0E949410CF5FC03120
:10220000D1F7CF910895AF92BF92CF92DF92EF9224
:10221000FF920F931F93CF93DF937DE2C72E75E05C
:10222000D72EEDEEEE2EE4E0FE2EC0E0D0E0CE01A3
:1022300080589D4F0E94CF0CF60181936F015E0183
:10224000F0E1AF0EB11C8E01C8018F579D4F0E9467
:10225000CF0CF701E00FF11F80830F5F1F4F0A15AE
:102260001B0591F7649684E0E81AF108C035D105A2
:10227000F1F6DF91CF911F910F91FF90EF90DF90DA
:10228000CF90BF90AF9008950E94560F0E94660FA6
:102290000E9447100E94BD0F0E9451100E94DE0252
:1022A00084EE92E00C94FA02CF93C82F90918405AB
:1022B000923309F48CC408F04FC09D3009F4A4C2D5
:1022C00010F5943009F47EC168F4913009F4CBC064
:1022D00008F4ACC0923009F4F8C0933009F432C16C
:1022E0000C9499199A3009F4F3C128F4953009F443
:1022F000ADC10C9499199B3009F407C29C3009F4C4
:1023000032C20C9499199F3109F47BC388F495313A
:1023100009F4B6C228F4943109F495C20C949919C1
:10232000963109F4E8C29E3109F44EC30C94991910
:10233000983209F4F3C340F4903209F491C3913216
:1023400009F4CCC30C949919993209F404C49A3253
:1023500009F437C40C949919943609F490C610F511
:102360009E3309F424C560F4943309F47DC408F461
:102370004BC49C3309F4CFC49D3309F4E9C4D9C7D5
:10238000973409F4D7C538F49F3309F453C596340C
:1023900009F48EC5CEC7983409F402C6993409F4FD
:1023A0004EC6C7C79F3609F462C760F4963609F473
:1023B00003C708F4C3C6973609F4BFC09E3609F4B4
:1023C00039C7B7C7993C09F491C758F5983709F44C
:1023D000B0C6983C09F0ADC721E040E860E880E86D
:1023E0000E94A10D21E040E060E080E80E94A10D84
:1023F00021E040E860E880E80E94A10D21E040E093
:1024000060E880E00E94A10D21E040E860E880E8FB
:102410000E94A10D809133050E94E80F1092830560
:102420008AC7925D933008F486C783C7882309F46E
:1024300082C720917A0530917B0540917C055091AF
:102440007D0560917E0570917F058091800590915A
:102450008105A3E60E94A22C09F008F46CC781E074
:102460008093830568C780918905882341F0C11155
:1024700062C7809188058927809388055CC7209171
:102480007A0530917B0540917C0550917D056091E6
:102490007E0570917F058091800590918105273E92
:1024A000334041055105610571058105910529F00C
:1024B00020F082E0809383053EC7C1113CC781E0D4
:1024C0000E94FD0D1092830536C720917A05309148
:1024D0007B0540917C0550917D0560917E05709152
:1024E0007F058091800590918105A0E00E94A22C3B
:1024F00031F425E040E860E880E80E94A10D2091D9
:102500007A0530917B0540917C0550917D05609165
:102510007E0570917F0580918005909181052F3C0B
:10252000374041055105610571058105910529F087
:1025300020F083E080938305FEC6C111FCC60E9493
:10254000210EF9C620917A0530917B0540917C05DA
:1025500050917D0560917E0570917F058091800589
:1025600090918105A0E00E94A22C31F425E040E08A
:1025700060E880E80E94A10D20917A0530917B05EA
:1025800040917C0550917D0560917E0570917F059D
:1025900080918005909181052F3C37404105510580
:1025A000610571058105910529F020F084E0809393
:1025B0008305C1C6C111BFC6109282058AE080930F
:1025C0008305B9C620917A0530917B0540917C0541
:1025D00050917D0560917E0570917F058091800509
:1025E00090918105A0E00E94A22C31F425E040E802
:1025F00060E080E00E94A10D20917A0530917B057A
:1026000040917C0550917D0560917E0570917F051C
:1026100080918005909181052F3C374041055105FF
:10262000610571058105910529F020F085E0809311
:1026300083050CC0C1110AC08091890591E08927EA
:1026400080938905109288051092830520917A0560
:1026500030917B0540917C0550917D0560917E0510
:1026600070917F058091800590918105A0E00E9486
:10267000A22C31F425E040E060E080E80E94A10D4A
:1026800020917A0530917B0540917C0550917D0524
:1026900060917E0570917F05809180059091810504
:1026A000203D3740410551056105710581059105C2
:1026B00029F020F082E0809383053DC6C1113BC61E
:1026C00061E08EEF93E00E94B30C0E94210E33C6AE
:1026D000882309F430C620917A0530917B0540911A
:1026E0007C0550917D0560917E0570917F058091FC
:1026F000800590918105A4E60E94A22C09F008F4BF
:102700001AC68BE08093830516C620917A05309116
:102710007B0540917C0550917D0560917E0570910F
:102720007F0580918005909181052F3C37404105C0
:102730005105610571058105910529F020F08CE0B6
:1027400080938305F8C5C111F6C58091820590E09C
:10275000019665E070E00E94512C809382058AE02A
:1027600080938305E8C520917A0530917B054091DF
:102770007C0550917D0560917E0570917F0580916B
:10278000800590918105A0E00E94A22C31F425E003
:1027900040E060E880E80E94A10D20917A05309128
:1027A0007B0540917C0550917D0560917E0570917F
:1027B0007F0580918005909181052F3C3740410530
:1027C0005105610571058105910529F020F08DE025
:1027D00080938305B0C5C111AEC58091820582305A
:1027E00030F48093EC0484E180938305A4C58430A5
:1027F00038F481708093EC0488E2809383059BC554
:1028000082E38093830597C520917A0530917B05FB
:1028100040917C0550917D0560917E0570917F050A
:102820008091800590918105A0E00E94A22C31F456
:1028300025E040E860E880E80E94A10DC1117BC559
:102840001092830578C5882309F475C520917A050F
:1028500030917B0540917C0550917D0560917E050E
:1028600070917F058091800590918105A4E60E947A
:10287000A22C09F008F45FC585E1809383055BC550
:1028800020917A0530917B0540917C0550917D0522
:1028900060917E0570917F05809180059091810502
:1028A000203D3740410551056105710581059105C0
:1028B00029F020F086E1809383053DC5C1113BC519
:1028C000E0917E02F0917F029091EC048091850569
:1028D00020E1929FE00DF11D1124E80FF11D86818A
:1028E00090E0019660E370E00E94512C868384E1C1
:1028F0008093830520C520917A0530917B05409116
:102900007C0550917D0560917E0570917F058091D9
:10291000800590918105A0E00E94A22C31F425E071
:1029200040E860E880E80E94A10D20917A0530918E
:102930007B0540917C0550917D0560917E057091ED
:102940007F058091800590918105203D37404105AC
:102950005105610571058105910521F118F1E0919D
:102960007E02F0917F029091EC048091850520E138
:10297000929FE00DF11D1124E80FF11D8681805C0E
:10298000868310927A0510927B0510927C05109236
:102990007D0510927E0510927F05109280051092A1
:1029A0008105C9C4C111C7C4E0917E02F0917F02C4
:1029B0008091EC04E80FF11D809185058F5F848381
:1029C0008EE180938305B7C4882309F4B4C42091B1
:1029D0007A0530917B0540917C0550917D05609191
:1029E0007E0570917F058091800590918105A4E618
:1029F0000E94A22C09F008F49EC48FE18093830505
:102A00009AC420917A0530917B0540917C055091C4
:102A10007D0560917E0570917F0580918005909184
:102A20008105203D3740410551056105710581054E
:102A3000910529F020F080E2809383057CC4C111C8
:102A40007AC4809185058F5F80938505803120F061
:102A500088EC809383056FC484E1809383056BC405
:102A600020917A0530917B0540917C0550917D0540
:102A700060917E0570917F05809180059091810520
:102A8000A0E00E94A22C31F425E040E060E080E864
:102A90000E94A10D20917A0530917B0540917C0523
:102AA00050917D0560917E0570917F058091800534
:102AB00090918105203D3740410551056105710523
:102AC0008105910529F020F081E28093830533C4CC
:102AD000C11131C484E1809383052DC420917A050E
:102AE00030917B0540917C0550917D0560917E057C
:102AF00070917F058091800590918105A0E00E94F2
:102B0000A22C31F425E040E860E880E80E94A10DA5
:102B1000C11111C488EC809383050DC4882309F486
:102B20000AC420917A0530917B0540917C05509133
:102B30007D0560917E0570917F0580918005909163
:102B40008105A4E60E94A22C09F008F4F4C389E2EE
:102B500080938305F0C320917A0530917B054091E5
:102B60007C0550917D0560917E0570917F05809177
:102B7000800590918105203D374041055105610553
:102B800071058105910529F020F08AE28093830583
:102B9000D2C3C111D0C3E0917E02F0917F02809137
:102BA000EC04E80FF11D828190E001966EE370E085
:102BB0000E94512C82830E94DF0C88E2809383055F
:102BC000BAC38111B8C388EC80938305B4C388234A
:102BD00009F4B1C320917A0530917B0540917C05C1
:102BE00050917D0560917E0570917F0580918005F3
:102BF00090918105A4E60E94A22C09F008F49BC3E1
:102C000083E38093830597C320917A0530917B05F8
:102C100040917C0550917D0560917E0570917F0506
:102C20008091800590918105203D374041055105F7
:102C3000610571058105910529F020F084E38093F9
:102C4000830579C3C11177C3E0917E02F0917F02C1
:102C5000808190E0019665E070E00E94512C8083B5
:102C600082E38093830567C320917A0530917B05C9
:102C700040917C0550917D0560917E0570917F05A6
:102C80008091800590918105A0E00E94A22C31F4F2
:102C900025E040E860E880E80E94A10D20917A05D7
:102CA00030917B0540917C0550917D0560917E05BA
:102CB00070917F058091800590918105203D37407E
:102CC000410551056105710581059105F1F0E8F0B7
:102CD000E0917E02F0917F02818190E0019663E0B5
:102CE00070E00E94512C818310927A0510927B052E
:102CF00010927C0510927D0510927E0510927F0542
:102D0000109280051092810516C3C11114C388EC7E
:102D10008093830510C3882309F40DC320917A059D
:102D200030917B0540917C0550917D0560917E0539
:102D300070917F058091800590918105A4E60E94A5
:102D4000A22C09F008F4F7C28DE380938305F3C247
:102D500020917A0530917B0540917C0550917D054D
:102D600060917E0570917F0580918005909181052D
:102D7000203D3740410551056105710581059105EB
:102D800029F020F08EE380938305D5C2C111D3C210
:102D90008091320590E001968370992780933205E7
:102DA00080E00E94FD0D8CE380938305C4C22091D6
:102DB0007A0530917B0540917C0550917D056091AD
:102DC0007E0570917F058091800590918105A0E03E
:102DD0000E94A22C31F425E040E860E080E00E94EF
:102DE000A10D20917A0530917B0540917C05509191
:102DF0007D0560917E0570917F05809180059091A1
:102E00008105203D3740410551056105710581056A
:102E1000910529F020F08FE3809383058CC2C111C6
:102E20008AC225E040E860E880E80E94A10D109287
:102E3000830581C220917A0530917B0540917C0504
:102E400050917D0560917E0570917F058091800590
:102E500090918105A0E00E94A22C31F425E040E091
:102E600060E880E80E94A10D20917A0530917B05F1
:102E700040917C0550917D0560917E0570917F05A4
:102E80008091800590918105203D37404105510595
:102E9000610571058105910529F020F08EE380938D
:102EA000830549C2C11147C286E48093830543C2AA
:102EB00020917A0530917B0540917C0550917D05EC
:102EC00060917E0570917F058091800590918105CC
:102ED000A0E00E94A22C89F480913105E091320596
:102EE00020E1E29FF0011124E80FF11DE351FB4FB7
:102EF0008081809333050E94DF0CCC2309F41BC230
:102F000020917A0530917B0540917C0550917D059B
:102F100060917E0570917F0580918005909181057B
:102F2000A4E60E94A22C09F008F405C287E480936D
:102F3000830501C220917A0530917B0540917C0583
:102F400050917D0560917E0570917F05809180058F
:102F500090918105203D374041055105610571057E
:102F60008105910529F020F088E480938305E3C171
:102F7000C111E1C1E09132058091310520E1E29F6C
:102F8000F0011124E80FF11DE351FB4F808190E027
:102F900001968F709927808386E480938305CBC147
:102FA00020917A0530917B0540917C0550917D05FB
:102FB00060917E0570917F058091800590918105DB
:102FC000A0E00E94A22C31F425E040E860E080E817
:102FD0000E94A10D20917A0530917B0540917C05DE
:102FE00050917D0560917E0570917F0580918005EF
:102FF00090918105203D37404105510561057105DE
:103000008105910529F020F089E48093830593C11F
:10301000C11191C1809131058F5F80933105E0919D
:103020003205F0E0E35DFA4F8083803120F089ECD7
:103030008093830580C186E4809383057CC12091C1
:103040007A0530917B0540917C0550917D0560911A
:103050007E0570917F058091800590918105A0E0AB
:103060000E94A22C31F425E040E860E880E80E944C
:10307000A10DC11160C189EC809383055CC18EEF05
:1030800093E00E94CF0C20917A0530917B0540910E
:103090007C0550917D0560917E0570917F05E091E2
:1030A0008005909181058823A9F18E2F2037374123
:1030B00041055105610571058105910531F425E052
:1030C00040E060E880E00E94A10DC11134C1209170
:1030D0007A0530917B0540917C0550917D0560918A
:1030E0007E0570917F058091800590918105203744
:1030F000374141055105610571058105910509F0CB
:1031000008F41DCA60E08EEF93E00E94B30C1092A9
:10311000830511C18E2F2F3C3740410551056105B4
:1031200071058105910529F020F085E680938305DE
:1031300002C1C11100C110928305FDC020917A0522
:1031400030917B0540917C0550917D0560917E0515
:1031500070917F058091800590918105A0E00E948B
:10316000A22C31F425E040E860E080E00E94A10D4F
:1031700020917A0530917B0540917C0550917D0529
:1031800060917E0570917F05809180059091810509
:1031900020373741410551056105710581059105CC
:1031A00029F020F086E680938305C5C0C111C3C015
:1031B0008CE380938305BFC020917A0530917B0515
:1031C00040917C0550917D0560917E0570917F0551
:1031D0008091800590918105A0E00E94A22C31F49D
:1031E00025E040E060E080E80E94A10D20917A0592
:1031F00030917B0540917C0550917D0560917E0565
:1032000070917F058091800590918105203737412D
:1032100041055105610571058105910529F020F0F1
:1032200087E68093830587C0C11185C08EE68093B1
:10323000830581C0882309F47EC020917A053091EE
:103240007B0540917C0550917D0560917E057091D4
:103250007F058091800590918105A4E60E94A22CB3
:1032600009F008F468C08FE68093830564C020915C
:103270007A0530917B0540917C0550917D056091E8
:103280007E0570917F0580918005909181052F3694
:10329000374141055105610571058105910509F029
:1032A00008F44BC921E040E060E080E80E94A10DF5
:1032B00021E040E860E080E00E94A10D21E040E0D4
:1032C00060E080E80E94A10D21E040E860E080E03D
:1032D0000E94A10D21E040E060E080E80E94A10D85
:1032E0000E94441188E78093830525C021E040E8CF
:1032F00060E880E80E94A10D21E040E060E080E805
:103300000E94A10D21E040E860E880E80E94A10D44
:1033100021E040E860E080E00E94A10D21E040E86B
:1033200060E880E80E94A10D0E9451101092830570
:1033300002C01092830580918305909184059817AF
:1033400099F08093840510927A0510927B05109273
:103350007C0510927D0510927E0510927F051092DB
:1033600080051092810523C020917A0530917B055C
:1033700040917C0550917D0560917E0570917F059F
:103380008091800590918105A1E00E94962C209368
:103390007A0530937B0540937C0550937D056093BF
:1033A0007E0570937F058093800590938105CF9172
:1033B0000895CF93C82F611108C086E2C89FF0011D
:1033C0001124E058FD4F408368C0613041F486E22B
:1033D000C89FF0011124E058FD4F41835EC0663262
:1033E00008F05BC0862F90E0029762E170E00E94D7
:1033F000512C2C2F30E081110CC086E2829FF0010D
:10340000839FF00D1124E058FD4FE60FF71F428314
:1034100044C0813079F586E2829FF001839FF00DF0
:103420001124E058FD4FE60FF71F443639F444816C
:10343000842F90E040978CF481E00BC0433661F517
:103440004481842F90E0823091052CF042972CF437
:103450008FEF840F03C081E001C080E196E2929F6C
:10346000F001939FF00D1124E058FD4FE60FF71F78
:10347000848313C0FB01A4E0EE0FFF1FAA95E1F7C0
:1034800056E2529FB001539F700D1124E60FF71FB3
:10349000E058FD4FE80FF91F448380913305C813AE
:1034A00003C0CF910C94DF0CCF910895262F64E1D7
:1034B0000E94312CE82FF0E0911103C0E35DFA4F38
:1034C0000AC0B4E0EE0FFF1FBA95E1F7E351FB4FDE
:1034D000E90FF11D319720830895803110F40C9489
:1034E0009410803111F40C94031184EE92E00C944A
:1034F0002703803118F40E94E80F09C0803119F4C5
:103500000E94511004C084EE92E00E94FA0224E06E
:1035100040E860E880E80E94A10D24E040E060E01F
:1035200080E80E94A10D24E040E860E880E80C9467
:10353000A10D811105C08091330590E00F9606C062
:10354000813049F48091330590E001968F7099277E
:103550008093330504C0823021F4609333050C94CA
:10356000DF0C8A3089F4611102C082ED07C061303E
:1035700011F484ED03C0623021F483ED8093830560
:103580000895109283050895843121F4609387058E
:10359000409386050895CF92DF92EF92FF9280913B
:1035A0007905811107C0C12CD12C48EAE42E41E4F1
:1035B000F42E06C0C12CD12C30E8E32E34E4F32ED7
:1035C0006091730570917405882777FD8095982F19
:1035D0000E94942AA70196010E94FE2960936B0520
:1035E00070936C0580936D0590936E0560917105E5
:1035F00070917205882777FD8095982F0E94942AF4
:10360000A70196010E94FE296093670570936805E3
:103610008093690590936A0560916F0570917005BC
:10362000882777FD8095982F0E94942AA7019601FC
:103630000E94FE296093630570936405809365057D
:1036400090936605FF90EF90DF90CF9008953F92A2
:103650004F925F926F927F928F929F92AF92BF92A2
:10366000CF92DF92EF92FF920F931F93CF93DF934E
:1036700040905F0550906005609061057090620514
:10368000C0907905809035053090340556E3A52E1D
:1036900055E0B52E66E4E62E65E0F62E80E4C89E81
:1036A00060011124F601ED5BFE4F6F01E50100E0C2
:1036B00010E0912CF601E00FF11F20813181428151
:1036C0005381C301B2010E94692B18166CF0F801F6
:1036D000ED5FFE4F2081318142815381C301B201F0
:1036E0000E94FA2987FF0DC0F70110822881822FDE
:1036F00090E0883C91051CF481E0820F01C088ECC9
:103700008883F70180818F5F81937F01881508F09E
:1037100018828991381610F49C2E9A180C5F1F4F4E
:103720000034110539F690925605DF91CF911F9123
:103730000F91FF90EF90DF90CF90BF90AF909F9050
:103740008F907F906F905F904F903F9008950E9470
:103750006A2560938D0570938E0580938F059093F5
:1037600090050895CF93DF93D82FC62F682F8EE54D
:1037700096E00E948E276C2F8EE596E00E948E27A1
:10378000C11108C086E2D89FF0011124E058FD4F16
:10379000608109C0C13069F486E2D89FF00111242C
:1037A000E058FD4F61818EE596E0DF91CF910C945A
:1037B0008E27C632D8F58C2F90E0029762E170E038
:1037C0000E94512C2D2F30E081110DC086E2829F86
:1037D000D001839FB00D1124A058BD4FA60FB71F75
:1037E00012966C91E0CF813069F486E2829FD0011D
:1037F000839FB00D1124A058BD4FA60FB71F14967C
:103800006C91D1CFFB0174E0EE0FFF1F7A95E1F7C9
:1038100066E2629FA001639F500D1124E40FF51F23
:10382000E058FD4FE80FF91F6481BDCF60E070E004
:103830008EE596E0DF91CF910C94D10CCF93DF937E
:10384000D82FC0E06C2F8D2F0E94B21BCF5FC632E5
:10385000C9F7DF91CF9108951F93CF93DF93D82FAE
:1038600064E10E94312C182FC92F60E170E08EE5D1
:1038700096E00E94D10C6D2F8EE596E00E948E2777
:10388000E12FF0E0C11103C0E35DFA4F0AC0A4E0EC
:10389000EE0FFF1FAA95E1F7E351FB4FEC0FF11D6F
:1038A000319760818EE596E0DF91CF911F910C9466
:1038B0008E27CF93DF93D0E0C0E08C2F8D0F0E9436
:1038C0002C1CCF5FC131C9F7DC5ED035A9F7DF9181
:1038D000CF910895CF93C82F61E170E08EE596E017
:1038E0000E94D10C6C2F8EE596E00E948E278C2FC3
:1038F00063E00E94312C292F8BEAC89F812D11246F
:10390000869590E0FC01EE0FFF1FE80FF91FE20F14
:10391000F11DEB51FE4F60818EE596E0CF910C9446
:103920008E27803110F40C94B21B803119F4862F4D
:103930000C942C1C862F0C946A1CCF93DF93C82FF9
:10394000D62F803118F40E94D9191DC0803129F476
:10395000642F8D2F0E94561A16C02BEA629F212DCC
:1039600011242695822F880F820F962F981B30E006
:10397000F901EE0FFF1FE20FF31FE90FF11DEB51ED
:10398000FE4F4083C1E16D2F8C2FDF91CF910C94BE
:10399000911CCF93C0E08C2F0E946A1CCF5FC0396E
:1039A000D1F7CF910895CF93C82F68EC70E08EE5E2
:1039B00096E00E94D10C6C2F8EE596E00E948E2737
:1039C000609133058EE596E00E948E27C03120F489
:1039D0008C2F0E941E1C08C0C03119F40E94591C73
:1039E00003C00E94C91CC1E169EC70E08EE596E05D
:1039F0000E94D10C6C2F8EE596E00E948E2760917C
:103A000033058EE596E0CF910C948E270F931F938C
:103A1000CF93DF931F92CDB7DEB78EE596E00E947D
:103A200010270497D4F18EE596E00E942927082FED
:103A30008EE596E00E942927182F8EE596E00E94D9
:103A40002927682F8EE596E069830E942927482F51
:103A50006981043421F4812F0E94D31CDECF0C3401
:103A600021F4812F0E946D1AD8CF033521F4812FC4
:103A70000E94791AD2CF023521F4812F0E94911C25
:103A8000CCCF073521F4812F0E949D1CC6CF08356D
:103A900021F6812F0E94991AC0CF0F90DF91CF910C
:103AA0001F910F910895CF93DF93D82FC62F609168
:103AB000780581E995E00E9465226D2F81E995E006
:103AC0000E940C226C2F81E995E00E940C2281E972
:103AD00095E0DF91CF910C9484228091790560E08C
:103AE00081110AC087E00E94531D60E088E00E94B7
:103AF000531D61E087E009C08AE20E94531D60E027
:103B00008EE00E94531D69E18AE20C94531D60917E
:103B1000780581E995E00E946522809179058111FF
:103B20004BC060E070E081E995E00E94D80C60E055
:103B300081E995E00E9471226091780570E043E090
:103B400050E081E995E00E94622281E995E00E94BF
:103B5000B421892BD1F381E995E00E94BC21803208
:103B6000910514F080549109909374058093730526
:103B700081E995E00E94B421892BD1F381E995E098
:103B80000E94BC218032910514F0805491099093D9
:103B900072058093710581E995E00E94B421892B1B
:103BA000D1F381E995E00E94BC21803291050CF4AB
:103BB000A6C080549109A3C061E070E081E995E05E
:103BC0000E94D80C60E081E995E00E94712260912A
:103BD000780570E046E050E081E995E00E946222BD
:103BE00081E995E00E94B421892BD1F381E995E028
:103BF0000E94BC2174E0880F991F7A95E1F7909399
:103C000074058093730581E995E00E94B421892BA6
:103C1000D1F381E995E00E94BC2164E095958795F8
:103C20006A95E1F72091730530917405822B932BEF
:103C3000811528E092070CF09051909374058093C1
:103C4000730581E995E00E94B421892BD1F381E9C4
:103C500095E00E94BC2154E0880F991F5A95E1F726
:103C6000909372058093710581E995E00E94B421DB
:103C7000892BD1F381E995E00E94BC2144E0959520
:103C800087954A95E1F72091710530917205822B55
:103C9000932B811528E092070CF0905190937205B8
:103CA0008093710581E995E00E94B421892BD1F3BD
:103CB00081E995E00E94BC2134E0880F991F3A9574
:103CC000E1F79093700580936F0581E995E00E947C
:103CD000B421892BD1F381E995E00E94BC2124E035
:103CE000959587952A95E1F720916F05309170059C
:103CF000822B932B811528E092070CF09051909322
:103D0000700580936F0508954F925F926F927F9236
:103D10008F929F92AF92BF92CF92DF92EF92FF92DB
:103D20000F931F93CF93DF93809175056091770573
:103D30000E94312C892F90E08A30910508F0EAC169
:103D4000FC01EE58FF4F0C94872C0E94871DE2C1A6
:103D50000E94CB1ADFC160916B0570916C05809158
:103D60006D0590916E058090670590906805A09014
:103D70006905B0906A05C0906305D0906405E09035
:103D80006505F09066059B01AC010E94742B2B0128
:103D90003C01A5019401C501B4010E94742B9B0153
:103DA000AC01C301B2010E9434294B015C01A7019F
:103DB0009601C701B6010E94742B9B01AC01C5019D
:103DC000B4010E9434290E94DB2B60935F0570933D
:103DD000600580936105909362059CC10E94271B3A
:103DE00099C160916705709168058091690590910E
:103DF0006A05C0906305D0906405E0906505F09079
:103E000066059B01AC010E94742B4B015C01A7016C
:103E10009601C701B6010E94742B9B01AC01C5013C
:103E2000B4010E9434290E94DB2B15C020915B0550
:103E300030915C0540915D0550915E0580916B0568
:103E400090916C05A0916D05B0916E05BC01CD01FE
:103E500090580E94A72960935B0570935C0580933E
:103E60005D0590935E0556C120E030E044E353E4E5
:103E700060915B0570915C0580915D0590915E0598
:103E80000E94742B2BED3FE049E450E40E94FE2990
:103E9000E2CF209163053091640540916505509112
:103EA00066058091670590916805A0916905B091BC
:103EB0006A05BC01CD0190580E94A72914C020E0DA
:103EC00030E044E353E460915705709158058091C8
:103ED000590590915A050E94742B2BED3FE049E45F
:103EE00050E40E94FE296093570570935805809313
:103EF000590590935A050EC100917E0210917F02E0
:103F0000D8018C91882309F405C1B090EC0481306C
:103F100009F041C011969C91911113C0B11006C0D7
:103F200090915605903110F08093EC048091EC0450
:103F3000813009F0EFC0809156058B3008F0EAC05F
:103F400027C0913099F4B11006C080915605893090
:103F500010F09093EC048091EC04813009F0DAC009
:103F600080915605843008F0D5C012C0B11006C04B
:103F700090915605953010F08093EC048091EC04FC
:103F8000813009F0C7C080915605833008F0C2C067
:103F90001092EC04BFC0C091EA04D091EB04B110C0
:103FA00046C090915605933008F09EC0823069F467
:103FB00020E030E046E952EC60915B0570915C05D1
:103FC00080915D0590915E057EC08330B9F4C0900C
:103FD0005705D0905805E0905905F0905A0520E01B
:103FE00030E040EA52ECC701B6010E94FA2987FF8F
:103FF0006EC020E030E048EC52EC16C0C090630583
:10400000D0906405E0906505F090660526E636E6FA
:1040100046E65FEBC701B6010E94FA2987FF57C049
:104020002DEC3CEC4CE85FEBC701B60116C0B1E0EB
:10403000BB125AC090915605933008F055C082309B
:1040400089F420E030E046E952E460915B0570912C
:104050005C0580915D0590915E050E94692B1816A4
:10406000DCF135C08330B9F4C0905705D0905805C5
:10407000E0905905F0905A0520E030E040EA52E423
:10408000C701B6010E94692B18160CF520E030E03C
:1040900048EC52E416C0C0906305D0906405E090EF
:1040A0006505F090660526E636E646E65FE3C7015D
:1040B000B6010E94692B181654F42DEC3CEC4CE828
:1040C0005FE3C701B6010E94FA2987FD05C0882772
:1040D00099278C1B9D0B02C081E090E0C80FD91F6F
:1040E000D093EB04C093EA04D8011196EC91F0E070
:1040F000E050FF4F808190E02091EA043091EB0482
:10410000821793073CF481E0B11080E08093EC04C7
:10411000F8011182809175058F5F809375059091EC
:104120007605891710F010927505DF91CF911F91D8
:104130000F91FF90EF90DF90CF90BF90AF909F9046
:104140008F907F906F905F904F90089582E00E94D3
:10415000E72621E0892B09F020E0822F0E945411EC
:104160000E94061D809184059FEF980F913D10F4E9
:104170008C3311F40E94841E0E94460E40918A05E1
:1041800060918B0580918C050C94680D6DE170E059
:1041900081E995E00E946F226DE070E081E995E091
:1041A0000E94D80C60E081E995E00E94712241E014
:1041B00050E06DE170E081E995E00E94622281E9C2
:1041C00095E00E94B421892BB9F081E995E00E9425
:1041D000BC218F7E8A3481F481E0809379058DE162
:1041E0008093780584E180937705809376058AE053
:1041F0008093350585E00FC0109279058CE480939B
:10420000780581E18093770582E3809376058CE0E1
:104210008093350586E080933405089581E995E023
:104220000E944B2226E040E051EE60E070E08EE517
:1042300096E00E94F327109283051092840560E0B7
:1042400082E00E94782642E050E062EB7CE080E071
:104250000E9496248FEF93E00E94CF0C8823A1F058
:1042600060E08FEF93E00E94B30C20E030E040E08C
:1042700050E06AE070E084EE91E00E94870284E6FC
:10428000809383058093840580E00E94B6248CEFA0
:1042900093E00E94CF0C8A3C41F00E9444116AECEA
:1042A0008CEF93E00E94B30C08C00E94F9100E94AA
:1042B000031184EE92E00E9427038DEF93E00E94A9
:1042C000CF0C8093320561E089E00E94782661E09E
:1042D00086E00E94782661E085E00E94782661E011
:1042E00081E10E94782661E081E10E94B1260E946E
:1042F000C6200E946D1DF89410927A0085B5887FC3
:10430000816085BD80918100887F8160809381007C
:1043100080918100886080938100789468E270E0E9
:1043200080E090E00E948D2580E00E94FD0D64E613
:1043300070E08EE596E00E94D10C609133058EE529
:1043400096E00E948E2760E070E08EE596E00E9485
:10435000D10C0E946A2560938D0570938E05809321
:104360008F059093900508958091C10590E020916C
:10437000C205821B910908952091C2058091C10553
:10438000281750F4E22FF0E0ED53FA4F808190E0CF
:104390002F5F2093C20508958FEF9FEF0895E0915E
:1043A000C2058091C105E81730F4F0E0ED53FA4FF3
:1043B000808190E008958FEF9FEF08950895CF9248
:1043C000DF92EF92FF920F931F93CF93DF937C01C5
:1043D000CB018A0120919D05222389F0EB016B011D
:1043E000C40ED51ECC15DD0569F06991D701ED919C
:1043F000FC910190F081E02DC7010995F3CF642F66
:104400000E944023C801DF91CF911F910F91FF902F
:10441000EF90DF90CF900895CF93DF931F92CDB7A9
:10442000DEB7698320919D052223D1F020919E055E
:10443000203240F021E030E0FC013383228380E031
:1044400090E015C080919F05E82FF0E0E056FA4F0C
:10445000998190838F5F80939F0580939E0505C00F
:1044600061E0CE0101960E94402381E090E00F9030
:10447000DF91CF910895FC011382128248EE53E040
:1044800060E070E0448355836683778387EC91E036
:104490009183808308951092C2051092C1051092F5
:1044A0009F0510929E050C948B22862F413208F0B6
:1044B00040E263EC75E00E94A9221092C20580934D
:1044C000C105089521E00C94552281E080939D055B
:1044D0006093C00510929F0510929E0508950C945C
:1044E00065220F93062F21E040919E0560EA75E05A
:1044F0008091C0050E94ED2210929F0510929E05AA
:1045000010929D050F91089561E00C94712281E94C
:1045100095E00C943B221092500681E080934E0669
:1045200010924D0661E082E10E94B12661E083E1D4
:104530000E94B126E9EBF0E080818E7F808380814C
:104540008D7F80838CE08093B80085E48093BC00ED
:104550000895413208F03FC0909150069111FCCF70
:1045600091E09093500620934E062FEF2093E305A1
:1045700010922806240F2093270690934F069091BF
:104580004F06880F892B80934F0680914D0681300E
:1045900041F410924D0680914F068093BB0085EC4C
:1045A00001C085EE8093BC00809150068130E1F31C
:1045B00080912806841710F44091280629E236E0FD
:1045C000FB01D9018A2F821B841718F48D918193E6
:1045D000F9CF842F089580E008950F93413208F0B9
:1045E00046C0909150069111FCCF92E090935006F6
:1045F00000934E069FEF9093E30510922806409398
:104600002706FB0169E276E0DB019A2F961B9417DF
:1046100018F491919D93F9CF10924F0690914F0607
:10462000880F892B80934F0680914D06813041F48D
:1046300010924D0680914F068093BB0085EC01C01F
:1046400085EE8093BC00222321F0809150068230B9
:10465000E1F38091E3058F3F61F08091E3058032C3
:1046600051F08091E305803341F483E007C081E09D
:1046700005C080E003C082E001C084E00F9108958E
:10468000613298F420915006243089F46093050635
:10469000FC0187E096E0DC012A2F281B261718F47E
:1046A00021912D93F9CF80E0089581E0089582E073
:1046B000089585ED8093BC008091BC0084FDFCCF03
:1046C00010925006089585EC8093BC00109250061D
:1046D00008951F920F920FB60F9211242F933F93BC
:1046E0004F935F936F937F938F939F93AF93BF93FA
:1046F000EF93FF938091B900887F803609F49CC0C6
:1047000068F5883209F45BC090F4803109F454C034
:1047100038F4882309F4F5C0883009F44DC0F5C099
:10472000883109F44CC0803209F45DC0EEC0803499
:1047300009F468C048F4803309F455C0883309F09F
:10474000E4C08093E305A8C0803509F44FC08835E4
:1047500009F45DC0883409F0D8C0D5C0883909F49F
:10476000C6C0A8F4883709F467C038F4883609F45D
:1047700063C0803709F460C0C8C0883809F4B7C086
:10478000803909F45FC0803809F0BFC05BC0803B4E
:1047900009F485C038F4803A09F466C0883A09F40F
:1047A0007EC0B3C0803C09F4A6C0883C09F4A3C015
:1047B000883B09F489C0A9C080914F0610C0909130
:1047C000280680912706981770F5E091280681E069
:1047D0008E0F80932806F0E0E75DF94F808180938B
:1047E000BB0085EC85C08093E3058DC0E091280671
:1047F00081E08E0F809328068091BB00F0E0E75D9A
:10480000F94F808390912806809127066DC0E09132
:10481000280681E08E0F809328068091BB00F0E08F
:10482000E75DF94F808380914E0681116CC081E075
:1048300080934D0684EA60C083E080935006109216
:10484000E405CFCF8091E405803208F050C0E091BC
:10485000E40581E08E0F8093E4058091BB00F0E0D9
:10486000EB51FA4F8083BDCF8091E405803230F464
:10487000E091E405F0E0EB51FA4F10820E945923D9
:104880006091E40570E0E0914906F0914A0685EEFA
:1048900095E009951092E4050E94632336C084E0F8
:1048A000809350061092060610920506E0914B0682
:1048B000F0914C06099580910506811105C081E0B3
:1048C0008093050610920706E091060681E08E0FA0
:1048D00080930606F0E0E95FF94F80818093BB008A
:1048E0009091060680910506981708F47ACF85E81E
:1048F0008093BC000AC085EC8093BC0010925006E7
:1049000004C01092E3050E945923FF91EF91BF91DB
:10491000AF919F918F917F916F915F914F913F9157
:104920002F910F900FBE0F901F9018958230E8F4D2
:10493000E82FF0E0EE0FFF1FEF5AF94F718360830D
:10494000813041F0809169008C7F842B80936900D5
:10495000E89A089580916900440F551F440F551F30
:10496000837F842B80936900E99A0895823068F4EC
:10497000813011F0E89801C0E998E82FF0E0EE0FDF
:10498000FF1FEF5AF94F1182108208951F920F9264
:104990000FB60F9211242F933F934F935F936F9312
:1049A0007F938F939F93AF93BF93EF93FF938091E8
:1049B000510690915206892B29F0E0915106F09111
:1049C00052060995FF91EF91BF91AF919F918F9101
:1049D0007F916F915F914F913F912F910F900FBEFB
:1049E0000F901F9018951F920F920FB60F921124DF
:1049F0002F933F934F935F936F937F938F939F93E7
:104A0000AF93BF93EF93FF93809153069091540619
:104A1000892B29F0E0915306F09154060995FF91F6
:104A2000EF91BF91AF919F918F917F916F915F9126
:104A30004F913F912F910F900FBE0F901F9018959F
:104A40001F920F920FB60F9211242F933F938F93C3
:104A50009F93AF93BF938091560690915706A09174
:104A60005806B09159063091550623E0230F2D3793
:104A700020F40196A11DB11D05C026E8230F029662
:104A8000A11DB11D2093550680935606909357069D
:104A9000A0935806B093590680915A0690915B06F0
:104AA000A0915C06B0915D060196A11DB11D809399
:104AB0005A0690935B06A0935C06B0935D06BF9187
:104AC000AF919F918F913F912F910F900FBE0F90BB
:104AD0001F9018953FB7F89480915A0690915B0605
:104AE000A0915C06B0915D0626B5A89B05C02F3F3E
:104AF00019F00196A11DB11D3FBF6627782F892FA0
:104B00009A2F620F711D811D911D42E0660F771F64
:104B1000881F991F4A95D1F70895CF92DF92EF929F
:104B2000FF92CF93DF936B017C010E946A25EB011A
:104B3000C114D104E104F10489F00E9432290E94D9
:104B40006A256C1B7D0B683E734090F381E0C81AA8
:104B5000D108E108F108C851DC4FEACFDF91CF91CD
:104B6000FF90EF90DF90CF900895789484B58260A5
:104B700084BD84B5816084BD85B5826085BD85B501
:104B8000816085BDEEE6F0E0808181608083E1E8B0
:104B9000F0E01082808182608083808181608083E8
:104BA000E0E8F0E0808181608083E1EBF0E08081EB
:104BB00084608083E0EBF0E0808181608083EAE7BD
:104BC000F0E0808184608083808182608083808146
:104BD000816080838081806880831092C100089505
:104BE0001F93CF93DF93182FEB0161E00E9478268B
:104BF000209711F460E004C0CF3FD10539F461E0A3
:104C0000812FDF91CF911F910C94B126E12FF0E01D
:104C1000E65AFB4FE491E330F9F048F4E130B9F0A3
:104C2000E230A1F584B5806284BDC8BD34C0E730F0
:104C3000E9F0E83019F1E43049F5809180008062B4
:104C400080938000D0938B00C0938A0024C084B5E9
:104C5000806884BDC7BD1FC080918000806880933C
:104C60008000D0938900C093880015C08091B00067
:104C700080688093B000C093B3000DC08091B000F5
:104C800080628093B000C093B40005C0C038D105E5
:104C90000CF0B5CFAFCFDF91CF911F910895833046
:104CA00081F028F4813099F08230A1F008958730A6
:104CB000A9F08830B9F08430D1F4809180008F7DE4
:104CC00003C0809180008F7780938000089584B521
:104CD0008F7702C084B58F7D84BD08958091B00028
:104CE0008F7703C08091B0008F7D8093B0000895CE
:104CF000CF93DF9390E0FC01E259FB4F2491FC013C
:104D0000EE57FB4F8491882349F190E0880F991F5B
:104D1000FC01E655FB4FA591B49180569B4FFC01D9
:104D2000C591D4919FB7611108C0F8948C912095DA
:104D300082238C93888182230AC0623051F4F894D4
:104D40008C91322F309583238C938881822B88839A
:104D500004C0F8948C91822B8C939FBFDF91CF91EC
:104D600008950F931F93CF93DF931F92CDB7DEB7B4
:104D7000282F30E0F901E65AFB4F8491F901E259FE
:104D8000FB4F1491F901EE57FB4F04910023C9F03A
:104D9000882321F069830E944F266981E02FF0E08B
:104DA000EE0FFF1FE056FB4FA591B4919FB7F8940B
:104DB0008C91611103C01095812301C0812B8C93CC
:104DC0009FBF0F90DF91CF911F910F910895CF93C7
:104DD000DF93282F30E0F901E65AFB4F8491F90167
:104DE000E259FB4FD491F901EE57FB4FC491CC230C
:104DF00091F081110E944F26EC2FF0E0EE0FFF1F83
:104E0000EA56FB4FA591B4912C912D2381E090E0BF
:104E100021F480E002C080E090E0DF91CF9108951E
:104E2000FC01818D228D90E0805C9F4F821B910957
:104E30008F7399270895FC01918D828D981731F019
:104E4000828DE80FF11D858D90E008958FEF9FEF23
:104E50000895FC01918D828D981761F0828DDF019C
:104E6000A80FB11D5D968C91928D9F5F9F73928F5D
:104E700090E008958FEF9FEF08958DEA98E2892BD7
:104E800049F080E090E0892B29F00E94AD28811143
:104E90000C9400000895FC01848DDF01A80FB11D62
:104EA000A35ABF4F2C91848D90E001968F73992760
:104EB000848FA689B7892C93A089B1898C9180644D
:104EC0008C93938D848D981306C00288F389E02D0E
:104ED00080818F7D80830895CF93DF93EC01888D4F
:104EE0008823C9F0EA89FB89808185FD05C0A889EE
:104EF000B9898C9186FD0FC00FB607FCF5CF808174
:104F000085FFF2CFA889B9898C9185FFEDCFCE01BD
:104F10000E944B27E7CFDF91CF910895CF92DF9288
:104F2000FF920F931F93CF93DF931F92CDB7DEB7FE
:104F30006C0181E0D60158968C9358975B969C91B2
:104F40005B975C968C915C97981307C05096ED9197
:104F5000FC915197808185FD2EC0F601038D10E0F4
:104F60000F5F1F4F0F731127F02EF601848DF8127B
:104F700011C00FB607FCF9CFD6015096ED91FC9108
:104F80005197808185FFF1CFC60169830E944B272D
:104F90006981EBCF838DE80FF11DE35AFF4F6083EA
:104FA000D6015B960C935B975296ED91FC915397CB
:104FB000808180620CC0D6015696ED91FC91579786
:104FC00060835096ED91FC9151978081806480833D
:104FD00081E090E00F90DF91CF911F910F91FF90B2
:104FE000DF90CF900895BF92CF92DF92EF92FF9221
:104FF000CF93DF93EC016A017B01B22EE889F98936
:1050000082E08083411581EE580761057105A1F0AA
:1050100060E079E08DE390E0A70196010E94652CA5
:1050200021503109410951095695479537952795E2
:10503000211580E1380798F0E889F989108260E845
:1050400074E88EE190E0A70196010E94652C215042
:105050003109410951095695479537952795EC85B2
:10506000FD853083EE85FF852083188EEC89FD89D0
:10507000B082EA89FB89808180618083EA89FB892B
:10508000808188608083EA89FB8980818068808351
:10509000EA89FB8980818F7D8083DF91CF91FF90AA
:1050A000EF90DF90CF90BF9008951F920F920FB6B0
:1050B0000F9211242F938F939F93EF93FF93E0917F
:1050C0006E06F0916F068081E0917406F09175068E
:1050D00082FD12C09081809177068F5F8F7320913F
:1050E0007806821751F0E0917706F0E0E25AF94F26
:1050F000958F8093770601C08081FF91EF919F91FA
:105100008F912F910F900FBE0F901F9018951F92A7
:105110000F920FB60F9211242F933F934F935F93EB
:105120006F937F938F939F93AF93BF93EF93FF936F
:105130008EE596E00E944B27FF91EF91BF91AF91D2
:105140009F918F917F916F915F914F913F912F919F
:105150000F900FBE0F901F9018958EE596E00E945D
:10516000102721E0892B09F420E0822F0895109266
:1051700061061092600688EE93E0A0E0B0E08093B4
:10518000620690936306A0936406B093650687ED6C
:1051900091E090935F0680935E0685EC90E090939B
:1051A0006B0680936A0684EC90E090936D06809382
:1051B0006C0680EC90E090936F0680936E0681EC15
:1051C00090E0909371068093700682EC90E090934B
:1051D00073068093720686EC90E090937506809338
:1051E0007406109277061092780610927906109243
:1051F0007A06089508950E94B5250E94FA280E9413
:105200000E21CDE3D7E20E94A6202097E1F30E9471
:105210003D27F9CFCF92DF92EF92FF920F931F932A
:10522000CF93DF936C017A01EB01E60EF71E00E0ED
:1052300010E0CE15DF0561F06991D601ED91FC918A
:105240000190F081E02DC6010995080F191FF1CFDB
:10525000C801DF91CF911F910F91FF90EF90DF90E8
:10526000CF90089508955058BB27AA270ED0F7C1B4
:10527000E8D130F0EDD120F031F49F3F11F41EF46D
:10528000B8C10EF4E095E7FBAEC1E92FF9D180F388
:10529000BA17620773078407950718F071F49EF533
:1052A00011C20EF4E0950B2EBA2FA02D0B01B901FF
:1052B00090010C01CA01A0011124FF27591B99F08C
:1052C000593F50F4503E68F11A16F040A22F232F98
:1052D000342F4427585FF3CF469537952795A795E8
:1052E000F0405395C9F77EF41F16BA0B620B730B8F
:1052F000840BBAF09150A1F0FF0FBB1F661F771F00
:10530000881FC2F70EC0BA0F621F731F841F48F4B4
:10531000879577956795B795F7959E3F08F0B3CF3A
:105320009395880F08F09927EE0F97958795089524
:1053300088D158F080E891E009F49EEF89D128F0F7
:1053400040E851E059F45EEF09C053C1BBC1E92FF9
:10535000E07896D168F3092E052AC1F3261737079E
:105360004807590738F00E2E07F8E02569F0E025C8
:10537000E0640AC0EF6307F8009407FADB01B901A3
:105380009D01DC01CA01AD01EF9347D068D10AD07D
:105390005F91552331F02BED3FE049E450FD49EC9E
:1053A00063CF0895DF93DD27B92FBF7740E85FE330
:1053B0001616170648075B0710F4D92F8ED19F9356
:1053C0008F937F936F9335D2E8EFF0E015D147D1FB
:1053D0002F913F914F915F9193D1DD2349F09058E8
:1053E000A2EA2AED3FE049EC5FE3D0785D274DDF8C
:1053F000DF9135C1D4D008F481E008950CD02FC1DD
:1054000027D140F01ED130F021F45F3F19F0EBC0FE
:10541000511159C1EEC034D198F39923C9F35523E2
:10542000B1F3951B550BBB27AA2762177307840797
:1054300038F09F5F5F4F220F331F441FAA1FA9F34D
:1054400033D00E2E3AF0E0E830D091505040E6953F
:10545000001CCAF729D0FE2F27D0660F771F881FA0
:10546000BB1F261737074807AB07B0E809F0BB0B8F
:10547000802DBF01FF2793585F4F2AF09E3F5105B3
:1054800068F0B1C020C15F3FECF3983EDCF3869535
:1054900077956795B795F7959F5FC9F7880F911D29
:1054A0009695879597F90895E1E0660F771F881F15
:1054B000BB1F621773078407BA0720F0621B730BC8
:1054C000840BBA0BEE1F88F7E0950895E1D088F0C1
:1054D0009F5790F0B92F9927B751A0F0D1F0660FE0
:1054E000771F881F991F1AF0BA95C9F712C0B130FB
:1054F00081F0E8D0B1E00895E5C0672F782F8827C4
:10550000B85F39F0B93FCCF3869577956795B39539
:10551000D9F73EF490958095709561957F4F8F4FA8
:105520009F4F0895E89409C097FB3EF490958095AD
:10553000709561957F4F8F4F9F4F9923A9F0F92F59
:1055400096E9BB279395F695879577956795B795D7
:10555000F111F8CFFAF4BB0F11F460FF1BC06F5FBD
:105560007F4F8F4F9F4F16C0882311F096E911C0CF
:10557000772321F09EE8872F762F05C0662371F0F0
:1055800096E8862F70E060E02AF09A95660F771F04
:10559000881FDAF7880F9695879597F90895990FE0
:1055A0000008550FAA0BE0E8FEEF16161706E807ED
:1055B000F907C0F012161306E407F50798F0621B0E
:1055C000730B840B950B39F40A2661F0232B242BE3
:1055D000252B21F408950A2609F4A140A6958FEF02
:1055E000811D811D089597F99F6780E870E060E054
:1055F00008959FEF80EC0895DF93CF931F930F934F
:10560000FF92EF92DF927B018C01689405C0DA2E45
:10561000EF0176D0FE01E894A59125913591459151
:105620005591AEF3EF0131DEFE019701A801DA9446
:1056300079F7DF90EF90FF900F911F91CF91DF915D
:10564000089500240A9416161706180609060895E8
:1056500000240A9412161306140605060895092E4E
:105660000394000C11F4882352F0BB0F40F4BF2BBD
:1056700011F460FF04C06F5F7F4F8F4F9F4F0895FD
:1056800057FD9058440F551F59F05F3F71F04795F3
:10569000880F97FB991F61F09F3F79F087950895D8
:1056A000121613061406551FF2CF4695F1DF08C0F7
:1056B000161617061806991FF1CF86957105610514
:1056C00008940895E894BB2766277727CB0197F9BC
:1056D000089565DF08F48FEF08959B01AC0160E049
:1056E00070E080E89FE38ACE0BD0B9CFAADF28F024
:1056F000AFDF18F0952309F076CF7BCF1124E3CFED
:10570000BFDFA0F3959FD1F3950F50E0551F629F27
:10571000F001729FBB27F00DB11D639FAA27F00D0A
:10572000B11DAA1F649F6627B00DA11D661F829F31
:105730002227B00DA11D621F739FB00DA11D621F16
:10574000839FA00D611D221F749F3327A00D611D33
:10575000231F849F600D211D822F762F6A2F112415
:105760009F5750408AF0E1F088234AF0EE0FFF1F68
:10577000BB1F661F771F881F91505040A9F79E3F9F
:10578000510570F030CF9FCF5F3FECF3983EDCF3D4
:10579000869577956795B795F795E7959F5FC1F7DC
:1057A000FE2B880F911D9695879597F9089511F412
:1057B0000EF41FCF41C06CDFD0F39923D9F3CEF3A1
:1057C0009F57550B87FF46D00024A0E640EA900182
:1057D00080585695979528F4805C660F771F881F30
:1057E00020F026173707480730F4621B730B840B31
:1057F000202931294A2BA695179407942025312575
:105800004A2758F7660F771F881F20F0261737079B
:10581000480730F4620B730B840B200D311D411DC2
:10582000A09581F7B901842F9158880F9695879597
:1058300008959B01AC0158CF9F3F31F0915020F467
:10584000879577956795B795880F911D969587955C
:1058500097F9089591505040660F771F881FD2F72F
:105860000895991B79E004C0991F961708F0961BBC
:10587000881F7A95C9F780950895AA1BBB1B51E133
:1058800007C0AA1FBB1FA617B70710F0A61BB70BB0
:10589000881F991F5A95A9F780959095BC01CD0155
:1058A000089597FB072E16F4009407D077FD09D0D2
:1058B0000E943D2C07FC05D03EF4909581959F4FAA
:1058C0000895709561957F4F0895A1E21A2EAA1B45
:1058D000BB1BFD010DC0AA1FBB1FEE1FFF1FA217A0
:1058E000B307E407F50720F0A21BB30BE40BF50B9D
:1058F000661F771F881F991F1A9469F76095709526
:10590000809590959B01AC01BD01CF010895EE0FEC
:10591000FF1F0590F491E02D09942A0D3B1D4C1DAD
:105920005D1D6E1D7F1D801F911F08950024A7FD22
:1059300000942A0F301D401D501D601D701D801DDC
:10594000901D08950024A7FD00942A1730054005F6
:10595000500560057005800590050895F999FECF02
:1059600092BD81BDF89A992780B50895262FF9999F
:10597000FECF1FBA92BD81BD20BD0FB6F894FA9A32
:0C598000F99A0FBE01960895F894FFCF2D
:10598C001E1206EC51583F713D4A3FF6283C3F7BB6
:10599C00142E3F0000203F85EB113F0AD7033F1F19
:1059AC0085EB3E295CCF3E3333B33E3D0A973E8FA9
:1059BC00C2753EA4703D3EB81E053E9A99993D0AAB
:1059CC00D7A33CCDCC8C3FC3F5983FB81EA53FAEBA
:1059DC0047B13FA470BD3F9A99C93F8FC2D53F854F
:1059EC00EBE13F7B14EE3F713DFA3F33330340AEA6
:1059FC00470940295C0F40A47015401F851B409A35
:105A0C00992140CDCC8C3FD7A3A03FE17AB43FEC99
:105A1C0051C83FF628DC3F0000F03F85EB01400AFF
:105A2C00D70B408FC2154014AE1F409A9929401FC6
:105A3C00853340A4703D40295C4740AE475140330C
:105A4C00335B40000000000C22DF21B421BC21CFCD
:105A5C0021DE21000000008E270A29102729271B90
:045A6C00276C27007C
:00000001FF
