:100000000C945D020C94D2230C94FF230C94850273
:100010000C9485020C9485020C94CA020C948502FF
:100020000C9485020C9485020C9485020C94850234
:100030000C9485020C9485020C9485020C94850224
:100040000C942C240C9485020C9461270C94932717
:100050000C9485020C9485020C9485020C94850204
:100060000C9475220C948502020A0B0A180A1D0AC8
:10007000270A2C0A360A3E0A480A500A5A0A5E0A19
:10008000620A6F0A770A820A870A920A9C0AA60AFB
:10009000B30AC10AC60AD30AE20AF10AFF0A120B1E
:1000A0001D0B290B340B410B4F0B580B620B710BC3
:1000B000890B8C0B970B9A0BA50BA80BB40BC20BDF
:1000C000C70BCC0BD50BDF0BEB0BF90BFC0B010CAF
:1000D000050C090C0D0C110C150C200C380C2E0CF9
:1000E000460C540CA61DA91DAC1DEF1DF21D171EBC
:1000F000351E4A1E601E7D1E084AD73B3BCE016E50
:1001000084BCBFFDC12F3D6C74319ABD56833DDA6E
:100110003D00C77F11BED9E4BB4C3E916BAAAABE7D
:10012000000000803F000000003840481800001028
:100130001000001800001010000018100010FF0040
:1001400000E02000C04000A0600080800060A000AF
:1001500040C00020E00000FF0000E02000C04000A0
:10016000A0600080800060A00040C00020E000008F
:10017000FF2000E04000C06000A0800080A0006080
:10018000C00040E00020404040A0101010A010101F
:1001900010A0800830503030803008505008308037
:1001A00008305030088030085050083080303050CF
:1001B00030088050085000010203040506070809B2
:1001C0000A0B0C0D0E0F04050607000000000000CE
:1001D00000000000000008090A0B000000000000F9
:1001E0000000000000000C0D0E0F000000000000D9
:1001F0000000000000001004040401020D0E0606B9
:100200002426282A2C2E00000000000000000000F8
:100210002426282A2C2E00000000000000000000E8
:100220000101093B07030187868584838200000062
:1002300000000000000048505800000000000000CE
:10024000000000000000010006150202CE1A0000A6
:10025000000000000000000000000000CE1A0000B6
:100260000000000000000000000000000100131466
:100270000707012426282A2C2E0000000000000079
:100280000000012426282A2C2E0000000000000077
:100290000000000027020F01080A0C0810181A1CA1
:1002A00018081012141018000000000000000000D0
:1002B000000000000000000000000F02090101C85A
:1002C000C801D0D001D8D800000000000000000014
:1002D000000000000000000000000000000000001E
:1002E0001E02040118141612000000000000000095
:1002F00000000000000000000000000000000000FE
:100300000000000000001D0203011E1A150000007D
:1003100000000000000000000000000000000000DD
:100320000000000000000000000000003702030190
:100330002122230000000000000000000000000057
:1003400000000000000000000000000000000000AD
:100350000000300203011F1C190000000000000013
:10036000000000000000000000000000000000008D
:10037000000000000000000018020D01C1080A0C76
:100380000E10121416181A1C1E00000000000000A7
:1003900000000000000000000000000000001A0241
:1003A0000701012426282A2C2E000000000000004E
:1003B000000000000000000000000000000000003D
:1003C000000000000F0206011FD4D414DFDF00007C
:1003D000000000000000000000000000000000001D
:1003E000000000000000000000000F02060126ECE3
:1003F000EC2CE6E600000000000000000000000019
:1004000000000000000000000000000000000000EC
:100410002302030121242500000000000000000049
:1004200000000000000000000000000000000000CC
:100430000000000000001B02060128002B002E0017
:1004400000000000000000000000000000000000AC
:100450000000000000000000000000000008000292
:10046000010000030407000000000000000001027A
:100470000408102040800102040810200102040832
:100480001020040404040404040402020202020210
:1004900003030303030300000000230026002900D8
:1004A00000000000250028002B00000000002400B0
:1004B00027002A00F9109321C32711241FBECFEF74
:1004C000D8E0DEBFCDBF11E0A0E0B1E0ECEFF7E592
:1004D00002C005900D92A43BB107D9F726E0A4EB2A
:1004E000B1E001C01D92AB3CB207E1F714E0CAEBEA
:1004F000D4E004C02297FE010E94C12BC43BD10767
:10050000C9F70E9407280C94FC2B0C94000041159D
:10051000510529F480917A008F7780937A006A30B0
:100520007105B1F063FF02C088E201C088E0677026
:10053000682B88E190E00FB6F894A895809360004E
:100540000FBE6093600080916000806480936000C3
:1005500083B7817F846083BF232B51F4F89483B7E2
:10056000816083BF85B7806685BF8F7D85BF04C0EE
:10057000F89483B7816083BF7894889583B78E7F22
:1005800083BF7894452B29F480917A00806880930A
:100590007A0008951F920F920FB60F9211248F9335
:1005A00088E10FB6F89480936000109260000FBE4F
:1005B0008F910F900FBE0F901F90189580E090E0E4
:1005C000FC01EA5DFE4FE491DC01AB54BE4FEC93BD
:1005D000FC01E95DFE4FE4911196EC931197FC014B
:1005E000E85DFE4FE4911296EC93039680399105F5
:1005F00039F70895EF92FF920F931F93CF93DF93F4
:10060000C7EBD1E08C01855B91407C01FE01329704
:100610006081C8010E94EE2BFE0131976081C80104
:1006200001960E94EE2B6881C7018C0F9D1F0E94CE
:10063000EE2B0D5F1F4F239692E0C734D90731F799
:10064000DF91CF911F910F91FF90EF900895EF925E
:10065000FF920F931F93CF93DF93C7EBD1E08C01F1
:10066000855B91407C01C8010E94E62BFE01329718
:100670008083C80101960E94E62BFE01319780839A
:10068000C7018C0F9D1F0E94E62B88830D5F1F4FB3
:10069000239692E0C734D90731F7DF91CF911F91AC
:1006A0000F91FF90EF900895CF93DF93A82FB0E0C4
:1006B00096E0B595A7959A95E1F78F7390E0FC01C8
:1006C000EE0FFF1FE80FF91FEB54FE4F8081EB0187
:1006D00088838181EA0188838281F9018083EB012B
:1006E000888190E00A2E02C0959587950A94E2F7DA
:1006F0008883FA01808190E00A2E02C09595879543
:100700000A94E2F78083E901888190E002C0959520
:100710008795AA95E2F78883DF91CF9108952F926C
:100720003F924F925F926F927F928F929F92AF9281
:10073000BF92CF92DF92EF92FF920F931F93CF93CE
:10074000DF9300D01F92CDB7DEB71B01F22ED02E63
:10075000A9829B828A82042F10E0BC0180E090E095
:100760000E94CA292B013C01B10180E090E00E9467
:10077000CA299B01AC01C301B2010E9436292B0199
:100780003C01B801882777FD8095982F0E94CC29DD
:100790004B015C016E2D70E0601B710B882777FDAB
:1007A0008095982F0E94CC29A30192010E94AC2A27
:1007B0009B01AC01C501B4010E946C280E949E29D6
:1007C000EA81FB8160830F2D10E0B801882777FD57
:1007D0008095982F0E94CC294B015C016C2D70E014
:1007E000601B710B882777FD8095982F0E94CC297C
:1007F000A30192010E94AC2A9B01AC01C501B40186
:100800000E946C280E949E29E88DF98D60830D2D31
:1008100010E0B801882777FD8095982F0E94CC2999
:100820006B017C01F9816F2F70E0601B710B8827D1
:1008300077FD8095982F0E94CC29A30192010E94F8
:10084000AC2A9B01AC01C701B6010E946C280E9432
:100850009E29EA8DFB8D60830F900F900F90DF91A2
:10086000CF911F910F91FF90EF90DF90CF90BF90AD
:10087000AF909F908F907F906F905F904F903F9040
:100880002F9008953F924F925F926F927F928F9236
:100890009F92AF92BF92CF92DF92EF92FF920F930F
:1008A0001F93CF93DF9300D0CDB7DEB72B015A83D0
:1008B00049837E886F88388C882339F0B82E80E38E
:1008C0008B1528F480E3B82E02C0BB24B3947110BA
:1008D00001C07B2C611001C0672C811002C08824EC
:1008E0008394D12CA6014E0D511D749E7001759EEE
:1008F000F00C1124F701EA0DF11DA981BA818D9147
:100900009C9111978E179F07E0F01D921C92D801C1
:10091000ED91FC91119731961196FC93EE93912CE9
:10092000E815F90574F01D921C92F9018081761486
:1009300029F0860D6B2D0E94692B01C090E0D90132
:100940009C933320E9F1E981FA81808191818E15B0
:100950009F0530F4BA010E94752B8C159D0538F463
:1009600010924B0210924C0210924D0229C0D901F4
:100970008C91860F8B1510F0761491F36B2D0E94DD
:10098000692BF201E90FF11D2BE432E04CE452E057
:100990006DE472E080810F900F90DF91CF911F91F5
:1009A0000F91FF90EF90DF90CF90BF90AF909F900E
:1009B0008F907F906F905F904F903F900C94540376
:1009C0000F900F90DF91CF911F910F91FF90EF90BB
:1009D000DF90CF90BF90AF909F908F907F906F905F
:1009E0005F904F903F9008952F923F924F925F9269
:1009F0006F927F928F929F92AF92BF92CF92DF922F
:100A0000EF92FF920F931F93CF93DF93CDB7DEB793
:100A1000B82E8B013A014A2CAD89AE888F89388C6B
:100A2000298CA11003C0AA24AA94AB0C5A2C8823A9
:100A300019F08A1508F4582ED12CF12C6A2D70E08B
:100A4000912CA7014C0D5D1D469FC001479F900D45
:100A5000569F900D112431100BC08C199D09A401D3
:100A6000440D511DA49FF001A59FF00D112406C057
:100A70008C0D9D1DE42DF0E0A11103C0E80DF91DC2
:100A80000AC0A4014E0F5F1FA49FF001A59FF00DA7
:100A90001124E819F9098E0F9F1FD3014D915C9124
:100AA000119748175907B0F01D921C92D9018C91EB
:100AB000850D8C9390E06B2D70E061507109861765
:100AC000970744F0A51419F00E94892B01C080E01B
:100AD000D9018C93222009F475C0D3018D919C918A
:100AE0008E179F07F0F4512CB201680D791D0E94FA
:100AF000752B31100AC08815990550F410924B02DD
:100B000010924C0210924D025DC084159505B0F70D
:100B10002BE432E04CE452E06DE472E0F8018081B5
:100B20003DC08E1B9F0BB7016C0D7D1D0E94752B68
:100B300031101BC08E159F0508F76B1510F0A5141A
:100B4000E9F2CB0199276B2D70E0615071090E9489
:100B5000892B800F911F2BE432E04CE452E06DE4CE
:100B600072E0DC0111968C9119C08C159D0530F254
:100B70006B1510F0A51411F2CB0199276B2D70E0C5
:100B8000615071090E94892B800F911F2BE432E084
:100B90004CE452E06DE472E0FC018181DF91CF9181
:100BA0001F910F91FF90EF90DF90CF90BF90AF908B
:100BB0009F908F907F906F905F904F903F902F907D
:100BC0000C945403DF91CF911F910F91FF90EF9000
:100BD000DF90CF90BF90AF909F908F907F906F905D
:100BE0005F904F903F902F9008956F927F928F92D9
:100BF0009F92AF92BF92CF92DF92EF92FF920F93AC
:100C00001F93CF93DF93CDB7DEB7182F3B01DA01E7
:100C1000F90109899A88011101C0082FF12CB70147
:100C20006C0D711D802F90E00197689FA001699F56
:100C3000500D789F500D1124B12C9A01220F331FB3
:100C40002A0D3B1DC901880D911DCD90DC90119797
:100C5000C816D90648F011961C921E928081800F0A
:100C60008083811708F01082992009F446C08D9185
:100C70009C918417950750F40E94752B8E159F0543
:100C8000D8F480818150861B800F14C04A0D5B1DF3
:100C90008417950710F480810DC08217930760F4C4
:100CA000841B950B0E94752B8E159F0528F480815F
:100CB0008F5F860F811738F010924B0210924C0212
:100CC00010924D021AC0F301E80FF11D2BE432E03F
:100CD0004CE452E06DE472E08081DF91CF911F918E
:100CE0000F91FF90EF90DF90CF90BF90AF909F90CB
:100CF0008F907F906F900C945403DF91CF911F9150
:100D00000F91FF90EF90DF90CF90BF90AF909F90AA
:100D10008F907F906F9008952F923F924F925F92A5
:100D20006F927F928F929F92AF92BF92CF92DF92FB
:100D3000EF92FF920F931F93CF93DF93CDB7DEB760
:100D4000982F2B013A01F801BE2C9A2C682D3D8872
:100D50002E887F89888D898C4E2D50E0EC2CF12CCB
:100D6000A081B181711145C08A0161110CC0682F49
:100D700070E06A1B7B0BE69E5001E79EB00CF69E6E
:100D8000B00C11240AC0613051F41196EA9E500152
:100D9000EB9EB00CFA9EB00C1124D82E20C0A82EC9
:100DA000B12CB50161507109D62EDD0CAA15BB0519
:100DB0004CF41196EA9E5001EB9EB00CFA9EB00CDA
:100DC00011240DC061E070E06A1B7B0B6D0D711D7D
:100DD000E69E5001E79EB00CF69EB00C1124211047
:100DE00003C04A0D5B1D4AC0C89E400D511D112411
:100DF00045C061110CC0682F70E06A1B7B0B469FD9
:100E00008001479F100D569F100D11240AC06130BC
:100E100051F411964A9F80014B9F100D5A9F100D5F
:100E20001124D82E20C0682F70E08B0101501109C9
:100E3000D02EDD0CA617B7074CF411964A9F8001FF
:100E40004B9F100D5A9F100D11240DC061E070E0F2
:100E50006A1B7B0B6D0D711D469F8001479F100D16
:100E6000569F100D1124211004C0A8014E0D5F1DC6
:100E700005C0A701B89E400D511D112481E08315C6
:100E800068F4D9018C91A82FB0E0692F70E061500F
:100E90007109A617B70711F4490D511DD3016D91C2
:100EA0007C9111976417750708F44CC01D921C9231
:100EB000311018C0408151814F5F5F4F5183408393
:100EC0006D2D70E064177507ECF5D9014C9150E079
:100ED0004F5F5F4F692F70E0CA010E94892BD901D3
:100EE0008C932EC0B1E03B121AC0408151814F5FFC
:100EF0005F4F51834083D9014C9150E04F5F5F4F6A
:100F0000692F70E0CA010E94892BD9018C938D2D25
:100F100090E04081518184179507A4F411C0D90154
:100F20008C918F5F8C93891768F01C9280819181DE
:100F30000196918380834D2D50E04817590714F492
:100F400011821082882061F1F301808191818017E4
:100F5000910700F5D9018C91F201E80FF11D2BE406
:100F600032E04CE452E06DE472E08081DF91CF9199
:100F70001F910F91FF90EF90DF90CF90BF90AF90B7
:100F80009F908F907F906F905F904F903F902F90A9
:100F90000C94540310924B0210924C0210924D028A
:100FA000DF91CF911F910F91FF90EF90DF90CF9045
:100FB000BF90AF909F908F907F906F905F904F9079
:100FC0003F902F9008952F923F924F925F926F9291
:100FD0007F928F929F92AF92BF92CF92DF92EF92C9
:100FE000FF920F931F93CF93DF93CDB7DEB7982E69
:100FF0001B012A0189015D898E894F89F12CD12C31
:1010000097012C0D3D1D829F3001839F700C112490
:10101000B12C682D70E0D2018D919C9111975111E6
:1010200021C0A60CB71C6A0D7B1D8617970758F0C8
:101030001D921C92F801808190E00196692D70E06C
:101040000E94892B8083442309F49DC1D2018D9194
:101050009C918615970508F44EC08A159B0508F0EB
:1010600068C1CCC0513021F5F301EA0DFB1D6E0FB4
:101070007F1F8617970768F0D2011D921C92D80136
:101080008C9190E00196692D70E00E94892BD80127
:101090008C93442309F477C1D2014D905C904A149B
:1010A0005B0408F4ABC04E165F0608F45EC041C195
:1010B000523009F082C0F301EE0FFF1FEA0DFB1D55
:1010C0006E0F7F1F8617970768F0D2011D921C9242
:1010D000D8018C9190E00196692D70E00E94892BD7
:1010E000D8018C93442309F44EC1D2018D919C9177
:1010F0008615970578F5B9010E94752B8E159F0509
:1011000008F017C1F8018081F101E80FF11D28E412
:1011100032E049E452E06AE472E080810E945403C4
:101120008BE492E09F938F938CE492E09F938F9354
:101130004DE4842E42E0942EA0904802C0904902D3
:10114000E0904A0200E020E040E0B301D2018D913E
:101150009C91E8C0A60CB71C8A159B0508F44EC0EC
:101160008E179F0708F0E5C02C014A185B08C201E2
:10117000B9010E94752B8C159D0508F4DAC0D801C1
:101180008C91F101E80FF11D28E432E049E452E0CE
:101190006AE472E080810E9454038BE492E09F93A2
:1011A0008F938CE492E09F938F933DE4832E32E003
:1011B000932EA12CC12CE12CADC0533009F050C0AE
:1011C000F301EA0DFB1D6E0F7F1F8617970768F06E
:1011D000D2011D921C92D8018C9190E00196692D4C
:1011E00070E00E94892BD8018C93442309F4CBC072
:1011F000D2014D905C904A145B0418F4F801808190
:10120000A4C04E165F0608F094C04A185B08C201DD
:10121000B9010E94752B8C159D0508F48AC0D80170
:101220008C91F101E80FF11D28E432E049E452E02D
:101230006AE472E080810E945403F801808190E0AA
:101240000196692D70E00E94892B820D931D25E483
:1012500032E046E452E067E472E0DC018C9146C083
:10126000A60CB71C6A0D7B1D8617970768F0F20164
:1012700011821082D8018C9190E00196692D70E066
:101280000E94892BF8018083442309F47CC0D20199
:101290004D905C904614570408F052C0C201B90149
:1012A0000E94752B8E159F0508F043C0F8018081C0
:1012B00090E00196692D70E00E94892B820D931DAC
:1012C00028E432E049E452E06AE472E0DC018C9107
:1012D0000E945403F8018081F101E80FF11D25E41B
:1012E00032E046E452E067E472E080810E945403F9
:1012F0008BE492E09F938F938CE492E09F938F9383
:101300002DE4822E22E0922EA0904502C09046024B
:10131000E0904702009148022091490240914A0220
:10132000B301C2010E948F030F900F900F900F9096
:101330002AC010924B0210924C0210924D0223C010
:101340004A145B04B0F7D8018C91F101E80FF11D4C
:101350002BE432E04CE452E06DE472E08081DF91F6
:10136000CF911F910F91FF90EF90DF90CF90BF90A2
:10137000AF909F908F907F906F905F904F903F9035
:101380002F900C945403DF91CF911F910F91FF90F8
:10139000EF90DF90CF90BF90AF909F908F907F9015
:1013A0006F905F904F903F902F9008952F923F92B3
:1013B0004F925F926F927F928F929F92AF92BF9265
:1013C000CF92DF92EF92FF920F931F93CF93DF9311
:1013D00000D0CDB7DEB7982F862FBA01390198011A
:1013E0008701260115019A8289824F89C92ED12C45
:1013F0009EE3C916D10408F06AC2F601EC5CFF4F07
:101400000C94BF2B4F931F921F92812CA12CC12CA7
:10141000A9E1EA2E09C04F931F921F92812CA12CA3
:10142000E2E3CE2EF2E3EF2EA3010E9442044CC26F
:101430004F931F921F92812C4CC04F931F921F926B
:10144000812CA12C58E1C52EEE24E394EDCF4F93CF
:101450001F921F92812C52C04F931F921F92812C7A
:10146000A12C9EE1C92E44E1E42EDECF4F931F92C2
:101470001F92812CA12CBDE2CB2E19C04F931F923D
:101480001F92812CA12CA1E6CA2EF3E0EF2ECCCF27
:101490004F931F921F92812CA12CEEEBCE2E3FC0BA
:1014A0004F931F921F92812C5CE8A52EC12C45E022
:1014B000E42EBACF4F931F921F922DC04F931F92CD
:1014C0001F9234C04F9391E09F9392E09F9390E2DC
:1014D000892EA12CA0E1CA2EB9E0EB2EA5CF4F9307
:1014E00091E09F9393E09F93F0E18F2E98CF4F93DD
:1014F00091E09F9393E09F93E0E48E2EA12C56E120
:10150000C52EC3CF4F9393E09F939F93CCCF4F9320
:1015100093E09F939F93812C4CE8A42EC12C9AE0DA
:10152000E92E82CF4F9393E09F939F93812CACE859
:10153000AA2EBAE0CB2EBBCF4F931F9291E09F9380
:101540009F939F93812CF4E1AF2E0BC04F9391E0BA
:101550009F931F921F9295E09F9356E1852EE3E0A3
:10156000AE2EC12C59C04F9391E09F931F921F92B2
:101570009F93812CB2E3AB2E96E1C92E43E0E42E7B
:101580004DC04F931F9291E09F9305C04F931F92C0
:1015900091E09F9393E09F9395E09F93F6E18F2EC8
:1015A000A3E0AA2E37C04F9391E09F939F9343E00F
:1015B0004F939F934EE1842E5EE1A52EC12CEAE06D
:1015C000EE2E2CC04F931F9291E09F9393E09F9338
:1015D0001F92812CADE2AA2EBCE0CB2E98E0E92E22
:1015E0001DC04F931F9291E09F9393E09F931F9292
:1015F0005CE3852EE8E2AE2EFEE1CF2E0DC04F93C8
:101600001F9291E09F9392E09F931F929DE2892EFB
:101610004FE0A42EBDE2CB2EA5E0EA2EA3010E944E
:10162000F40471C04F9390E19F9391E09F939F9337
:1016300092E09F938824839409C04F9390E19F93F5
:1016400091E09F939F9392E09F93812CA12CC12CBA
:1016500045C04F9390E19F9391E09F939F9392E0B9
:101660009F93F2E08F2EF2CF4F9390E29F931F92C1
:101670001F9291E09F9352E0852EA12CE2E0CE2EA6
:101680003DC04F9398E09F9391E09F931F9292E00B
:101690009F9392E0892E40E5A42EC12C2FC04F933A
:1016A00090E29F9391E09F939F931F92812C13C090
:1016B0004F9390E29F9391E09F939F931F92882472
:1016C000839409C04F9390E29F9391E09F939F93DF
:1016D0001F92B2E08B2EA12CAEE1CA2EF3E0EF2ECA
:1016E0000FC04F9398E09F9391E09F931F9292E0D9
:1016F0009F9352E0852EA12CE4E1CE2E45E0E42E0E
:10170000A3010E948C060F900F900F900F900F90E6
:10171000DEC04F931F9203C04F9395E09F93A8E2C2
:101720008A2EB0E1AB2EC12C98E0E92E25C04F9354
:101730001F9203C04F9395E09F9355E5852EE8E0F7
:10174000AE2EC12CF3E0EF2E17C04F931F9203C0B3
:101750004F9395E09F93A8E28A2EB0E1AB2E95E0DF
:10176000C92E45E0E42E08C04F931F92812CE3E080
:10177000AE2EC12CF4E1EF2EA3010E94F5050F90CF
:101780000F90A5C04F9391E09F931F9209C04F9374
:1017900097E09F931F920EC04F9391E09F939F936A
:1017A000812CA12C54E6C52E13C04F9397E09F9334
:1017B00091E09F939BE4892E49E1A42E15C04F939D
:1017C00091E09F9392E09F93B6E98B2EA12CC12CC0
:1017D000A6E9EA2E76C04F9394E09F9392E09F9300
:1017E000E6E98E2EF2E3AF2E49E1C42E59E1E52E53
:1017F00068C04F9398E002C04F9391E09F9393E0AD
:1018000018C04F9393E09F931FC04F9393E09F9313
:1018100029C04F9393E09F932FC04F9393E09F93E2
:1018200039C04F9393E09F9343C04F9391E09F93B0
:1018300094E09F93812CA12CC12C9AEFE92E41C0FA
:101840004F9393E09F9394E09F93E6E18E2EF3E015
:10185000AF2EA6E1CA2EB3E0EB2E33C04F9393E038
:101860009F9394E09F934DE2842E55E0A52E25C0D2
:101870004F9393E09F9394E09F93F0E18F2EA9E024
:10188000AA2EB0E1CB2E99E0E92E1BC04F9393E036
:101890009F9394E09F9392E3892E42E3A42E52E318
:1018A000C52EE2E3EE2E0DC04F9393E09F9394E09C
:1018B0009F93ADE28A2EB2E3AB2EEDE2CE2EF5E0A1
:1018C000EF2EA3010E94E3070F900F900F90F301FA
:1018D0008081918101969183808380914D02F201F4
:1018E000808380914C02F101808380914B02E981D9
:1018F000FA8180830F900F90DF91CF911F910F910C
:10190000FF90EF90DF90CF90BF90AF909F908F901F
:101910007F906F905F904F903F902F900895089523
:101920000F931F93CF93DF931F92CDB7DEB78C0138
:1019300069830E94E62B6981681741F0C8010F9006
:10194000DF91CF911F910F910C94EE2B0F90DF91AF
:10195000CF911F910F910895DC01ED91FC910190C1
:10196000F081E02D0994DC01ED91FC910190F08172
:10197000E02D09948091030526E2829FC001112485
:10198000805B9D4F90934F0280934E021092BC0457
:101990001092BB041092BA041092B1041092B004D9
:1019A0001092B4041092B7041092B6041092B304CB
:1019B0001092B2041092B5041092B9041092B804B7
:1019C00008958F929F92AF92BF92CF92DF92EF9243
:1019D000FF920F931F93E0914E02F0914F02AF01DF
:1019E0004A5F5F4F81E09091BC04911180E08F933A
:1019F0006AE5862E65E0962E7BE5A72E75E0B72E6C
:101A0000ACE5CA2EA5E0DA2EB0EBEB2EB4E0FB2E4F
:101A100004EB14E026EB34E0648182810E94D60955
:101A2000E0914E02F0914F02AF014A5E5F4F81E0BC
:101A30009091BC04913009F080E08F938AE5882E64
:101A400085E0982E9BE5A92E95E0B92E2CE5C22EB7
:101A500025E0D22E32EBE32E34E0F32E05EB14E03A
:101A600028EB34E0658183810E94D6090F900F90A6
:101A70001F910F91FF90EF90DF90CF90BF90AF90AC
:101A80009F908F900895FF920F931F93CF93DF93B2
:101A9000D82FC62FF42E0E94762400915D05109158
:101AA0005E0520915F0530916005601B710B820B14
:101AB000930B61157D478105910568F30E9476249B
:101AC00060935D0570935E0580935F05909360055C
:101AD0006D2F70E089E00E94FC246C2F70E086E09E
:101AE0000E94FC246F2D70E085E00E94FC24A895E4
:101AF000DF91CF911F910F91FF900895AF92BF9208
:101B0000CF92DF92EF92FF920F931F93CF93DF93C9
:101B1000182F062FF42EE22EC0E0CE1589F0D0E06B
:101B2000D23320F44F2D602F812F03C040E060E0BE
:101B300080E00E94430DDF5FD43691F7CF5FEDCF99
:101B400084E6C89FF00111249F2F990F990B9F01E4
:101B5000492F592F692F792F892FA0904A05B090CE
:101B60004B05C0904C05D0904D05E0904E05F0908F
:101B70004F0500915005109151050E94C52B2093EF
:101B80004A0530934B0540934C0550934D056093A7
:101B90004E0570934F058093500590935105DF914A
:101BA000CF911F910F91FF90EF90DF90CF90BF905A
:101BB000AF900895E0910205811103C010920105D4
:101BC0000EC08091010590E00196AE2FB0E0A350C9
:101BD000BB4F6C9170E00E94892B8093010580912E
:101BE000010590E1E99FF0011124E80FF11DE35494
:101BF000FB4F8081809303050C94BA0CCF93DF9345
:101C0000C0E0D0E060E0CE010E94900C2196C115AA
:101C100084E0D807B9F7DF91CF91089580E090E094
:101C200020E030E0BC0166507E4FAC01405B5D4F70
:101C3000FB01E20FF31FE491DA01A20FB31FEC9353
:101C40002F5F3F4F2632310599F78696803622E086
:101C5000920731F708951F93CF93DF9346EF51E03A
:101C6000ADEFB4E080E090E0FA0124912D9320E004
:101C700030E0EC01CA54DE4FBC0163547B4FFE01DF
:101C8000E20FF31F1491FB01E20FF31F10832F5F8C
:101C90003F4F2031310599F74F5F5F4F40968034B9
:101CA000910511F7DF91CF911F910895EF92FF9267
:101CB0000F931F93CF93DF9398E2899F70011124B4
:101CC00096E2899F80011124005B1D4FC0E0D0E0A7
:101CD000F801EC0FFD1F6081CE018E0D9F1D0E944B
:101CE000900C2196C632D10599F7DF91CF911F91C3
:101CF0000F91FF90EF900895CF93C0E08C2F0E943A
:101D0000560ECF5FC031D1F7CF910895AF92BF92F9
:101D1000CF92DF92EF92FF920F931F93CF93DF93B7
:101D2000CDEFCC2EC4E0DC2EDDEBED2ED4E0FD2E8D
:101D3000C0E8D2E0F60161916F01CE010E94900CE3
:101D40005E01F0E7AF1AF2E0BF0A8E0100581240C0
:101D5000F701E00FF11F6081C8018F579D4F0E946E
:101D6000900C0F5F1F4F0A151B0591F7649684E0D6
:101D7000E81AF108C03DE2E0DE07E1F6DF91CF911D
:101D80001F910F91FF90EF90DF90CF90BF90AF9099
:101D90000895EF92FF920F931F93CF93DF9398E2F2
:101DA000899F7001112496E2899F80011124005BB4
:101DB0001D4FC0E0D0E0CE018E0D9F1D0E94E62B8E
:101DC000F801EC0FFD1F80832196C632D10599F7EB
:101DD000DF91CF911F910F91FF90EF900895CF93D6
:101DE000C0E08C2F0E94C90ECF5FC031D1F7CF91D8
:101DF0000895AF92BF92CF92DF92EF92FF920F932E
:101E00001F93CF93DF931DEFC12E14E0D12E0DEB66
:101E1000E02E04E0F02EC0E0D0E0CE0180589D4FCF
:101E20000E94E62BF60181936F018E015E01F0E1C5
:101E3000AF0EB11CC8018F579D4F0E94E62BF701D2
:101E4000E00FF11F80830F5F1F4F0A151B0591F7ED
:101E5000649684E0E81AF108C035D105F1F6DF9107
:101E6000CF911F910F91FF90EF90DF90CF90BF9097
:101E7000AF9008950E94FE0D0E940E0E0E947C0EEF
:101E80000E942B0E0E94860E0E94DE0284EE92E0DB
:101E90000C94FA02663248F496E2899FF00111240C
:101EA000E60FF11DE05BFD4F408390910305891320
:101EB00002C00C94BA0C0895262F64E10E94692B8D
:101EC000E82FF0E0911103C0E350FB4F0AC084E01B
:101ED000EE0FFF1F8A95E1F7E354FB4FE90FF11D69
:101EE000319720830895962F803110F40C944A0F77
:101EF000803121F4642F892F0C945C0F8131A1F47F
:101F00002BEA629F212D11242695822F880F820FA4
:101F1000981B30E0F901EE0FFF1FE20FF31FE90FEE
:101F2000F11DEB54FE4F40830895803110F40C9462
:101F3000C90E803111F40C94F90E813131F08336E1
:101F400041F40E94EF0E0E94F90E84EE92E00C9490
:101F500027030895803118F40E94560E11C0803175
:101F600019F40E94860E0CC0813131F0833641F4A1
:101F70000E947C0E0E94860E84EE92E00E94FA027D
:101F800024E040E860E880E80E947E0D24E040E024
:101F900060E080E80E947E0D24E040E860E880E890
:101FA0000C947E0D811105C08091030590E00F9681
:101FB00006C0813049F48091030590E001968F704E
:101FC00099278093030504C0823021F460930305B0
:101FD0000C94BA0C8A3009F034C061110AC088E14F
:101FE0000FB6F89480936000109260000FBE82EDEF
:101FF00017C0613051F488E10FB6F8948093600007
:10200000109260000FBE84ED0BC0623061F488E175
:102010000FB6F89480936000109260000FBE83EDBD
:1020200080935305089528E088E190E00FB6F89476
:10203000A895809360000FBE209360001092530516
:102040000895843121F4609357054093560508950F
:10205000CF92DF92EF92FF9280914905811107C0E4
:10206000C12CD12C78EAE72E71E4F72E06C0C12CE2
:10207000D12C60E8E62E64E4F62E60914305709161
:102080004405882777FD8095982F0E94CC29A701C9
:1020900096010E94362960933B0570933C0580931E
:1020A0003D0590933E05609141057091420588275A
:1020B00077FD8095982F0E94CC29A70196010E9458
:1020C00036296093370570933805809339059093CE
:1020D0003A0560913F0570914005882777FD80950E
:1020E000982F0E94CC29A70196010E94362960935F
:1020F0003305709334058093350590933605FF9032
:10210000EF90DF90CF9008954F925F926F927F9201
:102110008F929F92AF92BF92CF92DF92EF92FF92F7
:102120000F931F93CF93DF9380902F0590903005EE
:10213000A0903105B09032055090050540900405FF
:10214000E3E4CE2EE1E0DE2EC6E0D5E006E115E0C8
:10215000F3E0EF2EF1E0FF2E77247394612CF6016B
:1021600021913191419151916F01C501B4010E94BA
:10217000A12A18165CF0F701208131814281538138
:10218000C501B4010E94322987FF0DC0F8011082F9
:102190002881822F90E0883C91051CF481E0820F19
:1021A00001C088EC8883F80180818F5F81938F0163
:1021B000851508F018828991481608F4672C7394E5
:1021C000F4E0EF0EF11C81E17812C9CF6092260590
:1021D000DF91CF911F910F91FF90EF90DF90CF9003
:1021E000BF90AF909F908F907F906F905F904F9037
:1021F00008950E94762460935D0570935E05809338
:102200005F05909360050895CF93DF93D82FC62F75
:10221000682F8EE296E00E949A266C2F8EE296E05E
:102220000E949A26C63278F486E2D89FF0011124E3
:10223000EC0FF11DE05BFD4F60818EE296E0DF91D7
:10224000CF910C949A2660E070E08EE296E0DF91E8
:10225000CF910C94AC0CCF93DF93D82FC0E06C2FB0
:102260008D2F0E940411CF5FC632C9F7DF91CF9145
:1022700008951F93CF93DF93D82F64E10E94692BB9
:10228000182FC92F60E170E08EE296E00E94AC0C3E
:102290006D2F8EE296E00E949A26E12FF0E0C111A8
:1022A00003C0E350FB4F0AC0A4E0EE0FFF1FAA9546
:1022B000E1F7E354FB4FEC0FF11D319760818EE2A3
:1022C00096E0DF91CF911F910C949A26CF93DF93E4
:1022D000D0E0C0E08C2F8D0F0E943911CF5FC1314B
:1022E000C9F7DC5ED035A9F7DF91CF910895CF9380
:1022F000C82F61E170E08EE296E00E94AC0C6C2F7A
:102300008EE296E00E949A268C2F63E00E94692B51
:10231000292F8BEAC89F812D1124869590E0FC011E
:10232000EE0FFF1FE80FF91FE20FF11DEB54FE4FF8
:1023300060818EE296E0CF910C949A26803110F461
:102340000C940411803119F4862F0C9439118131C9
:1023500019F4862F0C9477110895CF93C0E08C2F39
:102360000E947711CF5FC039D1F7CF910895CF93F5
:10237000DF93C82F68EC70E08EE296E00E94AC0C10
:102380006C2F8EE296E00E949A26609103058EE201
:1023900096E00E949A26C03120F48C2F0E942B11C7
:1023A00016C0C03119F40E94661111C0C13119F470
:1023B0000E94AD110CC0C33651F40E94AD11D0E0A3
:1023C0008D2F0E942B11DF5FD031D1F7ECCF69EC5C
:1023D00070E08EE296E00E94AC0C6C2F8EE296E0EC
:1023E0000E949A26609103058EE296E0DF91CF91DC
:1023F0000C949A260F931F93CF93DF931F92CDB720
:10240000DEB78EE296E00E941C260497D4F18EE29D
:1024100096E00E943526082F8EE296E00E9435262F
:10242000182F8EE296E00E943526682F8EE296E005
:1024300069830E943526482F6981043421F4812F55
:102440000E94B711DECF0C3421F4812F0E94950F2A
:10245000D8CF033521F4812F0E94AA0FD2CF0235A5
:1024600021F4812F0E949E11CCCF073521F4812FBA
:102470000E94730FC6CF083521F6812F0E94D20F1C
:10248000C0CF0F90DF91CF911F910F910895CF93FF
:10249000DF93D82FC62F6091480581E695E00E9412
:1024A00071216D2F81E695E00E9418216C2F81E645
:1024B00095E00E94182181E695E0DF91CF910C9480
:1024C00090218091490560E081110AC087E00E9457
:1024D000471261E088E00E94471261E087E00DC08A
:1024E0008AE20E94471260E08EE00E94471268E193
:1024F0008BE20E94471261E28AE20C9447128091BB
:10250000490560E0811102C087E001C08AE20C94B5
:10251000471240E060E080E00E94430D0E947F127D
:1025200061E08FEF93E00E94900C60E081E10E94F7
:10253000BD2560E07AEF80E090E00C9499248091D2
:102540005405811103C00E94E10CDEC08A3031F5D0
:1025500080915205811106C080EC80935C05109239
:102560005B0519C0813031F410925C0510925B0557
:1025700080ECC1C0823031F480E880935C05109219
:102580005B05B9C010925C05833011F480E838C057
:1025900080EC80935B0510925A05B6C09CEE980FB4
:1025A0009A30C8F4E0914E02F0914F0280915505A7
:1025B0009091BC0420E1929FE00DF11D1124E80FE1
:1025C000F11D2AE535E04BE555E06CE575E08681C7
:1025D0000E94540399C08E3109F4B5CF883209F4B2
:1025E000B2CF9EEC980F9A3008F047C0E0914E02AF
:1025F000F0914F028081811106C080E680935C05D6
:1026000080935B0578C0813031F480E380935C0572
:1026100010925B0515C0823041F410925C05109257
:102620005B0580E380935A050DC0833021F488E276
:1026300080935C0503C010925C0580E380935B058A
:1026400010925A05818190915C05082E01C0990F66
:102650000A94EAF790935C0590915B05082E01C0FF
:10266000990F0A94EAF790935B0590915A0501C07F
:10267000990F8A95EAF7892F3EC08C3309F463CF0E
:10268000863409F460CF8E3641F480E880935C058F
:1026900010925A0510925B0537C09EE2980F923057
:1026A00008F451CF843D51F58091570590E0209179
:1026B0005605FC01EE0FFF1FE80FF91FEB54FE4F0C
:1026C000808190E0022E02C0959587950A94E2F7EA
:1026D00080935C05818190E0022E02C095958795DC
:1026E0000A94E2F780935B05828190E002C09595A1
:1026F00087952A95E2F780935A0506C010925A05ED
:1027000010925B0510925C0580915905882361F158
:1027100080915805882341F120914A0530914B055D
:1027200040914C0550914D0560914E0570914F05BB
:10273000809150059091510520343E474105510547
:10274000610571058105910549F040F065EA71E088
:102750008EE296E00E9458280E94891210925A0533
:1027600010925B0510925C050895CF93C82F90914D
:102770005405923309F492C408F04FC09D3009F417
:10278000AAC210F5943009F483C168F4913009F4B9
:10279000CEC008F4AFC0923009F4FDC0933009F404
:1027A00037C10C94181C9A3009F4F9C128F49530FB
:1027B00009F4B3C10C94181C9B3009F40DC29C3071
:1027C00009F438C20C94181C9F3109F481C388F4B1
:1027D000953109F4BCC228F4943109F49BC20C94DD
:1027E000181C963109F4EEC29E3109F454C30C94BE
:1027F000181C983209F4F9C340F4903209F497C3D5
:10280000913209F4D2C30C94181C993209F40AC409
:102810009A3209F43DC40C94181C943609F496C6F7
:1028200028F59E3309F42AC568F4943309F483C467
:1028300008F451C49C3309F4D5C49D3309F4EFC4A2
:102840000C94181C973409F4DCC540F49F3309F448
:1028500058C5963409F493C50C94181C983409F49F
:1028600006C6993409F452C60C94181C9F3609F414
:1028700065C760F4963609F406C708F4C6C69736ED
:1028800009F4C1C09E3609F43CC7D2C7993C09F48B
:10289000A7C758F5983709F4C6C7983C09F0C8C7C8
:1028A00021E040E860E880E80E947E0D21E040E001
:1028B00060E080E80E947E0D21E040E860E880E86A
:1028C0000E947E0D21E040E060E880E00E947E0DE5
:1028D00021E040E860E880E80E947E0D80910305D9
:1028E0000E94560E10925305A5C7925D933008F4CE
:1028F000A1C79EC7882309F49DC720914A0530913E
:102900004B0540914C0550914D0560914E057091DD
:102910004F058091500590915105A3E60E94DA2B56
:1029200009F008F487C781E08093530583C780913D
:102930005905882351F0C1117DC780915805892719
:10294000809358051092530575C720914A05309120
:102950004B0540914C0550914D0560914E0570918D
:102960004F058091500590915105273E3340410518
:102970005105610571058105910529F020F082E07E
:102980008093530557C7C11155C781E00E94DA0DE6
:10299000109253054FC720914A0530914B05409145
:1029A0004C0550914D0560914E0570914F058091F9
:1029B000500590915105A0E00E94DA2B31F425E0FA
:1029C00040E860E880E80E947E0D20914A05309141
:1029D0004B0540914C0550914D0560914E0570910D
:1029E0004F0580915005909151052F3C374041058E
:1029F0005105610571058105910529F020F083E0FD
:102A00008093530517C7C11115C70E94891212C7B9
:102A100020914A0530914B0540914C0550914D0550
:102A200060914E0570914F05809150059091510530
:102A3000A0E00E94DA2B31F425E040E060E880E875
:102A40000E947E0D20914A0530914B0540914C0526
:102A500050914D0560914E0570914F058091500544
:102A6000909151052F3C3740410551056105710595
:102A70008105910529F020F084E080935305DAC6A2
:102A8000C111D8C6109252058AE080935305D2C670
:102A900020914A0530914B0540914C0550914D05D0
:102AA00060914E0570914F058091500590915105B0
:102AB000A0E00E94DA2B31F425E040E860E080E0FD
:102AC0000E947E0D20914A0530914B0540914C05A6
:102AD00050914D0560914E0570914F0580915005C4
:102AE000909151052F3C3740410551056105710515
:102AF0008105910529F020F085E0809353059AC661
:102B0000C11198C68091590591E089278093590594
:102B100010925805109253058DC620914A053091A8
:102B20004B0540914C0550914D0560914E057091BB
:102B30004F058091500590915105A0E00E94DA2B3D
:102B400031F425E040E060E080E80E947E0D2091B5
:102B50004A0530914B0540914C0550914D056091CF
:102B60004E0570914F058091500590915105203D83
:102B7000374041055105610571058105910529F031
:102B800020F082E08093530555C6C11153C661E021
:102B90008EEF93E00E94900C0E9489124BC688230E
:102BA00009F448C620914A0530914B0540914C05E7
:102BB00050914D0560914E0570914F0580915005E3
:102BC00090915105A4E60E94DA2B09F008F432C670
:102BD0008BE0809353052EC620914A0530914B051A
:102BE00040914C0550914D0560914E0570914F05F7
:102BF00080915005909151052F3C3740410551057A
:102C0000610571058105910529F020F08CE0809324
:102C1000530510C6C1110EC68091520590E0019671
:102C200065E070E00E94892B809352058AE08093D2
:102C3000530500C620914A0530914B0540914C0543
:102C400050914D0560914E0570914F058091500552
:102C500090915105A0E00E94DA2B31F425E040E08C
:102C600060E880E80E947E0D20914A0530914B0576
:102C700040914C0550914D0560914E0570914F0566
:102C800080915005909151052F3C374041055105E9
:102C9000610571058105910529F020F08DE0809393
:102CA0005305C8C5C111C6C580915205823030F4A4
:102CB0008093BC0484E180935305BCC5843038F410
:102CC00081708093BC0488E280935305B3C582E38E
:102CD00080935305AFC520914A0530914B05409133
:102CE0004C0550914D0560914E0570914F058091B6
:102CF000500590915105A0E00E94DA2B31F425E0B7
:102D000040E860E880E80E947E0DC11193C51092F2
:102D1000530590C5882309F48DC520914A0530914B
:102D20004B0540914C0550914D0560914E057091B9
:102D30004F058091500590915105A4E60E94DA2B31
:102D400009F008F477C585E18093530573C5209198
:102D50004A0530914B0540914C0550914D056091CD
:102D60004E0570914F058091500590915105203D81
:102D7000374041055105610571058105910529F02F
:102D800020F086E18093530555C5C11153C5E091EC
:102D90004E02F0914F029091BC048091550520E1C4
:102DA000929FE00DF11D1124E80FF11D868190E046
:102DB000019660E370E00E94892B868384E1809312
:102DC000530538C520914A0530914B0540914C057B
:102DD00050914D0560914E0570914F0580915005C1
:102DE00090915105A0E00E94DA2B31F425E040E8F3
:102DF00060E880E80E947E0D20914A0530914B05E5
:102E000040914C0550914D0560914E0570914F05D4
:102E10008091500590915105203D37404105510565
:102E2000610571058105910521F118F1E0914E02CE
:102E3000F0914F029091BC048091550520E1929F42
:102E4000E00DF11D1124E80FF11D8681805C868361
:102E500010924A0510924B0510924C0510924D05A8
:102E600010924E0510924F05109250051092510588
:102E7000E1C4C111DFC4E0914E02F0914F02809194
:102E8000BC04E80FF11D809155058F5F84838EE1AE
:102E900080935305CFC4882309F4CCC420914A05FC
:102EA00030914B0540914C0550914D0560914E0578
:102EB00070914F058091500590915105A4E60E94B4
:102EC000DA2B09F008F4B6C48FE180935305B2C43D
:102ED00020914A0530914B0540914C0550914D058C
:102EE00060914E0570914F0580915005909151056C
:102EF000203D37404105510561057105810591056A
:102F000029F020F080E28093530594C4C11192C44B
:102F1000809155058F5F80935505803120F088ECB6
:102F20008093530587C484E18093530583C4209123
:102F30004A0530914B0540914C0550914D056091EB
:102F40004E0570914F058091500590915105A0E07C
:102F50000E94DA2B31F425E040E060E080E80E9436
:102F60007E0D20914A0530914B0540914C055091C2
:102F70004D0560914E0570914F05809150059091DF
:102F80005105203D37404105510561057105810519
:102F9000910529F020F081E2809353054BC4C111C3
:102FA00049C484E18093530545C420914A0530917A
:102FB0004B0540914C0550914D0560914E05709127
:102FC0004F058091500590915105A0E00E94DA2BA9
:102FD00031F425E040E860E880E80E947E0DC111F0
:102FE00029C488EC8093530525C4882309F422C49E
:102FF00020914A0530914B0540914C0550914D056B
:1030000060914E0570914F0580915005909151054A
:10301000A4E60E94DA2B09F008F40CC489E280933C
:10302000530508C420914A0530914B0540914C0549
:1030300050914D0560914E0570914F05809150055E
:1030400090915105203D37404105510561057105BD
:103050008105910529F020F08AE280935305EAC3A7
:10306000C111E8C3E0914E02F0914F028091BC047F
:10307000E80FF11D828190E001966EE370E00E94FE
:10308000892B82830E94BA0C88E280935305D2C3B5
:103090008111D0C388EC80935305CCC3882309F4F5
:1030A000C9C320914A0530914B0540914C05509180
:1030B0004D0560914E0570914F058091500590919E
:1030C0005105A4E60E94DA2B09F008F4B3C383E3A8
:1030D00080935305AFC320914A0530914B05409131
:1030E0004C0550914D0560914E0570914F058091B2
:1030F000500590915105203D37404105510561052E
:1031000071058105910529F020F084E38093530532
:1031100091C3C1118FC3E0914E02F0914F028081A3
:1031200090E0019665E070E00E94892B808382E345
:10313000809353057FC320914A0530914B05409100
:103140004C0550914D0560914E0570914F05809151
:10315000500590915105A0E00E94DA2B31F425E052
:1031600040E860E880E80E947E0D20914A05309199
:103170004B0540914C0550914D0560914E05709165
:103180004F058091500590915105203D37404105F4
:1031900051056105710581059105F1F0E8F0E091B7
:1031A0004E02F0914F02818190E0019663E070E061
:1031B0000E94892B818310924A0510924B05109230
:1031C0004C0510924D0510924E0510924F0510922D
:1031D0005005109251052EC3C1112CC388EC809369
:1031E000530528C3882309F425C320914A0530914B
:1031F0004B0540914C0550914D0560914E057091E5
:103200004F058091500590915105A4E60E94DA2B5C
:1032100009F008F40FC38DE3809353050BC320918D
:103220004A0530914B0540914C0550914D056091F8
:103230004E0570914F058091500590915105203DAC
:10324000374041055105610571058105910529F05A
:1032500020F08EE380935305EDC2C111EBC2809143
:10326000020590E00196837099278093020580E023
:103270000E94DA0D8CE380935305DCC220914A054D
:1032800030914B0540914C0550914D0560914E0594
:1032900070914F058091500590915105A0E00E94DA
:1032A000DA2B31F425E040E860E080E00E947E0DFA
:1032B00020914A0530914B0540914C0550914D05A8
:1032C00060914E0570914F05809150059091510588
:1032D000203D374041055105610571058105910586
:1032E00029F020F08FE380935305A4C2C111A2C23C
:1032F00025E040E860E880E80E947E0D10925305CA
:1033000099C220914A0530914B0540914C0550914E
:103310004D0560914E0570914F058091500590913B
:103320005105A0E00E94DA2B31F425E040E060E88E
:1033300080E80E947E0D20914A0530914B05409116
:103340004C0550914D0560914E0570914F0580914F
:10335000500590915105203D3740410551056105CB
:1033600071058105910529F020F08EE380935305C6
:1033700061C2C1115FC286E4809353055BC2209194
:103380004A0530914B0540914C0550914D05609197
:103390004E0570914F058091500590915105A0E028
:1033A0000E94DA2B89F480910105E091020520E169
:1033B000E29FF0011124E80FF11DE354FB4F8081DF
:1033C000809303050E94BA0CCC2309F433C22091E8
:1033D0004A0530914B0540914C0550914D05609147
:1033E0004E0570914F058091500590915105A4E6CE
:1033F0000E94DA2B09F008F41DC287E4809353057C
:1034000019C220914A0530914B0540914C055091CD
:103410004D0560914E0570914F058091500590913A
:103420005105203D37404105510561057105810574
:10343000910529F020F088E480935305FBC1C11168
:10344000F9C1E09102058091010520E1E29FF001C0
:103450001124E80FF11DE354FB4F808190E00196A9
:103460008F709927808386E480935305E3C1209170
:103470004A0530914B0540914C0550914D056091A6
:103480004E0570914F058091500590915105A0E037
:103490000E94DA2B31F425E040E860E080E80E94E9
:1034A0007E0D20914A0530914B0540914C0550917D
:1034B0004D0560914E0570914F058091500590919A
:1034C0005105203D374041055105610571058105D4
:1034D000910529F020F089E480935305ABC1C11117
:1034E000A9C1809101058F5F80930105E0910205DC
:1034F000F0E0E350FB4F8083803120F089EC809333
:10350000530598C186E48093530594C120914A05E0
:1035100030914B0540914C0550914D0560914E0501
:1035200070914F058091500590915105A0E00E9447
:10353000DA2B31F425E040E860E880E80E947E0D57
:10354000C11178C189EC8093530574C18EEF93E06B
:103550000E94E62B20914A0530914B0540914C0585
:1035600050914D0560914E0570914F05E0915005C9
:10357000909151058823A9F18E2F203737414105BD
:103580005105610571058105910531F425E040E0A3
:1035900060E880E00E947E0DC1114CC120914A0577
:1035A00030914B0540914C0550914D0560914E0571
:1035B00070914F058091500590915105203737410A
:1035C00041055105610571058105910509F008F472
:1035D0001CCA60E08EEF93E00E94900C109253059D
:1035E00029C18E2F2F3C37404105510561057105DA
:1035F0008105910529F020F085E6809353051AC1D5
:10360000C11118C11092530515C120914A0530917E
:103610004B0540914C0550914D0560914E057091C0
:103620004F058091500590915105A0E00E94DA2B42
:1036300031F425E040E860E080E00E947E0D2091BA
:103640004A0530914B0540914C0550914D056091D4
:103650004E0570914F05809150059091510520378E
:10366000374141055105610571058105910529F035
:1036700020F086E680935305DDC0C111DBC08CE3EA
:1036800080935305D7C020914A0530914B05409156
:103690004C0550914D0560914E0570914F058091FC
:1036A000500590915105A0E00E94DA2B31F425E0FD
:1036B00040E060E080E80E947E0D20914A05309154
:1036C0004B0540914C0550914D0560914E05709110
:1036D0004F058091500590915105203737414105A4
:1036E0005105610571058105910529F020F087E6F6
:1036F000809353059FC0C1119DC08EE680935305F2
:1037000099C0882309F496C020914A0530914B0551
:1037100040914C0550914D0560914E0570914F05BB
:103720008091500590915105A4E60E94DA2B09F092
:1037300008F480C08FE6809353057CC020914A0531
:1037400030914B0540914C0550914D0560914E05CF
:1037500070914F0580915005909151052F3637415A
:1037600041055105610571058105910509F008F4D0
:103770004AC921E040E060E080E80E947E0D21E03F
:1037800040E860E080E00E947E0D21E040E060E0E3
:1037900080E80E947E0D21E040E860E080E00E9429
:1037A0007E0D21E040E060E080E80E947E0D88E12F
:1037B0000FB6F89480936000109260000FBE0E94D4
:1037C0003A0F28E088E190E00FB6F894A89580932E
:1037D00060000FBE2093600088E7809353052AC0E5
:1037E00021E040E860E880E80E947E0D21E040E0B2
:1037F00060E080E80E947E0D21E040E860E880E81B
:103800000E947E0D21E040E860E080E00E947E0D95
:1038100021E040E860E880E80E947E0D0E94860E6C
:103820001092530507C0811105C01092530502C0C4
:10383000109253058091530590915405981799F073
:103840008093540510924A0510924B0510924C0536
:1038500010924D0510924E0510924F051092500592
:103860001092510523C020914A0530914B0540919B
:103870004C0550914D0560914E0570914F0580911A
:10388000500590915105A1E00E94CE2B20934A054E
:1038900030934B0540934C0550934D0560934E0576
:1038A00070934F058093500590935105CF910895E3
:1038B0006091480581E695E00E947121809149055B
:1038C000811163C060E070E081E695E00E94B30C76
:1038D00060E081E695E00E947D216091480570E0FE
:1038E00043E050E081E695E00E946E2181E695E09C
:1038F0000E94C020892B41F081E695E00E94C820FB
:10390000909344058093430580914305909144052D
:103910008032910514F0805491099093440580936E
:10392000430581E695E00E94C020892B41F081E6A5
:1039300095E00E94C82090934205809341058091B4
:103940004105909142058032910514F0805491090F
:10395000909342058093410581E695E00E94C02046
:10396000892B41F081E695E00E94C82090934005A4
:1039700080933F0580913F059091400580329105ED
:103980000CF4BEC080549109BBC061E070E081E6D8
:1039900095E00E94B30C60E081E695E00E947D21F5
:1039A0006091480570E046E050E081E695E00E94B5
:1039B0006E2181E695E00E94C020892B69F081E6A6
:1039C00095E00E94C820F4E0880F991FFA95E1F76E
:1039D000909344058093430581E695E00E94C020C2
:1039E000892B99F081E695E00E94C820E4E0959546
:1039F0008795EA95E1F72091430530914405282BFE
:103A0000392B3093440520934305809143059091D1
:103A10004405811528E092070CF0905190934405DD
:103A20008093430581E695E00E94C020892B69F0D0
:103A300081E695E00E94C82074E0880F991F7A956E
:103A4000E1F7909342058093410581E695E00E945D
:103A5000C020892B99F081E695E00E94C82064E09F
:103A6000959587956A95E1F720914105309142053A
:103A7000282B392B30934205209341058091410535
:103A800090914205811528E092070CF09051909397
:103A900042058093410581E695E00E94C020892B74
:103AA00069F081E695E00E94C82054E0880F991FD4
:103AB0005A95E1F79093400580933F0581E695E0A4
:103AC0000E94C020892B99F081E695E00E94C820D1
:103AD00044E0959587954A95E1F720913F0530910F
:103AE0004005282B392B3093400520933F058091CA
:103AF0003F0590914005811528E092070CF0905108
:103B00009093400580933F0508954F925F926F9286
:103B10007F928F929F92AF92BF92CF92DF92EF925D
:103B2000FF920F931F93CF93DF9380914505609190
:103B300047050E94692B892F90E08A30910508F093
:103B4000EAC1FC01EE58FF4F0C94BF2B0E94581C99
:103B5000E2C10E942810DFC160913B0570913C05D5
:103B600080913D0590913E058090370590903805F5
:103B7000A0903905B0903A05C0903305D090340537
:103B8000E0903505F09036059B01AC010E94AC2A0F
:103B90002B013C01A5019401C501B4010E94AC2A8E
:103BA0009B01AC01C301B2010E946C284B015C0176
:103BB000A7019601C701B6010E94AC2A9B01AC0186
:103BC000C501B4010E946C280E94132B60932F053D
:103BD0007093300580933105909332059CC10E940B
:103BE000841099C16091370570913805809139052D
:103BF00090913A05C0903305D0903405E09035059A
:103C0000F09036059B01AC010E94AC2A4B015C018F
:103C1000A7019601C701B6010E94AC2A9B01AC0125
:103C2000C501B4010E946C280E94132B15C020917D
:103C30002B0530912C0540912D0550912E0580913A
:103C40003B0590913C05A0913D05B0913E05BC011E
:103C5000CD0190580E94DF2860932B0570932C05AE
:103C600080932D0590932E0556C120E030E044E36B
:103C700053E460912B0570912C0580912D05909156
:103C80002E050E94AC2A2BED3FE049E450E40E944F
:103C90003629E2CF20913305309134054091350526
:103CA000509136058091370590913805A0913905DE
:103CB000B0913A05BC01CD0190580E94DF2814C094
:103CC00020E030E044E353E460912705709128053B
:103CD0008091290590912A050E94AC2A2BED3FE0A6
:103CE00049E450E40E943629609327057093280523
:103CF0008093290590932A050EC100914E021091E0
:103D00004F02D8018C91882309F405C1B090BC04FE
:103D1000813009F041C011969C91911113C0B110EE
:103D200006C090912605903110F08093BC048091DC
:103D3000BC04813009F0EFC0809126058B3008F07B
:103D4000EAC027C0913099F4B11006C080912605D1
:103D5000893010F09093BC048091BC04813009F04C
:103D6000DAC080912605843008F0D5C012C0B110A9
:103D700006C090912605953010F08093BC04809188
:103D8000BC04813009F0C7C080912605833008F05B
:103D9000C2C01092BC04BFC0C091BA04D091BB0491
:103DA000B11046C090912605933008F09EC0823035
:103DB00069F420E030E046E952EC60912B05709107
:103DC0002C0580912D0590912E057EC08330B9F48D
:103DD000C0902705D0902805E0902905F0902A058D
:103DE00020E030E040EA52ECC701B6010E943229DF
:103DF00087FF6EC020E030E048EC52EC16C0C09067
:103E00003305D0903405E0903505F090360526E670
:103E100036E646E65FEBC701B6010E94322987FF0E
:103E200057C02DEC3CEC4CE85FEBC701B60116C067
:103E3000B1E0BB125AC090912605933008F055C0EE
:103E4000823089F420E030E046E952E460912B05AD
:103E500070912C0580912D0590912E050E94A12A2C
:103E60001816DCF135C08330B9F4C0902705D09026
:103E70002805E0902905F0902A0520E030E040EA8E
:103E800052E4C701B6010E94A12A18160CF520E0E1
:103E900030E048EC52E416C0C0903305D0903405B1
:103EA000E0903505F090360526E636E646E65FE317
:103EB000C701B6010E94A12A181654F42DEC3CEC5F
:103EC0004CE85FE3C701B6010E94322987FD05C0B7
:103ED000882799278C1B9D0B02C081E090E0C80FBA
:103EE000D91FD093BB04C093BA04D8011196EC91AA
:103EF000F0E0E050FF4F808190E02091BA043091D3
:103F0000BB04821793073CF481E0B11080E08093FA
:103F1000BC04F8011182809145058F5F80934505AF
:103F200090914605891710F010924505DF91CF91C9
:103F30001F910F91FF90EF90DF90CF90BF90AF90C7
:103F40009F908F907F906F905F904F90089582E048
:103F50000E94F32521E0892B09F020E0822F0E94A6
:103F6000B5130E94FA11809154059FEF980F913D6F
:103F700010F48C3311F40E94851D0E949F12409111
:103F80005A0560915B0580915C050C94430D6DE1D1
:103F900070E081E695E00E947B216DE070E081E6B3
:103FA00095E00E94B30C60E081E695E00E947D21DF
:103FB00041E050E06DE170E081E695E00E946E2105
:103FC00081E695E00E94C020892BB9F081E695E05A
:103FD0000E94C8208F7E8A3481F481E08093490555
:103FE0008DE18093480584E18093470580934605E1
:103FF0008AE08093050585E00FC0109249058CE4A6
:104000008093480580E2809347058DE780934605BD
:1040100088E08093050584E080930405089581E697
:1040200095E00E945721109253051092540560E0CC
:1040300082E00E94842542E050E06FE87CE080E06E
:104040000E94A2238FEF93E00E94E62B8823A1F029
:1040500060E08FEF93E00E94900C20E030E040E0C1
:1040600050E06AE070E084EB91E00E94870284E611
:10407000809353058093540580E00E94C2238CEF07
:1040800093E00E94E62B8A3241F00E943A0F6AE2E6
:104090008CEF93E00E94900C08C00E94EF0E0E94EB
:1040A000F90E84EE92E00E94270326E040E051EEF4
:1040B00060E070E08EE296E00E94FF268DEF93E0D4
:1040C0000E94E62B8093020561E089E00E9484252E
:1040D00061E086E00E94842561E085E00E948425FD
:1040E00061E081E10E94842561E081E10E94BD25BB
:1040F0000E94C71F0E946112F89410927A0085B541
:10410000887F816085BD80918100887F81608093F8
:10411000810080918100886080938100789468E2BA
:1041200070E080E090E00E94992480E00E94DA0D27
:1041300064E670E08EE296E00E94AC0C60910305AC
:104140008EE296E00E949A2660E070E08EE296E0B1
:104150000E94AC0C0E94762460935D0570935E050E
:1041600080935F059093600528E088E190E00FB6AA
:10417000F894A895809360000FBE20936000089586
:104180008091910590E020919205821B91090895FC
:104190002091920580919105281750F4E22FF0E0CC
:1041A000ED56FA4F808190E02F5F2093920508959D
:1041B0008FEF9FEF0895E091920580919105E817A8
:1041C00030F4F0E0ED56FA4F808190E008958FEFE3
:1041D0009FEF08950895CF92DF92EF92FF920F9391
:1041E0001F93CF93DF937C01CB018A0120916D0552
:1041F000222389F0EB016B01C40ED51ECC15DD0521
:1042000069F06991D701ED91FC910190F081E02D69
:10421000C7010995F3CF642F0E944C22C801DF919A
:10422000CF911F910F91FF90EF90DF90CF90089565
:10423000CF93DF931F92CDB7DEB7698320916D05D1
:104240002223D1F020916E05203240F021E030E0B1
:10425000FC013383228380E090E015C080916F05DC
:10426000E82FF0E0E059FA4F998190838F5F8093B7
:104270006F0580936E0505C061E0CE0101960E9436
:104280004C2281E090E00F90DF91CF910895FC01E6
:104290001382128248EE53E060E070E0448355835D
:1042A0006683778387E891E09183808308951092F5
:1042B00092051092910510926F0510926E050C9464
:1042C0009721862F413208F040E263E975E00E94B1
:1042D000B5211092920580939105089521E00C94E8
:1042E000612181E080936D056093900510926F05C8
:1042F00010926E0508950C9471210F93062F21E002
:1043000040916E0560E775E0809190050E94F9216B
:1043100010926F0510926E0510926D050F91089521
:1043200061E00C947D2181E695E00C944721109288
:10433000200681E080931E0610921D0661E082E156
:104340000E94BD2561E083E10E94BD25E9EBF0E01C
:1043500080818E7F808380818D7F80838CE08093BD
:10436000B80085E48093BC000895413208F03FC056
:10437000909120069111FCCF91E09093200620931C
:104380001E062FEF2093B3051092F805240F2093FB
:10439000F70590931F0690911F06880F892B809335
:1043A0001F0680911D06813041F410921D068091F8
:1043B0001F068093BB0085EC01C085EE8093BC0096
:1043C000809120068130E1F38091F805841710F484
:1043D0004091F80529EF35E0FB01D9018A2F821BB6
:1043E000841718F48D918193F9CF842F089580E07C
:1043F00008950F93413208F046C090912006911124
:10440000FCCF92E09093200600931E069FEF9093BE
:10441000B3051092F8054093F705FB0169EF75E0CD
:10442000DB019A2F961B941718F491919D93F9CF65
:1044300010921F0690911F06880F892B80931F06EC
:1044400080911D06813041F410921D0680911F0657
:104450008093BB0085EC01C085EE8093BC002223D5
:1044600021F0809120068230E1F38091B3058F3FE7
:1044700061F08091B305803251F08091B3058033B3
:1044800041F483E007C081E005C080E003C082E022
:1044900001C084E00F910895613298F420912006C4
:1044A000243089F46093D505FC0187ED95E0DC01AB
:1044B0002A2F281B261718F421912D93F9CF80E07D
:1044C000089581E0089582E0089585ED8093BC0011
:1044D0008091BC0084FDFCCF10922006089585ECED
:1044E0008093BC001092200608951F920F920FB681
:1044F0000F9211242F933F934F935F936F937F936A
:104500008F939F93AF93BF93EF93FF938091B900E5
:10451000887F803609F49CC068F5883209F45BC056
:1045200090F4803109F454C038F4882309F4F5C0BC
:10453000883009F44DC0F5C0883109F44CC0803290
:1045400009F45DC0EEC0803409F468C048F48033DB
:1045500009F455C0883309F0E4C08093B305A8C0BE
:10456000803509F44FC0883509F45DC0883409F0FE
:10457000D8C0D5C0883909F4C6C0A8F4883709F472
:1045800067C038F4883609F463C0803709F460C026
:10459000C8C0883809F4B7C0803909F45FC08038D2
:1045A00009F0BFC05BC0803B09F485C038F4803A95
:1045B00009F466C0883A09F47EC0B3C0803C09F4AF
:1045C000A6C0883C09F4A3C0883B09F489C0A9C0EF
:1045D00080911F0610C09091F8058091F7059817FB
:1045E00070F5E091F80581E08E0F8093F805F0E01A
:1045F000E750FA4F80818093BB0085EC85C08093A3
:10460000B3058DC0E091F80581E08E0F8093F80529
:104610008091BB00F0E0E750FA4F80839091F8055D
:104620008091F7056DC0E091F80581E08E0F8093D1
:10463000F8058091BB00F0E0E750FA4F808380914D
:104640001E0681116CC081E080931D0684EA60C063
:1046500083E0809320061092B405CFCF8091B405FB
:10466000803208F050C0E091B40581E08E0F809355
:10467000B4058091BB00F0E0EB54FA4F8083BDCFCE
:104680008091B405803230F4E091B405F0E0EB5451
:10469000FA4F10820E9465226091B40570E0E091AB
:1046A0001906F0911A0685EB95E009951092B4056C
:1046B0000E946F2236C084E0809320061092D605B7
:1046C0001092D505E0911B06F0911C06099580918A
:1046D000D505811105C081E08093D5051092D705DD
:1046E000E091D60581E08E0F8093D605F0E0E95287
:1046F000FA4F80818093BB009091D6058091D505BB
:10470000981708F47ACF85E88093BC000AC085EC3E
:104710008093BC001092200604C01092B3050E9442
:104720006522FF91EF91BF91AF919F918F917F9102
:104730006F915F914F913F912F910F900FBE0F900E
:104740001F9018958230E8F4E82FF0E0EE0FFF1F7D
:10475000EF5DF94F71836083813041F08091690092
:104760008C7F842B80936900E89A0895809169007A
:10477000440F551F440F551F837F842B809369007E
:10478000E99A0895823068F4813011F0E89801C008
:10479000E998E82FF0E0EE0FFF1FEF5DF94F11826F
:1047A000108208951F920F920FB60F9211242F932B
:1047B0003F934F935F936F937F938F939F93AF93A9
:1047C000BF93EF93FF938091210690912206892B4E
:1047D00029F0E0912106F09122060995FF91EF91D1
:1047E000BF91AF919F918F917F916F915F914F9109
:1047F0003F912F910F900FBE0F901F9018951F9211
:104800000F920FB60F9211242F933F934F935F9304
:104810006F937F938F939F93AF93BF93EF93FF9388
:104820008091230690912406892B29F0E09123069C
:10483000F09124060995FF91EF91BF91AF919F915F
:104840008F917F916F915F914F913F912F910F9039
:104850000FBE0F901F9018951F920F920FB60F92D8
:1048600011242F933F938F939F93AF93BF93809186
:10487000260690912706A0912806B091290630912E
:10488000250623E0230F2D3720F40196A11DB11D2D
:1048900005C026E8230F0296A11DB11D2093250611
:1048A0008093260690932706A0932806B0932906A6
:1048B00080912A0690912B06A0912C06B0912D068E
:1048C0000196A11DB11D80932A0690932B06A093FB
:1048D0002C06B0932D06BF91AF919F918F913F9180
:1048E0002F910F900FBE0F901F9018953FB7F8941F
:1048F00080912A0690912B06A0912C06B0912D064E
:1049000026B5A89B05C02F3F19F00196A11DB11D2A
:104910003FBF6627782F892F9A2F620F711D811D47
:10492000911D42E0660F771F881F991F4A95D1F7A6
:104930000895CF92DF92EF92FF92CF93DF936B01B6
:104940007C010E947624EB01C114D104E104F1043E
:1049500089F00E946A280E9476246C1B7D0B683EB9
:10496000734090F381E0C81AD108E108F108C851FA
:10497000DC4FEACFDF91CF91FF90EF90DF90CF90A7
:104980000895789484B5826084BD84B5816084BDC7
:1049900085B5826085BD85B5816085BDEEE6F0E0B8
:1049A000808181608083E1E8F0E010828081826014
:1049B0008083808181608083E0E8F0E08081816095
:1049C0008083E1EBF0E0808184608083E0EBF0E0C5
:1049D000808181608083EAE7F0E080818460808369
:1049E0008081826080838081816080838081806813
:1049F00080831092C10008951F93CF93DF93182FE7
:104A0000EB0161E00E948425209711F460E004C06E
:104A1000CF3FD10539F461E0812FDF91CF911F9114
:104A20000C94BD25E12FF0E0E65AFB4FE491E33012
:104A3000F9F048F4E130B9F0E230A1F584B58062D4
:104A400084BDC8BD34C0E730E9F0E83019F1E43086
:104A500049F580918000806280938000D0938B0024
:104A6000C0938A0024C084B5806884BDC7BD1FC0C0
:104A700080918000806880938000D0938900C093EB
:104A8000880015C08091B00080688093B000C0930A
:104A9000B3000DC08091B00080628093B000C093DD
:104AA000B40005C0C038D1050CF0B5CFAFCFDF9151
:104AB000CF911F910895833081F028F4813099F0CF
:104AC0008230A1F008958730A9F08830B9F08430A1
:104AD000D1F4809180008F7D03C0809180008F771A
:104AE00080938000089584B58F7702C084B58F7D50
:104AF00084BD08958091B0008F7703C08091B0008D
:104B00008F7D8093B0000895CF93DF9390E0FC01F8
:104B1000E259FB4F2491FC01EE57FB4F849188230F
:104B200049F190E0880F991FFC01E655FB4FA591D4
:104B3000B49180569B4FFC01C591D4919FB76111F0
:104B400008C0F8948C91209582238C9388818223CD
:104B50000AC0623051F4F8948C91322F309583233F
:104B60008C938881822B888304C0F8948C91822B4B
:104B70008C939FBFDF91CF9108950F931F93CF9395
:104B8000DF931F92CDB7DEB7282F30E0F901E65A48
:104B9000FB4F8491F901E259FB4F1491F901EE5753
:104BA000FB4F04910023C9F0882321F069830E9400
:104BB0005B256981E02FF0E0EE0FFF1FE056FB4F11
:104BC000A591B4919FB7F8948C91611103C0109591
:104BD000812301C0812B8C939FBF0F90DF91CF91D8
:104BE0001F910F910895CF93DF93282F30E0F901A3
:104BF000E65AFB4F8491F901E259FB4FD491F90138
:104C0000EE57FB4FC491CC2391F081110E945B259C
:104C1000EC2FF0E0EE0FFF1FEA56FB4FA591B49189
:104C20002C912D2381E090E021F480E002C080E00F
:104C300090E0DF91CF910895FC01818D228D90E06D
:104C4000805C9F4F821B91098F7399270895FC0107
:104C5000918D828D981731F0828DE80FF11D858D31
:104C600090E008958FEF9FEF0895FC01918D828D64
:104C7000981761F0828DDF01A80FB11D5D968C91B0
:104C8000928D9F5F9F73928F90E008958FEF9FEFBB
:104C9000089589EB97E2892B49F080E090E0892B19
:104CA00029F00E94B92781110C9400000895FC019D
:104CB000848DDF01A80FB11DA35ABF4F2C91848DA5
:104CC00090E001968F739927848FA689B7892C93DA
:104CD000A089B1898C9180648C93938D848D981375
:104CE00006C00288F389E02D80818F7D808308953E
:104CF000CF93DF93EC01888D8823C9F0EA89FB8983
:104D0000808185FD05C0A889B9898C9186FD0FC079
:104D10000FB607FCF5CF808185FFF2CFA889B9894E
:104D20008C9185FFEDCFCE010E945726E7CFDF9112
:104D3000CF910895CF92DF92FF920F931F93CF935D
:104D4000DF931F92CDB7DEB76C0181E0D601589694
:104D50008C9358975B969C915B975C968C915C9733
:104D6000981307C05096ED91FC915197808185FD75
:104D70002EC0F601038D10E00F5F1F4F0F73112738
:104D8000F02EF601848DF81211C00FB607FCF9CF92
:104D9000D6015096ED91FC915197808185FFF1CF1E
:104DA000C60169830E9457266981EBCF838DE80F86
:104DB000F11DE35AFF4F6083D6015B960C935B971E
:104DC0005296ED91FC915397808180620CC0D60180
:104DD0005696ED91FC91579760835096ED91FC911A
:104DE000519780818064808381E090E00F90DF9113
:104DF000CF911F910F91FF90DF90CF900895BF92B8
:104E0000CF92DF92EF92FF92CF93DF93EC016A0192
:104E10007B01B22EE889F98982E08083411581EE19
:104E2000580761057105A1F060E079E08DE390E03D
:104E3000A70196010E949D2B21503109410951097A
:104E40005695479537952795211580E1380798F0B5
:104E5000E889F989108260E874E88EE190E0A701A2
:104E600096010E949D2B2150310941095109569507
:104E7000479537952795EC85FD853083EE85FF8531
:104E80002083188EEC89FD89B082EA89FB898081B4
:104E900080618083EA89FB89808188608083EA89D8
:104EA000FB89808180688083EA89FB8980818F7D8E
:104EB0008083DF91CF91FF90EF90DF90CF90BF90F4
:104EC00008951F920F920FB60F9211242F938F9374
:104ED0009F93EF93FF93E0913E06F0913F06808110
:104EE000E0914406F091450682FD12C090818091C8
:104EF00047068F5F8F7320914806821751F0E0912B
:104F00004706F0E0E25DF94F958F8093470601C0B8
:104F10008081FF91EF919F918F912F910F900FBE04
:104F20000F901F9018951F920F920FB60F92112499
:104F30002F933F934F935F936F937F938F939F93A1
:104F4000AF93BF93EF93FF938EE296E00E945726B4
:104F5000FF91EF91BF91AF919F918F917F916F9151
:104F60005F914F913F912F910F900FBE0F901F9027
:104F700018958EE296E00E941C2621E0892B09F408
:104F800020E0822F0895109231061092300688EEAC
:104F900093E0A0E0B0E08093320690933306A093B4
:104FA0003406B093350687E991E090932F068093FD
:104FB0002E0685EC90E090933B0680933A0684ECB5
:104FC00090E090933D0680933C0680EC90E09093B7
:104FD0003F0680933E0681EC90E0909341068093DB
:104FE000400682EC90E0909343068093420686EC64
:104FF00090E09093450680934406109247061092E5
:1050000048061092490610924A06089508950E9493
:10501000C1240E9406280E940F20C9E4D6E20E9403
:10502000A71F2097E1F30E944926F9CFCF92DF9284
:10503000EF92FF920F931F93CF93DF936C017A014E
:10504000EB01E60EF71E00E010E0CE15DF0561F083
:105050006991D601ED91FC910190F081E02DC6019E
:105060000995080F191FF1CFC801DF91CF911F914A
:105070000F91FF90EF90DF90CF900895611571052B
:1050800081F0DB010D900020E9F7AD01415051099D
:10509000461B570BDC01ED91FC910280F381E02D62
:1050A000099480E090E0089563EA71E00C943E2852
:1050B0000F931F93CF93DF93EC010E943E288C0146
:1050C000CE010E945428800F911FDF91CF911F9134
:1050D0000F91089508955058BB27AA270ED0F7C105
:1050E000E8D130F0EDD120F031F49F3F11F41EF4FF
:1050F000B8C10EF4E095E7FBAEC1E92FF9D180F31A
:10510000BA17620773078407950718F071F49EF5C4
:1051100011C20EF4E0950B2EBA2FA02D0B01B90190
:1051200090010C01CA01A0011124FF27591B99F01D
:10513000593F50F4503E68F11A16F040A22F232F29
:10514000342F4427585FF3CF469537952795A79579
:10515000F0405395C9F77EF41F16BA0B620B730B20
:10516000840BBAF09150A1F0FF0FBB1F661F771F91
:10517000881FC2F70EC0BA0F621F731F841F48F446
:10518000879577956795B795F7959E3F08F0B3CFCC
:105190009395880F08F09927EE0F979587950895B6
:1051A00088D158F080E891E009F49EEF89D128F089
:1051B00040E851E059F45EEF09C053C1BBC1E92F8B
:1051C000E07896D168F3092E052AC1F32617370730
:1051D0004807590738F00E2E07F8E02569F0E0255A
:1051E000E0640AC0EF6307F8009407FADB01B90135
:1051F0009D01DC01CA01AD01EF9347D068D10AD00F
:105200005F91552331F02BED3FE049E450FD49EC2F
:1052100063CF0895DF93DD27B92FBF7740E85FE3C1
:105220001616170648075B0710F4D92F8ED19F93E7
:105230008F937F936F9335D2E8EFF0E015D147D18C
:105240002F913F914F915F9193D1DD2349F0905879
:10525000A2EA2AED3FE049EC5FE3D0785D274DDF1D
:10526000DF9135C1D4D008F481E008950CD02FC16E
:1052700027D140F01ED130F021F45F3F19F0EBC090
:10528000511159C1EEC034D198F39923C9F3552374
:10529000B1F3951B550BBB27AA2762177307840729
:1052A00038F09F5F5F4F220F331F441FAA1FA9F3DF
:1052B00033D00E2E3AF0E0E830D091505040E695D1
:1052C000001CCAF729D0FE2F27D0660F771F881F32
:1052D000BB1F261737074807AB07B0E809F0BB0B21
:1052E000802DBF01FF2793585F4F2AF09E3F510545
:1052F00068F0B1C020C15F3FECF3983EDCF38695C7
:1053000077956795B795F7959F5FC9F7880F911DBA
:105310009695879597F90895E1E0660F771F881FA6
:10532000BB1F621773078407BA0720F0621B730B59
:10533000840BBA0BEE1F88F7E0950895E1D088F052
:105340009F5790F0B92F9927B751A0F0D1F0660F71
:10535000771F881F991F1AF0BA95C9F712C0B1308C
:1053600081F0E8D0B1E00895E5C0672F782F882755
:10537000B85F39F0B93FCCF3869577956795B395CB
:10538000D9F73EF490958095709561957F4F8F4F3A
:105390009F4F0895E89409C097FB3EF4909580953F
:1053A000709561957F4F8F4F9F4F9923A9F0F92FEB
:1053B00096E9BB279395F695879577956795B79569
:1053C000F111F8CFFAF4BB0F11F460FF1BC06F5F4F
:1053D0007F4F8F4F9F4F16C0882311F096E911C061
:1053E000772321F09EE8872F762F05C0662371F082
:1053F00096E8862F70E060E02AF09A95660F771F96
:10540000881FDAF7880F9695879597F90895990F71
:105410000008550FAA0BE0E8FEEF16161706E8077E
:10542000F907C0F012161306E407F50798F0621B9F
:10543000730B840B950B39F40A2661F0232B242B74
:10544000252B21F408950A2609F4A140A6958FEF93
:10545000811D811D089597F99F6780E870E060E0E5
:1054600008959FEF80EC0895DF93CF931F930F93E0
:10547000FF92EF92DF927B018C01689405C0DA2ED7
:10548000EF0176D0FE01E894A591259135914591E3
:105490005591AEF3EF0131DEFE019701A801DA94D8
:1054A00079F7DF90EF90FF900F911F91CF91DF91EF
:1054B000089500240A94161617061806090608957A
:1054C00000240A9412161306140605060895092EE0
:1054D0000394000C11F4882352F0BB0F40F4BF2B4F
:1054E00011F460FF04C06F5F7F4F8F4F9F4F08958F
:1054F00057FD9058440F551F59F05F3F71F0479585
:10550000880F97FB991F61F09F3F79F08795089569
:10551000121613061406551FF2CF4695F1DF08C088
:10552000161617061806991FF1CF869571056105A5
:1055300008940895E894BB2766277727CB0197F94D
:10554000089565DF08F48FEF08959B01AC0160E0DA
:1055500070E080E89FE38ACE0BD0B9CFAADF28F0B5
:10556000AFDF18F0952309F076CF7BCF1124E3CF7E
:10557000BFDFA0F3959FD1F3950F50E0551F629FB9
:10558000F001729FBB27F00DB11D639FAA27F00D9C
:10559000B11DAA1F649F6627B00DA11D661F829FC3
:1055A0002227B00DA11D621F739FB00DA11D621FA8
:1055B000839FA00D611D221F749F3327A00D611DC5
:1055C000231F849F600D211D822F762F6A2F1124A7
:1055D0009F5750408AF0E1F088234AF0EE0FFF1FFA
:1055E000BB1F661F771F881F91505040A9F79E3F31
:1055F000510570F030CF9FCF5F3FECF3983EDCF366
:10560000869577956795B795F795E7959F5FC1F76D
:10561000FE2B880F911D9695879597F9089511F4A3
:105620000EF41FCF41C06CDFD0F39923D9F3CEF332
:105630009F57550B87FF46D00024A0E640EA900113
:1056400080585695979528F4805C660F771F881FC1
:1056500020F026173707480730F4621B730B840BC2
:10566000202931294A2BA695179407942025312506
:105670004A2758F7660F771F881F20F0261737072D
:10568000480730F4620B730B840B200D311D411D54
:10569000A09581F7B901842F9158880F9695879529
:1056A00008959B01AC0158CF9F3F31F0915020F4F9
:1056B000879577956795B795880F911D96958795EE
:1056C00097F9089591505040660F771F881FD2F7C1
:1056D0000895991B79E004C0991F961708F0961B4E
:1056E000881F7A95C9F780950895AA1BBB1B51E1C5
:1056F00007C0AA1FBB1FA617B70710F0A61BB70B42
:10570000881F991F5A95A9F780959095BC01CD01E6
:10571000089597FB072E16F4009407D077FD09D063
:105720000E94752B07FC05D03EF4909581959F4F04
:105730000895709561957F4F0895A1E21A2EAA1BD6
:10574000BB1BFD010DC0AA1FBB1FEE1FFF1FA21731
:10575000B307E407F50720F0A21BB30BE40BF50B2E
:10576000661F771F881F991F1A9469F760957095B7
:10577000809590959B01AC01BD01CF010895EE0F7E
:10578000FF1F0590F491E02D09942A0D3B1D4C1D3F
:105790005D1D6E1D7F1D801F911F08950024A7FDB4
:1057A00000942A0F301D401D501D601D701D801D6E
:1057B000901D08950024A7FD00942A173005400588
:1057C000500560057005800590050895F999FECF94
:1057D00092BD81BDF89A992780B50895262FF99931
:1057E000FECF1FBA92BD81BD20BD0FB6F894FA9AC4
:0C57F000F99A0FBE01960895F894FFCFBF
:1057FC000C0603EC51583F713D4A3FF6283C3F7B69
:10580C00142E3F0000203F85EB113F0AD7033F1FAA
:10581C0085EB3E295CCF3E3333B33E3D0A973E8F3A
:10582C00C2753EA4703D3EB81E053E9A99993D0A3C
:10583C00D7A33CCDCC8C3FC3F5983FB81EA53FAE4B
:10584C0047B13FA470BD3F9A99C93F8FC2D53F85E0
:10585C00EBE13F7B14EE3F713DFA3F33330340AE37
:10586C00470940295C0F40A47015401F851B409AC6
:10587C00992140000000001821EB20C020C820DB3B
:10588C0020EA20000000009A2616281C2635262720
:10589C002678260D0A006E616E00696E66006F76C2
:0458AC0066002E0064
:00000001FF
