:100000000C945D020C94CA230C94F7230C94850283
:100010000C9485020C9485020C94CA020C948502FF
:100020000C9485020C9485020C9485020C94850234
:100030000C9485020C9485020C9485020C94850224
:100040000C9424240C9485020C9459270C948B272F
:100050000C9485020C9485020C9485020C94850204
:100060000C946D220C948502020A0B0A180A1D0AD0
:10007000270A2C0A360A3E0A480A500A5A0A5E0A19
:10008000620A6F0A770A820A870A920A9C0AA60AFB
:10009000B30AC10AC60AD30AE20AF10AFF0A120B1E
:1000A0001D0B290B340B410B4F0B580B620B710BC3
:1000B000890B8C0B970B9A0BA50BA80BB40BC20BDF
:1000C000C70BCC0BD50BDF0BEB0BF90BFC0B010CAF
:1000D000050C090C0D0C110C150C200C380C2E0CF9
:1000E000460C540C9E1DA11DA41DE71DEA1D0F1EEC
:1000F0002D1E421E581E751E084AD73B3BCE016E70
:1001000084BCBFFDC12F3D6C74319ABD56833DDA6E
:100110003D00C77F11BED9E4BB4C3E916BAAAABE7D
:10012000000000803F000000003840481800001028
:100130001000001800001010000018100010FF0040
:1001400000E02000C04000A0600080800060A000AF
:1001500040C00020E00000FF0000E02000C04000A0
:10016000A0600080800060A00040C00020E000008F
:10017000FF2000E04000C06000A0800080A0006080
:10018000C00040E00020404040A0101010A010101F
:1001900010A0800830503030803008505008308037
:1001A00008305030088030085050083080303050CF
:1001B00030088050085000010203040506070809B2
:1001C0000A0B0C0D0E0F04050607000000000000CE
:1001D00000000000000008090A0B000000000000F9
:1001E0000000000000000C0D0E0F000000000000D9
:1001F0000000000000001004040401020D0E0606B9
:100200002426282A2C2E00000000000000000000F8
:100210002426282A2C2E00000000000000000000E8
:100220000101093B07030187868584838200000062
:1002300000000000000048505800000000000000CE
:10024000000000000000010006150202CE1A0000A6
:10025000000000000000000000000000CE1A0000B6
:100260000000000000000000000000000100131466
:100270000707012426282A2C2E0000000000000079
:100280000000012426282A2C2E0000000000000077
:100290000000000027020F01080A0C0810181A1CA1
:1002A00018081012141018000000000000000000D0
:1002B000000000000000000000000F02090101C85A
:1002C000C801D0D001D8D800000000000000000014
:1002D000000000000000000000000000000000001E
:1002E0001E02040118141612000000000000000095
:1002F00000000000000000000000000000000000FE
:100300000000000000001D0203011E1A150000007D
:1003100000000000000000000000000000000000DD
:100320000000000000000000000000003702030190
:100330002122230000000000000000000000000057
:1003400000000000000000000000000000000000AD
:100350000000300203011F1C190000000000000013
:10036000000000000000000000000000000000008D
:10037000000000000000000018020D01C1080A0C76
:100380000E10121416181A1C1E00000000000000A7
:1003900000000000000000000000000000001A0241
:1003A0000701012426282A2C2E000000000000004E
:1003B000000000000000000000000000000000003D
:1003C000000000000F0206011FD4D414DFDF00007C
:1003D000000000000000000000000000000000001D
:1003E000000000000000000000000F02060126ECE3
:1003F000EC2CE6E600000000000000000000000019
:1004000000000000000000000000000000000000EC
:100410002302030121242500000000000000000049
:1004200000000000000000000000000000000000CC
:100430000000000000001B02060128002B002E0017
:1004400000000000000000000000000000000000AC
:100450000000000000000000000000000008000292
:10046000010000030407000000000000000001027A
:100470000408102040800102040810200102040832
:100480001020040404040404040402020202020210
:1004900003030303030300000000230026002900D8
:1004A00000000000250028002B00000000002400B0
:1004B00027002A00F9108B21BB2711241FBECFEF84
:1004C000D8E0DEBFCDBF11E0A0E0B1E0E4E9F7E5A0
:1004D00002C005900D92A43AB107D9F726E0A4EA2C
:1004E000B1E001C01D92AB3BB207E1F714E0CAEBEB
:1004F000D4E004C02297FE010E948D2BC43BD1079B
:10050000C9F70E94FF270C94C82B0C9400004115DA
:10051000510529F480917A008F7780937A006A30B0
:100520007105B1F063FF02C088E201C088E0677026
:10053000682B88E190E00FB6F894A895809360004E
:100540000FBE6093600080916000806480936000C3
:1005500083B7817F846083BF232B51F4F89483B7E2
:10056000816083BF85B7806685BF8F7D85BF04C0EE
:10057000F89483B7816083BF7894889583B78E7F22
:1005800083BF7894452B29F480917A00806880930A
:100590007A0008951F920F920FB60F9211248F9335
:1005A00088E10FB6F89480936000109260000FBE4F
:1005B0008F910F900FBE0F901F90189580E090E0E4
:1005C000FC01EA5DFE4FE491DC01AB55BE4FEC93BC
:1005D000FC01E95DFE4FE4911196EC931197FC014B
:1005E000E85DFE4FE4911296EC93039680399105F5
:1005F00039F70895EF92FF920F931F93CF93DF93F4
:10060000C7EAD1E08C01855A91407C01FE01329706
:100610006081C8010E94BA2BFE0131976081C80138
:1006200001960E94BA2B6881C7018C0F9D1F0E9402
:10063000BA2B0D5F1F4F239692E0C733D90731F7CE
:10064000DF91CF911F910F91FF90EF900895EF925E
:10065000FF920F931F93CF93DF93C7EAD1E08C01F2
:10066000855A91407C01C8010E94B22BFE0132974D
:100670008083C80101960E94B22BFE0131978083CE
:10068000C7018C0F9D1F0E94B22B88830D5F1F4FE7
:10069000239692E0C733D90731F7DF91CF911F91AD
:1006A0000F91FF90EF900895CF93DF93A82FB0E0C4
:1006B00096E0B595A7959A95E1F78F7390E0FC01C8
:1006C000EE0FFF1FE80FF91FEB55FE4F8081EB0186
:1006D00088838181EA0188838281F9018083EB012B
:1006E000888190E00A2E02C0959587950A94E2F7DA
:1006F0008883FA01808190E00A2E02C09595879543
:100700000A94E2F78083E901888190E002C0959520
:100710008795AA95E2F78883DF91CF9108952F926C
:100720003F924F925F926F927F928F929F92AF9281
:10073000BF92CF92DF92EF92FF920F931F93CF93CE
:10074000DF9300D01F92CDB7DEB71B01F22ED02E63
:10075000A9829B828A82042F10E0BC0180E090E095
:100760000E9496292B013C01B10180E090E00E949B
:1007700096299B01AC01C301B2010E9402292B0101
:100780003C01B801882777FD8095982F0E94982911
:100790004B015C016E2D70E0601B710B882777FDAB
:1007A0008095982F0E949829A30192010E94782A8F
:1007B0009B01AC01C501B4010E9438280E946A293E
:1007C000EA81FB8160830F2D10E0B801882777FD57
:1007D0008095982F0E9498294B015C016C2D70E048
:1007E000601B710B882777FD8095982F0E949829B0
:1007F000A30192010E94782A9B01AC01C501B401BA
:100800000E9438280E946A29E88DF98D60830D2D99
:1008100010E0B801882777FD8095982F0E949829CD
:100820006B017C01F9816F2F70E0601B710B8827D1
:1008300077FD8095982F0E949829A30192010E942C
:10084000782A9B01AC01C701B6010E9438280E949A
:100850006A29EA8DFB8D60830F900F900F90DF91D6
:10086000CF911F910F91FF90EF90DF90CF90BF90AD
:10087000AF909F908F907F906F905F904F903F9040
:100880002F9008953F924F925F926F927F928F9236
:100890009F92AF92BF92CF92DF92EF92FF920F930F
:1008A0001F93CF93DF9300D0CDB7DEB72B015A83D0
:1008B00049837E886F88388C882339F0B82E80E38E
:1008C0008B1528F480E3B82E02C0BB24B3947110BA
:1008D00001C07B2C611001C0672C811002C08824EC
:1008E0008394D12CA6014E0D511D749E7001759EEE
:1008F000F00C1124F701EA0DF11DA981BA818D9147
:100900009C9111978E179F07E0F01D921C92D801C1
:10091000ED91FC91119731961196FC93EE93912CE9
:10092000E815F90574F01D921C92F9018081761486
:1009300029F0860D6B2D0E94352B01C090E0D90166
:100940009C933320E9F1E981FA81808191818E15B0
:100950009F0530F4BA010E94412B8C159D0538F497
:1009600010923B0210923C0210923D0229C0D90124
:100970008C91860F8B1510F0761491F36B2D0E94DD
:10098000352BF201E90FF11D2BE332E04CE352E08D
:100990006DE372E080810F900F90DF91CF911F91F6
:1009A0000F91FF90EF90DF90CF90BF90AF909F900E
:1009B0008F907F906F905F904F903F900C94540376
:1009C0000F900F90DF91CF911F910F91FF90EF90BB
:1009D000DF90CF90BF90AF909F908F907F906F905F
:1009E0005F904F903F9008952F923F924F925F9269
:1009F0006F927F928F929F92AF92BF92CF92DF922F
:100A0000EF92FF920F931F93CF93DF93CDB7DEB793
:100A1000B82E8B013A014A2CAD89AE888F89388C6B
:100A2000298CA11003C0AA24AA94AB0C5A2C8823A9
:100A300019F08A1508F4582ED12CF12C6A2D70E08B
:100A4000912CA7014C0D5D1D469FC001479F900D45
:100A5000569F900D112431100BC08C199D09A401D3
:100A6000440D511DA49FF001A59FF00D112406C057
:100A70008C0D9D1DE42DF0E0A11103C0E80DF91DC2
:100A80000AC0A4014E0F5F1FA49FF001A59FF00DA7
:100A90001124E819F9098E0F9F1FD3014D915C9124
:100AA000119748175907B0F01D921C92D9018C91EB
:100AB000850D8C9390E06B2D70E061507109861765
:100AC000970744F0A51419F00E94552B01C080E04F
:100AD000D9018C93222009F475C0D3018D919C918A
:100AE0008E179F07F0F4512CB201680D791D0E94FA
:100AF000412B31100AC08815990550F410923B0221
:100B000010923C0210923D025DC084159505B0F72D
:100B10002BE332E04CE352E06DE372E0F8018081B8
:100B20003DC08E1B9F0BB7016C0D7D1D0E94412B9C
:100B300031101BC08E159F0508F76B1510F0A5141A
:100B4000E9F2CB0199276B2D70E0615071090E9489
:100B5000552B800F911F2BE332E04CE352E06DE305
:100B600072E0DC0111968C9119C08C159D0530F254
:100B70006B1510F0A51411F2CB0199276B2D70E0C5
:100B8000615071090E94552B800F911F2BE332E0B9
:100B90004CE352E06DE372E0FC018181DF91CF9183
:100BA0001F910F91FF90EF90DF90CF90BF90AF908B
:100BB0009F908F907F906F905F904F903F902F907D
:100BC0000C945403DF91CF911F910F91FF90EF9000
:100BD000DF90CF90BF90AF909F908F907F906F905D
:100BE0005F904F903F902F9008956F927F928F92D9
:100BF0009F92AF92BF92CF92DF92EF92FF920F93AC
:100C00001F93CF93DF93CDB7DEB7182F3B01DA01E7
:100C1000F90109899A88011101C0082FF12CB70147
:100C20006C0D711D802F90E00197689FA001699F56
:100C3000500D789F500D1124B12C9A01220F331FB3
:100C40002A0D3B1DC901880D911DCD90DC90119797
:100C5000C816D90648F011961C921E928081800F0A
:100C60008083811708F01082992009F446C08D9185
:100C70009C918417950750F40E94412B8E159F0577
:100C8000D8F480818150861B800F14C04A0D5B1DF3
:100C90008417950710F480810DC08217930760F4C4
:100CA000841B950B0E94412B8E159F0528F4808193
:100CB0008F5F860F811738F010923B0210923C0232
:100CC00010923D021AC0F301E80FF11D2BE332E050
:100CD0004CE352E06DE372E08081DF91CF911F9190
:100CE0000F91FF90EF90DF90CF90BF90AF909F90CB
:100CF0008F907F906F900C945403DF91CF911F9150
:100D00000F91FF90EF90DF90CF90BF90AF909F90AA
:100D10008F907F906F9008952F923F924F925F92A5
:100D20006F927F928F929F92AF92BF92CF92DF92FB
:100D3000EF92FF920F931F93CF93DF93CDB7DEB760
:100D4000982F2B013A01F801BE2C9A2C682D3D8872
:100D50002E887F89888D898C4E2D50E0EC2CF12CCB
:100D6000A081B181711145C08A0161110CC0682F49
:100D700070E06A1B7B0BE69E5001E79EB00CF69E6E
:100D8000B00C11240AC0613051F41196EA9E500152
:100D9000EB9EB00CFA9EB00C1124D82E20C0A82EC9
:100DA000B12CB50161507109D62EDD0CAA15BB0519
:100DB0004CF41196EA9E5001EB9EB00CFA9EB00CDA
:100DC00011240DC061E070E06A1B7B0B6D0D711D7D
:100DD000E69E5001E79EB00CF69EB00C1124211047
:100DE00003C04A0D5B1D4AC0C89E400D511D112411
:100DF00045C061110CC0682F70E06A1B7B0B469FD9
:100E00008001479F100D569F100D11240AC06130BC
:100E100051F411964A9F80014B9F100D5A9F100D5F
:100E20001124D82E20C0682F70E08B0101501109C9
:100E3000D02EDD0CA617B7074CF411964A9F8001FF
:100E40004B9F100D5A9F100D11240DC061E070E0F2
:100E50006A1B7B0B6D0D711D469F8001479F100D16
:100E6000569F100D1124211004C0A8014E0D5F1DC6
:100E700005C0A701B89E400D511D112481E08315C6
:100E800068F4D9018C91A82FB0E0692F70E061500F
:100E90007109A617B70711F4490D511DD3016D91C2
:100EA0007C9111976417750708F44CC01D921C9231
:100EB000311018C0408151814F5F5F4F5183408393
:100EC0006D2D70E064177507ECF5D9014C9150E079
:100ED0004F5F5F4F692F70E0CA010E94552BD90107
:100EE0008C932EC0B1E03B121AC0408151814F5FFC
:100EF0005F4F51834083D9014C9150E04F5F5F4F6A
:100F0000692F70E0CA010E94552BD9018C938D2D59
:100F100090E04081518184179507A4F411C0D90154
:100F20008C918F5F8C93891768F01C9280819181DE
:100F30000196918380834D2D50E04817590714F492
:100F400011821082882061F1F301808191818017E4
:100F5000910700F5D9018C91F201E80FF11D2BE307
:100F600032E04CE352E06DE372E08081DF91CF919B
:100F70001F910F91FF90EF90DF90CF90BF90AF90B7
:100F80009F908F907F906F905F904F903F902F90A9
:100F90000C94540310923B0210923C0210923D02BA
:100FA000DF91CF911F910F91FF90EF90DF90CF9045
:100FB000BF90AF909F908F907F906F905F904F9079
:100FC0003F902F9008952F923F924F925F926F9291
:100FD0007F928F929F92AF92BF92CF92DF92EF92C9
:100FE000FF920F931F93CF93DF93CDB7DEB7982E69
:100FF0001B012A0189015D898E894F89F12CD12C31
:1010000097012C0D3D1D829F3001839F700C112490
:10101000B12C682D70E0D2018D919C9111975111E6
:1010200021C0A60CB71C6A0D7B1D8617970758F0C8
:101030001D921C92F801808190E00196692D70E06C
:101040000E94552B8083442309F49DC1D2018D91C8
:101050009C918615970508F44EC08A159B0508F0EB
:1010600068C1CCC0513021F5F301EA0DFB1D6E0FB4
:101070007F1F8617970768F0D2011D921C92D80136
:101080008C9190E00196692D70E00E94552BD8015B
:101090008C93442309F477C1D2014D905C904A149B
:1010A0005B0408F4ABC04E165F0608F45EC041C195
:1010B000523009F082C0F301EE0FFF1FEA0DFB1D55
:1010C0006E0F7F1F8617970768F0D2011D921C9242
:1010D000D8018C9190E00196692D70E00E94552B0B
:1010E000D8018C93442309F44EC1D2018D919C9177
:1010F0008615970578F5B9010E94412B8E159F053D
:1011000008F017C1F8018081F101E80FF11D28E313
:1011100032E049E352E06AE372E080810E945403C6
:101120008BE392E09F938F938CE392E09F938F9356
:101130004DE3842E42E0942EA0903802C0903902F4
:10114000E0903A0200E020E040E0B301D2018D914E
:101150009C91E8C0A60CB71C8A159B0508F44EC0EC
:101160008E179F0708F0E5C02C014A185B08C201E2
:10117000B9010E94412B8C159D0508F4DAC0D801F5
:101180008C91F101E80FF11D28E332E049E352E0D0
:101190006AE372E080810E9454038BE392E09F93A4
:1011A0008F938CE392E09F938F933DE3832E32E005
:1011B000932EA12CC12CE12CADC0533009F050C0AE
:1011C000F301EA0DFB1D6E0F7F1F8617970768F06E
:1011D000D2011D921C92D8018C9190E00196692D4C
:1011E00070E00E94552BD8018C93442309F4CBC0A6
:1011F000D2014D905C904A145B0418F4F801808190
:10120000A4C04E165F0608F094C04A185B08C201DD
:10121000B9010E94412B8C159D0508F48AC0D801A4
:101220008C91F101E80FF11D28E332E049E352E02F
:101230006AE372E080810E945403F801808190E0AB
:101240000196692D70E00E94552B820D931D25E3B8
:1012500032E046E352E067E372E0DC018C9146C085
:10126000A60CB71C6A0D7B1D8617970768F0F20164
:1012700011821082D8018C9190E00196692D70E066
:101280000E94552BF8018083442309F47CC0D201CD
:101290004D905C904614570408F052C0C201B90149
:1012A0000E94412B8E159F0508F043C0F8018081F4
:1012B00090E00196692D70E00E94552B820D931DE0
:1012C00028E332E049E352E06AE372E0DC018C910A
:1012D0000E945403F8018081F101E80FF11D25E31C
:1012E00032E046E352E067E372E080810E945403FB
:1012F0008BE392E09F938F938CE392E09F938F9385
:101300002DE3822E22E0922EA0903502C09036026C
:10131000E0903702009138022091390240913A0260
:10132000B301C2010E948F030F900F900F900F9096
:101330002AC010923B0210923C0210923D0223C040
:101340004A145B04B0F7D8018C91F101E80FF11D4C
:101350002BE332E04CE352E06DE372E08081DF91F9
:10136000CF911F910F91FF90EF90DF90CF90BF90A2
:10137000AF909F908F907F906F905F904F903F9035
:101380002F900C945403DF91CF911F910F91FF90F8
:10139000EF90DF90CF90BF90AF909F908F907F9015
:1013A0006F905F904F903F902F9008952F923F92B3
:1013B0004F925F926F927F928F929F92AF92BF9265
:1013C000CF92DF92EF92FF920F931F93CF93DF9311
:1013D00000D0CDB7DEB7982F862FBA01390198011A
:1013E0008701260115019A8289824F89C92ED12C45
:1013F0009EE3C916D10408F06AC2F601EC5CFF4F07
:101400000C948B2B4F931F921F92812CA12CC12CDB
:10141000A9E1EA2E09C04F931F921F92812CA12CA3
:10142000E2E3CE2EF2E3EF2EA3010E9442044CC26F
:101430004F931F921F92812C4CC04F931F921F926B
:10144000812CA12C58E1C52EEE24E394EDCF4F93CF
:101450001F921F92812C52C04F931F921F92812C7A
:10146000A12C9EE1C92E44E1E42EDECF4F931F92C2
:101470001F92812CA12CBDE2CB2E19C04F931F923D
:101480001F92812CA12CA1E6CA2EF3E0EF2ECCCF27
:101490004F931F921F92812CA12CEEEBCE2E3FC0BA
:1014A0004F931F921F92812C5CE8A52EC12C45E022
:1014B000E42EBACF4F931F921F922DC04F931F92CD
:1014C0001F9234C04F9391E09F9392E09F9390E2DC
:1014D000892EA12CA0E1CA2EB9E0EB2EA5CF4F9307
:1014E00091E09F9393E09F93F0E18F2E98CF4F93DD
:1014F00091E09F9393E09F93E0E48E2EA12C56E120
:10150000C52EC3CF4F9393E09F939F93CCCF4F9320
:1015100093E09F939F93812C4CE8A42EC12C9AE0DA
:10152000E92E82CF4F9393E09F939F93812CACE859
:10153000AA2EBAE0CB2EBBCF4F931F9291E09F9380
:101540009F939F93812CF4E1AF2E0BC04F9391E0BA
:101550009F931F921F9295E09F9356E1852EE3E0A3
:10156000AE2EC12C59C04F9391E09F931F921F92B2
:101570009F93812CB2E3AB2E96E1C92E43E0E42E7B
:101580004DC04F931F9291E09F9305C04F931F92C0
:1015900091E09F9393E09F9395E09F93F6E18F2EC8
:1015A000A3E0AA2E37C04F9391E09F939F9343E00F
:1015B0004F939F934EE1842E5EE1A52EC12CEAE06D
:1015C000EE2E2CC04F931F9291E09F9393E09F9338
:1015D0001F92812CADE2AA2EBCE0CB2E98E0E92E22
:1015E0001DC04F931F9291E09F9393E09F931F9292
:1015F0005CE3852EE8E2AE2EFEE1CF2E0DC04F93C8
:101600001F9291E09F9392E09F931F929DE2892EFB
:101610004FE0A42EBDE2CB2EA5E0EA2EA3010E944E
:10162000F40471C04F9390E19F9391E09F939F9337
:1016300092E09F938824839409C04F9390E19F93F5
:1016400091E09F939F9392E09F93812CA12CC12CBA
:1016500045C04F9390E19F9391E09F939F9392E0B9
:101660009F93F2E08F2EF2CF4F9390E29F931F92C1
:101670001F9291E09F9352E0852EA12CE2E0CE2EA6
:101680003DC04F9398E09F9391E09F931F9292E00B
:101690009F9392E0892E40E5A42EC12C2FC04F933A
:1016A00090E29F9391E09F939F931F92812C13C090
:1016B0004F9390E29F9391E09F939F931F92882472
:1016C000839409C04F9390E29F9391E09F939F93DF
:1016D0001F92B2E08B2EA12CAEE1CA2EF3E0EF2ECA
:1016E0000FC04F9398E09F9391E09F931F9292E0D9
:1016F0009F9352E0852EA12CE4E1CE2E45E0E42E0E
:10170000A3010E948C060F900F900F900F900F90E6
:10171000DEC04F931F9203C04F9395E09F93A8E2C2
:101720008A2EB0E1AB2EC12C98E0E92E25C04F9354
:101730001F9203C04F9395E09F9355E5852EE8E0F7
:10174000AE2EC12CF3E0EF2E17C04F931F9203C0B3
:101750004F9395E09F93A8E28A2EB0E1AB2E95E0DF
:10176000C92E45E0E42E08C04F931F92812CE3E080
:10177000AE2EC12CF4E1EF2EA3010E94F5050F90CF
:101780000F90A5C04F9391E09F931F9209C04F9374
:1017900097E09F931F920EC04F9391E09F939F936A
:1017A000812CA12C54E6C52E13C04F9397E09F9334
:1017B00091E09F939BE4892E49E1A42E15C04F939D
:1017C00091E09F9392E09F93B6E98B2EA12CC12CC0
:1017D000A6E9EA2E76C04F9394E09F9392E09F9300
:1017E000E6E98E2EF2E3AF2E49E1C42E59E1E52E53
:1017F00068C04F9398E002C04F9391E09F9393E0AD
:1018000018C04F9393E09F931FC04F9393E09F9313
:1018100029C04F9393E09F932FC04F9393E09F93E2
:1018200039C04F9393E09F9343C04F9391E09F93B0
:1018300094E09F93812CA12CC12C9AEFE92E41C0FA
:101840004F9393E09F9394E09F93E6E18E2EF3E015
:10185000AF2EA6E1CA2EB3E0EB2E33C04F9393E038
:101860009F9394E09F934DE2842E55E0A52E25C0D2
:101870004F9393E09F9394E09F93F0E18F2EA9E024
:10188000AA2EB0E1CB2E99E0E92E1BC04F9393E036
:101890009F9394E09F9392E3892E42E3A42E52E318
:1018A000C52EE2E3EE2E0DC04F9393E09F9394E09C
:1018B0009F93ADE28A2EB2E3AB2EEDE2CE2EF5E0A1
:1018C000EF2EA3010E94E3070F900F900F90F301FA
:1018D0008081918101969183808380913D02F20104
:1018E000808380913C02F101808380913B02E981F9
:1018F000FA8180830F900F90DF91CF911F910F910C
:10190000FF90EF90DF90CF90BF90AF909F908F901F
:101910007F906F905F904F903F902F900895089523
:101920000F931F93CF93DF931F92CDB7DEB78C0138
:1019300069830E94B22B6981681741F0C8010F903A
:10194000DF91CF911F910F910C94BA2B0F90DF91E3
:10195000CF911F910F910895DC01ED91FC910190C1
:10196000F081E02D0994DC01ED91FC910190F08172
:10197000E02D09948091F30426E2829FC001112496
:10198000805C9D4F90933F0280933E021092AC0486
:101990001092AB041092AA041092A1041092A00419
:1019A0001092A4041092A7041092A6041092A3040B
:1019B0001092A2041092A5041092A9041092A804F7
:1019C00008958F929F92AF92BF92CF92DF92EF9243
:1019D000FF920F931F93E0913E02F0913F02AF01FF
:1019E0004A5F5F4F81E09091AC04911180E08F934A
:1019F0006AE4862E65E0962E7BE4A72E75E0B72E6E
:101A0000ACE4CA2EA5E0DA2EB0EAEB2EB4E0FB2E51
:101A100004EA14E026EA34E0648182810E94D60957
:101A2000E0913E02F0913F02AF014A5E5F4F81E0DC
:101A30009091AC04913009F080E08F938AE4882E75
:101A400085E0982E9BE4A92E95E0B92E2CE4C22EB9
:101A500025E0D22E32EAE32E34E0F32E05EA14E03C
:101A600028EA34E0658183810E94D6090F900F90A7
:101A70001F910F91FF90EF90DF90CF90BF90AF90AC
:101A80009F908F900895FF920F931F93CF93DF93B2
:101A9000D82FC62FF42E0E946E2400914D05109170
:101AA0004E0520914F0530915005601B710B820B44
:101AB000930B61157D478105910568F30E946E24A3
:101AC00060934D0570934E0580934F05909350059C
:101AD0006D2F70E089E00E94F4246C2F70E086E0A6
:101AE0000E94F4246F2D70E085E00E94F424A895F4
:101AF000DF91CF911F910F91FF900895AF92BF9208
:101B0000CF92DF92EF92FF920F931F93CF93DF93C9
:101B1000182F062FF42EE22EC0E0CE1589F0D0E06B
:101B2000D23320F44F2D602F812F03C040E060E0BE
:101B300080E00E94430DDF5FD43691F7CF5FEDCF99
:101B400084E6C89FF00111249F2F990F990B9F01E4
:101B5000492F592F692F792F892FA0903A05B090DE
:101B60003B05C0903C05D0903D05E0903E05F090CF
:101B70003F0500914005109141050E94912B209353
:101B80003A0530933B0540933C0550933D056093E7
:101B90003E0570933F058093400590934105DF918A
:101BA000CF911F910F91FF90EF90DF90CF90BF905A
:101BB000AF900895E091F204811103C01092F104F6
:101BC0000EC08091F10490E00196AE2FB0E0A351D9
:101BD000BB4F6C9170E00E94552B8093F104809173
:101BE000F10490E1E99FF0011124E80FF11DE355A4
:101BF000FB4F80818093F3040C94BA0CCF93DF9356
:101C0000C0E0D0E060E0CE010E94900C2196C115AA
:101C100084E0D807B9F7DF91CF91089580E090E094
:101C200020E030E0BC0166507E4FAC01405C5D4F6F
:101C3000FB01E20FF31FE491DA01A20FB31FEC9353
:101C40002F5F3F4F2632310599F78696803622E086
:101C5000920731F708951F93CF93DF9346EF51E03A
:101C6000ADEEB4E080E090E0FA0124912D9320E005
:101C700030E0EC01CA54DE4FBC0163557B4FFE01DE
:101C8000E20FF31F1491FB01E20FF31F10832F5F8C
:101C90003F4F2031310599F74F5F5F4F40968034B9
:101CA000910511F7DF91CF911F910895EF92FF9267
:101CB0000F931F93CF93DF9398E2899F70011124B4
:101CC00096E2899F80011124005C1D4FC0E0D0E0A6
:101CD000F801EC0FFD1F6081CE018E0D9F1D0E944B
:101CE000900C2196C632D10599F7DF91CF911F91C3
:101CF0000F91FF90EF900895CF93C0E08C2F0E943A
:101D0000560ECF5FC031D1F7CF910895AF92BF92F9
:101D1000CF92DF92EF92FF920F931F93CF93DF93B7
:101D2000CDEECC2EC4E0DC2EDDEAED2ED4E0FD2E8F
:101D3000C0E8D2E0F60161916F01CE010E94900CE3
:101D40005E01F0E7AF1AF2E0BF0A8E0100581240C0
:101D5000F701E00FF11F6081C8018F579D4F0E946E
:101D6000900C0F5F1F4F0A151B0591F7649684E0D6
:101D7000E81AF108C03DE2E0DE07E1F6DF91CF911D
:101D80001F910F91FF90EF90DF90CF90BF90AF9099
:101D90000895EF92FF920F931F93CF93DF9398E2F2
:101DA000899F7001112496E2899F80011124005CB3
:101DB0001D4FC0E0D0E0CE018E0D9F1D0E94B22BC2
:101DC000F801EC0FFD1F80832196C632D10599F7EB
:101DD000DF91CF911F910F91FF90EF900895CF93D6
:101DE000C0E08C2F0E94C90ECF5FC031D1F7CF91D8
:101DF0000895AF92BF92CF92DF92EF92FF920F932E
:101E00001F93CF93DF931DEEC12E14E0D12E0DEA68
:101E1000E02E04E0F02EC0E0D0E0CE0180589D4FCF
:101E20000E94B22BF60181936F018E015E01F0E1F9
:101E3000AF0EB11CC8018F579D4F0E94B22BF70106
:101E4000E00FF11F80830F5F1F4F0A151B0591F7ED
:101E5000649684E0E81AF108C035D105F1F6DF9107
:101E6000CF911F910F91FF90EF90DF90CF90BF9097
:101E7000AF9008950E94FE0D0E940E0E0E947C0EEF
:101E80000E942B0E0E94860E0E94DE0284EE92E0DB
:101E90000C94FA02663248F496E2899FF00111240C
:101EA000E60FF11DE05CFD4F40839091F304891330
:101EB00002C00C94BA0C0895262F64E10E94352BC1
:101EC000E82FF0E0911103C0E351FB4F0AC084E01A
:101ED000EE0FFF1F8A95E1F7E355FB4FE90FF11D68
:101EE000319720830895962F803110F40C944A0F77
:101EF000803121F4642F892F0C945C0F8131A1F47F
:101F00002BEA629F212D11242695822F880F820FA4
:101F1000981B30E0F901EE0FFF1FE20FF31FE90FEE
:101F2000F11DEB55FE4F40830895803110F40C9461
:101F3000C90E803111F40C94F90E813131F08336E1
:101F400041F40E94EF0E0E94F90E84EE92E00C9490
:101F500027030895803118F40E94560E11C0803175
:101F600019F40E94860E0CC0813131F0833641F4A1
:101F70000E947C0E0E94860E84EE92E00E94FA027D
:101F800024E040E860E880E80E947E0D24E040E024
:101F900060E080E80E947E0D24E040E860E880E890
:101FA0000C947E0D811105C08091F30490E00F9692
:101FB00006C0813049F48091F30490E001968F705F
:101FC00099278093F30404C0823021F46093F304D2
:101FD0000C94BA0C8A3009F034C061110AC088E14F
:101FE0000FB6F89480936000109260000FBE82EDEF
:101FF00017C0613051F488E10FB6F8948093600007
:10200000109260000FBE84ED0BC0623061F488E175
:102010000FB6F89480936000109260000FBE83EDBD
:1020200080934305089528E088E190E00FB6F89486
:10203000A895809360000FBE209360001092430526
:102040000895843121F4609347054093460508952F
:10205000CF92DF92EF92FF9280913905811107C0F4
:10206000C12CD12C78EAE72E71E4F72E06C0C12CE2
:10207000D12C60E8E62E64E4F62E60913305709171
:102080003405882777FD8095982F0E949829A7010D
:1020900096010E94022960932B0570932C05809372
:1020A0002D0590932E05609131057091320588279A
:1020B00077FD8095982F0E949829A70196010E948C
:1020C0000229609327057093280580932905909332
:1020D0002A0560912F0570913005882777FD80953E
:1020E000982F0E949829A70196010E9402296093C7
:1020F0002305709324058093250590932605FF9072
:10210000EF90DF90CF9008954F925F926F927F9201
:102110008F929F92AF92BF92CF92DF92EF92FF92F7
:102120000F931F93CF93DF9380901F05909020050E
:10213000A0902105B09022055090F5044090F40441
:10214000E3E4CE2EE1E0DE2EC6EFD4E006E015E0BB
:10215000F3E0EF2EF1E0FF2E77247394612CF6016B
:1021600021913191419151916F01C501B4010E94BA
:102170006D2A18165CF0F70120813181428153816C
:10218000C501B4010E94FE2887FF0DC0F80110822E
:102190002881822F90E0883C91051CF481E0820F19
:1021A00001C088EC8883F80180818F5F81938F0163
:1021B000851508F018828991481608F4672C7394E5
:1021C000F4E0EF0EF11C81E17812C9CF60921605A0
:1021D000DF91CF911F910F91FF90EF90DF90CF9003
:1021E000BF90AF909F908F907F906F905F904F9037
:1021F00008950E946E2460934D0570934E05809360
:102200004F05909350050895CF93DF93D82FC62F95
:10221000682F8EE196E00E9492266C2F8EE196E068
:102220000E949226C63278F486E2D89FF0011124EB
:10223000EC0FF11DE05CFD4F60818EE196E0DF91D7
:10224000CF910C94922660E070E08EE196E0DF91F1
:10225000CF910C94AC0CCF93DF93D82FC0E06C2FB0
:102260008D2F0E940411CF5FC632C9F7DF91CF9145
:1022700008951F93CF93DF93D82F64E10E94352BED
:10228000182FC92F60E170E08EE196E00E94AC0C3F
:102290006D2F8EE196E00E949226E12FF0E0C111B1
:1022A00003C0E351FB4F0AC0A4E0EE0FFF1FAA9545
:1022B000E1F7E355FB4FEC0FF11D319760818EE1A3
:1022C00096E0DF91CF911F910C949226CF93DF93EC
:1022D000D0E0C0E08C2F8D0F0E943911CF5FC1314B
:1022E000C9F7DC5ED035A9F7DF91CF910895CF9380
:1022F000C82F61E170E08EE196E00E94AC0C6C2F7B
:102300008EE196E00E9492268C2F63E00E94352B8E
:10231000292F8BEAC89F812D1124869590E0FC011E
:10232000EE0FFF1FE80FF91FE20FF11DEB55FE4FF7
:1023300060818EE196E0CF910C949226803110F46A
:102340000C940411803119F4862F0C9439118131C9
:1023500019F4862F0C9477110895CF93C0E08C2F39
:102360000E947711CF5FC039D1F7CF910895CF93F5
:10237000DF93C82F68EC70E08EE196E00E94AC0C11
:102380006C2F8EE196E00E9492266091F3048EE11C
:1023900096E00E949226C03120F48C2F0E942B11CF
:1023A00016C0C03119F40E94661111C0C13119F470
:1023B0000E94AD110CC0C33651F40E94AD11D0E0A3
:1023C0008D2F0E942B11DF5FD031D1F7ECCF69EC5C
:1023D00070E08EE196E00E94AC0C6C2F8EE196E0EE
:1023E0000E9492266091F3048EE196E0DF91CF91F6
:1023F0000C9492260F931F93CF93DF931F92CDB728
:10240000DEB78EE196E00E9414260497D4F18EE1A7
:1024100096E00E942D26082F8EE196E00E942D2640
:10242000182F8EE196E00E942D26682F8EE196E00F
:1024300069830E942D26482F6981043421F4812F5D
:102440000E94B711DECF0C3421F4812F0E94950F2A
:10245000D8CF033521F4812F0E94AA0FD2CF0235A5
:1024600021F4812F0E949E11CCCF073521F4812FBA
:102470000E94730FC6CF083521F6812F0E94D20F1C
:10248000C0CF0F90DF91CF911F910F910895CF93FF
:10249000DF93D82FC62F6091380581E595E00E9423
:1024A00069216D2F81E595E00E9410216C2F81E557
:1024B00095E00E94102181E595E0DF91CF910C9489
:1024C00088218091390560E081110AC087E00E946F
:1024D000471261E088E00E94471261E087E00DC08A
:1024E0008AE20E94471260E08EE00E94471268E193
:1024F0008BE20E94471261E28AE20C9447128091BB
:10250000390560E0811102C087E001C08AE20C94C5
:10251000471240E060E080E00E94430D0E947F127D
:1025200061E08FEF93E00E94900C60E081E10E94F7
:10253000B52560E07AEF80E090E00C9491248091E2
:102540004405811103C00E94E10CDEC08A3031F5E0
:1025500080914205811106C080EC80934C05109259
:102560004B0519C0813031F410924C0510924B0587
:1025700080ECC1C0823031F480E880934C05109229
:102580004B05B9C010924C05833011F480E838C077
:1025900080EC80934B0510924A05B6C09CEE980FD4
:1025A0009A30C8F4E0913E02F0913F0280914505D7
:1025B0009091AC0420E1929FE00DF11D1124E80FF1
:1025C000F11D2AE435E04BE455E06CE475E08681CA
:1025D0000E94540399C08E3109F4B5CF883209F4B2
:1025E000B2CF9EEC980F9A3008F047C0E0913E02BF
:1025F000F0913F028081811106C080E680934C05F6
:1026000080934B0578C0813031F480E380934C0592
:1026100010924B0515C0823041F410924C05109277
:102620004B0580E380934A050DC0833021F488E296
:1026300080934C0503C010924C0580E380934B05BA
:1026400010924A05818190914C05082E01C0990F86
:102650000A94EAF790934C0590914B05082E01C01F
:10266000990F0A94EAF790934B0590914A0501C09F
:10267000990F8A95EAF7892F3EC08C3309F463CF0E
:10268000863409F460CF8E3641F480E880934C059F
:1026900010924A0510924B0537C09EE2980F923077
:1026A00008F451CF843D51F58091470590E0209189
:1026B0004605FC01EE0FFF1FE80FF91FEB55FE4F1B
:1026C000808190E0022E02C0959587950A94E2F7EA
:1026D00080934C05818190E0022E02C095958795EC
:1026E0000A94E2F780934B05828190E002C09595B1
:1026F00087952A95E2F780934A0506C010924A050D
:1027000010924B0510924C0580914905882331F1B8
:1027100080914805882311F120913A0530913B05BD
:1027200040913C0550913D0560913E0570913F05FB
:10273000809140059091410520343E474105510567
:10274000610571058105910519F010F00E9489124B
:1027500010924A0510924B0510924C050895CF93A4
:10276000C82F90914405923309F490C408F04FC0EB
:102770009D3009F4A8C210F5943009F481C168F4C1
:10278000913009F4CEC008F4AFC0923009F4FBC018
:10279000933009F435C10C94101C9A3009F4F7C138
:1027A00028F4953009F4B1C10C94101C9B3009F445
:1027B0000BC29C3009F436C20C94101C9F3109F4F2
:1027C0007FC388F4953109F4BAC228F4943109F42E
:1027D00099C20C94101C963109F4ECC29E3109F494
:1027E00052C30C94101C983209F4F7C340F4903291
:1027F00009F495C3913209F4D0C30C94101C99329A
:1028000009F408C49A3209F43BC40C94101C9436A1
:1028100009F494C628F59E3309F428C568F4943366
:1028200009F481C408F44FC49C3309F4D3C49D3324
:1028300009F4EDC40C94101C973409F4DAC540F483
:102840009F3309F456C5963409F491C50C94101CB5
:10285000983409F404C6993409F450C60C94101C39
:102860009F3609F463C760F4963609F404C708F488
:10287000C4C6973609F4BFC09E3609F43AC7D0C71C
:10288000993C09F4A5C758F5983709F4C4C7983C92
:1028900009F0C6C721E040E860E880E80E947E0DAC
:1028A00021E040E060E080E80E947E0D21E040E809
:1028B00060E880E80E947E0D21E040E060E880E072
:1028C0000E947E0D21E040E860E880E80E947E0DD5
:1028D0008091F3040E94560E10924305A3C7925DA7
:1028E000933008F49FC79CC7882309F49BC72091A5
:1028F0003A0530913B0540913C0550913D05609172
:102900003E0570913F058091400590914105A3E6F9
:102910000E94A62B09F008F485C781E08093430547
:1029200081C780914905882341F0C1117BC78091FF
:10293000480589278093480575C720913A0530914D
:102940003B0540913C0550913D0560913E057091DD
:102950003F058091400590914105273E3340410558
:102960005105610571058105910529F020F082E08E
:102970008093430557C7C11155C781E00E94DA0D06
:10298000109243054FC720913A0530913B05409185
:102990003C0550913D0560913E0570913F05809149
:1029A000400590914105A0E00E94A62B31F425E05E
:1029B00040E860E880E80E947E0D20913A05309161
:1029C0003B0540913C0550913D0560913E0570915D
:1029D0003F0580914005909141052F3C37404105CE
:1029E0005105610571058105910529F020F083E00D
:1029F0008093430517C7C11115C70E94891212C7DA
:102A000020913A0530913B0540913C0550913D05A0
:102A100060913E0570913F05809140059091410580
:102A2000A0E00E94A62B31F425E040E060E880E8B9
:102A30000E947E0D20913A0530913B0540913C0566
:102A400050913D0560913E0570913F058091400594
:102A5000909141052F3C37404105510561057105B5
:102A60008105910529F020F084E080934305DAC6C2
:102A7000C111D8C6109242058AE080934305D2C6A0
:102A800020913A0530913B0540913C0550913D0520
:102A900060913E0570913F05809140059091410500
:102AA000A0E00E94A62B31F425E040E860E080E041
:102AB0000E947E0D20913A0530913B0540913C05E6
:102AC00050913D0560913E0570913F058091400514
:102AD000909141052F3C3740410551056105710535
:102AE0008105910529F020F085E0809343059AC681
:102AF000C11198C68091490591E0892780934905C5
:102B000010924805109243058DC620913A053091E8
:102B10003B0540913C0550913D0560913E0570910B
:102B20003F058091400590914105A0E00E94A62BB1
:102B300031F425E040E060E080E80E947E0D2091C5
:102B40003A0530913B0540913C0550913D0560911F
:102B50003E0570913F058091400590914105203DD3
:102B6000374041055105610571058105910529F041
:102B700020F082E08093430555C6C11153C661E041
:102B80008EEF93E00E94900C0E9489124BC688231E
:102B900009F448C620913A0530913B0540913C0527
:102BA00050913D0560913E0570913F058091400533
:102BB00090914105A4E60E94A62B09F008F432C6C4
:102BC0008BE0809343052EC620913A0530913B055A
:102BD00040913C0550913D0560913E0570913F0547
:102BE00080914005909141052F3C374041055105AA
:102BF000610571058105910529F020F08CE0809335
:102C0000430510C6C1110EC68091420590E00196A1
:102C100065E070E00E94552B809342058AE0809326
:102C2000430500C620913A0530913B0540913C0593
:102C300050913D0560913E0570913F0580914005A2
:102C400090914105A0E00E94A62B31F425E040E0E0
:102C500060E880E80E947E0D20913A0530913B05A6
:102C600040913C0550913D0560913E0570913F05B6
:102C700080914005909141052F3C37404105510519
:102C8000610571058105910529F020F08DE08093A3
:102C90004305C8C5C111C6C580914205823030F4D4
:102CA0008093AC0484E180934305BCC5843038F440
:102CB00081708093AC0488E280934305B3C582E3BE
:102CC00080934305AFC520913A0530913B05409173
:102CD0003C0550913D0560913E0570913F05809106
:102CE000400590914105A0E00E94A62B31F425E01B
:102CF00040E860E880E80E947E0DC11193C5109203
:102D0000430590C5882309F48DC520913A0530917B
:102D10003B0540913C0550913D0560913E05709109
:102D20003F058091400590914105A4E60E94A62BA5
:102D300009F008F477C585E18093430573C52091B8
:102D40003A0530913B0540913C0550913D0560911D
:102D50003E0570913F058091400590914105203DD1
:102D6000374041055105610571058105910529F03F
:102D700020F086E18093430555C5C11153C5E0910C
:102D80003E02F0913F029091AC048091450520E114
:102D9000929FE00DF11D1124E80FF11D868190E056
:102DA000019660E370E00E94552B868384E1809356
:102DB000430538C520913A0530913B0540913C05CB
:102DC00050913D0560913E0570913F058091400511
:102DD00090914105A0E00E94A62B31F425E040E847
:102DE00060E880E80E947E0D20913A0530913B0515
:102DF00040913C0550913D0560913E0570913F0525
:102E00008091400590914105203D37404105510595
:102E1000610571058105910521F118F1E0913E02EE
:102E2000F0913F029091AC048091450520E1929F82
:102E3000E00DF11D1124E80FF11D8681805C868371
:102E400010923A0510923B0510923C0510923D05F8
:102E500010923E0510923F051092400510924105D8
:102E6000E1C4C111DFC4E0913E02F0913F028091C4
:102E7000AC04E80FF11D809145058F5F84838EE1DE
:102E800080934305CFC4882309F4CCC420913A052C
:102E900030913B0540913C0550913D0560913E05C8
:102EA00070913F058091400590914105A4E60E94F4
:102EB000A62B09F008F4B6C48FE180934305B2C491
:102EC00020913A0530913B0540913C0550913D05DC
:102ED00060913E0570913F058091400590914105BC
:102EE000203D37404105510561057105810591057A
:102EF00029F020F080E28093430594C4C11192C46C
:102F0000809145058F5F80934505803120F088ECE6
:102F10008093430587C484E18093430583C4209153
:102F20003A0530913B0540913C0550913D0560913B
:102F30003E0570913F058091400590914105A0E0CC
:102F40000E94A62B31F425E040E060E080E80E947A
:102F50007E0D20913A0530913B0540913C05509102
:102F60003D0560913E0570913F058091400590912F
:102F70004105203D37404105510561057105810539
:102F8000910529F020F081E2809343054BC4C111E3
:102F900049C484E18093430545C420913A053091AA
:102FA0003B0540913C0550913D0560913E05709177
:102FB0003F058091400590914105A0E00E94A62B1D
:102FC00031F425E040E860E880E80E947E0DC11100
:102FD00029C488EC8093430525C4882309F422C4BE
:102FE00020913A0530913B0540913C0550913D05BB
:102FF00060913E0570913F0580914005909141059B
:10300000A4E60E94A62B09F008F40CC489E2809380
:10301000430508C420913A0530913B0540913C0599
:1030200050913D0560913E0570913F0580914005AE
:1030300090914105203D37404105510561057105DD
:103040008105910529F020F08AE280934305EAC3C7
:10305000C111E8C3E0913E02F0913F028091AC04BF
:10306000E80FF11D828190E001966EE370E00E940E
:10307000552B82830E94BA0C88E280934305D2C309
:103080008111D0C388EC80934305CCC3882309F415
:10309000C9C320913A0530913B0540913C055091C0
:1030A0003D0560913E0570913F05809140059091EE
:1030B0004105A4E60E94A62B09F008F4B3C383E3FC
:1030C00080934305AFC320913A0530913B05409171
:1030D0003C0550913D0560913E0570913F05809102
:1030E000400590914105203D37404105510561055E
:1030F00071058105910529F020F084E38093430553
:1031000091C3C1118FC3E0913E02F0913F028081D3
:1031100090E0019665E070E00E94552B808382E389
:10312000809343057FC320913A0530913B05409140
:103130003C0550913D0560913E0570913F058091A1
:10314000400590914105A0E00E94A62B31F425E0B6
:1031500040E860E880E80E947E0D20913A053091B9
:103160003B0540913C0550913D0560913E057091B5
:103170003F058091400590914105203D3740410534
:1031800051056105710581059105F1F0E8F0E091C7
:103190003E02F0913F02818190E0019663E070E091
:1031A0000E94552B818310923A0510923B05109294
:1031B0003C0510923D0510923E0510923F0510927D
:1031C0004005109241052EC3C1112CC388EC809399
:1031D000430528C3882309F425C320913A0530917B
:1031E0003B0540913C0550913D0560913E05709135
:1031F0003F058091400590914105A4E60E94A62BD1
:1032000009F008F40FC38DE3809343050BC32091AD
:103210003A0530913B0540913C0550913D05609148
:103220003E0570913F058091400590914105203DFC
:10323000374041055105610571058105910529F06A
:1032400020F08EE380934305EDC2C111EBC2809163
:10325000F20490E00196837099278093F20480E055
:103260000E94DA0D8CE380934305DCC220913A057D
:1032700030913B0540913C0550913D0560913E05E4
:1032800070913F058091400590914105A0E00E941A
:10329000A62B31F425E040E860E080E00E947E0D3E
:1032A00020913A0530913B0540913C0550913D05F8
:1032B00060913E0570913F058091400590914105D8
:1032C000203D374041055105610571058105910596
:1032D00029F020F08FE380934305A4C2C111A2C25C
:1032E00025E040E860E880E80E947E0D10924305EA
:1032F00099C220913A0530913B0540913C0550918F
:103300003D0560913E0570913F058091400590918B
:103310004105A0E00E94A62B31F425E040E060E8E2
:1033200080E80E947E0D20913A0530913B05409146
:103330003C0550913D0560913E0570913F0580919F
:10334000400590914105203D3740410551056105FB
:1033500071058105910529F020F08EE380934305E6
:1033600061C2C1115FC286E4809343055BC22091B4
:103370003A0530913B0540913C0550913D056091E7
:103380003E0570913F058091400590914105A0E078
:103390000E94A62B89F48091F104E091F20420E1CF
:1033A000E29FF0011124E80FF11DE355FB4F8081EE
:1033B0008093F3040E94BA0CCC2309F433C2209109
:1033C0003A0530913B0540913C0550913D05609197
:1033D0003E0570913F058091400590914105A4E61E
:1033E0000E94A62B09F008F41DC287E480934305D0
:1033F00019C220913A0530913B0540913C0550910E
:103400003D0560913E0570913F058091400590918A
:103410004105203D37404105510561057105810594
:10342000910529F020F088E480934305FBC1C11188
:10343000F9C1E091F2048091F10420E1E29FF001F2
:103440001124E80FF11DE355FB4F808190E00196B8
:103450008F709927808386E480934305E3C1209190
:103460003A0530913B0540913C0550913D056091F6
:103470003E0570913F058091400590914105A0E087
:103480000E94A62B31F425E040E860E080E80E942D
:103490007E0D20913A0530913B0540913C055091BD
:1034A0003D0560913E0570913F05809140059091EA
:1034B0004105203D374041055105610571058105F4
:1034C000910529F020F089E480934305ABC1C11137
:1034D000A9C18091F1048F5F8093F104E091F2041F
:1034E000F0E0E351FB4F8083803120F089EC809342
:1034F000430598C186E48093430594C120913A0521
:1035000030913B0540913C0550913D0560913E0551
:1035100070913F058091400590914105A0E00E9487
:10352000A62B31F425E040E860E880E80E947E0D9B
:10353000C11178C189EC8093430574C18EEF93E08B
:103540000E94B22B20913A0530913B0540913C05F9
:1035500050913D0560913E0570913F05E091400519
:10356000909141058823A9F18E2F203737414105DD
:103570005105610571058105910531F425E040E0B3
:1035800060E880E00E947E0DC1114CC120913A0597
:1035900030913B0540913C0550913D0560913E05C1
:1035A00070913F058091400590914105203737414A
:1035B00041055105610571058105910509F008F482
:1035C0001CCA60E08EEF93E00E94900C10924305BD
:1035D00029C18E2F2F3C37404105510561057105EA
:1035E0008105910529F020F085E6809343051AC1F5
:1035F000C11118C11092430515C120913A053091AF
:103600003B0540913C0550913D0560913E05709110
:103610003F058091400590914105A0E00E94A62BB6
:1036200031F425E040E860E080E00E947E0D2091CA
:103630003A0530913B0540913C0550913D05609124
:103640003E0570913F0580914005909141052037DE
:10365000374141055105610571058105910529F045
:1036600020F086E680934305DDC0C111DBC08CE30A
:1036700080934305D7C020913A0530913B05409196
:103680003C0550913D0560913E0570913F0580914C
:10369000400590914105A0E00E94A62B31F425E061
:1036A00040E060E080E80E947E0D20913A05309174
:1036B0003B0540913C0550913D0560913E05709160
:1036C0003F058091400590914105203737414105E4
:1036D0005105610571058105910529F020F087E606
:1036E000809343059FC0C1119DC08EE68093430522
:1036F00099C0882309F496C020913A0530913B0582
:1037000040913C0550913D0560913E0570913F050B
:103710008091400590914105A4E60E94A62B09F0F6
:1037200008F480C08FE6809343057CC020913A0561
:1037300030913B0540913C0550913D0560913E051F
:1037400070913F0580914005909141052F3637419A
:1037500041055105610571058105910509F008F4E0
:103760004AC921E040E060E080E80E947E0D21E04F
:1037700040E860E080E00E947E0D21E040E060E0F3
:1037800080E80E947E0D21E040E860E080E00E9439
:103790007E0D21E040E060E080E80E947E0D88E13F
:1037A0000FB6F89480936000109260000FBE0E94E4
:1037B0003A0F28E088E190E00FB6F894A89580933E
:1037C00060000FBE2093600088E7809343052AC005
:1037D00021E040E860E880E80E947E0D21E040E0C2
:1037E00060E080E80E947E0D21E040E860E880E82B
:1037F0000E947E0D21E040E860E080E00E947E0DA6
:1038000021E040E860E880E80E947E0D0E94860E7C
:103810001092430507C0811105C01092430502C0F4
:10382000109243058091430590914405981799F0B3
:103830008093440510923A0510923B0510923C0586
:1038400010923D0510923E0510923F0510924005E2
:103850001092410523C020913A0530913B054091DB
:103860003C0550913D0560913E0570913F0580916A
:10387000400590914105A1E00E949A2B20933A05C2
:1038800030933B0540933C0550933D0560933E05C6
:1038900070933F058093400590934105CF91089523
:1038A0006091380581E595E00E9469218091390594
:1038B000811163C060E070E081E595E00E94B30C87
:1038C00060E081E595E00E9475216091380570E027
:1038D00043E050E081E595E00E94662181E595E0B6
:1038E0000E94B820892B41F081E595E00E94C0201C
:1038F000909334058093330580913305909134057E
:103900008032910514F0805491099093340580938E
:10391000330581E595E00E94B820892B41F081E5CF
:1039200095E00E94C02090933205809331058091EC
:103930003105909132058032910514F0805491093F
:10394000909332058093310581E595E00E94B8207F
:10395000892B41F081E595E00E94C02090933005CD
:1039600080932F0580912F0590913005803291052D
:103970000CF4BEC080549109BBC061E070E081E5E9
:1039800095E00E94B30C60E081E595E00E9475210E
:103990006091380570E046E050E081E595E00E94D6
:1039A000662181E595E00E94B820892B69F081E5C8
:1039B00095E00E94C020F4E0880F991FFA95E1F786
:1039C000909334058093330581E595E00E94B820FB
:1039D000892B99F081E595E00E94C020E4E095955F
:1039E0008795EA95E1F72091330530913405282B2E
:1039F000392B309334052093330580913305909112
:103A00003405811528E092070CF09051909334050D
:103A10008093330581E595E00E94B820892B69F0F9
:103A200081E595E00E94C02074E0880F991F7A9587
:103A3000E1F7909332058093310581E595E00E948E
:103A4000B820892B99F081E595E00E94C02064E0C0
:103A5000959587956A95E1F720913105309132056A
:103A6000282B392B30933205209331058091310575
:103A700090913205811528E092070CF090519093B7
:103A800032058093310581E595E00E94B820892BAD
:103A900069F081E595E00E94C02054E0880F991FED
:103AA0005A95E1F79093300580932F0581E595E0D5
:103AB0000E94B820892B99F081E595E00E94C020F2
:103AC00044E0959587954A95E1F720912F0530912F
:103AD0003005282B392B3093300520932F0580910A
:103AE0002F0590913005811528E092070CF0905138
:103AF0009093300580932F0508954F925F926F92B7
:103B00007F928F929F92AF92BF92CF92DF92EF926D
:103B1000FF920F931F93CF93DF93809135056091B0
:103B200037050E94352B892F90E08A30910508F0E7
:103B3000EAC1FC01EE58FF4F0C948B2B0E94501CE5
:103B4000E2C10E942810DFC160912B0570912C0505
:103B500080912D0590912E05809027059090280545
:103B6000A0902905B0902A05C0902305D090240587
:103B7000E0902505F09026059B01AC010E94782A73
:103B80002B013C01A5019401C501B4010E94782AD2
:103B90009B01AC01C301B2010E9438284B015C01BA
:103BA000A7019601C701B6010E94782A9B01AC01CA
:103BB000C501B4010E9438280E94DF2A60931F05C6
:103BC0007093200580932105909322059CC10E944B
:103BD000841099C16091270570912805809129056D
:103BE00090912A05C0902305D0902405E0902505EA
:103BF000F09026059B01AC010E94782A4B015C01E4
:103C0000A7019601C701B6010E94782A9B01AC0169
:103C1000C501B4010E9438280E94DF2A15C02091F6
:103C20001B0530911C0540911D0550911E0580918A
:103C30002B0590912C05A0912D05B0912E05BC016E
:103C4000CD0190580E94AB2860931B0570931C0512
:103C500080931D0590931E0556C120E030E044E39B
:103C600053E460911B0570911C0580911D05909196
:103C70001E050E94782A2BED3FE049E450E40E94A3
:103C80000229E2CF2091230530912405409125059A
:103C9000509126058091270590912805A09129052E
:103CA000B0912A05BC01CD0190580E94AB2814C0E8
:103CB00020E030E044E353E460911705709118056B
:103CC0008091190590911A050E94782A2BED3FE00A
:103CD00049E450E40E940229609317057093180587
:103CE0008093190590931A050EC100913E02109120
:103CF0003F02D8018C91882309F405C1B090AC042F
:103D0000813009F041C011969C91911113C0B110FE
:103D100006C090911605903110F08093AC0480910C
:103D2000AC04813009F0EFC0809116058B3008F0AB
:103D3000EAC027C0913099F4B11006C080911605F1
:103D4000893010F09093AC048091AC04813009F07C
:103D5000DAC080911605843008F0D5C012C0B110C9
:103D600006C090911605953010F08093AC048091B8
:103D7000AC04813009F0C7C080911605833008F08B
:103D8000C2C01092AC04BFC0C091AA04D091AB04D1
:103D9000B11046C090911605933008F09EC0823055
:103DA00069F420E030E046E952EC60911B05709127
:103DB0001C0580911D0590911E057EC08330B9F4CD
:103DC000C0901705D0901805E0901905F0901A05DD
:103DD00020E030E040EA52ECC701B6010E94FE2824
:103DE00087FF6EC020E030E048EC52EC16C0C09077
:103DF0002305D0902405E0902505F090260526E6C1
:103E000036E646E65FEBC701B6010E94FE2887FF53
:103E100057C02DEC3CEC4CE85FEBC701B60116C077
:103E2000B1E0BB125AC090911605933008F055C00E
:103E3000823089F420E030E046E952E460911B05CD
:103E400070911C0580911D0590911E050E946D2AA0
:103E50001816DCF135C08330B9F4C0901705D09046
:103E60001805E0901905F0901A0520E030E040EACE
:103E700052E4C701B6010E946D2A18160CF520E025
:103E800030E048EC52E416C0C0902305D0902405E1
:103E9000E0902505F090260526E636E646E65FE347
:103EA000C701B6010E946D2A181654F42DEC3CECA3
:103EB0004CE85FE3C701B6010E94FE2887FD05C0FC
:103EC000882799278C1B9D0B02C081E090E0C80FCA
:103ED000D91FD093AB04C093AA04D8011196EC91DA
:103EE000F0E0E050FF4F808190E02091AA043091F3
:103EF000AB04821793073CF481E0B11080E080931B
:103F0000AC04F8011182809135058F5F80933505EF
:103F100090913605891710F010923505DF91CF91F9
:103F20001F910F91FF90EF90DF90CF90BF90AF90D7
:103F30009F908F907F906F905F904F90089582E058
:103F40000E94EB2521E0892B09F020E0822F0E94BE
:103F5000AF130E94FA11809144059FEF980F913D95
:103F600010F48C3311F40E947D1D0E949F12409129
:103F70004A0560914B0580914C050C94430D6DE111
:103F800070E081E595E00E9473216DE070E081E5CD
:103F900095E00E94B30C60E081E595E00E947521F8
:103FA00041E050E06DE170E081E595E00E9466211E
:103FB00081E595E00E94B820892BB9F081E595E074
:103FC0000E94C0208F7E8A3481F481E0809339057D
:103FD0008DE18093380584E1809337058093360521
:103FE0008AE08093F50485E00FC0109239058CE4D7
:103FF0008093380580E2809337058DE780933605FE
:1040000088E08093F50484E08093F404089581E5CA
:1040100095E00E944F21109243051092440560E004
:1040200082E00E947C2542E050E06FE87CE080E086
:104030000E949A238FEF93E00E94B22B8823A1F075
:1040400060E08FEF93E00E94900C20E030E040E0D1
:1040500050E06AE070E084EA91E00E94870284E622
:10406000809343058093440580E00E94BA238CEF3F
:1040700093E00E94B22B8A3241F00E943A0F6AE22A
:104080008CEF93E00E94900C08C00E94EF0E0E94FB
:10409000F90E84EE92E00E94270326E040E051EE04
:1040A00060E070E08EE196E00E94F7268DEF93E0ED
:1040B0000E94B22B8093F20461E089E00E947C258B
:1040C00061E086E00E947C2561E085E00E947C251D
:1040D00061E081E10E947C2561E081E10E94B525DB
:1040E0000E94BF1F0E946112F89410927A0085B559
:1040F000887F816085BD80918100887F8160809309
:10410000810080918100886080938100789468E2CA
:1041100070E080E090E00E94912480E00E94DA0D3F
:1041200064E670E08EE196E00E94AC0C6091F304CE
:104130008EE196E00E94922660E070E08EE196E0CB
:104140000E94AC0C0E946E2460934D0570934E0546
:1041500080934F059093500528E088E190E00FB6DA
:10416000F894A895809360000FBE20936000089596
:104170008091810590E020918205821B910908952C
:104180002091820580918105281750F4E22FF0E0FC
:10419000ED57FA4F808190E02F5F209382050895BC
:1041A0008FEF9FEF0895E091820580918105E817D8
:1041B00030F4F0E0ED57FA4F808190E008958FEFF2
:1041C0009FEF08950895CF92DF92EF92FF920F93A1
:1041D0001F93CF93DF937C01CB018A0120915D0572
:1041E000222389F0EB016B01C40ED51ECC15DD0531
:1041F00069F06991D701ED91FC910190F081E02D7A
:10420000C7010995F3CF642F0E944422C801DF91B2
:10421000CF911F910F91FF90EF90DF90CF90089575
:10422000CF93DF931F92CDB7DEB7698320915D05F1
:104230002223D1F020915E05203240F021E030E0D1
:10424000FC013383228380E090E015C080915F05FC
:10425000E82FF0E0E05AFA4F998190838F5F8093C6
:104260005F0580935E0505C061E0CE0101960E9466
:10427000442281E090E00F90DF91CF910895FC01FE
:104280001382128248EE53E060E070E0448355836D
:104290006683778387E891E0918380830895109205
:1042A00082051092810510925F0510925E050C94B4
:1042B0008F21862F413208F040E263E875E00E94CA
:1042C000AD211092820580938105089521E00C9420
:1042D000592181E080935D056093800510925F0510
:1042E00010925E0508950C9469210F93062F21E02A
:1042F00040915E0560E675E0809180050E94F121A5
:1043000010925F0510925E0510925D050F91089561
:1043100061E00C94752181E595E00C943F211092A9
:10432000100681E080930E0610920D0661E082E196
:104330000E94B52561E083E10E94B525E9EBF0E03C
:1043400080818E7F808380818D7F80838CE08093CD
:10435000B80085E48093BC000895413208F03FC066
:10436000909110069111FCCF91E09093100620934C
:104370000E062FEF2093A3051092E805240F20933B
:10438000E70590930F0690910F06880F892B809375
:104390000F0680910D06813041F410920D06809138
:1043A0000F068093BB0085EC01C085EE8093BC00B6
:1043B000809110068130E1F38091E805841710F4B4
:1043C0004091E80529EE35E0FB01D9018A2F821BD7
:1043D000841718F48D918193F9CF842F089580E08C
:1043E00008950F93413208F046C090911006911144
:1043F000FCCF92E09093100600930E069FEF9093EF
:10440000A3051092E8054093E705FB0169EE75E00E
:10441000DB019A2F961B941718F491919D93F9CF75
:1044200010920F0690910F06880F892B80930F062C
:1044300080910D06813041F410920D0680910F0697
:104440008093BB0085EC01C085EE8093BC002223E5
:1044500021F0809110068230E1F38091A3058F3F17
:1044600061F08091A305803251F08091A3058033E3
:1044700041F483E007C081E005C080E003C082E032
:1044800001C084E00F910895613298F420911006E4
:10449000243089F46093C505FC0187EC95E0DC01CC
:1044A0002A2F281B261718F421912D93F9CF80E08D
:1044B000089581E0089582E0089585ED8093BC0021
:1044C0008091BC0084FDFCCF10921006089585EC0D
:1044D0008093BC001092100608951F920F920FB6A1
:1044E0000F9211242F933F934F935F936F937F937A
:1044F0008F939F93AF93BF93EF93FF938091B900F6
:10450000887F803609F49CC068F5883209F45BC066
:1045100090F4803109F454C038F4882309F4F5C0CC
:10452000883009F44DC0F5C0883109F44CC08032A0
:1045300009F45DC0EEC0803409F468C048F48033EB
:1045400009F455C0883309F0E4C08093A305A8C0DE
:10455000803509F44FC0883509F45DC0883409F00E
:10456000D8C0D5C0883909F4C6C0A8F4883709F482
:1045700067C038F4883609F463C0803709F460C036
:10458000C8C0883809F4B7C0803909F45FC08038E2
:1045900009F0BFC05BC0803B09F485C038F4803AA5
:1045A00009F466C0883A09F47EC0B3C0803C09F4BF
:1045B000A6C0883C09F4A3C0883B09F489C0A9C0FF
:1045C00080910F0610C09091E8058091E70598173B
:1045D00070F5E091E80581E08E0F8093E805F0E04A
:1045E000E751FA4F80818093BB0085EC85C08093B2
:1045F000A3058DC0E091E80581E08E0F8093E8056A
:104600008091BB00F0E0E751FA4F80839091E8057C
:104610008091E7056DC0E091E80581E08E0F809301
:10462000E8058091BB00F0E0E751FA4F808380916C
:104630000E0681116CC081E080930D0684EA60C093
:1046400083E0809310061092A405CFCF8091A4053B
:10465000803208F050C0E091A40581E08E0F809375
:10466000A4058091BB00F0E0EB55FA4F8083BDCFED
:104670008091A405803230F4E091A405F0E0EB5580
:10468000FA4F10820E945D226091A40570E0E091D3
:104690000906F0910A0685EA95E009951092A405AD
:1046A0000E94672236C084E0809310061092C605EF
:1046B0001092C505E0910B06F0910C0609958091CA
:1046C000C505811105C081E08093C5051092C7051D
:1046D000E091C60581E08E0F8093C605F0E0E953B6
:1046E000FA4F80818093BB009091C6058091C505EB
:1046F000981708F47ACF85E88093BC000AC085EC4F
:104700008093BC001092100604C01092A3050E9472
:104710005D22FF91EF91BF91AF919F918F917F911A
:104720006F915F914F913F912F910F900FBE0F901E
:104730001F9018958230E8F4E82FF0E0EE0FFF1F8D
:10474000EF5EF94F71836083813041F080916900A1
:104750008C7F842B80936900E89A0895809169008A
:10476000440F551F440F551F837F842B809369008E
:10477000E99A0895823068F4813011F0E89801C018
:10478000E998E82FF0E0EE0FFF1FEF5EF94F11827E
:10479000108208951F920F920FB60F9211242F933B
:1047A0003F934F935F936F937F938F939F93AF93B9
:1047B000BF93EF93FF938091110690911206892B7E
:1047C00029F0E0911106F09112060995FF91EF9101
:1047D000BF91AF919F918F917F916F915F914F9119
:1047E0003F912F910F900FBE0F901F9018951F9221
:1047F0000F920FB60F9211242F933F934F935F9315
:104800006F937F938F939F93AF93BF93EF93FF9398
:104810008091130690911406892B29F0E0911306DC
:10482000F09114060995FF91EF91BF91AF919F917F
:104830008F917F916F915F914F913F912F910F9049
:104840000FBE0F901F9018951F920F920FB60F92E8
:1048500011242F933F938F939F93AF93BF93809196
:10486000160690911706A0911806B091190630917E
:10487000150623E0230F2D3720F40196A11DB11D4D
:1048800005C026E8230F0296A11DB11D2093150631
:104890008093160690931706A0931806B0931906F6
:1048A00080911A0690911B06A0911C06B0911D06DE
:1048B0000196A11DB11D80931A0690931B06A0932B
:1048C0001C06B0931D06BF91AF919F918F913F91B0
:1048D0002F910F900FBE0F901F9018953FB7F8942F
:1048E00080911A0690911B06A0911C06B0911D069E
:1048F00026B5A89B05C02F3F19F00196A11DB11D3B
:104900003FBF6627782F892F9A2F620F711D811D57
:10491000911D42E0660F771F881F991F4A95D1F7B6
:104920000895CF92DF92EF92FF92CF93DF936B01C6
:104930007C010E946E24EB01C114D104E104F10456
:1049400089F00E9436280E946E246C1B7D0B683E05
:10495000734090F381E0C81AD108E108F108C8510A
:10496000DC4FEACFDF91CF91FF90EF90DF90CF90B7
:104970000895789484B5826084BD84B5816084BDD7
:1049800085B5826085BD85B5816085BDEEE6F0E0C8
:10499000808181608083E1E8F0E010828081826024
:1049A0008083808181608083E0E8F0E080818160A5
:1049B0008083E1EBF0E0808184608083E0EBF0E0D5
:1049C000808181608083EAE7F0E080818460808379
:1049D0008081826080838081816080838081806823
:1049E00080831092C10008951F93CF93DF93182FF7
:1049F000EB0161E00E947C25209711F460E004C087
:104A0000CF3FD10539F461E0812FDF91CF911F9124
:104A10000C94B525E12FF0E0E65AFB4FE491E3302A
:104A2000F9F048F4E130B9F0E230A1F584B58062E4
:104A300084BDC8BD34C0E730E9F0E83019F1E43096
:104A400049F580918000806280938000D0938B0034
:104A5000C0938A0024C084B5806884BDC7BD1FC0D0
:104A600080918000806880938000D0938900C093FB
:104A7000880015C08091B00080688093B000C0931A
:104A8000B3000DC08091B00080628093B000C093ED
:104A9000B40005C0C038D1050CF0B5CFAFCFDF9161
:104AA000CF911F910895833081F028F4813099F0DF
:104AB0008230A1F008958730A9F08830B9F08430B1
:104AC000D1F4809180008F7D03C0809180008F772A
:104AD00080938000089584B58F7702C084B58F7D60
:104AE00084BD08958091B0008F7703C08091B0009D
:104AF0008F7D8093B0000895CF93DF9390E0FC0109
:104B0000E259FB4F2491FC01EE57FB4F849188231F
:104B100049F190E0880F991FFC01E655FB4FA591E4
:104B2000B49180569B4FFC01C591D4919FB7611100
:104B300008C0F8948C91209582238C9388818223DD
:104B40000AC0623051F4F8948C91322F309583234F
:104B50008C938881822B888304C0F8948C91822B5B
:104B60008C939FBFDF91CF9108950F931F93CF93A5
:104B7000DF931F92CDB7DEB7282F30E0F901E65A58
:104B8000FB4F8491F901E259FB4F1491F901EE5763
:104B9000FB4F04910023C9F0882321F069830E9410
:104BA00053256981E02FF0E0EE0FFF1FE056FB4F29
:104BB000A591B4919FB7F8948C91611103C01095A1
:104BC000812301C0812B8C939FBF0F90DF91CF91E8
:104BD0001F910F910895CF93DF93282F30E0F901B3
:104BE000E65AFB4F8491F901E259FB4FD491F90148
:104BF000EE57FB4FC491CC2391F081110E945325B5
:104C0000EC2FF0E0EE0FFF1FEA56FB4FA591B49199
:104C10002C912D2381E090E021F480E002C080E01F
:104C200090E0DF91CF910895FC01818D228D90E07D
:104C3000805C9F4F821B91098F7399270895FC0117
:104C4000918D828D981731F0828DE80FF11D858D41
:104C500090E008958FEF9FEF0895FC01918D828D74
:104C6000981761F0828DDF01A80FB11D5D968C91C0
:104C7000928D9F5F9F73928F90E008958FEF9FEFCB
:104C8000089581EB97E2892B49F080E090E0892B31
:104C900029F00E94B12781110C9400000895FC01B5
:104CA000848DDF01A80FB11DA35ABF4F2C91848DB5
:104CB00090E001968F739927848FA689B7892C93EA
:104CC000A089B1898C9180648C93938D848D981385
:104CD00006C00288F389E02D80818F7D808308954E
:104CE000CF93DF93EC01888D8823C9F0EA89FB8993
:104CF000808185FD05C0A889B9898C9186FD0FC08A
:104D00000FB607FCF5CF808185FFF2CFA889B9895E
:104D10008C9185FFEDCFCE010E944F26E7CFDF912A
:104D2000CF910895CF92DF92FF920F931F93CF936D
:104D3000DF931F92CDB7DEB76C0181E0D6015896A4
:104D40008C9358975B969C915B975C968C915C9743
:104D5000981307C05096ED91FC915197808185FD85
:104D60002EC0F601038D10E00F5F1F4F0F73112748
:104D7000F02EF601848DF81211C00FB607FCF9CFA2
:104D8000D6015096ED91FC915197808185FFF1CF2E
:104D9000C60169830E944F266981EBCF838DE80F9E
:104DA000F11DE35AFF4F6083D6015B960C935B972E
:104DB0005296ED91FC915397808180620CC0D60190
:104DC0005696ED91FC91579760835096ED91FC912A
:104DD000519780818064808381E090E00F90DF9123
:104DE000CF911F910F91FF90DF90CF900895BF92C8
:104DF000CF92DF92EF92FF92CF93DF93EC016A01A3
:104E00007B01B22EE889F98982E08083411581EE29
:104E1000580761057105A1F060E079E08DE390E04D
:104E2000A70196010E94692B2150310941095109BE
:104E30005695479537952795211580E1380798F0C5
:104E4000E889F989108260E874E88EE190E0A701B2
:104E500096010E94692B215031094109510956954B
:104E6000479537952795EC85FD853083EE85FF8541
:104E70002083188EEC89FD89B082EA89FB898081C4
:104E800080618083EA89FB89808188608083EA89E8
:104E9000FB89808180688083EA89FB8980818F7D9E
:104EA0008083DF91CF91FF90EF90DF90CF90BF9004
:104EB00008951F920F920FB60F9211242F938F9384
:104EC0009F93EF93FF93E0912E06F0912F06808140
:104ED000E0913406F091350682FD12C090818091F8
:104EE00037068F5F8F7320913806821751F0E0915B
:104EF0003706F0E0E25EF94F958F8093370601C0E8
:104F00008081FF91EF919F918F912F910F900FBE14
:104F10000F901F9018951F920F920FB60F921124A9
:104F20002F933F934F935F936F937F938F939F93B1
:104F3000AF93BF93EF93FF938EE196E00E944F26CD
:104F4000FF91EF91BF91AF919F918F917F916F9161
:104F50005F914F913F912F910F900FBE0F901F9037
:104F600018958EE196E00E94142621E0892B09F421
:104F700020E0822F0895109221061092200688EEDC
:104F800093E0A0E0B0E08093220690932306A093E4
:104F90002406B093250687E991E090931F0680933D
:104FA0001E0685EC90E090932B0680932A0684ECF5
:104FB00090E090932D0680932C0680EC90E09093E7
:104FC0002F0680932E0681EC90E09093310680931B
:104FD000300682EC90E0909333068093320686ECA4
:104FE00090E0909335068093340610923706109225
:104FF00038061092390610923A06089508950E94D4
:10500000B9240E94FE270E940720C1E4D6E20E9434
:105010009F1F2097E1F30E944126F9CFCF92DF92A4
:10502000EF92FF920F931F93CF93DF936C017A015E
:10503000EB01E60EF71E00E010E0CE15DF0561F093
:105040006991D601ED91FC910190F081E02DC601AE
:105050000995080F191FF1CFC801DF91CF911F915A
:105060000F91FF90EF90DF90CF90089508955058E2
:10507000BB27AA270ED0F7C1E8D130F0EDD120F040
:1050800031F49F3F11F41EF4B8C10EF4E095E7FB34
:10509000AEC1E92FF9D180F3BA176207730784070D
:1050A000950718F071F49EF511C20EF4E0950B2EE1
:1050B000BA2FA02D0B01B90190010C01CA01A0016A
:1050C0001124FF27591B99F0593F50F4503E68F1C5
:1050D0001A16F040A22F232F342F4427585FF3CF06
:1050E000469537952795A795F0405395C9F77EF4D7
:1050F0001F16BA0B620B730B840BBAF09150A1F020
:10510000FF0FBB1F661F771F881FC2F70EC0BA0FA5
:10511000621F731F841F48F4879577956795B7952D
:10512000F7959E3F08F0B3CF9395880F08F0992725
:10513000EE0F97958795089588D158F080E891E013
:1051400009F49EEF89D128F040E851E059F45EEF70
:1051500009C053C1BBC1E92FE07896D168F3092E8D
:10516000052AC1F3261737074807590738F00E2ECE
:1051700007F8E02569F0E025E0640AC0EF6307F86E
:10518000009407FADB01B9019D01DC01CA01AD0100
:10519000EF9347D068D10AD05F91552331F02BEDC2
:1051A0003FE049E450FD49EC63CF0895DF93DD27EC
:1051B000B92FBF7740E85FE31616170648075B076D
:1051C00010F4D92F8ED19F938F937F936F9335D205
:1051D000E8EFF0E015D147D12F913F914F915F91CA
:1051E00093D1DD2349F09058A2EA2AED3FE049EC43
:1051F0005FE3D0785D274DDFDF9135C1D4D008F46F
:1052000081E008950CD02FC127D140F01ED130F09D
:1052100021F45F3F19F0EBC0511159C1EEC034D1F8
:1052200098F39923C9F35523B1F3951B550BBB276D
:10523000AA2762177307840738F09F5F5F4F220F1A
:10524000331F441FAA1FA9F333D00E2E3AF0E0E813
:1052500030D091505040E695001CCAF729D0FE2F5F
:1052600027D0660F771F881FBB1F261737074807F1
:10527000AB07B0E809F0BB0B802DBF01FF279358A7
:105280005F4F2AF09E3F510568F0B1C020C15F3FDB
:10529000ECF3983EDCF3869577956795B795F7958F
:1052A0009F5FC9F7880F911D9695879597F9089587
:1052B000E1E0660F771F881FBB1F62177307840723
:1052C000BA0720F0621B730B840BBA0BEE1F88F732
:1052D000E0950895E1D088F09F5790F0B92F992775
:1052E000B751A0F0D1F0660F771F881F991F1AF0F1
:1052F000BA95C9F712C0B13081F0E8D0B1E0089595
:10530000E5C0672F782F8827B85F39F0B93FCCF315
:10531000869577956795B395D9F73EF490958095E6
:10532000709561957F4F8F4F9F4F0895E89409C006
:1053300097FB3EF490958095709561957F4F8F4FC8
:105340009F4F9923A9F0F92F96E9BB279395F695DE
:10535000879577956795B795F111F8CFFAF4BB0F5C
:1053600011F460FF1BC06F5F7F4F8F4F9F4F16C0C0
:10537000882311F096E911C0772321F09EE8872F4A
:10538000762F05C0662371F096E8862F70E060E006
:105390002AF09A95660F771F881FDAF7880F96957F
:1053A000879597F90895990F0008550FAA0BE0E823
:1053B000FEEF16161706E807F907C0F012161306D7
:1053C000E407F50798F0621B730B840B950B39F417
:1053D0000A2661F0232B242B252B21F408950A267D
:1053E00009F4A140A6958FEF811D811D089597F9BD
:1053F0009F6780E870E060E008959FEF80EC08957B
:10540000DF93CF931F930F93FF92EF92DF927B0175
:105410008C01689405C0DA2EEF0176D0FE01E89485
:10542000A5912591359145915591AEF3EF0131DE6E
:10543000FE019701A801DA9479F7DF90EF90FF90D1
:105440000F911F91CF91DF91089500240A941616B1
:10545000170618060906089500240A941216130662
:10546000140605060895092E0394000C11F48823F0
:1054700052F0BB0F40F4BF2B11F460FF04C06F5F0C
:105480007F4F8F4F9F4F089557FD9058440F551FE2
:1054900059F05F3F71F04795880F97FB991F61F0B6
:1054A0009F3F79F087950895121613061406551F2D
:1054B000F2CF4695F1DF08C0161617061806991F99
:1054C000F1CF86957105610508940895E894BB278E
:1054D00066277727CB0197F9089565DF08F48FEFEA
:1054E00008959B01AC0160E070E080E89FE38ACE04
:1054F0000BD0B9CFAADF28F0AFDF18F0952309F061
:1055000076CF7BCF1124E3CFBFDFA0F3959FD1F3FC
:10551000950F50E0551F629FF001729FBB27F00D61
:10552000B11D639FAA27F00DB11DAA1F649F6627B6
:10553000B00DA11D661F829F2227B00DA11D621F05
:10554000739FB00DA11D621F839FA00D611D221FBF
:10555000749F3327A00D611D231F849F600D211DA3
:10556000822F762F6A2F11249F5750408AF0E1F046
:1055700088234AF0EE0FFF1FBB1F661F771F881F8F
:1055800091505040A9F79E3F510570F030CF9FCF0A
:105590005F3FECF3983EDCF3869577956795B7957A
:1055A000F795E7959F5FC1F7FE2B880F911D9695A4
:1055B000879597F9089511F40EF41FCF41C06CDF61
:1055C000D0F39923D9F3CEF39F57550B87FF46D0DD
:1055D0000024A0E640EA900180585695979528F45B
:1055E000805C660F771F881F20F026173707480753
:1055F00030F4621B730B840B202931294A2BA695AA
:1056000017940794202531254A2758F7660F771FEE
:10561000881F20F026173707480730F4620B730BFA
:10562000840B200D311D411DA09581F7B901842FF8
:105630009158880F9695879508959B01AC0158CF96
:105640009F3F31F0915020F4879577956795B795F6
:10565000880F911D9695879597F908959150504020
:10566000660F771F881FD2F70895991B79E004C051
:10567000991F961708F0961B881F7A95C9F7809591
:105680000895AA1BBB1B51E107C0AA1FBB1FA61789
:10569000B70710F0A61BB70B881F991F5A95A9F7DB
:1056A00080959095BC01CD01089597FB072E16F4C7
:1056B000009407D077FD09D00E94412B07FC05D04C
:1056C0003EF4909581959F4F0895709561957F4F19
:1056D0000895A1E21A2EAA1BBB1BFD010DC0AA1F33
:1056E000BB1FEE1FFF1FA217B307E407F50720F04B
:1056F000A21BB30BE40BF50B661F771F881F991FC6
:105700001A9469F760957095809590959B01AC010E
:10571000BD01CF010895EE0FFF1F0590F491E02D1C
:1057200009942A0D3B1D4C1D5D1D6E1D7F1D801FA4
:10573000911F08950024A7FD00942A0F301D401DDD
:10574000501D601D701D801D901D08950024A7FD33
:1057500000942A1730054005500560057005800546
:1057600090050895F999FECF92BD81BDF89A9927C9
:1057700080B50895262FF999FECF1FBA92BD81BD3D
:1057800020BD0FB6F894FA9AF99A0FBE01960895C3
:04579000F894FFCFBB
:105794000C0603EC51583F713D4A3FF6283C3F7BD1
:1057A400142E3F0000203F85EB113F0AD7033F1F13
:1057B40085EB3E295CCF3E3333B33E3D0A973E8FA3
:1057C400C2753EA4703D3EB81E053E9A99993D0AA5
:1057D400D7A33CCDCC8C3FC3F5983FB81EA53FAEB4
:1057E40047B13FA470BD3F9A99C93F8FC2D53F8549
:1057F400EBE13F7B14EE3F713DFA3F33330340AEA0
:10580400470940295C0F40A47015401F851B409A2E
:10581400992140000000001021E320B820C020D3CB
:1058240020E2200000000092260E2814262D261FB8
:0458340026702600B4
:00000001FF
