:100000000C9484040C943D200C946A200C94AC0451
:100010000C94AC040C94AC040C94AC040C94AC04A0
:100020000C94AC040C94AC040C94AC040C94AC0490
:100030000C94AC040C94AC040C94AC040C94AC0480
:100040000C9497200C94AC040C94E9230C941B247E
:100050000C94AC040C94AC040C94AC040C94AC0460
:100060000C94E01E0C94AC044806520672069106ED
:10007000B006330753077407C407FD078108C80893
:100080000C099409AB09F709D611D911DC11DF115C
:10009000E211E511E811EB11EE11F111F411F71174
:1000A000FA11FD11001213162E1661168816B416D9
:1000B000A11BA11BA11BA11BA11BDE16EF161C1768
:1000C0007217A11BA11BA11BA11BA11BA11B7D17AB
:1000D0008617AC17FD174A18A11BA11BA11BA11B5A
:1000E000A11B4D185618C0180119A11BA11BA11B5B
:1000F000A11BA11BA11B46194F198819A11BA11BEC
:10010000A11BA11BA11BA11BA11B9F19A819DA19D7
:10011000A11BA11BA11BA11BA11BA11BA11BF119B1
:10012000FA192C1AA11BA11BA11BA11BA11BA11B0E
:10013000A11B461A4F1A8A1AB41A431AA11BA11BF3
:10014000A11BA11BA11BBF1ADA1A261B861B084A7A
:10015000D73B3BCE016E84BCBFFDC12F3D6C7431DB
:100160009ABD56833DDA3D00C77F11BED9E4BB4C32
:100170003E916BAAAABE000000803F000000002054
:10018000202030000028280000300000282800002F
:1001900030280028FF0000FC4000F88000F4C00078
:1001A000F0F000C0F40080F80040FC0000FF000008
:1001B000FC4000F88000F4C000F0F000C0F40080C3
:1001C000F80040FC0000FF4000FC8000F8C000F494
:1001D000F000F0F400C0F80080FC0040F02020D8CF
:1001E0004040C06060A08080E0E020C8C840B0B05F
:1001F0006098988020F02040D84060C06080A08047
:1002000020E0E040C8C860B0B08098982020F0405E
:1002100040D86060C08080A0E020E0C840C8B060E6
:10022000B0988098A0A0A03272603293878032602C
:1002300060328080603260803200000073656C65DF
:1002400063742062756E646C6500476F696E672029
:10025000746F20736C6565700043414E44592053A0
:1002600054524F424500434F4D4554205354524F32
:10027000424500524942424F4E004D4F5250482095
:100280005354524F4245004348415345004C454763
:100290004F004544474500424C494E4B2D450044D4
:1002A00041534820444F505300545241434552005B
:1002B0005345495A555245205354524F42450050D8
:1002C000554C5345005354524F42494500444F50FA
:1002D00053004859504552205354524F4245005301
:1002E00054524F424500207072696D6520423A2099
:1002F00000207072696D6520413A20006D6F646561
:100300002000616363656C2073656E736974697640
:100310006974793A204849474800616363656C20F5
:1003200073656E73697469766974793A204D4544D2
:1003300049554D00616363656C2073656E73697424
:1003400069766974793A204C4F57006D6F64652067
:1003500000616363656C206D6F64653A204F4646AB
:1003600000616363656C206D6F64653A20464C499B
:10037000505A00616363656C206D6F64653A205468
:10038000494C545900616363656C206D6F64653A34
:100390002054494C545800616363656C206D6F6450
:1003A000653A205350454544006D6F646520002038
:1003B000732D003A20692D0020736C6F742000208B
:1003C00070616C657474652042002070616C6574A6
:1003D00074652041006D6F646520003A206D6F6484
:1003E00065200020736C6F74200062756E646C650C
:1003F000200020736C6F74732D0062756E646C65E1
:10040000200020636F6E66696775726520616363A3
:100410002073656E73697469766974790020636FFF
:100420006E66696775726520616363206D6F6465D0
:100430000020636F6E666967757265207072696D02
:100440006520420020636F6E666967757265207073
:1004500072696D6520410020636F6E666967757211
:10046000652070616C6574746520420020636F6E56
:100470006669677572652070616C6574746520418A
:10048000006D6F6465200073617665643A200077C3
:10049000696C6C20736176652E2E2E200073617658
:1004A00065643A20007365743A200077696C6C20AB
:1004B0007365742E2E2E20007377697463686564EB
:1004C0003A200065646974696E673A200065646962
:1004D000740077696C6C20656469742062756E6461
:1004E0006C652E2E2E200073656C6563743A206255
:1004F000756E646C65200077696C6C2073656C6543
:1005000063742062756E646C652E2E2E20007377E6
:100510006974636865643A2062756E646C65200076
:1005200073617665643A200077696C6C207361763C
:10053000652E2E200073776974636865643A200025
:1005400073617665643A200077696C6C207361761C
:10055000652E2E2E0073776974636865643A2000F7
:10056000736176696E673A200077696C6C207361FD
:1005700076652E2E20006368616E67696E673A208B
:100580000020736C6F7473002077697468200073A7
:100590006176696E673A2000636F6E6669726D6599
:1005A000643A200077696C6C20736176652E2E2E7C
:1005B000200072656A65637420616E6420726563F1
:1005C0006F6E6669726D3A200072656A65637420A9
:1005D000616E642072657069636B3A200077696CA4
:1005E0006C2072656A6563742E2E2E200020736C59
:1005F0006F74730020776974682000736176696E88
:10060000673A2000636F6E6669726D65643A200018
:1006100073656C6563743A200073656C656374651B
:10062000643A20006E65787420636F6C6F723A20B4
:10063000007072657620636F6C6F723A200073658C
:100640006C6563743A20006578697420636F6E6628
:100650006967206D656E750077696C6C20657869D7
:10066000742E2E2E2000636F6E6669677572696E38
:10067000673A200077696C6C20656E746572206340
:100680006F6E6669672E2E2E2000656E746572206F
:10069000636F6E666967206D656E753A206D6F6475
:1006A000652000636F6E6669672E2E2E2000636FD3
:1006B0006E6A757265206F666600636F6E6A75722A
:1006C00065206F6E00746F67676C6520636F6E6A7C
:1006D0007572652E2E2E2000736C656570696E67CD
:1006E0000077696C6C20736C6565702E2E2E20006F
:1006F000636F6E6A7572653A206C69676874206F03
:100700006E00636F6E6A7572653A206C6967687413
:10071000206F666600706C6179696E673A200050E0
:1007200072696D652076302E312E352E204545506C
:10073000524F4D2056657273696F6E3A20005665B0
:100740007273696F6E206D617463682E20526561EB
:1007500064696E672073617665642073657474697B
:100760006E67732E0056657273696F6E206D6973C4
:100770006D617463682E2057726974696E672064B6
:10078000656661756C747320746F20454550524FD7
:100790004D2E000A57656C636F6D6520746F205095
:1007A00072696D6572210000000101010101010102
:1007B0000101010202020202020203030303030316
:1007C00004040404040505050506060606070707D4
:1007D00007080808080909090A0A0A0A0B0B0B0C82
:1007E0000C0C0D0D0E0E0E0F0F0F1010111111121B
:1007F000121313141414151516161717181819199F
:100800001A1A1B1B1C1C1D1E1E1F1F20202121220B
:1008100023232425252626272828292A2A2B2C2C61
:100820002D2E2E2F303131323333343536363738A2
:10083000393A3A3B3C3D3E3E3F40414243434445CA
:10084000464748494A4B4B4C4D4E4F5051525354DA
:1008500055565758595A5B5C5D5E5F6061626364D0
:10086000656667686A6B6C6D6E6F707172747576B1
:100870007778797B7C7D7E7F818283848687888977
:100880008B8C8D8E90919294959698999A9C9D9E22
:10089000A0A1A3A4A5A7A8AAABACAEAFB1B2B4B5B2
:1008A000B7B8B9BBBCBEC000000008000201000020
:1008B000030407000000000000000001020408100B
:1008C00020408001020408102001020408102004C6
:1008D00004040404040404020202020202030303E7
:1008E000030303000000002300260029000000008D
:1008F00000250028002B0000000000240027002A0B
:1009000000000912FE1D4B2411241FBECFEFD8E0BA
:10091000DEBFCDBF11E0A0E0B1E0E2EBF4E502C044
:1009200005900D92A438B107D9F725E0A4E8B1E00D
:1009300001C01D92A332B207E1F719E0C8E0D9E087
:1009400004C02297FE010E94AA29C230D107C9F72C
:100950000E948F240C94572A0C9400000F931F932D
:10096000CF93DF931F92CDB7DEB78C0169830E94CE
:10097000392A6981681741F0C8010F90DF91CF9142
:100980001F910F910C94412A0F90DF91CF911F91ED
:100990000F9108950C94392ACF93DF93A82FB0E0DC
:1009A00096E0B595A7959A95E1F78F7390E0FC01D5
:1009B000EE0FFF1FE80FF91FE458FE4FE491F0E03F
:1009C0000A2E02C0F595E7950A94E2F7EB01E88359
:1009D000FC01EE0FFF1FE80FF91FE358FE4FE491F3
:1009E000F0E00A2E02C0F595E7950A94E2F7EA01D5
:1009F000E883FC01EE0FFF1FE80FF91FE258FE4FDE
:100A0000E491F0E002C0F595E795AA95E2F7D901E7
:100A1000EC93DF91CF9108952F923F924F925F9286
:100A20006F927F928F929F92AF92BF92CF92DF92FE
:100A3000EF92FF920F931F93CF93DF9300D01F92FB
:100A4000CDB7DEB71B01F22ED02EA9829B828A82FF
:100A5000042F10E0BC0180E090E00E94B4272B013D
:100A60003C01B10180E090E00E94B4279B01AC0101
:100A7000C301B2010E9420272B013C01B801882745
:100A800077FD8095982F0E94B6274B015C016E2D53
:100A900070E0601B710B882777FD8095982F0E946E
:100AA000B627A30192010E9496289B01AC01C501C3
:100AB000B4010E9456260E948827EA81FB81608348
:100AC0000F2D10E0B801882777FD8095982F0E94A0
:100AD000B6274B015C016C2D70E0601B710B882701
:100AE00077FD8095982F0E94B627A30192010E945E
:100AF00096289B01AC01C501B4010E9456260E94B4
:100B00008827E88DF98D60830D2D10E0B8018827C6
:100B100077FD8095982F0E94B6276B017C01F981A3
:100B20006F2F70E0601B710B882777FD8095982FE1
:100B30000E94B627A30192010E9496289B01AC0156
:100B4000C701B6010E9456260E948827EA8DFB8DB8
:100B500060830F900F900F90DF91CF911F910F91B5
:100B6000FF90EF90DF90CF90BF90AF909F908F90CD
:100B70007F906F905F904F903F902F90089523E06B
:100B800030E040E050E060E070E0CB010E943826A9
:100B9000611571058105910539F061307105810597
:100BA000910521F080E1089582E0089588E008959C
:100BB0008F92AF92CF92EF920F93CF93DF93CDB7F7
:100BC000DEB7FC017583648343872487008BE28A48
:100BD000C48AA58A868A8A85878B8B85808F8C8537
:100BE000818F8D85828F8E85838F8F85848F888975
:100BF000858F8989868F8A89878F8B89818B8C895C
:100C0000838B8D8980A38E8981A38F8982A3888D10
:100C100083A3898D84A38A8D85A38B8D86A38C8DD8
:100C200087A38D8D80A78E8D81A78F8D82A788A1A8
:100C300083A7DF91CF910F91EF90CF90AF908F90DE
:100C400008952F923F924F925F926F927F928F9270
:100C50009F92AF92BF92CF92DF92EF92FF920F934B
:100C60001F93CF93DF93EC011B012A0139010F85FC
:100C700010E07C01E00EF11EF701808990E08031E8
:100C8000910508F007C4FC01EC5CFF4F0C94A82907
:100C900088819981AA81BB814A97A105B10508F491
:100CA000F8C0EAC088819981AA81BB81843491050A
:100CB000A105B10568F0188219821A821B828E8103
:100CC00090E00196F701628970E00E9453298E83BB
:100CD00088819981AA81BB818297A105B10508F01D
:100CE000D3C379C388819981AA81BB814797A10524
:100CF000B10568F0188219821A821B828E8190E0F9
:100D00000196F701628970E00E9453298E838881E1
:100D10009981AA81BB810397A105B10508F0B4C3ED
:100D20005AC388819981AA81BB81C497A105B10565
:100D300068F0188219821A821B828E8190E00196D7
:100D4000F701628970E00E9453298E83888199811E
:100D5000AA81BB810697A105B10508F095C33BC3E5
:100D600088819981AA81BB818A3F9105A105B1053E
:100D700068F0188219821A821B828E8190E0019697
:100D8000F701628970E00E9453298E8388819981DE
:100D9000AA81BB8184369105A105B10570F58E81CC
:100DA0009CE0909FF001919FF00D1124EC0FFD1F2E
:100DB000E80FF11D27E831E048E851E069E871E00B
:100DC00084890E94CC048AE891E09F938F938BE8FA
:100DD00091E09F938F931CE8812E11E0912EA090BB
:100DE0008701C0908801E090890100E020E040E0A8
:100DF00064E670E08881998190C2883C9105A105E4
:100E0000B10508F041C38E819CE0909FF001919F55
:100E1000F00D1124EC0FFD1FE80FF11D27E831E064
:100E200048E851E069E871E084890E94CC04888137
:100E300099812AE831E03F932F932BE831E03F93EB
:100E40002F93BCE88B2EB1E09B2EA12CC12CE12C62
:100E500000918701209188014091890164E670E04A
:100E6000845691095AC288819981AA81BB81883CA4
:100E70009105A105B10568F0188219821A821B82BA
:100E80008E8190E00196F701628970E00E945329FB
:100E90008E8388819981AA81BB810A97A105B105BA
:100EA00008F0F2C298C288819981AA81BB81C49757
:100EB000A105B10578F0188219821A821B828E81F1
:100EC00090E00196F701628970E0615071090E941B
:100ED00053298E8388819981AA81BB810697A105B8
:100EE000B10508F0E9C08FC1F7012289A22EB12C0B
:100EF000F1E0AF1AB108BA86A98686E18A9D600141
:100F00008B9DD00C1124C6018B549F4FAA2797FDAF
:100F1000A095BA2F488159816A817B81481759076A
:100F20006A077B0720F0188219821A821B82688167
:100F300079818A819B81EE24D7FCE094FE2C6C158C
:100F40007D058E059F0558F426E130E040E050E035
:100F50000E9467292F5F3F4F4F4F5F4F43C0EAEE1C
:100F60004E2F95014203D001439FB00D1124A60FCF
:100F7000B71FB887AF83CD0167E170E00E945329A6
:100F800044970CF481C298C0F701C288FAE0CF9E62
:100F900060011124C6018C599F4FAA2797FDA09587
:100FA000BA2F488159816A817B81481759076A079E
:100FB0007B0720F0188219821A821B82688179814E
:100FC0008A819B81EE24D7FCE094FE2C6C157D0574
:100FD0008E059F0508F058C22AE030E040E050E05E
:100FE0000E9467298CE0809FF001819FF00D112401
:100FF000EC0FFD1FE20FF31F3DC28F819885892BF7
:1010000031F4F701828990E0019798878F834F81AF
:1010100058859A01295F3F4FA3E0220F331FAA95FD
:10102000E1F7C901AA2797FDA095BA2FC880D980FA
:10103000EA80FB80C816D906EA06FB0620F0188273
:1010400019821A821B8288819981AA81BB81BA0187
:10105000660F771F660F771F6B01EE24D7FCE094B5
:10106000FE2C8C159D05AE05BF05D0F4662757FDF7
:101070006095762FE2E0B695A79597958795EA95C6
:10108000D1F7481B590B6A0B7B0B8CE0809FF0015A
:10109000819FF00D1124EC0FFD1FE40FF51FEAC135
:1010A000AB01405F5F4F662757FD6095762F841731
:1010B0009507A607B70748F48CE0809FF001819F51
:1010C000F00D1124EC0FFD1FD5C128523109690123
:1010D000EE24D7FCE094FE2C8C159D05AE05BF05D3
:1010E00008F0D2C1841B950BA60BB70B32E0B69566
:1010F000A795979587953A95D1F70196A11DB11DB2
:10110000AFC18F819885892B29F40E94BF0590E09B
:1011100098878F838F8198854096AA2797FDA09501
:10112000BA2F488159816A817B81481759076A071C
:101130007B07A8F0188219821A821B828E8190E0A8
:1011400001962F85FE01E20FF11D628970E00E9479
:1011500053298E830E94BF0590E098878F838F81EB
:101160009885AA2797FDA095BA2F488159816A8151
:101170007B81481759076A077B0708F085C18E8174
:101180009F85FE012CE0929FE00DF11D11242CC1E2
:1011900088819981AA81BB8188379105A105B10514
:1011A000B0F0188219821A821B828F81988501966D
:1011B00098878F8304975CF018861F828E8190E059
:1011C0000196F701628970E00E9453298E8368813D
:1011D00079818A819B81643671058105910508F0CA
:1011E00053C124E130E040E050E00E946729C9018A
:1011F0003A8729872F8138852115310509F4EBC0FD
:101200008217930724F48E8190E0019624C18217FF
:10121000930709F0E0C038C188819981AA81BB8118
:1012200084349105A105B105B0F0188219821A82A3
:101230001B828F819885019698878F8304975CF035
:1012400018861F828E8190E00196F701628970E016
:101250000E9453298E8388819981AA81BB818297BC
:10126000A105B10508F010C18E819CE0F92EF09E19
:10127000F001F19EF00D1124EC0FFD1FE80FF11DA0
:1012800027E831E048E851E069E871E084890E948C
:10129000CC042F8530E08E8190E00196FE01E20FB4
:1012A000F31F628970E00E945329F29EF001F39EC1
:1012B000F00D1124EC0FFD1FE80FF91F24E831E0B9
:1012C00045E851E066E871E084890E94CC048F8192
:1012D000988524E4289FF001299FF00D112488812E
:1012E00099812AE831E03F932F932BE831E03F9337
:1012F0002F932CE8822E21E0922EA0908401C090A2
:101300008501E0908601009187012091880140913C
:10131000890160E171E08E0F9F1F0E940C050F9004
:101320000F900F900F90B6C088819981AA81BB81E0
:101330004697A105B10508F44EC0188219821A8299
:101340001B828E8190E00196F701628970E00E9415
:1013500053298E8340C088819981AA81BB818E9751
:10136000A105B10540F1188219821A821B822F81D2
:10137000388589859A85892B19F482E090E002C02E
:101380008EEF9FEF820F931F98878F831816190691
:1013900064F01A8619868E8190E00196F7016289C1
:1013A00070E00E9453298E8306C04E9724F081E09E
:1013B00090E09A8789878F819885AA2797FDA095C5
:1013C000BA2F488159816A817B8184179507A607C6
:1013D000B70708F459C08E819CE0909FF001919F5F
:1013E000F00D1124EC0FFD1FE80FF11D43C08881A3
:1013F0009981AA81BB814A97A105B105F8F01882AD
:1014000019821A821B828F819885019698878F8313
:101410000397A4F018861F8289859A8501969A877A
:10142000898708975CF01A8619868E8190E001966C
:10143000F701628970E00E9453298E838881998127
:10144000AA81BB810A97A105B105F0F42E818F8195
:101450009885820F911DF701628970E00E945329DF
:101460002CE0209FF001219FF00D1124EC0FFD1FB7
:10147000E80FF91F2AE831E04BE851E06CE871E031
:1014800084890E94CC0406C010928C0110928B01BA
:1014900010928A0188819981AA81BB810196A11D40
:1014A000B11D88839983AA83BB8380918C01F1014C
:1014B000808380918B01F201808380918A01F30106
:1014C0008083DF91CF911F910F91FF90EF90DF907C
:1014D000CF90BF90AF909F908F907F906F905F90D4
:1014E0004F903F902F900895FC011082118212823C
:1014F0001382168217861086178212861186168628
:1015000015860895FC0110821182128213821682C0
:1015100010861782128611861686158608953F92C8
:101520004F925F926F927F928F929F92AF92BF92F3
:10153000CF92DF92EF92FF920F931F93CF93DF939F
:1015400000D000D000D0CDB7DEB79E838D834A0196
:101550005B0128013901DC011D968D919C911E973C
:1015600097FF04C01E961C921E921D97ED81FE816E
:101570008385823009F4B4C018F4813041F0ECC1A5
:10158000833009F422C1843009F495C1E5C1AD81ED
:10159000BE811C968C91823059F0813081F081118E
:1015A00018C00AE0302E80E090E0A0E8BFE30DC054
:1015B00099E1392E80E090E0A0E0B0E406C089E136
:1015C000382E8AE999E9A9EDBFE389839A83AB8331
:1015D000BC8320E030E0A901C501B4010E948B2842
:1015E000181624F0B7FAB094B7F8B09420E030E0C1
:1015F000A901C301B2010E948B28A3019201181610
:101600000CF05058C501B4010E9456264B015C01F4
:1016100020E030E0A901C701B6010E948B28A70194
:10162000960118160CF05058C501B4010E945626B8
:1016300020E030E040E85FE30E945526AD81BE81A6
:101640001F962C91211127C029813A814B815C8101
:101650000E948B28181644F4ED81FE8185859685BD
:1016600001969687858706C0AD81BE811E961C9225
:101670001E921D97832D90E0ED81FE812585368594
:10168000821793070CF068C181E0878789E190E0B9
:101690009687858761C120E030E040E85FE30E94E3
:1016A0008B2818164CF489E190E0AD81BE811E961E
:1016B0009C938E931D9707C0ED81FE81858596854D
:1016C000019796878587AD81BE811D968D919C91EE
:1016D0001E97181619060CF43FC11F961C923CC1A8
:1016E000A3019201C301B2010E9496282B013C0183
:1016F000A7019601C701B6010E9496289B01AC0183
:10170000C301B2010E9456260E94FD289B01AC0134
:10171000C501B4010E94C92620E030E044E353E44F
:101720000E9496282BED3FE049E450E40E942027D8
:10173000ED81FE81D784E584F684D11016C020E0C7
:1017400030E046E952EC0E941C2787FF03C081E08D
:1017500090E002C08FEF9FEFE80EF91EAD81BE81D1
:101760001E96FC92EE921D9713C020E030E046E9F1
:1017700052E40E948B2818161CF481E090E002C00D
:101780008FEF9FEFE80EF91EED81FE81F686E5866C
:101790008FE090E0AD81BE811C960C901C9702C03A
:1017A000880F991F0A94E2F71D962D913C911E9780
:1017B000821793070CF0D0C01E961C921E921D97A4
:1017C00081E0DD2009F4C5C0C3C0A5019401C501B5
:1017D000B4010E9496284B015C01A7019601C70144
:1017E000B6010E9496289B01AC01C501B4010E947C
:1017F00056260E94FD289B01AC01C301B2010E9444
:10180000C92620E030E044E353E40E9496282BED03
:101810003FE049E450E40E942027AD81BE811F963D
:10182000DC901F971D96ED90FC901E97D11014C070
:1018300020E030E046E952EC0E941C2787FF03C0FD
:1018400081E090E002C08FEF9FEFE80EF91EED817E
:10185000FE81F686E58615C020E030E046E952E4D8
:101860000E948B2818161CF481E090E002C08FEFD4
:101870009FEFE80EF91EAD81BE811E96FC92EE929E
:101880001D978FE090E0ED81FE81048402C0880FF7
:10189000991F0A94E2F725853685821793070CF085
:1018A0005BC01686158681E0D11080E0AD81BE81D7
:1018B0001F968C9351C0ED81FE819784A584B684D8
:1018C000911018C023E333E343E75FEBC701B60190
:1018D0000E941C2787FF03C081E090E002C08FEFC9
:1018E0009FEFA80EB91EAD81BE811E96BC92AE922E
:1018F0001D9715C023E333E343E75FE3C701B60158
:101900000E948B2818161CF481E090E002C08FEF33
:101910009FEFA80EB91EED81FE81B686A5868FE0E9
:1019200090E0AD81BE811C960C901C9702C0880F80
:10193000991F0A94E2F71D962D913C911E978217EC
:10194000930754F41E961C921E921D9781E09110ED
:1019500080E0ED81FE81878726960FB6F894DEBF82
:101960000FBECDBFDF91CF911F910F91FF90EF90F0
:10197000DF90CF90BF90AF909F908F907F906F90AF
:101980005F904F903F900895CF93DF93EC016B856C
:101990008C819D810E94AE048C819D816C85019615
:1019A0000E94AE048C819D81688902960E94AE04DB
:1019B0008C819D816A8903960E94AE048C819D81F1
:1019C0006C8904960E94AE048C819D816D89059678
:1019D0000E94AE048C819D816E8906960E94AE04A1
:1019E0008C819D816F8907960E94AE048C819D81B8
:1019F000688D08960E94AE048C819D81698D099640
:101A00000E94AE048C819D816A8D0A960E94AE046C
:101A10008C819D816B8D0B960E94AE048C819D8183
:101A20006C8D0C960E94AE048C819D816D8D0D96FF
:101A30000E94AE048C819D816E8D0E960E94AE0434
:101A40008C819D816F8D0F960E94AE048C819D814B
:101A5000698940960E94AE048C819D816B89419674
:101A60000E94AE048C819D8168A142960E94AE04C2
:101A70008C819D8169A143960E94AE048C819D81D9
:101A80006AA144960E94AE048C819D816BA145960B
:101A90000E94AE048C819D816CA146960E94AE048A
:101AA0008C819D816DA147960E94AE048C819D81A1
:101AB0006EA148960E94AE048C819D816FA14996CB
:101AC0000E94AE048C819D8168A54A960E94AE0456
:101AD0008C819D8169A54B960E94AE048C819D816D
:101AE0006AA54C960E94AE048C819D816BA54D9693
:101AF000DF91CF910C94AE040F931F93CF93DF939C
:101B0000EC010C811D81C8010E94CA048B87C801A9
:101B100001960E94CA048C87C80102960E94CA04DA
:101B2000888BC80103960E94CA048A8BC801049658
:101B30000E94CA048C8BC80105960E94CA048D8B32
:101B4000C80106960E94CA048E8BC80107960E949F
:101B5000CA048F8BC80108960E94CA04888FC801E6
:101B600009960E94CA04898FC8010A960E94CA0475
:101B70008A8FC8010B960E94CA048B8FC8010C96ED
:101B80000E94CA048C8FC8010D960E94CA048D8FD2
:101B9000C8010E960E94CA048E8FC8010F960E943B
:101BA000CA048F8FC80140960E94CA04898BC8015D
:101BB00041960E94CA048B8BC80142960E94CA04B7
:101BC00088A3C80143960E94CA0489A3C801449609
:101BD0000E94CA048AA3C80145960E94CA048BA326
:101BE000C80146960E94CA048CA3C80147960E9469
:101BF000CA048DA3C80148960E94CA048EA3C801D6
:101C000049960E94CA048FA3C8014A960E94CA043A
:101C100088A7C8014B960E94CA0489A7C8014C96A0
:101C20000E94CA048AA7C8014D960E94CA048BA7C5
:101C3000DF91CF911F910F91089583B78E7F83BF5E
:101C400080E00C942D20EF92FF920F931F93CF937F
:101C5000DF931F92CDB7DEB77C01FC0100811181BB
:101C6000C80169830E94392A6981681719F0C8017F
:101C70000E94412AC7010F90DF91CF911F910F91D0
:101C8000FF90EF900895AF92BF92CF92DF92EF92C4
:101C9000FF920F931F93CF93DF9300D0CDB7DEB7A2
:101CA00085E0C82E81E0D82E00E010E096EBE92E0A
:101CB00093E0F92EF60161916F01FA82E982CE017B
:101CC00001960E94230E5801FCE0AF0EB11CF801F2
:101CD000E75FFE4F6081C8018C579C4F9A838983D0
:101CE000CE0101960E94230E0F5F1F4F0A151B05A0
:101CF00071F78FEFE81AF80A00331105D9F60F9043
:101D00000F90DF91CF911F910F91FF90EF90DF9097
:101D1000CF90BF90AF900895CF92DF92EF92FF9255
:101D20000F931F93CF93DF9325E0E22E21E0F22E55
:101D3000C0E0D0E006EB13E0C8010E94392AF701A9
:101D400081937F016E01FCE0CF0ED11CCE018C5738
:101D50009C4F0E94392AFE01E75FFE4F8083219647
:101D6000CC15DD0599F70F5F1F4F0A3B83E018077D
:101D700019F7DF91CF911F910F91FF90EF90DF90B6
:101D8000CF900895CF93DF93C9E3D1E089919991E2
:101D90000E94C40C81E0C135D807C1F7DF91CF9113
:101DA0000895CF93DF93C9E3D1E0899199910E947F
:101DB0007C0D81E0C135D807C1F7DF91CF9108953F
:101DC000FF920F931F93CF93DF93F82ED62FC42F3C
:101DD0000E94E1200091A0011091A1012091A20197
:101DE0003091A301601B710B820B930B61157D4732
:101DF0008105910568F30E94E1206093A001709332
:101E0000A1018093A2019093A301EF2DF0E0E95589
:101E1000F84FE4916E2F70E089E00E948421ED2F4D
:101E2000F0E0E955F84FE4916E2F70E086E00E94F3
:101E30008421EC2FF0E0E955F84FE4916E2F70E02B
:101E400085E0DF91CF911F910F91FF900C94842139
:101E5000EF92FF920F931F93CF93DF93182F062FCC
:101E6000F42EE22ED0E0DE1589F0C0E0C23320F47B
:101E70004F2D602F812F03C040E060E080E00E9482
:101E8000E00ECF5FC43691F7DF5FEDCFDF91CF91EA
:101E90001F910F91FF90EF9008951092A501E0918E
:101EA000A6018CE0E89FF0011124E75FFE4FE0817E
:101EB000F0E0EE0FFF1FE75CFE4F80819181909371
:101EC000A8018093A7010E94740A109293011092B6
:101ED0009401109295011092960110929701109220
:101EE00098011092990110929A0110929B01109200
:101EF0009C0110929D0110929E0108952091A601CF
:101F000030E08091A50190E00196F901EB5FFE4F72
:101F1000608170E00E9453298093A5014CE0429FAC
:101F2000F001439FF00D1124E80FF91FE75FFE4F0A
:101F3000E081F0E0EE0FFF1FE75CFE4F80819181B2
:101F40009093A8018093A7010E94740A10929301B4
:101F5000109294011092950110929601109297019F
:101F6000109298011092990110929A0110929B017F
:101F700010929C0110929D0110929E0108956F9203
:101F80007F928F929F92AF92BF92CF92DF92EF9209
:101F9000FF920F931F93CF93DF933A01D62FC72F52
:101FA0006801790180347CF580320CF08054682F10
:101FB000772767FD7095872F972F0E94B62720E01F
:101FC00030E040EA51E40E942027A70196010E94D8
:101FD00096284B015C01A701960160E070E080E863
:101FE0009FE30E9455269B01AC01B3018D2F9C2FCE
:101FF0000E9496289B01AC01C501B4010E9456269F
:102000003B01D82FC92FB3018D2F9C2FDF91CF918A
:102010001F910F91FF90EF90DF90CF90BF90AF9006
:102020009F908F907F906F90089561E874E086E8AC
:1020300094E00E94DC248091A501E091A6019CE03F
:10204000E99FF0011124E80FF11DE75FFE4F608169
:1020500070E06F5F7F4F4AE050E086E894E00E94B6
:10206000C12580919101823091F038F4882361F08C
:10207000813099F467E574E012C0833059F0843000
:1020800061F46DE174E00BC06CE674E008C064E4D8
:1020900074E005C061E374E002C062E074E086E8C9
:1020A00094E00C940C256AEF73E086E894E00E94BB
:1020B000DC246091A60170E06F5F7F4F4AE050E042
:1020C00086E894E00E94C12562EF73E086E894E020
:1020D0000E94DC24E091A601F0E0EB5FFE4F4AE0B5
:1020E00050E0608186E894E00C94EE256AEE73E09F
:1020F00086E894E00E94DC246091A60170E06F5FA6
:102100007F4F4AE050E086E894E00E94C12563EEEC
:1021100073E086E894E00E94DC246091A50170E001
:102120006F5F7F4F4AE050E086E894E00E94C1254F
:102130006BED73E086E894E00E94DC248091A501B9
:10214000E091A6019CE0E99FF0011124E80FF11D48
:10215000E75FFE4F608170E06F5F7F4F4AE050E0C5
:1021600086E894E00C94C12565ED73E086E894E080
:102170000E94DC248091A501E091A6019CE0E99FEA
:10218000F0011124E80FF11DE75FFE4F608170E060
:102190006F5F7F4F4AE050E086E894E00E94C125DF
:1021A000E091A701F091A8018785811103C06AEC35
:1021B00073E002C06FEB73E086E894E00C94DC24DB
:1021C000CF930E94B41068EB73E086E894E00E941D
:1021D000DC246091A40170E06F5F7F4F4AE050E023
:1021E00086E894E00E94C12563EB73E086E894E002
:1021F0000E94DC24E091A701F091A8018091A40144
:102200009785CCE0C99FE00DF11D1124E80FF11D69
:1022100064896F7370E040E150E086E894E00E94CA
:10222000C1256FEA73E086E894E00E94DC24E09127
:10223000A701F091A8018091A4019785C99FE00DA5
:10224000F11D1124E80FF11D648970E056E07595C9
:1022500067955A95E1F74AE050E086E894E0CF911F
:102260000C94C12569EA73E086E894E00E94DC24BE
:102270008091A501E091A6019CE0E99FF001112465
:10228000E80FF11DE75FFE4F4AE050E0608186E80D
:1022900094E00E94EE25E091A701F091A8018385CA
:1022A000823069F028F4813081F467E973E00FC06F
:1022B000833041F0843049F461E673E008C065E89A
:1022C00073E005C063E773E002C061E573E086E890
:1022D00094E00C94DC246BE473E086E894E00E94C4
:1022E000DC248091A501E091A6019CE0E99FF0012A
:1022F0001124E80FF11DE75FFE4F4AE050E06081D6
:1023000086E894E00E94EE25E091A701F091A801F3
:102310008485813029F0823031F464E373E005C0B4
:102320006AE173E002C062E073E086E894E00C9436
:10233000DC246CEF72E086E894E00E94DC2480915B
:10234000A501E091A6019CE0E99FF0011124E80FAE
:10235000F11DE75FFE4F608170E06F5F7F4F4AE0E5
:1023600050E086E894E00E94C125E091A701F09139
:10237000A8018785811103C061EF72E002C066EE9B
:1023800072E086E894E00E94DC24E091A701F091DD
:10239000A8018785E80FF11D808990E08F309105B5
:1023A00090F5FC01EC5BFF4F0C94A8296FED72E0F7
:1023B0002CC062ED72E029C06DEC72E026C065ECC5
:1023C00072E023C06FEB72E020C060EB72E01DC0D2
:1023D00069EA72E01AC06FE972E017C067E972E05B
:1023E00014C062E972E011C06DE872E00EC067E8E7
:1023F00072E00BC06AE772E008C063E772E005C0F4
:1024000066E672E002C069E572E086E894E00C944A
:10241000DC242F923F924F925F926F927F928F9225
:102420009F92AF92BF92CF92DF92EF92FF920F9363
:102430001F93CF93DF9300D0CDB7DEB71F921F92CB
:102440001F926DE5F62EFF928AE58F9377E5772E42
:102450007F9214E51F93E1E55E2E5F92FEE49F2ECE
:102460009F92ABE42A2E2F92B8E4DB2EDF9288E312
:102470008F9309E0402E4F9287E08F931F921F9217
:102480001F921F921F921F921F921F921F92812CC8
:10249000A12C88E3C82EEE24E39402E022E041E080
:1024A00068E072E08DE893E00E94D8051F921F92C9
:1024B0001F921F928EE18F938BE18F9398E19F93F0
:1024C00085E18F9382E18F939FE0B92EBF922CE03C
:1024D000622E6F924F9288E08F93E3E0EF931F920A
:1024E0001F921F921F921F9287E48F9386E48F930F
:1024F00085E48F9384E48F9333E4832E42E4A42E07
:1025000053E7C52E67E0E62E08E021E041E066E2F1
:1025100072E081E693E00E94D8050FB6F894DEBF22
:102520000FBECDBF1F921F921F921F921F921F922C
:102530001F921F921F921F921F921F9281E08F93F2
:102540001F929FE59F93FF92EBE5EF93F9E5FF93D1
:102550007F9285E58F9333E53F935F929FE49F934E
:102560007DE4872EEBE4AE2EF9E4CF2EACE0EA2E2C
:1025700004E020E041E064E472E085E393E0398325
:102580000E94D8051F921F921F92FF92EAE5EF93D7
:102590007F921F935F929F922F92DF9286EC8F9390
:1025A0004F92F6E0FF931F921F921F92FF92EF93BC
:1025B0007F921F935F929F92BBE48B2E08E4A02E24
:1025C00082ECC82E99E0E92E06E022E042E062E6C5
:1025D00072E089E093E00E94D8050FB6F894DEBF60
:1025E0000FBECDBF1F922EE5322E3F929AE59F93EC
:1025F0001F92E8E5EF931F931F9252E55F939F921E
:102600001F928CE48F93DF926F92BF923F92FCE512
:10261000FF939F93EF9386E58F931F935F9330E52E
:10262000B32EBF929F924CE4842E6AE4A62E78E4E7
:10263000C72EECE0EE2E0FE021E042E060E872E011
:102640008DED92E05A830E94D8051F921F921F922F
:1026500088EC8F938FED8F938EED8F938DED8F930D
:102660008CE98F939BE99F939AE59F93E9E5EF931C
:10267000F8E1FF934F924F921F921F921F9298ED95
:102680009F9399ED9F939AED9F939BED9F938F93CB
:102690008DE98F93FEE58F2EAFE5AA2EB8E0CB2E05
:1026A00009E0E02E09E020E042E06EE972E081EB13
:1026B00092E00E94D8050FB6F894DEBF0FBECDBFE2
:1026C00089E48F935F9299E59F932F9239813F938D
:1026D000EBE5EF938DE4582E5F92F5E5FF93FF92C3
:1026E0008FE48F937F92AF926F928BE08F93AF9234
:1026F0007F929FE49F93FF92FF935F92EF933F93AC
:102700002F9299E5892E21E5A22E39E4C32E4CE0C3
:10271000E42E0BE022E043E06AED72E085E892E00F
:102720000E94D8051F92E8E5EF93EF93EF931F9275
:10273000BF92BF92BF921F92DF92DF92DF926F92A1
:102740008DE08F931F9283E78F9381E78F93EF93B1
:102750001F928BE68F9389E68F93BF921F9253E669
:10276000852E61E6A62E78E4C72E0DE021E043E039
:1027700068EF72E089E592E00E94D8050FB6F89400
:10278000DEBF0FBECDBF1F921F921F921F921F92DE
:102790001F923F929AE59F93E6E5EF935A815F93EC
:1027A0009F92EAE49E2E9F92F6E0FF938EE08F9335
:1027B0001F921F921F921F921F921F928CE58F9360
:1027C00098E59F931F93F0E58F2EACE4AA2EB6E018
:1027D000EB2E0EE020E043E066E173E08DE292E054
:1027E0000E94D8051F921F921F921F921F921F9244
:1027F0001F929F921F92DF921F923F92EF9204E0EE
:10280000D02EDF921F921F921F921F921F921F9233
:102810001F92EAE5EF931F9288E5882EA12C96E59A
:10282000C92E04E022E044E064E373E081E092E03A
:102830000E94D8050FB6F894DEBF0FBECDBF1F9221
:102840001F921F921F921F921F921F921F92FF9220
:102850009CE59F93EAE5EF938F92DF928AE08F9356
:102860001F921F921F921F921F921F921F921F92E0
:102870005F922CE4822E3AE4A32E48E4C42E54E066
:10288000E52E0AE021E044E062E573E085ED91E0A9
:102890000E94D8051F921F921F921F921F921F9293
:1028A0001F921F921F92F8E5FF931F93BF9283E040
:1028B0008F936F921F921F921F921F921F921F92CF
:1028C0001F921F921F9260E5862E7CE4A72EE3E004
:1028D000EE2E0CE020E044E060E773E089EA91E04E
:1028E0000E94D8050FB6F894DEBF0FBECDBF0E9480
:1028F000E1206093A0017093A1018093A2019093C5
:10290000A3010F900F90DF91CF911F910F91FF9036
:10291000EF90DF90CF90BF90AF909F908F907F907F
:102920006F905F904F903F902F900895CF93DF93DB
:10293000D82FC62F6CE470E089EB93E00E94E61D6F
:102940006D2F89EB93E00E94831D6C2F89EB93E040
:102950000E94831D89EB93E0DF91CF910C94FB1DC6
:1029600089EB93E00E94C21D60E087E00E9496140C
:1029700060E186E00E94961460E088E00E94961470
:1029800061E087E00C9496140F931F93CF93DF932D
:1029900000D0CDB7DEB7809164008460809364007E
:1029A00026E040E051EE60E070E086E894E00E94AE
:1029B000872380E00E946721BC01882777FD8095EE
:1029C000982F0E940C2661E089E00E940C2261E0B1
:1029D00086E00E940C2261E085E00E940C2260E00B
:1029E00082E00E940C2261E081E10E940C2261E001
:1029F00081E10E94452263E977E086E894E00E9445
:102A00000C2580E092E00E94392A8736A1F065E625
:102A100077E086E894E00E940C250E94C20E0E9496
:102A2000430E80E092E09A83898367E6CE010196A7
:102A30000E94230E0AC06EE377E086E894E00E94CD
:102A40000C250E94D10E0E948C0E6FE177E086E883
:102A500094E00E94DC244AE050E067E686E894E0D7
:102A60000E94F52509E311E0F801819191918F0110
:102A70000E94740AF1E001351F07B1F70E94B014FB
:102A8000F89410927A0085B5887F816085BD809129
:102A90008100887F816080938100789460EA7FE084
:102AA00080E090E00E9404210E94E1206093A00158
:102AB0007093A1018093A2019093A3010E944D0FF6
:102AC00081E0809304010F900F90DF91CF911F91CF
:102AD0000F91089589EB93E00E94C21D60E187E0A9
:102AE0000C9496140F931F93CF93DF936AE472E0D4
:102AF00086E894E00E940C2540E060E080E00E94BF
:102B0000E00E0E946A1560E081E10E94452260EAC1
:102B10007FE080E090E00E94042183B7817F8460A1
:102B200083BF83B7816083BFF89442E050E06DE1DA
:102B30007EE080E00E940D2081E08CBB80E685BFB6
:102B400080E485BF789488950E94E1206093A0017D
:102B50007093A1018093A2019093A301C0E0D0E003
:102B600082E00E947B22892B91F50E94E120009156
:102B7000A0011091A1012091A2013091A301601B3D
:102B8000710B820B930B61307D478105910558F0E5
:102B90000E94E1206093A0017093A1018093A201A3
:102BA0009093A3012196C93B8BE0D807C8F26CE350
:102BB00072E086E894E00E940C2525E040E860E0A1
:102BC00080E00E94280F8AE48093920105C0C93BEF
:102BD000DB4068F71092920161E081E10E9445229A
:102BE0000E94B0140E944D0F81E080930401109266
:102BF0008D0110928E0160EA7FE080E090E0DF912D
:102C0000CF911F910F910C940421CF93C82F409125
:102C1000920150E04435510508F093C5FA01ED5A90
:102C2000FF4F0C94A82980910401882371F0109221
:102C3000040165E177E086E894E00E94DC240E94CC
:102C4000761086E894E00E940825CC2309F47EC51E
:102C50001092900110928F0181E040C5811115C042
:102C600080918E01882371F080918D0191E08927F8
:102C700080938D01882319F062E077E05AC060EFFD
:102C800076E057C00E947E0F5CC580918F019091C5
:102C90009001813D974008F459C561EE76E086E8E1
:102CA00094E00E94DC2425E040E860E880E80E948F
:102CB000280F88EE93E09093900180938F0182E03B
:102CC0000DC5811109C068ED76E086E894E00E94A8
:102CD0000C250E9472153AC580918F019091900148
:102CE000893B9B4008F432C565EC76E086E894E0C9
:102CF0000E94DC2425E040E860E080E00E94280F8C
:102D000088EE93E09093900180938F0183E0E6C476
:102D1000811114C080918E0191E0892780938E01EA
:102D200010928D01882319F06AEB76E002C06EEAFA
:102D300076E086E894E00E940C2506C580918F011C
:102D400090919001893B9B4008F400C563EA76E0CE
:102D500086E894E00E94DC2425E040E060E880E81A
:102D60000E94280F84E0BAC48111F0C48091A701A9
:102D70009091A8010E94740A6AE876E086E894E0DF
:102D80000E94DC248091A501E091A6012CE0E29F45
:102D9000F0011124E80FF11DE75FFE4F608170E044
:102DA0006F5F7F4F4AE050E086E894E00E94C925BB
:102DB00081E0809304011092910120C08091040170
:102DC000882321F0109204010E941510CC2309F4ED
:102DD000BDC41092900110928F018BE07FC48111CD
:102DE0000FC08091910190E0019666E070E00E9432
:102DF00053298093910181E0809304018AE06EC49D
:102E000080918F0190919001813D974008F49EC47C
:102E100064E776E086E894E00E94DC2425E040E068
:102E200060E880E80E94280F88EE93E0909390017C
:102E300080938F018CE052C481113EC066E676E03B
:102E400086E894E00E94DC24809191018230F1F0C8
:102E500050F4882381F0813049F5E091A701F09189
:102E6000A80187870DC08330B9F08430F9F40E943F
:102E7000321182E31EC0E091A701F091A8011786EC
:102E80001092A4010E94E01084E113C0E091A70118
:102E9000F091A801178606C0E091A701F091A80162
:102EA00081E087870E94991188E203C00E946B111C
:102EB0008CE3809392018AC180918F01909190015F
:102EC000893B9B4008F442C468E576E086E894E0DC
:102ED0000E94DC2425E040E860E880E80E94280F9A
:102EE0008DE0FCC3811132C48091A7019091A801AB
:102EF0000E94740A67E476E0C4C1882309F426C4FA
:102F00001092900110928F0185E1E8C3811102C0F7
:102F100086E1E4C380918F0190919001813D9740BB
:102F200008F414C46EE376E086E894E00E94DC24A2
:102F30000E94E01086E894E00E94082525E040E425
:102F400060E480E40E94280F88EE93E09093900163
:102F500080938F0187E1C2C3882321F1E091A7010B
:102F6000F091A80197858091A4012CE0929FE00D3B
:102F7000F11D1124E80FF11D848990E0CE966FE3D6
:102F800070E00E945329848B61E376E086E894E048
:102F90000E94DC240E94E01086E894E00E9408254C
:102FA00088E19CC380918F01909190018D3B92406C
:102FB00008F4CCC3E091A701F091A8019785809116
:102FC000A4012CE0929FE00DF11D1124E80FF11DEA
:102FD000848990E001966FE370E00E945329848B0E
:102FE00064E276E086E894E00E94DC240E94E0102F
:102FF00086E894E00E940825A5C0811119C0E091DF
:10300000A701F091A8018785E80FF11D8091A40127
:103010008F5F828B69E176E086E894E00E94DC2491
:103020000E94E01086E894E00E9408258EE156C3D5
:1030300080918F0190919001813D974008F486C363
:10304000E091A701F091A80197858091A4012CE05F
:10305000929FE00DF11D1124E80FF11D8489805C21
:10306000848B60E176E086E894E00E94DC240E9494
:10307000E01086E894E00E94082525E040E460E442
:1030800080E40E94280F88EE93E090939001809353
:103090008F015CC381115AC355C0882309F456C3FC
:1030A0001092900110928F018FE118C381114CC0D2
:1030B0008091A4018F5F8093A40164E076E086E8AC
:1030C00094E00E94DC240E94E01086E894E00E94D4
:1030D00008258091A4018C30A9F58091A7019091D9
:1030E000A8010E94C40C8091A7019091A8010E94A0
:1030F000740A6BEF75E086E894E00E94DC240E947D
:10310000B41064EF75E086E894E00E94DC24E0915E
:10311000A701F091A8018785E80FF11D4AE050E072
:10312000628986E894E00E94EE256DEE75E086E8FF
:1031300094E00E940C2525E040E860E880E80E94C9
:10314000280F02C384E1CAC280918F01909190013F
:10315000813D974008F4FAC26DED75E086E894E091
:103160000E94DC2425E040E060E080E80E94280F17
:1031700088EE93E09093900180938F0180E2AEC23D
:10318000811129C08091A401811108C069EC75E00A
:1031900086E894E00E940C2584E114C0815080935D
:1031A000A401E091A701F091A8018785E80FF11D26
:1031B00082898150828B62EB75E086E894E00E9400
:1031C000DC248EE1809392010E94E01086E894E076
:1031D0000E940825BBC280918F0190919001893B8C
:1031E0009B4008F4B3C264EA75E086E894E00E946C
:1031F000DC2425E040E860E880E80E94280F81E2B6
:103200006DC28111A3C268E975E086E894E00E946E
:10321000DC240E94E01086E894E00E94082580915A
:10322000A7019091A801FC012785E20FF11D2091D3
:10323000A4012F5F228B0E94C40C8091A701909162
:10324000A8010E94740A6FE875E086E894E00E9485
:10325000DC240E94B41068E875E086E894E00E94DF
:10326000DC24E091A701F091A8018785E80FF11D0A
:103270004AE050E0628986E894E00E94EE2561E829
:1032800075E086E894E00E940C255BC2882309F46F
:103290005DC21092900110928F0189E21FC28111CC
:1032A00021C0E091A701F091A8018785E80FF11DE9
:1032B000808990E001968F709927808B66E775E092
:1032C00086E894E00E94DC240E94991186E894E04C
:1032D0000E9408258091A7019091A8010E94820A6E
:1032E00088E2FCC180918F0190919001883B9B40C6
:1032F00008F42CC269E675E086E894E00E94DC24BC
:1033000025E040E860E880E80E94280F8AE2E6C1F4
:1033100081111CC28091A7019091A8010E94C40C48
:103320008091A7019091A8010E94820A60E675E051
:1033300086E894E00E94DC240E949911FEC1882353
:1033400009F404C21092900110928F0183E3C6C168
:1033500081111AC0E091A701F091A801838590E046
:10336000019665E070E00E945329838765E575E06A
:1033700086E894E00E94DC240E94321186E894E002
:103380000E94082582E3AAC180918F01909190014B
:10339000883B9B4008F4DAC168E475E086E894E075
:1033A0000E94DC2425E040E860E880E80E94280FC5
:1033B00084E394C18111CAC18091A7019091A801B1
:1033C0000E94C40C8091A7019091A8010E94740AE8
:1033D00060E475E086E894E00E94DC240E943211EB
:1033E000ACC1882309F4B2C11092900110928F01F0
:1033F0008DE374C181111AC0E091A701F091A80179
:10340000848590E0019663E070E00E9453298487F0
:1034100065E375E086E894E00E94DC240E946B116D
:1034200086E894E00E9408258CE358C180918F01C2
:1034300090919001883B9B4008F488C168E275E058
:1034400086E894E00E94DC2425E040E860E880E81B
:103450000E94280F8EE342C1811178C18091A7019B
:103460009091A8010E94C40C8091A7019091A8019D
:103470000E94740A60E275E086E894E00E94DC2411
:103480000E946B115AC1811161C126C0882309F4C1
:103490005DC11092900110928F0187E41FC18111CC
:1034A0001DC08091A60190E00196837099278093BA
:1034B000A6010E944D0F6EE075E086E894E00E9440
:1034C000DC246091A60170E06F5F7F4F4AE050E01E
:1034D00086E894E00E94C92586E400C180918F01AE
:1034E00090919001883B9B4008F430C167EF74E0F5
:1034F00086E894E00E94DC2425E040E860E080E07B
:103500000E94280F88EE93E09093900180938F01A2
:1035100088E4E4C0811112C067EE74E086E894E0AC
:103520000E94DC246091A60170E06F5F7F4F4AE04B
:1035300050E086E894E00E94C92503C180918F0184
:1035400090919001883B9B4008F400C162ED74E0CB
:1035500086E894E00E94DC2425E040E060E880E812
:103560000E94280F89E4BAC08111F0C00E944D0F5B
:103570006DEC74E086E894E00E940C25ABC080916D
:103580000401882371F063EC74E086E894E00E9403
:10359000DC240E94761086E894E00E9408251092B0
:1035A0000401CC2309F4D2C01092900110928F0133
:1035B00081E594C081112EC0E091A6018091A50102
:1035C0009CE0E99FF0011124E80FF11DE75FFE4F39
:1035D000808190E001966CE070E00E945329808326
:1035E000FC01EE0FFF1FE75CFE4F808191819093FD
:1035F000A8018093A7010E94740A68EB74E086E832
:1036000094E00E94DC240E94761086E894E00E94F8
:10361000082563C080918F0190919001883B9B4069
:1036200008F494C06BEA74E086E894E00E94DC241D
:1036300025E040E860E080E80E94280F88EE93E0F3
:103640009093900180938F0182E548C0811149C019
:103650008091A5018F5F8093A50165EA74E086E8FB
:1036600094E00E94DC240E94761086E894E00E9498
:1036700008258091A501E091A6018C30A9F4F0E025
:10368000EB5FFE4F80830E94430E0E944D0F6DE959
:1036900074E086E894E00E94DC240E94531086E8DF
:1036A00094E00E94082550C02CE0E29FF001112414
:1036B000E80FF11DE75FFE4FE081F0E0EE0FFF1F26
:1036C000E75CFE4F808191819093A8018093A701D0
:1036D0000E94740A81E08093040180E58093920146
:1036E00035C080918F0190919001883B9B4070F193
:1036F0006FE874E086E894E00E94DC2425E040E86E
:1037000060E880E80E94280F83E5E8CF81111EC0A1
:10371000E091A601F0E0EB5FFE4F8091A5018F5F85
:1037200080830E94430E0E944D0F67E874E086E894
:1037300094E00E94DC240E94531086E894E00E94EA
:10374000082581E0809304011092920180918F01FD
:103750009091900101969093900180938F01CF9169
:1037600008950F931F93CF93DF9300D000D0CDB770
:10377000DEB76CE470E089EB93E00E94E61DE09117
:10378000B903F091BA030190F081E02D60E089EB7C
:1037900093E0099589EB93E00E94FB1D43E050E024
:1037A0006CE470E089EB93E00E94D91D89EB93E013
:1037B0000E942B1D892B09F466C040919B015091FA
:1037C0009C0160919D0170919E0189EB93E049837A
:1037D0005A836B837C830E94331D06E616E626E639
:1037E0003FE349815A816B817C810E94BF0F6093C6
:1037F0009B0170939C0180939D0190939E01409149
:103800009701509198016091990170919A0189EB0B
:1038100093E049835A836B837C830E94331D06E6C1
:1038200016E626E63FE349815A816B817C810E943E
:10383000BF0F6093970170939801809399019093C3
:103840009A0140919301509194016091950170917A
:10385000960189EB93E049835A836B837C830E94B2
:10386000331D06E616E626E63FE349815A816B8161
:103870007C810E94BF0F60939301709394018093A9
:103880009501909396010F900F900F900F90DF91FC
:10389000CF911F910F910895CF92DF92EF92FF92F7
:1038A0000F931F93CF93DF9300D01F92CDB7DEB756
:1038B00082E00E947B2221E0892B09F020E0822F08
:1038C0000E94051680919F018A3010F010929F018E
:1038D00080919F01811125C00E94B11B80919201AE
:1038E0008A508C33F0F0C0909301D0909401E09016
:1038F0009501F09096010091970110919801209107
:10390000990130919A0140919B0150919C016091E5
:103910009D0170919E018091A7019091A8010E9444
:103920008F0A80919F018F5F80939F018091920108
:103930008A3080F49E012F5F3F4FAE014E5F5F4F94
:10394000BE016D5F7F4F8091A7019091A8010E94F9
:10395000210665C08431A8F480919101823009F478
:1039600055C038F4882309F456C0813009F44AC0A0
:1039700036C0833019F08430A9F131C01B828FEF3B
:1039800037C0E091A701F091A8018E31B8F4809181
:10399000A40197852CE0929FE00DF11D1124E80F02
:1039A000F11D9E012F5F3F4FAE014E5F5F4FBE0185
:1039B0006D5F7F4F84890E94CC0431C0823308F44C
:1039C000B9CF8C33B8F483858230E1F018F48130BC
:1039D00011F10CC0833019F0843021F007C08FEF53
:1039E0008B8302C01B828FEF8A8318C080E48B8395
:1039F0008A830FC0863408F09DCF8485813031F0F2
:103A0000823049F41B821A828FEF03C08FEF8B83C1
:103A10001A82898304C08FEF8B831A821982809166
:103A20008E01882339F080918D01882319F01B8243
:103A30001A82198249816A818B810E94E00E0F905F
:103A40000F900F90DF91CF911F910F91FF90EF900A
:103A5000DF90CF9008958091E90390E02091EA03F0
:103A6000821B910908952091EA038091E9032817A8
:103A700050F4E22FF0E0E551FC4F808190E02F5FA1
:103A80002093EA0308958FEF9FEF0895E091EA03F2
:103A90008091E903E81730F4F0E0E551FC4F8081B4
:103AA00090E008958FEF9FEF08950895CF92DF92F1
:103AB000EF92FF920F931F93CF93DF937C01CB0183
:103AC0008A012091C503222389F0EB016B01C40E0A
:103AD000D51ECC15DD0569F06991D701ED91FC91FA
:103AE0000190F081E02DC7010995F3CF642F0E946A
:103AF000B71EC801DF91CF911F910F91FF90EF90FA
:103B0000DF90CF900895CF93DF931F92CDB7DEB7AC
:103B100069832091C5032223D1F02091C60320326E
:103B200040F021E030E0FC013383228380E090E02C
:103B300015C08091C703E82FF0E0E853FC4F99814E
:103B400090838F5F8093C7038093C60305C061E0B5
:103B5000CE0101960E94B71E81E090E00F90DF91A8
:103B6000CF910895FC011382128248EE53E060E089
:103B700070E0448355836683778386E591E0918383
:103B8000808308951092EA031092E9031092C7030C
:103B90001092C6030C94021E862F413208F040E2B8
:103BA0006BEE73E00E94201E1092EA038093E903FB
:103BB000089521E00C94CC1D81E08093C5036093AF
:103BC000E8031092C7031092C60308950C94DC1DFD
:103BD0000F93062F21E04091C60368EC73E08091BB
:103BE000E8030E94641E1092C7031092C60310924D
:103BF000C5030F91089561E00C94E81D89EB93E0F3
:103C00000C94B21D1092780481E080937604109297
:103C1000750461E082E10E94452261E083E10E9437
:103C20004522E9EBF0E080818E7F808380818D7F6B
:103C3000808388E48093B80085E48093BC00089575
:103C4000413208F03FC0909178049111FCCF91E08F
:103C500090937804209376042FEF20930B04109216
:103C60005004240F20934F0490937704909177048D
:103C7000880F892B8093770480917504813041F4FB
:103C800010927504809177048093BB0085EC01C08D
:103C900085EE8093BC00809178048130E1F38091BF
:103CA0005004841710F44091500421E534E0FB01E6
:103CB000D9018A2F821B841718F48D918193F9CF33
:103CC000842F089580E008950F93413208F046C094
:103CD000909178049111FCCF92E090937804009336
:103CE00076049FEF90930B041092500440934F047E
:103CF000FB0161E574E0DB019A2F961B941718F421
:103D000091919D93F9CF1092770490917704880F49
:103D1000892B8093770480917504813041F410924F
:103D20007504809177048093BB0085EC01C085EE1B
:103D30008093BC00222321F0809178048230E1F34B
:103D400080910B048F3F61F080910B04803251F021
:103D500080910B04803341F483E007C081E005C00B
:103D600080E003C082E001C084E00F9108956132D9
:103D700098F420917804243089F460932D04FC0198
:103D80008FE294E0DC012A2F281B261718F42191DA
:103D90002D93F9CF80E0089581E0089582E00895A1
:103DA00085ED8093BC008091BC0084FDFCCF109217
:103DB0007804089585EC8093BC00109278040895EF
:103DC0001F920F920FB60F9211242F933F934F9390
:103DD0005F936F937F938F939F93AF93BF93EF9373
:103DE000FF938091B900887F803609F49CC068F504
:103DF000883209F45BC090F4803109F454C038F47F
:103E0000882309F4F5C0883009F44DC0F5C0883125
:103E100009F44CC0803209F45DC0EEC0803409F46E
:103E200068C048F4803309F455C0883309F0E4C011
:103E300080930B04A8C0803509F44FC0883509F47D
:103E40005DC0883409F0D8C0D5C0883909F4C6C02F
:103E5000A8F4883709F467C038F4883609F463C0D9
:103E6000803709F460C0C8C0883809F4B7C0803909
:103E700009F45FC0803809F0BFC05BC0803B09F423
:103E800085C038F4803A09F466C0883A09F47EC0E7
:103E9000B3C0803C09F4A6C0883C09F4A3C0883BA9
:103EA00009F489C0A9C08091770410C09091500492
:103EB00080914F04981770F5E091500481E08E0FC7
:103EC00080935004F0E0EF5AFB4F80818093BB0059
:103ED00085EC85C080930B048DC0E091500481E097
:103EE0008E0F809350048091BB00F0E0EF5AFB4F9F
:103EF00080839091500480914F046DC0E0915004F4
:103F000081E08E0F809350048091BB00F0E0EF5A67
:103F1000FB4F80838091760481116CC081E0809397
:103F2000750484EA60C083E08093780410920C04E6
:103F3000CFCF80910C04803208F050C0E0910C0487
:103F400081E08E0F80930C048091BB00F0E0E35F72
:103F5000FB4F8083BDCF80910C04803230F4E09120
:103F60000C04F0E0E35FFB4F10820E94D01E6091D2
:103F70000C0470E0E0917104F09172048DE094E023
:103F8000099510920C040E94DA1E36C084E08093DA
:103F9000780410922E0410922D04E0917304F09195
:103FA0007404099580912D04811105C081E08093EE
:103FB0002D0410922F04E0912E0481E08E0F809347
:103FC0002E04F0E0E15DFB4F80818093BB00909177
:103FD0002E0480912D04981708F47ACF85E88093F9
:103FE000BC000AC085EC8093BC001092780404C029
:103FF00010920B040E94D01EFF91EF91BF91AF91E0
:104000009F918F917F916F915F914F913F912F91F0
:104010000F900FBE0F901F9018958230E8F4E82F94
:10402000F0E0EE0FFF1FE758FB4F71836083813094
:1040300041F0809169008C7F842B80936900E89A1D
:10404000089580916900440F551F440F551F837FC9
:10405000842B80936900E99A0895823068F4813056
:1040600011F0E89801C0E998E82FF0E0EE0FFF1F8B
:10407000E758FB4F1182108208951F920F920FB6DE
:104080000F9211242F933F934F935F936F937F93DE
:104090008F939F93AF93BF93EF93FF938091790496
:1040A00090917A04892B29F0E0917904F0917A04B7
:1040B0000995FF91EF91BF91AF919F918F917F9162
:1040C0006F915F914F913F912F910F900FBE0F9085
:1040D0001F9018951F920F920FB60F9211242F93D5
:1040E0003F934F935F936F937F938F939F93AF9380
:1040F000BF93EF93FF9380917B0490917C04892B75
:1041000029F0E0917B04F0917C040995FF91EF91F7
:10411000BF91AF919F918F917F916F915F914F91DF
:104120003F912F910F900FBE0F901F9018951F92E7
:104130000F920FB60F9211242F933F938F939F935B
:10414000AF93BF9380917E0490917F04A0918004EF
:10415000B091810430917D0423E0230F2D3720F4AA
:104160000196A11DB11D05C026E8230F0296A11DD1
:10417000B11D20937D0480937E0490937F04A093CF
:104180008004B09381048091820490918304A09173
:104190008404B09185040196A11DB11D8093820411
:1041A00090938304A0938404B0938504BF91AF914E
:1041B0009F918F913F912F910F900FBE0F901F9065
:1041C00018953FB7F8948091820490918304A09150
:1041D0008404B091850426B5A89B05C02F3F19F033
:1041E0000196A11DB11D3FBF6627782F892F9A2FF9
:1041F000620F711D811D911D42E0660F771F881FA0
:10420000991F4A95D1F70895CF92DF92EF92FF92CE
:10421000CF93DF936B017C010E94E120EB01C1147D
:10422000D104E104F10489F00E9454260E94E120A7
:104230006C1B7D0B683E734090F381E0C81AD10877
:10424000E108F108C851DC4FEACFDF91CF91FF9030
:10425000EF90DF90CF900895789484B5826084BD0C
:1042600084B5816084BD85B5826085BD85B581607A
:1042700085BDEEE6F0E0808181608083E1E8F0E0DA
:104280001082808182608083808181608083E0E809
:10429000F0E0808181608083E1EBF0E080818460E8
:1042A0008083E0EBF0E0808181608083EAE7F0E0EA
:1042B000808184608083808182608083808181604E
:1042C00080838081806880831092C10008958E3041
:1042D00008F08E5087702091510190E4299F900141
:1042E0001124822B80937C0080917A0080648093DB
:1042F0007A0080917A0086FDFCCF80917800209131
:10430000790090E0922B08951F93CF93DF93182F9D
:10431000EB0161E00E940C22209711F460E004C0E0
:10432000CF3FD10539F461E0812FDF91CF911F910B
:104330000C944522E12FF0E0E955F74FE491E3308A
:10434000F9F048F4E130B9F0E230A1F584B58062CB
:1043500084BDC8BD34C0E730E9F0E83019F1E4307D
:1043600049F580918000806280938000D0938B001B
:10437000C0938A0024C084B5806884BDC7BD1FC0B7
:1043800080918000806880938000D0938900C093E2
:10439000880015C08091B00080688093B000C09301
:1043A000B3000DC08091B00080628093B000C093D4
:1043B000B40005C0C038D1050CF0B5CFAFCFDF9148
:1043C000CF911F910895833081F028F4813099F0C6
:1043D0008230A1F008958730A9F08830B9F0843098
:1043E000D1F4809180008F7D03C0809180008F7711
:1043F00080938000089584B58F7702C084B58F7D47
:1044000084BD08958091B0008F7703C08091B00083
:104410008F7D8093B0000895CF93DF9390E0FC01EF
:10442000E554F74F2491FC01E153F74F8491882321
:1044300049F190E0880F991FFC01E950F74FA591D1
:10444000B4918351974FFC01C591D4919FB76111ED
:1044500008C0F8948C91209582238C9388818223C4
:104460000AC0623051F4F8948C91322F3095832336
:104470008C938881822B888304C0F8948C91822B42
:104480008C939FBFDF91CF9108950F931F93CF938C
:10449000DF931F92CDB7DEB7282F30E0F901E95541
:1044A000F74F8491F901E554F74F1491F901E15365
:1044B000F74F04910023C9F0882321F069830E94FB
:1044C000E3216981E02FF0E0EE0FFF1FE351F74F8A
:1044D000A591B4919FB7F8948C91611103C0109588
:1044E000812301C0812B8C939FBF0F90DF91CF91CF
:1044F0001F910F910895CF93DF93282F30E0F9019A
:10450000E955F74F8491F901E554F74FD491F9013A
:10451000E153F74FC491CC2391F081110E94E32124
:10452000EC2FF0E0EE0FFF1FED51F74FA591B49186
:104530002C912D2381E090E021F480E002C080E006
:1045400090E0DF91CF910895FC01818D228D90E064
:10455000805C9F4F821B91098F7399270895FC01FE
:10456000918D828D981731F0828DE80FF11D858D28
:1045700090E008958FEF9FEF0895FC01918D828D5B
:10458000981761F0828DDF01A80FB11D5D968C91A7
:10459000928D9F5F9F73928F90E008958FEF9FEFB2
:1045A000089581E494E2892B49F080E090E0892B22
:1045B00029F00E94412481110C9400000895FC010F
:1045C000848DDF01A80FB11DA35ABF4F2C91848D9C
:1045D00090E001968F739927848FA689B7892C93D1
:1045E000A089B1898C9180648C93938D848D98136C
:1045F00006C00288F389E02D80818F7D8083089535
:10460000CF93DF93EC01888D8823C9F0EA89FB8979
:10461000808185FD05C0A889B9898C9186FD0FC070
:104620000FB607FCF5CF808185FFF2CFA889B98945
:104630008C9185FFEDCFCE010E94DF22E7CFDF9185
:10464000CF910895CF92DF92FF920F931F93CF9354
:10465000DF931F92CDB7DEB76C0181E0D60158968B
:104660008C9358975B969C915B975C968C915C972A
:10467000981307C05096ED91FC915197808185FD6C
:104680002EC0F601038D10E00F5F1F4F0F7311272F
:10469000F02EF601848DF81211C00FB607FCF9CF89
:1046A000D6015096ED91FC915197808185FFF1CF15
:1046B000C60169830E94DF226981EBCF838DE80FF9
:1046C000F11DE35AFF4F6083D6015B960C935B9715
:1046D0005296ED91FC915397808180620CC0D60177
:1046E0005696ED91FC91579760835096ED91FC9111
:1046F000519780818064808381E090E00F90DF910A
:10470000CF911F910F91FF90DF90CF900895BF92AE
:10471000CF92DF92EF92FF92CF93DF93EC016A0189
:104720007B01B22EE889F98982E08083411581EE10
:10473000580761057105A1F060E079E08DE390E034
:10474000A70196010E9467292150310941095109A9
:104750005695479537952795211580E1380798F0AC
:10476000E889F989108260E874E88EE190E0A70199
:1047700096010E9467292150310941095109569536
:10478000479537952795EC85FD853083EE85FF8528
:104790002083188EEC89FD89B082EA89FB898081AB
:1047A00080618083EA89FB89808188608083EA89CF
:1047B000FB89808180688083EA89FB8980818F7D85
:1047C0008083DF91CF91FF90EF90DF90CF90BF90EB
:1047D00008951F920F920FB60F9211242F938F936B
:1047E0009F93EF93FF93E0919604F091970480815B
:1047F000E0919C04F0919D0482FD12C09081809113
:104800009F048F5F8F732091A004821751F0E09175
:104810009F04F0E0EA57FB4F958F80939F0401C0FF
:104820008081FF91EF919F918F912F910F900FBEFB
:104830000F901F9018951F920F920FB60F92112490
:104840002F933F934F935F936F937F938F939F9398
:10485000AF93BF93EF93FF9386E894E00E94DF222B
:10486000FF91EF91BF91AF919F918F917F916F9148
:104870005F914F913F912F910F900FBE0F901F901E
:10488000189586E894E00E94A42221E0892B09F47F
:1048900020E0822F0895109289041092880488EEF7
:1048A00093E0A0E0B0E080938A0490938B04A093FF
:1048B0008C04B0938D0486E691E0909387048093F6
:1048C000860485EC90E0909393048093920484ECAA
:1048D00090E0909395048093940480EC90E0909302
:1048E00097048093960481EC90E0909399048093D0
:1048F000980482EC90E090939B0480939A0486EC59
:1049000090E090939D0480939C0410929F041092D9
:10491000A0041092A1041092A204089508950E9488
:104920002C210E948E240E94C414C1EDD2E20E9468
:104930004C1C2097E1F30E94D122F9CFCF92DF9255
:10494000EF92FF920F931F93CF93DF936C017A0145
:10495000EB01E60EF71E00E010E0CE15DF0561F07A
:104960006991D601ED91FC910190F081E02DC60195
:104970000995080F191FF1CFC801DF91CF911F9141
:104980000F91FF90EF90DF90CF9008956115710522
:1049900081F0DB010D900020E9F7AD014150510994
:1049A000461B570BDC01ED91FC910280F381E02D59
:1049B000099480E090E00895EF92FF920F931F9387
:1049C000CF93DF938C01FB01C0E0D0E064917F01C5
:1049D0008FEFE81AF80A662361F0D801ED91FC9197
:1049E0000190F081E02DC8010995C80FD91FF7018A
:1049F000EDCFCE01DF91CF911F910F91FF90EF90FE
:104A00000895DC01ED91FC910190F081E02D099475
:104A100062E771E00C94C6240F931F93CF93DF934A
:104A2000EC010E94DC248C01CE010E940825800F3D
:104A3000911FDF91CF911F910F9108958F929F92B7
:104A4000AF92BF92CF92DF92EF92FF920F931F939C
:104A5000CF93DF93CDB7DEB7A1970FB6F894DEBF43
:104A60000FBECDBF7C01C42EE52FCB01D22E19A2E3
:104A700021E02D1510F02AE0D22E8E010F5D1F4F80
:104A80008D2C912CA12CB12C6C2D7E2FA501940185
:104A90000E9467298C2DD29E801911240150110982
:104AA0008A3014F4805D01C0895CF801808321158F
:104AB00031054105510521F0C22EE32FCA01E4CF93
:104AC000B801C7010E94C624A1960FB6F894DEBFB4
:104AD0000FBECDBFDF91CF911F910F91FF90EF904F
:104AE000DF90CF90BF90AF909F908F900895CF921E
:104AF000DF92EF92FF920F931F93CF93DF93EC011E
:104B00006A017B012115310579F4E881F981019071
:104B1000F081E02D642FDF91CF911F910F91FF90D5
:104B2000EF90DF90CF9009942A303105E9F477FFB8
:104B30001AC06DE20E9401258C0144275527BA0155
:104B40004C195D096E097F092AE0CE010E941E25DD
:104B5000800F911FDF91CF911F910F91FF90EF90E8
:104B6000DF90CF9008952AE0B701A601CE01DF9132
:104B7000CF911F910F91FF90EF90DF90CF900C9409
:104B80001E259A01AB01662757FD6095762F0C9480
:104B900077250F931F93CF93DF93EC019A01AB011D
:104BA000662757FD6095762F0E9477258C01CE01F0
:104BB0000E940825800F911FDF91CF911F910F91C7
:104BC00008952115310541F4DC01ED91FC9101902E
:104BD000F081E02D642F09940C941E259A01462F34
:104BE00050E060E070E00C94E1250F931F93CF93A9
:104BF000DF93EC019A01462F50E060E070E00E94E4
:104C0000E1258C01CE010E940825800F911FDF91C4
:104C1000CF911F910F91089561157105810591053F
:104C200011F00C94302A0895CF93DF9300D000D078
:104C3000CDB7DEB79B01AC0161157105810591050A
:104C400069F069833A834B835C830E942B2A298114
:104C50003A814B815C810E94892903C060E070E049
:104C6000CB010F900F900F900F90DF91CF9108958F
:104C7000CF92DF92EF92FF926B017C016217730774
:104C80008407950764F4CA01B9016C197D098E097E
:104C90009F090E9414266C0D7D1D8E1D9F1DFF9087
:104CA000EF90DF90CF90089508955058BB27AA2722
:104CB0000ED0F7C1E8D130F0EDD120F031F49F3FB4
:104CC00011F41EF4B8C10EF4E095E7FBAEC1E92F74
:104CD000F9D180F3BA17620773078407950718F0B4
:104CE00071F49EF511C20EF4E0950B2EBA2FA02D93
:104CF0000B01B90190010C01CA01A0011124FF2789
:104D0000591B99F0593F50F4503E68F11A16F04083
:104D1000A22F232F342F4427585FF3CF4695379582
:104D20002795A795F0405395C9F77EF41F16BA0B47
:104D3000620B730B840BBAF09150A1F0FF0FBB1FF5
:104D4000661F771F881FC2F70EC0BA0F621F731F3E
:104D5000841F48F4879577956795B795F7959E3F9B
:104D600008F0B3CF9395880F08F09927EE0F979529
:104D70008795089588D158F080E891E009F49EEF76
:104D800089D128F040E851E059F45EEF09C053C1E1
:104D9000BBC1E92FE07896D168F3092E052AC1F34B
:104DA000261737074807590738F00E2E07F8E02571
:104DB00069F0E025E0640AC0EF6307F8009407FAA1
:104DC000DB01B9019D01DC01CA01AD01EF9347D0C0
:104DD00068D10AD05F91552331F02BED3FE049E4D3
:104DE00050FD49EC63CF0895DF93DD27B92FBF77DE
:104DF00040E85FE31616170648075B0710F4D92F43
:104E00008ED19F938F937F936F9335D2EEE4F1E031
:104E100015D147D12F913F914F915F9193D1DD23D0
:104E200049F09058A2EA2AED3FE049EC5FE3D078E0
:104E30005D274DDFDF9135C1D4D008F481E00895BE
:104E40000CD02FC127D140F01ED130F021F45F3FAC
:104E500019F0EBC0511159C1EEC034D198F3992328
:104E6000C9F35523B1F3951B550BBB27AA2762172E
:104E70007307840738F09F5F5F4F220F331F441F73
:104E8000AA1FA9F333D00E2E3AF0E0E830D09150AB
:104E90005040E695001CCAF729D0FE2F27D0660F98
:104EA000771F881FBB1F261737074807AB07B0E8D7
:104EB00009F0BB0B802DBF01FF2793585F4F2AF0ED
:104EC0009E3F510568F0B1C020C15F3FECF3983EB2
:104ED000DCF3869577956795B795F7959F5FC9F74A
:104EE000880F911D9695879597F90895E1E0660FD3
:104EF000771F881FBB1F621773078407BA0720F04C
:104F0000621B730B840BBA0BEE1F88F7E0950895B4
:104F1000E1D088F09F5790F0B92F9927B751A0F0B2
:104F2000D1F0660F771F881F991F1AF0BA95C9F73D
:104F300012C0B13081F0E8D0B1E00895E5C0672F2C
:104F4000782F8827B85F39F0B93FCCF386957795ED
:104F50006795B395D9F73EF49095809570956195D6
:104F60007F4F8F4F9F4F0895E89409C097FB3EF401
:104F700090958095709561957F4F8F4F9F4F9923A6
:104F8000A9F0F92F96E9BB279395F6958795779524
:104F90006795B795F111F8CFFAF4BB0F11F460FFE4
:104FA0001BC06F5F7F4F8F4F9F4F16C0882311F03C
:104FB00096E911C0772321F09EE8872F762F05C050
:104FC000662371F096E8862F70E060E02AF09A95EB
:104FD000660F771F881FDAF7880F9695879597F9E0
:104FE0000895990F0008550FAA0BE0E8FEEF16167A
:104FF0001706E807F907C0F012161306E407F507CD
:1050000098F0621B730B840B950B39F40A2661F040
:10501000232B242B252B21F408950A2609F4A140E3
:10502000A6958FEF811D811D089597F99F6780E8F0
:1050300070E060E008959FEF80EC0895DF93CF93D8
:105040001F930F93FF92EF92DF927B018C01689484
:1050500005C0DA2EEF0176D0FE01E894A5912591E6
:10506000359145915591AEF3EF0131DEFE01970187
:10507000A801DA9479F7DF90EF90FF900F911F91DC
:10508000CF91DF91089500240A941616170618068A
:105090000906089500240A9412161306140605063C
:1050A0000895092E0394000C11F4882352F0BB0FCD
:1050B00040F4BF2B11F460FF04C06F5F7F4F8F4F30
:1050C0009F4F089557FD9058440F551F59F05F3F6B
:1050D00071F04795880F97FB991F61F09F3F79F01A
:1050E00087950895121613061406551FF2CF46959C
:1050F000F1DF08C0161617061806991FF1CF86951E
:105100007105610508940895E894BB276627772701
:10511000CB0197F9089565DF08F48FEF08959B019F
:10512000AC0160E070E080E89FE38ACE0BD0B9CF9D
:10513000AADF28F0AFDF18F0952309F076CF7BCFF8
:105140001124E3CFBFDFA0F3959FD1F3950F50E07B
:10515000551F629FF001729FBB27F00DB11D639F29
:10516000AA27F00DB11DAA1F649F6627B00DA11DCF
:10517000661F829F2227B00DA11D621F739FB00D75
:10518000A11D621F839FA00D611D221F749F3327E5
:10519000A00D611D231F849F600D211D822F762F7E
:1051A0006A2F11249F5750408AF0E1F088234AF07B
:1051B000EE0FFF1FBB1F661F771F881F91505040C7
:1051C000A9F79E3F510570F030CF9FCF5F3FECF3C2
:1051D000983EDCF3869577956795B795F795E795B3
:1051E0009F5FC1F7FE2B880F911D9695879597F9C4
:1051F000089511F40EF41FCF41C06CDFD0F3992352
:10520000D9F3CEF39F57550B87FF46D00024A0E675
:1052100040EA900180585695979528F4805C660F77
:10522000771F881F20F026173707480730F4621BC6
:10523000730B840B202931294A2BA69517940794C8
:10524000202531254A2758F7660F771F881F20F041
:1052500026173707480730F4620B730B840B200DB9
:10526000311D411DA09581F7B901842F9158880FF8
:105270009695879508959B01AC0158CF9F3F31F0DB
:10528000915020F4879577956795B795880F911D74
:105290009695879597F9089591505040660F771F1E
:1052A000881FD2F7089597FB072E16F4009407D0B5
:1052B00077FD09D00E94B92907FC05D03EF49095EE
:1052C00081959F4F0895709561957F4F0895A1E254
:1052D0001A2EAA1BBB1BFD010DC0AA1FBB1FEE1F70
:1052E000FF1FA217B307E407F50720F0A21BB30BBB
:1052F000E40BF50B661F771F881F991F1A9469F737
:1053000060957095809590959B01AC01BD01CF0192
:105310000895052E97FB1EF400940E94A02957FDC6
:1053200007D00E94672907FC03D04EF40C94A029F3
:1053300050954095309521953F4F4F4F5F4F0895C1
:1053400090958095709561957F4F8F4F9F4F0895F1
:10535000EE0FFF1F0590F491E02D09940E94CD29D6
:10536000A59F900DB49F900DA49F800D911D1124B9
:105370000895AA1BBB1B51E107C0AA1FBB1FA6179C
:10538000B70710F0A61BB70B881F991F5A95A9F7EE
:1053900080959095BC01CD010895A29FB001B39F67
:1053A000C001A39F700D811D1124911DB29F700D2E
:1053B000811D1124911D08958F929F92AF92BF92EB
:1053C000CF92DF92EF92FF92CF93DF93EC0168814F
:1053D00079818A819B81611571058105910521F48F
:1053E00064E279ED8BE597E02DE133EF41E050E0A9
:1053F0000E94892949015A019B01AC01A7EAB1E445
:105400000E94AE296B017C01ACEEB4EFA5019401C2
:105410000E94522AC60ED71EE81EF91EF7FE06C0CD
:1054200081E0C81AD108E10880E8F80AC882D98268
:10543000EA82FB82C701B6019F77DF91CF91FF908F
:10544000EF90DF90CF90BF90AF909F908F90089596
:105450000E94DC29089580E091E00E94DC290895F3
:105460006093000170930101809302019093030106
:105470000895F999FECF92BD81BDF89A992780B51C
:105480000895262FF999FECF1FBA92BD81BD20BD88
:105490000FB6F894FA9AF99A0FBE01960895B7FFDD
:1054A0000C94AE290E94AE29821B930B0895F894A8
:0254B000FFCF2C
:1054B20001000000010C03030300010203040506BE
:1054C2000708090A0B0304050000000000000000A1
:1054D20000060708000000000000000000090A0B97
:1054E2000000000000000000008D03610335030985
:1054F20003DD02B102850259022D020102D501A982
:10550200010100000000831D561D2B1D331D461D89
:10551200551D0000000022239E24A422BD22AF229A
:1055220000230D0A006E616E00696E66006F76667A
:04553200002E000047
:00000001FF
