:100000000C946C020C940A170C9431170C94940203
:100010000C9494020C9494020C94D9020C949402C3
:100020000C9494020C9494020C9494020C949402F8
:100030000C9494020C9494020C9494020C949402E8
:100040000C9458170C9494020C94AA1A0C94DC1A71
:100050000C9494020C9494020C9494020C949402C8
:100060000C9494020C9494022D0F2F0F370F4B0F0A
:10007000500F580F6E0F700F780F8C0F0710331042
:100080005810441157116C117F114713A9114713D0
:10009000471347134713DA11ED110412471347139F
:1000A000471347134713471347131C122F125412B9
:1000B0007A1247137D124713471347134713B7129A
:1000C000CA12471347134713FD120F13084AD73BB1
:1000D0003BCE016E84BCBFFDC12F3D6C74319ABD17
:1000E00056833DDA3D00C77F11BED9E4BB4C3E913B
:1000F0006BAAAABE000000803F00000000000000C4
:1001000000000C0C2001004B000000000005004B1B
:10011000000000000003320000000000000010108A
:10012000200606061A00000D0E00001C00000E0F2F
:1001300000001E0D000F0000000000000000003451
:1001400000001A1C00003800001C1E00003C1A00B1
:100150001E000000000000000000680000343800AD
:1001600000700000383C00007834003C00000000C3
:100170000000000000000000000000010105000078
:100180000000050C20000000140500000005000020
:1001900014050000000500140005000000002020E8
:1001A000200404010D0000060034000E2D27000F6E
:1001B000000000000000000000000000000000033C
:1001C00000001A005A001C5A4E001E0000000000D9
:1001D000000000000000000000000000000000001F
:1001E000000000000000000000000000000000000F
:1001F00000000000000000000000000400000000FB
:100200000000141420050003161900000005000565
:10021000001900000003160500190000002020202E
:100220002006010100462D2746004E1C005B000FF2
:1002300034003C0D006900000000000000000000D8
:1002400000000000000000000000000000000000AE
:10025000000000000000000000000000000000009E
:10026000000000000000000000000000000000008E
:10027000000000000000000000000002020000007A
:1002800000002020200300063200000000010004CE
:1002900064000000000000000000000000002020BA
:1002A000200404010631003400B40D002D1AC400EE
:1002B000001C1E0D6200000000000000000000068F
:1002C00031003400B40D002D1AC400001C1E0D6254
:1002D000000000000000000000000000000000001E
:1002E000C00000000000000000000000000000004E
:1002F00000000000000000000000000000000000FE
:1003000000001010200A14000000000000050A0080
:100310000000000000011400000000000008081E9A
:100320001E010301D0000000E0000000F0687078BA
:10033000687078687078687078687078687078D05D
:10034000000000E0000000F0687078687078687065
:10035000786870786870786870780000F000E00065
:100360000000F068707868707868707868707868F5
:10037000707868707800000000000003040201013A
:100380000100202020010F0D0F190032000103028F
:1003900005030032000000000000000000000C0C0B
:1003A00018010203000E2D000000000000000000F4
:1003B000000000000000000000000000000000003D
:1003C0001C5A1A005A000000000000000000000043
:1003D000000000000000000000000038B43400B449
:1003E00034383C0000000000000000000000000065
:1003F00000000000000000000000000507000000F1
:10040000000010102028010905090501051E090535
:1004100001050905090A0501090105090120202036
:10042000200401010D464B1A1C5A410E4B4E1C1E56
:10043000341552133852134D3C3000806000400098
:1004400000000000000000000000000000000000AC
:10045000000000000000000000000000000000009C
:10046000000000000000000000000000000000008C
:100470000000000000000000000000000008000272
:10048000010000030407000000000000000001025A
:100490000408102040800102040810200102040812
:1004A00010200404040404040404020202020202F0
:1004B00003030303030300000000230026002900B8
:1004C00000000000250028002B0000000000240090
:1004D00027002A0036150C1B11241FBECFEFD8E0D1
:1004E000DEBFCDBF11E0A0E0B1E0E0ECFFE302C071
:1004F00005900D92AE32B107D9F723E0AEE2B1E03C
:1005000001C01D92A630B207E1F714E0C8EDD4E0B7
:1005100004C02297FE010E94451FC43DD107C9F7C0
:100520000E94C01B0C94DE1F0C9400004115510565
:1005300029F480917A008F7780937A006A30710570
:10054000B1F063FF02C088E201C088E06770682BE9
:1005500088E190E00FB6F894A895809360000FBEF4
:10056000609360008091600080648093600083B736
:10057000817F846083BF232B51F4F89483B781601B
:1005800083BF85B7806685BF8F7D85BF04C0F89423
:1005900083B7816083BF7894889583B78E7F83BF4C
:1005A0007894452B29F480917A00806880937A00B2
:1005B00008951F920F920FB60F9211248F9388E126
:1005C0000FB6F89480936000109260000FBE8F9178
:1005D0000F900FBE0F901F9018950895DC01ED91BC
:1005E000FC910190F081E02D09940F931F93CF931C
:1005F000DF931F92CDB7DEB78C01F999FECFC8010A
:1006000069830E94C01F6981681741F0C8010F907B
:10061000DF91CF911F910F910C94C81F0F90DF9124
:10062000CF911F910F910895F999FECF0C94C01F9F
:10063000181619061CF401970000FACF08953C988B
:1006400008953C9A08953D9808953D9A08951F9302
:10065000CF93DF93809518E0C82FD0E01150BE01F2
:10066000012E02C0759567950A94E2F7617082E1E8
:100670000E94CD180E9423030E9425031111EECF82
:100680000E9425030E94230383E10E9428188639D3
:100690009105B0F3DF91CF911F910C942503FF9248
:1006A0000F931F93CF93DF93F82E08E010E0C1E083
:1006B000D0E001500E941F030E94230382E10E94A8
:1006C00028189E01002E01C0220F0A94EAF78639ED
:1006D000910518F42095122301C0122B0E942503C6
:1006E0000111E7CFFF2079F00E94250381E090E01F
:1006F0000E9418030E9421030E94230381E090E0DE
:100700000E94180312C00E94250381E090E00E941D
:1007100018030E94230381E090E00E94180383E104
:100720000E9428188639910570F30E94250381E004
:1007300090E00E941803812FDF91CF911F910F91BC
:10074000FF9008951F93CF93DF93809517E0C82FF4
:10075000D0E01150BE01012E02C0759567950A9434
:10076000E2F7617082E10E94CD180E9423030E948B
:1007700025031111EECF0E9421030E9423030E9442
:1007800025030E9425030E94230383E10E94281869
:1007900086399105B0F3DF91CF911F910C94250319
:1007A0001F93CF93DF93809517E0C82FD0E01150AF
:1007B000BE01012E02C0759567950A94E2F761703B
:1007C00082E10E94CD180E9423030E94250311118B
:1007D000EECF0E941F030E9423030E9425030E9464
:1007E00025030E94230383E10E942818863991057E
:1007F000B0F3DF91CF911F910C9425030E94230346
:100800000E941F030E9421030E9423030C942503CE
:10081000CF93DF931F92CDB7DEB789830E94FE038B
:1008200089810F90DF91CF910C94A2030E94210344
:100830000E9423030C941F031F93CF93DF931F92F7
:10084000CDB7DEB7182F69830E94FE03812F0E9467
:10085000A2036981862F0E9427030E94FE03812F35
:100860000F90DF91CF911F910C94D003CF93DF9322
:1008700000D0CDB7DEB78DE14A8369830E940804BA
:100880006981862F0E9427034A81842F0E942703B3
:100890000E94160461E070E080E090E00F900F90FD
:1008A000DF91CF910C94C517FF920F931F93CF93B5
:1008B000DF93C9E1D1E001E111E0F990F801819104
:1008C00091918F010E941403F81206C0F1E0CD311E
:1008D000DF0799F781E001C080E0DF91CF911F91A0
:1008E0000F91FF9008958F929F92AF92BF92CF92F7
:1008F000DF92EF92FF920F931F93CF93DF93C0E0AD
:10090000D0E060E0CE010E94F5022196C11584E09E
:10091000D807B9F789E1A82E81E0B82E91E1C92E58
:1009200091E0D92E7501C0E0D0E000E010E0FE01BA
:10093000E650FF4F4F01F401E00FF11F6491C80131
:100940008C0F9D1F0E94F5020F5F1F4F003811058D
:1009500091F78E2D8A19843038F4F7016081F60101
:10096000808191810E94F502FFEFEF1AFF0A82E079
:10097000C80ED11CC058DF4FC03893E0D907A9F684
:10098000DF91CF911F910F91FF90EF90DF90CF906B
:10099000BF90AF909F908F900895FF920F931F93F9
:1009A000CF93DF93D82FC62FF42E0E94A217009169
:1009B0003D0110913E0120913F0130914001601BAB
:1009C000710B820B930B61157A4F8105910568F3CA
:1009D0000E94A21760933D0170933E0180933F01F6
:1009E000909340016D2F70E00090330102C0759527
:1009F00067950A94E2F7809106010E9445186C2FD2
:100A000070E00090330102C0759567950A94E2F793
:100A1000809107010E9445186F2D70E0009033010E
:100A200002C0759567950A94E2F780910801DF91FD
:100A3000CF911F910F91FF900C944518BF92CF92C8
:100A4000DF92EF92FF920F931F93CF93DF93D82EF5
:100A5000C62EB42E84E6289F80011124C0E0D0E089
:100A600024E6E22EF12CC017D10789F0CE01B701A0
:100A70000E94DA1EC29720F44B2D6C2D8D2D03C0E1
:100A800040E060E080E00E94CD042196ECCFCE01F2
:100A9000AA2797FDA095BA2F4091380150913901AE
:100AA00060913A0170913B01480F591F6A1F7B1FEB
:100AB000409338015093390160933A0170933B01A0
:100AC000DF91CF911F910F91FF90EF90DF90CF902A
:100AD000BF9008950E94FE0361E070E080E090E026
:100AE0000E94C51740E06AE28DE10E94360441E0B1
:100AF0006EE08DE10E9436044BE16BE28DE10E94D5
:100B0000360448E36CE28DE10E94360440E06DE279
:100B10008DE10E94360441E26AE28DE10C943604D4
:100B200040E06AE28DE10C94360428E088E190E030
:100B30000FB6F894A895809360000FBE20936000D4
:100B400040E060E080E00E94CD0461E08FEF93E040
:100B50000E94F5020E94900560E081E10E94061962
:100B6000FFCFCF92DF92EF92FF920F931F93CF931D
:100B7000DF9334EEC32E31E0D32EEFE4F1E060E0FA
:100B800072E0A0E5B1E040EE51E09A01E601899102
:100B90006E01873008F086E08083EB018991BE0109
:100BA0008C9380E090E08F01080F191F853038F496
:100BB0007901E80EF91EE701FE80E801FA827A0168
:100BC000E80EF91EE701F888E801FF8201968830F7
:100BD000910549F776965696485F5F4F2B5F3F4FDA
:100BE000D1E0EB37FD0791F6DF91CF911F910F9187
:100BF000FF90EF90DF90CF900895DF92EF92FF92F9
:100C00000F931F93CF93DF938091E101873008F01A
:100C100086E080934F01E090BD01809103028E1524
:100C200050F080910702809350011092320181E0D0
:100C30008093310114C020910402E21698F430919F
:100C4000070290910802391708F4932F90935001EE
:100C50009E2D981B90933201281B209331011092F6
:100C600030012BC0809105028E1540F08091080262
:100C7000809350011092320181E01BC02091060246
:100C800090910902E21680F430910802391708F4B5
:100C9000932F909350019E2D981B90933201281B07
:100CA0002093310181E007C09093500181E080934F
:100CB000320180933101809330018091E7018E15DC
:100CC000B0F40091E801E01628F49E2D981B081B53
:100CD000E0E016C08091E9018E1558F40091EA0118
:100CE000E01658F49E2D981B081BE1E009C0E0E0D7
:100CF00001C0E1E001E090E003C0E1E001E091E04B
:100D0000C6E5D1E0F0E043E0EE0FFF1F4A95E1F7C2
:100D1000E052FE4F20E030E0E92EF12C10E02530CB
:100D200040F4D901A052BE4F12968C91DE01159766
:100D30008C93DF01A20FB31F1B96DC901B97539679
:100D40004C9150E04D1951094E9DC0014F9D900DA1
:100D50005E9D900D1124B8010E94EE1ED60ED99210
:100D60002F5F3F4F28303105D1F6DF91CF911F9192
:100D70000F91FF90EF90DF900895AF92BF92CF92C6
:100D8000DF92EF92FF920F931F93CF93DF93EC01CB
:100D9000E62EF980FF2031F089E08F1528F479E004
:100DA000F72E02C0FF24F3948A811F2D882319F0A7
:100DB0008F1508F4182F8B81012F882319F08117C4
:100DC00008F4082FDC80DD2031F084E68D1528F44E
:100DD00064E6D62E02C0DD24D394BF80A884C984E3
:100DE000B11006C0A11004C0C11002C08FEF6BC0CB
:100DF0002F85388989899A892817390740F48F8582
:100E000098890196988B8F87E11045C0EFCF80912C
:100E1000E001811102C00E94FD051A8A198A188A10
:100E20001F86212F30E0220F331F4A2D50E0EB2D7B
:100E3000F0E0AC2DB0E089899A89892B01F78D8982
:100E40008F5F8D8B90E028173907A4F41D8A8C8959
:100E50008F5F8C8B8D1570F01C8A8B89800F8B8B2C
:100E60008F1540F0101721F06F2D0E94CE1E01C08B
:100E700090E09B8B6D89862F90E08217930719F481
:100E8000BA8BA98BD8CF60FF03C0FA8BE98BD3CF85
:100E90005A8B498BD0CF2D8920FF04C026958B8992
:100EA000280F01C02FEF822F992787FD90956F2D76
:100EB00070E08617970734F0101709F497CF0E9457
:100EC000EE1E01C0822FDF91CF911F910F91FF90F5
:100ED000EF90DF90CF90BF90AF9008954F925F92C8
:100EE0007F928F929F92AF92BF92CF92DF92EF92BA
:100EF000FF920F931F93CF93DF931F92CDB7DEB76F
:100F00002C01762EDC011196EC91E23038F0EA30BB
:100F100008F0E9E0FF24FA94FE0E02C0FF24F394E7
:100F2000F2014281442321F0453618F044E601C025
:100F300041E0D20113961C91112321F0153618F0CF
:100F400014E601C011E0F201E78080840185A284EB
:100F5000C384E1100AC0811008C0011106C0A110AD
:100F600004C0C11002C08FEF93C0D2011F966D91D3
:100F70007C91509751968D919C9152976817790763
:100F800048F4F201878590890196908B87877110CC
:100F900073C0E9CF8091E001811104C049830E94B0
:100FA000FD054981D20152961C921E92519750968E
:100FB0001C921E921F97212F30E0240F311DEF2D20
:100FC000F0E010E0F12CD12CB12C912CD2015196F3
:100FD0008D919C915297892BA1F6D20155968C91B7
:100FE00055978F5F55968C9355978230D8F05596CC
:100FF0001C92559754968C9154978F5F54968C936E
:10100000549790E0821793076CF054961C92549773
:1010100053968C9190E00196BF010E94EE1ED20182
:1010200053968C93D20155969C91559754968C91DA
:10103000D201911115C0882311F0841305C0529676
:10104000DC92CE925197C2CF841728F452969C928C
:101050008E925197BBCF5296BC92AE925197B6CF1B
:10106000841728F45296FC92EE925197AFCF529685
:101070001C930E935197AACFF2018589882309F416
:1010800072CF8489841718F483898F5F01C080E050
:101090000F90DF91CF911F910F91FF90EF90DF9014
:1010A000CF90BF90AF909F908F907F905F904F9028
:1010B00008958F929F92AF92BF92DF92EF92FF922C
:1010C0000F931F93CF93DF9300D0CDB7DEB75C01B2
:1010D000FC017181772321F07A3018F079E001C0AA
:1010E00071E0F5018281D72E882319F0871708F463
:1010F000D82EF501F78000851185E284F11007C034
:10110000011105C0111103C0EE2009F483C0F501DF
:1011100027853089818992892817390748F4F50194
:10112000878590890196908B8787611151C072C025
:101130008091E001811106C06A8379830E94FD05D8
:1011400079816A81F501128A118A108A17862D2DFC
:1011500030E0C901880F991F0197215031098F2C68
:10116000912CA12FB0E010E0F12CF50141895289BA
:10117000452BA9F6F50145894F5F458B433078F043
:10118000158A44894F5F448B50E0481759073CF05B
:10119000148A43894D0D438B471708F0138AF501D4
:1011A00055894489511109C0411103C0F28AE18A6D
:1011B000DCCFF501128B018BD8CF50E0F50142173F
:1011C000530719F4B28BA18BD0CF928A818ACDCFED
:1011D000F50185898823A1F024898D2D90E0019760
:1011E000821B91091816190624F4922F90959D0DD3
:1011F00003C091E0920F9D19F5018389890F01C009
:101200008FEF272F30E0482F552747FD5095421785
:1012100053070CF08FEF0F900F90DF91CF911F913C
:101220000F91FF90EF90DF90BF90AF909F908F90C5
:1012300008952F923F924F925F926F927F928F927A
:101240009F92AF92BF92CF92DF92EF92FF920F9355
:101250001F93CF93DF9300D000D01F92CDB7DEB79E
:101260009D838C83462EDC0111962C91222321F044
:101270002A3018F029E001C021E0EC81FD81428193
:10128000442321F0453618F044E601C041E0AC812A
:10129000BD8113967C90772031F0B4E6B71528F421
:1012A000F4E67F2E02C077247394EC81FD813481B3
:1012B000332321F0353618F034E601C031E0022F37
:1012C00010E0AC81BD8115966C90862D90E0801762
:1012D00091071CF066246A94620EEC81FD81E78020
:1012E00080842184A284F384C484B584572C540E52
:1012F00086818111530EE1100EC081100CC02110A7
:101300000AC0A11008C0F11006C0C11004C0B1107D
:1013100002C08FEFD4C0AC81BD811F962D913C914E
:10132000509751968D919C9152972817390750F4F8
:10133000EC81FD81878590890196908B878741108C
:101340009DC0E7CF8091E001811104C04B830E94D2
:10135000FD054B81AC81BD8152961C921E92519726
:1013600050961C921E921F97272D30E0240F311D9E
:10137000EF2DF0E0FA83E983312CF12CD12CEB2D09
:10138000F0E0B12C912CAC81BD8151968D919C9156
:101390005297892B69F6AC81BD8155968C915597F2
:1013A0008F5F55968C9355978230D0F055961C924E
:1013B000559754968C9154978F5F54968C9354976D
:1013C000851570F054961C92549753968C9190E02A
:1013D0000196B8010E94EE1EAC81BD8153968C939C
:1013E000AC81BD8155969C91559754968C9154979C
:1013F000911127C0882369F0841738F4AC81BD812E
:1014000052969C928E925197BECF841307C0AC81A6
:10141000BD815296FC93EE935197B5CF90E0AC818D
:10142000BD81821793072CF45296BC92AE925197CD
:10143000AACF8217930769F35296DC92CE92519706
:10144000A2CF841738F4AC81BD815296FC92EE9203
:10145000519799CF90E0821793073CF4AC81BD81FE
:1014600052963C922E9251978ECF89819A81AC816F
:10147000BD8152969C938E93519785CFEC81FD81CF
:101480008589882309F445CF648983896417B8F076
:1014900070E0272D30E0240F311D712C6217730787
:1014A0002CF49301280F311DC90106C0D301A80FE8
:1014B000B11DCD01860D971DB8010E94EE1E0F9043
:1014C0000F900F900F900F90DF91CF911F910F9180
:1014D000FF90EF90DF90CF90BF90AF909F908F9054
:1014E0007F906F905F904F903F902F9008952F9234
:1014F0003F925F926F927F928F929F92AF92BF9234
:10150000CF92DF92EF92FF920F931F93CF93DF93CF
:101510001F92CDB7DEB71C01562EDC0111967C90D0
:10152000772031F0B9E0B71528F4A9E07A2E02C08F
:1015300077247394F1014281411106C0F1E07F16D6
:1015400061F04FEF470D0AC0242F30E0872D90E067
:10155000821793071CF4472D01C041E0D101139677
:101560008C91811104C0442339F0642E07C0642E8D
:10157000841720F4682E02C066246394F10114815C
:10158000111106C0442341F0142F453630F002C03B
:10159000153618F014E601C011E0D1011796EC9051
:1015A000179718968C90189719960C9119971A9668
:1015B000AC901A971B96CC90E1100AC0811008C01D
:1015C000011106C0A11004C0C11002C08FEFB0C04D
:1015D000F10127853089818992892817390768F4B4
:1015E000D1011F968D919C915097019650969C9396
:1015F0008E931F9751107BC0E9CF8091E00181113C
:1016000004C049830E94FD054981F101128A118AB3
:10161000108A1786E42FF0E0E10FF11D272D30E04E
:101620002150310910E0F12CD12CB12C912CD10199
:1016300051968D919C915297892B91F6D101559697
:101640008C9155978F5F55968C935597823028F1E2
:1016500055961C92559754968C9154978F5F54963B
:101660008C93549790E08E179F07BCF054961C9271
:10167000549753968C915397860D53968C9390E084
:101680008217930754F0461521F0B9010E94EE1E0F
:1016900001C080E0D10153968C93D10155969C9165
:1016A000559754968C91D101911115C0882311F052
:1016B000841305C05296DC92CE925197B8CF84170E
:1016C00028F452969C928E925197B1CF5296BC922A
:1016D000AE925197ACCF841728F45296FC92EE92BA
:1016E0005197A5CF52961C930E935197A0CFF1011D
:1016F0008589882339F08489841730F42389280F59
:101700002F5F03C02FEF01C020E0822F992787FDB4
:101710009095672D70E0861797074CF0461509F4F1
:1017200055CF615071090E94EE1E8F5F01C0822F5C
:101730000F90DF91CF911F910F91FF90EF90DF906D
:10174000CF90BF90AF909F908F907F906F905F9061
:101750003F902F9008952F923F924F925F926F92F9
:101760007F928F929F92AF92BF92CF92DF92EF9231
:10177000FF920F931F93CF93DF93CDB7DEB72B97D5
:101780000FB6F894DEBF0FBECDBF8C01362EFC0124
:101790004180442029F0742D7A3018F079E001C09E
:1017A00071E0F801C280CC2031F0F7E0FC1528F49C
:1017B000B7E0CB2E02C0CC24C394F801F381F887A4
:1017C000F801248087806085698351855A8342852A
:1017D0004B8333853C8324852D8395859E83868525
:1017E0008F83811010C061110EC051110CC04111C6
:1017F0000AC0311108C0211106C0911104C0811125
:1018000002C08FEF80C0F8012785308981899289D5
:101810002817390760F4F801878590890196908B25
:1018200087878589882369F3F80183896CC0809153
:10183000E001811104C07B870E94FD057B85F801D2
:10184000128A118A108A17868C2D90E09A878987D0
:10185000D12CE12CF12CA72EB12C472E512C612C30
:10186000712C912CF80181899289892BA1F6F801BC
:1018700085898F5F823010F4858B30C0F801158A1E
:10188000332051F0222041F0A301920160E070E08A
:10189000CB010E94A31B08C0F801838990E0019648
:1018A000B5010E94EE1E682FF801638B332059F0BA
:1018B000F885FF2341F0A701960160E070E0CB01BD
:1018C0000E94A31B09C0F801848990E001966985F4
:1018D0007A850E94EE1E682FF801648BF8018589D5
:1018E000811103C0928A818ABDCFF8018489E1E029
:1018F000F0E0EC0FFD1FE80FF11D808190E0F80192
:10190000928B818BAFCF2B960FB6F894DEBF0FBEB4
:10191000CDBFDF91CF911F910F91FF90EF90DF909E
:10192000CF90BF90AF909F908F907F906F905F907F
:101930004F903F902F9008952F923F924F925F9239
:101940006F927F928F929F92AF92BF92CF92DF92CF
:10195000EF92FF920F931F93CF93DF93CDB7DEB734
:101960002E970FB6F894DEBF0FBECDBF9E878D8732
:10197000162FFC019181992321F09A3018F099E0FB
:1019800001C091E0ED85FE8502816381662321F02F
:101990006B3018F06AE001C061E0ED85FE8587815B
:1019A0008084482C881508F4482E881608F4882E60
:1019B000ED85FE852185F284CF2C2F1508F4C22EEB
:1019C000F21608F4F22E411008C0811006C0C110B2
:1019D00004C0F11002C08FEF9FC0ED85FE854785E2
:1019E0005089218932894217530770F4ED85FE85AD
:1019F000878590890196908B878785898111EBCFA8
:101A0000ED85FE85838988C08091E001811106C043
:101A10006C879B870E94FD059B856C85ED85FE8507
:101A2000128A118A108A1786292F30E03A83298377
:101A3000292F30E040E050E02B833C834D835E83D0
:101A4000262E312C8F2D90E001969C01442737FDE6
:101A50004095542F2F83388749875A87D12CE12C02
:101A6000F12C912C3FEF831A930AAA2497FCA0949F
:101A7000BA2C512C612C712CED85FE8581899289BF
:101A8000892B09F0B3CFED85FE8585898F5F823084
:101A900010F4858B1EC0ED85FE85158A112361F03B
:101AA000002351F02B813C814D815E8160E070E02C
:101AB000CB010E94A31B0AC0ED85FE85838990E0BF
:101AC000019669817A810E94EE1E682FED85FE8560
:101AD000638B1123D1F0ED85FE858589811105C0C9
:101AE000A5019401C301B20106C02F813885498543
:101AF0005A85C701B6010E94A31B269E9001279E0E
:101B0000300D369E300D112402C021E030E0ED850D
:101B1000FE85328B218BB0CF2E960FB6F894DEBFA8
:101B20000FBECDBFDF91CF911F910F91FF90EF902E
:101B3000DF90CF90BF90AF909F908F907F906F90ED
:101B40005F904F903F902F900895EF92FF920F93E8
:101B50001F93CF93DF934091300150E0DA0111964B
:101B600090E09C01220F331F280F391F8BE1849FC7
:101B7000E001859FD00D1124C20FD31FC052DE4F4C
:101B80004AA5E0903201F12C0091310110E08A9FCA
:101B9000F0018B9FF00D1124E20FF31FE052FE4F76
:101BA00022A530E0241B31092E9DC0012F9D900DF0
:101BB0003E9D900D1124B8010E94EE1E460F4093E9
:101BC00009014BA523A530E0241B31092E9DC0013E
:101BD0002F9D900D3E9D900D1124B8010E94EE1E88
:101BE000460F40930A014CA524A530E0241B31097F
:101BF0002E9DC0012F9D900D3E9D900D1124B8018A
:101C00000E94EE1E460F40930B01DF91CF911F9172
:101C10000F91FF90EF900895FC01158A148A138AA2
:101C2000128A118A108A178608950F931F93CF93F3
:101C3000DF9390E8899F80011124C0EED1E0005E1F
:101C4000114082E0C036D80739F0C8018C0F9D1FC3
:101C50000E9414038993F5CFDF91CF911F910F91CB
:101C600008958FEF80930401809305011092340151
:101C70008FE491E00E940C0E85E691E00E940C0E2C
:101C80008091E001811102C00C94FD05813011F4B6
:101C90000C94B1050895873088F0833629F480913B
:101CA000350190E0069606C0853651F480913501E5
:101CB00090E0019667E070E00E94EE1E809335018F
:101CC000809135010E94150E0C94310EEF92FF9217
:101CD0000F931F93CF93DF931092BD014091D001DA
:101CE0005091D1016091D2017091D3012BE931E083
:101CF000CBE7D1E0F90188E392E0A0E0B0E0F12C7D
:101D000084179507A607B70760F41882E0800E2DA8
:101D100010E00F3711051CF411E01E0D01C010E892
:101D2000108318811A3010F0108202C01F5F1883D0
:101D30001191133010F0FE2EF21AC896A11DB11D9C
:101D40002196883319E09107A105B105C9F6F092F3
:101D5000BD01DF91CF911F910F91FF90EF900895FA
:101D60008091E101813019F46091BD011EC0823083
:101D700049F46091D8017091D9018091DA01909174
:101D8000DB010AC0833059F46091DC017091DD0100
:101D90008091DE019091DF010E94031D06C0843016
:101DA00019F46091D40101C060E080913401811187
:101DB00005C09091E201961738F014C0813091F47B
:101DC0009091E301691770F41092BB019091BC01EE
:101DD000292F30E02F37310514F49F5F01C090E8C0
:101DE0009093BC019091BB019A3018F01092BC0105
:101DF00003C09F5F9093BB019091BC01923050F063
:101E00001092BC011092BB0190E00196817099275D
:101E10008093340108954F925F926F927F928F92D8
:101E20009F92AF92BF92CF92DF92EF92FF92CF93A9
:101E3000DF9300D000D0CDB7DEB780913C0164E1E4
:101E40000E94CE1E892F90E08D30910508F0EBC1E5
:101E5000FC01EC5CFF4F0C94431F63E01DC081E06C
:101E60000E944F031092BE018093BF01DCC1E0903D
:101E7000BE01F090BF0180E00E944F039701282B24
:101E8000C90144E0959587954A95E1F79093BF0184
:101E90008093BE0120C061E08DE10E941C04C3C19B
:101EA00081E00E944F031092C0018093C101BBC129
:101EB000E090C001F090C10180E00E944F03F70163
:101EC000E82BCF0134E0959587953A95E1F790930B
:101ED000C1018093C0010E941604A5C165E0DCCF5A
:101EE00081E00E944F031092C2018093C3019BC105
:101EF000E090C201F090C30180E00E944F0397017F
:101F0000282BC90124E0959587952A95E1F79093B0
:101F1000C3018093C201DFCF6091BE017091BF0108
:101F2000882777FD8095982F0E94311D9B01AC0179
:101F30000E94111E0E94031D2B013C016093C401ED
:101F40007093C5018093C6019093C7016091C00151
:101F50007091C101882777FD8095982F0E94311DCF
:101F60009B01AC010E94111E0E94031D6B017C01AC
:101F70006093C8017093C9018093CA019093CB010B
:101F80006091C2017091C301882777FD8095982FD9
:101F90000E94311D9B01AC010E94111E0E94031D75
:101FA0004B015C016093CC017093CD018093CE0115
:101FB0009093CF01C701B601640D751D861D971D55
:101FC000680D791D8A1D9B1D0E942F1D0E94781E81
:101FD0000E94031D6093D0017093D1018093D201C0
:101FE0009093D301C501B4016C0D7D1D8E1D9F1D05
:101FF0000E942F1D0E94781E6093D8017093D90112
:102000008093DA019093DB010E94660E0CC160910F
:10201000C2017091C301882777FD8095982F0E9497
:10202000311D9B01AC016091C0017091C10171959E
:1020300061957109882777FD8095982F29833A83C8
:102040004B835C830E94311D29813A814B815C81E5
:102050000E94441C6093DC017093DD018093DE01DB
:102060009093DF01E0C02091D8013091D9014091D7
:10207000DA015091DB016091BE017091BF018827A8
:1020800077FD8095982F29833A834B835C830E9448
:10209000311D29813A814B815C810E94441C6093EF
:1020A000D8017093D9018093DA019093DB01BBC012
:1020B0008091C2019091C30180313EEF9307A4F05B
:1020C000813FE1E09E0714F080EF91E080519E4F48
:1020D00061EE7FEF0E94EE1E605E7F4FCB01AA276C
:1020E00097FDA095BA2F04C080E290E0A0E0B0E098
:1020F0008093D4019093D501A093D601B093D701DA
:1021000021E230EB42EB5FE36091D8017091D9019D
:102110008091DA019091DB010E94D11B2FE632E120
:102120004DE351E40E94111E6B017C0120E030E080
:10213000A9010E94971C87FD0FC020E030E040E01D
:1021400052E4B601C7010E94061E181654F4C12CB1
:10215000D12CE12C82E406C0C12CD12CE12C80E0F2
:1021600001C08F2DA6016E2D782F4093D80150937A
:10217000D9016093DA017093DB01C090DC01D0904B
:10218000DD01E090DE01F090DF012BED3FE049EC56
:102190005FE3C701B6010E94061EA701960118164B
:1021A0002CF46BED7FE089E490E404C06BED7FE0FC
:1021B00089E490EC0E94D01B21E230EB42EB5FE31C
:1021C0000E94D11B2FE632E14DE351E40E94111E23
:1021D0006B017C0120E030E0A9010E94971C87FD83
:1021E0000FC020E030E040E052E4B601C7010E9499
:1021F000061E181654F4C12CD12CE12C82E406C022
:10220000C12CD12CE12C80E001C08F2DA6016E2DB8
:10221000782F4093DC015093DD016093DE017093D1
:10222000DF010E94B00E80913C018F5F843118F471
:1022300080933C0102C010923C010F900F900F90D0
:102240000F90DF91CF91FF90EF90DF90CF90BF90F4
:10225000AF909F908F907F906F905F904F90089578
:10226000CF9382E00E943C19C1E0892B09F0C0E0C5
:102270008091370190E08532910508F008C2FC0199
:10228000EF5BFF4F0C94431FCC2309F400C28091F5
:10229000380190913901A0913A01B0913B01843607
:1022A0009105A105B10508F4F2C181E0EEC1C111AB
:1022B00004C085E60E944B0EDAC1809138019091EE
:1022C0003901A0913A01B0913B01843F9140A105B1
:1022D000B10508F4DCC16CC0CC2309F453C0809173
:1022E000380190913901A0913A01B0913B01883EAB
:1022F0009340A105B10508F4CAC183E0C6C180912D
:10230000380190913901A0913A01B0913B01892B9C
:102310008A2B8B2B31F425E040E860E080E00E94BE
:102320001E05C11106C061E08EEF93E00E94F50228
:1023300018C18091380190913901A0913A01B09172
:102340003B01883E9340A105B10508F4A0C185E09A
:102350009CC18091380190913901A0913A01B091CE
:102360003B01892B8A2B8B2B31F425E040E060E088
:1023700080E80E941E05C11107C061E08DEF93E067
:102380000E94F5020E9495058091380190913901D3
:10239000A0913A01B0913B01883E9340A105B1055F
:1023A00008F475C125E040E360E380E30E941E0568
:1023B00082E06BC1CC2309F46AC18091380190910D
:1023C0003901A0913A01B0913B0184369105A105F4
:1023D000B10508F45CC18BE058C1C11105C0609122
:1023E00035018CEF93E0CCCF809138019091390189
:1023F000A0913A01B0913B01883E9340A105B105FF
:1024000008F445C18CE041C18091380190913901B7
:10241000A0913A01B0913B01892B8A2B8B2B31F48F
:1024200025E040E860E080E00E941E05C1112FC158
:1024300060E08EEF93E019C1CC2309F485C0809150
:10244000380190913901A0913A01B0913B01883E49
:102450009340A105B10508F41AC185E116C1809128
:10246000380190913901A0913A01B0913B01892B3B
:102470008A2B8B2B31F425E040E860E880E80E944D
:102480001E05CC2309F400C18091380190913901D7
:10249000A0913A01B0913B01883B9B40A105B10559
:1024A00008F4F5C086E1F1C08091380190913901BE
:1024B000A0913A01B0913B01892B8A2B8B2B31F4EF
:1024C00025E040E060E080E80E941E05C11102C0E6
:1024D0008EE1DBC08091380190913901A0913A01E1
:1024E000B0913B01883B9B40A105B10508F4CFC0EA
:1024F00087E1CBC0C111CBC045CF8091380190910D
:102500003901A0913A01B0913B01883B9B40A10564
:10251000B10531F425E040E060E880E00E941E054E
:10252000C111B5C08091380190913901A0913A0153
:10253000B0913B01893B9B40A105B105A0F060E053
:102540008DEF93E00E94F5028EEF93E00E9414035A
:10255000882309F48CC08CEF93E00E9414030E943E
:102560004B0E8AE092C025E040E060E03BC0CC2307
:1025700011F08FE18AC08091380190913901A091CA
:102580003A01B0913B01883B9B40A105B10508F49D
:102590007EC0F8CE8091380190913901A0913A0126
:1025A000B0913B01883B9B40A105B10531F425E08A
:1025B00040E060E080E80E941E0580913801909123
:1025C0003901A0913A01B0913B01C1110FC0883B84
:1025D0009B40A105B10508F4D5CE0E94730425E007
:1025E00040E860E880E80E941E05CCCE803E9E4216
:1025F000A105B10508F44BC0C5CECC2309F447C0F2
:102600008091380190913901A0913A01B0913B013C
:1026100084369105A105B105D0F184E236C08091E0
:10262000380190913901A0913A01B0913B01883E67
:102630009340A105B10531F425E040E860E880E869
:102640000E941E05C11123C080913801909139016B
:10265000A0913A01B0913B01883E9340A105B1059C
:1026600048F0609133018BEF93E00E94F5021092E5
:1026700036010DC08091330190E0019663E070E077
:102680000E94EE1E8093330183E280933601809195
:10269000360190913701981759F0809337011092C5
:1026A00038011092390110923A0110923B0113C087
:1026B0008091380190913901A0913A01B0913B018C
:1026C0000196A11DB11D8093380190933901A0930B
:1026D0003A01B0933B01CF9108950F931F93CF938D
:1026E000DF9300EE11E0C0E0D0E0F80161918F01CE
:1026F000809135019E0140E8849F200D311D1124F9
:10270000C9010E94F5022196C038D10571F7DF9109
:10271000CF911F910F910895873070F467FD0CC021
:10272000262F30E0642FA90170E8879F400D511DCE
:102730001124CA010C94F5020895CF938091E00111
:10274000811113C0E0914F01F0E0EE0FFF1FEF5B2E
:10275000FE4F0190F081E02D61E08FE491E009955A
:1027600087FD39C0CF910C94A50D813009F055C07B
:102770008091340126E1829FC0011124815B9E4F2C
:10278000DC01EC91F0E0EE0FFF1FEF5BFE4F0190DC
:10279000F081E02D61E00995C82F21E030E08091C3
:1027A0003401882311F020E030E086E1829FD001DF
:1027B000839FB00D1124A15BBE4FEC91F0E0EE0FB2
:1027C000FF1FEF5BFE4F0190F081E02D60E0CD0137
:1027D0000995C7FF07C010920B0110920A011092D1
:1027E00009011BC0209134018C2F992787FD9095FA
:1027F000FC01EE0FFF1FE80FF91FBBE12B9FE00D5F
:10280000F11D1124E052FE4F82A18093090183A1A2
:1028100080930A0184A180930B01CF910895809148
:1028200037018E3109F46DC030F4882399F08A3075
:1028300009F06FC00FC08A3F69F08B3F71F083329F
:1028400009F067C080E880930B0180930A018093B0
:10285000090165C00E949D1362C09091E001209122
:10286000050180910401911125C023300CF022E074
:1028700027FD20E02093050189300CF088E087FDDA
:1028800080E080930401992787FD9095FC01EE0F6D
:10289000FF1FE80FF91F8BE12802E00DF11D112445
:1028A000E052FE4F82A58093090183A580930A011F
:1028B00084A524C012160CF421E027FD20E020930B
:1028C000050189300CF088E087FD80E080930401E9
:1028D000992787FD9095FC01EE0FFF1FE80FF91F68
:1028E0008BE12802E00DF11D1124E052FE4F82A180
:1028F0008093090183A180930A0184A180930B0135
:102900000EC080E88093090110920B0110920A0119
:1029100006C010920B0110920A0110920901409119
:102920000B0160910A01809109010C94CD0442E0F1
:1029300050E06DEE72E080E00E94D8168FEF93E0D9
:102940000E9414038823E9F060E08FEF93E00E9477
:10295000F50221E030E040E050E06AE070E08EE215
:1029600091E00E9496028DEF93E00E941403882369
:1029700011F089E101C084E1809336018093370131
:1029800012C08EEF93E00E941403882341F08CEF75
:1029900093E00E941403809335018AE0EDCF1092FA
:1029A00036011092370180E00C94F81660E082E066
:1029B0000E94CD1861E089E00E94CD1861E086E0B8
:1029C0000E94CD1861E085E00E94CD1861E081E1B0
:1029D0000E94CD1861E081E10E940619EAE7F0E06B
:1029E00080818460808380818D7F808380818E7FE1
:1029F00080830C946A05F89485B5887F816085BDD5
:102A0000E1E8F0E08081887F816080838081886058
:102A10008083789408958DEB96E0909342018093A3
:102A200041018EE697E0909344018093430189E54C
:102A300098E0909346018093450189E199E0909355
:102A400048018093470187E79AE090934A01809379
:102A500049018BEA9BE090934C0180934B018CE9F8
:102A60009CE090934E0180934D0108950E94A2171F
:102A700060933D0170933E0180933F01909340012C
:102A800008951F93CF93DF9368EC70E089E692E09E
:102A90000E94EE026091350189E692E00E94E319FE
:102AA00068EC70E089E692E00E94EE02C0EED1E0B0
:102AB00010E06091350189E692E00E94E319612FF0
:102AC00089E692E00E94E319699189E692E00E940A
:102AD000E3191F5F103869F762ED70E089E692E054
:102AE0000E94EE026091350189E692E00E94E319AE
:102AF00062ED70E089E692E0DF91CF911F910C9436
:102B0000EE02EF92FF920F931F93CF93DF9300E0BB
:102B100010E0E12CE801F12C6E2D89E692E00E9494
:102B2000E3196F2D89E692E00E94E319CE010E941D
:102B30001403682F89E692E00E94E319F39421962A
:102B400080E8F812E9CFE39400581F4F87E0E812BD
:102B5000E1CF6BE089E692E00E94E31960E070E06B
:102B600089E692E00E94EE0260E070E089E692E081
:102B7000DF91CF911F910F91FF90EF900C94EE0297
:102B8000CF93C82F87FD15C06091350189E692E08B
:102B90000E94E3196C2F89E692E00E94E319EC2F62
:102BA000F0E0E052FE4F608189E692E0CF910C9414
:102BB000E319CF91089580E00E942818BC0188276E
:102BC00077FD8095982F0E94771B0E9497140E9492
:102BD000D6140E94FB140E940B150E94540481110C
:102BE00002C00E9473048BEF93E00E941403809351
:102BF000330126E040E052EC61E070E089E692E0CB
:102C00000E94481A6AEF89E692E00E94E3196FE693
:102C100089E692E00E94E3196FE689E692E00E945D
:102C2000E319809135010C944B0EAF92BF92CF9275
:102C3000DF92EF92FF920F931F93CF93DF931F9238
:102C4000CDB7DEB74BEFF42E0AEF5CEFE52EDD24B7
:102C5000D39489E692E00E94651904970CF493C01E
:102C600089E692E00E947E19182F89E692E00E9480
:102C70007E195C0189E692E00E947E19682F89E640
:102C800092E069830E947E1969811A3FD9F48FE628
:102C9000A812DFCF6F36E9F610933601D0922F01DC
:102CA0006BEF70E089E692E00E94EE0260913501E0
:102CB00089E692E00E94E3196FE689E692E00E94BD
:102CC000E319C7CF90912F01992319F21A30E9F136
:102CD0001B3019F40E948115BCCF143149F40E94B5
:102CE0006D1325E040E860E880E80E941E05B1CF42
:102CF0001E3121F48A2D0E94C015ABCF183279F411
:102D0000A7FC05C0F501FF27E052FE4F60838091CC
:102D1000E001813009F09DCF0E94B1059ACF1932B0
:102D200029F4482F8A2D0E948C1393CF1A3219F45C
:102D3000E09236018ECF1B3219F40E94310E0FC083
:102D4000123331F48A2D0E944B0E0E94411581CF1F
:102D5000133319F40E94310E7CCF143619F400930A
:102D6000360177CF1E3639F4F0923601A092050174
:102D7000609304016ECF1E3F09F06BCF10923601B5
:102D800010922F0166CF0F90DF91CF911F910F917D
:102D9000FF90EF90DF90CF90BF90AF9008950E948A
:102DA00015160E940B0F0E9430110C940F140895F9
:102DB0008230E8F4E82FF0E0EE0FFF1FE45FFE4FF3
:102DC00071836083813041F0809169008C7F842B16
:102DD00080936900E89A089580916900440F551F17
:102DE000440F551F837F842B80936900E99A0895CF
:102DF000823078F4813011F0E89801C0E998E82F2A
:102E0000F0E0EE0FFF1FE45FFE4F87ED96E1918348
:102E1000808308951F920F920FB60F9211242F9363
:102E20003F934F935F936F937F938F939F93AF9352
:102E3000BF93EF93FF93E0910C01F0910D01099581
:102E4000FF91EF91BF91AF919F918F917F916F9182
:102E50005F914F913F912F910F900FBE0F901F9058
:102E600018951F920F920FB60F9211242F933F9334
:102E70004F935F936F937F938F939F93AF93BF9382
:102E8000EF93FF93E0910E01F0910F010995FF91EF
:102E9000EF91BF91AF919F918F917F916F915F91D2
:102EA0004F913F912F910F900FBE0F901F9018954B
:102EB0001F920F920FB60F9211242F933F938F936F
:102EC0009F93AF93BF938091610290916202A09112
:102ED0006302B09164023091600223E0230F2D372A
:102EE00020F40196A11DB11D05C026E8230F02960E
:102EF000A11DB11D20936002809361029093620234
:102F0000A0936302B093640280916502909166027F
:102F1000A0916702B09168020196A11DB11D809336
:102F2000650290936602A0936702B0936802BF9116
:102F3000AF919F918F913F912F910F900FBE0F9066
:102F40001F9018953FB7F8948091650290916602A2
:102F5000A0916702B091680226B5A89B05C02F3FDB
:102F600019F00196A11DB11D3FBF6627782F892F4B
:102F70009A2F620F711D811D911D42E0660F771F10
:102F8000881F991F4A95D1F70895CF92DF92EF924B
:102F9000FF92CF93DF936B017C010E94A217EB019C
:102FA000C114D104E104F10489F00E94CF1B0E94F6
:102FB000A2176C1B7D0B683E734090F381E0C81A2A
:102FC000D108E108F108C851DC4FEACFDF91CF9179
:102FD000FF90EF90DF90CF900895789484B5826051
:102FE00084BD84B5816084BD85B5826085BD85B5AD
:102FF000816085BDEEE6F0E0808181608083E1E85C
:10300000F0E0108280818260808380818160808393
:10301000E0E8F0E0808181608083E1EBF0E0808196
:1030200084608083E0EBF0E0808181608083EAE768
:10303000F0E08081846080838081826080838081F1
:10304000816080838081806880831092C1000895B0
:103050008E3008F08E5087702091100190E4299FE7
:1030600090011124822B80937C0080917A008064EF
:1030700080937A0080917A0086FDFCCF8091780061
:103080002091790090E0922B08951F93CF93DF93C6
:10309000182FEB0161E00E94CD18209711F460E039
:1030A00004C0CF3FD10539F461E0812FDF91CF918A
:1030B0001F910C940619E12FF0E0E658FB4FE491C4
:1030C000E330F9F048F4E130B9F0E230A1F584B52D
:1030D000806284BDC8BD34C0E730E9F0E83019F142
:1030E000E43049F580918000806280938000D09325
:1030F0008B00C0938A0024C084B5806884BDC7BD9E
:103100001FC080918000806880938000D0938900E8
:10311000C093880015C08091B00080688093B00093
:10312000C093B3000DC08091B00080628093B00066
:10313000C093B40005C0C038D1050CF0B5CFAFCFF7
:10314000DF91CF911F910895833081F028F4813071
:1031500099F08230A1F008958730A9F08830B9F055
:103160008430D1F4809180008F7D03C080918000F5
:103170008F7780938000089584B58F7702C084B5DF
:103180008F7D84BD08958091B0008F7703C08091BA
:10319000B0008F7D8093B0000895CF93DF9390E0CF
:1031A000FC01E257FB4F2491FC01EE55FB4F84914B
:1031B000882349F190E0880F991FFC01E653FB4FEB
:1031C000A591B49180549B4FFC01C591D4919FB7B8
:1031D000611108C0F8948C91209582238C9388818A
:1031E00082230AC0623051F4F8948C91322F3095CA
:1031F00083238C938881822B888304C0F8948C91DC
:10320000822B8C939FBFDF91CF9108950F931F93D3
:10321000CF93DF931F92CDB7DEB7282F30E0F901AF
:10322000E658FB4F8491F901E257FB4F1491F901E5
:10323000EE55FB4F04910023C9F0882321F06983E8
:103240000E94A4186981E02FF0E0EE0FFF1FE05408
:10325000FB4FA591B4919FB7F8948C91611103C075
:103260001095812301C0812B8C939FBF0F90DF911C
:10327000CF911F910F910895CF93DF93282F30E0C6
:10328000F901E658FB4F8491F901E257FB4FD491C5
:10329000F901EE55FB4FC491CC2391F081110E94AE
:1032A000A418EC2FF0E0EE0FFF1FEA54FB4FA5919E
:1032B000B4912C912D2381E090E021F480E002C0B4
:1032C00080E090E0DF91CF910895FC01818D228D07
:1032D00090E0805C9F4F821B91098F73992708951E
:1032E000FC01918D828D981731F0828DE80FF11DD0
:1032F000858D90E008958FEF9FEF0895FC01918DEB
:10330000828D981761F0828DDF01A80FB11D5D9647
:103310008C91928D9F5F9F73928F90E008958FEFB5
:103320009FEF089582E09BE1892B49F080E090E0D7
:10333000892B29F00E94021B81110C940000089532
:10334000FC01848DDF01A80FB11DA35ABF4F2C9142
:10335000848D90E001968F739927848FA689B78911
:103360002C93A089B1898C9180648C93938D848DEA
:10337000981306C00288F389E02D80818F7D8083B9
:103380000895CF93DF93EC01888D8823C9F0EA89F3
:10339000FB89808185FD05C0A889B9898C9186FD4E
:1033A0000FC00FB607FCF5CF808185FFF2CFA8894B
:1033B000B9898C9185FFEDCFCE010E94A019E7CF8E
:1033C000DF91CF910895CF92DF92FF920F931F93D9
:1033D000CF93DF931F92CDB7DEB76C0181E0D601AA
:1033E00058968C9358975B969C915B975C968C91C2
:1033F0005C97981307C05096ED91FC91519780818E
:1034000085FD2EC0F601038D10E00F5F1F4F0F7377
:103410001127F02EF601848DF81211C00FB607FCAB
:10342000F9CFD6015096ED91FC915197808185FF9F
:10343000F1CFC60169830E94A0196981EBCF838D0A
:10344000E80FF11DE35AFF4F6083D6015B960C93A2
:103450005B975296ED91FC915397808180620CC0EE
:10346000D6015696ED91FC91579760835096ED9159
:10347000FC91519780818064808381E090E00F907F
:10348000DF91CF911F910F91FF90DF90CF90089522
:10349000BF92CF92DF92EF92FF92CF93DF93EC0136
:1034A0006A017B01B22EE889F98982E080834115A7
:1034B00081EE580761057105A1F060E079E08DE3C8
:1034C00090E0A70196010E94021F21503109410995
:1034D00051095695479537952795211580E138076D
:1034E00098F0E889F989108260E874E88EE190E04C
:1034F000A70196010E94021F21503109410951097B
:103500005695479537952795EC85FD853083EE8553
:10351000FF852083188EEC89FD89B082EA89FB89BA
:10352000808180618083EA89FB89808188608083D3
:10353000EA89FB89808180688083EA89FB898081B0
:103540008F7D8083DF91CF91FF90EF90DF90CF90C0
:10355000BF9008951F920F920FB60F9211242F93D0
:103560008F939F93EF93FF93E0917902F0917A020A
:103570008081E0917F02F091800282FD12C09081F3
:10358000809182028F5F8F7320918302821751F0A6
:10359000E0918202F0E0E759FD4F958F809382021F
:1035A00001C08081FF91EF919F918F912F910F909A
:1035B0000FBE0F901F9018951F920F920FB60F928B
:1035C00011242F933F934F935F936F937F938F9328
:1035D0009F93AF93BF93EF93FF9389E692E00E948E
:1035E000A019FF91EF91BF91AF919F918F917F9122
:1035F0006F915F914F913F912F910F900FBE0F9060
:103600001F90189589E692E00E94651921E0892BA8
:1036100009F420E0822F089510926C0210926B0240
:1036200088EE93E0A0E0B0E080936D0290936E028C
:10363000A0936F02B093700281E291E090936A02CE
:103640008093690285EC90E09093760280937502F6
:1036500084EC90E0909378028093770280EC90E085
:1036600090937A028093790281EC90E090937C02AF
:1036700080937B0282EC90E090937E0280937D02A7
:1036800086EC90E09093800280937F0210928202F9
:103690001092830210928402109285020895CF92B4
:1036A000DF92EF92FF920F931F93CF93DF937C01F2
:1036B0006A01EB0100E010E00C151D0571F0699145
:1036C000D701ED91FC910190F081E02DC7010995A2
:1036D000892B19F00F5F1F4FEFCFC801DF91CF91FA
:1036E0001F910F91FF90EF90DF90CF90089561159B
:1036F00071058105910511F00C94B71F0895CF93C2
:10370000DF9300D000D0CDB7DEB79B01AC016115CF
:1037100071058105910569F069833A834B835C8368
:103720000E94B21F29813A814B815C810E94241F33
:1037300003C060E070E0CB010F900F900F900F90EE
:10374000DF91CF910895CF92DF92EF92FF926B01BC
:103750007C01621773078407950764F4CA01B901F5
:103760006C197D098E099F090E947F1B6C0D7D1DC0
:103770008E1D9F1DFF90EF90DF90CF9008950895CC
:103780000E94ED170E94BF1B0E94DB15C2E9D9E120
:103790000E94CF162097E1F30E949219F9CF089565
:1037A0005058BB27AA270ED0F7C1E8D130F0EDD191
:1037B00020F031F49F3F11F41EF4B8C10EF4E095EF
:1037C000E7FBAEC1E92FF9D180F3BA17620773079F
:1037D0008407950718F071F49EF511C20EF4E09578
:1037E0000B2EBA2FA02D0B01B90190010C01CA01BB
:1037F000A0011124FF27591B99F0593F50F4503E66
:1038000068F11A16F040A22F232F342F4427585F57
:10381000F3CF469537952795A795F0405395C9F76F
:103820007EF41F16BA0B620B730B840BBAF0915027
:10383000A1F0FF0FBB1F661F771F881FC2F70EC0C6
:10384000BA0F621F731F841F48F487957795679599
:10385000B795F7959E3F08F0B3CF9395880F08F082
:103860009927EE0F97958795089588D158F080E8AD
:1038700091E009F49EEF89D128F040E851E059F435
:103880005EEF09C053C1BBC1E92FE07896D168F360
:10389000092E052AC1F3261737074807590738F0BC
:1038A0000E2E07F8E02569F0E025E0640AC0EF631A
:1038B00007F8009407FADB01B9019D01DC01CA0198
:1038C000AD01EF9347D068D10AD05F91552331F015
:1038D0002BED3FE049E450FD49EC63CF0895DF93C1
:1038E000DD27B92FBF7740E85FE3161617064807B4
:1038F0005B0710F4D92F8ED19F938F937F936F9393
:1039000035D2ECECF0E015D147D12F913F914F919A
:103910005F9193D1DD2349F09058A2EA2AED3FE070
:1039200049EC5FE3D0785D274DDFDF9135C1D4D01E
:1039300008F481E008950CD02FC127D140F01ED1AA
:1039400030F021F45F3F19F0EBC0511159C1EEC0C6
:1039500034D198F39923C9F35523B1F3951B550B33
:10396000BB27AA2762177307840738F09F5F5F4F52
:10397000220F331F441FAA1FA9F333D00E2E3AF093
:10398000E0E830D091505040E695001CCAF729D0AD
:10399000FE2F27D0660F771F881FBB1F26173707FC
:1039A0004807AB07B0E809F0BB0B802DBF01FF272C
:1039B00093585F4F2AF09E3F510568F0B1C020C177
:1039C0005F3FECF3983EDCF3869577956795B79566
:1039D000F7959F5FC9F7880F911D9695879597F981
:1039E0000895E1E0660F771F881FBB1F62177307FA
:1039F0008407BA0720F0621B730B840BBA0BEE1F0F
:103A000088F7E0950895E1D088F09F5790F0B92F9E
:103A10009927B751A0F0D1F0660F771F881F991F23
:103A20001AF0BA95C9F712C0B13081F0E8D0B1E010
:103A30000895E5C0672F782F8827B85F39F0B93F20
:103A4000CCF3869577956795B395D9F73EF4909525
:103A50008095709561957F4F8F4F9F4F0895E894A3
:103A600009C097FB3EF490958095709561957F4FC6
:103A70008F4F9F4F9923A9F0F92F96E9BB27939574
:103A8000F695879577956795B795F111F8CFFAF484
:103A9000BB0F11F460FF1BC06F5F7F4F8F4F9F4FB5
:103AA00016C0882311F096E911C0772321F09EE813
:103AB000872F762F05C0662371F096E8862F70E079
:103AC00060E02AF09A95660F771F881FDAF7880F53
:103AD0009695879597F90895990F0008550FAA0BA9
:103AE000E0E8FEEF16161706E807F907C0F0121611
:103AF0001306E407F50798F0621B730B840B950B14
:103B000039F40A2661F0232B242B252B21F4089568
:103B10000A2609F4A140A6958FEF811D811D089505
:103B200097F99F6780E870E060E008959FEF80EC70
:103B30000895DF93CF931F930F93FF92EF92DF923D
:103B40007B018C01689405C0DA2EEF0176D0FE016E
:103B5000E894A5912591359145915591AEF3EF01EA
:103B600031DEFE019701A801DA9479F7DF90EF903A
:103B7000FF900F911F91CF91DF91089500240A9437
:103B80001616170618060906089500240A94121638
:103B90001306140605060895092E0394000C11F46B
:103BA000882352F0BB0F40F4BF2B11F460FF04C018
:103BB0006F5F7F4F8F4F9F4F089557FD9058440F71
:103BC000551F59F05F3F71F04795880F97FB991F7C
:103BD00061F09F3F79F08795089512161306140639
:103BE000551FF2CF4695F1DF08C0161617061806C6
:103BF000991FF1CF86957105610508940895E894A1
:103C0000BB2766277727CB0197F9089565DF08F46E
:103C10008FEF08959B01AC0160E070E080E89FE3C6
:103C20008ACE0BD0B9CFAADF28F0AFDF18F09523EA
:103C300009F076CF7BCF1124E3CFBFDFA0F3959FB0
:103C4000D1F3950F50E0551F629FF001729FBB2783
:103C5000F00DB11D639FAA27F00DB11DAA1F649F2F
:103C60006627B00DA11D661F829F2227B00DA11DE2
:103C7000621F739FB00DA11D621F839FA00D611D68
:103C8000221F749F3327A00D611D231F849F600D89
:103C9000211D822F762F6A2F11249F5750408AF0C2
:103CA000E1F088234AF0EE0FFF1FBB1F661F771F4E
:103CB000881F91505040A9F79E3F510570F030CFBA
:103CC0009FCF5F3FECF3983EDCF386957795679541
:103CD000B795F795E7959F5FC1F7FE2B880F911D6C
:103CE0009695879597F9089511F40EF41FCF41C06A
:103CF0006CDFD0F39923D9F3CEF39F57550B87FF91
:103D000046D00024A0E640EA900180585695979549
:103D100028F4805C660F771F881F20F0261737076E
:103D2000480730F4621B730B840B202931294A2B7E
:103D3000A69517940794202531254A2758F7660F32
:103D4000771F881F20F026173707480730F4620BCB
:103D5000730B840B200D311D411DA09581F7B90116
:103D6000842F9158880F9695879508959B01AC01F3
:103D700058CF9F3F31F0915020F487957795679504
:103D8000B795880F911D9695879597F9089591504D
:103D90005040660F771F881FD2F70895991B79E06E
:103DA00004C0991F961708F0961B881F7A95C9F7CB
:103DB00080950895AA1BBB1B51E107C0AA1FBB1F1A
:103DC000A617B70710F0A61BB70B881F991F5A95A7
:103DD000A9F780959095BC01CD01089597FB072E1A
:103DE00016F4009407D077FD09D00E94DA1E07FC74
:103DF00005D03EF4909581959F4F089570956195FB
:103E00007F4F0895A1E21A2EAA1BBB1BFD010DC016
:103E1000AA1FBB1FEE1FFF1FA217B307E407F5077A
:103E200020F0A21BB30BE40BF50B661F771F881F56
:103E3000991F1A9469F760957095809590959B01EC
:103E4000AC01BD01CF010895052E97FB1EF400942F
:103E50000E943B1F57FD07D00E94021F07FC03D0A2
:103E60004EF40C943B1F50954095309521953F4F53
:103E70004F4F5F4F089590958095709561957F4F56
:103E80008F4F9F4F0895EE0FFF1F0590F491E02D87
:103E900009940E94541FA59F900DB49F900DA49F5C
:103EA000800D911D11240895A29FB001B39FC00100
:103EB000A39F700D811D1124911DB29F700D811D56
:103EC0001124911D08958F929F92AF92BF92CF922D
:103ED000DF92EF92FF92CF93DF93EC0168817981BB
:103EE0008A819B81611571058105910521F464E248
:103EF00079ED8BE597E02DE133EF41E050E00E9452
:103F0000241F49015A019B01AC01A7EAB1E40E94B8
:103F1000491F6B017C01ACEEB4EFA50194010E9436
:103F2000D91FC60ED71EE81EF91EF7FE06C081E097
:103F3000C81AD108E10880E8F80AC882D982EA8262
:103F4000FB82C701B6019F77DF91CF91FF90EF9081
:103F5000DF90CF90BF90AF909F908F9008950E9478
:103F6000631F089580E091E00E94631F08956093AD
:103F70000001709301018093020190930301089561
:103F8000F999FECF92BD81BDF89A992780B5089521
:103F9000262FF999FECF1FBA92BD81BD20BD0FB665
:103FA000F894FA9AF99A0FBE01960895B7FF0C9407
:103FB000491F0E94491F821B930B0895F894FFCF5D
:103FC00001000000FFFF090605000000D716D71604
:103FD000018803A803C803E8030D030508000000D7
:0E3FE00000E3194F1B65197E197019C11900F5
:107E0000112484B714BE81FFF0D085E080938100F7
:107E100082E08093C00088E18093C10086E0809377
:107E2000C20080E18093C4008EE0C9D0259A86E02C
:107E300020E33CEF91E0309385002093840096BBD3
:107E4000B09BFECF1D9AA8958150A9F7CC24DD24C4
:107E500088248394B5E0AB2EA1E19A2EF3E0BF2EE7
:107E6000A2D0813461F49FD0082FAFD0023811F036
:107E7000013811F484E001C083E08DD089C08234E0
:107E800011F484E103C0853419F485E0A6D080C0E4
:107E9000853579F488D0E82EFF2485D0082F10E0AE
:107EA000102F00270E291F29000F111F8ED06801E7
:107EB0006FC0863521F484E090D080E0DECF843638
:107EC00009F040C070D06FD0082F6DD080E0C81688
:107ED00080E7D80618F4F601B7BEE895C0E0D1E017
:107EE00062D089930C17E1F7F0E0CF16F0E7DF06D8
:107EF00018F0F601B7BEE89568D007B600FCFDCFD4
:107F0000A601A0E0B1E02C9130E011968C91119780
:107F100090E0982F8827822B932B1296FA010C0160
:107F200087BEE89511244E5F5F4FF1E0A038BF0790
:107F300051F7F601A7BEE89507B600FCFDCF97BE46
:107F4000E89526C08437B1F42ED02DD0F82E2BD052
:107F50003CD0F601EF2C8F010F5F1F4F84911BD097
:107F6000EA94F801C1F70894C11CD11CFA94CF0C13
:107F7000D11C0EC0853739F428D08EE10CD085E9AC
:107F80000AD08FE07ACF813511F488E018D01DD067
:107F900080E101D065CF982F8091C00085FFFCCF94
:107FA0009093C60008958091C00087FFFCCF809118
:107FB000C00084FD01C0A8958091C6000895E0E648
:107FC000F0E098E1908380830895EDDF803219F02E
:107FD00088E0F5DFFFCF84E1DECF1F93182FE3DFCA
:107FE0001150E9F7F2DF1F91089580E0E8DFEE27F6
:047FF000FF270994CA
:027FFE00040479
:0400000300007E007B
:00000001FF
